{
	"C2E_learning/050_ERC721_1.sol": {
		"MyNFT": {
			"abi": [
				{
					"anonymous": false,
					"inputs": [
						{
							"indexed": true,
							"internalType": "address",
							"name": "owner",
							"type": "address"
						},
						{
							"indexed": true,
							"internalType": "address",
							"name": "spender",
							"type": "address"
						},
						{
							"indexed": true,
							"internalType": "uint256",
							"name": "id",
							"type": "uint256"
						}
					],
					"name": "Approval",
					"type": "event"
				},
				{
					"anonymous": false,
					"inputs": [
						{
							"indexed": true,
							"internalType": "address",
							"name": "owner",
							"type": "address"
						},
						{
							"indexed": true,
							"internalType": "address",
							"name": "operator",
							"type": "address"
						},
						{
							"indexed": false,
							"internalType": "bool",
							"name": "approved",
							"type": "bool"
						}
					],
					"name": "ApprovalForAll",
					"type": "event"
				},
				{
					"anonymous": false,
					"inputs": [
						{
							"indexed": true,
							"internalType": "address",
							"name": "from",
							"type": "address"
						},
						{
							"indexed": true,
							"internalType": "address",
							"name": "to",
							"type": "address"
						},
						{
							"indexed": true,
							"internalType": "uint256",
							"name": "id",
							"type": "uint256"
						}
					],
					"name": "Transfer",
					"type": "event"
				},
				{
					"inputs": [
						{
							"internalType": "address",
							"name": "to",
							"type": "address"
						},
						{
							"internalType": "uint256",
							"name": "tokenId",
							"type": "uint256"
						}
					],
					"name": "approve",
					"outputs": [],
					"stateMutability": "nonpayable",
					"type": "function"
				},
				{
					"inputs": [
						{
							"internalType": "address",
							"name": "owner",
							"type": "address"
						}
					],
					"name": "balanceOf",
					"outputs": [
						{
							"internalType": "uint256",
							"name": "balance",
							"type": "uint256"
						}
					],
					"stateMutability": "view",
					"type": "function"
				},
				{
					"inputs": [
						{
							"internalType": "uint256",
							"name": "tokenId",
							"type": "uint256"
						}
					],
					"name": "burn",
					"outputs": [],
					"stateMutability": "nonpayable",
					"type": "function"
				},
				{
					"inputs": [
						{
							"internalType": "uint256",
							"name": "tokenId",
							"type": "uint256"
						}
					],
					"name": "getApproved",
					"outputs": [
						{
							"internalType": "address",
							"name": "operator",
							"type": "address"
						}
					],
					"stateMutability": "view",
					"type": "function"
				},
				{
					"inputs": [
						{
							"internalType": "address",
							"name": "",
							"type": "address"
						},
						{
							"internalType": "address",
							"name": "",
							"type": "address"
						}
					],
					"name": "isApprovedForAll",
					"outputs": [
						{
							"internalType": "bool",
							"name": "",
							"type": "bool"
						}
					],
					"stateMutability": "view",
					"type": "function"
				},
				{
					"inputs": [
						{
							"internalType": "address",
							"name": "to",
							"type": "address"
						},
						{
							"internalType": "uint256",
							"name": "tokenId",
							"type": "uint256"
						}
					],
					"name": "mint",
					"outputs": [],
					"stateMutability": "nonpayable",
					"type": "function"
				},
				{
					"inputs": [
						{
							"internalType": "uint256",
							"name": "tokenId",
							"type": "uint256"
						}
					],
					"name": "ownerOf",
					"outputs": [
						{
							"internalType": "address",
							"name": "owner",
							"type": "address"
						}
					],
					"stateMutability": "view",
					"type": "function"
				},
				{
					"inputs": [
						{
							"internalType": "address",
							"name": "from",
							"type": "address"
						},
						{
							"internalType": "address",
							"name": "to",
							"type": "address"
						},
						{
							"internalType": "uint256",
							"name": "tokenId",
							"type": "uint256"
						}
					],
					"name": "safeTransferFrom",
					"outputs": [],
					"stateMutability": "nonpayable",
					"type": "function"
				},
				{
					"inputs": [
						{
							"internalType": "address",
							"name": "from",
							"type": "address"
						},
						{
							"internalType": "address",
							"name": "to",
							"type": "address"
						},
						{
							"internalType": "uint256",
							"name": "tokenId",
							"type": "uint256"
						},
						{
							"internalType": "bytes",
							"name": "data",
							"type": "bytes"
						}
					],
					"name": "safeTransferFrom",
					"outputs": [],
					"stateMutability": "nonpayable",
					"type": "function"
				},
				{
					"inputs": [
						{
							"internalType": "address",
							"name": "operator",
							"type": "address"
						},
						{
							"internalType": "bool",
							"name": "_approved",
							"type": "bool"
						}
					],
					"name": "setApprovalForAll",
					"outputs": [],
					"stateMutability": "nonpayable",
					"type": "function"
				},
				{
					"inputs": [
						{
							"internalType": "bytes4",
							"name": "interfaceID",
							"type": "bytes4"
						}
					],
					"name": "supportsInterface",
					"outputs": [
						{
							"internalType": "bool",
							"name": "",
							"type": "bool"
						}
					],
					"stateMutability": "view",
					"type": "function"
				},
				{
					"inputs": [
						{
							"internalType": "address",
							"name": "from",
							"type": "address"
						},
						{
							"internalType": "address",
							"name": "to",
							"type": "address"
						},
						{
							"internalType": "uint256",
							"name": "tokenId",
							"type": "uint256"
						}
					],
					"name": "transferFrom",
					"outputs": [],
					"stateMutability": "nonpayable",
					"type": "function"
				}
			],
			"devdoc": {
				"kind": "dev",
				"methods": {},
				"version": 1
			},
			"evm": {
				"assembly": "    /* \"C2E_learning/050_ERC721_1.sol\":5508:5761  contract MyNFT is ERC721 {... */\n  mstore(0x40, 0x80)\n  callvalue\n  dup1\n  iszero\n  tag_1\n  jumpi\n  revert(0x00, 0x00)\ntag_1:\n  pop\n  dataSize(sub_0)\n  dup1\n  dataOffset(sub_0)\n  0x00\n  codecopy\n  0x00\n  return\nstop\n\nsub_0: assembly {\n        /* \"C2E_learning/050_ERC721_1.sol\":5508:5761  contract MyNFT is ERC721 {... */\n      mstore(0x40, 0x80)\n      callvalue\n      dup1\n      iszero\n      tag_1\n      jumpi\n      revert(0x00, 0x00)\n    tag_1:\n      pop\n      jumpi(tag_2, lt(calldatasize, 0x04))\n      shr(0xe0, calldataload(0x00))\n      dup1\n      0x42966c68\n      gt\n      tag_15\n      jumpi\n      dup1\n      0x42966c68\n      eq\n      tag_9\n      jumpi\n      dup1\n      0x6352211e\n      eq\n      tag_10\n      jumpi\n      dup1\n      0x70a08231\n      eq\n      tag_11\n      jumpi\n      dup1\n      0xa22cb465\n      eq\n      tag_12\n      jumpi\n      dup1\n      0xb88d4fde\n      eq\n      tag_13\n      jumpi\n      dup1\n      0xe985e9c5\n      eq\n      tag_14\n      jumpi\n      jump(tag_2)\n    tag_15:\n      dup1\n      0x01ffc9a7\n      eq\n      tag_3\n      jumpi\n      dup1\n      0x081812fc\n      eq\n      tag_4\n      jumpi\n      dup1\n      0x095ea7b3\n      eq\n      tag_5\n      jumpi\n      dup1\n      0x23b872dd\n      eq\n      tag_6\n      jumpi\n      dup1\n      0x40c10f19\n      eq\n      tag_7\n      jumpi\n      dup1\n      0x42842e0e\n      eq\n      tag_8\n      jumpi\n    tag_2:\n      revert(0x00, 0x00)\n        /* \"C2E_learning/050_ERC721_1.sol\":1836:2058  function supportsInterface(... */\n    tag_3:\n      tag_16\n      0x04\n      dup1\n      calldatasize\n      sub\n      dup2\n      add\n      swap1\n      tag_17\n      swap2\n      swap1\n      tag_18\n      jump\t// in\n    tag_17:\n      tag_19\n      jump\t// in\n    tag_16:\n      mload(0x40)\n      tag_20\n      swap2\n      swap1\n      tag_21\n      jump\t// in\n    tag_20:\n      mload(0x40)\n      dup1\n      swap2\n      sub\n      swap1\n      return\n        /* \"C2E_learning/050_ERC721_1.sol\":2941:3148  function getApproved(... */\n    tag_4:\n      tag_22\n      0x04\n      dup1\n      calldatasize\n      sub\n      dup2\n      add\n      swap1\n      tag_23\n      swap2\n      swap1\n      tag_24\n      jump\t// in\n    tag_23:\n      tag_25\n      jump\t// in\n    tag_22:\n      mload(0x40)\n      tag_26\n      swap2\n      swap1\n      tag_27\n      jump\t// in\n    tag_26:\n      mload(0x40)\n      dup1\n      swap2\n      sub\n      swap1\n      return\n        /* \"C2E_learning/050_ERC721_1.sol\":2625:2936  function approve(address to, uint256 tokenId) external {... */\n    tag_5:\n      tag_28\n      0x04\n      dup1\n      calldatasize\n      sub\n      dup2\n      add\n      swap1\n      tag_29\n      swap2\n      swap1\n      tag_30\n      jump\t// in\n    tag_29:\n      tag_31\n      jump\t// in\n    tag_28:\n      stop\n        /* \"C2E_learning/050_ERC721_1.sol\":3428:3870  function transferFrom(address from, address to, uint256 tokenId) public {... */\n    tag_6:\n      tag_32\n      0x04\n      dup1\n      calldatasize\n      sub\n      dup2\n      add\n      swap1\n      tag_33\n      swap2\n      swap1\n      tag_34\n      jump\t// in\n    tag_33:\n      tag_35\n      jump\t// in\n    tag_32:\n      stop\n        /* \"C2E_learning/050_ERC721_1.sol\":5539:5623  function mint(address to, uint tokenId) external {... */\n    tag_7:\n      tag_36\n      0x04\n      dup1\n      calldatasize\n      sub\n      dup2\n      add\n      swap1\n      tag_37\n      swap2\n      swap1\n      tag_30\n      jump\t// in\n    tag_37:\n      tag_38\n      jump\t// in\n    tag_36:\n      stop\n        /* \"C2E_learning/050_ERC721_1.sol\":3876:4374  function safeTransferFrom(... */\n    tag_8:\n      tag_39\n      0x04\n      dup1\n      calldatasize\n      sub\n      dup2\n      add\n      swap1\n      tag_40\n      swap2\n      swap1\n      tag_34\n      jump\t// in\n    tag_40:\n      tag_41\n      jump\t// in\n    tag_39:\n      stop\n        /* \"C2E_learning/050_ERC721_1.sol\":5628:5759  function burn(uint tokenId) external {... */\n    tag_9:\n      tag_42\n      0x04\n      dup1\n      calldatasize\n      sub\n      dup2\n      add\n      swap1\n      tag_43\n      swap2\n      swap1\n      tag_24\n      jump\t// in\n    tag_43:\n      tag_44\n      jump\t// in\n    tag_42:\n      stop\n        /* \"C2E_learning/050_ERC721_1.sol\":2242:2415  function ownerOf(uint256 tokenId) external view returns (address owner) {... */\n    tag_10:\n      tag_45\n      0x04\n      dup1\n      calldatasize\n      sub\n      dup2\n      add\n      swap1\n      tag_46\n      swap2\n      swap1\n      tag_24\n      jump\t// in\n    tag_46:\n      tag_47\n      jump\t// in\n    tag_45:\n      mload(0x40)\n      tag_48\n      swap2\n      swap1\n      tag_27\n      jump\t// in\n    tag_48:\n      mload(0x40)\n      dup1\n      swap2\n      sub\n      swap1\n      return\n        /* \"C2E_learning/050_ERC721_1.sol\":2063:2237  function balanceOf(address owner) external view returns (uint256 balance) {... */\n    tag_11:\n      tag_49\n      0x04\n      dup1\n      calldatasize\n      sub\n      dup2\n      add\n      swap1\n      tag_50\n      swap2\n      swap1\n      tag_51\n      jump\t// in\n    tag_50:\n      tag_52\n      jump\t// in\n    tag_49:\n      mload(0x40)\n      tag_53\n      swap2\n      swap1\n      tag_54\n      jump\t// in\n    tag_53:\n      mload(0x40)\n      dup1\n      swap2\n      sub\n      swap1\n      return\n        /* \"C2E_learning/050_ERC721_1.sol\":2420:2619  function setApprovalForAll(address operator, bool _approved) external {... */\n    tag_12:\n      tag_55\n      0x04\n      dup1\n      calldatasize\n      sub\n      dup2\n      add\n      swap1\n      tag_56\n      swap2\n      swap1\n      tag_57\n      jump\t// in\n    tag_56:\n      tag_58\n      jump\t// in\n    tag_55:\n      stop\n        /* \"C2E_learning/050_ERC721_1.sol\":4380:4909  function safeTransferFrom(... */\n    tag_13:\n      tag_59\n      0x04\n      dup1\n      calldatasize\n      sub\n      dup2\n      add\n      swap1\n      tag_60\n      swap2\n      swap1\n      tag_61\n      jump\t// in\n    tag_60:\n      tag_62\n      jump\t// in\n    tag_59:\n      stop\n        /* \"C2E_learning/050_ERC721_1.sol\":1761:1829  mapping(address => mapping(address => bool)) public isApprovedForAll */\n    tag_14:\n      tag_63\n      0x04\n      dup1\n      calldatasize\n      sub\n      dup2\n      add\n      swap1\n      tag_64\n      swap2\n      swap1\n      tag_65\n      jump\t// in\n    tag_64:\n      tag_66\n      jump\t// in\n    tag_63:\n      mload(0x40)\n      tag_67\n      swap2\n      swap1\n      tag_21\n      jump\t// in\n    tag_67:\n      mload(0x40)\n      dup1\n      swap2\n      sub\n      swap1\n      return\n        /* \"C2E_learning/050_ERC721_1.sol\":1836:2058  function supportsInterface(... */\n    tag_19:\n        /* \"C2E_learning/050_ERC721_1.sol\":1920:1924  bool */\n      0x00\n        /* \"C2E_learning/050_ERC721_1.sol\":1970:1995  type(IERC721).interfaceId */\n      0x80ac58cd00000000000000000000000000000000000000000000000000000000\n        /* \"C2E_learning/050_ERC721_1.sol\":1955:1995  interfaceID == type(IERC721).interfaceId */\n      not(0xffffffffffffffffffffffffffffffffffffffffffffffffffffffff)\n      and\n        /* \"C2E_learning/050_ERC721_1.sol\":1955:1966  interfaceID */\n      dup3\n        /* \"C2E_learning/050_ERC721_1.sol\":1955:1995  interfaceID == type(IERC721).interfaceId */\n      not(0xffffffffffffffffffffffffffffffffffffffffffffffffffffffff)\n      and\n      eq\n        /* \"C2E_learning/050_ERC721_1.sol\":1955:2051  interfaceID == type(IERC721).interfaceId ||... */\n      dup1\n      tag_69\n      jumpi\n      pop\n        /* \"C2E_learning/050_ERC721_1.sol\":2026:2051  type(IERC165).interfaceId */\n      0x01ffc9a700000000000000000000000000000000000000000000000000000000\n        /* \"C2E_learning/050_ERC721_1.sol\":2011:2051  interfaceID == type(IERC165).interfaceId */\n      not(0xffffffffffffffffffffffffffffffffffffffffffffffffffffffff)\n      and\n        /* \"C2E_learning/050_ERC721_1.sol\":2011:2022  interfaceID */\n      dup3\n        /* \"C2E_learning/050_ERC721_1.sol\":2011:2051  interfaceID == type(IERC165).interfaceId */\n      not(0xffffffffffffffffffffffffffffffffffffffffffffffffffffffff)\n      and\n      eq\n        /* \"C2E_learning/050_ERC721_1.sol\":1955:2051  interfaceID == type(IERC721).interfaceId ||... */\n    tag_69:\n        /* \"C2E_learning/050_ERC721_1.sol\":1936:2051  return... */\n      swap1\n      pop\n        /* \"C2E_learning/050_ERC721_1.sol\":1836:2058  function supportsInterface(... */\n      swap2\n      swap1\n      pop\n      jump\t// out\n        /* \"C2E_learning/050_ERC721_1.sol\":2941:3148  function getApproved(... */\n    tag_25:\n        /* \"C2E_learning/050_ERC721_1.sol\":3016:3032  address operator */\n      0x00\n        /* \"C2E_learning/050_ERC721_1.sol\":3081:3082  0 */\n      0x00\n        /* \"C2E_learning/050_ERC721_1.sol\":3052:3083  _ownerOf[tokenId] != address(0) */\n      0xffffffffffffffffffffffffffffffffffffffff\n      and\n        /* \"C2E_learning/050_ERC721_1.sol\":3052:3060  _ownerOf */\n      0x00\n        /* \"C2E_learning/050_ERC721_1.sol\":3052:3069  _ownerOf[tokenId] */\n      0x00\n        /* \"C2E_learning/050_ERC721_1.sol\":3061:3068  tokenId */\n      dup5\n        /* \"C2E_learning/050_ERC721_1.sol\":3052:3069  _ownerOf[tokenId] */\n      dup2\n      mstore\n      0x20\n      add\n      swap1\n      dup2\n      mstore\n      0x20\n      add\n      0x00\n      keccak256\n      0x00\n      swap1\n      sload\n      swap1\n      0x0100\n      exp\n      swap1\n      div\n      0xffffffffffffffffffffffffffffffffffffffff\n      and\n        /* \"C2E_learning/050_ERC721_1.sol\":3052:3083  _ownerOf[tokenId] != address(0) */\n      0xffffffffffffffffffffffffffffffffffffffff\n      and\n      sub\n        /* \"C2E_learning/050_ERC721_1.sol\":3044:3105  require(_ownerOf[tokenId] != address(0), \"tokenId not exist\") */\n      tag_71\n      jumpi\n      mload(0x40)\n      0x08c379a000000000000000000000000000000000000000000000000000000000\n      dup2\n      mstore\n      0x04\n      add\n      tag_72\n      swap1\n      tag_73\n      jump\t// in\n    tag_72:\n      mload(0x40)\n      dup1\n      swap2\n      sub\n      swap1\n      revert\n    tag_71:\n        /* \"C2E_learning/050_ERC721_1.sol\":3122:3132  _approvals */\n      0x02\n        /* \"C2E_learning/050_ERC721_1.sol\":3122:3141  _approvals[tokenId] */\n      0x00\n        /* \"C2E_learning/050_ERC721_1.sol\":3133:3140  tokenId */\n      dup4\n        /* \"C2E_learning/050_ERC721_1.sol\":3122:3141  _approvals[tokenId] */\n      dup2\n      mstore\n      0x20\n      add\n      swap1\n      dup2\n      mstore\n      0x20\n      add\n      0x00\n      keccak256\n      0x00\n      swap1\n      sload\n      swap1\n      0x0100\n      exp\n      swap1\n      div\n      0xffffffffffffffffffffffffffffffffffffffff\n      and\n        /* \"C2E_learning/050_ERC721_1.sol\":3115:3141  return _approvals[tokenId] */\n      swap1\n      pop\n        /* \"C2E_learning/050_ERC721_1.sol\":2941:3148  function getApproved(... */\n      swap2\n      swap1\n      pop\n      jump\t// out\n        /* \"C2E_learning/050_ERC721_1.sol\":2625:2936  function approve(address to, uint256 tokenId) external {... */\n    tag_31:\n        /* \"C2E_learning/050_ERC721_1.sol\":2690:2703  address owner */\n      0x00\n        /* \"C2E_learning/050_ERC721_1.sol\":2706:2714  _ownerOf */\n      0x00\n        /* \"C2E_learning/050_ERC721_1.sol\":2706:2723  _ownerOf[tokenId] */\n      0x00\n        /* \"C2E_learning/050_ERC721_1.sol\":2715:2722  tokenId */\n      dup4\n        /* \"C2E_learning/050_ERC721_1.sol\":2706:2723  _ownerOf[tokenId] */\n      dup2\n      mstore\n      0x20\n      add\n      swap1\n      dup2\n      mstore\n      0x20\n      add\n      0x00\n      keccak256\n      0x00\n      swap1\n      sload\n      swap1\n      0x0100\n      exp\n      swap1\n      div\n      0xffffffffffffffffffffffffffffffffffffffff\n      and\n        /* \"C2E_learning/050_ERC721_1.sol\":2690:2723  address owner = _ownerOf[tokenId] */\n      swap1\n      pop\n        /* \"C2E_learning/050_ERC721_1.sol\":2768:2773  owner */\n      dup1\n        /* \"C2E_learning/050_ERC721_1.sol\":2754:2773  msg.sender == owner */\n      0xffffffffffffffffffffffffffffffffffffffff\n      and\n        /* \"C2E_learning/050_ERC721_1.sol\":2754:2764  msg.sender */\n      caller\n        /* \"C2E_learning/050_ERC721_1.sol\":2754:2773  msg.sender == owner */\n      0xffffffffffffffffffffffffffffffffffffffff\n      and\n      eq\n        /* \"C2E_learning/050_ERC721_1.sol\":2754:2812  msg.sender == owner || isApprovedForAll[owner][msg.sender] */\n      dup1\n      tag_75\n      jumpi\n      pop\n        /* \"C2E_learning/050_ERC721_1.sol\":2777:2793  isApprovedForAll */\n      0x03\n        /* \"C2E_learning/050_ERC721_1.sol\":2777:2800  isApprovedForAll[owner] */\n      0x00\n        /* \"C2E_learning/050_ERC721_1.sol\":2794:2799  owner */\n      dup3\n        /* \"C2E_learning/050_ERC721_1.sol\":2777:2800  isApprovedForAll[owner] */\n      0xffffffffffffffffffffffffffffffffffffffff\n      and\n      0xffffffffffffffffffffffffffffffffffffffff\n      and\n      dup2\n      mstore\n      0x20\n      add\n      swap1\n      dup2\n      mstore\n      0x20\n      add\n      0x00\n      keccak256\n        /* \"C2E_learning/050_ERC721_1.sol\":2777:2812  isApprovedForAll[owner][msg.sender] */\n      0x00\n        /* \"C2E_learning/050_ERC721_1.sol\":2801:2811  msg.sender */\n      caller\n        /* \"C2E_learning/050_ERC721_1.sol\":2777:2812  isApprovedForAll[owner][msg.sender] */\n      0xffffffffffffffffffffffffffffffffffffffff\n      and\n      0xffffffffffffffffffffffffffffffffffffffff\n      and\n      dup2\n      mstore\n      0x20\n      add\n      swap1\n      dup2\n      mstore\n      0x20\n      add\n      0x00\n      keccak256\n      0x00\n      swap1\n      sload\n      swap1\n      0x0100\n      exp\n      swap1\n      div\n      0xff\n      and\n        /* \"C2E_learning/050_ERC721_1.sol\":2754:2812  msg.sender == owner || isApprovedForAll[owner][msg.sender] */\n    tag_75:\n        /* \"C2E_learning/050_ERC721_1.sol\":2733:2852  require(... */\n      tag_76\n      jumpi\n      mload(0x40)\n      0x08c379a000000000000000000000000000000000000000000000000000000000\n      dup2\n      mstore\n      0x04\n      add\n      tag_77\n      swap1\n      tag_78\n      jump\t// in\n    tag_77:\n      mload(0x40)\n      dup1\n      swap2\n      sub\n      swap1\n      revert\n    tag_76:\n        /* \"C2E_learning/050_ERC721_1.sol\":2884:2886  to */\n      dup3\n        /* \"C2E_learning/050_ERC721_1.sol\":2862:2872  _approvals */\n      0x02\n        /* \"C2E_learning/050_ERC721_1.sol\":2862:2881  _approvals[tokenId] */\n      0x00\n        /* \"C2E_learning/050_ERC721_1.sol\":2873:2880  tokenId */\n      dup5\n        /* \"C2E_learning/050_ERC721_1.sol\":2862:2881  _approvals[tokenId] */\n      dup2\n      mstore\n      0x20\n      add\n      swap1\n      dup2\n      mstore\n      0x20\n      add\n      0x00\n      keccak256\n      0x00\n        /* \"C2E_learning/050_ERC721_1.sol\":2862:2886  _approvals[tokenId] = to */\n      0x0100\n      exp\n      dup2\n      sload\n      dup2\n      0xffffffffffffffffffffffffffffffffffffffff\n      mul\n      not\n      and\n      swap1\n      dup4\n      0xffffffffffffffffffffffffffffffffffffffff\n      and\n      mul\n      or\n      swap1\n      sstore\n      pop\n        /* \"C2E_learning/050_ERC721_1.sol\":2921:2928  tokenId */\n      dup2\n        /* \"C2E_learning/050_ERC721_1.sol\":2917:2919  to */\n      dup4\n        /* \"C2E_learning/050_ERC721_1.sol\":2901:2929  Approval(owner, to, tokenId) */\n      0xffffffffffffffffffffffffffffffffffffffff\n      and\n        /* \"C2E_learning/050_ERC721_1.sol\":2910:2915  owner */\n      dup3\n        /* \"C2E_learning/050_ERC721_1.sol\":2901:2929  Approval(owner, to, tokenId) */\n      0xffffffffffffffffffffffffffffffffffffffff\n      and\n      0x8c5be1e5ebec7d5bd14f71427d1e84f3dd0314c0f7b2291e5b200ac8c7c3b925\n      mload(0x40)\n      mload(0x40)\n      dup1\n      swap2\n      sub\n      swap1\n      log4\n        /* \"C2E_learning/050_ERC721_1.sol\":2680:2936  {... */\n      pop\n        /* \"C2E_learning/050_ERC721_1.sol\":2625:2936  function approve(address to, uint256 tokenId) external {... */\n      pop\n      pop\n      jump\t// out\n        /* \"C2E_learning/050_ERC721_1.sol\":3428:3870  function transferFrom(address from, address to, uint256 tokenId) public {... */\n    tag_35:\n        /* \"C2E_learning/050_ERC721_1.sol\":3526:3534  _ownerOf */\n      0x00\n        /* \"C2E_learning/050_ERC721_1.sol\":3526:3543  _ownerOf[tokenId] */\n      0x00\n        /* \"C2E_learning/050_ERC721_1.sol\":3535:3542  tokenId */\n      dup3\n        /* \"C2E_learning/050_ERC721_1.sol\":3526:3543  _ownerOf[tokenId] */\n      dup2\n      mstore\n      0x20\n      add\n      swap1\n      dup2\n      mstore\n      0x20\n      add\n      0x00\n      keccak256\n      0x00\n      swap1\n      sload\n      swap1\n      0x0100\n      exp\n      swap1\n      div\n      0xffffffffffffffffffffffffffffffffffffffff\n      and\n        /* \"C2E_learning/050_ERC721_1.sol\":3518:3543  from == _ownerOf[tokenId] */\n      0xffffffffffffffffffffffffffffffffffffffff\n      and\n        /* \"C2E_learning/050_ERC721_1.sol\":3518:3522  from */\n      dup4\n        /* \"C2E_learning/050_ERC721_1.sol\":3518:3543  from == _ownerOf[tokenId] */\n      0xffffffffffffffffffffffffffffffffffffffff\n      and\n      eq\n        /* \"C2E_learning/050_ERC721_1.sol\":3510:3562  require(from == _ownerOf[tokenId], \" from != owner\") */\n      tag_80\n      jumpi\n      mload(0x40)\n      0x08c379a000000000000000000000000000000000000000000000000000000000\n      dup2\n      mstore\n      0x04\n      add\n      tag_81\n      swap1\n      tag_82\n      jump\t// in\n    tag_81:\n      mload(0x40)\n      dup1\n      swap2\n      sub\n      swap1\n      revert\n    tag_80:\n        /* \"C2E_learning/050_ERC721_1.sol\":3594:3595  0 */\n      0x00\n        /* \"C2E_learning/050_ERC721_1.sol\":3580:3596  to != address(0) */\n      0xffffffffffffffffffffffffffffffffffffffff\n      and\n        /* \"C2E_learning/050_ERC721_1.sol\":3580:3582  to */\n      dup3\n        /* \"C2E_learning/050_ERC721_1.sol\":3580:3596  to != address(0) */\n      0xffffffffffffffffffffffffffffffffffffffff\n      and\n      sub\n        /* \"C2E_learning/050_ERC721_1.sol\":3572:3618  require(to != address(0), \"to = zero address\") */\n      tag_83\n      jumpi\n      mload(0x40)\n      0x08c379a000000000000000000000000000000000000000000000000000000000\n      dup2\n      mstore\n      0x04\n      add\n      tag_84\n      swap1\n      tag_85\n      jump\t// in\n    tag_84:\n      mload(0x40)\n      dup1\n      swap2\n      sub\n      swap1\n      revert\n    tag_83:\n        /* \"C2E_learning/050_ERC721_1.sol\":3636:3681  _isApprovedOrOwner(from, msg.sender, tokenId) */\n      tag_86\n        /* \"C2E_learning/050_ERC721_1.sol\":3655:3659  from */\n      dup4\n        /* \"C2E_learning/050_ERC721_1.sol\":3661:3671  msg.sender */\n      caller\n        /* \"C2E_learning/050_ERC721_1.sol\":3673:3680  tokenId */\n      dup4\n        /* \"C2E_learning/050_ERC721_1.sol\":3636:3654  _isApprovedOrOwner */\n      tag_87\n        /* \"C2E_learning/050_ERC721_1.sol\":3636:3681  _isApprovedOrOwner(from, msg.sender, tokenId) */\n      jump\t// in\n    tag_86:\n        /* \"C2E_learning/050_ERC721_1.sol\":3628:3699  require(_isApprovedOrOwner(from, msg.sender, tokenId), \"not authrized\") */\n      tag_88\n      jumpi\n      mload(0x40)\n      0x08c379a000000000000000000000000000000000000000000000000000000000\n      dup2\n      mstore\n      0x04\n      add\n      tag_89\n      swap1\n      tag_90\n      jump\t// in\n    tag_89:\n      mload(0x40)\n      dup1\n      swap2\n      sub\n      swap1\n      revert\n    tag_88:\n        /* \"C2E_learning/050_ERC721_1.sol\":3709:3719  _balanceOf */\n      0x01\n        /* \"C2E_learning/050_ERC721_1.sol\":3709:3725  _balanceOf[from] */\n      0x00\n        /* \"C2E_learning/050_ERC721_1.sol\":3720:3724  from */\n      dup5\n        /* \"C2E_learning/050_ERC721_1.sol\":3709:3725  _balanceOf[from] */\n      0xffffffffffffffffffffffffffffffffffffffff\n      and\n      0xffffffffffffffffffffffffffffffffffffffff\n      and\n      dup2\n      mstore\n      0x20\n      add\n      swap1\n      dup2\n      mstore\n      0x20\n      add\n      0x00\n      keccak256\n      0x00\n        /* \"C2E_learning/050_ERC721_1.sol\":3709:3727  _balanceOf[from]-- */\n      dup2\n      sload\n      dup1\n      swap3\n      swap2\n      swap1\n      tag_91\n      swap1\n      tag_92\n      jump\t// in\n    tag_91:\n      swap2\n      swap1\n      pop\n      sstore\n      pop\n        /* \"C2E_learning/050_ERC721_1.sol\":3737:3747  _balanceOf */\n      0x01\n        /* \"C2E_learning/050_ERC721_1.sol\":3737:3751  _balanceOf[to] */\n      0x00\n        /* \"C2E_learning/050_ERC721_1.sol\":3748:3750  to */\n      dup4\n        /* \"C2E_learning/050_ERC721_1.sol\":3737:3751  _balanceOf[to] */\n      0xffffffffffffffffffffffffffffffffffffffff\n      and\n      0xffffffffffffffffffffffffffffffffffffffff\n      and\n      dup2\n      mstore\n      0x20\n      add\n      swap1\n      dup2\n      mstore\n      0x20\n      add\n      0x00\n      keccak256\n      0x00\n        /* \"C2E_learning/050_ERC721_1.sol\":3737:3753  _balanceOf[to]++ */\n      dup2\n      sload\n      dup1\n      swap3\n      swap2\n      swap1\n      tag_93\n      swap1\n      tag_94\n      jump\t// in\n    tag_93:\n      swap2\n      swap1\n      pop\n      sstore\n      pop\n        /* \"C2E_learning/050_ERC721_1.sol\":3783:3785  to */\n      dup2\n        /* \"C2E_learning/050_ERC721_1.sol\":3763:3771  _ownerOf */\n      0x00\n        /* \"C2E_learning/050_ERC721_1.sol\":3763:3780  _ownerOf[tokenId] */\n      0x00\n        /* \"C2E_learning/050_ERC721_1.sol\":3772:3779  tokenId */\n      dup4\n        /* \"C2E_learning/050_ERC721_1.sol\":3763:3780  _ownerOf[tokenId] */\n      dup2\n      mstore\n      0x20\n      add\n      swap1\n      dup2\n      mstore\n      0x20\n      add\n      0x00\n      keccak256\n      0x00\n        /* \"C2E_learning/050_ERC721_1.sol\":3763:3785  _ownerOf[tokenId] = to */\n      0x0100\n      exp\n      dup2\n      sload\n      dup2\n      0xffffffffffffffffffffffffffffffffffffffff\n      mul\n      not\n      and\n      swap1\n      dup4\n      0xffffffffffffffffffffffffffffffffffffffff\n      and\n      mul\n      or\n      swap1\n      sstore\n      pop\n        /* \"C2E_learning/050_ERC721_1.sol\":3802:3812  _approvals */\n      0x02\n        /* \"C2E_learning/050_ERC721_1.sol\":3802:3821  _approvals[tokenId] */\n      0x00\n        /* \"C2E_learning/050_ERC721_1.sol\":3813:3820  tokenId */\n      dup3\n        /* \"C2E_learning/050_ERC721_1.sol\":3802:3821  _approvals[tokenId] */\n      dup2\n      mstore\n      0x20\n      add\n      swap1\n      dup2\n      mstore\n      0x20\n      add\n      0x00\n      keccak256\n      0x00\n        /* \"C2E_learning/050_ERC721_1.sol\":3795:3821  delete _approvals[tokenId] */\n      0x0100\n      exp\n      dup2\n      sload\n      swap1\n      0xffffffffffffffffffffffffffffffffffffffff\n      mul\n      not\n      and\n      swap1\n      sstore\n        /* \"C2E_learning/050_ERC721_1.sol\":3855:3862  tokenId */\n      dup1\n        /* \"C2E_learning/050_ERC721_1.sol\":3851:3853  to */\n      dup3\n        /* \"C2E_learning/050_ERC721_1.sol\":3836:3863  Transfer(from, to, tokenId) */\n      0xffffffffffffffffffffffffffffffffffffffff\n      and\n        /* \"C2E_learning/050_ERC721_1.sol\":3845:3849  from */\n      dup5\n        /* \"C2E_learning/050_ERC721_1.sol\":3836:3863  Transfer(from, to, tokenId) */\n      0xffffffffffffffffffffffffffffffffffffffff\n      and\n      0xddf252ad1be2c89b69c2b068fc378daa952ba7f163c4a11628f55a4df523b3ef\n      mload(0x40)\n      mload(0x40)\n      dup1\n      swap2\n      sub\n      swap1\n      log4\n        /* \"C2E_learning/050_ERC721_1.sol\":3428:3870  function transferFrom(address from, address to, uint256 tokenId) public {... */\n      pop\n      pop\n      pop\n      jump\t// out\n        /* \"C2E_learning/050_ERC721_1.sol\":5539:5623  function mint(address to, uint tokenId) external {... */\n    tag_38:\n        /* \"C2E_learning/050_ERC721_1.sol\":5598:5616  _mint(to, tokenId) */\n      tag_96\n        /* \"C2E_learning/050_ERC721_1.sol\":5604:5606  to */\n      dup3\n        /* \"C2E_learning/050_ERC721_1.sol\":5608:5615  tokenId */\n      dup3\n        /* \"C2E_learning/050_ERC721_1.sol\":5598:5603  _mint */\n      tag_97\n        /* \"C2E_learning/050_ERC721_1.sol\":5598:5616  _mint(to, tokenId) */\n      jump\t// in\n    tag_96:\n        /* \"C2E_learning/050_ERC721_1.sol\":5539:5623  function mint(address to, uint tokenId) external {... */\n      pop\n      pop\n      jump\t// out\n        /* \"C2E_learning/050_ERC721_1.sol\":3876:4374  function safeTransferFrom(... */\n    tag_41:\n        /* \"C2E_learning/050_ERC721_1.sol\":3994:4025  transferFrom(from, to, tokenId) */\n      tag_99\n        /* \"C2E_learning/050_ERC721_1.sol\":4007:4011  from */\n      dup4\n        /* \"C2E_learning/050_ERC721_1.sol\":4013:4015  to */\n      dup4\n        /* \"C2E_learning/050_ERC721_1.sol\":4017:4024  tokenId */\n      dup4\n        /* \"C2E_learning/050_ERC721_1.sol\":3994:4006  transferFrom */\n      tag_35\n        /* \"C2E_learning/050_ERC721_1.sol\":3994:4025  transferFrom(from, to, tokenId) */\n      jump\t// in\n    tag_99:\n        /* \"C2E_learning/050_ERC721_1.sol\":4074:4075  0 */\n      0x00\n        /* \"C2E_learning/050_ERC721_1.sol\":4056:4058  to */\n      dup3\n        /* \"C2E_learning/050_ERC721_1.sol\":4056:4070  to.code.length */\n      0xffffffffffffffffffffffffffffffffffffffff\n      and\n      extcodesize\n        /* \"C2E_learning/050_ERC721_1.sol\":4056:4075  to.code.length == 0 */\n      eq\n        /* \"C2E_learning/050_ERC721_1.sol\":4056:4325  to.code.length == 0 ||... */\n      dup1\n      tag_100\n      jumpi\n      pop\n        /* \"C2E_learning/050_ERC721_1.sol\":4284:4325  IERC721Receiver.onERC721Received.selector */\n      shl(0xe0, 0x150b7a02)\n        /* \"C2E_learning/050_ERC721_1.sol\":4095:4325  IERC721Receiver(to).onERC721Received(... */\n      not(0xffffffffffffffffffffffffffffffffffffffffffffffffffffffff)\n      and\n        /* \"C2E_learning/050_ERC721_1.sol\":4111:4113  to */\n      dup3\n        /* \"C2E_learning/050_ERC721_1.sol\":4095:4131  IERC721Receiver(to).onERC721Received */\n      0xffffffffffffffffffffffffffffffffffffffff\n      and\n      0x150b7a02\n        /* \"C2E_learning/050_ERC721_1.sol\":4153:4163  msg.sender */\n      caller\n        /* \"C2E_learning/050_ERC721_1.sol\":4185:4189  from */\n      dup7\n        /* \"C2E_learning/050_ERC721_1.sol\":4211:4218  tokenId */\n      dup6\n        /* \"C2E_learning/050_ERC721_1.sol\":4095:4260  IERC721Receiver(to).onERC721Received(... */\n      mload(0x40)\n      dup5\n      0xffffffff\n      and\n      0xe0\n      shl\n      dup2\n      mstore\n      0x04\n      add\n      tag_101\n      swap4\n      swap3\n      swap2\n      swap1\n      tag_102\n      jump\t// in\n    tag_101:\n      0x20\n      mload(0x40)\n      dup1\n      dup4\n      sub\n      dup2\n      0x00\n      dup8\n      gas\n      call\n      iszero\n      dup1\n      iszero\n      tag_104\n      jumpi\n      returndatacopy(0x00, 0x00, returndatasize)\n      revert(0x00, returndatasize)\n    tag_104:\n      pop\n      pop\n      pop\n      pop\n      mload(0x40)\n      returndatasize\n      not(0x1f)\n      0x1f\n      dup3\n      add\n      and\n      dup3\n      add\n      dup1\n      0x40\n      mstore\n      pop\n      dup2\n      add\n      swap1\n      tag_105\n      swap2\n      swap1\n      tag_106\n      jump\t// in\n    tag_105:\n        /* \"C2E_learning/050_ERC721_1.sol\":4095:4325  IERC721Receiver(to).onERC721Received(... */\n      not(0xffffffffffffffffffffffffffffffffffffffffffffffffffffffff)\n      and\n      eq\n        /* \"C2E_learning/050_ERC721_1.sol\":4056:4325  to.code.length == 0 ||... */\n    tag_100:\n        /* \"C2E_learning/050_ERC721_1.sol\":4035:4367  require(... */\n      tag_107\n      jumpi\n      mload(0x40)\n      0x08c379a000000000000000000000000000000000000000000000000000000000\n      dup2\n      mstore\n      0x04\n      add\n      tag_108\n      swap1\n      tag_109\n      jump\t// in\n    tag_108:\n      mload(0x40)\n      dup1\n      swap2\n      sub\n      swap1\n      revert\n    tag_107:\n        /* \"C2E_learning/050_ERC721_1.sol\":3876:4374  function safeTransferFrom(... */\n      pop\n      pop\n      pop\n      jump\t// out\n        /* \"C2E_learning/050_ERC721_1.sol\":5628:5759  function burn(uint tokenId) external {... */\n    tag_44:\n        /* \"C2E_learning/050_ERC721_1.sol\":5697:5705  _ownerOf */\n      0x00\n        /* \"C2E_learning/050_ERC721_1.sol\":5697:5714  _ownerOf[tokenId] */\n      0x00\n        /* \"C2E_learning/050_ERC721_1.sol\":5706:5713  tokenId */\n      dup3\n        /* \"C2E_learning/050_ERC721_1.sol\":5697:5714  _ownerOf[tokenId] */\n      dup2\n      mstore\n      0x20\n      add\n      swap1\n      dup2\n      mstore\n      0x20\n      add\n      0x00\n      keccak256\n      0x00\n      swap1\n      sload\n      swap1\n      0x0100\n      exp\n      swap1\n      div\n      0xffffffffffffffffffffffffffffffffffffffff\n      and\n        /* \"C2E_learning/050_ERC721_1.sol\":5683:5714  msg.sender == _ownerOf[tokenId] */\n      0xffffffffffffffffffffffffffffffffffffffff\n      and\n        /* \"C2E_learning/050_ERC721_1.sol\":5683:5693  msg.sender */\n      caller\n        /* \"C2E_learning/050_ERC721_1.sol\":5683:5714  msg.sender == _ownerOf[tokenId] */\n      0xffffffffffffffffffffffffffffffffffffffff\n      and\n      eq\n        /* \"C2E_learning/050_ERC721_1.sol\":5675:5728  require(msg.sender == _ownerOf[tokenId], \"not owner\") */\n      tag_111\n      jumpi\n      mload(0x40)\n      0x08c379a000000000000000000000000000000000000000000000000000000000\n      dup2\n      mstore\n      0x04\n      add\n      tag_112\n      swap1\n      tag_113\n      jump\t// in\n    tag_112:\n      mload(0x40)\n      dup1\n      swap2\n      sub\n      swap1\n      revert\n    tag_111:\n        /* \"C2E_learning/050_ERC721_1.sol\":5738:5752  _burn(tokenId) */\n      tag_114\n        /* \"C2E_learning/050_ERC721_1.sol\":5744:5751  tokenId */\n      dup2\n        /* \"C2E_learning/050_ERC721_1.sol\":5738:5743  _burn */\n      tag_115\n        /* \"C2E_learning/050_ERC721_1.sol\":5738:5752  _burn(tokenId) */\n      jump\t// in\n    tag_114:\n        /* \"C2E_learning/050_ERC721_1.sol\":5628:5759  function burn(uint tokenId) external {... */\n      pop\n      jump\t// out\n        /* \"C2E_learning/050_ERC721_1.sol\":2242:2415  function ownerOf(uint256 tokenId) external view returns (address owner) {... */\n    tag_47:\n        /* \"C2E_learning/050_ERC721_1.sol\":2299:2312  address owner */\n      0x00\n        /* \"C2E_learning/050_ERC721_1.sol\":2332:2340  _ownerOf */\n      0x00\n        /* \"C2E_learning/050_ERC721_1.sol\":2332:2349  _ownerOf[tokenId] */\n      0x00\n        /* \"C2E_learning/050_ERC721_1.sol\":2341:2348  tokenId */\n      dup4\n        /* \"C2E_learning/050_ERC721_1.sol\":2332:2349  _ownerOf[tokenId] */\n      dup2\n      mstore\n      0x20\n      add\n      swap1\n      dup2\n      mstore\n      0x20\n      add\n      0x00\n      keccak256\n      0x00\n      swap1\n      sload\n      swap1\n      0x0100\n      exp\n      swap1\n      div\n      0xffffffffffffffffffffffffffffffffffffffff\n      and\n        /* \"C2E_learning/050_ERC721_1.sol\":2324:2349  owner = _ownerOf[tokenId] */\n      swap1\n      pop\n        /* \"C2E_learning/050_ERC721_1.sol\":2384:2385  0 */\n      0x00\n        /* \"C2E_learning/050_ERC721_1.sol\":2367:2386  owner != address(0) */\n      0xffffffffffffffffffffffffffffffffffffffff\n      and\n        /* \"C2E_learning/050_ERC721_1.sol\":2367:2372  owner */\n      dup2\n        /* \"C2E_learning/050_ERC721_1.sol\":2367:2386  owner != address(0) */\n      0xffffffffffffffffffffffffffffffffffffffff\n      and\n      sub\n        /* \"C2E_learning/050_ERC721_1.sol\":2359:2408  require(owner != address(0), \"owner = address 0\") */\n      tag_117\n      jumpi\n      mload(0x40)\n      0x08c379a000000000000000000000000000000000000000000000000000000000\n      dup2\n      mstore\n      0x04\n      add\n      tag_118\n      swap1\n      tag_119\n      jump\t// in\n    tag_118:\n      mload(0x40)\n      dup1\n      swap2\n      sub\n      swap1\n      revert\n    tag_117:\n        /* \"C2E_learning/050_ERC721_1.sol\":2242:2415  function ownerOf(uint256 tokenId) external view returns (address owner) {... */\n      swap2\n      swap1\n      pop\n      jump\t// out\n        /* \"C2E_learning/050_ERC721_1.sol\":2063:2237  function balanceOf(address owner) external view returns (uint256 balance) {... */\n    tag_52:\n        /* \"C2E_learning/050_ERC721_1.sol\":2120:2135  uint256 balance */\n      0x00\n        /* \"C2E_learning/050_ERC721_1.sol\":2172:2173  0 */\n      0x00\n        /* \"C2E_learning/050_ERC721_1.sol\":2155:2174  owner != address(0) */\n      0xffffffffffffffffffffffffffffffffffffffff\n      and\n        /* \"C2E_learning/050_ERC721_1.sol\":2155:2160  owner */\n      dup3\n        /* \"C2E_learning/050_ERC721_1.sol\":2155:2174  owner != address(0) */\n      0xffffffffffffffffffffffffffffffffffffffff\n      and\n      sub\n        /* \"C2E_learning/050_ERC721_1.sol\":2147:2196  require(owner != address(0), \"owner = address 0\") */\n      tag_121\n      jumpi\n      mload(0x40)\n      0x08c379a000000000000000000000000000000000000000000000000000000000\n      dup2\n      mstore\n      0x04\n      add\n      tag_122\n      swap1\n      tag_119\n      jump\t// in\n    tag_122:\n      mload(0x40)\n      dup1\n      swap2\n      sub\n      swap1\n      revert\n    tag_121:\n        /* \"C2E_learning/050_ERC721_1.sol\":2213:2223  _balanceOf */\n      0x01\n        /* \"C2E_learning/050_ERC721_1.sol\":2213:2230  _balanceOf[owner] */\n      0x00\n        /* \"C2E_learning/050_ERC721_1.sol\":2224:2229  owner */\n      dup4\n        /* \"C2E_learning/050_ERC721_1.sol\":2213:2230  _balanceOf[owner] */\n      0xffffffffffffffffffffffffffffffffffffffff\n      and\n      0xffffffffffffffffffffffffffffffffffffffff\n      and\n      dup2\n      mstore\n      0x20\n      add\n      swap1\n      dup2\n      mstore\n      0x20\n      add\n      0x00\n      keccak256\n      sload\n        /* \"C2E_learning/050_ERC721_1.sol\":2206:2230  return _balanceOf[owner] */\n      swap1\n      pop\n        /* \"C2E_learning/050_ERC721_1.sol\":2063:2237  function balanceOf(address owner) external view returns (uint256 balance) {... */\n      swap2\n      swap1\n      pop\n      jump\t// out\n        /* \"C2E_learning/050_ERC721_1.sol\":2420:2619  function setApprovalForAll(address operator, bool _approved) external {... */\n    tag_58:\n        /* \"C2E_learning/050_ERC721_1.sol\":2541:2550  _approved */\n      dup1\n        /* \"C2E_learning/050_ERC721_1.sol\":2500:2516  isApprovedForAll */\n      0x03\n        /* \"C2E_learning/050_ERC721_1.sol\":2500:2528  isApprovedForAll[msg.sender] */\n      0x00\n        /* \"C2E_learning/050_ERC721_1.sol\":2517:2527  msg.sender */\n      caller\n        /* \"C2E_learning/050_ERC721_1.sol\":2500:2528  isApprovedForAll[msg.sender] */\n      0xffffffffffffffffffffffffffffffffffffffff\n      and\n      0xffffffffffffffffffffffffffffffffffffffff\n      and\n      dup2\n      mstore\n      0x20\n      add\n      swap1\n      dup2\n      mstore\n      0x20\n      add\n      0x00\n      keccak256\n        /* \"C2E_learning/050_ERC721_1.sol\":2500:2538  isApprovedForAll[msg.sender][operator] */\n      0x00\n        /* \"C2E_learning/050_ERC721_1.sol\":2529:2537  operator */\n      dup5\n        /* \"C2E_learning/050_ERC721_1.sol\":2500:2538  isApprovedForAll[msg.sender][operator] */\n      0xffffffffffffffffffffffffffffffffffffffff\n      and\n      0xffffffffffffffffffffffffffffffffffffffff\n      and\n      dup2\n      mstore\n      0x20\n      add\n      swap1\n      dup2\n      mstore\n      0x20\n      add\n      0x00\n      keccak256\n      0x00\n        /* \"C2E_learning/050_ERC721_1.sol\":2500:2550  isApprovedForAll[msg.sender][operator] = _approved */\n      0x0100\n      exp\n      dup2\n      sload\n      dup2\n      0xff\n      mul\n      not\n      and\n      swap1\n      dup4\n      iszero\n      iszero\n      mul\n      or\n      swap1\n      sstore\n      pop\n        /* \"C2E_learning/050_ERC721_1.sol\":2592:2600  operator */\n      dup2\n        /* \"C2E_learning/050_ERC721_1.sol\":2565:2612  ApprovalForAll(msg.sender, operator, _approved) */\n      0xffffffffffffffffffffffffffffffffffffffff\n      and\n        /* \"C2E_learning/050_ERC721_1.sol\":2580:2590  msg.sender */\n      caller\n        /* \"C2E_learning/050_ERC721_1.sol\":2565:2612  ApprovalForAll(msg.sender, operator, _approved) */\n      0xffffffffffffffffffffffffffffffffffffffff\n      and\n      0x17307eab39ab6107e8899845ad3d59bd9653f200f220920489ca2b5937696c31\n        /* \"C2E_learning/050_ERC721_1.sol\":2602:2611  _approved */\n      dup4\n        /* \"C2E_learning/050_ERC721_1.sol\":2565:2612  ApprovalForAll(msg.sender, operator, _approved) */\n      mload(0x40)\n      tag_124\n      swap2\n      swap1\n      tag_21\n      jump\t// in\n    tag_124:\n      mload(0x40)\n      dup1\n      swap2\n      sub\n      swap1\n      log3\n        /* \"C2E_learning/050_ERC721_1.sol\":2420:2619  function setApprovalForAll(address operator, bool _approved) external {... */\n      pop\n      pop\n      jump\t// out\n        /* \"C2E_learning/050_ERC721_1.sol\":4380:4909  function safeTransferFrom(... */\n    tag_62:\n        /* \"C2E_learning/050_ERC721_1.sol\":4527:4558  transferFrom(from, to, tokenId) */\n      tag_126\n        /* \"C2E_learning/050_ERC721_1.sol\":4540:4544  from */\n      dup6\n        /* \"C2E_learning/050_ERC721_1.sol\":4546:4548  to */\n      dup6\n        /* \"C2E_learning/050_ERC721_1.sol\":4550:4557  tokenId */\n      dup6\n        /* \"C2E_learning/050_ERC721_1.sol\":4527:4539  transferFrom */\n      tag_35\n        /* \"C2E_learning/050_ERC721_1.sol\":4527:4558  transferFrom(from, to, tokenId) */\n      jump\t// in\n    tag_126:\n        /* \"C2E_learning/050_ERC721_1.sol\":4607:4608  0 */\n      0x00\n        /* \"C2E_learning/050_ERC721_1.sol\":4589:4591  to */\n      dup5\n        /* \"C2E_learning/050_ERC721_1.sol\":4589:4603  to.code.length */\n      0xffffffffffffffffffffffffffffffffffffffff\n      and\n      extcodesize\n        /* \"C2E_learning/050_ERC721_1.sol\":4589:4608  to.code.length == 0 */\n      eq\n        /* \"C2E_learning/050_ERC721_1.sol\":4589:4860  to.code.length == 0 ||... */\n      dup1\n      tag_127\n      jumpi\n      pop\n        /* \"C2E_learning/050_ERC721_1.sol\":4819:4860  IERC721Receiver.onERC721Received.selector */\n      shl(0xe0, 0x150b7a02)\n        /* \"C2E_learning/050_ERC721_1.sol\":4628:4860  IERC721Receiver(to).onERC721Received(... */\n      not(0xffffffffffffffffffffffffffffffffffffffffffffffffffffffff)\n      and\n        /* \"C2E_learning/050_ERC721_1.sol\":4644:4646  to */\n      dup5\n        /* \"C2E_learning/050_ERC721_1.sol\":4628:4664  IERC721Receiver(to).onERC721Received */\n      0xffffffffffffffffffffffffffffffffffffffff\n      and\n      0x150b7a02\n        /* \"C2E_learning/050_ERC721_1.sol\":4686:4696  msg.sender */\n      caller\n        /* \"C2E_learning/050_ERC721_1.sol\":4718:4722  from */\n      dup9\n        /* \"C2E_learning/050_ERC721_1.sol\":4744:4751  tokenId */\n      dup8\n        /* \"C2E_learning/050_ERC721_1.sol\":4773:4777  data */\n      dup8\n      dup8\n        /* \"C2E_learning/050_ERC721_1.sol\":4628:4795  IERC721Receiver(to).onERC721Received(... */\n      mload(0x40)\n      dup7\n      0xffffffff\n      and\n      0xe0\n      shl\n      dup2\n      mstore\n      0x04\n      add\n      tag_128\n      swap6\n      swap5\n      swap4\n      swap3\n      swap2\n      swap1\n      tag_129\n      jump\t// in\n    tag_128:\n      0x20\n      mload(0x40)\n      dup1\n      dup4\n      sub\n      dup2\n      0x00\n      dup8\n      gas\n      call\n      iszero\n      dup1\n      iszero\n      tag_131\n      jumpi\n      returndatacopy(0x00, 0x00, returndatasize)\n      revert(0x00, returndatasize)\n    tag_131:\n      pop\n      pop\n      pop\n      pop\n      mload(0x40)\n      returndatasize\n      not(0x1f)\n      0x1f\n      dup3\n      add\n      and\n      dup3\n      add\n      dup1\n      0x40\n      mstore\n      pop\n      dup2\n      add\n      swap1\n      tag_132\n      swap2\n      swap1\n      tag_106\n      jump\t// in\n    tag_132:\n        /* \"C2E_learning/050_ERC721_1.sol\":4628:4860  IERC721Receiver(to).onERC721Received(... */\n      not(0xffffffffffffffffffffffffffffffffffffffffffffffffffffffff)\n      and\n      eq\n        /* \"C2E_learning/050_ERC721_1.sol\":4589:4860  to.code.length == 0 ||... */\n    tag_127:\n        /* \"C2E_learning/050_ERC721_1.sol\":4568:4902  require(... */\n      tag_133\n      jumpi\n      mload(0x40)\n      0x08c379a000000000000000000000000000000000000000000000000000000000\n      dup2\n      mstore\n      0x04\n      add\n      tag_134\n      swap1\n      tag_109\n      jump\t// in\n    tag_134:\n      mload(0x40)\n      dup1\n      swap2\n      sub\n      swap1\n      revert\n    tag_133:\n        /* \"C2E_learning/050_ERC721_1.sol\":4380:4909  function safeTransferFrom(... */\n      pop\n      pop\n      pop\n      pop\n      pop\n      jump\t// out\n        /* \"C2E_learning/050_ERC721_1.sol\":1761:1829  mapping(address => mapping(address => bool)) public isApprovedForAll */\n    tag_66:\n      mstore(0x20, 0x03)\n      dup2\n      0x00\n      mstore\n      mstore(0x20, keccak256(0x00, 0x40))\n      dup1\n      0x00\n      mstore\n      keccak256(0x00, 0x40)\n      0x00\n      swap2\n      pop\n      swap2\n      pop\n      swap1\n      sload\n      swap1\n      0x0100\n      exp\n      swap1\n      div\n      0xff\n      and\n      dup2\n      jump\t// out\n        /* \"C2E_learning/050_ERC721_1.sol\":3154:3423  function _isApprovedOrOwner(... */\n    tag_87:\n        /* \"C2E_learning/050_ERC721_1.sol\":3281:3285  bool */\n      0x00\n        /* \"C2E_learning/050_ERC721_1.sol\":3316:3321  owner */\n      dup4\n        /* \"C2E_learning/050_ERC721_1.sol\":3305:3321  spender == owner */\n      0xffffffffffffffffffffffffffffffffffffffff\n      and\n        /* \"C2E_learning/050_ERC721_1.sol\":3305:3312  spender */\n      dup4\n        /* \"C2E_learning/050_ERC721_1.sol\":3305:3321  spender == owner */\n      0xffffffffffffffffffffffffffffffffffffffff\n      and\n      eq\n        /* \"C2E_learning/050_ERC721_1.sol\":3305:3369  spender == owner ||... */\n      dup1\n      tag_136\n      jumpi\n      pop\n        /* \"C2E_learning/050_ERC721_1.sol\":3337:3353  isApprovedForAll */\n      0x03\n        /* \"C2E_learning/050_ERC721_1.sol\":3337:3360  isApprovedForAll[owner] */\n      0x00\n        /* \"C2E_learning/050_ERC721_1.sol\":3354:3359  owner */\n      dup6\n        /* \"C2E_learning/050_ERC721_1.sol\":3337:3360  isApprovedForAll[owner] */\n      0xffffffffffffffffffffffffffffffffffffffff\n      and\n      0xffffffffffffffffffffffffffffffffffffffff\n      and\n      dup2\n      mstore\n      0x20\n      add\n      swap1\n      dup2\n      mstore\n      0x20\n      add\n      0x00\n      keccak256\n        /* \"C2E_learning/050_ERC721_1.sol\":3337:3369  isApprovedForAll[owner][spender] */\n      0x00\n        /* \"C2E_learning/050_ERC721_1.sol\":3361:3368  spender */\n      dup5\n        /* \"C2E_learning/050_ERC721_1.sol\":3337:3369  isApprovedForAll[owner][spender] */\n      0xffffffffffffffffffffffffffffffffffffffff\n      and\n      0xffffffffffffffffffffffffffffffffffffffff\n      and\n      dup2\n      mstore\n      0x20\n      add\n      swap1\n      dup2\n      mstore\n      0x20\n      add\n      0x00\n      keccak256\n      0x00\n      swap1\n      sload\n      swap1\n      0x0100\n      exp\n      swap1\n      div\n      0xff\n      and\n        /* \"C2E_learning/050_ERC721_1.sol\":3305:3369  spender == owner ||... */\n    tag_136:\n        /* \"C2E_learning/050_ERC721_1.sol\":3305:3415  spender == owner ||... */\n      dup1\n      tag_137\n      jumpi\n      pop\n        /* \"C2E_learning/050_ERC721_1.sol\":3396:3406  _approvals */\n      0x02\n        /* \"C2E_learning/050_ERC721_1.sol\":3396:3415  _approvals[tokenId] */\n      0x00\n        /* \"C2E_learning/050_ERC721_1.sol\":3407:3414  tokenId */\n      dup4\n        /* \"C2E_learning/050_ERC721_1.sol\":3396:3415  _approvals[tokenId] */\n      dup2\n      mstore\n      0x20\n      add\n      swap1\n      dup2\n      mstore\n      0x20\n      add\n      0x00\n      keccak256\n      0x00\n      swap1\n      sload\n      swap1\n      0x0100\n      exp\n      swap1\n      div\n      0xffffffffffffffffffffffffffffffffffffffff\n      and\n        /* \"C2E_learning/050_ERC721_1.sol\":3385:3415  spender == _approvals[tokenId] */\n      0xffffffffffffffffffffffffffffffffffffffff\n      and\n        /* \"C2E_learning/050_ERC721_1.sol\":3385:3392  spender */\n      dup4\n        /* \"C2E_learning/050_ERC721_1.sol\":3385:3415  spender == _approvals[tokenId] */\n      0xffffffffffffffffffffffffffffffffffffffff\n      and\n      eq\n        /* \"C2E_learning/050_ERC721_1.sol\":3305:3415  spender == owner ||... */\n    tag_137:\n        /* \"C2E_learning/050_ERC721_1.sol\":3297:3416  return (spender == owner ||... */\n      swap1\n      pop\n        /* \"C2E_learning/050_ERC721_1.sol\":3154:3423  function _isApprovedOrOwner(... */\n      swap4\n      swap3\n      pop\n      pop\n      pop\n      jump\t// out\n        /* \"C2E_learning/050_ERC721_1.sol\":4914:5199  function _mint(address to, uint tokenId) internal {... */\n    tag_97:\n        /* \"C2E_learning/050_ERC721_1.sol\":4996:4997  0 */\n      0x00\n        /* \"C2E_learning/050_ERC721_1.sol\":4982:4998  to != address(0) */\n      0xffffffffffffffffffffffffffffffffffffffff\n      and\n        /* \"C2E_learning/050_ERC721_1.sol\":4982:4984  to */\n      dup3\n        /* \"C2E_learning/050_ERC721_1.sol\":4982:4998  to != address(0) */\n      0xffffffffffffffffffffffffffffffffffffffff\n      and\n      sub\n        /* \"C2E_learning/050_ERC721_1.sol\":4974:5020  require(to != address(0), \"to = zero address\") */\n      tag_139\n      jumpi\n      mload(0x40)\n      0x08c379a000000000000000000000000000000000000000000000000000000000\n      dup2\n      mstore\n      0x04\n      add\n      tag_140\n      swap1\n      tag_85\n      jump\t// in\n    tag_140:\n      mload(0x40)\n      dup1\n      swap2\n      sub\n      swap1\n      revert\n    tag_139:\n        /* \"C2E_learning/050_ERC721_1.sol\":5067:5068  0 */\n      0x00\n        /* \"C2E_learning/050_ERC721_1.sol\":5038:5069  _ownerOf[tokenId] == address(0) */\n      0xffffffffffffffffffffffffffffffffffffffff\n      and\n        /* \"C2E_learning/050_ERC721_1.sol\":5038:5046  _ownerOf */\n      0x00\n        /* \"C2E_learning/050_ERC721_1.sol\":5038:5055  _ownerOf[tokenId] */\n      0x00\n        /* \"C2E_learning/050_ERC721_1.sol\":5047:5054  tokenId */\n      dup4\n        /* \"C2E_learning/050_ERC721_1.sol\":5038:5055  _ownerOf[tokenId] */\n      dup2\n      mstore\n      0x20\n      add\n      swap1\n      dup2\n      mstore\n      0x20\n      add\n      0x00\n      keccak256\n      0x00\n      swap1\n      sload\n      swap1\n      0x0100\n      exp\n      swap1\n      div\n      0xffffffffffffffffffffffffffffffffffffffff\n      and\n        /* \"C2E_learning/050_ERC721_1.sol\":5038:5069  _ownerOf[tokenId] == address(0) */\n      0xffffffffffffffffffffffffffffffffffffffff\n      and\n      eq\n        /* \"C2E_learning/050_ERC721_1.sol\":5030:5086  require(_ownerOf[tokenId] == address(0), \"token exists\") */\n      tag_141\n      jumpi\n      mload(0x40)\n      0x08c379a000000000000000000000000000000000000000000000000000000000\n      dup2\n      mstore\n      0x04\n      add\n      tag_142\n      swap1\n      tag_143\n      jump\t// in\n    tag_142:\n      mload(0x40)\n      dup1\n      swap2\n      sub\n      swap1\n      revert\n    tag_141:\n        /* \"C2E_learning/050_ERC721_1.sol\":5096:5106  _balanceOf */\n      0x01\n        /* \"C2E_learning/050_ERC721_1.sol\":5096:5110  _balanceOf[to] */\n      0x00\n        /* \"C2E_learning/050_ERC721_1.sol\":5107:5109  to */\n      dup4\n        /* \"C2E_learning/050_ERC721_1.sol\":5096:5110  _balanceOf[to] */\n      0xffffffffffffffffffffffffffffffffffffffff\n      and\n      0xffffffffffffffffffffffffffffffffffffffff\n      and\n      dup2\n      mstore\n      0x20\n      add\n      swap1\n      dup2\n      mstore\n      0x20\n      add\n      0x00\n      keccak256\n      0x00\n        /* \"C2E_learning/050_ERC721_1.sol\":5096:5112  _balanceOf[to]++ */\n      dup2\n      sload\n      dup1\n      swap3\n      swap2\n      swap1\n      tag_144\n      swap1\n      tag_94\n      jump\t// in\n    tag_144:\n      swap2\n      swap1\n      pop\n      sstore\n      pop\n        /* \"C2E_learning/050_ERC721_1.sol\":5142:5144  to */\n      dup2\n        /* \"C2E_learning/050_ERC721_1.sol\":5122:5130  _ownerOf */\n      0x00\n        /* \"C2E_learning/050_ERC721_1.sol\":5122:5139  _ownerOf[tokenId] */\n      0x00\n        /* \"C2E_learning/050_ERC721_1.sol\":5131:5138  tokenId */\n      dup4\n        /* \"C2E_learning/050_ERC721_1.sol\":5122:5139  _ownerOf[tokenId] */\n      dup2\n      mstore\n      0x20\n      add\n      swap1\n      dup2\n      mstore\n      0x20\n      add\n      0x00\n      keccak256\n      0x00\n        /* \"C2E_learning/050_ERC721_1.sol\":5122:5144  _ownerOf[tokenId] = to */\n      0x0100\n      exp\n      dup2\n      sload\n      dup2\n      0xffffffffffffffffffffffffffffffffffffffff\n      mul\n      not\n      and\n      swap1\n      dup4\n      0xffffffffffffffffffffffffffffffffffffffff\n      and\n      mul\n      or\n      swap1\n      sstore\n      pop\n        /* \"C2E_learning/050_ERC721_1.sol\":5184:5191  tokenId */\n      dup1\n        /* \"C2E_learning/050_ERC721_1.sol\":5180:5182  to */\n      dup3\n        /* \"C2E_learning/050_ERC721_1.sol\":5159:5192  Transfer(address(0), to, tokenId) */\n      0xffffffffffffffffffffffffffffffffffffffff\n      and\n        /* \"C2E_learning/050_ERC721_1.sol\":5176:5177  0 */\n      0x00\n        /* \"C2E_learning/050_ERC721_1.sol\":5159:5192  Transfer(address(0), to, tokenId) */\n      0xffffffffffffffffffffffffffffffffffffffff\n      and\n      0xddf252ad1be2c89b69c2b068fc378daa952ba7f163c4a11628f55a4df523b3ef\n      mload(0x40)\n      mload(0x40)\n      dup1\n      swap2\n      sub\n      swap1\n      log4\n        /* \"C2E_learning/050_ERC721_1.sol\":4914:5199  function _mint(address to, uint tokenId) internal {... */\n      pop\n      pop\n      jump\t// out\n        /* \"C2E_learning/050_ERC721_1.sol\":5204:5504  function _burn(uint tokenId) internal {... */\n    tag_115:\n        /* \"C2E_learning/050_ERC721_1.sol\":5252:5265  address owner */\n      0x00\n        /* \"C2E_learning/050_ERC721_1.sol\":5268:5276  _ownerOf */\n      0x00\n        /* \"C2E_learning/050_ERC721_1.sol\":5268:5285  _ownerOf[tokenId] */\n      0x00\n        /* \"C2E_learning/050_ERC721_1.sol\":5277:5284  tokenId */\n      dup4\n        /* \"C2E_learning/050_ERC721_1.sol\":5268:5285  _ownerOf[tokenId] */\n      dup2\n      mstore\n      0x20\n      add\n      swap1\n      dup2\n      mstore\n      0x20\n      add\n      0x00\n      keccak256\n      0x00\n      swap1\n      sload\n      swap1\n      0x0100\n      exp\n      swap1\n      div\n      0xffffffffffffffffffffffffffffffffffffffff\n      and\n        /* \"C2E_learning/050_ERC721_1.sol\":5252:5285  address owner = _ownerOf[tokenId] */\n      swap1\n      pop\n        /* \"C2E_learning/050_ERC721_1.sol\":5320:5321  0 */\n      0x00\n        /* \"C2E_learning/050_ERC721_1.sol\":5303:5322  owner != address(0) */\n      0xffffffffffffffffffffffffffffffffffffffff\n      and\n        /* \"C2E_learning/050_ERC721_1.sol\":5303:5308  owner */\n      dup2\n        /* \"C2E_learning/050_ERC721_1.sol\":5303:5322  owner != address(0) */\n      0xffffffffffffffffffffffffffffffffffffffff\n      and\n      sub\n        /* \"C2E_learning/050_ERC721_1.sol\":5295:5347  require(owner != address(0), \"token does not exist\") */\n      tag_146\n      jumpi\n      mload(0x40)\n      0x08c379a000000000000000000000000000000000000000000000000000000000\n      dup2\n      mstore\n      0x04\n      add\n      tag_147\n      swap1\n      tag_148\n      jump\t// in\n    tag_147:\n      mload(0x40)\n      dup1\n      swap2\n      sub\n      swap1\n      revert\n    tag_146:\n        /* \"C2E_learning/050_ERC721_1.sol\":5357:5367  _balanceOf */\n      0x01\n        /* \"C2E_learning/050_ERC721_1.sol\":5357:5374  _balanceOf[owner] */\n      0x00\n        /* \"C2E_learning/050_ERC721_1.sol\":5368:5373  owner */\n      dup3\n        /* \"C2E_learning/050_ERC721_1.sol\":5357:5374  _balanceOf[owner] */\n      0xffffffffffffffffffffffffffffffffffffffff\n      and\n      0xffffffffffffffffffffffffffffffffffffffff\n      and\n      dup2\n      mstore\n      0x20\n      add\n      swap1\n      dup2\n      mstore\n      0x20\n      add\n      0x00\n      keccak256\n      0x00\n        /* \"C2E_learning/050_ERC721_1.sol\":5357:5376  _balanceOf[owner]-- */\n      dup2\n      sload\n      dup1\n      swap3\n      swap2\n      swap1\n      tag_149\n      swap1\n      tag_92\n      jump\t// in\n    tag_149:\n      swap2\n      swap1\n      pop\n      sstore\n      pop\n        /* \"C2E_learning/050_ERC721_1.sol\":5393:5401  _ownerOf */\n      0x00\n        /* \"C2E_learning/050_ERC721_1.sol\":5393:5410  _ownerOf[tokenId] */\n      0x00\n        /* \"C2E_learning/050_ERC721_1.sol\":5402:5409  tokenId */\n      dup4\n        /* \"C2E_learning/050_ERC721_1.sol\":5393:5410  _ownerOf[tokenId] */\n      dup2\n      mstore\n      0x20\n      add\n      swap1\n      dup2\n      mstore\n      0x20\n      add\n      0x00\n      keccak256\n      0x00\n        /* \"C2E_learning/050_ERC721_1.sol\":5386:5410  delete _ownerOf[tokenId] */\n      0x0100\n      exp\n      dup2\n      sload\n      swap1\n      0xffffffffffffffffffffffffffffffffffffffff\n      mul\n      not\n      and\n      swap1\n      sstore\n        /* \"C2E_learning/050_ERC721_1.sol\":5427:5437  _approvals */\n      0x02\n        /* \"C2E_learning/050_ERC721_1.sol\":5427:5446  _approvals[tokenId] */\n      0x00\n        /* \"C2E_learning/050_ERC721_1.sol\":5438:5445  tokenId */\n      dup4\n        /* \"C2E_learning/050_ERC721_1.sol\":5427:5446  _approvals[tokenId] */\n      dup2\n      mstore\n      0x20\n      add\n      swap1\n      dup2\n      mstore\n      0x20\n      add\n      0x00\n      keccak256\n      0x00\n        /* \"C2E_learning/050_ERC721_1.sol\":5420:5446  delete _approvals[tokenId] */\n      0x0100\n      exp\n      dup2\n      sload\n      swap1\n      0xffffffffffffffffffffffffffffffffffffffff\n      mul\n      not\n      and\n      swap1\n      sstore\n        /* \"C2E_learning/050_ERC721_1.sol\":5489:5496  tokenId */\n      dup2\n        /* \"C2E_learning/050_ERC721_1.sol\":5485:5486  0 */\n      0x00\n        /* \"C2E_learning/050_ERC721_1.sol\":5461:5497  Transfer(owner, address(0), tokenId) */\n      0xffffffffffffffffffffffffffffffffffffffff\n      and\n        /* \"C2E_learning/050_ERC721_1.sol\":5470:5475  owner */\n      dup3\n        /* \"C2E_learning/050_ERC721_1.sol\":5461:5497  Transfer(owner, address(0), tokenId) */\n      0xffffffffffffffffffffffffffffffffffffffff\n      and\n      0xddf252ad1be2c89b69c2b068fc378daa952ba7f163c4a11628f55a4df523b3ef\n      mload(0x40)\n      mload(0x40)\n      dup1\n      swap2\n      sub\n      swap1\n      log4\n        /* \"C2E_learning/050_ERC721_1.sol\":5242:5504  {... */\n      pop\n        /* \"C2E_learning/050_ERC721_1.sol\":5204:5504  function _burn(uint tokenId) internal {... */\n      pop\n      jump\t// out\n        /* \"#utility.yul\":88:205   */\n    tag_151:\n        /* \"#utility.yul\":197:198   */\n      0x00\n        /* \"#utility.yul\":194:195   */\n      0x00\n        /* \"#utility.yul\":187:199   */\n      revert\n        /* \"#utility.yul\":211:328   */\n    tag_152:\n        /* \"#utility.yul\":320:321   */\n      0x00\n        /* \"#utility.yul\":317:318   */\n      0x00\n        /* \"#utility.yul\":310:322   */\n      revert\n        /* \"#utility.yul\":334:483   */\n    tag_153:\n        /* \"#utility.yul\":370:377   */\n      0x00\n        /* \"#utility.yul\":410:476   */\n      0xffffffff00000000000000000000000000000000000000000000000000000000\n        /* \"#utility.yul\":403:408   */\n      dup3\n        /* \"#utility.yul\":399:477   */\n      and\n        /* \"#utility.yul\":388:477   */\n      swap1\n      pop\n        /* \"#utility.yul\":334:483   */\n      swap2\n      swap1\n      pop\n      jump\t// out\n        /* \"#utility.yul\":489:609   */\n    tag_154:\n        /* \"#utility.yul\":561:584   */\n      tag_208\n        /* \"#utility.yul\":578:583   */\n      dup2\n        /* \"#utility.yul\":561:584   */\n      tag_153\n      jump\t// in\n    tag_208:\n        /* \"#utility.yul\":554:559   */\n      dup2\n        /* \"#utility.yul\":551:585   */\n      eq\n        /* \"#utility.yul\":541:603   */\n      tag_209\n      jumpi\n        /* \"#utility.yul\":599:600   */\n      0x00\n        /* \"#utility.yul\":596:597   */\n      0x00\n        /* \"#utility.yul\":589:601   */\n      revert\n        /* \"#utility.yul\":541:603   */\n    tag_209:\n        /* \"#utility.yul\":489:609   */\n      pop\n      jump\t// out\n        /* \"#utility.yul\":615:752   */\n    tag_155:\n        /* \"#utility.yul\":660:665   */\n      0x00\n        /* \"#utility.yul\":698:704   */\n      dup2\n        /* \"#utility.yul\":685:705   */\n      calldataload\n        /* \"#utility.yul\":676:705   */\n      swap1\n      pop\n        /* \"#utility.yul\":714:746   */\n      tag_211\n        /* \"#utility.yul\":740:745   */\n      dup2\n        /* \"#utility.yul\":714:746   */\n      tag_154\n      jump\t// in\n    tag_211:\n        /* \"#utility.yul\":615:752   */\n      swap3\n      swap2\n      pop\n      pop\n      jump\t// out\n        /* \"#utility.yul\":758:1085   */\n    tag_18:\n        /* \"#utility.yul\":816:822   */\n      0x00\n        /* \"#utility.yul\":865:867   */\n      0x20\n        /* \"#utility.yul\":853:862   */\n      dup3\n        /* \"#utility.yul\":844:851   */\n      dup5\n        /* \"#utility.yul\":840:863   */\n      sub\n        /* \"#utility.yul\":836:868   */\n      slt\n        /* \"#utility.yul\":833:952   */\n      iszero\n      tag_213\n      jumpi\n        /* \"#utility.yul\":871:950   */\n      tag_214\n      tag_151\n      jump\t// in\n    tag_214:\n        /* \"#utility.yul\":833:952   */\n    tag_213:\n        /* \"#utility.yul\":991:992   */\n      0x00\n        /* \"#utility.yul\":1016:1068   */\n      tag_215\n        /* \"#utility.yul\":1060:1067   */\n      dup5\n        /* \"#utility.yul\":1051:1057   */\n      dup3\n        /* \"#utility.yul\":1040:1049   */\n      dup6\n        /* \"#utility.yul\":1036:1058   */\n      add\n        /* \"#utility.yul\":1016:1068   */\n      tag_155\n      jump\t// in\n    tag_215:\n        /* \"#utility.yul\":1006:1068   */\n      swap2\n      pop\n        /* \"#utility.yul\":962:1078   */\n      pop\n        /* \"#utility.yul\":758:1085   */\n      swap3\n      swap2\n      pop\n      pop\n      jump\t// out\n        /* \"#utility.yul\":1091:1181   */\n    tag_156:\n        /* \"#utility.yul\":1125:1132   */\n      0x00\n        /* \"#utility.yul\":1168:1173   */\n      dup2\n        /* \"#utility.yul\":1161:1174   */\n      iszero\n        /* \"#utility.yul\":1154:1175   */\n      iszero\n        /* \"#utility.yul\":1143:1175   */\n      swap1\n      pop\n        /* \"#utility.yul\":1091:1181   */\n      swap2\n      swap1\n      pop\n      jump\t// out\n        /* \"#utility.yul\":1187:1296   */\n    tag_157:\n        /* \"#utility.yul\":1268:1289   */\n      tag_218\n        /* \"#utility.yul\":1283:1288   */\n      dup2\n        /* \"#utility.yul\":1268:1289   */\n      tag_156\n      jump\t// in\n    tag_218:\n        /* \"#utility.yul\":1263:1266   */\n      dup3\n        /* \"#utility.yul\":1256:1290   */\n      mstore\n        /* \"#utility.yul\":1187:1296   */\n      pop\n      pop\n      jump\t// out\n        /* \"#utility.yul\":1302:1512   */\n    tag_21:\n        /* \"#utility.yul\":1389:1393   */\n      0x00\n        /* \"#utility.yul\":1427:1429   */\n      0x20\n        /* \"#utility.yul\":1416:1425   */\n      dup3\n        /* \"#utility.yul\":1412:1430   */\n      add\n        /* \"#utility.yul\":1404:1430   */\n      swap1\n      pop\n        /* \"#utility.yul\":1440:1505   */\n      tag_220\n        /* \"#utility.yul\":1502:1503   */\n      0x00\n        /* \"#utility.yul\":1491:1500   */\n      dup4\n        /* \"#utility.yul\":1487:1504   */\n      add\n        /* \"#utility.yul\":1478:1484   */\n      dup5\n        /* \"#utility.yul\":1440:1505   */\n      tag_157\n      jump\t// in\n    tag_220:\n        /* \"#utility.yul\":1302:1512   */\n      swap3\n      swap2\n      pop\n      pop\n      jump\t// out\n        /* \"#utility.yul\":1518:1595   */\n    tag_158:\n        /* \"#utility.yul\":1555:1562   */\n      0x00\n        /* \"#utility.yul\":1584:1589   */\n      dup2\n        /* \"#utility.yul\":1573:1589   */\n      swap1\n      pop\n        /* \"#utility.yul\":1518:1595   */\n      swap2\n      swap1\n      pop\n      jump\t// out\n        /* \"#utility.yul\":1601:1723   */\n    tag_159:\n        /* \"#utility.yul\":1674:1698   */\n      tag_223\n        /* \"#utility.yul\":1692:1697   */\n      dup2\n        /* \"#utility.yul\":1674:1698   */\n      tag_158\n      jump\t// in\n    tag_223:\n        /* \"#utility.yul\":1667:1672   */\n      dup2\n        /* \"#utility.yul\":1664:1699   */\n      eq\n        /* \"#utility.yul\":1654:1717   */\n      tag_224\n      jumpi\n        /* \"#utility.yul\":1713:1714   */\n      0x00\n        /* \"#utility.yul\":1710:1711   */\n      0x00\n        /* \"#utility.yul\":1703:1715   */\n      revert\n        /* \"#utility.yul\":1654:1717   */\n    tag_224:\n        /* \"#utility.yul\":1601:1723   */\n      pop\n      jump\t// out\n        /* \"#utility.yul\":1729:1868   */\n    tag_160:\n        /* \"#utility.yul\":1775:1780   */\n      0x00\n        /* \"#utility.yul\":1813:1819   */\n      dup2\n        /* \"#utility.yul\":1800:1820   */\n      calldataload\n        /* \"#utility.yul\":1791:1820   */\n      swap1\n      pop\n        /* \"#utility.yul\":1829:1862   */\n      tag_226\n        /* \"#utility.yul\":1856:1861   */\n      dup2\n        /* \"#utility.yul\":1829:1862   */\n      tag_159\n      jump\t// in\n    tag_226:\n        /* \"#utility.yul\":1729:1868   */\n      swap3\n      swap2\n      pop\n      pop\n      jump\t// out\n        /* \"#utility.yul\":1874:2203   */\n    tag_24:\n        /* \"#utility.yul\":1933:1939   */\n      0x00\n        /* \"#utility.yul\":1982:1984   */\n      0x20\n        /* \"#utility.yul\":1970:1979   */\n      dup3\n        /* \"#utility.yul\":1961:1968   */\n      dup5\n        /* \"#utility.yul\":1957:1980   */\n      sub\n        /* \"#utility.yul\":1953:1985   */\n      slt\n        /* \"#utility.yul\":1950:2069   */\n      iszero\n      tag_228\n      jumpi\n        /* \"#utility.yul\":1988:2067   */\n      tag_229\n      tag_151\n      jump\t// in\n    tag_229:\n        /* \"#utility.yul\":1950:2069   */\n    tag_228:\n        /* \"#utility.yul\":2108:2109   */\n      0x00\n        /* \"#utility.yul\":2133:2186   */\n      tag_230\n        /* \"#utility.yul\":2178:2185   */\n      dup5\n        /* \"#utility.yul\":2169:2175   */\n      dup3\n        /* \"#utility.yul\":2158:2167   */\n      dup6\n        /* \"#utility.yul\":2154:2176   */\n      add\n        /* \"#utility.yul\":2133:2186   */\n      tag_160\n      jump\t// in\n    tag_230:\n        /* \"#utility.yul\":2123:2186   */\n      swap2\n      pop\n        /* \"#utility.yul\":2079:2196   */\n      pop\n        /* \"#utility.yul\":1874:2203   */\n      swap3\n      swap2\n      pop\n      pop\n      jump\t// out\n        /* \"#utility.yul\":2209:2335   */\n    tag_161:\n        /* \"#utility.yul\":2246:2253   */\n      0x00\n        /* \"#utility.yul\":2286:2328   */\n      0xffffffffffffffffffffffffffffffffffffffff\n        /* \"#utility.yul\":2279:2284   */\n      dup3\n        /* \"#utility.yul\":2275:2329   */\n      and\n        /* \"#utility.yul\":2264:2329   */\n      swap1\n      pop\n        /* \"#utility.yul\":2209:2335   */\n      swap2\n      swap1\n      pop\n      jump\t// out\n        /* \"#utility.yul\":2341:2437   */\n    tag_162:\n        /* \"#utility.yul\":2378:2385   */\n      0x00\n        /* \"#utility.yul\":2407:2431   */\n      tag_233\n        /* \"#utility.yul\":2425:2430   */\n      dup3\n        /* \"#utility.yul\":2407:2431   */\n      tag_161\n      jump\t// in\n    tag_233:\n        /* \"#utility.yul\":2396:2431   */\n      swap1\n      pop\n        /* \"#utility.yul\":2341:2437   */\n      swap2\n      swap1\n      pop\n      jump\t// out\n        /* \"#utility.yul\":2443:2561   */\n    tag_163:\n        /* \"#utility.yul\":2530:2554   */\n      tag_235\n        /* \"#utility.yul\":2548:2553   */\n      dup2\n        /* \"#utility.yul\":2530:2554   */\n      tag_162\n      jump\t// in\n    tag_235:\n        /* \"#utility.yul\":2525:2528   */\n      dup3\n        /* \"#utility.yul\":2518:2555   */\n      mstore\n        /* \"#utility.yul\":2443:2561   */\n      pop\n      pop\n      jump\t// out\n        /* \"#utility.yul\":2567:2789   */\n    tag_27:\n        /* \"#utility.yul\":2660:2664   */\n      0x00\n        /* \"#utility.yul\":2698:2700   */\n      0x20\n        /* \"#utility.yul\":2687:2696   */\n      dup3\n        /* \"#utility.yul\":2683:2701   */\n      add\n        /* \"#utility.yul\":2675:2701   */\n      swap1\n      pop\n        /* \"#utility.yul\":2711:2782   */\n      tag_237\n        /* \"#utility.yul\":2779:2780   */\n      0x00\n        /* \"#utility.yul\":2768:2777   */\n      dup4\n        /* \"#utility.yul\":2764:2781   */\n      add\n        /* \"#utility.yul\":2755:2761   */\n      dup5\n        /* \"#utility.yul\":2711:2782   */\n      tag_163\n      jump\t// in\n    tag_237:\n        /* \"#utility.yul\":2567:2789   */\n      swap3\n      swap2\n      pop\n      pop\n      jump\t// out\n        /* \"#utility.yul\":2795:2917   */\n    tag_164:\n        /* \"#utility.yul\":2868:2892   */\n      tag_239\n        /* \"#utility.yul\":2886:2891   */\n      dup2\n        /* \"#utility.yul\":2868:2892   */\n      tag_162\n      jump\t// in\n    tag_239:\n        /* \"#utility.yul\":2861:2866   */\n      dup2\n        /* \"#utility.yul\":2858:2893   */\n      eq\n        /* \"#utility.yul\":2848:2911   */\n      tag_240\n      jumpi\n        /* \"#utility.yul\":2907:2908   */\n      0x00\n        /* \"#utility.yul\":2904:2905   */\n      0x00\n        /* \"#utility.yul\":2897:2909   */\n      revert\n        /* \"#utility.yul\":2848:2911   */\n    tag_240:\n        /* \"#utility.yul\":2795:2917   */\n      pop\n      jump\t// out\n        /* \"#utility.yul\":2923:3062   */\n    tag_165:\n        /* \"#utility.yul\":2969:2974   */\n      0x00\n        /* \"#utility.yul\":3007:3013   */\n      dup2\n        /* \"#utility.yul\":2994:3014   */\n      calldataload\n        /* \"#utility.yul\":2985:3014   */\n      swap1\n      pop\n        /* \"#utility.yul\":3023:3056   */\n      tag_242\n        /* \"#utility.yul\":3050:3055   */\n      dup2\n        /* \"#utility.yul\":3023:3056   */\n      tag_164\n      jump\t// in\n    tag_242:\n        /* \"#utility.yul\":2923:3062   */\n      swap3\n      swap2\n      pop\n      pop\n      jump\t// out\n        /* \"#utility.yul\":3068:3542   */\n    tag_30:\n        /* \"#utility.yul\":3136:3142   */\n      0x00\n        /* \"#utility.yul\":3144:3150   */\n      0x00\n        /* \"#utility.yul\":3193:3195   */\n      0x40\n        /* \"#utility.yul\":3181:3190   */\n      dup4\n        /* \"#utility.yul\":3172:3179   */\n      dup6\n        /* \"#utility.yul\":3168:3191   */\n      sub\n        /* \"#utility.yul\":3164:3196   */\n      slt\n        /* \"#utility.yul\":3161:3280   */\n      iszero\n      tag_244\n      jumpi\n        /* \"#utility.yul\":3199:3278   */\n      tag_245\n      tag_151\n      jump\t// in\n    tag_245:\n        /* \"#utility.yul\":3161:3280   */\n    tag_244:\n        /* \"#utility.yul\":3319:3320   */\n      0x00\n        /* \"#utility.yul\":3344:3397   */\n      tag_246\n        /* \"#utility.yul\":3389:3396   */\n      dup6\n        /* \"#utility.yul\":3380:3386   */\n      dup3\n        /* \"#utility.yul\":3369:3378   */\n      dup7\n        /* \"#utility.yul\":3365:3387   */\n      add\n        /* \"#utility.yul\":3344:3397   */\n      tag_165\n      jump\t// in\n    tag_246:\n        /* \"#utility.yul\":3334:3397   */\n      swap3\n      pop\n        /* \"#utility.yul\":3290:3407   */\n      pop\n        /* \"#utility.yul\":3446:3448   */\n      0x20\n        /* \"#utility.yul\":3472:3525   */\n      tag_247\n        /* \"#utility.yul\":3517:3524   */\n      dup6\n        /* \"#utility.yul\":3508:3514   */\n      dup3\n        /* \"#utility.yul\":3497:3506   */\n      dup7\n        /* \"#utility.yul\":3493:3515   */\n      add\n        /* \"#utility.yul\":3472:3525   */\n      tag_160\n      jump\t// in\n    tag_247:\n        /* \"#utility.yul\":3462:3525   */\n      swap2\n      pop\n        /* \"#utility.yul\":3417:3535   */\n      pop\n        /* \"#utility.yul\":3068:3542   */\n      swap3\n      pop\n      swap3\n      swap1\n      pop\n      jump\t// out\n        /* \"#utility.yul\":3548:4167   */\n    tag_34:\n        /* \"#utility.yul\":3625:3631   */\n      0x00\n        /* \"#utility.yul\":3633:3639   */\n      0x00\n        /* \"#utility.yul\":3641:3647   */\n      0x00\n        /* \"#utility.yul\":3690:3692   */\n      0x60\n        /* \"#utility.yul\":3678:3687   */\n      dup5\n        /* \"#utility.yul\":3669:3676   */\n      dup7\n        /* \"#utility.yul\":3665:3688   */\n      sub\n        /* \"#utility.yul\":3661:3693   */\n      slt\n        /* \"#utility.yul\":3658:3777   */\n      iszero\n      tag_249\n      jumpi\n        /* \"#utility.yul\":3696:3775   */\n      tag_250\n      tag_151\n      jump\t// in\n    tag_250:\n        /* \"#utility.yul\":3658:3777   */\n    tag_249:\n        /* \"#utility.yul\":3816:3817   */\n      0x00\n        /* \"#utility.yul\":3841:3894   */\n      tag_251\n        /* \"#utility.yul\":3886:3893   */\n      dup7\n        /* \"#utility.yul\":3877:3883   */\n      dup3\n        /* \"#utility.yul\":3866:3875   */\n      dup8\n        /* \"#utility.yul\":3862:3884   */\n      add\n        /* \"#utility.yul\":3841:3894   */\n      tag_165\n      jump\t// in\n    tag_251:\n        /* \"#utility.yul\":3831:3894   */\n      swap4\n      pop\n        /* \"#utility.yul\":3787:3904   */\n      pop\n        /* \"#utility.yul\":3943:3945   */\n      0x20\n        /* \"#utility.yul\":3969:4022   */\n      tag_252\n        /* \"#utility.yul\":4014:4021   */\n      dup7\n        /* \"#utility.yul\":4005:4011   */\n      dup3\n        /* \"#utility.yul\":3994:4003   */\n      dup8\n        /* \"#utility.yul\":3990:4012   */\n      add\n        /* \"#utility.yul\":3969:4022   */\n      tag_165\n      jump\t// in\n    tag_252:\n        /* \"#utility.yul\":3959:4022   */\n      swap3\n      pop\n        /* \"#utility.yul\":3914:4032   */\n      pop\n        /* \"#utility.yul\":4071:4073   */\n      0x40\n        /* \"#utility.yul\":4097:4150   */\n      tag_253\n        /* \"#utility.yul\":4142:4149   */\n      dup7\n        /* \"#utility.yul\":4133:4139   */\n      dup3\n        /* \"#utility.yul\":4122:4131   */\n      dup8\n        /* \"#utility.yul\":4118:4140   */\n      add\n        /* \"#utility.yul\":4097:4150   */\n      tag_160\n      jump\t// in\n    tag_253:\n        /* \"#utility.yul\":4087:4150   */\n      swap2\n      pop\n        /* \"#utility.yul\":4042:4160   */\n      pop\n        /* \"#utility.yul\":3548:4167   */\n      swap3\n      pop\n      swap3\n      pop\n      swap3\n      jump\t// out\n        /* \"#utility.yul\":4173:4502   */\n    tag_51:\n        /* \"#utility.yul\":4232:4238   */\n      0x00\n        /* \"#utility.yul\":4281:4283   */\n      0x20\n        /* \"#utility.yul\":4269:4278   */\n      dup3\n        /* \"#utility.yul\":4260:4267   */\n      dup5\n        /* \"#utility.yul\":4256:4279   */\n      sub\n        /* \"#utility.yul\":4252:4284   */\n      slt\n        /* \"#utility.yul\":4249:4368   */\n      iszero\n      tag_255\n      jumpi\n        /* \"#utility.yul\":4287:4366   */\n      tag_256\n      tag_151\n      jump\t// in\n    tag_256:\n        /* \"#utility.yul\":4249:4368   */\n    tag_255:\n        /* \"#utility.yul\":4407:4408   */\n      0x00\n        /* \"#utility.yul\":4432:4485   */\n      tag_257\n        /* \"#utility.yul\":4477:4484   */\n      dup5\n        /* \"#utility.yul\":4468:4474   */\n      dup3\n        /* \"#utility.yul\":4457:4466   */\n      dup6\n        /* \"#utility.yul\":4453:4475   */\n      add\n        /* \"#utility.yul\":4432:4485   */\n      tag_165\n      jump\t// in\n    tag_257:\n        /* \"#utility.yul\":4422:4485   */\n      swap2\n      pop\n        /* \"#utility.yul\":4378:4495   */\n      pop\n        /* \"#utility.yul\":4173:4502   */\n      swap3\n      swap2\n      pop\n      pop\n      jump\t// out\n        /* \"#utility.yul\":4508:4626   */\n    tag_166:\n        /* \"#utility.yul\":4595:4619   */\n      tag_259\n        /* \"#utility.yul\":4613:4618   */\n      dup2\n        /* \"#utility.yul\":4595:4619   */\n      tag_158\n      jump\t// in\n    tag_259:\n        /* \"#utility.yul\":4590:4593   */\n      dup3\n        /* \"#utility.yul\":4583:4620   */\n      mstore\n        /* \"#utility.yul\":4508:4626   */\n      pop\n      pop\n      jump\t// out\n        /* \"#utility.yul\":4632:4854   */\n    tag_54:\n        /* \"#utility.yul\":4725:4729   */\n      0x00\n        /* \"#utility.yul\":4763:4765   */\n      0x20\n        /* \"#utility.yul\":4752:4761   */\n      dup3\n        /* \"#utility.yul\":4748:4766   */\n      add\n        /* \"#utility.yul\":4740:4766   */\n      swap1\n      pop\n        /* \"#utility.yul\":4776:4847   */\n      tag_261\n        /* \"#utility.yul\":4844:4845   */\n      0x00\n        /* \"#utility.yul\":4833:4842   */\n      dup4\n        /* \"#utility.yul\":4829:4846   */\n      add\n        /* \"#utility.yul\":4820:4826   */\n      dup5\n        /* \"#utility.yul\":4776:4847   */\n      tag_166\n      jump\t// in\n    tag_261:\n        /* \"#utility.yul\":4632:4854   */\n      swap3\n      swap2\n      pop\n      pop\n      jump\t// out\n        /* \"#utility.yul\":4860:4976   */\n    tag_167:\n        /* \"#utility.yul\":4930:4951   */\n      tag_263\n        /* \"#utility.yul\":4945:4950   */\n      dup2\n        /* \"#utility.yul\":4930:4951   */\n      tag_156\n      jump\t// in\n    tag_263:\n        /* \"#utility.yul\":4923:4928   */\n      dup2\n        /* \"#utility.yul\":4920:4952   */\n      eq\n        /* \"#utility.yul\":4910:4970   */\n      tag_264\n      jumpi\n        /* \"#utility.yul\":4966:4967   */\n      0x00\n        /* \"#utility.yul\":4963:4964   */\n      0x00\n        /* \"#utility.yul\":4956:4968   */\n      revert\n        /* \"#utility.yul\":4910:4970   */\n    tag_264:\n        /* \"#utility.yul\":4860:4976   */\n      pop\n      jump\t// out\n        /* \"#utility.yul\":4982:5115   */\n    tag_168:\n        /* \"#utility.yul\":5025:5030   */\n      0x00\n        /* \"#utility.yul\":5063:5069   */\n      dup2\n        /* \"#utility.yul\":5050:5070   */\n      calldataload\n        /* \"#utility.yul\":5041:5070   */\n      swap1\n      pop\n        /* \"#utility.yul\":5079:5109   */\n      tag_266\n        /* \"#utility.yul\":5103:5108   */\n      dup2\n        /* \"#utility.yul\":5079:5109   */\n      tag_167\n      jump\t// in\n    tag_266:\n        /* \"#utility.yul\":4982:5115   */\n      swap3\n      swap2\n      pop\n      pop\n      jump\t// out\n        /* \"#utility.yul\":5121:5589   */\n    tag_57:\n        /* \"#utility.yul\":5186:5192   */\n      0x00\n        /* \"#utility.yul\":5194:5200   */\n      0x00\n        /* \"#utility.yul\":5243:5245   */\n      0x40\n        /* \"#utility.yul\":5231:5240   */\n      dup4\n        /* \"#utility.yul\":5222:5229   */\n      dup6\n        /* \"#utility.yul\":5218:5241   */\n      sub\n        /* \"#utility.yul\":5214:5246   */\n      slt\n        /* \"#utility.yul\":5211:5330   */\n      iszero\n      tag_268\n      jumpi\n        /* \"#utility.yul\":5249:5328   */\n      tag_269\n      tag_151\n      jump\t// in\n    tag_269:\n        /* \"#utility.yul\":5211:5330   */\n    tag_268:\n        /* \"#utility.yul\":5369:5370   */\n      0x00\n        /* \"#utility.yul\":5394:5447   */\n      tag_270\n        /* \"#utility.yul\":5439:5446   */\n      dup6\n        /* \"#utility.yul\":5430:5436   */\n      dup3\n        /* \"#utility.yul\":5419:5428   */\n      dup7\n        /* \"#utility.yul\":5415:5437   */\n      add\n        /* \"#utility.yul\":5394:5447   */\n      tag_165\n      jump\t// in\n    tag_270:\n        /* \"#utility.yul\":5384:5447   */\n      swap3\n      pop\n        /* \"#utility.yul\":5340:5457   */\n      pop\n        /* \"#utility.yul\":5496:5498   */\n      0x20\n        /* \"#utility.yul\":5522:5572   */\n      tag_271\n        /* \"#utility.yul\":5564:5571   */\n      dup6\n        /* \"#utility.yul\":5555:5561   */\n      dup3\n        /* \"#utility.yul\":5544:5553   */\n      dup7\n        /* \"#utility.yul\":5540:5562   */\n      add\n        /* \"#utility.yul\":5522:5572   */\n      tag_168\n      jump\t// in\n    tag_271:\n        /* \"#utility.yul\":5512:5572   */\n      swap2\n      pop\n        /* \"#utility.yul\":5467:5582   */\n      pop\n        /* \"#utility.yul\":5121:5589   */\n      swap3\n      pop\n      swap3\n      swap1\n      pop\n      jump\t// out\n        /* \"#utility.yul\":5595:5712   */\n    tag_169:\n        /* \"#utility.yul\":5704:5705   */\n      0x00\n        /* \"#utility.yul\":5701:5702   */\n      0x00\n        /* \"#utility.yul\":5694:5706   */\n      revert\n        /* \"#utility.yul\":5718:5835   */\n    tag_170:\n        /* \"#utility.yul\":5827:5828   */\n      0x00\n        /* \"#utility.yul\":5824:5825   */\n      0x00\n        /* \"#utility.yul\":5817:5829   */\n      revert\n        /* \"#utility.yul\":5841:5958   */\n    tag_171:\n        /* \"#utility.yul\":5950:5951   */\n      0x00\n        /* \"#utility.yul\":5947:5948   */\n      0x00\n        /* \"#utility.yul\":5940:5952   */\n      revert\n        /* \"#utility.yul\":5977:6529   */\n    tag_172:\n        /* \"#utility.yul\":6034:6042   */\n      0x00\n        /* \"#utility.yul\":6044:6050   */\n      0x00\n        /* \"#utility.yul\":6094:6097   */\n      dup4\n        /* \"#utility.yul\":6087:6091   */\n      0x1f\n        /* \"#utility.yul\":6079:6085   */\n      dup5\n        /* \"#utility.yul\":6075:6092   */\n      add\n        /* \"#utility.yul\":6071:6098   */\n      slt\n        /* \"#utility.yul\":6061:6183   */\n      tag_276\n      jumpi\n        /* \"#utility.yul\":6102:6181   */\n      tag_277\n      tag_169\n      jump\t// in\n    tag_277:\n        /* \"#utility.yul\":6061:6183   */\n    tag_276:\n        /* \"#utility.yul\":6215:6221   */\n      dup3\n        /* \"#utility.yul\":6202:6222   */\n      calldataload\n        /* \"#utility.yul\":6192:6222   */\n      swap1\n      pop\n        /* \"#utility.yul\":6245:6263   */\n      0xffffffffffffffff\n        /* \"#utility.yul\":6237:6243   */\n      dup2\n        /* \"#utility.yul\":6234:6264   */\n      gt\n        /* \"#utility.yul\":6231:6348   */\n      iszero\n      tag_278\n      jumpi\n        /* \"#utility.yul\":6267:6346   */\n      tag_279\n      tag_170\n      jump\t// in\n    tag_279:\n        /* \"#utility.yul\":6231:6348   */\n    tag_278:\n        /* \"#utility.yul\":6381:6385   */\n      0x20\n        /* \"#utility.yul\":6373:6379   */\n      dup4\n        /* \"#utility.yul\":6369:6386   */\n      add\n        /* \"#utility.yul\":6357:6386   */\n      swap2\n      pop\n        /* \"#utility.yul\":6435:6438   */\n      dup4\n        /* \"#utility.yul\":6427:6431   */\n      0x01\n        /* \"#utility.yul\":6419:6425   */\n      dup3\n        /* \"#utility.yul\":6415:6432   */\n      mul\n        /* \"#utility.yul\":6405:6413   */\n      dup4\n        /* \"#utility.yul\":6401:6433   */\n      add\n        /* \"#utility.yul\":6398:6439   */\n      gt\n        /* \"#utility.yul\":6395:6523   */\n      iszero\n      tag_280\n      jumpi\n        /* \"#utility.yul\":6442:6521   */\n      tag_281\n      tag_171\n      jump\t// in\n    tag_281:\n        /* \"#utility.yul\":6395:6523   */\n    tag_280:\n        /* \"#utility.yul\":5977:6529   */\n      swap3\n      pop\n      swap3\n      swap1\n      pop\n      jump\t// out\n        /* \"#utility.yul\":6535:7498   */\n    tag_61:\n        /* \"#utility.yul\":6632:6638   */\n      0x00\n        /* \"#utility.yul\":6640:6646   */\n      0x00\n        /* \"#utility.yul\":6648:6654   */\n      0x00\n        /* \"#utility.yul\":6656:6662   */\n      0x00\n        /* \"#utility.yul\":6664:6670   */\n      0x00\n        /* \"#utility.yul\":6713:6716   */\n      0x80\n        /* \"#utility.yul\":6701:6710   */\n      dup7\n        /* \"#utility.yul\":6692:6699   */\n      dup9\n        /* \"#utility.yul\":6688:6711   */\n      sub\n        /* \"#utility.yul\":6684:6717   */\n      slt\n        /* \"#utility.yul\":6681:6801   */\n      iszero\n      tag_283\n      jumpi\n        /* \"#utility.yul\":6720:6799   */\n      tag_284\n      tag_151\n      jump\t// in\n    tag_284:\n        /* \"#utility.yul\":6681:6801   */\n    tag_283:\n        /* \"#utility.yul\":6840:6841   */\n      0x00\n        /* \"#utility.yul\":6865:6918   */\n      tag_285\n        /* \"#utility.yul\":6910:6917   */\n      dup9\n        /* \"#utility.yul\":6901:6907   */\n      dup3\n        /* \"#utility.yul\":6890:6899   */\n      dup10\n        /* \"#utility.yul\":6886:6908   */\n      add\n        /* \"#utility.yul\":6865:6918   */\n      tag_165\n      jump\t// in\n    tag_285:\n        /* \"#utility.yul\":6855:6918   */\n      swap6\n      pop\n        /* \"#utility.yul\":6811:6928   */\n      pop\n        /* \"#utility.yul\":6967:6969   */\n      0x20\n        /* \"#utility.yul\":6993:7046   */\n      tag_286\n        /* \"#utility.yul\":7038:7045   */\n      dup9\n        /* \"#utility.yul\":7029:7035   */\n      dup3\n        /* \"#utility.yul\":7018:7027   */\n      dup10\n        /* \"#utility.yul\":7014:7036   */\n      add\n        /* \"#utility.yul\":6993:7046   */\n      tag_165\n      jump\t// in\n    tag_286:\n        /* \"#utility.yul\":6983:7046   */\n      swap5\n      pop\n        /* \"#utility.yul\":6938:7056   */\n      pop\n        /* \"#utility.yul\":7095:7097   */\n      0x40\n        /* \"#utility.yul\":7121:7174   */\n      tag_287\n        /* \"#utility.yul\":7166:7173   */\n      dup9\n        /* \"#utility.yul\":7157:7163   */\n      dup3\n        /* \"#utility.yul\":7146:7155   */\n      dup10\n        /* \"#utility.yul\":7142:7164   */\n      add\n        /* \"#utility.yul\":7121:7174   */\n      tag_160\n      jump\t// in\n    tag_287:\n        /* \"#utility.yul\":7111:7174   */\n      swap4\n      pop\n        /* \"#utility.yul\":7066:7184   */\n      pop\n        /* \"#utility.yul\":7251:7253   */\n      0x60\n        /* \"#utility.yul\":7240:7249   */\n      dup7\n        /* \"#utility.yul\":7236:7254   */\n      add\n        /* \"#utility.yul\":7223:7255   */\n      calldataload\n        /* \"#utility.yul\":7282:7300   */\n      0xffffffffffffffff\n        /* \"#utility.yul\":7274:7280   */\n      dup2\n        /* \"#utility.yul\":7271:7301   */\n      gt\n        /* \"#utility.yul\":7268:7385   */\n      iszero\n      tag_288\n      jumpi\n        /* \"#utility.yul\":7304:7383   */\n      tag_289\n      tag_152\n      jump\t// in\n    tag_289:\n        /* \"#utility.yul\":7268:7385   */\n    tag_288:\n        /* \"#utility.yul\":7417:7481   */\n      tag_290\n        /* \"#utility.yul\":7473:7480   */\n      dup9\n        /* \"#utility.yul\":7464:7470   */\n      dup3\n        /* \"#utility.yul\":7453:7462   */\n      dup10\n        /* \"#utility.yul\":7449:7471   */\n      add\n        /* \"#utility.yul\":7417:7481   */\n      tag_172\n      jump\t// in\n    tag_290:\n        /* \"#utility.yul\":7399:7481   */\n      swap3\n      pop\n      swap3\n      pop\n        /* \"#utility.yul\":7194:7491   */\n      pop\n        /* \"#utility.yul\":6535:7498   */\n      swap3\n      swap6\n      pop\n      swap3\n      swap6\n      swap1\n      swap4\n      pop\n      jump\t// out\n        /* \"#utility.yul\":7504:7978   */\n    tag_65:\n        /* \"#utility.yul\":7572:7578   */\n      0x00\n        /* \"#utility.yul\":7580:7586   */\n      0x00\n        /* \"#utility.yul\":7629:7631   */\n      0x40\n        /* \"#utility.yul\":7617:7626   */\n      dup4\n        /* \"#utility.yul\":7608:7615   */\n      dup6\n        /* \"#utility.yul\":7604:7627   */\n      sub\n        /* \"#utility.yul\":7600:7632   */\n      slt\n        /* \"#utility.yul\":7597:7716   */\n      iszero\n      tag_292\n      jumpi\n        /* \"#utility.yul\":7635:7714   */\n      tag_293\n      tag_151\n      jump\t// in\n    tag_293:\n        /* \"#utility.yul\":7597:7716   */\n    tag_292:\n        /* \"#utility.yul\":7755:7756   */\n      0x00\n        /* \"#utility.yul\":7780:7833   */\n      tag_294\n        /* \"#utility.yul\":7825:7832   */\n      dup6\n        /* \"#utility.yul\":7816:7822   */\n      dup3\n        /* \"#utility.yul\":7805:7814   */\n      dup7\n        /* \"#utility.yul\":7801:7823   */\n      add\n        /* \"#utility.yul\":7780:7833   */\n      tag_165\n      jump\t// in\n    tag_294:\n        /* \"#utility.yul\":7770:7833   */\n      swap3\n      pop\n        /* \"#utility.yul\":7726:7843   */\n      pop\n        /* \"#utility.yul\":7882:7884   */\n      0x20\n        /* \"#utility.yul\":7908:7961   */\n      tag_295\n        /* \"#utility.yul\":7953:7960   */\n      dup6\n        /* \"#utility.yul\":7944:7950   */\n      dup3\n        /* \"#utility.yul\":7933:7942   */\n      dup7\n        /* \"#utility.yul\":7929:7951   */\n      add\n        /* \"#utility.yul\":7908:7961   */\n      tag_165\n      jump\t// in\n    tag_295:\n        /* \"#utility.yul\":7898:7961   */\n      swap2\n      pop\n        /* \"#utility.yul\":7853:7971   */\n      pop\n        /* \"#utility.yul\":7504:7978   */\n      swap3\n      pop\n      swap3\n      swap1\n      pop\n      jump\t// out\n        /* \"#utility.yul\":7984:8153   */\n    tag_173:\n        /* \"#utility.yul\":8068:8079   */\n      0x00\n        /* \"#utility.yul\":8102:8108   */\n      dup3\n        /* \"#utility.yul\":8097:8100   */\n      dup3\n        /* \"#utility.yul\":8090:8109   */\n      mstore\n        /* \"#utility.yul\":8142:8146   */\n      0x20\n        /* \"#utility.yul\":8137:8140   */\n      dup3\n        /* \"#utility.yul\":8133:8147   */\n      add\n        /* \"#utility.yul\":8118:8147   */\n      swap1\n      pop\n        /* \"#utility.yul\":7984:8153   */\n      swap3\n      swap2\n      pop\n      pop\n      jump\t// out\n        /* \"#utility.yul\":8159:8326   */\n    tag_174:\n        /* \"#utility.yul\":8299:8318   */\n      0x746f6b656e4964206e6f74206578697374000000000000000000000000000000\n        /* \"#utility.yul\":8295:8296   */\n      0x00\n        /* \"#utility.yul\":8287:8293   */\n      dup3\n        /* \"#utility.yul\":8283:8297   */\n      add\n        /* \"#utility.yul\":8276:8319   */\n      mstore\n        /* \"#utility.yul\":8159:8326   */\n      pop\n      jump\t// out\n        /* \"#utility.yul\":8332:8698   */\n    tag_175:\n        /* \"#utility.yul\":8474:8477   */\n      0x00\n        /* \"#utility.yul\":8495:8562   */\n      tag_299\n        /* \"#utility.yul\":8559:8561   */\n      0x11\n        /* \"#utility.yul\":8554:8557   */\n      dup4\n        /* \"#utility.yul\":8495:8562   */\n      tag_173\n      jump\t// in\n    tag_299:\n        /* \"#utility.yul\":8488:8562   */\n      swap2\n      pop\n        /* \"#utility.yul\":8571:8664   */\n      tag_300\n        /* \"#utility.yul\":8660:8663   */\n      dup3\n        /* \"#utility.yul\":8571:8664   */\n      tag_174\n      jump\t// in\n    tag_300:\n        /* \"#utility.yul\":8689:8691   */\n      0x20\n        /* \"#utility.yul\":8684:8687   */\n      dup3\n        /* \"#utility.yul\":8680:8692   */\n      add\n        /* \"#utility.yul\":8673:8692   */\n      swap1\n      pop\n        /* \"#utility.yul\":8332:8698   */\n      swap2\n      swap1\n      pop\n      jump\t// out\n        /* \"#utility.yul\":8704:9123   */\n    tag_73:\n        /* \"#utility.yul\":8870:8874   */\n      0x00\n        /* \"#utility.yul\":8908:8910   */\n      0x20\n        /* \"#utility.yul\":8897:8906   */\n      dup3\n        /* \"#utility.yul\":8893:8911   */\n      add\n        /* \"#utility.yul\":8885:8911   */\n      swap1\n      pop\n        /* \"#utility.yul\":8957:8966   */\n      dup2\n        /* \"#utility.yul\":8951:8955   */\n      dup2\n        /* \"#utility.yul\":8947:8967   */\n      sub\n        /* \"#utility.yul\":8943:8944   */\n      0x00\n        /* \"#utility.yul\":8932:8941   */\n      dup4\n        /* \"#utility.yul\":8928:8945   */\n      add\n        /* \"#utility.yul\":8921:8968   */\n      mstore\n        /* \"#utility.yul\":8985:9116   */\n      tag_302\n        /* \"#utility.yul\":9111:9115   */\n      dup2\n        /* \"#utility.yul\":8985:9116   */\n      tag_175\n      jump\t// in\n    tag_302:\n        /* \"#utility.yul\":8977:9116   */\n      swap1\n      pop\n        /* \"#utility.yul\":8704:9123   */\n      swap2\n      swap1\n      pop\n      jump\t// out\n        /* \"#utility.yul\":9129:9293   */\n    tag_176:\n        /* \"#utility.yul\":9269:9285   */\n      0x6e6f7420617574686f72697a6564000000000000000000000000000000000000\n        /* \"#utility.yul\":9265:9266   */\n      0x00\n        /* \"#utility.yul\":9257:9263   */\n      dup3\n        /* \"#utility.yul\":9253:9267   */\n      add\n        /* \"#utility.yul\":9246:9286   */\n      mstore\n        /* \"#utility.yul\":9129:9293   */\n      pop\n      jump\t// out\n        /* \"#utility.yul\":9299:9665   */\n    tag_177:\n        /* \"#utility.yul\":9441:9444   */\n      0x00\n        /* \"#utility.yul\":9462:9529   */\n      tag_305\n        /* \"#utility.yul\":9526:9528   */\n      0x0e\n        /* \"#utility.yul\":9521:9524   */\n      dup4\n        /* \"#utility.yul\":9462:9529   */\n      tag_173\n      jump\t// in\n    tag_305:\n        /* \"#utility.yul\":9455:9529   */\n      swap2\n      pop\n        /* \"#utility.yul\":9538:9631   */\n      tag_306\n        /* \"#utility.yul\":9627:9630   */\n      dup3\n        /* \"#utility.yul\":9538:9631   */\n      tag_176\n      jump\t// in\n    tag_306:\n        /* \"#utility.yul\":9656:9658   */\n      0x20\n        /* \"#utility.yul\":9651:9654   */\n      dup3\n        /* \"#utility.yul\":9647:9659   */\n      add\n        /* \"#utility.yul\":9640:9659   */\n      swap1\n      pop\n        /* \"#utility.yul\":9299:9665   */\n      swap2\n      swap1\n      pop\n      jump\t// out\n        /* \"#utility.yul\":9671:10090   */\n    tag_78:\n        /* \"#utility.yul\":9837:9841   */\n      0x00\n        /* \"#utility.yul\":9875:9877   */\n      0x20\n        /* \"#utility.yul\":9864:9873   */\n      dup3\n        /* \"#utility.yul\":9860:9878   */\n      add\n        /* \"#utility.yul\":9852:9878   */\n      swap1\n      pop\n        /* \"#utility.yul\":9924:9933   */\n      dup2\n        /* \"#utility.yul\":9918:9922   */\n      dup2\n        /* \"#utility.yul\":9914:9934   */\n      sub\n        /* \"#utility.yul\":9910:9911   */\n      0x00\n        /* \"#utility.yul\":9899:9908   */\n      dup4\n        /* \"#utility.yul\":9895:9912   */\n      add\n        /* \"#utility.yul\":9888:9935   */\n      mstore\n        /* \"#utility.yul\":9952:10083   */\n      tag_308\n        /* \"#utility.yul\":10078:10082   */\n      dup2\n        /* \"#utility.yul\":9952:10083   */\n      tag_177\n      jump\t// in\n    tag_308:\n        /* \"#utility.yul\":9944:10083   */\n      swap1\n      pop\n        /* \"#utility.yul\":9671:10090   */\n      swap2\n      swap1\n      pop\n      jump\t// out\n        /* \"#utility.yul\":10096:10260   */\n    tag_178:\n        /* \"#utility.yul\":10236:10252   */\n      0x2066726f6d20213d206f776e6572000000000000000000000000000000000000\n        /* \"#utility.yul\":10232:10233   */\n      0x00\n        /* \"#utility.yul\":10224:10230   */\n      dup3\n        /* \"#utility.yul\":10220:10234   */\n      add\n        /* \"#utility.yul\":10213:10253   */\n      mstore\n        /* \"#utility.yul\":10096:10260   */\n      pop\n      jump\t// out\n        /* \"#utility.yul\":10266:10632   */\n    tag_179:\n        /* \"#utility.yul\":10408:10411   */\n      0x00\n        /* \"#utility.yul\":10429:10496   */\n      tag_311\n        /* \"#utility.yul\":10493:10495   */\n      0x0e\n        /* \"#utility.yul\":10488:10491   */\n      dup4\n        /* \"#utility.yul\":10429:10496   */\n      tag_173\n      jump\t// in\n    tag_311:\n        /* \"#utility.yul\":10422:10496   */\n      swap2\n      pop\n        /* \"#utility.yul\":10505:10598   */\n      tag_312\n        /* \"#utility.yul\":10594:10597   */\n      dup3\n        /* \"#utility.yul\":10505:10598   */\n      tag_178\n      jump\t// in\n    tag_312:\n        /* \"#utility.yul\":10623:10625   */\n      0x20\n        /* \"#utility.yul\":10618:10621   */\n      dup3\n        /* \"#utility.yul\":10614:10626   */\n      add\n        /* \"#utility.yul\":10607:10626   */\n      swap1\n      pop\n        /* \"#utility.yul\":10266:10632   */\n      swap2\n      swap1\n      pop\n      jump\t// out\n        /* \"#utility.yul\":10638:11057   */\n    tag_82:\n        /* \"#utility.yul\":10804:10808   */\n      0x00\n        /* \"#utility.yul\":10842:10844   */\n      0x20\n        /* \"#utility.yul\":10831:10840   */\n      dup3\n        /* \"#utility.yul\":10827:10845   */\n      add\n        /* \"#utility.yul\":10819:10845   */\n      swap1\n      pop\n        /* \"#utility.yul\":10891:10900   */\n      dup2\n        /* \"#utility.yul\":10885:10889   */\n      dup2\n        /* \"#utility.yul\":10881:10901   */\n      sub\n        /* \"#utility.yul\":10877:10878   */\n      0x00\n        /* \"#utility.yul\":10866:10875   */\n      dup4\n        /* \"#utility.yul\":10862:10879   */\n      add\n        /* \"#utility.yul\":10855:10902   */\n      mstore\n        /* \"#utility.yul\":10919:11050   */\n      tag_314\n        /* \"#utility.yul\":11045:11049   */\n      dup2\n        /* \"#utility.yul\":10919:11050   */\n      tag_179\n      jump\t// in\n    tag_314:\n        /* \"#utility.yul\":10911:11050   */\n      swap1\n      pop\n        /* \"#utility.yul\":10638:11057   */\n      swap2\n      swap1\n      pop\n      jump\t// out\n        /* \"#utility.yul\":11063:11230   */\n    tag_180:\n        /* \"#utility.yul\":11203:11222   */\n      0x746f203d207a65726f2061646472657373000000000000000000000000000000\n        /* \"#utility.yul\":11199:11200   */\n      0x00\n        /* \"#utility.yul\":11191:11197   */\n      dup3\n        /* \"#utility.yul\":11187:11201   */\n      add\n        /* \"#utility.yul\":11180:11223   */\n      mstore\n        /* \"#utility.yul\":11063:11230   */\n      pop\n      jump\t// out\n        /* \"#utility.yul\":11236:11602   */\n    tag_181:\n        /* \"#utility.yul\":11378:11381   */\n      0x00\n        /* \"#utility.yul\":11399:11466   */\n      tag_317\n        /* \"#utility.yul\":11463:11465   */\n      0x11\n        /* \"#utility.yul\":11458:11461   */\n      dup4\n        /* \"#utility.yul\":11399:11466   */\n      tag_173\n      jump\t// in\n    tag_317:\n        /* \"#utility.yul\":11392:11466   */\n      swap2\n      pop\n        /* \"#utility.yul\":11475:11568   */\n      tag_318\n        /* \"#utility.yul\":11564:11567   */\n      dup3\n        /* \"#utility.yul\":11475:11568   */\n      tag_180\n      jump\t// in\n    tag_318:\n        /* \"#utility.yul\":11593:11595   */\n      0x20\n        /* \"#utility.yul\":11588:11591   */\n      dup3\n        /* \"#utility.yul\":11584:11596   */\n      add\n        /* \"#utility.yul\":11577:11596   */\n      swap1\n      pop\n        /* \"#utility.yul\":11236:11602   */\n      swap2\n      swap1\n      pop\n      jump\t// out\n        /* \"#utility.yul\":11608:12027   */\n    tag_85:\n        /* \"#utility.yul\":11774:11778   */\n      0x00\n        /* \"#utility.yul\":11812:11814   */\n      0x20\n        /* \"#utility.yul\":11801:11810   */\n      dup3\n        /* \"#utility.yul\":11797:11815   */\n      add\n        /* \"#utility.yul\":11789:11815   */\n      swap1\n      pop\n        /* \"#utility.yul\":11861:11870   */\n      dup2\n        /* \"#utility.yul\":11855:11859   */\n      dup2\n        /* \"#utility.yul\":11851:11871   */\n      sub\n        /* \"#utility.yul\":11847:11848   */\n      0x00\n        /* \"#utility.yul\":11836:11845   */\n      dup4\n        /* \"#utility.yul\":11832:11849   */\n      add\n        /* \"#utility.yul\":11825:11872   */\n      mstore\n        /* \"#utility.yul\":11889:12020   */\n      tag_320\n        /* \"#utility.yul\":12015:12019   */\n      dup2\n        /* \"#utility.yul\":11889:12020   */\n      tag_181\n      jump\t// in\n    tag_320:\n        /* \"#utility.yul\":11881:12020   */\n      swap1\n      pop\n        /* \"#utility.yul\":11608:12027   */\n      swap2\n      swap1\n      pop\n      jump\t// out\n        /* \"#utility.yul\":12033:12196   */\n    tag_182:\n        /* \"#utility.yul\":12173:12188   */\n      0x6e6f74206175746872697a656400000000000000000000000000000000000000\n        /* \"#utility.yul\":12169:12170   */\n      0x00\n        /* \"#utility.yul\":12161:12167   */\n      dup3\n        /* \"#utility.yul\":12157:12171   */\n      add\n        /* \"#utility.yul\":12150:12189   */\n      mstore\n        /* \"#utility.yul\":12033:12196   */\n      pop\n      jump\t// out\n        /* \"#utility.yul\":12202:12568   */\n    tag_183:\n        /* \"#utility.yul\":12344:12347   */\n      0x00\n        /* \"#utility.yul\":12365:12432   */\n      tag_323\n        /* \"#utility.yul\":12429:12431   */\n      0x0d\n        /* \"#utility.yul\":12424:12427   */\n      dup4\n        /* \"#utility.yul\":12365:12432   */\n      tag_173\n      jump\t// in\n    tag_323:\n        /* \"#utility.yul\":12358:12432   */\n      swap2\n      pop\n        /* \"#utility.yul\":12441:12534   */\n      tag_324\n        /* \"#utility.yul\":12530:12533   */\n      dup3\n        /* \"#utility.yul\":12441:12534   */\n      tag_182\n      jump\t// in\n    tag_324:\n        /* \"#utility.yul\":12559:12561   */\n      0x20\n        /* \"#utility.yul\":12554:12557   */\n      dup3\n        /* \"#utility.yul\":12550:12562   */\n      add\n        /* \"#utility.yul\":12543:12562   */\n      swap1\n      pop\n        /* \"#utility.yul\":12202:12568   */\n      swap2\n      swap1\n      pop\n      jump\t// out\n        /* \"#utility.yul\":12574:12993   */\n    tag_90:\n        /* \"#utility.yul\":12740:12744   */\n      0x00\n        /* \"#utility.yul\":12778:12780   */\n      0x20\n        /* \"#utility.yul\":12767:12776   */\n      dup3\n        /* \"#utility.yul\":12763:12781   */\n      add\n        /* \"#utility.yul\":12755:12781   */\n      swap1\n      pop\n        /* \"#utility.yul\":12827:12836   */\n      dup2\n        /* \"#utility.yul\":12821:12825   */\n      dup2\n        /* \"#utility.yul\":12817:12837   */\n      sub\n        /* \"#utility.yul\":12813:12814   */\n      0x00\n        /* \"#utility.yul\":12802:12811   */\n      dup4\n        /* \"#utility.yul\":12798:12815   */\n      add\n        /* \"#utility.yul\":12791:12838   */\n      mstore\n        /* \"#utility.yul\":12855:12986   */\n      tag_326\n        /* \"#utility.yul\":12981:12985   */\n      dup2\n        /* \"#utility.yul\":12855:12986   */\n      tag_183\n      jump\t// in\n    tag_326:\n        /* \"#utility.yul\":12847:12986   */\n      swap1\n      pop\n        /* \"#utility.yul\":12574:12993   */\n      swap2\n      swap1\n      pop\n      jump\t// out\n        /* \"#utility.yul\":12999:13179   */\n    tag_184:\n        /* \"#utility.yul\":13047:13124   */\n      0x4e487b7100000000000000000000000000000000000000000000000000000000\n        /* \"#utility.yul\":13044:13045   */\n      0x00\n        /* \"#utility.yul\":13037:13125   */\n      mstore\n        /* \"#utility.yul\":13144:13148   */\n      0x11\n        /* \"#utility.yul\":13141:13142   */\n      0x04\n        /* \"#utility.yul\":13134:13149   */\n      mstore\n        /* \"#utility.yul\":13168:13172   */\n      0x24\n        /* \"#utility.yul\":13165:13166   */\n      0x00\n        /* \"#utility.yul\":13158:13173   */\n      revert\n        /* \"#utility.yul\":13185:13356   */\n    tag_92:\n        /* \"#utility.yul\":13224:13227   */\n      0x00\n        /* \"#utility.yul\":13247:13271   */\n      tag_329\n        /* \"#utility.yul\":13265:13270   */\n      dup3\n        /* \"#utility.yul\":13247:13271   */\n      tag_158\n      jump\t// in\n    tag_329:\n        /* \"#utility.yul\":13238:13271   */\n      swap2\n      pop\n        /* \"#utility.yul\":13293:13297   */\n      0x00\n        /* \"#utility.yul\":13286:13291   */\n      dup3\n        /* \"#utility.yul\":13283:13298   */\n      sub\n        /* \"#utility.yul\":13280:13321   */\n      tag_330\n      jumpi\n        /* \"#utility.yul\":13301:13319   */\n      tag_331\n      tag_184\n      jump\t// in\n    tag_331:\n        /* \"#utility.yul\":13280:13321   */\n    tag_330:\n        /* \"#utility.yul\":13348:13349   */\n      0x01\n        /* \"#utility.yul\":13341:13346   */\n      dup3\n        /* \"#utility.yul\":13337:13350   */\n      sub\n        /* \"#utility.yul\":13330:13350   */\n      swap1\n      pop\n        /* \"#utility.yul\":13185:13356   */\n      swap2\n      swap1\n      pop\n      jump\t// out\n        /* \"#utility.yul\":13362:13595   */\n    tag_94:\n        /* \"#utility.yul\":13401:13404   */\n      0x00\n        /* \"#utility.yul\":13424:13448   */\n      tag_333\n        /* \"#utility.yul\":13442:13447   */\n      dup3\n        /* \"#utility.yul\":13424:13448   */\n      tag_158\n      jump\t// in\n    tag_333:\n        /* \"#utility.yul\":13415:13448   */\n      swap2\n      pop\n        /* \"#utility.yul\":13470:13536   */\n      0xffffffffffffffffffffffffffffffffffffffffffffffffffffffffffffffff\n        /* \"#utility.yul\":13463:13468   */\n      dup3\n        /* \"#utility.yul\":13460:13537   */\n      sub\n        /* \"#utility.yul\":13457:13560   */\n      tag_334\n      jumpi\n        /* \"#utility.yul\":13540:13558   */\n      tag_335\n      tag_184\n      jump\t// in\n    tag_335:\n        /* \"#utility.yul\":13457:13560   */\n    tag_334:\n        /* \"#utility.yul\":13587:13588   */\n      0x01\n        /* \"#utility.yul\":13580:13585   */\n      dup3\n        /* \"#utility.yul\":13576:13589   */\n      add\n        /* \"#utility.yul\":13569:13589   */\n      swap1\n      pop\n        /* \"#utility.yul\":13362:13595   */\n      swap2\n      swap1\n      pop\n      jump\t// out\n        /* \"#utility.yul\":13601:13769   */\n    tag_185:\n        /* \"#utility.yul\":13684:13695   */\n      0x00\n        /* \"#utility.yul\":13718:13724   */\n      dup3\n        /* \"#utility.yul\":13713:13716   */\n      dup3\n        /* \"#utility.yul\":13706:13725   */\n      mstore\n        /* \"#utility.yul\":13758:13762   */\n      0x20\n        /* \"#utility.yul\":13753:13756   */\n      dup3\n        /* \"#utility.yul\":13749:13763   */\n      add\n        /* \"#utility.yul\":13734:13763   */\n      swap1\n      pop\n        /* \"#utility.yul\":13601:13769   */\n      swap3\n      swap2\n      pop\n      pop\n      jump\t// out\n        /* \"#utility.yul\":13775:13889   */\n    tag_186:\n      pop\n      jump\t// out\n        /* \"#utility.yul\":13895:14257   */\n    tag_187:\n        /* \"#utility.yul\":14036:14039   */\n      0x00\n        /* \"#utility.yul\":14057:14122   */\n      tag_339\n        /* \"#utility.yul\":14120:14121   */\n      0x00\n        /* \"#utility.yul\":14115:14118   */\n      dup4\n        /* \"#utility.yul\":14057:14122   */\n      tag_185\n      jump\t// in\n    tag_339:\n        /* \"#utility.yul\":14050:14122   */\n      swap2\n      pop\n        /* \"#utility.yul\":14131:14224   */\n      tag_340\n        /* \"#utility.yul\":14220:14223   */\n      dup3\n        /* \"#utility.yul\":14131:14224   */\n      tag_186\n      jump\t// in\n    tag_340:\n        /* \"#utility.yul\":14249:14250   */\n      0x00\n        /* \"#utility.yul\":14244:14247   */\n      dup3\n        /* \"#utility.yul\":14240:14251   */\n      add\n        /* \"#utility.yul\":14233:14251   */\n      swap1\n      pop\n        /* \"#utility.yul\":13895:14257   */\n      swap2\n      swap1\n      pop\n      jump\t// out\n        /* \"#utility.yul\":14263:15011   */\n    tag_102:\n        /* \"#utility.yul\":14512:14516   */\n      0x00\n        /* \"#utility.yul\":14550:14553   */\n      0x80\n        /* \"#utility.yul\":14539:14548   */\n      dup3\n        /* \"#utility.yul\":14535:14554   */\n      add\n        /* \"#utility.yul\":14527:14554   */\n      swap1\n      pop\n        /* \"#utility.yul\":14564:14635   */\n      tag_342\n        /* \"#utility.yul\":14632:14633   */\n      0x00\n        /* \"#utility.yul\":14621:14630   */\n      dup4\n        /* \"#utility.yul\":14617:14634   */\n      add\n        /* \"#utility.yul\":14608:14614   */\n      dup7\n        /* \"#utility.yul\":14564:14635   */\n      tag_163\n      jump\t// in\n    tag_342:\n        /* \"#utility.yul\":14645:14717   */\n      tag_343\n        /* \"#utility.yul\":14713:14715   */\n      0x20\n        /* \"#utility.yul\":14702:14711   */\n      dup4\n        /* \"#utility.yul\":14698:14716   */\n      add\n        /* \"#utility.yul\":14689:14695   */\n      dup6\n        /* \"#utility.yul\":14645:14717   */\n      tag_163\n      jump\t// in\n    tag_343:\n        /* \"#utility.yul\":14727:14799   */\n      tag_344\n        /* \"#utility.yul\":14795:14797   */\n      0x40\n        /* \"#utility.yul\":14784:14793   */\n      dup4\n        /* \"#utility.yul\":14780:14798   */\n      add\n        /* \"#utility.yul\":14771:14777   */\n      dup5\n        /* \"#utility.yul\":14727:14799   */\n      tag_166\n      jump\t// in\n    tag_344:\n        /* \"#utility.yul\":14846:14855   */\n      dup2\n        /* \"#utility.yul\":14840:14844   */\n      dup2\n        /* \"#utility.yul\":14836:14856   */\n      sub\n        /* \"#utility.yul\":14831:14833   */\n      0x60\n        /* \"#utility.yul\":14820:14829   */\n      dup4\n        /* \"#utility.yul\":14816:14834   */\n      add\n        /* \"#utility.yul\":14809:14857   */\n      mstore\n        /* \"#utility.yul\":14874:15004   */\n      tag_345\n        /* \"#utility.yul\":14999:15003   */\n      dup2\n        /* \"#utility.yul\":14874:15004   */\n      tag_187\n      jump\t// in\n    tag_345:\n        /* \"#utility.yul\":14866:15004   */\n      swap1\n      pop\n        /* \"#utility.yul\":14263:15011   */\n      swap5\n      swap4\n      pop\n      pop\n      pop\n      pop\n      jump\t// out\n        /* \"#utility.yul\":15017:15158   */\n    tag_188:\n        /* \"#utility.yul\":15073:15078   */\n      0x00\n        /* \"#utility.yul\":15104:15110   */\n      dup2\n        /* \"#utility.yul\":15098:15111   */\n      mload\n        /* \"#utility.yul\":15089:15111   */\n      swap1\n      pop\n        /* \"#utility.yul\":15120:15152   */\n      tag_347\n        /* \"#utility.yul\":15146:15151   */\n      dup2\n        /* \"#utility.yul\":15120:15152   */\n      tag_154\n      jump\t// in\n    tag_347:\n        /* \"#utility.yul\":15017:15158   */\n      swap3\n      swap2\n      pop\n      pop\n      jump\t// out\n        /* \"#utility.yul\":15164:15513   */\n    tag_106:\n        /* \"#utility.yul\":15233:15239   */\n      0x00\n        /* \"#utility.yul\":15282:15284   */\n      0x20\n        /* \"#utility.yul\":15270:15279   */\n      dup3\n        /* \"#utility.yul\":15261:15268   */\n      dup5\n        /* \"#utility.yul\":15257:15280   */\n      sub\n        /* \"#utility.yul\":15253:15285   */\n      slt\n        /* \"#utility.yul\":15250:15369   */\n      iszero\n      tag_349\n      jumpi\n        /* \"#utility.yul\":15288:15367   */\n      tag_350\n      tag_151\n      jump\t// in\n    tag_350:\n        /* \"#utility.yul\":15250:15369   */\n    tag_349:\n        /* \"#utility.yul\":15408:15409   */\n      0x00\n        /* \"#utility.yul\":15433:15496   */\n      tag_351\n        /* \"#utility.yul\":15488:15495   */\n      dup5\n        /* \"#utility.yul\":15479:15485   */\n      dup3\n        /* \"#utility.yul\":15468:15477   */\n      dup6\n        /* \"#utility.yul\":15464:15486   */\n      add\n        /* \"#utility.yul\":15433:15496   */\n      tag_188\n      jump\t// in\n    tag_351:\n        /* \"#utility.yul\":15423:15496   */\n      swap2\n      pop\n        /* \"#utility.yul\":15379:15506   */\n      pop\n        /* \"#utility.yul\":15164:15513   */\n      swap3\n      swap2\n      pop\n      pop\n      jump\t// out\n        /* \"#utility.yul\":15519:15685   */\n    tag_189:\n        /* \"#utility.yul\":15659:15677   */\n      0x756e7361666520726563697069656e7400000000000000000000000000000000\n        /* \"#utility.yul\":15655:15656   */\n      0x00\n        /* \"#utility.yul\":15647:15653   */\n      dup3\n        /* \"#utility.yul\":15643:15657   */\n      add\n        /* \"#utility.yul\":15636:15678   */\n      mstore\n        /* \"#utility.yul\":15519:15685   */\n      pop\n      jump\t// out\n        /* \"#utility.yul\":15691:16057   */\n    tag_190:\n        /* \"#utility.yul\":15833:15836   */\n      0x00\n        /* \"#utility.yul\":15854:15921   */\n      tag_354\n        /* \"#utility.yul\":15918:15920   */\n      0x10\n        /* \"#utility.yul\":15913:15916   */\n      dup4\n        /* \"#utility.yul\":15854:15921   */\n      tag_173\n      jump\t// in\n    tag_354:\n        /* \"#utility.yul\":15847:15921   */\n      swap2\n      pop\n        /* \"#utility.yul\":15930:16023   */\n      tag_355\n        /* \"#utility.yul\":16019:16022   */\n      dup3\n        /* \"#utility.yul\":15930:16023   */\n      tag_189\n      jump\t// in\n    tag_355:\n        /* \"#utility.yul\":16048:16050   */\n      0x20\n        /* \"#utility.yul\":16043:16046   */\n      dup3\n        /* \"#utility.yul\":16039:16051   */\n      add\n        /* \"#utility.yul\":16032:16051   */\n      swap1\n      pop\n        /* \"#utility.yul\":15691:16057   */\n      swap2\n      swap1\n      pop\n      jump\t// out\n        /* \"#utility.yul\":16063:16482   */\n    tag_109:\n        /* \"#utility.yul\":16229:16233   */\n      0x00\n        /* \"#utility.yul\":16267:16269   */\n      0x20\n        /* \"#utility.yul\":16256:16265   */\n      dup3\n        /* \"#utility.yul\":16252:16270   */\n      add\n        /* \"#utility.yul\":16244:16270   */\n      swap1\n      pop\n        /* \"#utility.yul\":16316:16325   */\n      dup2\n        /* \"#utility.yul\":16310:16314   */\n      dup2\n        /* \"#utility.yul\":16306:16326   */\n      sub\n        /* \"#utility.yul\":16302:16303   */\n      0x00\n        /* \"#utility.yul\":16291:16300   */\n      dup4\n        /* \"#utility.yul\":16287:16304   */\n      add\n        /* \"#utility.yul\":16280:16327   */\n      mstore\n        /* \"#utility.yul\":16344:16475   */\n      tag_357\n        /* \"#utility.yul\":16470:16474   */\n      dup2\n        /* \"#utility.yul\":16344:16475   */\n      tag_190\n      jump\t// in\n    tag_357:\n        /* \"#utility.yul\":16336:16475   */\n      swap1\n      pop\n        /* \"#utility.yul\":16063:16482   */\n      swap2\n      swap1\n      pop\n      jump\t// out\n        /* \"#utility.yul\":16488:16647   */\n    tag_191:\n        /* \"#utility.yul\":16628:16639   */\n      0x6e6f74206f776e65720000000000000000000000000000000000000000000000\n        /* \"#utility.yul\":16624:16625   */\n      0x00\n        /* \"#utility.yul\":16616:16622   */\n      dup3\n        /* \"#utility.yul\":16612:16626   */\n      add\n        /* \"#utility.yul\":16605:16640   */\n      mstore\n        /* \"#utility.yul\":16488:16647   */\n      pop\n      jump\t// out\n        /* \"#utility.yul\":16653:17018   */\n    tag_192:\n        /* \"#utility.yul\":16795:16798   */\n      0x00\n        /* \"#utility.yul\":16816:16882   */\n      tag_360\n        /* \"#utility.yul\":16880:16881   */\n      0x09\n        /* \"#utility.yul\":16875:16878   */\n      dup4\n        /* \"#utility.yul\":16816:16882   */\n      tag_173\n      jump\t// in\n    tag_360:\n        /* \"#utility.yul\":16809:16882   */\n      swap2\n      pop\n        /* \"#utility.yul\":16891:16984   */\n      tag_361\n        /* \"#utility.yul\":16980:16983   */\n      dup3\n        /* \"#utility.yul\":16891:16984   */\n      tag_191\n      jump\t// in\n    tag_361:\n        /* \"#utility.yul\":17009:17011   */\n      0x20\n        /* \"#utility.yul\":17004:17007   */\n      dup3\n        /* \"#utility.yul\":17000:17012   */\n      add\n        /* \"#utility.yul\":16993:17012   */\n      swap1\n      pop\n        /* \"#utility.yul\":16653:17018   */\n      swap2\n      swap1\n      pop\n      jump\t// out\n        /* \"#utility.yul\":17024:17443   */\n    tag_113:\n        /* \"#utility.yul\":17190:17194   */\n      0x00\n        /* \"#utility.yul\":17228:17230   */\n      0x20\n        /* \"#utility.yul\":17217:17226   */\n      dup3\n        /* \"#utility.yul\":17213:17231   */\n      add\n        /* \"#utility.yul\":17205:17231   */\n      swap1\n      pop\n        /* \"#utility.yul\":17277:17286   */\n      dup2\n        /* \"#utility.yul\":17271:17275   */\n      dup2\n        /* \"#utility.yul\":17267:17287   */\n      sub\n        /* \"#utility.yul\":17263:17264   */\n      0x00\n        /* \"#utility.yul\":17252:17261   */\n      dup4\n        /* \"#utility.yul\":17248:17265   */\n      add\n        /* \"#utility.yul\":17241:17288   */\n      mstore\n        /* \"#utility.yul\":17305:17436   */\n      tag_363\n        /* \"#utility.yul\":17431:17435   */\n      dup2\n        /* \"#utility.yul\":17305:17436   */\n      tag_192\n      jump\t// in\n    tag_363:\n        /* \"#utility.yul\":17297:17436   */\n      swap1\n      pop\n        /* \"#utility.yul\":17024:17443   */\n      swap2\n      swap1\n      pop\n      jump\t// out\n        /* \"#utility.yul\":17449:17616   */\n    tag_193:\n        /* \"#utility.yul\":17589:17608   */\n      0x6f776e6572203d20616464726573732030000000000000000000000000000000\n        /* \"#utility.yul\":17585:17586   */\n      0x00\n        /* \"#utility.yul\":17577:17583   */\n      dup3\n        /* \"#utility.yul\":17573:17587   */\n      add\n        /* \"#utility.yul\":17566:17609   */\n      mstore\n        /* \"#utility.yul\":17449:17616   */\n      pop\n      jump\t// out\n        /* \"#utility.yul\":17622:17988   */\n    tag_194:\n        /* \"#utility.yul\":17764:17767   */\n      0x00\n        /* \"#utility.yul\":17785:17852   */\n      tag_366\n        /* \"#utility.yul\":17849:17851   */\n      0x11\n        /* \"#utility.yul\":17844:17847   */\n      dup4\n        /* \"#utility.yul\":17785:17852   */\n      tag_173\n      jump\t// in\n    tag_366:\n        /* \"#utility.yul\":17778:17852   */\n      swap2\n      pop\n        /* \"#utility.yul\":17861:17954   */\n      tag_367\n        /* \"#utility.yul\":17950:17953   */\n      dup3\n        /* \"#utility.yul\":17861:17954   */\n      tag_193\n      jump\t// in\n    tag_367:\n        /* \"#utility.yul\":17979:17981   */\n      0x20\n        /* \"#utility.yul\":17974:17977   */\n      dup3\n        /* \"#utility.yul\":17970:17982   */\n      add\n        /* \"#utility.yul\":17963:17982   */\n      swap1\n      pop\n        /* \"#utility.yul\":17622:17988   */\n      swap2\n      swap1\n      pop\n      jump\t// out\n        /* \"#utility.yul\":17994:18413   */\n    tag_119:\n        /* \"#utility.yul\":18160:18164   */\n      0x00\n        /* \"#utility.yul\":18198:18200   */\n      0x20\n        /* \"#utility.yul\":18187:18196   */\n      dup3\n        /* \"#utility.yul\":18183:18201   */\n      add\n        /* \"#utility.yul\":18175:18201   */\n      swap1\n      pop\n        /* \"#utility.yul\":18247:18256   */\n      dup2\n        /* \"#utility.yul\":18241:18245   */\n      dup2\n        /* \"#utility.yul\":18237:18257   */\n      sub\n        /* \"#utility.yul\":18233:18234   */\n      0x00\n        /* \"#utility.yul\":18222:18231   */\n      dup4\n        /* \"#utility.yul\":18218:18235   */\n      add\n        /* \"#utility.yul\":18211:18258   */\n      mstore\n        /* \"#utility.yul\":18275:18406   */\n      tag_369\n        /* \"#utility.yul\":18401:18405   */\n      dup2\n        /* \"#utility.yul\":18275:18406   */\n      tag_194\n      jump\t// in\n    tag_369:\n        /* \"#utility.yul\":18267:18406   */\n      swap1\n      pop\n        /* \"#utility.yul\":17994:18413   */\n      swap2\n      swap1\n      pop\n      jump\t// out\n        /* \"#utility.yul\":18419:18567   */\n    tag_195:\n        /* \"#utility.yul\":18517:18523   */\n      dup3\n        /* \"#utility.yul\":18512:18515   */\n      dup2\n        /* \"#utility.yul\":18507:18510   */\n      dup4\n        /* \"#utility.yul\":18494:18524   */\n      calldatacopy\n        /* \"#utility.yul\":18558:18559   */\n      0x00\n        /* \"#utility.yul\":18549:18555   */\n      dup4\n        /* \"#utility.yul\":18544:18547   */\n      dup4\n        /* \"#utility.yul\":18540:18556   */\n      add\n        /* \"#utility.yul\":18533:18560   */\n      mstore\n        /* \"#utility.yul\":18419:18567   */\n      pop\n      pop\n      pop\n      jump\t// out\n        /* \"#utility.yul\":18573:18675   */\n    tag_196:\n        /* \"#utility.yul\":18614:18620   */\n      0x00\n        /* \"#utility.yul\":18665:18667   */\n      0x1f\n        /* \"#utility.yul\":18661:18668   */\n      not\n        /* \"#utility.yul\":18656:18658   */\n      0x1f\n        /* \"#utility.yul\":18649:18654   */\n      dup4\n        /* \"#utility.yul\":18645:18659   */\n      add\n        /* \"#utility.yul\":18641:18669   */\n      and\n        /* \"#utility.yul\":18631:18669   */\n      swap1\n      pop\n        /* \"#utility.yul\":18573:18675   */\n      swap2\n      swap1\n      pop\n      jump\t// out\n        /* \"#utility.yul\":18703:19017   */\n    tag_197:\n        /* \"#utility.yul\":18799:18802   */\n      0x00\n        /* \"#utility.yul\":18820:18890   */\n      tag_373\n        /* \"#utility.yul\":18883:18889   */\n      dup4\n        /* \"#utility.yul\":18878:18881   */\n      dup6\n        /* \"#utility.yul\":18820:18890   */\n      tag_185\n      jump\t// in\n    tag_373:\n        /* \"#utility.yul\":18813:18890   */\n      swap4\n      pop\n        /* \"#utility.yul\":18900:18956   */\n      tag_374\n        /* \"#utility.yul\":18949:18955   */\n      dup4\n        /* \"#utility.yul\":18944:18947   */\n      dup6\n        /* \"#utility.yul\":18937:18942   */\n      dup5\n        /* \"#utility.yul\":18900:18956   */\n      tag_195\n      jump\t// in\n    tag_374:\n        /* \"#utility.yul\":18981:19010   */\n      tag_375\n        /* \"#utility.yul\":19003:19009   */\n      dup4\n        /* \"#utility.yul\":18981:19010   */\n      tag_196\n      jump\t// in\n    tag_375:\n        /* \"#utility.yul\":18976:18979   */\n      dup5\n        /* \"#utility.yul\":18972:19011   */\n      add\n        /* \"#utility.yul\":18965:19011   */\n      swap1\n      pop\n        /* \"#utility.yul\":18703:19017   */\n      swap4\n      swap3\n      pop\n      pop\n      pop\n      jump\t// out\n        /* \"#utility.yul\":19023:19683   */\n    tag_129:\n        /* \"#utility.yul\":19228:19232   */\n      0x00\n        /* \"#utility.yul\":19266:19269   */\n      0x80\n        /* \"#utility.yul\":19255:19264   */\n      dup3\n        /* \"#utility.yul\":19251:19270   */\n      add\n        /* \"#utility.yul\":19243:19270   */\n      swap1\n      pop\n        /* \"#utility.yul\":19280:19351   */\n      tag_377\n        /* \"#utility.yul\":19348:19349   */\n      0x00\n        /* \"#utility.yul\":19337:19346   */\n      dup4\n        /* \"#utility.yul\":19333:19350   */\n      add\n        /* \"#utility.yul\":19324:19330   */\n      dup9\n        /* \"#utility.yul\":19280:19351   */\n      tag_163\n      jump\t// in\n    tag_377:\n        /* \"#utility.yul\":19361:19433   */\n      tag_378\n        /* \"#utility.yul\":19429:19431   */\n      0x20\n        /* \"#utility.yul\":19418:19427   */\n      dup4\n        /* \"#utility.yul\":19414:19432   */\n      add\n        /* \"#utility.yul\":19405:19411   */\n      dup8\n        /* \"#utility.yul\":19361:19433   */\n      tag_163\n      jump\t// in\n    tag_378:\n        /* \"#utility.yul\":19443:19515   */\n      tag_379\n        /* \"#utility.yul\":19511:19513   */\n      0x40\n        /* \"#utility.yul\":19500:19509   */\n      dup4\n        /* \"#utility.yul\":19496:19514   */\n      add\n        /* \"#utility.yul\":19487:19493   */\n      dup7\n        /* \"#utility.yul\":19443:19515   */\n      tag_166\n      jump\t// in\n    tag_379:\n        /* \"#utility.yul\":19562:19571   */\n      dup2\n        /* \"#utility.yul\":19556:19560   */\n      dup2\n        /* \"#utility.yul\":19552:19572   */\n      sub\n        /* \"#utility.yul\":19547:19549   */\n      0x60\n        /* \"#utility.yul\":19536:19545   */\n      dup4\n        /* \"#utility.yul\":19532:19550   */\n      add\n        /* \"#utility.yul\":19525:19573   */\n      mstore\n        /* \"#utility.yul\":19590:19676   */\n      tag_380\n        /* \"#utility.yul\":19671:19675   */\n      dup2\n        /* \"#utility.yul\":19662:19668   */\n      dup5\n        /* \"#utility.yul\":19654:19660   */\n      dup7\n        /* \"#utility.yul\":19590:19676   */\n      tag_197\n      jump\t// in\n    tag_380:\n        /* \"#utility.yul\":19582:19676   */\n      swap1\n      pop\n        /* \"#utility.yul\":19023:19683   */\n      swap7\n      swap6\n      pop\n      pop\n      pop\n      pop\n      pop\n      pop\n      jump\t// out\n        /* \"#utility.yul\":19689:19851   */\n    tag_198:\n        /* \"#utility.yul\":19829:19843   */\n      0x746f6b656e206578697374730000000000000000000000000000000000000000\n        /* \"#utility.yul\":19825:19826   */\n      0x00\n        /* \"#utility.yul\":19817:19823   */\n      dup3\n        /* \"#utility.yul\":19813:19827   */\n      add\n        /* \"#utility.yul\":19806:19844   */\n      mstore\n        /* \"#utility.yul\":19689:19851   */\n      pop\n      jump\t// out\n        /* \"#utility.yul\":19857:20223   */\n    tag_199:\n        /* \"#utility.yul\":19999:20002   */\n      0x00\n        /* \"#utility.yul\":20020:20087   */\n      tag_383\n        /* \"#utility.yul\":20084:20086   */\n      0x0c\n        /* \"#utility.yul\":20079:20082   */\n      dup4\n        /* \"#utility.yul\":20020:20087   */\n      tag_173\n      jump\t// in\n    tag_383:\n        /* \"#utility.yul\":20013:20087   */\n      swap2\n      pop\n        /* \"#utility.yul\":20096:20189   */\n      tag_384\n        /* \"#utility.yul\":20185:20188   */\n      dup3\n        /* \"#utility.yul\":20096:20189   */\n      tag_198\n      jump\t// in\n    tag_384:\n        /* \"#utility.yul\":20214:20216   */\n      0x20\n        /* \"#utility.yul\":20209:20212   */\n      dup3\n        /* \"#utility.yul\":20205:20217   */\n      add\n        /* \"#utility.yul\":20198:20217   */\n      swap1\n      pop\n        /* \"#utility.yul\":19857:20223   */\n      swap2\n      swap1\n      pop\n      jump\t// out\n        /* \"#utility.yul\":20229:20648   */\n    tag_143:\n        /* \"#utility.yul\":20395:20399   */\n      0x00\n        /* \"#utility.yul\":20433:20435   */\n      0x20\n        /* \"#utility.yul\":20422:20431   */\n      dup3\n        /* \"#utility.yul\":20418:20436   */\n      add\n        /* \"#utility.yul\":20410:20436   */\n      swap1\n      pop\n        /* \"#utility.yul\":20482:20491   */\n      dup2\n        /* \"#utility.yul\":20476:20480   */\n      dup2\n        /* \"#utility.yul\":20472:20492   */\n      sub\n        /* \"#utility.yul\":20468:20469   */\n      0x00\n        /* \"#utility.yul\":20457:20466   */\n      dup4\n        /* \"#utility.yul\":20453:20470   */\n      add\n        /* \"#utility.yul\":20446:20493   */\n      mstore\n        /* \"#utility.yul\":20510:20641   */\n      tag_386\n        /* \"#utility.yul\":20636:20640   */\n      dup2\n        /* \"#utility.yul\":20510:20641   */\n      tag_199\n      jump\t// in\n    tag_386:\n        /* \"#utility.yul\":20502:20641   */\n      swap1\n      pop\n        /* \"#utility.yul\":20229:20648   */\n      swap2\n      swap1\n      pop\n      jump\t// out\n        /* \"#utility.yul\":20654:20824   */\n    tag_200:\n        /* \"#utility.yul\":20794:20816   */\n      0x746f6b656e20646f6573206e6f74206578697374000000000000000000000000\n        /* \"#utility.yul\":20790:20791   */\n      0x00\n        /* \"#utility.yul\":20782:20788   */\n      dup3\n        /* \"#utility.yul\":20778:20792   */\n      add\n        /* \"#utility.yul\":20771:20817   */\n      mstore\n        /* \"#utility.yul\":20654:20824   */\n      pop\n      jump\t// out\n        /* \"#utility.yul\":20830:21196   */\n    tag_201:\n        /* \"#utility.yul\":20972:20975   */\n      0x00\n        /* \"#utility.yul\":20993:21060   */\n      tag_389\n        /* \"#utility.yul\":21057:21059   */\n      0x14\n        /* \"#utility.yul\":21052:21055   */\n      dup4\n        /* \"#utility.yul\":20993:21060   */\n      tag_173\n      jump\t// in\n    tag_389:\n        /* \"#utility.yul\":20986:21060   */\n      swap2\n      pop\n        /* \"#utility.yul\":21069:21162   */\n      tag_390\n        /* \"#utility.yul\":21158:21161   */\n      dup3\n        /* \"#utility.yul\":21069:21162   */\n      tag_200\n      jump\t// in\n    tag_390:\n        /* \"#utility.yul\":21187:21189   */\n      0x20\n        /* \"#utility.yul\":21182:21185   */\n      dup3\n        /* \"#utility.yul\":21178:21190   */\n      add\n        /* \"#utility.yul\":21171:21190   */\n      swap1\n      pop\n        /* \"#utility.yul\":20830:21196   */\n      swap2\n      swap1\n      pop\n      jump\t// out\n        /* \"#utility.yul\":21202:21621   */\n    tag_148:\n        /* \"#utility.yul\":21368:21372   */\n      0x00\n        /* \"#utility.yul\":21406:21408   */\n      0x20\n        /* \"#utility.yul\":21395:21404   */\n      dup3\n        /* \"#utility.yul\":21391:21409   */\n      add\n        /* \"#utility.yul\":21383:21409   */\n      swap1\n      pop\n        /* \"#utility.yul\":21455:21464   */\n      dup2\n        /* \"#utility.yul\":21449:21453   */\n      dup2\n        /* \"#utility.yul\":21445:21465   */\n      sub\n        /* \"#utility.yul\":21441:21442   */\n      0x00\n        /* \"#utility.yul\":21430:21439   */\n      dup4\n        /* \"#utility.yul\":21426:21443   */\n      add\n        /* \"#utility.yul\":21419:21466   */\n      mstore\n        /* \"#utility.yul\":21483:21614   */\n      tag_392\n        /* \"#utility.yul\":21609:21613   */\n      dup2\n        /* \"#utility.yul\":21483:21614   */\n      tag_201\n      jump\t// in\n    tag_392:\n        /* \"#utility.yul\":21475:21614   */\n      swap1\n      pop\n        /* \"#utility.yul\":21202:21621   */\n      swap2\n      swap1\n      pop\n      jump\t// out\n\n    auxdata: 0xa2646970667358221220ee65c8eb782e89c5b9de4c39d1c4efba3b6fe6288b71d3f4675c13022a97644f64736f6c634300081e0033\n}\n",
				"bytecode": {
					"linkReferences": {},
					"object": "6080604052348015600e575f5ffd5b50611d9c8061001c5f395ff3fe608060405234801561000f575f5ffd5b50600436106100b2575f3560e01c806342966c681161006f57806342966c68146101865780636352211e146101a257806370a08231146101d2578063a22cb46514610202578063b88d4fde1461021e578063e985e9c51461023a576100b2565b806301ffc9a7146100b6578063081812fc146100e6578063095ea7b31461011657806323b872dd1461013257806340c10f191461014e57806342842e0e1461016a575b5f5ffd5b6100d060048036038101906100cb91906113b1565b61026a565b6040516100dd91906113f6565b60405180910390f35b61010060048036038101906100fb9190611442565b61033b565b60405161010d91906114ac565b60405180910390f35b610130600480360381019061012b91906114ef565b610411565b005b61014c6004803603810190610147919061152d565b6105ed565b005b610168600480360381019061016391906114ef565b6108c7565b005b610184600480360381019061017f919061152d565b6108d5565b005b6101a0600480360381019061019b9190611442565b610a09565b005b6101bc60048036038101906101b79190611442565b610ab2565b6040516101c991906114ac565b60405180910390f35b6101ec60048036038101906101e7919061157d565b610b58565b6040516101f991906115b7565b60405180910390f35b61021c600480360381019061021791906115fa565b610c0c565b005b61023860048036038101906102339190611699565b610d04565b005b610254600480360381019061024f919061171d565b610e3e565b60405161026191906113f6565b60405180910390f35b5f7f80ac58cd000000000000000000000000000000000000000000000000000000007bffffffffffffffffffffffffffffffffffffffffffffffffffffffff1916827bffffffffffffffffffffffffffffffffffffffffffffffffffffffff1916148061033457507f01ffc9a7000000000000000000000000000000000000000000000000000000007bffffffffffffffffffffffffffffffffffffffffffffffffffffffff1916827bffffffffffffffffffffffffffffffffffffffffffffffffffffffff1916145b9050919050565b5f5f73ffffffffffffffffffffffffffffffffffffffff165f5f8481526020019081526020015f205f9054906101000a900473ffffffffffffffffffffffffffffffffffffffff1673ffffffffffffffffffffffffffffffffffffffff16036103d9576040517f08c379a00000000000000000000000000000000000000000000000000000000081526004016103d0906117b5565b60405180910390fd5b60025f8381526020019081526020015f205f9054906101000a900473ffffffffffffffffffffffffffffffffffffffff169050919050565b5f5f5f8381526020019081526020015f205f9054906101000a900473ffffffffffffffffffffffffffffffffffffffff1690508073ffffffffffffffffffffffffffffffffffffffff163373ffffffffffffffffffffffffffffffffffffffff1614806104ff575060035f8273ffffffffffffffffffffffffffffffffffffffff1673ffffffffffffffffffffffffffffffffffffffff1681526020019081526020015f205f3373ffffffffffffffffffffffffffffffffffffffff1673ffffffffffffffffffffffffffffffffffffffff1681526020019081526020015f205f9054906101000a900460ff165b61053e576040517f08c379a00000000000000000000000000000000000000000000000000000000081526004016105359061181d565b60405180910390fd5b8260025f8481526020019081526020015f205f6101000a81548173ffffffffffffffffffffffffffffffffffffffff021916908373ffffffffffffffffffffffffffffffffffffffff160217905550818373ffffffffffffffffffffffffffffffffffffffff168273ffffffffffffffffffffffffffffffffffffffff167f8c5be1e5ebec7d5bd14f71427d1e84f3dd0314c0f7b2291e5b200ac8c7c3b92560405160405180910390a4505050565b5f5f8281526020019081526020015f205f9054906101000a900473ffffffffffffffffffffffffffffffffffffffff1673ffffffffffffffffffffffffffffffffffffffff168373ffffffffffffffffffffffffffffffffffffffff161461068a576040517f08c379a000000000000000000000000000000000000000000000000000000000815260040161068190611885565b60405180910390fd5b5f73ffffffffffffffffffffffffffffffffffffffff168273ffffffffffffffffffffffffffffffffffffffff16036106f8576040517f08c379a00000000000000000000000000000000000000000000000000000000081526004016106ef906118ed565b60405180910390fd5b610703833383610e68565b610742576040517f08c379a000000000000000000000000000000000000000000000000000000000815260040161073990611955565b60405180910390fd5b60015f8473ffffffffffffffffffffffffffffffffffffffff1673ffffffffffffffffffffffffffffffffffffffff1681526020019081526020015f205f81548092919061078f906119a0565b919050555060015f8373ffffffffffffffffffffffffffffffffffffffff1673ffffffffffffffffffffffffffffffffffffffff1681526020019081526020015f205f8154809291906107e1906119c7565b9190505550815f5f8381526020019081526020015f205f6101000a81548173ffffffffffffffffffffffffffffffffffffffff021916908373ffffffffffffffffffffffffffffffffffffffff16021790555060025f8281526020019081526020015f205f6101000a81549073ffffffffffffffffffffffffffffffffffffffff0219169055808273ffffffffffffffffffffffffffffffffffffffff168473ffffffffffffffffffffffffffffffffffffffff167fddf252ad1be2c89b69c2b068fc378daa952ba7f163c4a11628f55a4df523b3ef60405160405180910390a4505050565b6108d18282610f93565b5050565b6108e08383836105ed565b5f8273ffffffffffffffffffffffffffffffffffffffff163b14806109c5575063150b7a0260e01b7bffffffffffffffffffffffffffffffffffffffffffffffffffffffff19168273ffffffffffffffffffffffffffffffffffffffff1663150b7a023386856040518463ffffffff1660e01b815260040161096493929190611a41565b6020604051808303815f875af1158015610980573d5f5f3e3d5ffd5b505050506040513d601f19601f820116820180604052508101906109a49190611a9d565b7bffffffffffffffffffffffffffffffffffffffffffffffffffffffff1916145b610a04576040517f08c379a00000000000000000000000000000000000000000000000000000000081526004016109fb90611b12565b60405180910390fd5b505050565b5f5f8281526020019081526020015f205f9054906101000a900473ffffffffffffffffffffffffffffffffffffffff1673ffffffffffffffffffffffffffffffffffffffff163373ffffffffffffffffffffffffffffffffffffffff1614610aa6576040517f08c379a0000000000000000000000000000000000000000000000000000000008152600401610a9d90611b7a565b60405180910390fd5b610aaf8161119d565b50565b5f5f5f8381526020019081526020015f205f9054906101000a900473ffffffffffffffffffffffffffffffffffffffff1690505f73ffffffffffffffffffffffffffffffffffffffff168173ffffffffffffffffffffffffffffffffffffffff1603610b53576040517f08c379a0000000000000000000000000000000000000000000000000000000008152600401610b4a90611be2565b60405180910390fd5b919050565b5f5f73ffffffffffffffffffffffffffffffffffffffff168273ffffffffffffffffffffffffffffffffffffffff1603610bc7576040517f08c379a0000000000000000000000000000000000000000000000000000000008152600401610bbe90611be2565b60405180910390fd5b60015f8373ffffffffffffffffffffffffffffffffffffffff1673ffffffffffffffffffffffffffffffffffffffff1681526020019081526020015f20549050919050565b8060035f3373ffffffffffffffffffffffffffffffffffffffff1673ffffffffffffffffffffffffffffffffffffffff1681526020019081526020015f205f8473ffffffffffffffffffffffffffffffffffffffff1673ffffffffffffffffffffffffffffffffffffffff1681526020019081526020015f205f6101000a81548160ff0219169083151502179055508173ffffffffffffffffffffffffffffffffffffffff163373ffffffffffffffffffffffffffffffffffffffff167f17307eab39ab6107e8899845ad3d59bd9653f200f220920489ca2b5937696c3183604051610cf891906113f6565b60405180910390a35050565b610d0f8585856105ed565b5f8473ffffffffffffffffffffffffffffffffffffffff163b1480610df8575063150b7a0260e01b7bffffffffffffffffffffffffffffffffffffffffffffffffffffffff19168473ffffffffffffffffffffffffffffffffffffffff1663150b7a0233888787876040518663ffffffff1660e01b8152600401610d97959493929190611c4a565b6020604051808303815f875af1158015610db3573d5f5f3e3d5ffd5b505050506040513d601f19601f82011682018060405250810190610dd79190611a9d565b7bffffffffffffffffffffffffffffffffffffffffffffffffffffffff1916145b610e37576040517f08c379a0000000000000000000000000000000000000000000000000000000008152600401610e2e90611b12565b60405180910390fd5b5050505050565b6003602052815f5260405f20602052805f5260405f205f915091509054906101000a900460ff1681565b5f8373ffffffffffffffffffffffffffffffffffffffff168373ffffffffffffffffffffffffffffffffffffffff161480610f24575060035f8573ffffffffffffffffffffffffffffffffffffffff1673ffffffffffffffffffffffffffffffffffffffff1681526020019081526020015f205f8473ffffffffffffffffffffffffffffffffffffffff1673ffffffffffffffffffffffffffffffffffffffff1681526020019081526020015f205f9054906101000a900460ff165b80610f8a575060025f8381526020019081526020015f205f9054906101000a900473ffffffffffffffffffffffffffffffffffffffff1673ffffffffffffffffffffffffffffffffffffffff168373ffffffffffffffffffffffffffffffffffffffff16145b90509392505050565b5f73ffffffffffffffffffffffffffffffffffffffff168273ffffffffffffffffffffffffffffffffffffffff1603611001576040517f08c379a0000000000000000000000000000000000000000000000000000000008152600401610ff8906118ed565b60405180910390fd5b5f73ffffffffffffffffffffffffffffffffffffffff165f5f8381526020019081526020015f205f9054906101000a900473ffffffffffffffffffffffffffffffffffffffff1673ffffffffffffffffffffffffffffffffffffffff161461109e576040517f08c379a000000000000000000000000000000000000000000000000000000000815260040161109590611ce0565b60405180910390fd5b60015f8373ffffffffffffffffffffffffffffffffffffffff1673ffffffffffffffffffffffffffffffffffffffff1681526020019081526020015f205f8154809291906110eb906119c7565b9190505550815f5f8381526020019081526020015f205f6101000a81548173ffffffffffffffffffffffffffffffffffffffff021916908373ffffffffffffffffffffffffffffffffffffffff160217905550808273ffffffffffffffffffffffffffffffffffffffff165f73ffffffffffffffffffffffffffffffffffffffff167fddf252ad1be2c89b69c2b068fc378daa952ba7f163c4a11628f55a4df523b3ef60405160405180910390a45050565b5f5f5f8381526020019081526020015f205f9054906101000a900473ffffffffffffffffffffffffffffffffffffffff1690505f73ffffffffffffffffffffffffffffffffffffffff168173ffffffffffffffffffffffffffffffffffffffff160361123e576040517f08c379a000000000000000000000000000000000000000000000000000000000815260040161123590611d48565b60405180910390fd5b60015f8273ffffffffffffffffffffffffffffffffffffffff1673ffffffffffffffffffffffffffffffffffffffff1681526020019081526020015f205f81548092919061128b906119a0565b91905055505f5f8381526020019081526020015f205f6101000a81549073ffffffffffffffffffffffffffffffffffffffff021916905560025f8381526020019081526020015f205f6101000a81549073ffffffffffffffffffffffffffffffffffffffff0219169055815f73ffffffffffffffffffffffffffffffffffffffff168273ffffffffffffffffffffffffffffffffffffffff167fddf252ad1be2c89b69c2b068fc378daa952ba7f163c4a11628f55a4df523b3ef60405160405180910390a45050565b5f5ffd5b5f5ffd5b5f7fffffffff0000000000000000000000000000000000000000000000000000000082169050919050565b6113908161135c565b811461139a575f5ffd5b50565b5f813590506113ab81611387565b92915050565b5f602082840312156113c6576113c5611354565b5b5f6113d38482850161139d565b91505092915050565b5f8115159050919050565b6113f0816113dc565b82525050565b5f6020820190506114095f8301846113e7565b92915050565b5f819050919050565b6114218161140f565b811461142b575f5ffd5b50565b5f8135905061143c81611418565b92915050565b5f6020828403121561145757611456611354565b5b5f6114648482850161142e565b91505092915050565b5f73ffffffffffffffffffffffffffffffffffffffff82169050919050565b5f6114968261146d565b9050919050565b6114a68161148c565b82525050565b5f6020820190506114bf5f83018461149d565b92915050565b6114ce8161148c565b81146114d8575f5ffd5b50565b5f813590506114e9816114c5565b92915050565b5f5f6040838503121561150557611504611354565b5b5f611512858286016114db565b92505060206115238582860161142e565b9150509250929050565b5f5f5f6060848603121561154457611543611354565b5b5f611551868287016114db565b9350506020611562868287016114db565b92505060406115738682870161142e565b9150509250925092565b5f6020828403121561159257611591611354565b5b5f61159f848285016114db565b91505092915050565b6115b18161140f565b82525050565b5f6020820190506115ca5f8301846115a8565b92915050565b6115d9816113dc565b81146115e3575f5ffd5b50565b5f813590506115f4816115d0565b92915050565b5f5f604083850312156116105761160f611354565b5b5f61161d858286016114db565b925050602061162e858286016115e6565b9150509250929050565b5f5ffd5b5f5ffd5b5f5ffd5b5f5f83601f84011261165957611658611638565b5b8235905067ffffffffffffffff8111156116765761167561163c565b5b60208301915083600182028301111561169257611691611640565b5b9250929050565b5f5f5f5f5f608086880312156116b2576116b1611354565b5b5f6116bf888289016114db565b95505060206116d0888289016114db565b94505060406116e18882890161142e565b935050606086013567ffffffffffffffff81111561170257611701611358565b5b61170e88828901611644565b92509250509295509295909350565b5f5f6040838503121561173357611732611354565b5b5f611740858286016114db565b9250506020611751858286016114db565b9150509250929050565b5f82825260208201905092915050565b7f746f6b656e4964206e6f742065786973740000000000000000000000000000005f82015250565b5f61179f60118361175b565b91506117aa8261176b565b602082019050919050565b5f6020820190508181035f8301526117cc81611793565b9050919050565b7f6e6f7420617574686f72697a65640000000000000000000000000000000000005f82015250565b5f611807600e8361175b565b9150611812826117d3565b602082019050919050565b5f6020820190508181035f830152611834816117fb565b9050919050565b7f2066726f6d20213d206f776e65720000000000000000000000000000000000005f82015250565b5f61186f600e8361175b565b915061187a8261183b565b602082019050919050565b5f6020820190508181035f83015261189c81611863565b9050919050565b7f746f203d207a65726f20616464726573730000000000000000000000000000005f82015250565b5f6118d760118361175b565b91506118e2826118a3565b602082019050919050565b5f6020820190508181035f830152611904816118cb565b9050919050565b7f6e6f74206175746872697a6564000000000000000000000000000000000000005f82015250565b5f61193f600d8361175b565b915061194a8261190b565b602082019050919050565b5f6020820190508181035f83015261196c81611933565b9050919050565b7f4e487b71000000000000000000000000000000000000000000000000000000005f52601160045260245ffd5b5f6119aa8261140f565b91505f82036119bc576119bb611973565b5b600182039050919050565b5f6119d18261140f565b91507fffffffffffffffffffffffffffffffffffffffffffffffffffffffffffffffff8203611a0357611a02611973565b5b600182019050919050565b5f82825260208201905092915050565b50565b5f611a2c5f83611a0e565b9150611a3782611a1e565b5f82019050919050565b5f608082019050611a545f83018661149d565b611a61602083018561149d565b611a6e60408301846115a8565b8181036060830152611a7f81611a21565b9050949350505050565b5f81519050611a9781611387565b92915050565b5f60208284031215611ab257611ab1611354565b5b5f611abf84828501611a89565b91505092915050565b7f756e7361666520726563697069656e74000000000000000000000000000000005f82015250565b5f611afc60108361175b565b9150611b0782611ac8565b602082019050919050565b5f6020820190508181035f830152611b2981611af0565b9050919050565b7f6e6f74206f776e657200000000000000000000000000000000000000000000005f82015250565b5f611b6460098361175b565b9150611b6f82611b30565b602082019050919050565b5f6020820190508181035f830152611b9181611b58565b9050919050565b7f6f776e6572203d206164647265737320300000000000000000000000000000005f82015250565b5f611bcc60118361175b565b9150611bd782611b98565b602082019050919050565b5f6020820190508181035f830152611bf981611bc0565b9050919050565b828183375f83830152505050565b5f601f19601f8301169050919050565b5f611c298385611a0e565b9350611c36838584611c00565b611c3f83611c0e565b840190509392505050565b5f608082019050611c5d5f83018861149d565b611c6a602083018761149d565b611c7760408301866115a8565b8181036060830152611c8a818486611c1e565b90509695505050505050565b7f746f6b656e2065786973747300000000000000000000000000000000000000005f82015250565b5f611cca600c8361175b565b9150611cd582611c96565b602082019050919050565b5f6020820190508181035f830152611cf781611cbe565b9050919050565b7f746f6b656e20646f6573206e6f742065786973740000000000000000000000005f82015250565b5f611d3260148361175b565b9150611d3d82611cfe565b602082019050919050565b5f6020820190508181035f830152611d5f81611d26565b905091905056fea2646970667358221220ee65c8eb782e89c5b9de4c39d1c4efba3b6fe6288b71d3f4675c13022a97644f64736f6c634300081e0033",
					"opcodes": "PUSH1 0x80 PUSH1 0x40 MSTORE CALLVALUE DUP1 ISZERO PUSH1 0xE JUMPI PUSH0 PUSH0 REVERT JUMPDEST POP PUSH2 0x1D9C DUP1 PUSH2 0x1C PUSH0 CODECOPY PUSH0 RETURN INVALID PUSH1 0x80 PUSH1 0x40 MSTORE CALLVALUE DUP1 ISZERO PUSH2 0xF JUMPI PUSH0 PUSH0 REVERT JUMPDEST POP PUSH1 0x4 CALLDATASIZE LT PUSH2 0xB2 JUMPI PUSH0 CALLDATALOAD PUSH1 0xE0 SHR DUP1 PUSH4 0x42966C68 GT PUSH2 0x6F JUMPI DUP1 PUSH4 0x42966C68 EQ PUSH2 0x186 JUMPI DUP1 PUSH4 0x6352211E EQ PUSH2 0x1A2 JUMPI DUP1 PUSH4 0x70A08231 EQ PUSH2 0x1D2 JUMPI DUP1 PUSH4 0xA22CB465 EQ PUSH2 0x202 JUMPI DUP1 PUSH4 0xB88D4FDE EQ PUSH2 0x21E JUMPI DUP1 PUSH4 0xE985E9C5 EQ PUSH2 0x23A JUMPI PUSH2 0xB2 JUMP JUMPDEST DUP1 PUSH4 0x1FFC9A7 EQ PUSH2 0xB6 JUMPI DUP1 PUSH4 0x81812FC EQ PUSH2 0xE6 JUMPI DUP1 PUSH4 0x95EA7B3 EQ PUSH2 0x116 JUMPI DUP1 PUSH4 0x23B872DD EQ PUSH2 0x132 JUMPI DUP1 PUSH4 0x40C10F19 EQ PUSH2 0x14E JUMPI DUP1 PUSH4 0x42842E0E EQ PUSH2 0x16A JUMPI JUMPDEST PUSH0 PUSH0 REVERT JUMPDEST PUSH2 0xD0 PUSH1 0x4 DUP1 CALLDATASIZE SUB DUP2 ADD SWAP1 PUSH2 0xCB SWAP2 SWAP1 PUSH2 0x13B1 JUMP JUMPDEST PUSH2 0x26A JUMP JUMPDEST PUSH1 0x40 MLOAD PUSH2 0xDD SWAP2 SWAP1 PUSH2 0x13F6 JUMP JUMPDEST PUSH1 0x40 MLOAD DUP1 SWAP2 SUB SWAP1 RETURN JUMPDEST PUSH2 0x100 PUSH1 0x4 DUP1 CALLDATASIZE SUB DUP2 ADD SWAP1 PUSH2 0xFB SWAP2 SWAP1 PUSH2 0x1442 JUMP JUMPDEST PUSH2 0x33B JUMP JUMPDEST PUSH1 0x40 MLOAD PUSH2 0x10D SWAP2 SWAP1 PUSH2 0x14AC JUMP JUMPDEST PUSH1 0x40 MLOAD DUP1 SWAP2 SUB SWAP1 RETURN JUMPDEST PUSH2 0x130 PUSH1 0x4 DUP1 CALLDATASIZE SUB DUP2 ADD SWAP1 PUSH2 0x12B SWAP2 SWAP1 PUSH2 0x14EF JUMP JUMPDEST PUSH2 0x411 JUMP JUMPDEST STOP JUMPDEST PUSH2 0x14C PUSH1 0x4 DUP1 CALLDATASIZE SUB DUP2 ADD SWAP1 PUSH2 0x147 SWAP2 SWAP1 PUSH2 0x152D JUMP JUMPDEST PUSH2 0x5ED JUMP JUMPDEST STOP JUMPDEST PUSH2 0x168 PUSH1 0x4 DUP1 CALLDATASIZE SUB DUP2 ADD SWAP1 PUSH2 0x163 SWAP2 SWAP1 PUSH2 0x14EF JUMP JUMPDEST PUSH2 0x8C7 JUMP JUMPDEST STOP JUMPDEST PUSH2 0x184 PUSH1 0x4 DUP1 CALLDATASIZE SUB DUP2 ADD SWAP1 PUSH2 0x17F SWAP2 SWAP1 PUSH2 0x152D JUMP JUMPDEST PUSH2 0x8D5 JUMP JUMPDEST STOP JUMPDEST PUSH2 0x1A0 PUSH1 0x4 DUP1 CALLDATASIZE SUB DUP2 ADD SWAP1 PUSH2 0x19B SWAP2 SWAP1 PUSH2 0x1442 JUMP JUMPDEST PUSH2 0xA09 JUMP JUMPDEST STOP JUMPDEST PUSH2 0x1BC PUSH1 0x4 DUP1 CALLDATASIZE SUB DUP2 ADD SWAP1 PUSH2 0x1B7 SWAP2 SWAP1 PUSH2 0x1442 JUMP JUMPDEST PUSH2 0xAB2 JUMP JUMPDEST PUSH1 0x40 MLOAD PUSH2 0x1C9 SWAP2 SWAP1 PUSH2 0x14AC JUMP JUMPDEST PUSH1 0x40 MLOAD DUP1 SWAP2 SUB SWAP1 RETURN JUMPDEST PUSH2 0x1EC PUSH1 0x4 DUP1 CALLDATASIZE SUB DUP2 ADD SWAP1 PUSH2 0x1E7 SWAP2 SWAP1 PUSH2 0x157D JUMP JUMPDEST PUSH2 0xB58 JUMP JUMPDEST PUSH1 0x40 MLOAD PUSH2 0x1F9 SWAP2 SWAP1 PUSH2 0x15B7 JUMP JUMPDEST PUSH1 0x40 MLOAD DUP1 SWAP2 SUB SWAP1 RETURN JUMPDEST PUSH2 0x21C PUSH1 0x4 DUP1 CALLDATASIZE SUB DUP2 ADD SWAP1 PUSH2 0x217 SWAP2 SWAP1 PUSH2 0x15FA JUMP JUMPDEST PUSH2 0xC0C JUMP JUMPDEST STOP JUMPDEST PUSH2 0x238 PUSH1 0x4 DUP1 CALLDATASIZE SUB DUP2 ADD SWAP1 PUSH2 0x233 SWAP2 SWAP1 PUSH2 0x1699 JUMP JUMPDEST PUSH2 0xD04 JUMP JUMPDEST STOP JUMPDEST PUSH2 0x254 PUSH1 0x4 DUP1 CALLDATASIZE SUB DUP2 ADD SWAP1 PUSH2 0x24F SWAP2 SWAP1 PUSH2 0x171D JUMP JUMPDEST PUSH2 0xE3E JUMP JUMPDEST PUSH1 0x40 MLOAD PUSH2 0x261 SWAP2 SWAP1 PUSH2 0x13F6 JUMP JUMPDEST PUSH1 0x40 MLOAD DUP1 SWAP2 SUB SWAP1 RETURN JUMPDEST PUSH0 PUSH32 0x80AC58CD00000000000000000000000000000000000000000000000000000000 PUSH28 0xFFFFFFFFFFFFFFFFFFFFFFFFFFFFFFFFFFFFFFFFFFFFFFFFFFFFFFFF NOT AND DUP3 PUSH28 0xFFFFFFFFFFFFFFFFFFFFFFFFFFFFFFFFFFFFFFFFFFFFFFFFFFFFFFFF NOT AND EQ DUP1 PUSH2 0x334 JUMPI POP PUSH32 0x1FFC9A700000000000000000000000000000000000000000000000000000000 PUSH28 0xFFFFFFFFFFFFFFFFFFFFFFFFFFFFFFFFFFFFFFFFFFFFFFFFFFFFFFFF NOT AND DUP3 PUSH28 0xFFFFFFFFFFFFFFFFFFFFFFFFFFFFFFFFFFFFFFFFFFFFFFFFFFFFFFFF NOT AND EQ JUMPDEST SWAP1 POP SWAP2 SWAP1 POP JUMP JUMPDEST PUSH0 PUSH0 PUSH20 0xFFFFFFFFFFFFFFFFFFFFFFFFFFFFFFFFFFFFFFFF AND PUSH0 PUSH0 DUP5 DUP2 MSTORE PUSH1 0x20 ADD SWAP1 DUP2 MSTORE PUSH1 0x20 ADD PUSH0 KECCAK256 PUSH0 SWAP1 SLOAD SWAP1 PUSH2 0x100 EXP SWAP1 DIV PUSH20 0xFFFFFFFFFFFFFFFFFFFFFFFFFFFFFFFFFFFFFFFF AND PUSH20 0xFFFFFFFFFFFFFFFFFFFFFFFFFFFFFFFFFFFFFFFF AND SUB PUSH2 0x3D9 JUMPI PUSH1 0x40 MLOAD PUSH32 0x8C379A000000000000000000000000000000000000000000000000000000000 DUP2 MSTORE PUSH1 0x4 ADD PUSH2 0x3D0 SWAP1 PUSH2 0x17B5 JUMP JUMPDEST PUSH1 0x40 MLOAD DUP1 SWAP2 SUB SWAP1 REVERT JUMPDEST PUSH1 0x2 PUSH0 DUP4 DUP2 MSTORE PUSH1 0x20 ADD SWAP1 DUP2 MSTORE PUSH1 0x20 ADD PUSH0 KECCAK256 PUSH0 SWAP1 SLOAD SWAP1 PUSH2 0x100 EXP SWAP1 DIV PUSH20 0xFFFFFFFFFFFFFFFFFFFFFFFFFFFFFFFFFFFFFFFF AND SWAP1 POP SWAP2 SWAP1 POP JUMP JUMPDEST PUSH0 PUSH0 PUSH0 DUP4 DUP2 MSTORE PUSH1 0x20 ADD SWAP1 DUP2 MSTORE PUSH1 0x20 ADD PUSH0 KECCAK256 PUSH0 SWAP1 SLOAD SWAP1 PUSH2 0x100 EXP SWAP1 DIV PUSH20 0xFFFFFFFFFFFFFFFFFFFFFFFFFFFFFFFFFFFFFFFF AND SWAP1 POP DUP1 PUSH20 0xFFFFFFFFFFFFFFFFFFFFFFFFFFFFFFFFFFFFFFFF AND CALLER PUSH20 0xFFFFFFFFFFFFFFFFFFFFFFFFFFFFFFFFFFFFFFFF AND EQ DUP1 PUSH2 0x4FF JUMPI POP PUSH1 0x3 PUSH0 DUP3 PUSH20 0xFFFFFFFFFFFFFFFFFFFFFFFFFFFFFFFFFFFFFFFF AND PUSH20 0xFFFFFFFFFFFFFFFFFFFFFFFFFFFFFFFFFFFFFFFF AND DUP2 MSTORE PUSH1 0x20 ADD SWAP1 DUP2 MSTORE PUSH1 0x20 ADD PUSH0 KECCAK256 PUSH0 CALLER PUSH20 0xFFFFFFFFFFFFFFFFFFFFFFFFFFFFFFFFFFFFFFFF AND PUSH20 0xFFFFFFFFFFFFFFFFFFFFFFFFFFFFFFFFFFFFFFFF AND DUP2 MSTORE PUSH1 0x20 ADD SWAP1 DUP2 MSTORE PUSH1 0x20 ADD PUSH0 KECCAK256 PUSH0 SWAP1 SLOAD SWAP1 PUSH2 0x100 EXP SWAP1 DIV PUSH1 0xFF AND JUMPDEST PUSH2 0x53E JUMPI PUSH1 0x40 MLOAD PUSH32 0x8C379A000000000000000000000000000000000000000000000000000000000 DUP2 MSTORE PUSH1 0x4 ADD PUSH2 0x535 SWAP1 PUSH2 0x181D JUMP JUMPDEST PUSH1 0x40 MLOAD DUP1 SWAP2 SUB SWAP1 REVERT JUMPDEST DUP3 PUSH1 0x2 PUSH0 DUP5 DUP2 MSTORE PUSH1 0x20 ADD SWAP1 DUP2 MSTORE PUSH1 0x20 ADD PUSH0 KECCAK256 PUSH0 PUSH2 0x100 EXP DUP2 SLOAD DUP2 PUSH20 0xFFFFFFFFFFFFFFFFFFFFFFFFFFFFFFFFFFFFFFFF MUL NOT AND SWAP1 DUP4 PUSH20 0xFFFFFFFFFFFFFFFFFFFFFFFFFFFFFFFFFFFFFFFF AND MUL OR SWAP1 SSTORE POP DUP2 DUP4 PUSH20 0xFFFFFFFFFFFFFFFFFFFFFFFFFFFFFFFFFFFFFFFF AND DUP3 PUSH20 0xFFFFFFFFFFFFFFFFFFFFFFFFFFFFFFFFFFFFFFFF AND PUSH32 0x8C5BE1E5EBEC7D5BD14F71427D1E84F3DD0314C0F7B2291E5B200AC8C7C3B925 PUSH1 0x40 MLOAD PUSH1 0x40 MLOAD DUP1 SWAP2 SUB SWAP1 LOG4 POP POP POP JUMP JUMPDEST PUSH0 PUSH0 DUP3 DUP2 MSTORE PUSH1 0x20 ADD SWAP1 DUP2 MSTORE PUSH1 0x20 ADD PUSH0 KECCAK256 PUSH0 SWAP1 SLOAD SWAP1 PUSH2 0x100 EXP SWAP1 DIV PUSH20 0xFFFFFFFFFFFFFFFFFFFFFFFFFFFFFFFFFFFFFFFF AND PUSH20 0xFFFFFFFFFFFFFFFFFFFFFFFFFFFFFFFFFFFFFFFF AND DUP4 PUSH20 0xFFFFFFFFFFFFFFFFFFFFFFFFFFFFFFFFFFFFFFFF AND EQ PUSH2 0x68A JUMPI PUSH1 0x40 MLOAD PUSH32 0x8C379A000000000000000000000000000000000000000000000000000000000 DUP2 MSTORE PUSH1 0x4 ADD PUSH2 0x681 SWAP1 PUSH2 0x1885 JUMP JUMPDEST PUSH1 0x40 MLOAD DUP1 SWAP2 SUB SWAP1 REVERT JUMPDEST PUSH0 PUSH20 0xFFFFFFFFFFFFFFFFFFFFFFFFFFFFFFFFFFFFFFFF AND DUP3 PUSH20 0xFFFFFFFFFFFFFFFFFFFFFFFFFFFFFFFFFFFFFFFF AND SUB PUSH2 0x6F8 JUMPI PUSH1 0x40 MLOAD PUSH32 0x8C379A000000000000000000000000000000000000000000000000000000000 DUP2 MSTORE PUSH1 0x4 ADD PUSH2 0x6EF SWAP1 PUSH2 0x18ED JUMP JUMPDEST PUSH1 0x40 MLOAD DUP1 SWAP2 SUB SWAP1 REVERT JUMPDEST PUSH2 0x703 DUP4 CALLER DUP4 PUSH2 0xE68 JUMP JUMPDEST PUSH2 0x742 JUMPI PUSH1 0x40 MLOAD PUSH32 0x8C379A000000000000000000000000000000000000000000000000000000000 DUP2 MSTORE PUSH1 0x4 ADD PUSH2 0x739 SWAP1 PUSH2 0x1955 JUMP JUMPDEST PUSH1 0x40 MLOAD DUP1 SWAP2 SUB SWAP1 REVERT JUMPDEST PUSH1 0x1 PUSH0 DUP5 PUSH20 0xFFFFFFFFFFFFFFFFFFFFFFFFFFFFFFFFFFFFFFFF AND PUSH20 0xFFFFFFFFFFFFFFFFFFFFFFFFFFFFFFFFFFFFFFFF AND DUP2 MSTORE PUSH1 0x20 ADD SWAP1 DUP2 MSTORE PUSH1 0x20 ADD PUSH0 KECCAK256 PUSH0 DUP2 SLOAD DUP1 SWAP3 SWAP2 SWAP1 PUSH2 0x78F SWAP1 PUSH2 0x19A0 JUMP JUMPDEST SWAP2 SWAP1 POP SSTORE POP PUSH1 0x1 PUSH0 DUP4 PUSH20 0xFFFFFFFFFFFFFFFFFFFFFFFFFFFFFFFFFFFFFFFF AND PUSH20 0xFFFFFFFFFFFFFFFFFFFFFFFFFFFFFFFFFFFFFFFF AND DUP2 MSTORE PUSH1 0x20 ADD SWAP1 DUP2 MSTORE PUSH1 0x20 ADD PUSH0 KECCAK256 PUSH0 DUP2 SLOAD DUP1 SWAP3 SWAP2 SWAP1 PUSH2 0x7E1 SWAP1 PUSH2 0x19C7 JUMP JUMPDEST SWAP2 SWAP1 POP SSTORE POP DUP2 PUSH0 PUSH0 DUP4 DUP2 MSTORE PUSH1 0x20 ADD SWAP1 DUP2 MSTORE PUSH1 0x20 ADD PUSH0 KECCAK256 PUSH0 PUSH2 0x100 EXP DUP2 SLOAD DUP2 PUSH20 0xFFFFFFFFFFFFFFFFFFFFFFFFFFFFFFFFFFFFFFFF MUL NOT AND SWAP1 DUP4 PUSH20 0xFFFFFFFFFFFFFFFFFFFFFFFFFFFFFFFFFFFFFFFF AND MUL OR SWAP1 SSTORE POP PUSH1 0x2 PUSH0 DUP3 DUP2 MSTORE PUSH1 0x20 ADD SWAP1 DUP2 MSTORE PUSH1 0x20 ADD PUSH0 KECCAK256 PUSH0 PUSH2 0x100 EXP DUP2 SLOAD SWAP1 PUSH20 0xFFFFFFFFFFFFFFFFFFFFFFFFFFFFFFFFFFFFFFFF MUL NOT AND SWAP1 SSTORE DUP1 DUP3 PUSH20 0xFFFFFFFFFFFFFFFFFFFFFFFFFFFFFFFFFFFFFFFF AND DUP5 PUSH20 0xFFFFFFFFFFFFFFFFFFFFFFFFFFFFFFFFFFFFFFFF AND PUSH32 0xDDF252AD1BE2C89B69C2B068FC378DAA952BA7F163C4A11628F55A4DF523B3EF PUSH1 0x40 MLOAD PUSH1 0x40 MLOAD DUP1 SWAP2 SUB SWAP1 LOG4 POP POP POP JUMP JUMPDEST PUSH2 0x8D1 DUP3 DUP3 PUSH2 0xF93 JUMP JUMPDEST POP POP JUMP JUMPDEST PUSH2 0x8E0 DUP4 DUP4 DUP4 PUSH2 0x5ED JUMP JUMPDEST PUSH0 DUP3 PUSH20 0xFFFFFFFFFFFFFFFFFFFFFFFFFFFFFFFFFFFFFFFF AND EXTCODESIZE EQ DUP1 PUSH2 0x9C5 JUMPI POP PUSH4 0x150B7A02 PUSH1 0xE0 SHL PUSH28 0xFFFFFFFFFFFFFFFFFFFFFFFFFFFFFFFFFFFFFFFFFFFFFFFFFFFFFFFF NOT AND DUP3 PUSH20 0xFFFFFFFFFFFFFFFFFFFFFFFFFFFFFFFFFFFFFFFF AND PUSH4 0x150B7A02 CALLER DUP7 DUP6 PUSH1 0x40 MLOAD DUP5 PUSH4 0xFFFFFFFF AND PUSH1 0xE0 SHL DUP2 MSTORE PUSH1 0x4 ADD PUSH2 0x964 SWAP4 SWAP3 SWAP2 SWAP1 PUSH2 0x1A41 JUMP JUMPDEST PUSH1 0x20 PUSH1 0x40 MLOAD DUP1 DUP4 SUB DUP2 PUSH0 DUP8 GAS CALL ISZERO DUP1 ISZERO PUSH2 0x980 JUMPI RETURNDATASIZE PUSH0 PUSH0 RETURNDATACOPY RETURNDATASIZE PUSH0 REVERT JUMPDEST POP POP POP POP PUSH1 0x40 MLOAD RETURNDATASIZE PUSH1 0x1F NOT PUSH1 0x1F DUP3 ADD AND DUP3 ADD DUP1 PUSH1 0x40 MSTORE POP DUP2 ADD SWAP1 PUSH2 0x9A4 SWAP2 SWAP1 PUSH2 0x1A9D JUMP JUMPDEST PUSH28 0xFFFFFFFFFFFFFFFFFFFFFFFFFFFFFFFFFFFFFFFFFFFFFFFFFFFFFFFF NOT AND EQ JUMPDEST PUSH2 0xA04 JUMPI PUSH1 0x40 MLOAD PUSH32 0x8C379A000000000000000000000000000000000000000000000000000000000 DUP2 MSTORE PUSH1 0x4 ADD PUSH2 0x9FB SWAP1 PUSH2 0x1B12 JUMP JUMPDEST PUSH1 0x40 MLOAD DUP1 SWAP2 SUB SWAP1 REVERT JUMPDEST POP POP POP JUMP JUMPDEST PUSH0 PUSH0 DUP3 DUP2 MSTORE PUSH1 0x20 ADD SWAP1 DUP2 MSTORE PUSH1 0x20 ADD PUSH0 KECCAK256 PUSH0 SWAP1 SLOAD SWAP1 PUSH2 0x100 EXP SWAP1 DIV PUSH20 0xFFFFFFFFFFFFFFFFFFFFFFFFFFFFFFFFFFFFFFFF AND PUSH20 0xFFFFFFFFFFFFFFFFFFFFFFFFFFFFFFFFFFFFFFFF AND CALLER PUSH20 0xFFFFFFFFFFFFFFFFFFFFFFFFFFFFFFFFFFFFFFFF AND EQ PUSH2 0xAA6 JUMPI PUSH1 0x40 MLOAD PUSH32 0x8C379A000000000000000000000000000000000000000000000000000000000 DUP2 MSTORE PUSH1 0x4 ADD PUSH2 0xA9D SWAP1 PUSH2 0x1B7A JUMP JUMPDEST PUSH1 0x40 MLOAD DUP1 SWAP2 SUB SWAP1 REVERT JUMPDEST PUSH2 0xAAF DUP2 PUSH2 0x119D JUMP JUMPDEST POP JUMP JUMPDEST PUSH0 PUSH0 PUSH0 DUP4 DUP2 MSTORE PUSH1 0x20 ADD SWAP1 DUP2 MSTORE PUSH1 0x20 ADD PUSH0 KECCAK256 PUSH0 SWAP1 SLOAD SWAP1 PUSH2 0x100 EXP SWAP1 DIV PUSH20 0xFFFFFFFFFFFFFFFFFFFFFFFFFFFFFFFFFFFFFFFF AND SWAP1 POP PUSH0 PUSH20 0xFFFFFFFFFFFFFFFFFFFFFFFFFFFFFFFFFFFFFFFF AND DUP2 PUSH20 0xFFFFFFFFFFFFFFFFFFFFFFFFFFFFFFFFFFFFFFFF AND SUB PUSH2 0xB53 JUMPI PUSH1 0x40 MLOAD PUSH32 0x8C379A000000000000000000000000000000000000000000000000000000000 DUP2 MSTORE PUSH1 0x4 ADD PUSH2 0xB4A SWAP1 PUSH2 0x1BE2 JUMP JUMPDEST PUSH1 0x40 MLOAD DUP1 SWAP2 SUB SWAP1 REVERT JUMPDEST SWAP2 SWAP1 POP JUMP JUMPDEST PUSH0 PUSH0 PUSH20 0xFFFFFFFFFFFFFFFFFFFFFFFFFFFFFFFFFFFFFFFF AND DUP3 PUSH20 0xFFFFFFFFFFFFFFFFFFFFFFFFFFFFFFFFFFFFFFFF AND SUB PUSH2 0xBC7 JUMPI PUSH1 0x40 MLOAD PUSH32 0x8C379A000000000000000000000000000000000000000000000000000000000 DUP2 MSTORE PUSH1 0x4 ADD PUSH2 0xBBE SWAP1 PUSH2 0x1BE2 JUMP JUMPDEST PUSH1 0x40 MLOAD DUP1 SWAP2 SUB SWAP1 REVERT JUMPDEST PUSH1 0x1 PUSH0 DUP4 PUSH20 0xFFFFFFFFFFFFFFFFFFFFFFFFFFFFFFFFFFFFFFFF AND PUSH20 0xFFFFFFFFFFFFFFFFFFFFFFFFFFFFFFFFFFFFFFFF AND DUP2 MSTORE PUSH1 0x20 ADD SWAP1 DUP2 MSTORE PUSH1 0x20 ADD PUSH0 KECCAK256 SLOAD SWAP1 POP SWAP2 SWAP1 POP JUMP JUMPDEST DUP1 PUSH1 0x3 PUSH0 CALLER PUSH20 0xFFFFFFFFFFFFFFFFFFFFFFFFFFFFFFFFFFFFFFFF AND PUSH20 0xFFFFFFFFFFFFFFFFFFFFFFFFFFFFFFFFFFFFFFFF AND DUP2 MSTORE PUSH1 0x20 ADD SWAP1 DUP2 MSTORE PUSH1 0x20 ADD PUSH0 KECCAK256 PUSH0 DUP5 PUSH20 0xFFFFFFFFFFFFFFFFFFFFFFFFFFFFFFFFFFFFFFFF AND PUSH20 0xFFFFFFFFFFFFFFFFFFFFFFFFFFFFFFFFFFFFFFFF AND DUP2 MSTORE PUSH1 0x20 ADD SWAP1 DUP2 MSTORE PUSH1 0x20 ADD PUSH0 KECCAK256 PUSH0 PUSH2 0x100 EXP DUP2 SLOAD DUP2 PUSH1 0xFF MUL NOT AND SWAP1 DUP4 ISZERO ISZERO MUL OR SWAP1 SSTORE POP DUP2 PUSH20 0xFFFFFFFFFFFFFFFFFFFFFFFFFFFFFFFFFFFFFFFF AND CALLER PUSH20 0xFFFFFFFFFFFFFFFFFFFFFFFFFFFFFFFFFFFFFFFF AND PUSH32 0x17307EAB39AB6107E8899845AD3D59BD9653F200F220920489CA2B5937696C31 DUP4 PUSH1 0x40 MLOAD PUSH2 0xCF8 SWAP2 SWAP1 PUSH2 0x13F6 JUMP JUMPDEST PUSH1 0x40 MLOAD DUP1 SWAP2 SUB SWAP1 LOG3 POP POP JUMP JUMPDEST PUSH2 0xD0F DUP6 DUP6 DUP6 PUSH2 0x5ED JUMP JUMPDEST PUSH0 DUP5 PUSH20 0xFFFFFFFFFFFFFFFFFFFFFFFFFFFFFFFFFFFFFFFF AND EXTCODESIZE EQ DUP1 PUSH2 0xDF8 JUMPI POP PUSH4 0x150B7A02 PUSH1 0xE0 SHL PUSH28 0xFFFFFFFFFFFFFFFFFFFFFFFFFFFFFFFFFFFFFFFFFFFFFFFFFFFFFFFF NOT AND DUP5 PUSH20 0xFFFFFFFFFFFFFFFFFFFFFFFFFFFFFFFFFFFFFFFF AND PUSH4 0x150B7A02 CALLER DUP9 DUP8 DUP8 DUP8 PUSH1 0x40 MLOAD DUP7 PUSH4 0xFFFFFFFF AND PUSH1 0xE0 SHL DUP2 MSTORE PUSH1 0x4 ADD PUSH2 0xD97 SWAP6 SWAP5 SWAP4 SWAP3 SWAP2 SWAP1 PUSH2 0x1C4A JUMP JUMPDEST PUSH1 0x20 PUSH1 0x40 MLOAD DUP1 DUP4 SUB DUP2 PUSH0 DUP8 GAS CALL ISZERO DUP1 ISZERO PUSH2 0xDB3 JUMPI RETURNDATASIZE PUSH0 PUSH0 RETURNDATACOPY RETURNDATASIZE PUSH0 REVERT JUMPDEST POP POP POP POP PUSH1 0x40 MLOAD RETURNDATASIZE PUSH1 0x1F NOT PUSH1 0x1F DUP3 ADD AND DUP3 ADD DUP1 PUSH1 0x40 MSTORE POP DUP2 ADD SWAP1 PUSH2 0xDD7 SWAP2 SWAP1 PUSH2 0x1A9D JUMP JUMPDEST PUSH28 0xFFFFFFFFFFFFFFFFFFFFFFFFFFFFFFFFFFFFFFFFFFFFFFFFFFFFFFFF NOT AND EQ JUMPDEST PUSH2 0xE37 JUMPI PUSH1 0x40 MLOAD PUSH32 0x8C379A000000000000000000000000000000000000000000000000000000000 DUP2 MSTORE PUSH1 0x4 ADD PUSH2 0xE2E SWAP1 PUSH2 0x1B12 JUMP JUMPDEST PUSH1 0x40 MLOAD DUP1 SWAP2 SUB SWAP1 REVERT JUMPDEST POP POP POP POP POP JUMP JUMPDEST PUSH1 0x3 PUSH1 0x20 MSTORE DUP2 PUSH0 MSTORE PUSH1 0x40 PUSH0 KECCAK256 PUSH1 0x20 MSTORE DUP1 PUSH0 MSTORE PUSH1 0x40 PUSH0 KECCAK256 PUSH0 SWAP2 POP SWAP2 POP SWAP1 SLOAD SWAP1 PUSH2 0x100 EXP SWAP1 DIV PUSH1 0xFF AND DUP2 JUMP JUMPDEST PUSH0 DUP4 PUSH20 0xFFFFFFFFFFFFFFFFFFFFFFFFFFFFFFFFFFFFFFFF AND DUP4 PUSH20 0xFFFFFFFFFFFFFFFFFFFFFFFFFFFFFFFFFFFFFFFF AND EQ DUP1 PUSH2 0xF24 JUMPI POP PUSH1 0x3 PUSH0 DUP6 PUSH20 0xFFFFFFFFFFFFFFFFFFFFFFFFFFFFFFFFFFFFFFFF AND PUSH20 0xFFFFFFFFFFFFFFFFFFFFFFFFFFFFFFFFFFFFFFFF AND DUP2 MSTORE PUSH1 0x20 ADD SWAP1 DUP2 MSTORE PUSH1 0x20 ADD PUSH0 KECCAK256 PUSH0 DUP5 PUSH20 0xFFFFFFFFFFFFFFFFFFFFFFFFFFFFFFFFFFFFFFFF AND PUSH20 0xFFFFFFFFFFFFFFFFFFFFFFFFFFFFFFFFFFFFFFFF AND DUP2 MSTORE PUSH1 0x20 ADD SWAP1 DUP2 MSTORE PUSH1 0x20 ADD PUSH0 KECCAK256 PUSH0 SWAP1 SLOAD SWAP1 PUSH2 0x100 EXP SWAP1 DIV PUSH1 0xFF AND JUMPDEST DUP1 PUSH2 0xF8A JUMPI POP PUSH1 0x2 PUSH0 DUP4 DUP2 MSTORE PUSH1 0x20 ADD SWAP1 DUP2 MSTORE PUSH1 0x20 ADD PUSH0 KECCAK256 PUSH0 SWAP1 SLOAD SWAP1 PUSH2 0x100 EXP SWAP1 DIV PUSH20 0xFFFFFFFFFFFFFFFFFFFFFFFFFFFFFFFFFFFFFFFF AND PUSH20 0xFFFFFFFFFFFFFFFFFFFFFFFFFFFFFFFFFFFFFFFF AND DUP4 PUSH20 0xFFFFFFFFFFFFFFFFFFFFFFFFFFFFFFFFFFFFFFFF AND EQ JUMPDEST SWAP1 POP SWAP4 SWAP3 POP POP POP JUMP JUMPDEST PUSH0 PUSH20 0xFFFFFFFFFFFFFFFFFFFFFFFFFFFFFFFFFFFFFFFF AND DUP3 PUSH20 0xFFFFFFFFFFFFFFFFFFFFFFFFFFFFFFFFFFFFFFFF AND SUB PUSH2 0x1001 JUMPI PUSH1 0x40 MLOAD PUSH32 0x8C379A000000000000000000000000000000000000000000000000000000000 DUP2 MSTORE PUSH1 0x4 ADD PUSH2 0xFF8 SWAP1 PUSH2 0x18ED JUMP JUMPDEST PUSH1 0x40 MLOAD DUP1 SWAP2 SUB SWAP1 REVERT JUMPDEST PUSH0 PUSH20 0xFFFFFFFFFFFFFFFFFFFFFFFFFFFFFFFFFFFFFFFF AND PUSH0 PUSH0 DUP4 DUP2 MSTORE PUSH1 0x20 ADD SWAP1 DUP2 MSTORE PUSH1 0x20 ADD PUSH0 KECCAK256 PUSH0 SWAP1 SLOAD SWAP1 PUSH2 0x100 EXP SWAP1 DIV PUSH20 0xFFFFFFFFFFFFFFFFFFFFFFFFFFFFFFFFFFFFFFFF AND PUSH20 0xFFFFFFFFFFFFFFFFFFFFFFFFFFFFFFFFFFFFFFFF AND EQ PUSH2 0x109E JUMPI PUSH1 0x40 MLOAD PUSH32 0x8C379A000000000000000000000000000000000000000000000000000000000 DUP2 MSTORE PUSH1 0x4 ADD PUSH2 0x1095 SWAP1 PUSH2 0x1CE0 JUMP JUMPDEST PUSH1 0x40 MLOAD DUP1 SWAP2 SUB SWAP1 REVERT JUMPDEST PUSH1 0x1 PUSH0 DUP4 PUSH20 0xFFFFFFFFFFFFFFFFFFFFFFFFFFFFFFFFFFFFFFFF AND PUSH20 0xFFFFFFFFFFFFFFFFFFFFFFFFFFFFFFFFFFFFFFFF AND DUP2 MSTORE PUSH1 0x20 ADD SWAP1 DUP2 MSTORE PUSH1 0x20 ADD PUSH0 KECCAK256 PUSH0 DUP2 SLOAD DUP1 SWAP3 SWAP2 SWAP1 PUSH2 0x10EB SWAP1 PUSH2 0x19C7 JUMP JUMPDEST SWAP2 SWAP1 POP SSTORE POP DUP2 PUSH0 PUSH0 DUP4 DUP2 MSTORE PUSH1 0x20 ADD SWAP1 DUP2 MSTORE PUSH1 0x20 ADD PUSH0 KECCAK256 PUSH0 PUSH2 0x100 EXP DUP2 SLOAD DUP2 PUSH20 0xFFFFFFFFFFFFFFFFFFFFFFFFFFFFFFFFFFFFFFFF MUL NOT AND SWAP1 DUP4 PUSH20 0xFFFFFFFFFFFFFFFFFFFFFFFFFFFFFFFFFFFFFFFF AND MUL OR SWAP1 SSTORE POP DUP1 DUP3 PUSH20 0xFFFFFFFFFFFFFFFFFFFFFFFFFFFFFFFFFFFFFFFF AND PUSH0 PUSH20 0xFFFFFFFFFFFFFFFFFFFFFFFFFFFFFFFFFFFFFFFF AND PUSH32 0xDDF252AD1BE2C89B69C2B068FC378DAA952BA7F163C4A11628F55A4DF523B3EF PUSH1 0x40 MLOAD PUSH1 0x40 MLOAD DUP1 SWAP2 SUB SWAP1 LOG4 POP POP JUMP JUMPDEST PUSH0 PUSH0 PUSH0 DUP4 DUP2 MSTORE PUSH1 0x20 ADD SWAP1 DUP2 MSTORE PUSH1 0x20 ADD PUSH0 KECCAK256 PUSH0 SWAP1 SLOAD SWAP1 PUSH2 0x100 EXP SWAP1 DIV PUSH20 0xFFFFFFFFFFFFFFFFFFFFFFFFFFFFFFFFFFFFFFFF AND SWAP1 POP PUSH0 PUSH20 0xFFFFFFFFFFFFFFFFFFFFFFFFFFFFFFFFFFFFFFFF AND DUP2 PUSH20 0xFFFFFFFFFFFFFFFFFFFFFFFFFFFFFFFFFFFFFFFF AND SUB PUSH2 0x123E JUMPI PUSH1 0x40 MLOAD PUSH32 0x8C379A000000000000000000000000000000000000000000000000000000000 DUP2 MSTORE PUSH1 0x4 ADD PUSH2 0x1235 SWAP1 PUSH2 0x1D48 JUMP JUMPDEST PUSH1 0x40 MLOAD DUP1 SWAP2 SUB SWAP1 REVERT JUMPDEST PUSH1 0x1 PUSH0 DUP3 PUSH20 0xFFFFFFFFFFFFFFFFFFFFFFFFFFFFFFFFFFFFFFFF AND PUSH20 0xFFFFFFFFFFFFFFFFFFFFFFFFFFFFFFFFFFFFFFFF AND DUP2 MSTORE PUSH1 0x20 ADD SWAP1 DUP2 MSTORE PUSH1 0x20 ADD PUSH0 KECCAK256 PUSH0 DUP2 SLOAD DUP1 SWAP3 SWAP2 SWAP1 PUSH2 0x128B SWAP1 PUSH2 0x19A0 JUMP JUMPDEST SWAP2 SWAP1 POP SSTORE POP PUSH0 PUSH0 DUP4 DUP2 MSTORE PUSH1 0x20 ADD SWAP1 DUP2 MSTORE PUSH1 0x20 ADD PUSH0 KECCAK256 PUSH0 PUSH2 0x100 EXP DUP2 SLOAD SWAP1 PUSH20 0xFFFFFFFFFFFFFFFFFFFFFFFFFFFFFFFFFFFFFFFF MUL NOT AND SWAP1 SSTORE PUSH1 0x2 PUSH0 DUP4 DUP2 MSTORE PUSH1 0x20 ADD SWAP1 DUP2 MSTORE PUSH1 0x20 ADD PUSH0 KECCAK256 PUSH0 PUSH2 0x100 EXP DUP2 SLOAD SWAP1 PUSH20 0xFFFFFFFFFFFFFFFFFFFFFFFFFFFFFFFFFFFFFFFF MUL NOT AND SWAP1 SSTORE DUP2 PUSH0 PUSH20 0xFFFFFFFFFFFFFFFFFFFFFFFFFFFFFFFFFFFFFFFF AND DUP3 PUSH20 0xFFFFFFFFFFFFFFFFFFFFFFFFFFFFFFFFFFFFFFFF AND PUSH32 0xDDF252AD1BE2C89B69C2B068FC378DAA952BA7F163C4A11628F55A4DF523B3EF PUSH1 0x40 MLOAD PUSH1 0x40 MLOAD DUP1 SWAP2 SUB SWAP1 LOG4 POP POP JUMP JUMPDEST PUSH0 PUSH0 REVERT JUMPDEST PUSH0 PUSH0 REVERT JUMPDEST PUSH0 PUSH32 0xFFFFFFFF00000000000000000000000000000000000000000000000000000000 DUP3 AND SWAP1 POP SWAP2 SWAP1 POP JUMP JUMPDEST PUSH2 0x1390 DUP2 PUSH2 0x135C JUMP JUMPDEST DUP2 EQ PUSH2 0x139A JUMPI PUSH0 PUSH0 REVERT JUMPDEST POP JUMP JUMPDEST PUSH0 DUP2 CALLDATALOAD SWAP1 POP PUSH2 0x13AB DUP2 PUSH2 0x1387 JUMP JUMPDEST SWAP3 SWAP2 POP POP JUMP JUMPDEST PUSH0 PUSH1 0x20 DUP3 DUP5 SUB SLT ISZERO PUSH2 0x13C6 JUMPI PUSH2 0x13C5 PUSH2 0x1354 JUMP JUMPDEST JUMPDEST PUSH0 PUSH2 0x13D3 DUP5 DUP3 DUP6 ADD PUSH2 0x139D JUMP JUMPDEST SWAP2 POP POP SWAP3 SWAP2 POP POP JUMP JUMPDEST PUSH0 DUP2 ISZERO ISZERO SWAP1 POP SWAP2 SWAP1 POP JUMP JUMPDEST PUSH2 0x13F0 DUP2 PUSH2 0x13DC JUMP JUMPDEST DUP3 MSTORE POP POP JUMP JUMPDEST PUSH0 PUSH1 0x20 DUP3 ADD SWAP1 POP PUSH2 0x1409 PUSH0 DUP4 ADD DUP5 PUSH2 0x13E7 JUMP JUMPDEST SWAP3 SWAP2 POP POP JUMP JUMPDEST PUSH0 DUP2 SWAP1 POP SWAP2 SWAP1 POP JUMP JUMPDEST PUSH2 0x1421 DUP2 PUSH2 0x140F JUMP JUMPDEST DUP2 EQ PUSH2 0x142B JUMPI PUSH0 PUSH0 REVERT JUMPDEST POP JUMP JUMPDEST PUSH0 DUP2 CALLDATALOAD SWAP1 POP PUSH2 0x143C DUP2 PUSH2 0x1418 JUMP JUMPDEST SWAP3 SWAP2 POP POP JUMP JUMPDEST PUSH0 PUSH1 0x20 DUP3 DUP5 SUB SLT ISZERO PUSH2 0x1457 JUMPI PUSH2 0x1456 PUSH2 0x1354 JUMP JUMPDEST JUMPDEST PUSH0 PUSH2 0x1464 DUP5 DUP3 DUP6 ADD PUSH2 0x142E JUMP JUMPDEST SWAP2 POP POP SWAP3 SWAP2 POP POP JUMP JUMPDEST PUSH0 PUSH20 0xFFFFFFFFFFFFFFFFFFFFFFFFFFFFFFFFFFFFFFFF DUP3 AND SWAP1 POP SWAP2 SWAP1 POP JUMP JUMPDEST PUSH0 PUSH2 0x1496 DUP3 PUSH2 0x146D JUMP JUMPDEST SWAP1 POP SWAP2 SWAP1 POP JUMP JUMPDEST PUSH2 0x14A6 DUP2 PUSH2 0x148C JUMP JUMPDEST DUP3 MSTORE POP POP JUMP JUMPDEST PUSH0 PUSH1 0x20 DUP3 ADD SWAP1 POP PUSH2 0x14BF PUSH0 DUP4 ADD DUP5 PUSH2 0x149D JUMP JUMPDEST SWAP3 SWAP2 POP POP JUMP JUMPDEST PUSH2 0x14CE DUP2 PUSH2 0x148C JUMP JUMPDEST DUP2 EQ PUSH2 0x14D8 JUMPI PUSH0 PUSH0 REVERT JUMPDEST POP JUMP JUMPDEST PUSH0 DUP2 CALLDATALOAD SWAP1 POP PUSH2 0x14E9 DUP2 PUSH2 0x14C5 JUMP JUMPDEST SWAP3 SWAP2 POP POP JUMP JUMPDEST PUSH0 PUSH0 PUSH1 0x40 DUP4 DUP6 SUB SLT ISZERO PUSH2 0x1505 JUMPI PUSH2 0x1504 PUSH2 0x1354 JUMP JUMPDEST JUMPDEST PUSH0 PUSH2 0x1512 DUP6 DUP3 DUP7 ADD PUSH2 0x14DB JUMP JUMPDEST SWAP3 POP POP PUSH1 0x20 PUSH2 0x1523 DUP6 DUP3 DUP7 ADD PUSH2 0x142E JUMP JUMPDEST SWAP2 POP POP SWAP3 POP SWAP3 SWAP1 POP JUMP JUMPDEST PUSH0 PUSH0 PUSH0 PUSH1 0x60 DUP5 DUP7 SUB SLT ISZERO PUSH2 0x1544 JUMPI PUSH2 0x1543 PUSH2 0x1354 JUMP JUMPDEST JUMPDEST PUSH0 PUSH2 0x1551 DUP7 DUP3 DUP8 ADD PUSH2 0x14DB JUMP JUMPDEST SWAP4 POP POP PUSH1 0x20 PUSH2 0x1562 DUP7 DUP3 DUP8 ADD PUSH2 0x14DB JUMP JUMPDEST SWAP3 POP POP PUSH1 0x40 PUSH2 0x1573 DUP7 DUP3 DUP8 ADD PUSH2 0x142E JUMP JUMPDEST SWAP2 POP POP SWAP3 POP SWAP3 POP SWAP3 JUMP JUMPDEST PUSH0 PUSH1 0x20 DUP3 DUP5 SUB SLT ISZERO PUSH2 0x1592 JUMPI PUSH2 0x1591 PUSH2 0x1354 JUMP JUMPDEST JUMPDEST PUSH0 PUSH2 0x159F DUP5 DUP3 DUP6 ADD PUSH2 0x14DB JUMP JUMPDEST SWAP2 POP POP SWAP3 SWAP2 POP POP JUMP JUMPDEST PUSH2 0x15B1 DUP2 PUSH2 0x140F JUMP JUMPDEST DUP3 MSTORE POP POP JUMP JUMPDEST PUSH0 PUSH1 0x20 DUP3 ADD SWAP1 POP PUSH2 0x15CA PUSH0 DUP4 ADD DUP5 PUSH2 0x15A8 JUMP JUMPDEST SWAP3 SWAP2 POP POP JUMP JUMPDEST PUSH2 0x15D9 DUP2 PUSH2 0x13DC JUMP JUMPDEST DUP2 EQ PUSH2 0x15E3 JUMPI PUSH0 PUSH0 REVERT JUMPDEST POP JUMP JUMPDEST PUSH0 DUP2 CALLDATALOAD SWAP1 POP PUSH2 0x15F4 DUP2 PUSH2 0x15D0 JUMP JUMPDEST SWAP3 SWAP2 POP POP JUMP JUMPDEST PUSH0 PUSH0 PUSH1 0x40 DUP4 DUP6 SUB SLT ISZERO PUSH2 0x1610 JUMPI PUSH2 0x160F PUSH2 0x1354 JUMP JUMPDEST JUMPDEST PUSH0 PUSH2 0x161D DUP6 DUP3 DUP7 ADD PUSH2 0x14DB JUMP JUMPDEST SWAP3 POP POP PUSH1 0x20 PUSH2 0x162E DUP6 DUP3 DUP7 ADD PUSH2 0x15E6 JUMP JUMPDEST SWAP2 POP POP SWAP3 POP SWAP3 SWAP1 POP JUMP JUMPDEST PUSH0 PUSH0 REVERT JUMPDEST PUSH0 PUSH0 REVERT JUMPDEST PUSH0 PUSH0 REVERT JUMPDEST PUSH0 PUSH0 DUP4 PUSH1 0x1F DUP5 ADD SLT PUSH2 0x1659 JUMPI PUSH2 0x1658 PUSH2 0x1638 JUMP JUMPDEST JUMPDEST DUP3 CALLDATALOAD SWAP1 POP PUSH8 0xFFFFFFFFFFFFFFFF DUP2 GT ISZERO PUSH2 0x1676 JUMPI PUSH2 0x1675 PUSH2 0x163C JUMP JUMPDEST JUMPDEST PUSH1 0x20 DUP4 ADD SWAP2 POP DUP4 PUSH1 0x1 DUP3 MUL DUP4 ADD GT ISZERO PUSH2 0x1692 JUMPI PUSH2 0x1691 PUSH2 0x1640 JUMP JUMPDEST JUMPDEST SWAP3 POP SWAP3 SWAP1 POP JUMP JUMPDEST PUSH0 PUSH0 PUSH0 PUSH0 PUSH0 PUSH1 0x80 DUP7 DUP9 SUB SLT ISZERO PUSH2 0x16B2 JUMPI PUSH2 0x16B1 PUSH2 0x1354 JUMP JUMPDEST JUMPDEST PUSH0 PUSH2 0x16BF DUP9 DUP3 DUP10 ADD PUSH2 0x14DB JUMP JUMPDEST SWAP6 POP POP PUSH1 0x20 PUSH2 0x16D0 DUP9 DUP3 DUP10 ADD PUSH2 0x14DB JUMP JUMPDEST SWAP5 POP POP PUSH1 0x40 PUSH2 0x16E1 DUP9 DUP3 DUP10 ADD PUSH2 0x142E JUMP JUMPDEST SWAP4 POP POP PUSH1 0x60 DUP7 ADD CALLDATALOAD PUSH8 0xFFFFFFFFFFFFFFFF DUP2 GT ISZERO PUSH2 0x1702 JUMPI PUSH2 0x1701 PUSH2 0x1358 JUMP JUMPDEST JUMPDEST PUSH2 0x170E DUP9 DUP3 DUP10 ADD PUSH2 0x1644 JUMP JUMPDEST SWAP3 POP SWAP3 POP POP SWAP3 SWAP6 POP SWAP3 SWAP6 SWAP1 SWAP4 POP JUMP JUMPDEST PUSH0 PUSH0 PUSH1 0x40 DUP4 DUP6 SUB SLT ISZERO PUSH2 0x1733 JUMPI PUSH2 0x1732 PUSH2 0x1354 JUMP JUMPDEST JUMPDEST PUSH0 PUSH2 0x1740 DUP6 DUP3 DUP7 ADD PUSH2 0x14DB JUMP JUMPDEST SWAP3 POP POP PUSH1 0x20 PUSH2 0x1751 DUP6 DUP3 DUP7 ADD PUSH2 0x14DB JUMP JUMPDEST SWAP2 POP POP SWAP3 POP SWAP3 SWAP1 POP JUMP JUMPDEST PUSH0 DUP3 DUP3 MSTORE PUSH1 0x20 DUP3 ADD SWAP1 POP SWAP3 SWAP2 POP POP JUMP JUMPDEST PUSH32 0x746F6B656E4964206E6F74206578697374000000000000000000000000000000 PUSH0 DUP3 ADD MSTORE POP JUMP JUMPDEST PUSH0 PUSH2 0x179F PUSH1 0x11 DUP4 PUSH2 0x175B JUMP JUMPDEST SWAP2 POP PUSH2 0x17AA DUP3 PUSH2 0x176B JUMP JUMPDEST PUSH1 0x20 DUP3 ADD SWAP1 POP SWAP2 SWAP1 POP JUMP JUMPDEST PUSH0 PUSH1 0x20 DUP3 ADD SWAP1 POP DUP2 DUP2 SUB PUSH0 DUP4 ADD MSTORE PUSH2 0x17CC DUP2 PUSH2 0x1793 JUMP JUMPDEST SWAP1 POP SWAP2 SWAP1 POP JUMP JUMPDEST PUSH32 0x6E6F7420617574686F72697A6564000000000000000000000000000000000000 PUSH0 DUP3 ADD MSTORE POP JUMP JUMPDEST PUSH0 PUSH2 0x1807 PUSH1 0xE DUP4 PUSH2 0x175B JUMP JUMPDEST SWAP2 POP PUSH2 0x1812 DUP3 PUSH2 0x17D3 JUMP JUMPDEST PUSH1 0x20 DUP3 ADD SWAP1 POP SWAP2 SWAP1 POP JUMP JUMPDEST PUSH0 PUSH1 0x20 DUP3 ADD SWAP1 POP DUP2 DUP2 SUB PUSH0 DUP4 ADD MSTORE PUSH2 0x1834 DUP2 PUSH2 0x17FB JUMP JUMPDEST SWAP1 POP SWAP2 SWAP1 POP JUMP JUMPDEST PUSH32 0x2066726F6D20213D206F776E6572000000000000000000000000000000000000 PUSH0 DUP3 ADD MSTORE POP JUMP JUMPDEST PUSH0 PUSH2 0x186F PUSH1 0xE DUP4 PUSH2 0x175B JUMP JUMPDEST SWAP2 POP PUSH2 0x187A DUP3 PUSH2 0x183B JUMP JUMPDEST PUSH1 0x20 DUP3 ADD SWAP1 POP SWAP2 SWAP1 POP JUMP JUMPDEST PUSH0 PUSH1 0x20 DUP3 ADD SWAP1 POP DUP2 DUP2 SUB PUSH0 DUP4 ADD MSTORE PUSH2 0x189C DUP2 PUSH2 0x1863 JUMP JUMPDEST SWAP1 POP SWAP2 SWAP1 POP JUMP JUMPDEST PUSH32 0x746F203D207A65726F2061646472657373000000000000000000000000000000 PUSH0 DUP3 ADD MSTORE POP JUMP JUMPDEST PUSH0 PUSH2 0x18D7 PUSH1 0x11 DUP4 PUSH2 0x175B JUMP JUMPDEST SWAP2 POP PUSH2 0x18E2 DUP3 PUSH2 0x18A3 JUMP JUMPDEST PUSH1 0x20 DUP3 ADD SWAP1 POP SWAP2 SWAP1 POP JUMP JUMPDEST PUSH0 PUSH1 0x20 DUP3 ADD SWAP1 POP DUP2 DUP2 SUB PUSH0 DUP4 ADD MSTORE PUSH2 0x1904 DUP2 PUSH2 0x18CB JUMP JUMPDEST SWAP1 POP SWAP2 SWAP1 POP JUMP JUMPDEST PUSH32 0x6E6F74206175746872697A656400000000000000000000000000000000000000 PUSH0 DUP3 ADD MSTORE POP JUMP JUMPDEST PUSH0 PUSH2 0x193F PUSH1 0xD DUP4 PUSH2 0x175B JUMP JUMPDEST SWAP2 POP PUSH2 0x194A DUP3 PUSH2 0x190B JUMP JUMPDEST PUSH1 0x20 DUP3 ADD SWAP1 POP SWAP2 SWAP1 POP JUMP JUMPDEST PUSH0 PUSH1 0x20 DUP3 ADD SWAP1 POP DUP2 DUP2 SUB PUSH0 DUP4 ADD MSTORE PUSH2 0x196C DUP2 PUSH2 0x1933 JUMP JUMPDEST SWAP1 POP SWAP2 SWAP1 POP JUMP JUMPDEST PUSH32 0x4E487B7100000000000000000000000000000000000000000000000000000000 PUSH0 MSTORE PUSH1 0x11 PUSH1 0x4 MSTORE PUSH1 0x24 PUSH0 REVERT JUMPDEST PUSH0 PUSH2 0x19AA DUP3 PUSH2 0x140F JUMP JUMPDEST SWAP2 POP PUSH0 DUP3 SUB PUSH2 0x19BC JUMPI PUSH2 0x19BB PUSH2 0x1973 JUMP JUMPDEST JUMPDEST PUSH1 0x1 DUP3 SUB SWAP1 POP SWAP2 SWAP1 POP JUMP JUMPDEST PUSH0 PUSH2 0x19D1 DUP3 PUSH2 0x140F JUMP JUMPDEST SWAP2 POP PUSH32 0xFFFFFFFFFFFFFFFFFFFFFFFFFFFFFFFFFFFFFFFFFFFFFFFFFFFFFFFFFFFFFFFF DUP3 SUB PUSH2 0x1A03 JUMPI PUSH2 0x1A02 PUSH2 0x1973 JUMP JUMPDEST JUMPDEST PUSH1 0x1 DUP3 ADD SWAP1 POP SWAP2 SWAP1 POP JUMP JUMPDEST PUSH0 DUP3 DUP3 MSTORE PUSH1 0x20 DUP3 ADD SWAP1 POP SWAP3 SWAP2 POP POP JUMP JUMPDEST POP JUMP JUMPDEST PUSH0 PUSH2 0x1A2C PUSH0 DUP4 PUSH2 0x1A0E JUMP JUMPDEST SWAP2 POP PUSH2 0x1A37 DUP3 PUSH2 0x1A1E JUMP JUMPDEST PUSH0 DUP3 ADD SWAP1 POP SWAP2 SWAP1 POP JUMP JUMPDEST PUSH0 PUSH1 0x80 DUP3 ADD SWAP1 POP PUSH2 0x1A54 PUSH0 DUP4 ADD DUP7 PUSH2 0x149D JUMP JUMPDEST PUSH2 0x1A61 PUSH1 0x20 DUP4 ADD DUP6 PUSH2 0x149D JUMP JUMPDEST PUSH2 0x1A6E PUSH1 0x40 DUP4 ADD DUP5 PUSH2 0x15A8 JUMP JUMPDEST DUP2 DUP2 SUB PUSH1 0x60 DUP4 ADD MSTORE PUSH2 0x1A7F DUP2 PUSH2 0x1A21 JUMP JUMPDEST SWAP1 POP SWAP5 SWAP4 POP POP POP POP JUMP JUMPDEST PUSH0 DUP2 MLOAD SWAP1 POP PUSH2 0x1A97 DUP2 PUSH2 0x1387 JUMP JUMPDEST SWAP3 SWAP2 POP POP JUMP JUMPDEST PUSH0 PUSH1 0x20 DUP3 DUP5 SUB SLT ISZERO PUSH2 0x1AB2 JUMPI PUSH2 0x1AB1 PUSH2 0x1354 JUMP JUMPDEST JUMPDEST PUSH0 PUSH2 0x1ABF DUP5 DUP3 DUP6 ADD PUSH2 0x1A89 JUMP JUMPDEST SWAP2 POP POP SWAP3 SWAP2 POP POP JUMP JUMPDEST PUSH32 0x756E7361666520726563697069656E7400000000000000000000000000000000 PUSH0 DUP3 ADD MSTORE POP JUMP JUMPDEST PUSH0 PUSH2 0x1AFC PUSH1 0x10 DUP4 PUSH2 0x175B JUMP JUMPDEST SWAP2 POP PUSH2 0x1B07 DUP3 PUSH2 0x1AC8 JUMP JUMPDEST PUSH1 0x20 DUP3 ADD SWAP1 POP SWAP2 SWAP1 POP JUMP JUMPDEST PUSH0 PUSH1 0x20 DUP3 ADD SWAP1 POP DUP2 DUP2 SUB PUSH0 DUP4 ADD MSTORE PUSH2 0x1B29 DUP2 PUSH2 0x1AF0 JUMP JUMPDEST SWAP1 POP SWAP2 SWAP1 POP JUMP JUMPDEST PUSH32 0x6E6F74206F776E65720000000000000000000000000000000000000000000000 PUSH0 DUP3 ADD MSTORE POP JUMP JUMPDEST PUSH0 PUSH2 0x1B64 PUSH1 0x9 DUP4 PUSH2 0x175B JUMP JUMPDEST SWAP2 POP PUSH2 0x1B6F DUP3 PUSH2 0x1B30 JUMP JUMPDEST PUSH1 0x20 DUP3 ADD SWAP1 POP SWAP2 SWAP1 POP JUMP JUMPDEST PUSH0 PUSH1 0x20 DUP3 ADD SWAP1 POP DUP2 DUP2 SUB PUSH0 DUP4 ADD MSTORE PUSH2 0x1B91 DUP2 PUSH2 0x1B58 JUMP JUMPDEST SWAP1 POP SWAP2 SWAP1 POP JUMP JUMPDEST PUSH32 0x6F776E6572203D20616464726573732030000000000000000000000000000000 PUSH0 DUP3 ADD MSTORE POP JUMP JUMPDEST PUSH0 PUSH2 0x1BCC PUSH1 0x11 DUP4 PUSH2 0x175B JUMP JUMPDEST SWAP2 POP PUSH2 0x1BD7 DUP3 PUSH2 0x1B98 JUMP JUMPDEST PUSH1 0x20 DUP3 ADD SWAP1 POP SWAP2 SWAP1 POP JUMP JUMPDEST PUSH0 PUSH1 0x20 DUP3 ADD SWAP1 POP DUP2 DUP2 SUB PUSH0 DUP4 ADD MSTORE PUSH2 0x1BF9 DUP2 PUSH2 0x1BC0 JUMP JUMPDEST SWAP1 POP SWAP2 SWAP1 POP JUMP JUMPDEST DUP3 DUP2 DUP4 CALLDATACOPY PUSH0 DUP4 DUP4 ADD MSTORE POP POP POP JUMP JUMPDEST PUSH0 PUSH1 0x1F NOT PUSH1 0x1F DUP4 ADD AND SWAP1 POP SWAP2 SWAP1 POP JUMP JUMPDEST PUSH0 PUSH2 0x1C29 DUP4 DUP6 PUSH2 0x1A0E JUMP JUMPDEST SWAP4 POP PUSH2 0x1C36 DUP4 DUP6 DUP5 PUSH2 0x1C00 JUMP JUMPDEST PUSH2 0x1C3F DUP4 PUSH2 0x1C0E JUMP JUMPDEST DUP5 ADD SWAP1 POP SWAP4 SWAP3 POP POP POP JUMP JUMPDEST PUSH0 PUSH1 0x80 DUP3 ADD SWAP1 POP PUSH2 0x1C5D PUSH0 DUP4 ADD DUP9 PUSH2 0x149D JUMP JUMPDEST PUSH2 0x1C6A PUSH1 0x20 DUP4 ADD DUP8 PUSH2 0x149D JUMP JUMPDEST PUSH2 0x1C77 PUSH1 0x40 DUP4 ADD DUP7 PUSH2 0x15A8 JUMP JUMPDEST DUP2 DUP2 SUB PUSH1 0x60 DUP4 ADD MSTORE PUSH2 0x1C8A DUP2 DUP5 DUP7 PUSH2 0x1C1E JUMP JUMPDEST SWAP1 POP SWAP7 SWAP6 POP POP POP POP POP POP JUMP JUMPDEST PUSH32 0x746F6B656E206578697374730000000000000000000000000000000000000000 PUSH0 DUP3 ADD MSTORE POP JUMP JUMPDEST PUSH0 PUSH2 0x1CCA PUSH1 0xC DUP4 PUSH2 0x175B JUMP JUMPDEST SWAP2 POP PUSH2 0x1CD5 DUP3 PUSH2 0x1C96 JUMP JUMPDEST PUSH1 0x20 DUP3 ADD SWAP1 POP SWAP2 SWAP1 POP JUMP JUMPDEST PUSH0 PUSH1 0x20 DUP3 ADD SWAP1 POP DUP2 DUP2 SUB PUSH0 DUP4 ADD MSTORE PUSH2 0x1CF7 DUP2 PUSH2 0x1CBE JUMP JUMPDEST SWAP1 POP SWAP2 SWAP1 POP JUMP JUMPDEST PUSH32 0x746F6B656E20646F6573206E6F74206578697374000000000000000000000000 PUSH0 DUP3 ADD MSTORE POP JUMP JUMPDEST PUSH0 PUSH2 0x1D32 PUSH1 0x14 DUP4 PUSH2 0x175B JUMP JUMPDEST SWAP2 POP PUSH2 0x1D3D DUP3 PUSH2 0x1CFE JUMP JUMPDEST PUSH1 0x20 DUP3 ADD SWAP1 POP SWAP2 SWAP1 POP JUMP JUMPDEST PUSH0 PUSH1 0x20 DUP3 ADD SWAP1 POP DUP2 DUP2 SUB PUSH0 DUP4 ADD MSTORE PUSH2 0x1D5F DUP2 PUSH2 0x1D26 JUMP JUMPDEST SWAP1 POP SWAP2 SWAP1 POP JUMP INVALID LOG2 PUSH5 0x6970667358 0x22 SLT KECCAK256 RETURNCONTRACT 0x65 0xC8 0xEB PUSH25 0x2E89C5B9DE4C39D1C4EFBA3B6FE6288B71D3F4675C13022A97 PUSH5 0x4F64736F6C PUSH4 0x4300081E STOP CALLER "
				},
				"gasEstimates": {
					"creation": {
						"codeDepositCost": "1516000",
						"executionCost": "1580",
						"totalCost": "1517580"
					},
					"external": {
						"approve(address,uint256)": "31517",
						"balanceOf(address)": "2907",
						"burn(uint256)": "infinite",
						"getApproved(uint256)": "5119",
						"isApprovedForAll(address,address)": "infinite",
						"mint(address,uint256)": "infinite",
						"ownerOf(uint256)": "2959",
						"safeTransferFrom(address,address,uint256)": "infinite",
						"safeTransferFrom(address,address,uint256,bytes)": "infinite",
						"setApprovalForAll(address,bool)": "infinite",
						"supportsInterface(bytes4)": "676",
						"transferFrom(address,address,uint256)": "infinite"
					}
				},
				"methodIdentifiers": {
					"approve(address,uint256)": "095ea7b3",
					"balanceOf(address)": "70a08231",
					"burn(uint256)": "42966c68",
					"getApproved(uint256)": "081812fc",
					"isApprovedForAll(address,address)": "e985e9c5",
					"mint(address,uint256)": "40c10f19",
					"ownerOf(uint256)": "6352211e",
					"safeTransferFrom(address,address,uint256)": "42842e0e",
					"safeTransferFrom(address,address,uint256,bytes)": "b88d4fde",
					"setApprovalForAll(address,bool)": "a22cb465",
					"supportsInterface(bytes4)": "01ffc9a7",
					"transferFrom(address,address,uint256)": "23b872dd"
				}
			},
			"storageLayout": {
				"storage": [
					{
						"astId": 129,
						"contract": "C2E_learning/050_ERC721_1.sol:MyNFT",
						"label": "_ownerOf",
						"offset": 0,
						"slot": "0",
						"type": "t_mapping(t_uint256,t_address)"
					},
					{
						"astId": 133,
						"contract": "C2E_learning/050_ERC721_1.sol:MyNFT",
						"label": "_balanceOf",
						"offset": 0,
						"slot": "1",
						"type": "t_mapping(t_address,t_uint256)"
					},
					{
						"astId": 137,
						"contract": "C2E_learning/050_ERC721_1.sol:MyNFT",
						"label": "_approvals",
						"offset": 0,
						"slot": "2",
						"type": "t_mapping(t_uint256,t_address)"
					},
					{
						"astId": 143,
						"contract": "C2E_learning/050_ERC721_1.sol:MyNFT",
						"label": "isApprovedForAll",
						"offset": 0,
						"slot": "3",
						"type": "t_mapping(t_address,t_mapping(t_address,t_bool))"
					}
				],
				"types": {
					"t_address": {
						"encoding": "inplace",
						"label": "address",
						"numberOfBytes": "20"
					},
					"t_bool": {
						"encoding": "inplace",
						"label": "bool",
						"numberOfBytes": "1"
					},
					"t_mapping(t_address,t_bool)": {
						"encoding": "mapping",
						"key": "t_address",
						"label": "mapping(address => bool)",
						"numberOfBytes": "32",
						"value": "t_bool"
					},
					"t_mapping(t_address,t_mapping(t_address,t_bool))": {
						"encoding": "mapping",
						"key": "t_address",
						"label": "mapping(address => mapping(address => bool))",
						"numberOfBytes": "32",
						"value": "t_mapping(t_address,t_bool)"
					},
					"t_mapping(t_address,t_uint256)": {
						"encoding": "mapping",
						"key": "t_address",
						"label": "mapping(address => uint256)",
						"numberOfBytes": "32",
						"value": "t_uint256"
					},
					"t_mapping(t_uint256,t_address)": {
						"encoding": "mapping",
						"key": "t_uint256",
						"label": "mapping(uint256 => address)",
						"numberOfBytes": "32",
						"value": "t_address"
					},
					"t_uint256": {
						"encoding": "inplace",
						"label": "uint256",
						"numberOfBytes": "32"
					}
				}
			},
			"userdoc": {
				"kind": "user",
				"methods": {},
				"version": 1
			}
		}
	}
}