{
	"C2E_learning/058_multi_call.sol": {
		"MultiCall": {
			"abi": [
				{
					"inputs": [
						{
							"internalType": "address[]",
							"name": "targets",
							"type": "address[]"
						},
						{
							"internalType": "bytes[]",
							"name": "data",
							"type": "bytes[]"
						}
					],
					"name": "multiCall",
					"outputs": [
						{
							"internalType": "bytes[]",
							"name": "",
							"type": "bytes[]"
						}
					],
					"stateMutability": "view",
					"type": "function"
				}
			],
			"devdoc": {
				"kind": "dev",
				"methods": {},
				"version": 1
			},
			"evm": {
				"assembly": "    /* \"C2E_learning/058_multi_call.sol\":650:1169  contract MultiCall{... */\n  mstore(0x40, 0x80)\n  callvalue\n  dup1\n  iszero\n  tag_1\n  jumpi\n  revert(0x00, 0x00)\ntag_1:\n  pop\n  dataSize(sub_0)\n  dup1\n  dataOffset(sub_0)\n  0x00\n  codecopy\n  0x00\n  return\nstop\n\nsub_0: assembly {\n        /* \"C2E_learning/058_multi_call.sol\":650:1169  contract MultiCall{... */\n      mstore(0x40, 0x80)\n      callvalue\n      dup1\n      iszero\n      tag_1\n      jumpi\n      revert(0x00, 0x00)\n    tag_1:\n      pop\n      jumpi(tag_2, lt(calldatasize, 0x04))\n      shr(0xe0, calldataload(0x00))\n      dup1\n      0xda5b4ffd\n      eq\n      tag_3\n      jumpi\n    tag_2:\n      revert(0x00, 0x00)\n        /* \"C2E_learning/058_multi_call.sol\":674:1167  function multiCall(address[] calldata targets, bytes[] calldata data) external view returns (bytes[] memory){... */\n    tag_3:\n      tag_4\n      0x04\n      dup1\n      calldatasize\n      sub\n      dup2\n      add\n      swap1\n      tag_5\n      swap2\n      swap1\n      tag_6\n      jump\t// in\n    tag_5:\n      tag_7\n      jump\t// in\n    tag_4:\n      mload(0x40)\n      tag_8\n      swap2\n      swap1\n      tag_9\n      jump\t// in\n    tag_8:\n      mload(0x40)\n      dup1\n      swap2\n      sub\n      swap1\n      return\n    tag_7:\n        /* \"C2E_learning/058_multi_call.sol\":767:781  bytes[] memory */\n      0x60\n        /* \"C2E_learning/058_multi_call.sol\":818:822  data */\n      dup3\n      dup3\n        /* \"C2E_learning/058_multi_call.sol\":818:829  data.length */\n      swap1\n      pop\n        /* \"C2E_learning/058_multi_call.sol\":800:807  targets */\n      dup6\n      dup6\n        /* \"C2E_learning/058_multi_call.sol\":800:814  targets.length */\n      swap1\n      pop\n        /* \"C2E_learning/058_multi_call.sol\":800:829  targets.length == data.length */\n      eq\n        /* \"C2E_learning/058_multi_call.sol\":792:861  require(targets.length == data.length, \"target lenth != data length\") */\n      tag_11\n      jumpi\n      mload(0x40)\n      0x08c379a000000000000000000000000000000000000000000000000000000000\n      dup2\n      mstore\n      0x04\n      add\n      tag_12\n      swap1\n      tag_13\n      jump\t// in\n    tag_12:\n      mload(0x40)\n      dup1\n      swap2\n      sub\n      swap1\n      revert\n    tag_11:\n        /* \"C2E_learning/058_multi_call.sol\":871:893  bytes[] memory results */\n      0x00\n        /* \"C2E_learning/058_multi_call.sol\":908:912  data */\n      dup4\n      dup4\n        /* \"C2E_learning/058_multi_call.sol\":908:919  data.length */\n      swap1\n      pop\n        /* \"C2E_learning/058_multi_call.sol\":896:920  new bytes[](data.length) */\n      0xffffffffffffffff\n      dup2\n      gt\n      iszero\n      tag_14\n      jumpi\n      tag_15\n      tag_16\n      jump\t// in\n    tag_15:\n    tag_14:\n      mload(0x40)\n      swap1\n      dup1\n      dup3\n      mstore\n      dup1\n      0x20\n      mul\n      0x20\n      add\n      dup3\n      add\n      0x40\n      mstore\n      dup1\n      iszero\n      tag_17\n      jumpi\n      dup2\n      0x20\n      add\n    tag_18:\n      0x60\n      dup2\n      mstore\n      0x20\n      add\n      swap1\n      0x01\n      swap1\n      sub\n      swap1\n      dup2\n      tag_18\n      jumpi\n      swap1\n      pop\n    tag_17:\n      pop\n        /* \"C2E_learning/058_multi_call.sol\":871:920  bytes[] memory results = new bytes[](data.length) */\n      swap1\n      pop\n        /* \"C2E_learning/058_multi_call.sol\":935:941  uint i */\n      0x00\n        /* \"C2E_learning/058_multi_call.sol\":931:1136  for(uint i; i < targets.length; i++){... */\n    tag_19:\n        /* \"C2E_learning/058_multi_call.sol\":947:954  targets */\n      dup7\n      dup7\n        /* \"C2E_learning/058_multi_call.sol\":947:961  targets.length */\n      swap1\n      pop\n        /* \"C2E_learning/058_multi_call.sol\":943:944  i */\n      dup2\n        /* \"C2E_learning/058_multi_call.sol\":943:961  i < targets.length */\n      lt\n        /* \"C2E_learning/058_multi_call.sol\":931:1136  for(uint i; i < targets.length; i++){... */\n      iszero\n      tag_20\n      jumpi\n        /* \"C2E_learning/058_multi_call.sol\":982:994  bool success */\n      0x00\n        /* \"C2E_learning/058_multi_call.sol\":996:1015  bytes memory result */\n      0x00\n        /* \"C2E_learning/058_multi_call.sol\":1019:1026  targets */\n      dup9\n      dup9\n        /* \"C2E_learning/058_multi_call.sol\":1027:1028  i */\n      dup5\n        /* \"C2E_learning/058_multi_call.sol\":1019:1029  targets[i] */\n      dup2\n      dup2\n      lt\n      tag_22\n      jumpi\n      tag_23\n      tag_24\n      jump\t// in\n    tag_23:\n    tag_22:\n      swap1\n      pop\n      0x20\n      mul\n      add\n      0x20\n      dup2\n      add\n      swap1\n      tag_25\n      swap2\n      swap1\n      tag_26\n      jump\t// in\n    tag_25:\n        /* \"C2E_learning/058_multi_call.sol\":1019:1040  targets[i].staticcall */\n      0xffffffffffffffffffffffffffffffffffffffff\n      and\n        /* \"C2E_learning/058_multi_call.sol\":1041:1045  data */\n      dup8\n      dup8\n        /* \"C2E_learning/058_multi_call.sol\":1046:1047  i */\n      dup6\n        /* \"C2E_learning/058_multi_call.sol\":1041:1048  data[i] */\n      dup2\n      dup2\n      lt\n      tag_27\n      jumpi\n      tag_28\n      tag_24\n      jump\t// in\n    tag_28:\n    tag_27:\n      swap1\n      pop\n      0x20\n      mul\n      dup2\n      add\n      swap1\n      tag_29\n      swap2\n      swap1\n      tag_30\n      jump\t// in\n    tag_29:\n        /* \"C2E_learning/058_multi_call.sol\":1019:1049  targets[i].staticcall(data[i]) */\n      mload(0x40)\n      tag_31\n      swap3\n      swap2\n      swap1\n      tag_32\n      jump\t// in\n    tag_31:\n      0x00\n      mload(0x40)\n      dup1\n      dup4\n      sub\n      dup2\n      dup6\n      gas\n      staticcall\n      swap2\n      pop\n      pop\n      returndatasize\n      dup1\n      0x00\n      dup2\n      eq\n      tag_35\n      jumpi\n      mload(0x40)\n      swap2\n      pop\n      and(add(returndatasize, 0x3f), not(0x1f))\n      dup3\n      add\n      0x40\n      mstore\n      returndatasize\n      dup3\n      mstore\n      returndatasize\n      0x00\n      0x20\n      dup5\n      add\n      returndatacopy\n      jump(tag_34)\n    tag_35:\n      0x60\n      swap2\n      pop\n    tag_34:\n      pop\n        /* \"C2E_learning/058_multi_call.sol\":981:1049  (bool success, bytes memory result) = targets[i].staticcall(data[i]) */\n      swap2\n      pop\n      swap2\n      pop\n        /* \"C2E_learning/058_multi_call.sol\":1071:1078  success */\n      dup2\n        /* \"C2E_learning/058_multi_call.sol\":1063:1092  require(success, \"tx failed\") */\n      tag_36\n      jumpi\n      mload(0x40)\n      0x08c379a000000000000000000000000000000000000000000000000000000000\n      dup2\n      mstore\n      0x04\n      add\n      tag_37\n      swap1\n      tag_38\n      jump\t// in\n    tag_37:\n      mload(0x40)\n      dup1\n      swap2\n      sub\n      swap1\n      revert\n    tag_36:\n        /* \"C2E_learning/058_multi_call.sol\":1119:1125  result */\n      dup1\n        /* \"C2E_learning/058_multi_call.sol\":1106:1113  results */\n      dup5\n        /* \"C2E_learning/058_multi_call.sol\":1114:1115  i */\n      dup5\n        /* \"C2E_learning/058_multi_call.sol\":1106:1116  results[i] */\n      dup2\n      mload\n      dup2\n      lt\n      tag_39\n      jumpi\n      tag_40\n      tag_24\n      jump\t// in\n    tag_40:\n    tag_39:\n      0x20\n      mul\n      0x20\n      add\n      add\n        /* \"C2E_learning/058_multi_call.sol\":1106:1125  results[i] = result */\n      dup2\n      swap1\n      mstore\n      pop\n        /* \"C2E_learning/058_multi_call.sol\":967:1136  {... */\n      pop\n      pop\n        /* \"C2E_learning/058_multi_call.sol\":963:966  i++ */\n      dup1\n      dup1\n      0x01\n      add\n      swap2\n      pop\n      pop\n        /* \"C2E_learning/058_multi_call.sol\":931:1136  for(uint i; i < targets.length; i++){... */\n      jump(tag_19)\n    tag_20:\n      pop\n        /* \"C2E_learning/058_multi_call.sol\":1153:1160  results */\n      dup1\n        /* \"C2E_learning/058_multi_call.sol\":1146:1160  return results */\n      swap2\n      pop\n      pop\n        /* \"C2E_learning/058_multi_call.sol\":674:1167  function multiCall(address[] calldata targets, bytes[] calldata data) external view returns (bytes[] memory){... */\n      swap5\n      swap4\n      pop\n      pop\n      pop\n      pop\n      jump\t// out\n        /* \"#utility.yul\":88:205   */\n    tag_42:\n        /* \"#utility.yul\":197:198   */\n      0x00\n        /* \"#utility.yul\":194:195   */\n      0x00\n        /* \"#utility.yul\":187:199   */\n      revert\n        /* \"#utility.yul\":211:328   */\n    tag_43:\n        /* \"#utility.yul\":320:321   */\n      0x00\n        /* \"#utility.yul\":317:318   */\n      0x00\n        /* \"#utility.yul\":310:322   */\n      revert\n        /* \"#utility.yul\":334:451   */\n    tag_44:\n        /* \"#utility.yul\":443:444   */\n      0x00\n        /* \"#utility.yul\":440:441   */\n      0x00\n        /* \"#utility.yul\":433:445   */\n      revert\n        /* \"#utility.yul\":457:574   */\n    tag_45:\n        /* \"#utility.yul\":566:567   */\n      0x00\n        /* \"#utility.yul\":563:564   */\n      0x00\n        /* \"#utility.yul\":556:568   */\n      revert\n        /* \"#utility.yul\":580:697   */\n    tag_46:\n        /* \"#utility.yul\":689:690   */\n      0x00\n        /* \"#utility.yul\":686:687   */\n      0x00\n        /* \"#utility.yul\":679:691   */\n      revert\n        /* \"#utility.yul\":720:1288   */\n    tag_47:\n        /* \"#utility.yul\":793:801   */\n      0x00\n        /* \"#utility.yul\":803:809   */\n      0x00\n        /* \"#utility.yul\":853:856   */\n      dup4\n        /* \"#utility.yul\":846:850   */\n      0x1f\n        /* \"#utility.yul\":838:844   */\n      dup5\n        /* \"#utility.yul\":834:851   */\n      add\n        /* \"#utility.yul\":830:857   */\n      slt\n        /* \"#utility.yul\":820:942   */\n      tag_83\n      jumpi\n        /* \"#utility.yul\":861:940   */\n      tag_84\n      tag_44\n      jump\t// in\n    tag_84:\n        /* \"#utility.yul\":820:942   */\n    tag_83:\n        /* \"#utility.yul\":974:980   */\n      dup3\n        /* \"#utility.yul\":961:981   */\n      calldataload\n        /* \"#utility.yul\":951:981   */\n      swap1\n      pop\n        /* \"#utility.yul\":1004:1022   */\n      0xffffffffffffffff\n        /* \"#utility.yul\":996:1002   */\n      dup2\n        /* \"#utility.yul\":993:1023   */\n      gt\n        /* \"#utility.yul\":990:1107   */\n      iszero\n      tag_85\n      jumpi\n        /* \"#utility.yul\":1026:1105   */\n      tag_86\n      tag_45\n      jump\t// in\n    tag_86:\n        /* \"#utility.yul\":990:1107   */\n    tag_85:\n        /* \"#utility.yul\":1140:1144   */\n      0x20\n        /* \"#utility.yul\":1132:1138   */\n      dup4\n        /* \"#utility.yul\":1128:1145   */\n      add\n        /* \"#utility.yul\":1116:1145   */\n      swap2\n      pop\n        /* \"#utility.yul\":1194:1197   */\n      dup4\n        /* \"#utility.yul\":1186:1190   */\n      0x20\n        /* \"#utility.yul\":1178:1184   */\n      dup3\n        /* \"#utility.yul\":1174:1191   */\n      mul\n        /* \"#utility.yul\":1164:1172   */\n      dup4\n        /* \"#utility.yul\":1160:1192   */\n      add\n        /* \"#utility.yul\":1157:1198   */\n      gt\n        /* \"#utility.yul\":1154:1282   */\n      iszero\n      tag_87\n      jumpi\n        /* \"#utility.yul\":1201:1280   */\n      tag_88\n      tag_46\n      jump\t// in\n    tag_88:\n        /* \"#utility.yul\":1154:1282   */\n    tag_87:\n        /* \"#utility.yul\":720:1288   */\n      swap3\n      pop\n      swap3\n      swap1\n      pop\n      jump\t// out\n        /* \"#utility.yul\":1309:1888   */\n    tag_48:\n        /* \"#utility.yul\":1393:1401   */\n      0x00\n        /* \"#utility.yul\":1403:1409   */\n      0x00\n        /* \"#utility.yul\":1453:1456   */\n      dup4\n        /* \"#utility.yul\":1446:1450   */\n      0x1f\n        /* \"#utility.yul\":1438:1444   */\n      dup5\n        /* \"#utility.yul\":1434:1451   */\n      add\n        /* \"#utility.yul\":1430:1457   */\n      slt\n        /* \"#utility.yul\":1420:1542   */\n      tag_90\n      jumpi\n        /* \"#utility.yul\":1461:1540   */\n      tag_91\n      tag_44\n      jump\t// in\n    tag_91:\n        /* \"#utility.yul\":1420:1542   */\n    tag_90:\n        /* \"#utility.yul\":1574:1580   */\n      dup3\n        /* \"#utility.yul\":1561:1581   */\n      calldataload\n        /* \"#utility.yul\":1551:1581   */\n      swap1\n      pop\n        /* \"#utility.yul\":1604:1622   */\n      0xffffffffffffffff\n        /* \"#utility.yul\":1596:1602   */\n      dup2\n        /* \"#utility.yul\":1593:1623   */\n      gt\n        /* \"#utility.yul\":1590:1707   */\n      iszero\n      tag_92\n      jumpi\n        /* \"#utility.yul\":1626:1705   */\n      tag_93\n      tag_45\n      jump\t// in\n    tag_93:\n        /* \"#utility.yul\":1590:1707   */\n    tag_92:\n        /* \"#utility.yul\":1740:1744   */\n      0x20\n        /* \"#utility.yul\":1732:1738   */\n      dup4\n        /* \"#utility.yul\":1728:1745   */\n      add\n        /* \"#utility.yul\":1716:1745   */\n      swap2\n      pop\n        /* \"#utility.yul\":1794:1797   */\n      dup4\n        /* \"#utility.yul\":1786:1790   */\n      0x20\n        /* \"#utility.yul\":1778:1784   */\n      dup3\n        /* \"#utility.yul\":1774:1791   */\n      mul\n        /* \"#utility.yul\":1764:1772   */\n      dup4\n        /* \"#utility.yul\":1760:1792   */\n      add\n        /* \"#utility.yul\":1757:1798   */\n      gt\n        /* \"#utility.yul\":1754:1882   */\n      iszero\n      tag_94\n      jumpi\n        /* \"#utility.yul\":1801:1880   */\n      tag_95\n      tag_46\n      jump\t// in\n    tag_95:\n        /* \"#utility.yul\":1754:1882   */\n    tag_94:\n        /* \"#utility.yul\":1309:1888   */\n      swap3\n      pop\n      swap3\n      swap1\n      pop\n      jump\t// out\n        /* \"#utility.yul\":1894:2850   */\n    tag_6:\n        /* \"#utility.yul\":2027:2033   */\n      0x00\n        /* \"#utility.yul\":2035:2041   */\n      0x00\n        /* \"#utility.yul\":2043:2049   */\n      0x00\n        /* \"#utility.yul\":2051:2057   */\n      0x00\n        /* \"#utility.yul\":2100:2102   */\n      0x40\n        /* \"#utility.yul\":2088:2097   */\n      dup6\n        /* \"#utility.yul\":2079:2086   */\n      dup8\n        /* \"#utility.yul\":2075:2098   */\n      sub\n        /* \"#utility.yul\":2071:2103   */\n      slt\n        /* \"#utility.yul\":2068:2187   */\n      iszero\n      tag_97\n      jumpi\n        /* \"#utility.yul\":2106:2185   */\n      tag_98\n      tag_42\n      jump\t// in\n    tag_98:\n        /* \"#utility.yul\":2068:2187   */\n    tag_97:\n        /* \"#utility.yul\":2254:2255   */\n      0x00\n        /* \"#utility.yul\":2243:2252   */\n      dup6\n        /* \"#utility.yul\":2239:2256   */\n      add\n        /* \"#utility.yul\":2226:2257   */\n      calldataload\n        /* \"#utility.yul\":2284:2302   */\n      0xffffffffffffffff\n        /* \"#utility.yul\":2276:2282   */\n      dup2\n        /* \"#utility.yul\":2273:2303   */\n      gt\n        /* \"#utility.yul\":2270:2387   */\n      iszero\n      tag_99\n      jumpi\n        /* \"#utility.yul\":2306:2385   */\n      tag_100\n      tag_43\n      jump\t// in\n    tag_100:\n        /* \"#utility.yul\":2270:2387   */\n    tag_99:\n        /* \"#utility.yul\":2419:2499   */\n      tag_101\n        /* \"#utility.yul\":2491:2498   */\n      dup8\n        /* \"#utility.yul\":2482:2488   */\n      dup3\n        /* \"#utility.yul\":2471:2480   */\n      dup9\n        /* \"#utility.yul\":2467:2489   */\n      add\n        /* \"#utility.yul\":2419:2499   */\n      tag_47\n      jump\t// in\n    tag_101:\n        /* \"#utility.yul\":2401:2499   */\n      swap5\n      pop\n      swap5\n      pop\n        /* \"#utility.yul\":2197:2509   */\n      pop\n        /* \"#utility.yul\":2576:2578   */\n      0x20\n        /* \"#utility.yul\":2565:2574   */\n      dup6\n        /* \"#utility.yul\":2561:2579   */\n      add\n        /* \"#utility.yul\":2548:2580   */\n      calldataload\n        /* \"#utility.yul\":2607:2625   */\n      0xffffffffffffffff\n        /* \"#utility.yul\":2599:2605   */\n      dup2\n        /* \"#utility.yul\":2596:2626   */\n      gt\n        /* \"#utility.yul\":2593:2710   */\n      iszero\n      tag_102\n      jumpi\n        /* \"#utility.yul\":2629:2708   */\n      tag_103\n      tag_43\n      jump\t// in\n    tag_103:\n        /* \"#utility.yul\":2593:2710   */\n    tag_102:\n        /* \"#utility.yul\":2742:2833   */\n      tag_104\n        /* \"#utility.yul\":2825:2832   */\n      dup8\n        /* \"#utility.yul\":2816:2822   */\n      dup3\n        /* \"#utility.yul\":2805:2814   */\n      dup9\n        /* \"#utility.yul\":2801:2823   */\n      add\n        /* \"#utility.yul\":2742:2833   */\n      tag_48\n      jump\t// in\n    tag_104:\n        /* \"#utility.yul\":2724:2833   */\n      swap3\n      pop\n      swap3\n      pop\n        /* \"#utility.yul\":2519:2843   */\n      pop\n        /* \"#utility.yul\":1894:2850   */\n      swap3\n      swap6\n      swap2\n      swap5\n      pop\n      swap3\n      pop\n      jump\t// out\n        /* \"#utility.yul\":2856:2979   */\n    tag_49:\n        /* \"#utility.yul\":2932:2938   */\n      0x00\n        /* \"#utility.yul\":2966:2971   */\n      dup2\n        /* \"#utility.yul\":2960:2972   */\n      mload\n        /* \"#utility.yul\":2950:2972   */\n      swap1\n      pop\n        /* \"#utility.yul\":2856:2979   */\n      swap2\n      swap1\n      pop\n      jump\t// out\n        /* \"#utility.yul\":2985:3178   */\n    tag_50:\n        /* \"#utility.yul\":3093:3104   */\n      0x00\n        /* \"#utility.yul\":3127:3133   */\n      dup3\n        /* \"#utility.yul\":3122:3125   */\n      dup3\n        /* \"#utility.yul\":3115:3134   */\n      mstore\n        /* \"#utility.yul\":3167:3171   */\n      0x20\n        /* \"#utility.yul\":3162:3165   */\n      dup3\n        /* \"#utility.yul\":3158:3172   */\n      add\n        /* \"#utility.yul\":3143:3172   */\n      swap1\n      pop\n        /* \"#utility.yul\":2985:3178   */\n      swap3\n      swap2\n      pop\n      pop\n      jump\t// out\n        /* \"#utility.yul\":3184:3325   */\n    tag_51:\n        /* \"#utility.yul\":3260:3264   */\n      0x00\n        /* \"#utility.yul\":3283:3286   */\n      dup2\n        /* \"#utility.yul\":3275:3286   */\n      swap1\n      pop\n        /* \"#utility.yul\":3313:3317   */\n      0x20\n        /* \"#utility.yul\":3308:3311   */\n      dup3\n        /* \"#utility.yul\":3304:3318   */\n      add\n        /* \"#utility.yul\":3296:3318   */\n      swap1\n      pop\n        /* \"#utility.yul\":3184:3325   */\n      swap2\n      swap1\n      pop\n      jump\t// out\n        /* \"#utility.yul\":3331:3429   */\n    tag_52:\n        /* \"#utility.yul\":3382:3388   */\n      0x00\n        /* \"#utility.yul\":3416:3421   */\n      dup2\n        /* \"#utility.yul\":3410:3422   */\n      mload\n        /* \"#utility.yul\":3400:3422   */\n      swap1\n      pop\n        /* \"#utility.yul\":3331:3429   */\n      swap2\n      swap1\n      pop\n      jump\t// out\n        /* \"#utility.yul\":3435:3593   */\n    tag_53:\n        /* \"#utility.yul\":3508:3519   */\n      0x00\n        /* \"#utility.yul\":3542:3548   */\n      dup3\n        /* \"#utility.yul\":3537:3540   */\n      dup3\n        /* \"#utility.yul\":3530:3549   */\n      mstore\n        /* \"#utility.yul\":3582:3586   */\n      0x20\n        /* \"#utility.yul\":3577:3580   */\n      dup3\n        /* \"#utility.yul\":3573:3587   */\n      add\n        /* \"#utility.yul\":3558:3587   */\n      swap1\n      pop\n        /* \"#utility.yul\":3435:3593   */\n      swap3\n      swap2\n      pop\n      pop\n      jump\t// out\n        /* \"#utility.yul\":3599:3738   */\n    tag_54:\n        /* \"#utility.yul\":3688:3694   */\n      dup3\n        /* \"#utility.yul\":3683:3686   */\n      dup2\n        /* \"#utility.yul\":3678:3681   */\n      dup4\n        /* \"#utility.yul\":3672:3695   */\n      mcopy\n        /* \"#utility.yul\":3729:3730   */\n      0x00\n        /* \"#utility.yul\":3720:3726   */\n      dup4\n        /* \"#utility.yul\":3715:3718   */\n      dup4\n        /* \"#utility.yul\":3711:3727   */\n      add\n        /* \"#utility.yul\":3704:3731   */\n      mstore\n        /* \"#utility.yul\":3599:3738   */\n      pop\n      pop\n      pop\n      jump\t// out\n        /* \"#utility.yul\":3744:3846   */\n    tag_55:\n        /* \"#utility.yul\":3785:3791   */\n      0x00\n        /* \"#utility.yul\":3836:3838   */\n      0x1f\n        /* \"#utility.yul\":3832:3839   */\n      not\n        /* \"#utility.yul\":3827:3829   */\n      0x1f\n        /* \"#utility.yul\":3820:3825   */\n      dup4\n        /* \"#utility.yul\":3816:3830   */\n      add\n        /* \"#utility.yul\":3812:3840   */\n      and\n        /* \"#utility.yul\":3802:3840   */\n      swap1\n      pop\n        /* \"#utility.yul\":3744:3846   */\n      swap2\n      swap1\n      pop\n      jump\t// out\n        /* \"#utility.yul\":3852:4205   */\n    tag_56:\n        /* \"#utility.yul\":3928:3931   */\n      0x00\n        /* \"#utility.yul\":3956:3994   */\n      tag_113\n        /* \"#utility.yul\":3988:3993   */\n      dup3\n        /* \"#utility.yul\":3956:3994   */\n      tag_52\n      jump\t// in\n    tag_113:\n        /* \"#utility.yul\":4010:4070   */\n      tag_114\n        /* \"#utility.yul\":4063:4069   */\n      dup2\n        /* \"#utility.yul\":4058:4061   */\n      dup6\n        /* \"#utility.yul\":4010:4070   */\n      tag_53\n      jump\t// in\n    tag_114:\n        /* \"#utility.yul\":4003:4070   */\n      swap4\n      pop\n        /* \"#utility.yul\":4079:4144   */\n      tag_115\n        /* \"#utility.yul\":4137:4143   */\n      dup2\n        /* \"#utility.yul\":4132:4135   */\n      dup6\n        /* \"#utility.yul\":4125:4129   */\n      0x20\n        /* \"#utility.yul\":4118:4123   */\n      dup7\n        /* \"#utility.yul\":4114:4130   */\n      add\n        /* \"#utility.yul\":4079:4144   */\n      tag_54\n      jump\t// in\n    tag_115:\n        /* \"#utility.yul\":4169:4198   */\n      tag_116\n        /* \"#utility.yul\":4191:4197   */\n      dup2\n        /* \"#utility.yul\":4169:4198   */\n      tag_55\n      jump\t// in\n    tag_116:\n        /* \"#utility.yul\":4164:4167   */\n      dup5\n        /* \"#utility.yul\":4160:4199   */\n      add\n        /* \"#utility.yul\":4153:4199   */\n      swap2\n      pop\n        /* \"#utility.yul\":3932:4205   */\n      pop\n        /* \"#utility.yul\":3852:4205   */\n      swap3\n      swap2\n      pop\n      pop\n      jump\t// out\n        /* \"#utility.yul\":4211:4403   */\n    tag_57:\n        /* \"#utility.yul\":4298:4308   */\n      0x00\n        /* \"#utility.yul\":4333:4397   */\n      tag_118\n        /* \"#utility.yul\":4393:4396   */\n      dup4\n        /* \"#utility.yul\":4385:4391   */\n      dup4\n        /* \"#utility.yul\":4333:4397   */\n      tag_56\n      jump\t// in\n    tag_118:\n        /* \"#utility.yul\":4319:4397   */\n      swap1\n      pop\n        /* \"#utility.yul\":4211:4403   */\n      swap3\n      swap2\n      pop\n      pop\n      jump\t// out\n        /* \"#utility.yul\":4409:4531   */\n    tag_58:\n        /* \"#utility.yul\":4488:4492   */\n      0x00\n        /* \"#utility.yul\":4520:4524   */\n      0x20\n        /* \"#utility.yul\":4515:4518   */\n      dup3\n        /* \"#utility.yul\":4511:4525   */\n      add\n        /* \"#utility.yul\":4503:4525   */\n      swap1\n      pop\n        /* \"#utility.yul\":4409:4531   */\n      swap2\n      swap1\n      pop\n      jump\t// out\n        /* \"#utility.yul\":4563:5546   */\n    tag_59:\n        /* \"#utility.yul\":4700:4703   */\n      0x00\n        /* \"#utility.yul\":4729:4792   */\n      tag_121\n        /* \"#utility.yul\":4786:4791   */\n      dup3\n        /* \"#utility.yul\":4729:4792   */\n      tag_49\n      jump\t// in\n    tag_121:\n        /* \"#utility.yul\":4808:4903   */\n      tag_122\n        /* \"#utility.yul\":4896:4902   */\n      dup2\n        /* \"#utility.yul\":4891:4894   */\n      dup6\n        /* \"#utility.yul\":4808:4903   */\n      tag_50\n      jump\t// in\n    tag_122:\n        /* \"#utility.yul\":4801:4903   */\n      swap4\n      pop\n        /* \"#utility.yul\":4929:4932   */\n      dup4\n        /* \"#utility.yul\":4974:4978   */\n      0x20\n        /* \"#utility.yul\":4966:4972   */\n      dup3\n        /* \"#utility.yul\":4962:4979   */\n      mul\n        /* \"#utility.yul\":4957:4960   */\n      dup6\n        /* \"#utility.yul\":4953:4980   */\n      add\n        /* \"#utility.yul\":5004:5069   */\n      tag_123\n        /* \"#utility.yul\":5063:5068   */\n      dup6\n        /* \"#utility.yul\":5004:5069   */\n      tag_51\n      jump\t// in\n    tag_123:\n        /* \"#utility.yul\":5092:5099   */\n      dup1\n        /* \"#utility.yul\":5123:5124   */\n      0x00\n        /* \"#utility.yul\":5108:5501   */\n    tag_124:\n        /* \"#utility.yul\":5133:5139   */\n      dup6\n        /* \"#utility.yul\":5130:5131   */\n      dup2\n        /* \"#utility.yul\":5127:5140   */\n      lt\n        /* \"#utility.yul\":5108:5501   */\n      iszero\n      tag_126\n      jumpi\n        /* \"#utility.yul\":5204:5213   */\n      dup5\n        /* \"#utility.yul\":5198:5202   */\n      dup5\n        /* \"#utility.yul\":5194:5214   */\n      sub\n        /* \"#utility.yul\":5189:5192   */\n      dup10\n        /* \"#utility.yul\":5182:5215   */\n      mstore\n        /* \"#utility.yul\":5255:5261   */\n      dup2\n        /* \"#utility.yul\":5249:5262   */\n      mload\n        /* \"#utility.yul\":5283:5365   */\n      tag_127\n        /* \"#utility.yul\":5360:5364   */\n      dup6\n        /* \"#utility.yul\":5345:5358   */\n      dup3\n        /* \"#utility.yul\":5283:5365   */\n      tag_57\n      jump\t// in\n    tag_127:\n        /* \"#utility.yul\":5275:5365   */\n      swap5\n      pop\n        /* \"#utility.yul\":5388:5457   */\n      tag_128\n        /* \"#utility.yul\":5450:5456   */\n      dup4\n        /* \"#utility.yul\":5388:5457   */\n      tag_58\n      jump\t// in\n    tag_128:\n        /* \"#utility.yul\":5378:5457   */\n      swap3\n      pop\n        /* \"#utility.yul\":5486:5490   */\n      0x20\n        /* \"#utility.yul\":5481:5484   */\n      dup11\n        /* \"#utility.yul\":5477:5491   */\n      add\n        /* \"#utility.yul\":5470:5491   */\n      swap10\n      pop\n        /* \"#utility.yul\":5168:5501   */\n      pop\n        /* \"#utility.yul\":5155:5156   */\n      0x01\n        /* \"#utility.yul\":5152:5153   */\n      dup2\n        /* \"#utility.yul\":5148:5157   */\n      add\n        /* \"#utility.yul\":5143:5157   */\n      swap1\n      pop\n        /* \"#utility.yul\":5108:5501   */\n      jump(tag_124)\n    tag_126:\n        /* \"#utility.yul\":5112:5126   */\n      pop\n        /* \"#utility.yul\":5517:5521   */\n      dup3\n        /* \"#utility.yul\":5510:5521   */\n      swap8\n      pop\n        /* \"#utility.yul\":5537:5540   */\n      dup8\n        /* \"#utility.yul\":5530:5540   */\n      swap6\n      pop\n        /* \"#utility.yul\":4705:5546   */\n      pop\n      pop\n      pop\n      pop\n      pop\n        /* \"#utility.yul\":4563:5546   */\n      swap3\n      swap2\n      pop\n      pop\n      jump\t// out\n        /* \"#utility.yul\":5552:5961   */\n    tag_9:\n        /* \"#utility.yul\":5713:5717   */\n      0x00\n        /* \"#utility.yul\":5751:5753   */\n      0x20\n        /* \"#utility.yul\":5740:5749   */\n      dup3\n        /* \"#utility.yul\":5736:5754   */\n      add\n        /* \"#utility.yul\":5728:5754   */\n      swap1\n      pop\n        /* \"#utility.yul\":5800:5809   */\n      dup2\n        /* \"#utility.yul\":5794:5798   */\n      dup2\n        /* \"#utility.yul\":5790:5810   */\n      sub\n        /* \"#utility.yul\":5786:5787   */\n      0x00\n        /* \"#utility.yul\":5775:5784   */\n      dup4\n        /* \"#utility.yul\":5771:5788   */\n      add\n        /* \"#utility.yul\":5764:5811   */\n      mstore\n        /* \"#utility.yul\":5828:5954   */\n      tag_130\n        /* \"#utility.yul\":5949:5953   */\n      dup2\n        /* \"#utility.yul\":5940:5946   */\n      dup5\n        /* \"#utility.yul\":5828:5954   */\n      tag_59\n      jump\t// in\n    tag_130:\n        /* \"#utility.yul\":5820:5954   */\n      swap1\n      pop\n        /* \"#utility.yul\":5552:5961   */\n      swap3\n      swap2\n      pop\n      pop\n      jump\t// out\n        /* \"#utility.yul\":5967:6136   */\n    tag_60:\n        /* \"#utility.yul\":6051:6062   */\n      0x00\n        /* \"#utility.yul\":6085:6091   */\n      dup3\n        /* \"#utility.yul\":6080:6083   */\n      dup3\n        /* \"#utility.yul\":6073:6092   */\n      mstore\n        /* \"#utility.yul\":6125:6129   */\n      0x20\n        /* \"#utility.yul\":6120:6123   */\n      dup3\n        /* \"#utility.yul\":6116:6130   */\n      add\n        /* \"#utility.yul\":6101:6130   */\n      swap1\n      pop\n        /* \"#utility.yul\":5967:6136   */\n      swap3\n      swap2\n      pop\n      pop\n      jump\t// out\n        /* \"#utility.yul\":6142:6319   */\n    tag_61:\n        /* \"#utility.yul\":6282:6311   */\n      0x746172676574206c656e746820213d2064617461206c656e6774680000000000\n        /* \"#utility.yul\":6278:6279   */\n      0x00\n        /* \"#utility.yul\":6270:6276   */\n      dup3\n        /* \"#utility.yul\":6266:6280   */\n      add\n        /* \"#utility.yul\":6259:6312   */\n      mstore\n        /* \"#utility.yul\":6142:6319   */\n      pop\n      jump\t// out\n        /* \"#utility.yul\":6325:6691   */\n    tag_62:\n        /* \"#utility.yul\":6467:6470   */\n      0x00\n        /* \"#utility.yul\":6488:6555   */\n      tag_134\n        /* \"#utility.yul\":6552:6554   */\n      0x1b\n        /* \"#utility.yul\":6547:6550   */\n      dup4\n        /* \"#utility.yul\":6488:6555   */\n      tag_60\n      jump\t// in\n    tag_134:\n        /* \"#utility.yul\":6481:6555   */\n      swap2\n      pop\n        /* \"#utility.yul\":6564:6657   */\n      tag_135\n        /* \"#utility.yul\":6653:6656   */\n      dup3\n        /* \"#utility.yul\":6564:6657   */\n      tag_61\n      jump\t// in\n    tag_135:\n        /* \"#utility.yul\":6682:6684   */\n      0x20\n        /* \"#utility.yul\":6677:6680   */\n      dup3\n        /* \"#utility.yul\":6673:6685   */\n      add\n        /* \"#utility.yul\":6666:6685   */\n      swap1\n      pop\n        /* \"#utility.yul\":6325:6691   */\n      swap2\n      swap1\n      pop\n      jump\t// out\n        /* \"#utility.yul\":6697:7116   */\n    tag_13:\n        /* \"#utility.yul\":6863:6867   */\n      0x00\n        /* \"#utility.yul\":6901:6903   */\n      0x20\n        /* \"#utility.yul\":6890:6899   */\n      dup3\n        /* \"#utility.yul\":6886:6904   */\n      add\n        /* \"#utility.yul\":6878:6904   */\n      swap1\n      pop\n        /* \"#utility.yul\":6950:6959   */\n      dup2\n        /* \"#utility.yul\":6944:6948   */\n      dup2\n        /* \"#utility.yul\":6940:6960   */\n      sub\n        /* \"#utility.yul\":6936:6937   */\n      0x00\n        /* \"#utility.yul\":6925:6934   */\n      dup4\n        /* \"#utility.yul\":6921:6938   */\n      add\n        /* \"#utility.yul\":6914:6961   */\n      mstore\n        /* \"#utility.yul\":6978:7109   */\n      tag_137\n        /* \"#utility.yul\":7104:7108   */\n      dup2\n        /* \"#utility.yul\":6978:7109   */\n      tag_62\n      jump\t// in\n    tag_137:\n        /* \"#utility.yul\":6970:7109   */\n      swap1\n      pop\n        /* \"#utility.yul\":6697:7116   */\n      swap2\n      swap1\n      pop\n      jump\t// out\n        /* \"#utility.yul\":7122:7302   */\n    tag_16:\n        /* \"#utility.yul\":7170:7247   */\n      0x4e487b7100000000000000000000000000000000000000000000000000000000\n        /* \"#utility.yul\":7167:7168   */\n      0x00\n        /* \"#utility.yul\":7160:7248   */\n      mstore\n        /* \"#utility.yul\":7267:7271   */\n      0x41\n        /* \"#utility.yul\":7264:7265   */\n      0x04\n        /* \"#utility.yul\":7257:7272   */\n      mstore\n        /* \"#utility.yul\":7291:7295   */\n      0x24\n        /* \"#utility.yul\":7288:7289   */\n      0x00\n        /* \"#utility.yul\":7281:7296   */\n      revert\n        /* \"#utility.yul\":7308:7488   */\n    tag_24:\n        /* \"#utility.yul\":7356:7433   */\n      0x4e487b7100000000000000000000000000000000000000000000000000000000\n        /* \"#utility.yul\":7353:7354   */\n      0x00\n        /* \"#utility.yul\":7346:7434   */\n      mstore\n        /* \"#utility.yul\":7453:7457   */\n      0x32\n        /* \"#utility.yul\":7450:7451   */\n      0x04\n        /* \"#utility.yul\":7443:7458   */\n      mstore\n        /* \"#utility.yul\":7477:7481   */\n      0x24\n        /* \"#utility.yul\":7474:7475   */\n      0x00\n        /* \"#utility.yul\":7467:7482   */\n      revert\n        /* \"#utility.yul\":7494:7620   */\n    tag_63:\n        /* \"#utility.yul\":7531:7538   */\n      0x00\n        /* \"#utility.yul\":7571:7613   */\n      0xffffffffffffffffffffffffffffffffffffffff\n        /* \"#utility.yul\":7564:7569   */\n      dup3\n        /* \"#utility.yul\":7560:7614   */\n      and\n        /* \"#utility.yul\":7549:7614   */\n      swap1\n      pop\n        /* \"#utility.yul\":7494:7620   */\n      swap2\n      swap1\n      pop\n      jump\t// out\n        /* \"#utility.yul\":7626:7722   */\n    tag_64:\n        /* \"#utility.yul\":7663:7670   */\n      0x00\n        /* \"#utility.yul\":7692:7716   */\n      tag_142\n        /* \"#utility.yul\":7710:7715   */\n      dup3\n        /* \"#utility.yul\":7692:7716   */\n      tag_63\n      jump\t// in\n    tag_142:\n        /* \"#utility.yul\":7681:7716   */\n      swap1\n      pop\n        /* \"#utility.yul\":7626:7722   */\n      swap2\n      swap1\n      pop\n      jump\t// out\n        /* \"#utility.yul\":7728:7850   */\n    tag_65:\n        /* \"#utility.yul\":7801:7825   */\n      tag_144\n        /* \"#utility.yul\":7819:7824   */\n      dup2\n        /* \"#utility.yul\":7801:7825   */\n      tag_64\n      jump\t// in\n    tag_144:\n        /* \"#utility.yul\":7794:7799   */\n      dup2\n        /* \"#utility.yul\":7791:7826   */\n      eq\n        /* \"#utility.yul\":7781:7844   */\n      tag_145\n      jumpi\n        /* \"#utility.yul\":7840:7841   */\n      0x00\n        /* \"#utility.yul\":7837:7838   */\n      0x00\n        /* \"#utility.yul\":7830:7842   */\n      revert\n        /* \"#utility.yul\":7781:7844   */\n    tag_145:\n        /* \"#utility.yul\":7728:7850   */\n      pop\n      jump\t// out\n        /* \"#utility.yul\":7856:7995   */\n    tag_66:\n        /* \"#utility.yul\":7902:7907   */\n      0x00\n        /* \"#utility.yul\":7940:7946   */\n      dup2\n        /* \"#utility.yul\":7927:7947   */\n      calldataload\n        /* \"#utility.yul\":7918:7947   */\n      swap1\n      pop\n        /* \"#utility.yul\":7956:7989   */\n      tag_147\n        /* \"#utility.yul\":7983:7988   */\n      dup2\n        /* \"#utility.yul\":7956:7989   */\n      tag_65\n      jump\t// in\n    tag_147:\n        /* \"#utility.yul\":7856:7995   */\n      swap3\n      swap2\n      pop\n      pop\n      jump\t// out\n        /* \"#utility.yul\":8001:8330   */\n    tag_26:\n        /* \"#utility.yul\":8060:8066   */\n      0x00\n        /* \"#utility.yul\":8109:8111   */\n      0x20\n        /* \"#utility.yul\":8097:8106   */\n      dup3\n        /* \"#utility.yul\":8088:8095   */\n      dup5\n        /* \"#utility.yul\":8084:8107   */\n      sub\n        /* \"#utility.yul\":8080:8112   */\n      slt\n        /* \"#utility.yul\":8077:8196   */\n      iszero\n      tag_149\n      jumpi\n        /* \"#utility.yul\":8115:8194   */\n      tag_150\n      tag_42\n      jump\t// in\n    tag_150:\n        /* \"#utility.yul\":8077:8196   */\n    tag_149:\n        /* \"#utility.yul\":8235:8236   */\n      0x00\n        /* \"#utility.yul\":8260:8313   */\n      tag_151\n        /* \"#utility.yul\":8305:8312   */\n      dup5\n        /* \"#utility.yul\":8296:8302   */\n      dup3\n        /* \"#utility.yul\":8285:8294   */\n      dup6\n        /* \"#utility.yul\":8281:8303   */\n      add\n        /* \"#utility.yul\":8260:8313   */\n      tag_66\n      jump\t// in\n    tag_151:\n        /* \"#utility.yul\":8250:8313   */\n      swap2\n      pop\n        /* \"#utility.yul\":8206:8323   */\n      pop\n        /* \"#utility.yul\":8001:8330   */\n      swap3\n      swap2\n      pop\n      pop\n      jump\t// out\n        /* \"#utility.yul\":8336:8453   */\n    tag_67:\n        /* \"#utility.yul\":8445:8446   */\n      0x00\n        /* \"#utility.yul\":8442:8443   */\n      0x00\n        /* \"#utility.yul\":8435:8447   */\n      revert\n        /* \"#utility.yul\":8459:8576   */\n    tag_68:\n        /* \"#utility.yul\":8568:8569   */\n      0x00\n        /* \"#utility.yul\":8565:8566   */\n      0x00\n        /* \"#utility.yul\":8558:8570   */\n      revert\n        /* \"#utility.yul\":8582:8699   */\n    tag_69:\n        /* \"#utility.yul\":8691:8692   */\n      0x00\n        /* \"#utility.yul\":8688:8689   */\n      0x00\n        /* \"#utility.yul\":8681:8693   */\n      revert\n        /* \"#utility.yul\":8705:9429   */\n    tag_30:\n        /* \"#utility.yul\":8782:8786   */\n      0x00\n        /* \"#utility.yul\":8788:8794   */\n      0x00\n        /* \"#utility.yul\":8844:8855   */\n      dup4\n        /* \"#utility.yul\":8831:8856   */\n      calldataload\n        /* \"#utility.yul\":8944:8945   */\n      0x01\n        /* \"#utility.yul\":8938:8942   */\n      0x20\n        /* \"#utility.yul\":8934:8946   */\n      sub\n        /* \"#utility.yul\":8923:8931   */\n      dup5\n        /* \"#utility.yul\":8907:8921   */\n      calldatasize\n        /* \"#utility.yul\":8903:8932   */\n      sub\n        /* \"#utility.yul\":8899:8947   */\n      sub\n        /* \"#utility.yul\":8879:8897   */\n      dup2\n        /* \"#utility.yul\":8875:8948   */\n      slt\n        /* \"#utility.yul\":8865:9033   */\n      tag_156\n      jumpi\n        /* \"#utility.yul\":8952:9031   */\n      tag_157\n      tag_67\n      jump\t// in\n    tag_157:\n        /* \"#utility.yul\":8865:9033   */\n    tag_156:\n        /* \"#utility.yul\":9064:9082   */\n      dup1\n        /* \"#utility.yul\":9054:9062   */\n      dup5\n        /* \"#utility.yul\":9050:9083   */\n      add\n        /* \"#utility.yul\":9042:9083   */\n      swap3\n      pop\n        /* \"#utility.yul\":9116:9120   */\n      dup3\n        /* \"#utility.yul\":9103:9121   */\n      calldataload\n        /* \"#utility.yul\":9093:9121   */\n      swap2\n      pop\n        /* \"#utility.yul\":9144:9162   */\n      0xffffffffffffffff\n        /* \"#utility.yul\":9136:9142   */\n      dup3\n        /* \"#utility.yul\":9133:9163   */\n      gt\n        /* \"#utility.yul\":9130:9247   */\n      iszero\n      tag_158\n      jumpi\n        /* \"#utility.yul\":9166:9245   */\n      tag_159\n      tag_68\n      jump\t// in\n    tag_159:\n        /* \"#utility.yul\":9130:9247   */\n    tag_158:\n        /* \"#utility.yul\":9274:9276   */\n      0x20\n        /* \"#utility.yul\":9268:9272   */\n      dup4\n        /* \"#utility.yul\":9264:9277   */\n      add\n        /* \"#utility.yul\":9256:9277   */\n      swap3\n      pop\n        /* \"#utility.yul\":9331:9335   */\n      0x01\n        /* \"#utility.yul\":9323:9329   */\n      dup3\n        /* \"#utility.yul\":9319:9336   */\n      mul\n        /* \"#utility.yul\":9303:9317   */\n      calldatasize\n        /* \"#utility.yul\":9299:9337   */\n      sub\n        /* \"#utility.yul\":9293:9297   */\n      dup4\n        /* \"#utility.yul\":9289:9338   */\n      sgt\n        /* \"#utility.yul\":9286:9422   */\n      iszero\n      tag_160\n      jumpi\n        /* \"#utility.yul\":9341:9420   */\n      tag_161\n      tag_69\n      jump\t// in\n    tag_161:\n        /* \"#utility.yul\":9286:9422   */\n    tag_160:\n        /* \"#utility.yul\":8795:9429   */\n      pop\n        /* \"#utility.yul\":8705:9429   */\n      swap3\n      pop\n      swap3\n      swap1\n      pop\n      jump\t// out\n        /* \"#utility.yul\":9435:9582   */\n    tag_70:\n        /* \"#utility.yul\":9536:9547   */\n      0x00\n        /* \"#utility.yul\":9573:9576   */\n      dup2\n        /* \"#utility.yul\":9558:9576   */\n      swap1\n      pop\n        /* \"#utility.yul\":9435:9582   */\n      swap3\n      swap2\n      pop\n      pop\n      jump\t// out\n        /* \"#utility.yul\":9588:9736   */\n    tag_71:\n        /* \"#utility.yul\":9686:9692   */\n      dup3\n        /* \"#utility.yul\":9681:9684   */\n      dup2\n        /* \"#utility.yul\":9676:9679   */\n      dup4\n        /* \"#utility.yul\":9663:9693   */\n      calldatacopy\n        /* \"#utility.yul\":9727:9728   */\n      0x00\n        /* \"#utility.yul\":9718:9724   */\n      dup4\n        /* \"#utility.yul\":9713:9716   */\n      dup4\n        /* \"#utility.yul\":9709:9725   */\n      add\n        /* \"#utility.yul\":9702:9729   */\n      mstore\n        /* \"#utility.yul\":9588:9736   */\n      pop\n      pop\n      pop\n      jump\t// out\n        /* \"#utility.yul\":9764:10091   */\n    tag_72:\n        /* \"#utility.yul\":9878:9881   */\n      0x00\n        /* \"#utility.yul\":9899:9987   */\n      tag_165\n        /* \"#utility.yul\":9980:9986   */\n      dup4\n        /* \"#utility.yul\":9975:9978   */\n      dup6\n        /* \"#utility.yul\":9899:9987   */\n      tag_70\n      jump\t// in\n    tag_165:\n        /* \"#utility.yul\":9892:9987   */\n      swap4\n      pop\n        /* \"#utility.yul\":9997:10053   */\n      tag_166\n        /* \"#utility.yul\":10046:10052   */\n      dup4\n        /* \"#utility.yul\":10041:10044   */\n      dup6\n        /* \"#utility.yul\":10034:10039   */\n      dup5\n        /* \"#utility.yul\":9997:10053   */\n      tag_71\n      jump\t// in\n    tag_166:\n        /* \"#utility.yul\":10078:10084   */\n      dup3\n        /* \"#utility.yul\":10073:10076   */\n      dup5\n        /* \"#utility.yul\":10069:10085   */\n      add\n        /* \"#utility.yul\":10062:10085   */\n      swap1\n      pop\n        /* \"#utility.yul\":9764:10091   */\n      swap4\n      swap3\n      pop\n      pop\n      pop\n      jump\t// out\n        /* \"#utility.yul\":10097:10388   */\n    tag_32:\n        /* \"#utility.yul\":10237:10240   */\n      0x00\n        /* \"#utility.yul\":10259:10362   */\n      tag_168\n        /* \"#utility.yul\":10358:10361   */\n      dup3\n        /* \"#utility.yul\":10349:10355   */\n      dup5\n        /* \"#utility.yul\":10341:10347   */\n      dup7\n        /* \"#utility.yul\":10259:10362   */\n      tag_72\n      jump\t// in\n    tag_168:\n        /* \"#utility.yul\":10252:10362   */\n      swap2\n      pop\n        /* \"#utility.yul\":10379:10382   */\n      dup2\n        /* \"#utility.yul\":10372:10382   */\n      swap1\n      pop\n        /* \"#utility.yul\":10097:10388   */\n      swap4\n      swap3\n      pop\n      pop\n      pop\n      jump\t// out\n        /* \"#utility.yul\":10394:10553   */\n    tag_73:\n        /* \"#utility.yul\":10534:10545   */\n      0x7478206661696c65640000000000000000000000000000000000000000000000\n        /* \"#utility.yul\":10530:10531   */\n      0x00\n        /* \"#utility.yul\":10522:10528   */\n      dup3\n        /* \"#utility.yul\":10518:10532   */\n      add\n        /* \"#utility.yul\":10511:10546   */\n      mstore\n        /* \"#utility.yul\":10394:10553   */\n      pop\n      jump\t// out\n        /* \"#utility.yul\":10559:10924   */\n    tag_74:\n        /* \"#utility.yul\":10701:10704   */\n      0x00\n        /* \"#utility.yul\":10722:10788   */\n      tag_171\n        /* \"#utility.yul\":10786:10787   */\n      0x09\n        /* \"#utility.yul\":10781:10784   */\n      dup4\n        /* \"#utility.yul\":10722:10788   */\n      tag_60\n      jump\t// in\n    tag_171:\n        /* \"#utility.yul\":10715:10788   */\n      swap2\n      pop\n        /* \"#utility.yul\":10797:10890   */\n      tag_172\n        /* \"#utility.yul\":10886:10889   */\n      dup3\n        /* \"#utility.yul\":10797:10890   */\n      tag_73\n      jump\t// in\n    tag_172:\n        /* \"#utility.yul\":10915:10917   */\n      0x20\n        /* \"#utility.yul\":10910:10913   */\n      dup3\n        /* \"#utility.yul\":10906:10918   */\n      add\n        /* \"#utility.yul\":10899:10918   */\n      swap1\n      pop\n        /* \"#utility.yul\":10559:10924   */\n      swap2\n      swap1\n      pop\n      jump\t// out\n        /* \"#utility.yul\":10930:11349   */\n    tag_38:\n        /* \"#utility.yul\":11096:11100   */\n      0x00\n        /* \"#utility.yul\":11134:11136   */\n      0x20\n        /* \"#utility.yul\":11123:11132   */\n      dup3\n        /* \"#utility.yul\":11119:11137   */\n      add\n        /* \"#utility.yul\":11111:11137   */\n      swap1\n      pop\n        /* \"#utility.yul\":11183:11192   */\n      dup2\n        /* \"#utility.yul\":11177:11181   */\n      dup2\n        /* \"#utility.yul\":11173:11193   */\n      sub\n        /* \"#utility.yul\":11169:11170   */\n      0x00\n        /* \"#utility.yul\":11158:11167   */\n      dup4\n        /* \"#utility.yul\":11154:11171   */\n      add\n        /* \"#utility.yul\":11147:11194   */\n      mstore\n        /* \"#utility.yul\":11211:11342   */\n      tag_174\n        /* \"#utility.yul\":11337:11341   */\n      dup2\n        /* \"#utility.yul\":11211:11342   */\n      tag_74\n      jump\t// in\n    tag_174:\n        /* \"#utility.yul\":11203:11342   */\n      swap1\n      pop\n        /* \"#utility.yul\":10930:11349   */\n      swap2\n      swap1\n      pop\n      jump\t// out\n\n    auxdata: 0xa2646970667358221220d52aaa66f74aeb56fce3198d3ea49b7f62f68244f1e50f8f44c5dc68ebd8314c64736f6c634300081e0033\n}\n",
				"bytecode": {
					"linkReferences": {},
					"object": "6080604052348015600e575f5ffd5b506107768061001c5f395ff3fe608060405234801561000f575f5ffd5b5060043610610029575f3560e01c8063da5b4ffd1461002d575b5f5ffd5b610047600480360381019061004291906102f6565b61005d565b604051610054919061049f565b60405180910390f35b60608282905085859050146100a7576040517f08c379a000000000000000000000000000000000000000000000000000000000815260040161009e90610519565b60405180910390fd5b5f8383905067ffffffffffffffff8111156100c5576100c4610537565b5b6040519080825280602002602001820160405280156100f857816020015b60608152602001906001900390816100e35790505b5090505f5b8686905081101561022b575f5f88888481811061011d5761011c610564565b5b905060200201602081019061013291906105eb565b73ffffffffffffffffffffffffffffffffffffffff1687878581811061015b5761015a610564565b5b905060200281019061016d9190610622565b60405161017b9291906106c0565b5f60405180830381855afa9150503d805f81146101b3576040519150601f19603f3d011682016040523d82523d5f602084013e6101b8565b606091505b5091509150816101fd576040517f08c379a00000000000000000000000000000000000000000000000000000000081526004016101f490610722565b60405180910390fd5b8084848151811061021157610210610564565b5b6020026020010181905250505080806001019150506100fd565b5080915050949350505050565b5f5ffd5b5f5ffd5b5f5ffd5b5f5ffd5b5f5ffd5b5f5f83601f84011261026157610260610240565b5b8235905067ffffffffffffffff81111561027e5761027d610244565b5b60208301915083602082028301111561029a57610299610248565b5b9250929050565b5f5f83601f8401126102b6576102b5610240565b5b8235905067ffffffffffffffff8111156102d3576102d2610244565b5b6020830191508360208202830111156102ef576102ee610248565b5b9250929050565b5f5f5f5f6040858703121561030e5761030d610238565b5b5f85013567ffffffffffffffff81111561032b5761032a61023c565b5b6103378782880161024c565b9450945050602085013567ffffffffffffffff81111561035a5761035961023c565b5b610366878288016102a1565b925092505092959194509250565b5f81519050919050565b5f82825260208201905092915050565b5f819050602082019050919050565b5f81519050919050565b5f82825260208201905092915050565b8281835e5f83830152505050565b5f601f19601f8301169050919050565b5f6103df8261039d565b6103e981856103a7565b93506103f98185602086016103b7565b610402816103c5565b840191505092915050565b5f61041883836103d5565b905092915050565b5f602082019050919050565b5f61043682610374565b610440818561037e565b9350836020820285016104528561038e565b805f5b8581101561048d578484038952815161046e858261040d565b945061047983610420565b925060208a01995050600181019050610455565b50829750879550505050505092915050565b5f6020820190508181035f8301526104b7818461042c565b905092915050565b5f82825260208201905092915050565b7f746172676574206c656e746820213d2064617461206c656e67746800000000005f82015250565b5f610503601b836104bf565b915061050e826104cf565b602082019050919050565b5f6020820190508181035f830152610530816104f7565b9050919050565b7f4e487b71000000000000000000000000000000000000000000000000000000005f52604160045260245ffd5b7f4e487b71000000000000000000000000000000000000000000000000000000005f52603260045260245ffd5b5f73ffffffffffffffffffffffffffffffffffffffff82169050919050565b5f6105ba82610591565b9050919050565b6105ca816105b0565b81146105d4575f5ffd5b50565b5f813590506105e5816105c1565b92915050565b5f60208284031215610600576105ff610238565b5b5f61060d848285016105d7565b91505092915050565b5f5ffd5b5f5ffd5b5f5ffd5b5f5f8335600160200384360303811261063e5761063d610616565b5b80840192508235915067ffffffffffffffff8211156106605761065f61061a565b5b60208301925060018202360383131561067c5761067b61061e565b5b509250929050565b5f81905092915050565b828183375f83830152505050565b5f6106a78385610684565b93506106b483858461068e565b82840190509392505050565b5f6106cc82848661069c565b91508190509392505050565b7f7478206661696c656400000000000000000000000000000000000000000000005f82015250565b5f61070c6009836104bf565b9150610717826106d8565b602082019050919050565b5f6020820190508181035f83015261073981610700565b905091905056fea2646970667358221220d52aaa66f74aeb56fce3198d3ea49b7f62f68244f1e50f8f44c5dc68ebd8314c64736f6c634300081e0033",
					"opcodes": "PUSH1 0x80 PUSH1 0x40 MSTORE CALLVALUE DUP1 ISZERO PUSH1 0xE JUMPI PUSH0 PUSH0 REVERT JUMPDEST POP PUSH2 0x776 DUP1 PUSH2 0x1C PUSH0 CODECOPY PUSH0 RETURN INVALID PUSH1 0x80 PUSH1 0x40 MSTORE CALLVALUE DUP1 ISZERO PUSH2 0xF JUMPI PUSH0 PUSH0 REVERT JUMPDEST POP PUSH1 0x4 CALLDATASIZE LT PUSH2 0x29 JUMPI PUSH0 CALLDATALOAD PUSH1 0xE0 SHR DUP1 PUSH4 0xDA5B4FFD EQ PUSH2 0x2D JUMPI JUMPDEST PUSH0 PUSH0 REVERT JUMPDEST PUSH2 0x47 PUSH1 0x4 DUP1 CALLDATASIZE SUB DUP2 ADD SWAP1 PUSH2 0x42 SWAP2 SWAP1 PUSH2 0x2F6 JUMP JUMPDEST PUSH2 0x5D JUMP JUMPDEST PUSH1 0x40 MLOAD PUSH2 0x54 SWAP2 SWAP1 PUSH2 0x49F JUMP JUMPDEST PUSH1 0x40 MLOAD DUP1 SWAP2 SUB SWAP1 RETURN JUMPDEST PUSH1 0x60 DUP3 DUP3 SWAP1 POP DUP6 DUP6 SWAP1 POP EQ PUSH2 0xA7 JUMPI PUSH1 0x40 MLOAD PUSH32 0x8C379A000000000000000000000000000000000000000000000000000000000 DUP2 MSTORE PUSH1 0x4 ADD PUSH2 0x9E SWAP1 PUSH2 0x519 JUMP JUMPDEST PUSH1 0x40 MLOAD DUP1 SWAP2 SUB SWAP1 REVERT JUMPDEST PUSH0 DUP4 DUP4 SWAP1 POP PUSH8 0xFFFFFFFFFFFFFFFF DUP2 GT ISZERO PUSH2 0xC5 JUMPI PUSH2 0xC4 PUSH2 0x537 JUMP JUMPDEST JUMPDEST PUSH1 0x40 MLOAD SWAP1 DUP1 DUP3 MSTORE DUP1 PUSH1 0x20 MUL PUSH1 0x20 ADD DUP3 ADD PUSH1 0x40 MSTORE DUP1 ISZERO PUSH2 0xF8 JUMPI DUP2 PUSH1 0x20 ADD JUMPDEST PUSH1 0x60 DUP2 MSTORE PUSH1 0x20 ADD SWAP1 PUSH1 0x1 SWAP1 SUB SWAP1 DUP2 PUSH2 0xE3 JUMPI SWAP1 POP JUMPDEST POP SWAP1 POP PUSH0 JUMPDEST DUP7 DUP7 SWAP1 POP DUP2 LT ISZERO PUSH2 0x22B JUMPI PUSH0 PUSH0 DUP9 DUP9 DUP5 DUP2 DUP2 LT PUSH2 0x11D JUMPI PUSH2 0x11C PUSH2 0x564 JUMP JUMPDEST JUMPDEST SWAP1 POP PUSH1 0x20 MUL ADD PUSH1 0x20 DUP2 ADD SWAP1 PUSH2 0x132 SWAP2 SWAP1 PUSH2 0x5EB JUMP JUMPDEST PUSH20 0xFFFFFFFFFFFFFFFFFFFFFFFFFFFFFFFFFFFFFFFF AND DUP8 DUP8 DUP6 DUP2 DUP2 LT PUSH2 0x15B JUMPI PUSH2 0x15A PUSH2 0x564 JUMP JUMPDEST JUMPDEST SWAP1 POP PUSH1 0x20 MUL DUP2 ADD SWAP1 PUSH2 0x16D SWAP2 SWAP1 PUSH2 0x622 JUMP JUMPDEST PUSH1 0x40 MLOAD PUSH2 0x17B SWAP3 SWAP2 SWAP1 PUSH2 0x6C0 JUMP JUMPDEST PUSH0 PUSH1 0x40 MLOAD DUP1 DUP4 SUB DUP2 DUP6 GAS STATICCALL SWAP2 POP POP RETURNDATASIZE DUP1 PUSH0 DUP2 EQ PUSH2 0x1B3 JUMPI PUSH1 0x40 MLOAD SWAP2 POP PUSH1 0x1F NOT PUSH1 0x3F RETURNDATASIZE ADD AND DUP3 ADD PUSH1 0x40 MSTORE RETURNDATASIZE DUP3 MSTORE RETURNDATASIZE PUSH0 PUSH1 0x20 DUP5 ADD RETURNDATACOPY PUSH2 0x1B8 JUMP JUMPDEST PUSH1 0x60 SWAP2 POP JUMPDEST POP SWAP2 POP SWAP2 POP DUP2 PUSH2 0x1FD JUMPI PUSH1 0x40 MLOAD PUSH32 0x8C379A000000000000000000000000000000000000000000000000000000000 DUP2 MSTORE PUSH1 0x4 ADD PUSH2 0x1F4 SWAP1 PUSH2 0x722 JUMP JUMPDEST PUSH1 0x40 MLOAD DUP1 SWAP2 SUB SWAP1 REVERT JUMPDEST DUP1 DUP5 DUP5 DUP2 MLOAD DUP2 LT PUSH2 0x211 JUMPI PUSH2 0x210 PUSH2 0x564 JUMP JUMPDEST JUMPDEST PUSH1 0x20 MUL PUSH1 0x20 ADD ADD DUP2 SWAP1 MSTORE POP POP POP DUP1 DUP1 PUSH1 0x1 ADD SWAP2 POP POP PUSH2 0xFD JUMP JUMPDEST POP DUP1 SWAP2 POP POP SWAP5 SWAP4 POP POP POP POP JUMP JUMPDEST PUSH0 PUSH0 REVERT JUMPDEST PUSH0 PUSH0 REVERT JUMPDEST PUSH0 PUSH0 REVERT JUMPDEST PUSH0 PUSH0 REVERT JUMPDEST PUSH0 PUSH0 REVERT JUMPDEST PUSH0 PUSH0 DUP4 PUSH1 0x1F DUP5 ADD SLT PUSH2 0x261 JUMPI PUSH2 0x260 PUSH2 0x240 JUMP JUMPDEST JUMPDEST DUP3 CALLDATALOAD SWAP1 POP PUSH8 0xFFFFFFFFFFFFFFFF DUP2 GT ISZERO PUSH2 0x27E JUMPI PUSH2 0x27D PUSH2 0x244 JUMP JUMPDEST JUMPDEST PUSH1 0x20 DUP4 ADD SWAP2 POP DUP4 PUSH1 0x20 DUP3 MUL DUP4 ADD GT ISZERO PUSH2 0x29A JUMPI PUSH2 0x299 PUSH2 0x248 JUMP JUMPDEST JUMPDEST SWAP3 POP SWAP3 SWAP1 POP JUMP JUMPDEST PUSH0 PUSH0 DUP4 PUSH1 0x1F DUP5 ADD SLT PUSH2 0x2B6 JUMPI PUSH2 0x2B5 PUSH2 0x240 JUMP JUMPDEST JUMPDEST DUP3 CALLDATALOAD SWAP1 POP PUSH8 0xFFFFFFFFFFFFFFFF DUP2 GT ISZERO PUSH2 0x2D3 JUMPI PUSH2 0x2D2 PUSH2 0x244 JUMP JUMPDEST JUMPDEST PUSH1 0x20 DUP4 ADD SWAP2 POP DUP4 PUSH1 0x20 DUP3 MUL DUP4 ADD GT ISZERO PUSH2 0x2EF JUMPI PUSH2 0x2EE PUSH2 0x248 JUMP JUMPDEST JUMPDEST SWAP3 POP SWAP3 SWAP1 POP JUMP JUMPDEST PUSH0 PUSH0 PUSH0 PUSH0 PUSH1 0x40 DUP6 DUP8 SUB SLT ISZERO PUSH2 0x30E JUMPI PUSH2 0x30D PUSH2 0x238 JUMP JUMPDEST JUMPDEST PUSH0 DUP6 ADD CALLDATALOAD PUSH8 0xFFFFFFFFFFFFFFFF DUP2 GT ISZERO PUSH2 0x32B JUMPI PUSH2 0x32A PUSH2 0x23C JUMP JUMPDEST JUMPDEST PUSH2 0x337 DUP8 DUP3 DUP9 ADD PUSH2 0x24C JUMP JUMPDEST SWAP5 POP SWAP5 POP POP PUSH1 0x20 DUP6 ADD CALLDATALOAD PUSH8 0xFFFFFFFFFFFFFFFF DUP2 GT ISZERO PUSH2 0x35A JUMPI PUSH2 0x359 PUSH2 0x23C JUMP JUMPDEST JUMPDEST PUSH2 0x366 DUP8 DUP3 DUP9 ADD PUSH2 0x2A1 JUMP JUMPDEST SWAP3 POP SWAP3 POP POP SWAP3 SWAP6 SWAP2 SWAP5 POP SWAP3 POP JUMP JUMPDEST PUSH0 DUP2 MLOAD SWAP1 POP SWAP2 SWAP1 POP JUMP JUMPDEST PUSH0 DUP3 DUP3 MSTORE PUSH1 0x20 DUP3 ADD SWAP1 POP SWAP3 SWAP2 POP POP JUMP JUMPDEST PUSH0 DUP2 SWAP1 POP PUSH1 0x20 DUP3 ADD SWAP1 POP SWAP2 SWAP1 POP JUMP JUMPDEST PUSH0 DUP2 MLOAD SWAP1 POP SWAP2 SWAP1 POP JUMP JUMPDEST PUSH0 DUP3 DUP3 MSTORE PUSH1 0x20 DUP3 ADD SWAP1 POP SWAP3 SWAP2 POP POP JUMP JUMPDEST DUP3 DUP2 DUP4 MCOPY PUSH0 DUP4 DUP4 ADD MSTORE POP POP POP JUMP JUMPDEST PUSH0 PUSH1 0x1F NOT PUSH1 0x1F DUP4 ADD AND SWAP1 POP SWAP2 SWAP1 POP JUMP JUMPDEST PUSH0 PUSH2 0x3DF DUP3 PUSH2 0x39D JUMP JUMPDEST PUSH2 0x3E9 DUP2 DUP6 PUSH2 0x3A7 JUMP JUMPDEST SWAP4 POP PUSH2 0x3F9 DUP2 DUP6 PUSH1 0x20 DUP7 ADD PUSH2 0x3B7 JUMP JUMPDEST PUSH2 0x402 DUP2 PUSH2 0x3C5 JUMP JUMPDEST DUP5 ADD SWAP2 POP POP SWAP3 SWAP2 POP POP JUMP JUMPDEST PUSH0 PUSH2 0x418 DUP4 DUP4 PUSH2 0x3D5 JUMP JUMPDEST SWAP1 POP SWAP3 SWAP2 POP POP JUMP JUMPDEST PUSH0 PUSH1 0x20 DUP3 ADD SWAP1 POP SWAP2 SWAP1 POP JUMP JUMPDEST PUSH0 PUSH2 0x436 DUP3 PUSH2 0x374 JUMP JUMPDEST PUSH2 0x440 DUP2 DUP6 PUSH2 0x37E JUMP JUMPDEST SWAP4 POP DUP4 PUSH1 0x20 DUP3 MUL DUP6 ADD PUSH2 0x452 DUP6 PUSH2 0x38E JUMP JUMPDEST DUP1 PUSH0 JUMPDEST DUP6 DUP2 LT ISZERO PUSH2 0x48D JUMPI DUP5 DUP5 SUB DUP10 MSTORE DUP2 MLOAD PUSH2 0x46E DUP6 DUP3 PUSH2 0x40D JUMP JUMPDEST SWAP5 POP PUSH2 0x479 DUP4 PUSH2 0x420 JUMP JUMPDEST SWAP3 POP PUSH1 0x20 DUP11 ADD SWAP10 POP POP PUSH1 0x1 DUP2 ADD SWAP1 POP PUSH2 0x455 JUMP JUMPDEST POP DUP3 SWAP8 POP DUP8 SWAP6 POP POP POP POP POP POP SWAP3 SWAP2 POP POP JUMP JUMPDEST PUSH0 PUSH1 0x20 DUP3 ADD SWAP1 POP DUP2 DUP2 SUB PUSH0 DUP4 ADD MSTORE PUSH2 0x4B7 DUP2 DUP5 PUSH2 0x42C JUMP JUMPDEST SWAP1 POP SWAP3 SWAP2 POP POP JUMP JUMPDEST PUSH0 DUP3 DUP3 MSTORE PUSH1 0x20 DUP3 ADD SWAP1 POP SWAP3 SWAP2 POP POP JUMP JUMPDEST PUSH32 0x746172676574206C656E746820213D2064617461206C656E6774680000000000 PUSH0 DUP3 ADD MSTORE POP JUMP JUMPDEST PUSH0 PUSH2 0x503 PUSH1 0x1B DUP4 PUSH2 0x4BF JUMP JUMPDEST SWAP2 POP PUSH2 0x50E DUP3 PUSH2 0x4CF JUMP JUMPDEST PUSH1 0x20 DUP3 ADD SWAP1 POP SWAP2 SWAP1 POP JUMP JUMPDEST PUSH0 PUSH1 0x20 DUP3 ADD SWAP1 POP DUP2 DUP2 SUB PUSH0 DUP4 ADD MSTORE PUSH2 0x530 DUP2 PUSH2 0x4F7 JUMP JUMPDEST SWAP1 POP SWAP2 SWAP1 POP JUMP JUMPDEST PUSH32 0x4E487B7100000000000000000000000000000000000000000000000000000000 PUSH0 MSTORE PUSH1 0x41 PUSH1 0x4 MSTORE PUSH1 0x24 PUSH0 REVERT JUMPDEST PUSH32 0x4E487B7100000000000000000000000000000000000000000000000000000000 PUSH0 MSTORE PUSH1 0x32 PUSH1 0x4 MSTORE PUSH1 0x24 PUSH0 REVERT JUMPDEST PUSH0 PUSH20 0xFFFFFFFFFFFFFFFFFFFFFFFFFFFFFFFFFFFFFFFF DUP3 AND SWAP1 POP SWAP2 SWAP1 POP JUMP JUMPDEST PUSH0 PUSH2 0x5BA DUP3 PUSH2 0x591 JUMP JUMPDEST SWAP1 POP SWAP2 SWAP1 POP JUMP JUMPDEST PUSH2 0x5CA DUP2 PUSH2 0x5B0 JUMP JUMPDEST DUP2 EQ PUSH2 0x5D4 JUMPI PUSH0 PUSH0 REVERT JUMPDEST POP JUMP JUMPDEST PUSH0 DUP2 CALLDATALOAD SWAP1 POP PUSH2 0x5E5 DUP2 PUSH2 0x5C1 JUMP JUMPDEST SWAP3 SWAP2 POP POP JUMP JUMPDEST PUSH0 PUSH1 0x20 DUP3 DUP5 SUB SLT ISZERO PUSH2 0x600 JUMPI PUSH2 0x5FF PUSH2 0x238 JUMP JUMPDEST JUMPDEST PUSH0 PUSH2 0x60D DUP5 DUP3 DUP6 ADD PUSH2 0x5D7 JUMP JUMPDEST SWAP2 POP POP SWAP3 SWAP2 POP POP JUMP JUMPDEST PUSH0 PUSH0 REVERT JUMPDEST PUSH0 PUSH0 REVERT JUMPDEST PUSH0 PUSH0 REVERT JUMPDEST PUSH0 PUSH0 DUP4 CALLDATALOAD PUSH1 0x1 PUSH1 0x20 SUB DUP5 CALLDATASIZE SUB SUB DUP2 SLT PUSH2 0x63E JUMPI PUSH2 0x63D PUSH2 0x616 JUMP JUMPDEST JUMPDEST DUP1 DUP5 ADD SWAP3 POP DUP3 CALLDATALOAD SWAP2 POP PUSH8 0xFFFFFFFFFFFFFFFF DUP3 GT ISZERO PUSH2 0x660 JUMPI PUSH2 0x65F PUSH2 0x61A JUMP JUMPDEST JUMPDEST PUSH1 0x20 DUP4 ADD SWAP3 POP PUSH1 0x1 DUP3 MUL CALLDATASIZE SUB DUP4 SGT ISZERO PUSH2 0x67C JUMPI PUSH2 0x67B PUSH2 0x61E JUMP JUMPDEST JUMPDEST POP SWAP3 POP SWAP3 SWAP1 POP JUMP JUMPDEST PUSH0 DUP2 SWAP1 POP SWAP3 SWAP2 POP POP JUMP JUMPDEST DUP3 DUP2 DUP4 CALLDATACOPY PUSH0 DUP4 DUP4 ADD MSTORE POP POP POP JUMP JUMPDEST PUSH0 PUSH2 0x6A7 DUP4 DUP6 PUSH2 0x684 JUMP JUMPDEST SWAP4 POP PUSH2 0x6B4 DUP4 DUP6 DUP5 PUSH2 0x68E JUMP JUMPDEST DUP3 DUP5 ADD SWAP1 POP SWAP4 SWAP3 POP POP POP JUMP JUMPDEST PUSH0 PUSH2 0x6CC DUP3 DUP5 DUP7 PUSH2 0x69C JUMP JUMPDEST SWAP2 POP DUP2 SWAP1 POP SWAP4 SWAP3 POP POP POP JUMP JUMPDEST PUSH32 0x7478206661696C65640000000000000000000000000000000000000000000000 PUSH0 DUP3 ADD MSTORE POP JUMP JUMPDEST PUSH0 PUSH2 0x70C PUSH1 0x9 DUP4 PUSH2 0x4BF JUMP JUMPDEST SWAP2 POP PUSH2 0x717 DUP3 PUSH2 0x6D8 JUMP JUMPDEST PUSH1 0x20 DUP3 ADD SWAP1 POP SWAP2 SWAP1 POP JUMP JUMPDEST PUSH0 PUSH1 0x20 DUP3 ADD SWAP1 POP DUP2 DUP2 SUB PUSH0 DUP4 ADD MSTORE PUSH2 0x739 DUP2 PUSH2 0x700 JUMP JUMPDEST SWAP1 POP SWAP2 SWAP1 POP JUMP INVALID LOG2 PUSH5 0x6970667358 0x22 SLT KECCAK256 0xD5 0x2A 0xAA PUSH7 0xF74AEB56FCE319 DUP14 RETURNDATACOPY LOG4 SWAP12 PUSH32 0x62F68244F1E50F8F44C5DC68EBD8314C64736F6C634300081E00330000000000 "
				},
				"gasEstimates": {
					"creation": {
						"codeDepositCost": "382000",
						"executionCost": "416",
						"totalCost": "382416"
					},
					"external": {
						"multiCall(address[],bytes[])": "infinite"
					}
				},
				"methodIdentifiers": {
					"multiCall(address[],bytes[])": "da5b4ffd"
				}
			},
			"storageLayout": {
				"storage": [],
				"types": null
			},
			"userdoc": {
				"kind": "user",
				"methods": {},
				"version": 1
			}
		}
	}
}