{
	"C2E_learning/041_interface.sol": {
		"CallCounter": {
			"abi": [
				{
					"inputs": [
						{
							"internalType": "address",
							"name": "_counter",
							"type": "address"
						}
					],
					"stateMutability": "nonpayable",
					"type": "constructor"
				},
				{
					"inputs": [],
					"name": "count",
					"outputs": [
						{
							"internalType": "uint256",
							"name": "",
							"type": "uint256"
						}
					],
					"stateMutability": "view",
					"type": "function"
				},
				{
					"inputs": [],
					"name": "counter",
					"outputs": [
						{
							"internalType": "contract ICounter",
							"name": "",
							"type": "address"
						}
					],
					"stateMutability": "view",
					"type": "function"
				},
				{
					"inputs": [],
					"name": "incrementCounter",
					"outputs": [],
					"stateMutability": "nonpayable",
					"type": "function"
				},
				{
					"inputs": [],
					"name": "updateCount",
					"outputs": [],
					"stateMutability": "nonpayable",
					"type": "function"
				}
			],
			"devdoc": {
				"kind": "dev",
				"methods": {},
				"version": 1
			},
			"evm": {
				"assembly": "    /* \"C2E_learning/041_interface.sol\":208:521  contract CallCounter{... */\n  mstore(0x40, 0x80)\n    /* \"C2E_learning/041_interface.sol\":287:362  constructor(address _counter) {... */\n  callvalue\n  dup1\n  iszero\n  tag_1\n  jumpi\n  revert(0x00, 0x00)\ntag_1:\n  pop\n  mload(0x40)\n  sub(codesize, bytecodeSize)\n  dup1\n  bytecodeSize\n  dup4\n  codecopy\n  dup2\n  dup2\n  add\n  0x40\n  mstore\n  dup2\n  add\n  swap1\n  tag_2\n  swap2\n  swap1\n  tag_3\n  jump\t// in\ntag_2:\n    /* \"C2E_learning/041_interface.sol\":346:354  _counter */\n  dup1\n    /* \"C2E_learning/041_interface.sol\":327:334  counter */\n  0x00\n  0x00\n    /* \"C2E_learning/041_interface.sol\":327:355  counter = ICounter(_counter) */\n  0x0100\n  exp\n  dup2\n  sload\n  dup2\n  0xffffffffffffffffffffffffffffffffffffffff\n  mul\n  not\n  and\n  swap1\n  dup4\n  0xffffffffffffffffffffffffffffffffffffffff\n  and\n  mul\n  or\n  swap1\n  sstore\n  pop\n    /* \"C2E_learning/041_interface.sol\":287:362  constructor(address _counter) {... */\n  pop\n    /* \"C2E_learning/041_interface.sol\":208:521  contract CallCounter{... */\n  jump(tag_6)\n    /* \"#utility.yul\":88:205   */\ntag_8:\n    /* \"#utility.yul\":197:198   */\n  0x00\n    /* \"#utility.yul\":194:195   */\n  0x00\n    /* \"#utility.yul\":187:199   */\n  revert\n    /* \"#utility.yul\":334:460   */\ntag_10:\n    /* \"#utility.yul\":371:378   */\n  0x00\n    /* \"#utility.yul\":411:453   */\n  0xffffffffffffffffffffffffffffffffffffffff\n    /* \"#utility.yul\":404:409   */\n  dup3\n    /* \"#utility.yul\":400:454   */\n  and\n    /* \"#utility.yul\":389:454   */\n  swap1\n  pop\n    /* \"#utility.yul\":334:460   */\n  swap2\n  swap1\n  pop\n  jump\t// out\n    /* \"#utility.yul\":466:562   */\ntag_11:\n    /* \"#utility.yul\":503:510   */\n  0x00\n    /* \"#utility.yul\":532:556   */\n  tag_20\n    /* \"#utility.yul\":550:555   */\n  dup3\n    /* \"#utility.yul\":532:556   */\n  tag_10\n  jump\t// in\ntag_20:\n    /* \"#utility.yul\":521:556   */\n  swap1\n  pop\n    /* \"#utility.yul\":466:562   */\n  swap2\n  swap1\n  pop\n  jump\t// out\n    /* \"#utility.yul\":568:690   */\ntag_12:\n    /* \"#utility.yul\":641:665   */\n  tag_22\n    /* \"#utility.yul\":659:664   */\n  dup2\n    /* \"#utility.yul\":641:665   */\n  tag_11\n  jump\t// in\ntag_22:\n    /* \"#utility.yul\":634:639   */\n  dup2\n    /* \"#utility.yul\":631:666   */\n  eq\n    /* \"#utility.yul\":621:684   */\n  tag_23\n  jumpi\n    /* \"#utility.yul\":680:681   */\n  0x00\n    /* \"#utility.yul\":677:678   */\n  0x00\n    /* \"#utility.yul\":670:682   */\n  revert\n    /* \"#utility.yul\":621:684   */\ntag_23:\n    /* \"#utility.yul\":568:690   */\n  pop\n  jump\t// out\n    /* \"#utility.yul\":696:839   */\ntag_13:\n    /* \"#utility.yul\":753:758   */\n  0x00\n    /* \"#utility.yul\":784:790   */\n  dup2\n    /* \"#utility.yul\":778:791   */\n  mload\n    /* \"#utility.yul\":769:791   */\n  swap1\n  pop\n    /* \"#utility.yul\":800:833   */\n  tag_25\n    /* \"#utility.yul\":827:832   */\n  dup2\n    /* \"#utility.yul\":800:833   */\n  tag_12\n  jump\t// in\ntag_25:\n    /* \"#utility.yul\":696:839   */\n  swap3\n  swap2\n  pop\n  pop\n  jump\t// out\n    /* \"#utility.yul\":845:1196   */\ntag_3:\n    /* \"#utility.yul\":915:921   */\n  0x00\n    /* \"#utility.yul\":964:966   */\n  0x20\n    /* \"#utility.yul\":952:961   */\n  dup3\n    /* \"#utility.yul\":943:950   */\n  dup5\n    /* \"#utility.yul\":939:962   */\n  sub\n    /* \"#utility.yul\":935:967   */\n  slt\n    /* \"#utility.yul\":932:1051   */\n  iszero\n  tag_27\n  jumpi\n    /* \"#utility.yul\":970:1049   */\n  tag_28\n  tag_8\n  jump\t// in\ntag_28:\n    /* \"#utility.yul\":932:1051   */\ntag_27:\n    /* \"#utility.yul\":1090:1091   */\n  0x00\n    /* \"#utility.yul\":1115:1179   */\n  tag_29\n    /* \"#utility.yul\":1171:1178   */\n  dup5\n    /* \"#utility.yul\":1162:1168   */\n  dup3\n    /* \"#utility.yul\":1151:1160   */\n  dup6\n    /* \"#utility.yul\":1147:1169   */\n  add\n    /* \"#utility.yul\":1115:1179   */\n  tag_13\n  jump\t// in\ntag_29:\n    /* \"#utility.yul\":1105:1179   */\n  swap2\n  pop\n    /* \"#utility.yul\":1061:1189   */\n  pop\n    /* \"#utility.yul\":845:1196   */\n  swap3\n  swap2\n  pop\n  pop\n  jump\t// out\n    /* \"C2E_learning/041_interface.sol\":208:521  contract CallCounter{... */\ntag_6:\n  dataSize(sub_0)\n  dup1\n  dataOffset(sub_0)\n  0x00\n  codecopy\n  0x00\n  return\nstop\n\nsub_0: assembly {\n        /* \"C2E_learning/041_interface.sol\":208:521  contract CallCounter{... */\n      mstore(0x40, 0x80)\n      callvalue\n      dup1\n      iszero\n      tag_1\n      jumpi\n      revert(0x00, 0x00)\n    tag_1:\n      pop\n      jumpi(tag_2, lt(calldatasize, 0x04))\n      shr(0xe0, calldataload(0x00))\n      dup1\n      0x06661abd\n      eq\n      tag_3\n      jumpi\n      dup1\n      0x5b34b966\n      eq\n      tag_4\n      jumpi\n      dup1\n      0x61bc221a\n      eq\n      tag_5\n      jumpi\n      dup1\n      0x69b4ecc9\n      eq\n      tag_6\n      jumpi\n    tag_2:\n      revert(0x00, 0x00)\n        /* \"C2E_learning/041_interface.sol\":263:280  uint public count */\n    tag_3:\n      tag_7\n      tag_8\n      jump\t// in\n    tag_7:\n      mload(0x40)\n      tag_9\n      swap2\n      swap1\n      tag_10\n      jump\t// in\n    tag_9:\n      mload(0x40)\n      dup1\n      swap2\n      sub\n      swap1\n      return\n        /* \"C2E_learning/041_interface.sol\":368:441  function incrementCounter() external {... */\n    tag_4:\n      tag_11\n      tag_12\n      jump\t// in\n    tag_11:\n      stop\n        /* \"C2E_learning/041_interface.sol\":234:257  ICounter public counter */\n    tag_5:\n      tag_13\n      tag_14\n      jump\t// in\n    tag_13:\n      mload(0x40)\n      tag_15\n      swap2\n      swap1\n      tag_16\n      jump\t// in\n    tag_15:\n      mload(0x40)\n      dup1\n      swap2\n      sub\n      swap1\n      return\n        /* \"C2E_learning/041_interface.sol\":447:519  function updateCount() external {... */\n    tag_6:\n      tag_17\n      tag_18\n      jump\t// in\n    tag_17:\n      stop\n        /* \"C2E_learning/041_interface.sol\":263:280  uint public count */\n    tag_8:\n      sload(0x01)\n      dup2\n      jump\t// out\n        /* \"C2E_learning/041_interface.sol\":368:441  function incrementCounter() external {... */\n    tag_12:\n        /* \"C2E_learning/041_interface.sol\":415:422  counter */\n      0x00\n      0x00\n      swap1\n      sload\n      swap1\n      0x0100\n      exp\n      swap1\n      div\n      0xffffffffffffffffffffffffffffffffffffffff\n      and\n        /* \"C2E_learning/041_interface.sol\":415:432  counter.increment */\n      0xffffffffffffffffffffffffffffffffffffffff\n      and\n      0xd09de08a\n        /* \"C2E_learning/041_interface.sol\":415:434  counter.increment() */\n      mload(0x40)\n      dup2\n      0xffffffff\n      and\n      0xe0\n      shl\n      dup2\n      mstore\n      0x04\n      add\n      0x00\n      mload(0x40)\n      dup1\n      dup4\n      sub\n      dup2\n      0x00\n      dup8\n      dup1\n      extcodesize\n      iszero\n      dup1\n      iszero\n      tag_20\n      jumpi\n      revert(0x00, 0x00)\n    tag_20:\n      pop\n      gas\n      call\n      iszero\n      dup1\n      iszero\n      tag_22\n      jumpi\n      returndatacopy(0x00, 0x00, returndatasize)\n      revert(0x00, returndatasize)\n    tag_22:\n      pop\n      pop\n      pop\n      pop\n        /* \"C2E_learning/041_interface.sol\":368:441  function incrementCounter() external {... */\n      jump\t// out\n        /* \"C2E_learning/041_interface.sol\":234:257  ICounter public counter */\n    tag_14:\n      0x00\n      0x00\n      swap1\n      sload\n      swap1\n      0x0100\n      exp\n      swap1\n      div\n      0xffffffffffffffffffffffffffffffffffffffff\n      and\n      dup2\n      jump\t// out\n        /* \"C2E_learning/041_interface.sol\":447:519  function updateCount() external {... */\n    tag_18:\n        /* \"C2E_learning/041_interface.sol\":497:504  counter */\n      0x00\n      0x00\n      swap1\n      sload\n      swap1\n      0x0100\n      exp\n      swap1\n      div\n      0xffffffffffffffffffffffffffffffffffffffff\n      and\n        /* \"C2E_learning/041_interface.sol\":497:510  counter.count */\n      0xffffffffffffffffffffffffffffffffffffffff\n      and\n      0x06661abd\n        /* \"C2E_learning/041_interface.sol\":497:512  counter.count() */\n      mload(0x40)\n      dup2\n      0xffffffff\n      and\n      0xe0\n      shl\n      dup2\n      mstore\n      0x04\n      add\n      0x20\n      mload(0x40)\n      dup1\n      dup4\n      sub\n      dup2\n      dup7\n      gas\n      staticcall\n      iszero\n      dup1\n      iszero\n      tag_25\n      jumpi\n      returndatacopy(0x00, 0x00, returndatasize)\n      revert(0x00, returndatasize)\n    tag_25:\n      pop\n      pop\n      pop\n      pop\n      mload(0x40)\n      returndatasize\n      not(0x1f)\n      0x1f\n      dup3\n      add\n      and\n      dup3\n      add\n      dup1\n      0x40\n      mstore\n      pop\n      dup2\n      add\n      swap1\n      tag_26\n      swap2\n      swap1\n      tag_27\n      jump\t// in\n    tag_26:\n        /* \"C2E_learning/041_interface.sol\":489:494  count */\n      0x01\n        /* \"C2E_learning/041_interface.sol\":489:512  count = counter.count() */\n      dup2\n      swap1\n      sstore\n      pop\n        /* \"C2E_learning/041_interface.sol\":447:519  function updateCount() external {... */\n      jump\t// out\n        /* \"#utility.yul\":7:84   */\n    tag_28:\n        /* \"#utility.yul\":44:51   */\n      0x00\n        /* \"#utility.yul\":73:78   */\n      dup2\n        /* \"#utility.yul\":62:78   */\n      swap1\n      pop\n        /* \"#utility.yul\":7:84   */\n      swap2\n      swap1\n      pop\n      jump\t// out\n        /* \"#utility.yul\":90:208   */\n    tag_29:\n        /* \"#utility.yul\":177:201   */\n      tag_44\n        /* \"#utility.yul\":195:200   */\n      dup2\n        /* \"#utility.yul\":177:201   */\n      tag_28\n      jump\t// in\n    tag_44:\n        /* \"#utility.yul\":172:175   */\n      dup3\n        /* \"#utility.yul\":165:202   */\n      mstore\n        /* \"#utility.yul\":90:208   */\n      pop\n      pop\n      jump\t// out\n        /* \"#utility.yul\":214:436   */\n    tag_10:\n        /* \"#utility.yul\":307:311   */\n      0x00\n        /* \"#utility.yul\":345:347   */\n      0x20\n        /* \"#utility.yul\":334:343   */\n      dup3\n        /* \"#utility.yul\":330:348   */\n      add\n        /* \"#utility.yul\":322:348   */\n      swap1\n      pop\n        /* \"#utility.yul\":358:429   */\n      tag_46\n        /* \"#utility.yul\":426:427   */\n      0x00\n        /* \"#utility.yul\":415:424   */\n      dup4\n        /* \"#utility.yul\":411:428   */\n      add\n        /* \"#utility.yul\":402:408   */\n      dup5\n        /* \"#utility.yul\":358:429   */\n      tag_29\n      jump\t// in\n    tag_46:\n        /* \"#utility.yul\":214:436   */\n      swap3\n      swap2\n      pop\n      pop\n      jump\t// out\n        /* \"#utility.yul\":442:568   */\n    tag_30:\n        /* \"#utility.yul\":479:486   */\n      0x00\n        /* \"#utility.yul\":519:561   */\n      0xffffffffffffffffffffffffffffffffffffffff\n        /* \"#utility.yul\":512:517   */\n      dup3\n        /* \"#utility.yul\":508:562   */\n      and\n        /* \"#utility.yul\":497:562   */\n      swap1\n      pop\n        /* \"#utility.yul\":442:568   */\n      swap2\n      swap1\n      pop\n      jump\t// out\n        /* \"#utility.yul\":574:634   */\n    tag_31:\n        /* \"#utility.yul\":602:605   */\n      0x00\n        /* \"#utility.yul\":623:628   */\n      dup2\n        /* \"#utility.yul\":616:628   */\n      swap1\n      pop\n        /* \"#utility.yul\":574:634   */\n      swap2\n      swap1\n      pop\n      jump\t// out\n        /* \"#utility.yul\":640:782   */\n    tag_32:\n        /* \"#utility.yul\":690:699   */\n      0x00\n        /* \"#utility.yul\":723:776   */\n      tag_50\n        /* \"#utility.yul\":741:775   */\n      tag_51\n        /* \"#utility.yul\":750:774   */\n      tag_52\n        /* \"#utility.yul\":768:773   */\n      dup5\n        /* \"#utility.yul\":750:774   */\n      tag_30\n      jump\t// in\n    tag_52:\n        /* \"#utility.yul\":741:775   */\n      tag_31\n      jump\t// in\n    tag_51:\n        /* \"#utility.yul\":723:776   */\n      tag_30\n      jump\t// in\n    tag_50:\n        /* \"#utility.yul\":710:776   */\n      swap1\n      pop\n        /* \"#utility.yul\":640:782   */\n      swap2\n      swap1\n      pop\n      jump\t// out\n        /* \"#utility.yul\":788:914   */\n    tag_33:\n        /* \"#utility.yul\":838:847   */\n      0x00\n        /* \"#utility.yul\":871:908   */\n      tag_54\n        /* \"#utility.yul\":902:907   */\n      dup3\n        /* \"#utility.yul\":871:908   */\n      tag_32\n      jump\t// in\n    tag_54:\n        /* \"#utility.yul\":858:908   */\n      swap1\n      pop\n        /* \"#utility.yul\":788:914   */\n      swap2\n      swap1\n      pop\n      jump\t// out\n        /* \"#utility.yul\":920:1061   */\n    tag_34:\n        /* \"#utility.yul\":985:994   */\n      0x00\n        /* \"#utility.yul\":1018:1055   */\n      tag_56\n        /* \"#utility.yul\":1049:1054   */\n      dup3\n        /* \"#utility.yul\":1018:1055   */\n      tag_33\n      jump\t// in\n    tag_56:\n        /* \"#utility.yul\":1005:1055   */\n      swap1\n      pop\n        /* \"#utility.yul\":920:1061   */\n      swap2\n      swap1\n      pop\n      jump\t// out\n        /* \"#utility.yul\":1067:1228   */\n    tag_35:\n        /* \"#utility.yul\":1169:1221   */\n      tag_58\n        /* \"#utility.yul\":1215:1220   */\n      dup2\n        /* \"#utility.yul\":1169:1221   */\n      tag_34\n      jump\t// in\n    tag_58:\n        /* \"#utility.yul\":1164:1167   */\n      dup3\n        /* \"#utility.yul\":1157:1222   */\n      mstore\n        /* \"#utility.yul\":1067:1228   */\n      pop\n      pop\n      jump\t// out\n        /* \"#utility.yul\":1234:1486   */\n    tag_16:\n        /* \"#utility.yul\":1342:1346   */\n      0x00\n        /* \"#utility.yul\":1380:1382   */\n      0x20\n        /* \"#utility.yul\":1369:1378   */\n      dup3\n        /* \"#utility.yul\":1365:1383   */\n      add\n        /* \"#utility.yul\":1357:1383   */\n      swap1\n      pop\n        /* \"#utility.yul\":1393:1479   */\n      tag_60\n        /* \"#utility.yul\":1476:1477   */\n      0x00\n        /* \"#utility.yul\":1465:1474   */\n      dup4\n        /* \"#utility.yul\":1461:1478   */\n      add\n        /* \"#utility.yul\":1452:1458   */\n      dup5\n        /* \"#utility.yul\":1393:1479   */\n      tag_35\n      jump\t// in\n    tag_60:\n        /* \"#utility.yul\":1234:1486   */\n      swap3\n      swap2\n      pop\n      pop\n      jump\t// out\n        /* \"#utility.yul\":1573:1690   */\n    tag_37:\n        /* \"#utility.yul\":1682:1683   */\n      0x00\n        /* \"#utility.yul\":1679:1680   */\n      0x00\n        /* \"#utility.yul\":1672:1684   */\n      revert\n        /* \"#utility.yul\":1819:1941   */\n    tag_39:\n        /* \"#utility.yul\":1892:1916   */\n      tag_65\n        /* \"#utility.yul\":1910:1915   */\n      dup2\n        /* \"#utility.yul\":1892:1916   */\n      tag_28\n      jump\t// in\n    tag_65:\n        /* \"#utility.yul\":1885:1890   */\n      dup2\n        /* \"#utility.yul\":1882:1917   */\n      eq\n        /* \"#utility.yul\":1872:1935   */\n      tag_66\n      jumpi\n        /* \"#utility.yul\":1931:1932   */\n      0x00\n        /* \"#utility.yul\":1928:1929   */\n      0x00\n        /* \"#utility.yul\":1921:1933   */\n      revert\n        /* \"#utility.yul\":1872:1935   */\n    tag_66:\n        /* \"#utility.yul\":1819:1941   */\n      pop\n      jump\t// out\n        /* \"#utility.yul\":1947:2090   */\n    tag_40:\n        /* \"#utility.yul\":2004:2009   */\n      0x00\n        /* \"#utility.yul\":2035:2041   */\n      dup2\n        /* \"#utility.yul\":2029:2042   */\n      mload\n        /* \"#utility.yul\":2020:2042   */\n      swap1\n      pop\n        /* \"#utility.yul\":2051:2084   */\n      tag_68\n        /* \"#utility.yul\":2078:2083   */\n      dup2\n        /* \"#utility.yul\":2051:2084   */\n      tag_39\n      jump\t// in\n    tag_68:\n        /* \"#utility.yul\":1947:2090   */\n      swap3\n      swap2\n      pop\n      pop\n      jump\t// out\n        /* \"#utility.yul\":2096:2447   */\n    tag_27:\n        /* \"#utility.yul\":2166:2172   */\n      0x00\n        /* \"#utility.yul\":2215:2217   */\n      0x20\n        /* \"#utility.yul\":2203:2212   */\n      dup3\n        /* \"#utility.yul\":2194:2201   */\n      dup5\n        /* \"#utility.yul\":2190:2213   */\n      sub\n        /* \"#utility.yul\":2186:2218   */\n      slt\n        /* \"#utility.yul\":2183:2302   */\n      iszero\n      tag_70\n      jumpi\n        /* \"#utility.yul\":2221:2300   */\n      tag_71\n      tag_37\n      jump\t// in\n    tag_71:\n        /* \"#utility.yul\":2183:2302   */\n    tag_70:\n        /* \"#utility.yul\":2341:2342   */\n      0x00\n        /* \"#utility.yul\":2366:2430   */\n      tag_72\n        /* \"#utility.yul\":2422:2429   */\n      dup5\n        /* \"#utility.yul\":2413:2419   */\n      dup3\n        /* \"#utility.yul\":2402:2411   */\n      dup6\n        /* \"#utility.yul\":2398:2420   */\n      add\n        /* \"#utility.yul\":2366:2430   */\n      tag_40\n      jump\t// in\n    tag_72:\n        /* \"#utility.yul\":2356:2430   */\n      swap2\n      pop\n        /* \"#utility.yul\":2312:2440   */\n      pop\n        /* \"#utility.yul\":2096:2447   */\n      swap3\n      swap2\n      pop\n      pop\n      jump\t// out\n\n    auxdata: 0xa2646970667358221220a95f2c8164f7da2fd6824e7343d61d657177e3fe0797ad1dfc2b40f79b413b1264736f6c634300081e0033\n}\n",
				"bytecode": {
					"linkReferences": {},
					"object": "608060405234801561000f575f5ffd5b50604051610439380380610439833981810160405281019061003191906100d4565b805f5f6101000a81548173ffffffffffffffffffffffffffffffffffffffff021916908373ffffffffffffffffffffffffffffffffffffffff160217905550506100ff565b5f5ffd5b5f73ffffffffffffffffffffffffffffffffffffffff82169050919050565b5f6100a38261007a565b9050919050565b6100b381610099565b81146100bd575f5ffd5b50565b5f815190506100ce816100aa565b92915050565b5f602082840312156100e9576100e8610076565b5b5f6100f6848285016100c0565b91505092915050565b61032d8061010c5f395ff3fe608060405234801561000f575f5ffd5b506004361061004a575f3560e01c806306661abd1461004e5780635b34b9661461006c57806361bc221a1461007657806369b4ecc914610094575b5f5ffd5b61005661009e565b60405161006391906101f2565b60405180910390f35b6100746100a4565b005b61007e610121565b60405161008b9190610285565b60405180910390f35b61009c610145565b005b60015481565b5f5f9054906101000a900473ffffffffffffffffffffffffffffffffffffffff1673ffffffffffffffffffffffffffffffffffffffff1663d09de08a6040518163ffffffff1660e01b81526004015f604051808303815f87803b158015610109575f5ffd5b505af115801561011b573d5f5f3e3d5ffd5b50505050565b5f5f9054906101000a900473ffffffffffffffffffffffffffffffffffffffff1681565b5f5f9054906101000a900473ffffffffffffffffffffffffffffffffffffffff1673ffffffffffffffffffffffffffffffffffffffff166306661abd6040518163ffffffff1660e01b8152600401602060405180830381865afa1580156101ae573d5f5f3e3d5ffd5b505050506040513d601f19601f820116820180604052508101906101d291906102cc565b600181905550565b5f819050919050565b6101ec816101da565b82525050565b5f6020820190506102055f8301846101e3565b92915050565b5f73ffffffffffffffffffffffffffffffffffffffff82169050919050565b5f819050919050565b5f61024d6102486102438461020b565b61022a565b61020b565b9050919050565b5f61025e82610233565b9050919050565b5f61026f82610254565b9050919050565b61027f81610265565b82525050565b5f6020820190506102985f830184610276565b92915050565b5f5ffd5b6102ab816101da565b81146102b5575f5ffd5b50565b5f815190506102c6816102a2565b92915050565b5f602082840312156102e1576102e061029e565b5b5f6102ee848285016102b8565b9150509291505056fea2646970667358221220a95f2c8164f7da2fd6824e7343d61d657177e3fe0797ad1dfc2b40f79b413b1264736f6c634300081e0033",
					"opcodes": "PUSH1 0x80 PUSH1 0x40 MSTORE CALLVALUE DUP1 ISZERO PUSH2 0xF JUMPI PUSH0 PUSH0 REVERT JUMPDEST POP PUSH1 0x40 MLOAD PUSH2 0x439 CODESIZE SUB DUP1 PUSH2 0x439 DUP4 CODECOPY DUP2 DUP2 ADD PUSH1 0x40 MSTORE DUP2 ADD SWAP1 PUSH2 0x31 SWAP2 SWAP1 PUSH2 0xD4 JUMP JUMPDEST DUP1 PUSH0 PUSH0 PUSH2 0x100 EXP DUP2 SLOAD DUP2 PUSH20 0xFFFFFFFFFFFFFFFFFFFFFFFFFFFFFFFFFFFFFFFF MUL NOT AND SWAP1 DUP4 PUSH20 0xFFFFFFFFFFFFFFFFFFFFFFFFFFFFFFFFFFFFFFFF AND MUL OR SWAP1 SSTORE POP POP PUSH2 0xFF JUMP JUMPDEST PUSH0 PUSH0 REVERT JUMPDEST PUSH0 PUSH20 0xFFFFFFFFFFFFFFFFFFFFFFFFFFFFFFFFFFFFFFFF DUP3 AND SWAP1 POP SWAP2 SWAP1 POP JUMP JUMPDEST PUSH0 PUSH2 0xA3 DUP3 PUSH2 0x7A JUMP JUMPDEST SWAP1 POP SWAP2 SWAP1 POP JUMP JUMPDEST PUSH2 0xB3 DUP2 PUSH2 0x99 JUMP JUMPDEST DUP2 EQ PUSH2 0xBD JUMPI PUSH0 PUSH0 REVERT JUMPDEST POP JUMP JUMPDEST PUSH0 DUP2 MLOAD SWAP1 POP PUSH2 0xCE DUP2 PUSH2 0xAA JUMP JUMPDEST SWAP3 SWAP2 POP POP JUMP JUMPDEST PUSH0 PUSH1 0x20 DUP3 DUP5 SUB SLT ISZERO PUSH2 0xE9 JUMPI PUSH2 0xE8 PUSH2 0x76 JUMP JUMPDEST JUMPDEST PUSH0 PUSH2 0xF6 DUP5 DUP3 DUP6 ADD PUSH2 0xC0 JUMP JUMPDEST SWAP2 POP POP SWAP3 SWAP2 POP POP JUMP JUMPDEST PUSH2 0x32D DUP1 PUSH2 0x10C PUSH0 CODECOPY PUSH0 RETURN INVALID PUSH1 0x80 PUSH1 0x40 MSTORE CALLVALUE DUP1 ISZERO PUSH2 0xF JUMPI PUSH0 PUSH0 REVERT JUMPDEST POP PUSH1 0x4 CALLDATASIZE LT PUSH2 0x4A JUMPI PUSH0 CALLDATALOAD PUSH1 0xE0 SHR DUP1 PUSH4 0x6661ABD EQ PUSH2 0x4E JUMPI DUP1 PUSH4 0x5B34B966 EQ PUSH2 0x6C JUMPI DUP1 PUSH4 0x61BC221A EQ PUSH2 0x76 JUMPI DUP1 PUSH4 0x69B4ECC9 EQ PUSH2 0x94 JUMPI JUMPDEST PUSH0 PUSH0 REVERT JUMPDEST PUSH2 0x56 PUSH2 0x9E JUMP JUMPDEST PUSH1 0x40 MLOAD PUSH2 0x63 SWAP2 SWAP1 PUSH2 0x1F2 JUMP JUMPDEST PUSH1 0x40 MLOAD DUP1 SWAP2 SUB SWAP1 RETURN JUMPDEST PUSH2 0x74 PUSH2 0xA4 JUMP JUMPDEST STOP JUMPDEST PUSH2 0x7E PUSH2 0x121 JUMP JUMPDEST PUSH1 0x40 MLOAD PUSH2 0x8B SWAP2 SWAP1 PUSH2 0x285 JUMP JUMPDEST PUSH1 0x40 MLOAD DUP1 SWAP2 SUB SWAP1 RETURN JUMPDEST PUSH2 0x9C PUSH2 0x145 JUMP JUMPDEST STOP JUMPDEST PUSH1 0x1 SLOAD DUP2 JUMP JUMPDEST PUSH0 PUSH0 SWAP1 SLOAD SWAP1 PUSH2 0x100 EXP SWAP1 DIV PUSH20 0xFFFFFFFFFFFFFFFFFFFFFFFFFFFFFFFFFFFFFFFF AND PUSH20 0xFFFFFFFFFFFFFFFFFFFFFFFFFFFFFFFFFFFFFFFF AND PUSH4 0xD09DE08A PUSH1 0x40 MLOAD DUP2 PUSH4 0xFFFFFFFF AND PUSH1 0xE0 SHL DUP2 MSTORE PUSH1 0x4 ADD PUSH0 PUSH1 0x40 MLOAD DUP1 DUP4 SUB DUP2 PUSH0 DUP8 DUP1 EXTCODESIZE ISZERO DUP1 ISZERO PUSH2 0x109 JUMPI PUSH0 PUSH0 REVERT JUMPDEST POP GAS CALL ISZERO DUP1 ISZERO PUSH2 0x11B JUMPI RETURNDATASIZE PUSH0 PUSH0 RETURNDATACOPY RETURNDATASIZE PUSH0 REVERT JUMPDEST POP POP POP POP JUMP JUMPDEST PUSH0 PUSH0 SWAP1 SLOAD SWAP1 PUSH2 0x100 EXP SWAP1 DIV PUSH20 0xFFFFFFFFFFFFFFFFFFFFFFFFFFFFFFFFFFFFFFFF AND DUP2 JUMP JUMPDEST PUSH0 PUSH0 SWAP1 SLOAD SWAP1 PUSH2 0x100 EXP SWAP1 DIV PUSH20 0xFFFFFFFFFFFFFFFFFFFFFFFFFFFFFFFFFFFFFFFF AND PUSH20 0xFFFFFFFFFFFFFFFFFFFFFFFFFFFFFFFFFFFFFFFF AND PUSH4 0x6661ABD PUSH1 0x40 MLOAD DUP2 PUSH4 0xFFFFFFFF AND PUSH1 0xE0 SHL DUP2 MSTORE PUSH1 0x4 ADD PUSH1 0x20 PUSH1 0x40 MLOAD DUP1 DUP4 SUB DUP2 DUP7 GAS STATICCALL ISZERO DUP1 ISZERO PUSH2 0x1AE JUMPI RETURNDATASIZE PUSH0 PUSH0 RETURNDATACOPY RETURNDATASIZE PUSH0 REVERT JUMPDEST POP POP POP POP PUSH1 0x40 MLOAD RETURNDATASIZE PUSH1 0x1F NOT PUSH1 0x1F DUP3 ADD AND DUP3 ADD DUP1 PUSH1 0x40 MSTORE POP DUP2 ADD SWAP1 PUSH2 0x1D2 SWAP2 SWAP1 PUSH2 0x2CC JUMP JUMPDEST PUSH1 0x1 DUP2 SWAP1 SSTORE POP JUMP JUMPDEST PUSH0 DUP2 SWAP1 POP SWAP2 SWAP1 POP JUMP JUMPDEST PUSH2 0x1EC DUP2 PUSH2 0x1DA JUMP JUMPDEST DUP3 MSTORE POP POP JUMP JUMPDEST PUSH0 PUSH1 0x20 DUP3 ADD SWAP1 POP PUSH2 0x205 PUSH0 DUP4 ADD DUP5 PUSH2 0x1E3 JUMP JUMPDEST SWAP3 SWAP2 POP POP JUMP JUMPDEST PUSH0 PUSH20 0xFFFFFFFFFFFFFFFFFFFFFFFFFFFFFFFFFFFFFFFF DUP3 AND SWAP1 POP SWAP2 SWAP1 POP JUMP JUMPDEST PUSH0 DUP2 SWAP1 POP SWAP2 SWAP1 POP JUMP JUMPDEST PUSH0 PUSH2 0x24D PUSH2 0x248 PUSH2 0x243 DUP5 PUSH2 0x20B JUMP JUMPDEST PUSH2 0x22A JUMP JUMPDEST PUSH2 0x20B JUMP JUMPDEST SWAP1 POP SWAP2 SWAP1 POP JUMP JUMPDEST PUSH0 PUSH2 0x25E DUP3 PUSH2 0x233 JUMP JUMPDEST SWAP1 POP SWAP2 SWAP1 POP JUMP JUMPDEST PUSH0 PUSH2 0x26F DUP3 PUSH2 0x254 JUMP JUMPDEST SWAP1 POP SWAP2 SWAP1 POP JUMP JUMPDEST PUSH2 0x27F DUP2 PUSH2 0x265 JUMP JUMPDEST DUP3 MSTORE POP POP JUMP JUMPDEST PUSH0 PUSH1 0x20 DUP3 ADD SWAP1 POP PUSH2 0x298 PUSH0 DUP4 ADD DUP5 PUSH2 0x276 JUMP JUMPDEST SWAP3 SWAP2 POP POP JUMP JUMPDEST PUSH0 PUSH0 REVERT JUMPDEST PUSH2 0x2AB DUP2 PUSH2 0x1DA JUMP JUMPDEST DUP2 EQ PUSH2 0x2B5 JUMPI PUSH0 PUSH0 REVERT JUMPDEST POP JUMP JUMPDEST PUSH0 DUP2 MLOAD SWAP1 POP PUSH2 0x2C6 DUP2 PUSH2 0x2A2 JUMP JUMPDEST SWAP3 SWAP2 POP POP JUMP JUMPDEST PUSH0 PUSH1 0x20 DUP3 DUP5 SUB SLT ISZERO PUSH2 0x2E1 JUMPI PUSH2 0x2E0 PUSH2 0x29E JUMP JUMPDEST JUMPDEST PUSH0 PUSH2 0x2EE DUP5 DUP3 DUP6 ADD PUSH2 0x2B8 JUMP JUMPDEST SWAP2 POP POP SWAP3 SWAP2 POP POP JUMP INVALID LOG2 PUSH5 0x6970667358 0x22 SLT KECCAK256 0xA9 PUSH0 0x2C DUP2 PUSH5 0xF7DA2FD682 0x4E PUSH20 0x43D61D657177E3FE0797AD1DFC2B40F79B413B12 PUSH5 0x736F6C6343 STOP ADDMOD 0x1E STOP CALLER "
				},
				"gasEstimates": {
					"creation": {
						"codeDepositCost": "162600",
						"executionCost": "infinite",
						"totalCost": "infinite"
					},
					"external": {
						"count()": "2403",
						"counter()": "infinite",
						"incrementCounter()": "infinite",
						"updateCount()": "infinite"
					}
				},
				"methodIdentifiers": {
					"count()": "06661abd",
					"counter()": "61bc221a",
					"incrementCounter()": "5b34b966",
					"updateCount()": "69b4ecc9"
				}
			},
			"storageLayout": {
				"storage": [
					{
						"astId": 13,
						"contract": "C2E_learning/041_interface.sol:CallCounter",
						"label": "counter",
						"offset": 0,
						"slot": "0",
						"type": "t_contract(ICounter)10"
					},
					{
						"astId": 15,
						"contract": "C2E_learning/041_interface.sol:CallCounter",
						"label": "count",
						"offset": 0,
						"slot": "1",
						"type": "t_uint256"
					}
				],
				"types": {
					"t_contract(ICounter)10": {
						"encoding": "inplace",
						"label": "contract ICounter",
						"numberOfBytes": "20"
					},
					"t_uint256": {
						"encoding": "inplace",
						"label": "uint256",
						"numberOfBytes": "32"
					}
				}
			},
			"userdoc": {
				"kind": "user",
				"methods": {},
				"version": 1
			}
		}
	}
}