{
	"C2E_learning/038_send_eth.sol": {
		"SendEther": {
			"abi": [
				{
					"anonymous": false,
					"inputs": [
						{
							"indexed": false,
							"internalType": "uint256",
							"name": "amount",
							"type": "uint256"
						},
						{
							"indexed": false,
							"internalType": "uint256",
							"name": "gas",
							"type": "uint256"
						}
					],
					"name": "Log",
					"type": "event"
				},
				{
					"inputs": [
						{
							"internalType": "address payable",
							"name": "_to",
							"type": "address"
						},
						{
							"internalType": "uint256",
							"name": "_amount",
							"type": "uint256"
						}
					],
					"name": "sendByCall",
					"outputs": [
						{
							"internalType": "bool",
							"name": "",
							"type": "bool"
						}
					],
					"stateMutability": "nonpayable",
					"type": "function"
				},
				{
					"inputs": [
						{
							"internalType": "address payable",
							"name": "_to",
							"type": "address"
						},
						{
							"internalType": "uint256",
							"name": "_amount",
							"type": "uint256"
						}
					],
					"name": "sendBySend",
					"outputs": [
						{
							"internalType": "bool",
							"name": "",
							"type": "bool"
						}
					],
					"stateMutability": "nonpayable",
					"type": "function"
				},
				{
					"inputs": [
						{
							"internalType": "address payable",
							"name": "_to",
							"type": "address"
						},
						{
							"internalType": "uint256",
							"name": "_amount",
							"type": "uint256"
						}
					],
					"name": "sendByTransfer",
					"outputs": [],
					"stateMutability": "nonpayable",
					"type": "function"
				},
				{
					"stateMutability": "payable",
					"type": "receive"
				}
			],
			"devdoc": {
				"kind": "dev",
				"methods": {},
				"version": 1
			},
			"evm": {
				"assembly": "    /* \"C2E_learning/038_send_eth.sol\":57:769  contract SendEther {... */\n  mstore(0x40, 0x80)\n  callvalue\n  dup1\n  iszero\n  tag_1\n  jumpi\n  revert(0x00, 0x00)\ntag_1:\n  pop\n  dataSize(sub_0)\n  dup1\n  dataOffset(sub_0)\n  0x00\n  codecopy\n  0x00\n  return\nstop\n\nsub_0: assembly {\n        /* \"C2E_learning/038_send_eth.sol\":57:769  contract SendEther {... */\n      mstore(0x40, 0x80)\n      jumpi(tag_1, lt(calldatasize, 0x04))\n      shr(0xe0, calldataload(0x00))\n      dup1\n      0x2424f17a\n      eq\n      tag_3\n      jumpi\n      dup1\n      0xcbadad31\n      eq\n      tag_4\n      jumpi\n      dup1\n      0xd19ec362\n      eq\n      tag_5\n      jumpi\n      jump(tag_2)\n    tag_1:\n      jumpi(tag_2, calldatasize)\n      stop\n    tag_2:\n      revert(0x00, 0x00)\n        /* \"C2E_learning/038_send_eth.sol\":211:314  function sendByTransfer(address payable _to, uint _amount) public{... */\n    tag_3:\n      callvalue\n      dup1\n      iszero\n      tag_8\n      jumpi\n      revert(0x00, 0x00)\n    tag_8:\n      pop\n      tag_9\n      0x04\n      dup1\n      calldatasize\n      sub\n      dup2\n      add\n      swap1\n      tag_10\n      swap2\n      swap1\n      tag_11\n      jump\t// in\n    tag_10:\n      tag_12\n      jump\t// in\n    tag_9:\n      stop\n        /* \"C2E_learning/038_send_eth.sol\":347:528  function sendBySend(address payable _to, uint _amount) public returns (bool){... */\n    tag_4:\n      callvalue\n      dup1\n      iszero\n      tag_13\n      jumpi\n      revert(0x00, 0x00)\n    tag_13:\n      pop\n      tag_14\n      0x04\n      dup1\n      calldatasize\n      sub\n      dup2\n      add\n      swap1\n      tag_15\n      swap2\n      swap1\n      tag_11\n      jump\t// in\n    tag_15:\n      tag_16\n      jump\t// in\n    tag_14:\n      mload(0x40)\n      tag_17\n      swap2\n      swap1\n      tag_18\n      jump\t// in\n    tag_17:\n      mload(0x40)\n      dup1\n      swap2\n      sub\n      swap1\n      return\n        /* \"C2E_learning/038_send_eth.sol\":561:767  function sendByCall(address payable  _to, uint _amount) public returns (bool){... */\n    tag_5:\n      callvalue\n      dup1\n      iszero\n      tag_19\n      jumpi\n      revert(0x00, 0x00)\n    tag_19:\n      pop\n      tag_20\n      0x04\n      dup1\n      calldatasize\n      sub\n      dup2\n      add\n      swap1\n      tag_21\n      swap2\n      swap1\n      tag_11\n      jump\t// in\n    tag_21:\n      tag_22\n      jump\t// in\n    tag_20:\n      mload(0x40)\n      tag_23\n      swap2\n      swap1\n      tag_18\n      jump\t// in\n    tag_23:\n      mload(0x40)\n      dup1\n      swap2\n      sub\n      swap1\n      return\n        /* \"C2E_learning/038_send_eth.sol\":211:314  function sendByTransfer(address payable _to, uint _amount) public{... */\n    tag_12:\n        /* \"C2E_learning/038_send_eth.sol\":286:289  _to */\n      dup2\n        /* \"C2E_learning/038_send_eth.sol\":286:298  _to.transfer */\n      0xffffffffffffffffffffffffffffffffffffffff\n      and\n        /* \"C2E_learning/038_send_eth.sol\":286:307  _to.transfer(_amount) */\n      0x08fc\n        /* \"C2E_learning/038_send_eth.sol\":299:306  _amount */\n      dup3\n        /* \"C2E_learning/038_send_eth.sol\":286:307  _to.transfer(_amount) */\n      swap1\n      dup2\n      iszero\n      mul\n      swap1\n      mload(0x40)\n      0x00\n      mload(0x40)\n      dup1\n      dup4\n      sub\n      dup2\n      dup6\n      dup9\n      dup9\n      call\n      swap4\n      pop\n      pop\n      pop\n      pop\n      iszero\n      dup1\n      iszero\n      tag_26\n      jumpi\n      returndatacopy(0x00, 0x00, returndatasize)\n      revert(0x00, returndatasize)\n    tag_26:\n      pop\n        /* \"C2E_learning/038_send_eth.sol\":211:314  function sendByTransfer(address payable _to, uint _amount) public{... */\n      pop\n      pop\n      jump\t// out\n        /* \"C2E_learning/038_send_eth.sol\":347:528  function sendBySend(address payable _to, uint _amount) public returns (bool){... */\n    tag_16:\n        /* \"C2E_learning/038_send_eth.sol\":418:422  bool */\n      0x00\n        /* \"C2E_learning/038_send_eth.sol\":433:442  bool sent */\n      0x00\n        /* \"C2E_learning/038_send_eth.sol\":445:448  _to */\n      dup4\n        /* \"C2E_learning/038_send_eth.sol\":445:453  _to.send */\n      0xffffffffffffffffffffffffffffffffffffffff\n      and\n        /* \"C2E_learning/038_send_eth.sol\":445:462  _to.send(_amount) */\n      0x08fc\n        /* \"C2E_learning/038_send_eth.sol\":454:461  _amount */\n      dup5\n        /* \"C2E_learning/038_send_eth.sol\":445:462  _to.send(_amount) */\n      swap1\n      dup2\n      iszero\n      mul\n      swap1\n      mload(0x40)\n      0x00\n      mload(0x40)\n      dup1\n      dup4\n      sub\n      dup2\n      dup6\n      dup9\n      dup9\n      call\n      swap4\n      pop\n      pop\n      pop\n      pop\n        /* \"C2E_learning/038_send_eth.sol\":433:462  bool sent = _to.send(_amount) */\n      swap1\n      pop\n        /* \"C2E_learning/038_send_eth.sol\":480:484  sent */\n      dup1\n        /* \"C2E_learning/038_send_eth.sol\":472:500  require(sent, \"Send failed\") */\n      tag_29\n      jumpi\n      mload(0x40)\n      0x08c379a000000000000000000000000000000000000000000000000000000000\n      dup2\n      mstore\n      0x04\n      add\n      tag_30\n      swap1\n      tag_31\n      jump\t// in\n    tag_30:\n      mload(0x40)\n      dup1\n      swap2\n      sub\n      swap1\n      revert\n    tag_29:\n        /* \"C2E_learning/038_send_eth.sol\":517:521  sent */\n      dup1\n        /* \"C2E_learning/038_send_eth.sol\":510:521  return sent */\n      swap2\n      pop\n      pop\n        /* \"C2E_learning/038_send_eth.sol\":347:528  function sendBySend(address payable _to, uint _amount) public returns (bool){... */\n      swap3\n      swap2\n      pop\n      pop\n      jump\t// out\n        /* \"C2E_learning/038_send_eth.sol\":561:767  function sendByCall(address payable  _to, uint _amount) public returns (bool){... */\n    tag_22:\n        /* \"C2E_learning/038_send_eth.sol\":633:637  bool */\n      0x00\n        /* \"C2E_learning/038_send_eth.sol\":649:661  bool success */\n      0x00\n        /* \"C2E_learning/038_send_eth.sol\":667:670  _to */\n      dup4\n        /* \"C2E_learning/038_send_eth.sol\":667:675  _to.call */\n      0xffffffffffffffffffffffffffffffffffffffff\n      and\n        /* \"C2E_learning/038_send_eth.sol\":683:690  _amount */\n      dup4\n        /* \"C2E_learning/038_send_eth.sol\":667:695  _to.call{value: _amount}(\"\") */\n      mload(0x40)\n      tag_33\n      swap1\n      tag_34\n      jump\t// in\n    tag_33:\n      0x00\n      mload(0x40)\n      dup1\n      dup4\n      sub\n      dup2\n      dup6\n      dup8\n      gas\n      call\n      swap3\n      pop\n      pop\n      pop\n      returndatasize\n      dup1\n      0x00\n      dup2\n      eq\n      tag_37\n      jumpi\n      mload(0x40)\n      swap2\n      pop\n      and(add(returndatasize, 0x3f), not(0x1f))\n      dup3\n      add\n      0x40\n      mstore\n      returndatasize\n      dup3\n      mstore\n      returndatasize\n      0x00\n      0x20\n      dup5\n      add\n      returndatacopy\n      jump(tag_36)\n    tag_37:\n      0x60\n      swap2\n      pop\n    tag_36:\n      pop\n        /* \"C2E_learning/038_send_eth.sol\":648:695  (bool success, ) = _to.call{value: _amount}(\"\") */\n      pop\n      swap1\n      pop\n        /* \"C2E_learning/038_send_eth.sol\":713:720  success */\n      dup1\n        /* \"C2E_learning/038_send_eth.sol\":705:736  require(success, \"Call failed\") */\n      tag_38\n      jumpi\n      mload(0x40)\n      0x08c379a000000000000000000000000000000000000000000000000000000000\n      dup2\n      mstore\n      0x04\n      add\n      tag_39\n      swap1\n      tag_40\n      jump\t// in\n    tag_39:\n      mload(0x40)\n      dup1\n      swap2\n      sub\n      swap1\n      revert\n    tag_38:\n        /* \"C2E_learning/038_send_eth.sol\":753:760  success */\n      dup1\n        /* \"C2E_learning/038_send_eth.sol\":746:760  return success */\n      swap2\n      pop\n      pop\n        /* \"C2E_learning/038_send_eth.sol\":561:767  function sendByCall(address payable  _to, uint _amount) public returns (bool){... */\n      swap3\n      swap2\n      pop\n      pop\n      jump\t// out\n        /* \"#utility.yul\":88:205   */\n    tag_42:\n        /* \"#utility.yul\":197:198   */\n      0x00\n        /* \"#utility.yul\":194:195   */\n      0x00\n        /* \"#utility.yul\":187:199   */\n      revert\n        /* \"#utility.yul\":334:460   */\n    tag_44:\n        /* \"#utility.yul\":371:378   */\n      0x00\n        /* \"#utility.yul\":411:453   */\n      0xffffffffffffffffffffffffffffffffffffffff\n        /* \"#utility.yul\":404:409   */\n      dup3\n        /* \"#utility.yul\":400:454   */\n      and\n        /* \"#utility.yul\":389:454   */\n      swap1\n      pop\n        /* \"#utility.yul\":334:460   */\n      swap2\n      swap1\n      pop\n      jump\t// out\n        /* \"#utility.yul\":466:570   */\n    tag_45:\n        /* \"#utility.yul\":511:518   */\n      0x00\n        /* \"#utility.yul\":540:564   */\n      tag_67\n        /* \"#utility.yul\":558:563   */\n      dup3\n        /* \"#utility.yul\":540:564   */\n      tag_44\n      jump\t// in\n    tag_67:\n        /* \"#utility.yul\":529:564   */\n      swap1\n      pop\n        /* \"#utility.yul\":466:570   */\n      swap2\n      swap1\n      pop\n      jump\t// out\n        /* \"#utility.yul\":576:714   */\n    tag_46:\n        /* \"#utility.yul\":657:689   */\n      tag_69\n        /* \"#utility.yul\":683:688   */\n      dup2\n        /* \"#utility.yul\":657:689   */\n      tag_45\n      jump\t// in\n    tag_69:\n        /* \"#utility.yul\":650:655   */\n      dup2\n        /* \"#utility.yul\":647:690   */\n      eq\n        /* \"#utility.yul\":637:708   */\n      tag_70\n      jumpi\n        /* \"#utility.yul\":704:705   */\n      0x00\n        /* \"#utility.yul\":701:702   */\n      0x00\n        /* \"#utility.yul\":694:706   */\n      revert\n        /* \"#utility.yul\":637:708   */\n    tag_70:\n        /* \"#utility.yul\":576:714   */\n      pop\n      jump\t// out\n        /* \"#utility.yul\":720:875   */\n    tag_47:\n        /* \"#utility.yul\":774:779   */\n      0x00\n        /* \"#utility.yul\":812:818   */\n      dup2\n        /* \"#utility.yul\":799:819   */\n      calldataload\n        /* \"#utility.yul\":790:819   */\n      swap1\n      pop\n        /* \"#utility.yul\":828:869   */\n      tag_72\n        /* \"#utility.yul\":863:868   */\n      dup2\n        /* \"#utility.yul\":828:869   */\n      tag_46\n      jump\t// in\n    tag_72:\n        /* \"#utility.yul\":720:875   */\n      swap3\n      swap2\n      pop\n      pop\n      jump\t// out\n        /* \"#utility.yul\":881:958   */\n    tag_48:\n        /* \"#utility.yul\":918:925   */\n      0x00\n        /* \"#utility.yul\":947:952   */\n      dup2\n        /* \"#utility.yul\":936:952   */\n      swap1\n      pop\n        /* \"#utility.yul\":881:958   */\n      swap2\n      swap1\n      pop\n      jump\t// out\n        /* \"#utility.yul\":964:1086   */\n    tag_49:\n        /* \"#utility.yul\":1037:1061   */\n      tag_75\n        /* \"#utility.yul\":1055:1060   */\n      dup2\n        /* \"#utility.yul\":1037:1061   */\n      tag_48\n      jump\t// in\n    tag_75:\n        /* \"#utility.yul\":1030:1035   */\n      dup2\n        /* \"#utility.yul\":1027:1062   */\n      eq\n        /* \"#utility.yul\":1017:1080   */\n      tag_76\n      jumpi\n        /* \"#utility.yul\":1076:1077   */\n      0x00\n        /* \"#utility.yul\":1073:1074   */\n      0x00\n        /* \"#utility.yul\":1066:1078   */\n      revert\n        /* \"#utility.yul\":1017:1080   */\n    tag_76:\n        /* \"#utility.yul\":964:1086   */\n      pop\n      jump\t// out\n        /* \"#utility.yul\":1092:1231   */\n    tag_50:\n        /* \"#utility.yul\":1138:1143   */\n      0x00\n        /* \"#utility.yul\":1176:1182   */\n      dup2\n        /* \"#utility.yul\":1163:1183   */\n      calldataload\n        /* \"#utility.yul\":1154:1183   */\n      swap1\n      pop\n        /* \"#utility.yul\":1192:1225   */\n      tag_78\n        /* \"#utility.yul\":1219:1224   */\n      dup2\n        /* \"#utility.yul\":1192:1225   */\n      tag_49\n      jump\t// in\n    tag_78:\n        /* \"#utility.yul\":1092:1231   */\n      swap3\n      swap2\n      pop\n      pop\n      jump\t// out\n        /* \"#utility.yul\":1237:1727   */\n    tag_11:\n        /* \"#utility.yul\":1313:1319   */\n      0x00\n        /* \"#utility.yul\":1321:1327   */\n      0x00\n        /* \"#utility.yul\":1370:1372   */\n      0x40\n        /* \"#utility.yul\":1358:1367   */\n      dup4\n        /* \"#utility.yul\":1349:1356   */\n      dup6\n        /* \"#utility.yul\":1345:1368   */\n      sub\n        /* \"#utility.yul\":1341:1373   */\n      slt\n        /* \"#utility.yul\":1338:1457   */\n      iszero\n      tag_80\n      jumpi\n        /* \"#utility.yul\":1376:1455   */\n      tag_81\n      tag_42\n      jump\t// in\n    tag_81:\n        /* \"#utility.yul\":1338:1457   */\n    tag_80:\n        /* \"#utility.yul\":1496:1497   */\n      0x00\n        /* \"#utility.yul\":1521:1582   */\n      tag_82\n        /* \"#utility.yul\":1574:1581   */\n      dup6\n        /* \"#utility.yul\":1565:1571   */\n      dup3\n        /* \"#utility.yul\":1554:1563   */\n      dup7\n        /* \"#utility.yul\":1550:1572   */\n      add\n        /* \"#utility.yul\":1521:1582   */\n      tag_47\n      jump\t// in\n    tag_82:\n        /* \"#utility.yul\":1511:1582   */\n      swap3\n      pop\n        /* \"#utility.yul\":1467:1592   */\n      pop\n        /* \"#utility.yul\":1631:1633   */\n      0x20\n        /* \"#utility.yul\":1657:1710   */\n      tag_83\n        /* \"#utility.yul\":1702:1709   */\n      dup6\n        /* \"#utility.yul\":1693:1699   */\n      dup3\n        /* \"#utility.yul\":1682:1691   */\n      dup7\n        /* \"#utility.yul\":1678:1700   */\n      add\n        /* \"#utility.yul\":1657:1710   */\n      tag_50\n      jump\t// in\n    tag_83:\n        /* \"#utility.yul\":1647:1710   */\n      swap2\n      pop\n        /* \"#utility.yul\":1602:1720   */\n      pop\n        /* \"#utility.yul\":1237:1727   */\n      swap3\n      pop\n      swap3\n      swap1\n      pop\n      jump\t// out\n        /* \"#utility.yul\":1733:1823   */\n    tag_51:\n        /* \"#utility.yul\":1767:1774   */\n      0x00\n        /* \"#utility.yul\":1810:1815   */\n      dup2\n        /* \"#utility.yul\":1803:1816   */\n      iszero\n        /* \"#utility.yul\":1796:1817   */\n      iszero\n        /* \"#utility.yul\":1785:1817   */\n      swap1\n      pop\n        /* \"#utility.yul\":1733:1823   */\n      swap2\n      swap1\n      pop\n      jump\t// out\n        /* \"#utility.yul\":1829:1938   */\n    tag_52:\n        /* \"#utility.yul\":1910:1931   */\n      tag_86\n        /* \"#utility.yul\":1925:1930   */\n      dup2\n        /* \"#utility.yul\":1910:1931   */\n      tag_51\n      jump\t// in\n    tag_86:\n        /* \"#utility.yul\":1905:1908   */\n      dup3\n        /* \"#utility.yul\":1898:1932   */\n      mstore\n        /* \"#utility.yul\":1829:1938   */\n      pop\n      pop\n      jump\t// out\n        /* \"#utility.yul\":1944:2154   */\n    tag_18:\n        /* \"#utility.yul\":2031:2035   */\n      0x00\n        /* \"#utility.yul\":2069:2071   */\n      0x20\n        /* \"#utility.yul\":2058:2067   */\n      dup3\n        /* \"#utility.yul\":2054:2072   */\n      add\n        /* \"#utility.yul\":2046:2072   */\n      swap1\n      pop\n        /* \"#utility.yul\":2082:2147   */\n      tag_88\n        /* \"#utility.yul\":2144:2145   */\n      0x00\n        /* \"#utility.yul\":2133:2142   */\n      dup4\n        /* \"#utility.yul\":2129:2146   */\n      add\n        /* \"#utility.yul\":2120:2126   */\n      dup5\n        /* \"#utility.yul\":2082:2147   */\n      tag_52\n      jump\t// in\n    tag_88:\n        /* \"#utility.yul\":1944:2154   */\n      swap3\n      swap2\n      pop\n      pop\n      jump\t// out\n        /* \"#utility.yul\":2160:2329   */\n    tag_53:\n        /* \"#utility.yul\":2244:2255   */\n      0x00\n        /* \"#utility.yul\":2278:2284   */\n      dup3\n        /* \"#utility.yul\":2273:2276   */\n      dup3\n        /* \"#utility.yul\":2266:2285   */\n      mstore\n        /* \"#utility.yul\":2318:2322   */\n      0x20\n        /* \"#utility.yul\":2313:2316   */\n      dup3\n        /* \"#utility.yul\":2309:2323   */\n      add\n        /* \"#utility.yul\":2294:2323   */\n      swap1\n      pop\n        /* \"#utility.yul\":2160:2329   */\n      swap3\n      swap2\n      pop\n      pop\n      jump\t// out\n        /* \"#utility.yul\":2335:2496   */\n    tag_54:\n        /* \"#utility.yul\":2475:2488   */\n      0x53656e64206661696c6564000000000000000000000000000000000000000000\n        /* \"#utility.yul\":2471:2472   */\n      0x00\n        /* \"#utility.yul\":2463:2469   */\n      dup3\n        /* \"#utility.yul\":2459:2473   */\n      add\n        /* \"#utility.yul\":2452:2489   */\n      mstore\n        /* \"#utility.yul\":2335:2496   */\n      pop\n      jump\t// out\n        /* \"#utility.yul\":2502:2868   */\n    tag_55:\n        /* \"#utility.yul\":2644:2647   */\n      0x00\n        /* \"#utility.yul\":2665:2732   */\n      tag_92\n        /* \"#utility.yul\":2729:2731   */\n      0x0b\n        /* \"#utility.yul\":2724:2727   */\n      dup4\n        /* \"#utility.yul\":2665:2732   */\n      tag_53\n      jump\t// in\n    tag_92:\n        /* \"#utility.yul\":2658:2732   */\n      swap2\n      pop\n        /* \"#utility.yul\":2741:2834   */\n      tag_93\n        /* \"#utility.yul\":2830:2833   */\n      dup3\n        /* \"#utility.yul\":2741:2834   */\n      tag_54\n      jump\t// in\n    tag_93:\n        /* \"#utility.yul\":2859:2861   */\n      0x20\n        /* \"#utility.yul\":2854:2857   */\n      dup3\n        /* \"#utility.yul\":2850:2862   */\n      add\n        /* \"#utility.yul\":2843:2862   */\n      swap1\n      pop\n        /* \"#utility.yul\":2502:2868   */\n      swap2\n      swap1\n      pop\n      jump\t// out\n        /* \"#utility.yul\":2874:3293   */\n    tag_31:\n        /* \"#utility.yul\":3040:3044   */\n      0x00\n        /* \"#utility.yul\":3078:3080   */\n      0x20\n        /* \"#utility.yul\":3067:3076   */\n      dup3\n        /* \"#utility.yul\":3063:3081   */\n      add\n        /* \"#utility.yul\":3055:3081   */\n      swap1\n      pop\n        /* \"#utility.yul\":3127:3136   */\n      dup2\n        /* \"#utility.yul\":3121:3125   */\n      dup2\n        /* \"#utility.yul\":3117:3137   */\n      sub\n        /* \"#utility.yul\":3113:3114   */\n      0x00\n        /* \"#utility.yul\":3102:3111   */\n      dup4\n        /* \"#utility.yul\":3098:3115   */\n      add\n        /* \"#utility.yul\":3091:3138   */\n      mstore\n        /* \"#utility.yul\":3155:3286   */\n      tag_95\n        /* \"#utility.yul\":3281:3285   */\n      dup2\n        /* \"#utility.yul\":3155:3286   */\n      tag_55\n      jump\t// in\n    tag_95:\n        /* \"#utility.yul\":3147:3286   */\n      swap1\n      pop\n        /* \"#utility.yul\":2874:3293   */\n      swap2\n      swap1\n      pop\n      jump\t// out\n        /* \"#utility.yul\":3299:3446   */\n    tag_56:\n        /* \"#utility.yul\":3400:3411   */\n      0x00\n        /* \"#utility.yul\":3437:3440   */\n      dup2\n        /* \"#utility.yul\":3422:3440   */\n      swap1\n      pop\n        /* \"#utility.yul\":3299:3446   */\n      swap3\n      swap2\n      pop\n      pop\n      jump\t// out\n        /* \"#utility.yul\":3452:3566   */\n    tag_57:\n      pop\n      jump\t// out\n        /* \"#utility.yul\":3572:3970   */\n    tag_58:\n        /* \"#utility.yul\":3731:3734   */\n      0x00\n        /* \"#utility.yul\":3752:3835   */\n      tag_99\n        /* \"#utility.yul\":3833:3834   */\n      0x00\n        /* \"#utility.yul\":3828:3831   */\n      dup4\n        /* \"#utility.yul\":3752:3835   */\n      tag_56\n      jump\t// in\n    tag_99:\n        /* \"#utility.yul\":3745:3835   */\n      swap2\n      pop\n        /* \"#utility.yul\":3844:3937   */\n      tag_100\n        /* \"#utility.yul\":3933:3936   */\n      dup3\n        /* \"#utility.yul\":3844:3937   */\n      tag_57\n      jump\t// in\n    tag_100:\n        /* \"#utility.yul\":3962:3963   */\n      0x00\n        /* \"#utility.yul\":3957:3960   */\n      dup3\n        /* \"#utility.yul\":3953:3964   */\n      add\n        /* \"#utility.yul\":3946:3964   */\n      swap1\n      pop\n        /* \"#utility.yul\":3572:3970   */\n      swap2\n      swap1\n      pop\n      jump\t// out\n        /* \"#utility.yul\":3976:4355   */\n    tag_34:\n        /* \"#utility.yul\":4160:4163   */\n      0x00\n        /* \"#utility.yul\":4182:4329   */\n      tag_102\n        /* \"#utility.yul\":4325:4328   */\n      dup3\n        /* \"#utility.yul\":4182:4329   */\n      tag_58\n      jump\t// in\n    tag_102:\n        /* \"#utility.yul\":4175:4329   */\n      swap2\n      pop\n        /* \"#utility.yul\":4346:4349   */\n      dup2\n        /* \"#utility.yul\":4339:4349   */\n      swap1\n      pop\n        /* \"#utility.yul\":3976:4355   */\n      swap2\n      swap1\n      pop\n      jump\t// out\n        /* \"#utility.yul\":4361:4522   */\n    tag_59:\n        /* \"#utility.yul\":4501:4514   */\n      0x43616c6c206661696c6564000000000000000000000000000000000000000000\n        /* \"#utility.yul\":4497:4498   */\n      0x00\n        /* \"#utility.yul\":4489:4495   */\n      dup3\n        /* \"#utility.yul\":4485:4499   */\n      add\n        /* \"#utility.yul\":4478:4515   */\n      mstore\n        /* \"#utility.yul\":4361:4522   */\n      pop\n      jump\t// out\n        /* \"#utility.yul\":4528:4894   */\n    tag_60:\n        /* \"#utility.yul\":4670:4673   */\n      0x00\n        /* \"#utility.yul\":4691:4758   */\n      tag_105\n        /* \"#utility.yul\":4755:4757   */\n      0x0b\n        /* \"#utility.yul\":4750:4753   */\n      dup4\n        /* \"#utility.yul\":4691:4758   */\n      tag_53\n      jump\t// in\n    tag_105:\n        /* \"#utility.yul\":4684:4758   */\n      swap2\n      pop\n        /* \"#utility.yul\":4767:4860   */\n      tag_106\n        /* \"#utility.yul\":4856:4859   */\n      dup3\n        /* \"#utility.yul\":4767:4860   */\n      tag_59\n      jump\t// in\n    tag_106:\n        /* \"#utility.yul\":4885:4887   */\n      0x20\n        /* \"#utility.yul\":4880:4883   */\n      dup3\n        /* \"#utility.yul\":4876:4888   */\n      add\n        /* \"#utility.yul\":4869:4888   */\n      swap1\n      pop\n        /* \"#utility.yul\":4528:4894   */\n      swap2\n      swap1\n      pop\n      jump\t// out\n        /* \"#utility.yul\":4900:5319   */\n    tag_40:\n        /* \"#utility.yul\":5066:5070   */\n      0x00\n        /* \"#utility.yul\":5104:5106   */\n      0x20\n        /* \"#utility.yul\":5093:5102   */\n      dup3\n        /* \"#utility.yul\":5089:5107   */\n      add\n        /* \"#utility.yul\":5081:5107   */\n      swap1\n      pop\n        /* \"#utility.yul\":5153:5162   */\n      dup2\n        /* \"#utility.yul\":5147:5151   */\n      dup2\n        /* \"#utility.yul\":5143:5163   */\n      sub\n        /* \"#utility.yul\":5139:5140   */\n      0x00\n        /* \"#utility.yul\":5128:5137   */\n      dup4\n        /* \"#utility.yul\":5124:5141   */\n      add\n        /* \"#utility.yul\":5117:5164   */\n      mstore\n        /* \"#utility.yul\":5181:5312   */\n      tag_108\n        /* \"#utility.yul\":5307:5311   */\n      dup2\n        /* \"#utility.yul\":5181:5312   */\n      tag_60\n      jump\t// in\n    tag_108:\n        /* \"#utility.yul\":5173:5312   */\n      swap1\n      pop\n        /* \"#utility.yul\":4900:5319   */\n      swap2\n      swap1\n      pop\n      jump\t// out\n\n    auxdata: 0xa264697066735822122059d6949fc662e50e861e35606830a36fae6f04a1d2ede66c8cc7d657a4034fec64736f6c634300081e0033\n}\n",
				"bytecode": {
					"linkReferences": {},
					"object": "6080604052348015600e575f5ffd5b506104b88061001c5f395ff3fe608060405260043610610037575f3560e01c80632424f17a14610042578063cbadad311461006a578063d19ec362146100a65761003e565b3661003e57005b5f5ffd5b34801561004d575f5ffd5b50610068600480360381019061006391906102f0565b6100e2565b005b348015610075575f5ffd5b50610090600480360381019061008b91906102f0565b61012a565b60405161009d9190610348565b60405180910390f35b3480156100b1575f5ffd5b506100cc60048036038101906100c791906102f0565b6101ac565b6040516100d99190610348565b60405180910390f35b8173ffffffffffffffffffffffffffffffffffffffff166108fc8290811502906040515f60405180830381858888f19350505050158015610125573d5f5f3e3d5ffd5b505050565b5f5f8373ffffffffffffffffffffffffffffffffffffffff166108fc8490811502906040515f60405180830381858888f193505050509050806101a2576040517f08c379a0000000000000000000000000000000000000000000000000000000008152600401610199906103bb565b60405180910390fd5b8091505092915050565b5f5f8373ffffffffffffffffffffffffffffffffffffffff16836040516101d290610406565b5f6040518083038185875af1925050503d805f811461020c576040519150601f19603f3d011682016040523d82523d5f602084013e610211565b606091505b5050905080610255576040517f08c379a000000000000000000000000000000000000000000000000000000000815260040161024c90610464565b60405180910390fd5b8091505092915050565b5f5ffd5b5f73ffffffffffffffffffffffffffffffffffffffff82169050919050565b5f61028c82610263565b9050919050565b61029c81610282565b81146102a6575f5ffd5b50565b5f813590506102b781610293565b92915050565b5f819050919050565b6102cf816102bd565b81146102d9575f5ffd5b50565b5f813590506102ea816102c6565b92915050565b5f5f604083850312156103065761030561025f565b5b5f610313858286016102a9565b9250506020610324858286016102dc565b9150509250929050565b5f8115159050919050565b6103428161032e565b82525050565b5f60208201905061035b5f830184610339565b92915050565b5f82825260208201905092915050565b7f53656e64206661696c65640000000000000000000000000000000000000000005f82015250565b5f6103a5600b83610361565b91506103b082610371565b602082019050919050565b5f6020820190508181035f8301526103d281610399565b9050919050565b5f81905092915050565b50565b5f6103f15f836103d9565b91506103fc826103e3565b5f82019050919050565b5f610410826103e6565b9150819050919050565b7f43616c6c206661696c65640000000000000000000000000000000000000000005f82015250565b5f61044e600b83610361565b91506104598261041a565b602082019050919050565b5f6020820190508181035f83015261047b81610442565b905091905056fea264697066735822122059d6949fc662e50e861e35606830a36fae6f04a1d2ede66c8cc7d657a4034fec64736f6c634300081e0033",
					"opcodes": "PUSH1 0x80 PUSH1 0x40 MSTORE CALLVALUE DUP1 ISZERO PUSH1 0xE JUMPI PUSH0 PUSH0 REVERT JUMPDEST POP PUSH2 0x4B8 DUP1 PUSH2 0x1C PUSH0 CODECOPY PUSH0 RETURN INVALID PUSH1 0x80 PUSH1 0x40 MSTORE PUSH1 0x4 CALLDATASIZE LT PUSH2 0x37 JUMPI PUSH0 CALLDATALOAD PUSH1 0xE0 SHR DUP1 PUSH4 0x2424F17A EQ PUSH2 0x42 JUMPI DUP1 PUSH4 0xCBADAD31 EQ PUSH2 0x6A JUMPI DUP1 PUSH4 0xD19EC362 EQ PUSH2 0xA6 JUMPI PUSH2 0x3E JUMP JUMPDEST CALLDATASIZE PUSH2 0x3E JUMPI STOP JUMPDEST PUSH0 PUSH0 REVERT JUMPDEST CALLVALUE DUP1 ISZERO PUSH2 0x4D JUMPI PUSH0 PUSH0 REVERT JUMPDEST POP PUSH2 0x68 PUSH1 0x4 DUP1 CALLDATASIZE SUB DUP2 ADD SWAP1 PUSH2 0x63 SWAP2 SWAP1 PUSH2 0x2F0 JUMP JUMPDEST PUSH2 0xE2 JUMP JUMPDEST STOP JUMPDEST CALLVALUE DUP1 ISZERO PUSH2 0x75 JUMPI PUSH0 PUSH0 REVERT JUMPDEST POP PUSH2 0x90 PUSH1 0x4 DUP1 CALLDATASIZE SUB DUP2 ADD SWAP1 PUSH2 0x8B SWAP2 SWAP1 PUSH2 0x2F0 JUMP JUMPDEST PUSH2 0x12A JUMP JUMPDEST PUSH1 0x40 MLOAD PUSH2 0x9D SWAP2 SWAP1 PUSH2 0x348 JUMP JUMPDEST PUSH1 0x40 MLOAD DUP1 SWAP2 SUB SWAP1 RETURN JUMPDEST CALLVALUE DUP1 ISZERO PUSH2 0xB1 JUMPI PUSH0 PUSH0 REVERT JUMPDEST POP PUSH2 0xCC PUSH1 0x4 DUP1 CALLDATASIZE SUB DUP2 ADD SWAP1 PUSH2 0xC7 SWAP2 SWAP1 PUSH2 0x2F0 JUMP JUMPDEST PUSH2 0x1AC JUMP JUMPDEST PUSH1 0x40 MLOAD PUSH2 0xD9 SWAP2 SWAP1 PUSH2 0x348 JUMP JUMPDEST PUSH1 0x40 MLOAD DUP1 SWAP2 SUB SWAP1 RETURN JUMPDEST DUP2 PUSH20 0xFFFFFFFFFFFFFFFFFFFFFFFFFFFFFFFFFFFFFFFF AND PUSH2 0x8FC DUP3 SWAP1 DUP2 ISZERO MUL SWAP1 PUSH1 0x40 MLOAD PUSH0 PUSH1 0x40 MLOAD DUP1 DUP4 SUB DUP2 DUP6 DUP9 DUP9 CALL SWAP4 POP POP POP POP ISZERO DUP1 ISZERO PUSH2 0x125 JUMPI RETURNDATASIZE PUSH0 PUSH0 RETURNDATACOPY RETURNDATASIZE PUSH0 REVERT JUMPDEST POP POP POP JUMP JUMPDEST PUSH0 PUSH0 DUP4 PUSH20 0xFFFFFFFFFFFFFFFFFFFFFFFFFFFFFFFFFFFFFFFF AND PUSH2 0x8FC DUP5 SWAP1 DUP2 ISZERO MUL SWAP1 PUSH1 0x40 MLOAD PUSH0 PUSH1 0x40 MLOAD DUP1 DUP4 SUB DUP2 DUP6 DUP9 DUP9 CALL SWAP4 POP POP POP POP SWAP1 POP DUP1 PUSH2 0x1A2 JUMPI PUSH1 0x40 MLOAD PUSH32 0x8C379A000000000000000000000000000000000000000000000000000000000 DUP2 MSTORE PUSH1 0x4 ADD PUSH2 0x199 SWAP1 PUSH2 0x3BB JUMP JUMPDEST PUSH1 0x40 MLOAD DUP1 SWAP2 SUB SWAP1 REVERT JUMPDEST DUP1 SWAP2 POP POP SWAP3 SWAP2 POP POP JUMP JUMPDEST PUSH0 PUSH0 DUP4 PUSH20 0xFFFFFFFFFFFFFFFFFFFFFFFFFFFFFFFFFFFFFFFF AND DUP4 PUSH1 0x40 MLOAD PUSH2 0x1D2 SWAP1 PUSH2 0x406 JUMP JUMPDEST PUSH0 PUSH1 0x40 MLOAD DUP1 DUP4 SUB DUP2 DUP6 DUP8 GAS CALL SWAP3 POP POP POP RETURNDATASIZE DUP1 PUSH0 DUP2 EQ PUSH2 0x20C JUMPI PUSH1 0x40 MLOAD SWAP2 POP PUSH1 0x1F NOT PUSH1 0x3F RETURNDATASIZE ADD AND DUP3 ADD PUSH1 0x40 MSTORE RETURNDATASIZE DUP3 MSTORE RETURNDATASIZE PUSH0 PUSH1 0x20 DUP5 ADD RETURNDATACOPY PUSH2 0x211 JUMP JUMPDEST PUSH1 0x60 SWAP2 POP JUMPDEST POP POP SWAP1 POP DUP1 PUSH2 0x255 JUMPI PUSH1 0x40 MLOAD PUSH32 0x8C379A000000000000000000000000000000000000000000000000000000000 DUP2 MSTORE PUSH1 0x4 ADD PUSH2 0x24C SWAP1 PUSH2 0x464 JUMP JUMPDEST PUSH1 0x40 MLOAD DUP1 SWAP2 SUB SWAP1 REVERT JUMPDEST DUP1 SWAP2 POP POP SWAP3 SWAP2 POP POP JUMP JUMPDEST PUSH0 PUSH0 REVERT JUMPDEST PUSH0 PUSH20 0xFFFFFFFFFFFFFFFFFFFFFFFFFFFFFFFFFFFFFFFF DUP3 AND SWAP1 POP SWAP2 SWAP1 POP JUMP JUMPDEST PUSH0 PUSH2 0x28C DUP3 PUSH2 0x263 JUMP JUMPDEST SWAP1 POP SWAP2 SWAP1 POP JUMP JUMPDEST PUSH2 0x29C DUP2 PUSH2 0x282 JUMP JUMPDEST DUP2 EQ PUSH2 0x2A6 JUMPI PUSH0 PUSH0 REVERT JUMPDEST POP JUMP JUMPDEST PUSH0 DUP2 CALLDATALOAD SWAP1 POP PUSH2 0x2B7 DUP2 PUSH2 0x293 JUMP JUMPDEST SWAP3 SWAP2 POP POP JUMP JUMPDEST PUSH0 DUP2 SWAP1 POP SWAP2 SWAP1 POP JUMP JUMPDEST PUSH2 0x2CF DUP2 PUSH2 0x2BD JUMP JUMPDEST DUP2 EQ PUSH2 0x2D9 JUMPI PUSH0 PUSH0 REVERT JUMPDEST POP JUMP JUMPDEST PUSH0 DUP2 CALLDATALOAD SWAP1 POP PUSH2 0x2EA DUP2 PUSH2 0x2C6 JUMP JUMPDEST SWAP3 SWAP2 POP POP JUMP JUMPDEST PUSH0 PUSH0 PUSH1 0x40 DUP4 DUP6 SUB SLT ISZERO PUSH2 0x306 JUMPI PUSH2 0x305 PUSH2 0x25F JUMP JUMPDEST JUMPDEST PUSH0 PUSH2 0x313 DUP6 DUP3 DUP7 ADD PUSH2 0x2A9 JUMP JUMPDEST SWAP3 POP POP PUSH1 0x20 PUSH2 0x324 DUP6 DUP3 DUP7 ADD PUSH2 0x2DC JUMP JUMPDEST SWAP2 POP POP SWAP3 POP SWAP3 SWAP1 POP JUMP JUMPDEST PUSH0 DUP2 ISZERO ISZERO SWAP1 POP SWAP2 SWAP1 POP JUMP JUMPDEST PUSH2 0x342 DUP2 PUSH2 0x32E JUMP JUMPDEST DUP3 MSTORE POP POP JUMP JUMPDEST PUSH0 PUSH1 0x20 DUP3 ADD SWAP1 POP PUSH2 0x35B PUSH0 DUP4 ADD DUP5 PUSH2 0x339 JUMP JUMPDEST SWAP3 SWAP2 POP POP JUMP JUMPDEST PUSH0 DUP3 DUP3 MSTORE PUSH1 0x20 DUP3 ADD SWAP1 POP SWAP3 SWAP2 POP POP JUMP JUMPDEST PUSH32 0x53656E64206661696C6564000000000000000000000000000000000000000000 PUSH0 DUP3 ADD MSTORE POP JUMP JUMPDEST PUSH0 PUSH2 0x3A5 PUSH1 0xB DUP4 PUSH2 0x361 JUMP JUMPDEST SWAP2 POP PUSH2 0x3B0 DUP3 PUSH2 0x371 JUMP JUMPDEST PUSH1 0x20 DUP3 ADD SWAP1 POP SWAP2 SWAP1 POP JUMP JUMPDEST PUSH0 PUSH1 0x20 DUP3 ADD SWAP1 POP DUP2 DUP2 SUB PUSH0 DUP4 ADD MSTORE PUSH2 0x3D2 DUP2 PUSH2 0x399 JUMP JUMPDEST SWAP1 POP SWAP2 SWAP1 POP JUMP JUMPDEST PUSH0 DUP2 SWAP1 POP SWAP3 SWAP2 POP POP JUMP JUMPDEST POP JUMP JUMPDEST PUSH0 PUSH2 0x3F1 PUSH0 DUP4 PUSH2 0x3D9 JUMP JUMPDEST SWAP2 POP PUSH2 0x3FC DUP3 PUSH2 0x3E3 JUMP JUMPDEST PUSH0 DUP3 ADD SWAP1 POP SWAP2 SWAP1 POP JUMP JUMPDEST PUSH0 PUSH2 0x410 DUP3 PUSH2 0x3E6 JUMP JUMPDEST SWAP2 POP DUP2 SWAP1 POP SWAP2 SWAP1 POP JUMP JUMPDEST PUSH32 0x43616C6C206661696C6564000000000000000000000000000000000000000000 PUSH0 DUP3 ADD MSTORE POP JUMP JUMPDEST PUSH0 PUSH2 0x44E PUSH1 0xB DUP4 PUSH2 0x361 JUMP JUMPDEST SWAP2 POP PUSH2 0x459 DUP3 PUSH2 0x41A JUMP JUMPDEST PUSH1 0x20 DUP3 ADD SWAP1 POP SWAP2 SWAP1 POP JUMP JUMPDEST PUSH0 PUSH1 0x20 DUP3 ADD SWAP1 POP DUP2 DUP2 SUB PUSH0 DUP4 ADD MSTORE PUSH2 0x47B DUP2 PUSH2 0x442 JUMP JUMPDEST SWAP1 POP SWAP2 SWAP1 POP JUMP INVALID LOG2 PUSH5 0x6970667358 0x22 SLT KECCAK256 MSIZE 0xD6 SWAP5 SWAP16 0xC6 PUSH3 0xE50E86 0x1E CALLDATALOAD PUSH1 0x68 ADDRESS LOG3 PUSH16 0xAE6F04A1D2EDE66C8CC7D657A4034FEC PUSH5 0x736F6C6343 STOP ADDMOD 0x1E STOP CALLER "
				},
				"gasEstimates": {
					"creation": {
						"codeDepositCost": "241600",
						"executionCost": "279",
						"totalCost": "241879"
					},
					"external": {
						"sendByCall(address,uint256)": "infinite",
						"sendBySend(address,uint256)": "infinite",
						"sendByTransfer(address,uint256)": "infinite"
					}
				},
				"methodIdentifiers": {
					"sendByCall(address,uint256)": "d19ec362",
					"sendBySend(address,uint256)": "cbadad31",
					"sendByTransfer(address,uint256)": "2424f17a"
				}
			},
			"storageLayout": {
				"storage": [],
				"types": null
			},
			"userdoc": {
				"kind": "user",
				"methods": {},
				"version": 1
			}
		}
	}
}