{
	"C2E_learning/045_library.sol": {
		"Test": {
			"abi": [
				{
					"inputs": [
						{
							"internalType": "uint256",
							"name": "x",
							"type": "uint256"
						},
						{
							"internalType": "uint256",
							"name": "y",
							"type": "uint256"
						}
					],
					"name": "testMax",
					"outputs": [
						{
							"internalType": "uint256",
							"name": "",
							"type": "uint256"
						}
					],
					"stateMutability": "pure",
					"type": "function"
				}
			],
			"devdoc": {
				"kind": "dev",
				"methods": {},
				"version": 1
			},
			"evm": {
				"assembly": "    /* \"C2E_learning/045_library.sol\":175:295  contract Test{... */\n  mstore(0x40, 0x80)\n  callvalue\n  dup1\n  iszero\n  tag_1\n  jumpi\n  revert(0x00, 0x00)\ntag_1:\n  pop\n  dataSize(sub_0)\n  dup1\n  dataOffset(sub_0)\n  0x00\n  codecopy\n  0x00\n  return\nstop\n\nsub_0: assembly {\n        /* \"C2E_learning/045_library.sol\":175:295  contract Test{... */\n      mstore(0x40, 0x80)\n      callvalue\n      dup1\n      iszero\n      tag_1\n      jumpi\n      revert(0x00, 0x00)\n    tag_1:\n      pop\n      jumpi(tag_2, lt(calldatasize, 0x04))\n      shr(0xe0, calldataload(0x00))\n      dup1\n      0x834db421\n      eq\n      tag_3\n      jumpi\n    tag_2:\n      revert(0x00, 0x00)\n        /* \"C2E_learning/045_library.sol\":194:293  function testMax(uint x, uint y) external pure returns (uint){... */\n    tag_3:\n      tag_4\n      0x04\n      dup1\n      calldatasize\n      sub\n      dup2\n      add\n      swap1\n      tag_5\n      swap2\n      swap1\n      tag_6\n      jump\t// in\n    tag_5:\n      tag_7\n      jump\t// in\n    tag_4:\n      mload(0x40)\n      tag_8\n      swap2\n      swap1\n      tag_9\n      jump\t// in\n    tag_8:\n      mload(0x40)\n      dup1\n      swap2\n      sub\n      swap1\n      return\n    tag_7:\n        /* \"C2E_learning/045_library.sol\":250:254  uint */\n      0x00\n        /* \"C2E_learning/045_library.sol\":272:286  Math.max(x, y) */\n      tag_11\n        /* \"C2E_learning/045_library.sol\":281:282  x */\n      dup4\n        /* \"C2E_learning/045_library.sol\":284:285  y */\n      dup4\n        /* \"C2E_learning/045_library.sol\":272:280  Math.max */\n      tag_12\n        /* \"C2E_learning/045_library.sol\":272:286  Math.max(x, y) */\n      jump\t// in\n    tag_11:\n        /* \"C2E_learning/045_library.sol\":265:286  return Math.max(x, y) */\n      swap1\n      pop\n        /* \"C2E_learning/045_library.sol\":194:293  function testMax(uint x, uint y) external pure returns (uint){... */\n      swap3\n      swap2\n      pop\n      pop\n      jump\t// out\n        /* \"C2E_learning/045_library.sol\":75:171  function max(uint x, uint y) internal  pure returns (uint){... */\n    tag_12:\n        /* \"C2E_learning/045_library.sol\":128:132  uint */\n      0x00\n        /* \"C2E_learning/045_library.sol\":155:156  y */\n      dup2\n        /* \"C2E_learning/045_library.sol\":150:151  x */\n      dup4\n        /* \"C2E_learning/045_library.sol\":150:156  x >= y */\n      lt\n      iszero\n        /* \"C2E_learning/045_library.sol\":150:164  x >= y ? x : y */\n      tag_14\n      jumpi\n        /* \"C2E_learning/045_library.sol\":163:164  y */\n      dup2\n        /* \"C2E_learning/045_library.sol\":150:164  x >= y ? x : y */\n      jump(tag_15)\n    tag_14:\n        /* \"C2E_learning/045_library.sol\":159:160  x */\n      dup3\n        /* \"C2E_learning/045_library.sol\":150:164  x >= y ? x : y */\n    tag_15:\n        /* \"C2E_learning/045_library.sol\":143:164  return x >= y ? x : y */\n      swap1\n      pop\n        /* \"C2E_learning/045_library.sol\":75:171  function max(uint x, uint y) internal  pure returns (uint){... */\n      swap3\n      swap2\n      pop\n      pop\n      jump\t// out\n        /* \"#utility.yul\":88:205   */\n    tag_17:\n        /* \"#utility.yul\":197:198   */\n      0x00\n        /* \"#utility.yul\":194:195   */\n      0x00\n        /* \"#utility.yul\":187:199   */\n      revert\n        /* \"#utility.yul\":334:411   */\n    tag_19:\n        /* \"#utility.yul\":371:378   */\n      0x00\n        /* \"#utility.yul\":400:405   */\n      dup2\n        /* \"#utility.yul\":389:405   */\n      swap1\n      pop\n        /* \"#utility.yul\":334:411   */\n      swap2\n      swap1\n      pop\n      jump\t// out\n        /* \"#utility.yul\":417:539   */\n    tag_20:\n        /* \"#utility.yul\":490:514   */\n      tag_29\n        /* \"#utility.yul\":508:513   */\n      dup2\n        /* \"#utility.yul\":490:514   */\n      tag_19\n      jump\t// in\n    tag_29:\n        /* \"#utility.yul\":483:488   */\n      dup2\n        /* \"#utility.yul\":480:515   */\n      eq\n        /* \"#utility.yul\":470:533   */\n      tag_30\n      jumpi\n        /* \"#utility.yul\":529:530   */\n      0x00\n        /* \"#utility.yul\":526:527   */\n      0x00\n        /* \"#utility.yul\":519:531   */\n      revert\n        /* \"#utility.yul\":470:533   */\n    tag_30:\n        /* \"#utility.yul\":417:539   */\n      pop\n      jump\t// out\n        /* \"#utility.yul\":545:684   */\n    tag_21:\n        /* \"#utility.yul\":591:596   */\n      0x00\n        /* \"#utility.yul\":629:635   */\n      dup2\n        /* \"#utility.yul\":616:636   */\n      calldataload\n        /* \"#utility.yul\":607:636   */\n      swap1\n      pop\n        /* \"#utility.yul\":645:678   */\n      tag_32\n        /* \"#utility.yul\":672:677   */\n      dup2\n        /* \"#utility.yul\":645:678   */\n      tag_20\n      jump\t// in\n    tag_32:\n        /* \"#utility.yul\":545:684   */\n      swap3\n      swap2\n      pop\n      pop\n      jump\t// out\n        /* \"#utility.yul\":690:1164   */\n    tag_6:\n        /* \"#utility.yul\":758:764   */\n      0x00\n        /* \"#utility.yul\":766:772   */\n      0x00\n        /* \"#utility.yul\":815:817   */\n      0x40\n        /* \"#utility.yul\":803:812   */\n      dup4\n        /* \"#utility.yul\":794:801   */\n      dup6\n        /* \"#utility.yul\":790:813   */\n      sub\n        /* \"#utility.yul\":786:818   */\n      slt\n        /* \"#utility.yul\":783:902   */\n      iszero\n      tag_34\n      jumpi\n        /* \"#utility.yul\":821:900   */\n      tag_35\n      tag_17\n      jump\t// in\n    tag_35:\n        /* \"#utility.yul\":783:902   */\n    tag_34:\n        /* \"#utility.yul\":941:942   */\n      0x00\n        /* \"#utility.yul\":966:1019   */\n      tag_36\n        /* \"#utility.yul\":1011:1018   */\n      dup6\n        /* \"#utility.yul\":1002:1008   */\n      dup3\n        /* \"#utility.yul\":991:1000   */\n      dup7\n        /* \"#utility.yul\":987:1009   */\n      add\n        /* \"#utility.yul\":966:1019   */\n      tag_21\n      jump\t// in\n    tag_36:\n        /* \"#utility.yul\":956:1019   */\n      swap3\n      pop\n        /* \"#utility.yul\":912:1029   */\n      pop\n        /* \"#utility.yul\":1068:1070   */\n      0x20\n        /* \"#utility.yul\":1094:1147   */\n      tag_37\n        /* \"#utility.yul\":1139:1146   */\n      dup6\n        /* \"#utility.yul\":1130:1136   */\n      dup3\n        /* \"#utility.yul\":1119:1128   */\n      dup7\n        /* \"#utility.yul\":1115:1137   */\n      add\n        /* \"#utility.yul\":1094:1147   */\n      tag_21\n      jump\t// in\n    tag_37:\n        /* \"#utility.yul\":1084:1147   */\n      swap2\n      pop\n        /* \"#utility.yul\":1039:1157   */\n      pop\n        /* \"#utility.yul\":690:1164   */\n      swap3\n      pop\n      swap3\n      swap1\n      pop\n      jump\t// out\n        /* \"#utility.yul\":1170:1288   */\n    tag_22:\n        /* \"#utility.yul\":1257:1281   */\n      tag_39\n        /* \"#utility.yul\":1275:1280   */\n      dup2\n        /* \"#utility.yul\":1257:1281   */\n      tag_19\n      jump\t// in\n    tag_39:\n        /* \"#utility.yul\":1252:1255   */\n      dup3\n        /* \"#utility.yul\":1245:1282   */\n      mstore\n        /* \"#utility.yul\":1170:1288   */\n      pop\n      pop\n      jump\t// out\n        /* \"#utility.yul\":1294:1516   */\n    tag_9:\n        /* \"#utility.yul\":1387:1391   */\n      0x00\n        /* \"#utility.yul\":1425:1427   */\n      0x20\n        /* \"#utility.yul\":1414:1423   */\n      dup3\n        /* \"#utility.yul\":1410:1428   */\n      add\n        /* \"#utility.yul\":1402:1428   */\n      swap1\n      pop\n        /* \"#utility.yul\":1438:1509   */\n      tag_41\n        /* \"#utility.yul\":1506:1507   */\n      0x00\n        /* \"#utility.yul\":1495:1504   */\n      dup4\n        /* \"#utility.yul\":1491:1508   */\n      add\n        /* \"#utility.yul\":1482:1488   */\n      dup5\n        /* \"#utility.yul\":1438:1509   */\n      tag_22\n      jump\t// in\n    tag_41:\n        /* \"#utility.yul\":1294:1516   */\n      swap3\n      swap2\n      pop\n      pop\n      jump\t// out\n\n    auxdata: 0xa264697066735822122059e8c27803f23f30271d7bbe9d8e1093082a7bd1bcf7af4a20c86b6514a7403564736f6c634300081e0033\n}\n",
				"bytecode": {
					"linkReferences": {},
					"object": "6080604052348015600e575f5ffd5b5061015c8061001c5f395ff3fe608060405234801561000f575f5ffd5b5060043610610029575f3560e01c8063834db4211461002d575b5f5ffd5b610047600480360381019061004291906100c0565b61005d565b604051610054919061010d565b60405180910390f35b5f6100688383610070565b905092915050565b5f8183101561007f5781610081565b825b905092915050565b5f5ffd5b5f819050919050565b61009f8161008d565b81146100a9575f5ffd5b50565b5f813590506100ba81610096565b92915050565b5f5f604083850312156100d6576100d5610089565b5b5f6100e3858286016100ac565b92505060206100f4858286016100ac565b9150509250929050565b6101078161008d565b82525050565b5f6020820190506101205f8301846100fe565b9291505056fea264697066735822122059e8c27803f23f30271d7bbe9d8e1093082a7bd1bcf7af4a20c86b6514a7403564736f6c634300081e0033",
					"opcodes": "PUSH1 0x80 PUSH1 0x40 MSTORE CALLVALUE DUP1 ISZERO PUSH1 0xE JUMPI PUSH0 PUSH0 REVERT JUMPDEST POP PUSH2 0x15C DUP1 PUSH2 0x1C PUSH0 CODECOPY PUSH0 RETURN INVALID PUSH1 0x80 PUSH1 0x40 MSTORE CALLVALUE DUP1 ISZERO PUSH2 0xF JUMPI PUSH0 PUSH0 REVERT JUMPDEST POP PUSH1 0x4 CALLDATASIZE LT PUSH2 0x29 JUMPI PUSH0 CALLDATALOAD PUSH1 0xE0 SHR DUP1 PUSH4 0x834DB421 EQ PUSH2 0x2D JUMPI JUMPDEST PUSH0 PUSH0 REVERT JUMPDEST PUSH2 0x47 PUSH1 0x4 DUP1 CALLDATASIZE SUB DUP2 ADD SWAP1 PUSH2 0x42 SWAP2 SWAP1 PUSH2 0xC0 JUMP JUMPDEST PUSH2 0x5D JUMP JUMPDEST PUSH1 0x40 MLOAD PUSH2 0x54 SWAP2 SWAP1 PUSH2 0x10D JUMP JUMPDEST PUSH1 0x40 MLOAD DUP1 SWAP2 SUB SWAP1 RETURN JUMPDEST PUSH0 PUSH2 0x68 DUP4 DUP4 PUSH2 0x70 JUMP JUMPDEST SWAP1 POP SWAP3 SWAP2 POP POP JUMP JUMPDEST PUSH0 DUP2 DUP4 LT ISZERO PUSH2 0x7F JUMPI DUP2 PUSH2 0x81 JUMP JUMPDEST DUP3 JUMPDEST SWAP1 POP SWAP3 SWAP2 POP POP JUMP JUMPDEST PUSH0 PUSH0 REVERT JUMPDEST PUSH0 DUP2 SWAP1 POP SWAP2 SWAP1 POP JUMP JUMPDEST PUSH2 0x9F DUP2 PUSH2 0x8D JUMP JUMPDEST DUP2 EQ PUSH2 0xA9 JUMPI PUSH0 PUSH0 REVERT JUMPDEST POP JUMP JUMPDEST PUSH0 DUP2 CALLDATALOAD SWAP1 POP PUSH2 0xBA DUP2 PUSH2 0x96 JUMP JUMPDEST SWAP3 SWAP2 POP POP JUMP JUMPDEST PUSH0 PUSH0 PUSH1 0x40 DUP4 DUP6 SUB SLT ISZERO PUSH2 0xD6 JUMPI PUSH2 0xD5 PUSH2 0x89 JUMP JUMPDEST JUMPDEST PUSH0 PUSH2 0xE3 DUP6 DUP3 DUP7 ADD PUSH2 0xAC JUMP JUMPDEST SWAP3 POP POP PUSH1 0x20 PUSH2 0xF4 DUP6 DUP3 DUP7 ADD PUSH2 0xAC JUMP JUMPDEST SWAP2 POP POP SWAP3 POP SWAP3 SWAP1 POP JUMP JUMPDEST PUSH2 0x107 DUP2 PUSH2 0x8D JUMP JUMPDEST DUP3 MSTORE POP POP JUMP JUMPDEST PUSH0 PUSH1 0x20 DUP3 ADD SWAP1 POP PUSH2 0x120 PUSH0 DUP4 ADD DUP5 PUSH2 0xFE JUMP JUMPDEST SWAP3 SWAP2 POP POP JUMP INVALID LOG2 PUSH5 0x6970667358 0x22 SLT KECCAK256 MSIZE 0xE8 0xC2 PUSH25 0x3F23F30271D7BBE9D8E1093082A7BD1BCF7AF4A20C86B6514 0xA7 BLOCKHASH CALLDATALOAD PUSH5 0x736F6C6343 STOP ADDMOD 0x1E STOP CALLER "
				},
				"gasEstimates": {
					"creation": {
						"codeDepositCost": "69600",
						"executionCost": "115",
						"totalCost": "69715"
					},
					"external": {
						"testMax(uint256,uint256)": "infinite"
					}
				},
				"methodIdentifiers": {
					"testMax(uint256,uint256)": "834db421"
				}
			},
			"storageLayout": {
				"storage": [],
				"types": null
			},
			"userdoc": {
				"kind": "user",
				"methods": {},
				"version": 1
			}
		}
	}
}