{
	"C2E_learning/045_library.sol": {
		"TestArray": {
			"abi": [
				{
					"inputs": [
						{
							"internalType": "uint256",
							"name": "",
							"type": "uint256"
						}
					],
					"name": "arr",
					"outputs": [
						{
							"internalType": "uint256",
							"name": "",
							"type": "uint256"
						}
					],
					"stateMutability": "view",
					"type": "function"
				},
				{
					"inputs": [],
					"name": "testFind",
					"outputs": [
						{
							"internalType": "uint256",
							"name": "i",
							"type": "uint256"
						}
					],
					"stateMutability": "view",
					"type": "function"
				}
			],
			"devdoc": {
				"kind": "dev",
				"methods": {},
				"version": 1
			},
			"evm": {
				"assembly": "    /* \"C2E_learning/045_library.sol\":555:777  contract TestArray{... */\n  mstore(0x40, 0x80)\n    /* \"C2E_learning/045_library.sol\":613:642  uint[] public arr = [4,3,2,1] */\n  mload(0x40)\n  dup1\n  0x80\n  add\n  0x40\n  mstore\n  dup1\n    /* \"C2E_learning/045_library.sol\":634:635  4 */\n  0x04\n    /* \"C2E_learning/045_library.sol\":613:642  uint[] public arr = [4,3,2,1] */\n  0xff\n  and\n  dup2\n  mstore\n  0x20\n  add\n    /* \"C2E_learning/045_library.sol\":636:637  3 */\n  0x03\n    /* \"C2E_learning/045_library.sol\":613:642  uint[] public arr = [4,3,2,1] */\n  0xff\n  and\n  dup2\n  mstore\n  0x20\n  add\n    /* \"C2E_learning/045_library.sol\":638:639  2 */\n  0x02\n    /* \"C2E_learning/045_library.sol\":613:642  uint[] public arr = [4,3,2,1] */\n  0xff\n  and\n  dup2\n  mstore\n  0x20\n  add\n    /* \"C2E_learning/045_library.sol\":640:641  1 */\n  0x01\n    /* \"C2E_learning/045_library.sol\":613:642  uint[] public arr = [4,3,2,1] */\n  0xff\n  and\n  dup2\n  mstore\n  pop\n  0x00\n  swap1\n  0x04\n  tag_1\n  swap3\n  swap2\n  swap1\n  tag_2\n  jump\t// in\ntag_1:\n  pop\n    /* \"C2E_learning/045_library.sol\":555:777  contract TestArray{... */\n  callvalue\n  dup1\n  iszero\n  tag_3\n  jumpi\n  revert(0x00, 0x00)\ntag_3:\n  pop\n  jump(tag_4)\ntag_2:\n  dup3\n  dup1\n  sload\n  dup3\n  dup3\n  sstore\n  swap1\n  0x00\n  mstore\n  keccak256(0x00, 0x20)\n  swap1\n  dup2\n  add\n  swap3\n  dup3\n  iszero\n  tag_5\n  jumpi\n  swap2\n  0x20\n  mul\n  dup3\n  add\ntag_6:\n  dup3\n  dup2\n  gt\n  iszero\n  tag_7\n  jumpi\n  dup3\n  mload\n  dup3\n  swap1\n  0xff\n  and\n  swap1\n  sstore\n  swap2\n  0x20\n  add\n  swap2\n  swap1\n  0x01\n  add\n  swap1\n  jump(tag_6)\ntag_7:\ntag_5:\n  pop\n  swap1\n  pop\n  tag_8\n  swap2\n  swap1\n  tag_9\n  jump\t// in\ntag_8:\n  pop\n  swap1\n  jump\t// out\ntag_9:\ntag_10:\n  dup1\n  dup3\n  gt\n  iszero\n  tag_11\n  jumpi\n  0x00\n  dup2\n  0x00\n  swap1\n  sstore\n  pop\n  0x01\n  add\n  jump(tag_10)\ntag_11:\n  pop\n  swap1\n  jump\t// out\ntag_4:\n  dataSize(sub_0)\n  dup1\n  dataOffset(sub_0)\n  0x00\n  codecopy\n  0x00\n  return\nstop\n\nsub_0: assembly {\n        /* \"C2E_learning/045_library.sol\":555:777  contract TestArray{... */\n      mstore(0x40, 0x80)\n      callvalue\n      dup1\n      iszero\n      tag_1\n      jumpi\n      revert(0x00, 0x00)\n    tag_1:\n      pop\n      jumpi(tag_2, lt(calldatasize, 0x04))\n      shr(0xe0, calldataload(0x00))\n      dup1\n      0x71e5ee5f\n      eq\n      tag_3\n      jumpi\n      dup1\n      0xa973e27c\n      eq\n      tag_4\n      jumpi\n    tag_2:\n      revert(0x00, 0x00)\n        /* \"C2E_learning/045_library.sol\":613:642  uint[] public arr = [4,3,2,1] */\n    tag_3:\n      tag_5\n      0x04\n      dup1\n      calldatasize\n      sub\n      dup2\n      add\n      swap1\n      tag_6\n      swap2\n      swap1\n      tag_7\n      jump\t// in\n    tag_6:\n      tag_8\n      jump\t// in\n    tag_5:\n      mload(0x40)\n      tag_9\n      swap2\n      swap1\n      tag_10\n      jump\t// in\n    tag_9:\n      mload(0x40)\n      dup1\n      swap2\n      sub\n      swap1\n      return\n        /* \"C2E_learning/045_library.sol\":649:775  function testFind() external view returns (uint i){... */\n    tag_4:\n      tag_11\n      tag_12\n      jump\t// in\n    tag_11:\n      mload(0x40)\n      tag_13\n      swap2\n      swap1\n      tag_10\n      jump\t// in\n    tag_13:\n      mload(0x40)\n      dup1\n      swap2\n      sub\n      swap1\n      return\n        /* \"C2E_learning/045_library.sol\":613:642  uint[] public arr = [4,3,2,1] */\n    tag_8:\n      0x00\n      dup2\n      dup2\n      sload\n      dup2\n      lt\n      tag_14\n      jumpi\n      0x00\n      dup1\n      revert\n    tag_14:\n      swap1\n      0x00\n      mstore\n      keccak256(0x00, 0x20)\n      add\n      0x00\n      swap2\n      pop\n      swap1\n      pop\n      sload\n      dup2\n      jump\t// out\n        /* \"C2E_learning/045_library.sol\":649:775  function testFind() external view returns (uint i){... */\n    tag_12:\n        /* \"C2E_learning/045_library.sol\":692:698  uint i */\n      0x00\n        /* \"C2E_learning/045_library.sol\":716:737  ArrayLib.find(arr, 2) */\n      tag_17\n        /* \"C2E_learning/045_library.sol\":730:733  arr */\n      0x00\n        /* \"C2E_learning/045_library.sol\":735:736  2 */\n      0x02\n        /* \"C2E_learning/045_library.sol\":716:729  ArrayLib.find */\n      tag_18\n        /* \"C2E_learning/045_library.sol\":716:737  ArrayLib.find(arr, 2) */\n      jump\t// in\n    tag_17:\n        /* \"C2E_learning/045_library.sol\":709:737  return ArrayLib.find(arr, 2) */\n      swap1\n      pop\n        /* \"C2E_learning/045_library.sol\":649:775  function testFind() external view returns (uint i){... */\n      swap1\n      jump\t// out\n        /* \"C2E_learning/045_library.sol\":319:551  function find(uint[] storage arr, uint x) internal view returns(uint) {... */\n    tag_18:\n        /* \"C2E_learning/045_library.sol\":383:387  uint */\n      0x00\n        /* \"C2E_learning/045_library.sol\":403:409  uint i */\n      0x00\n        /* \"C2E_learning/045_library.sol\":412:413  0 */\n      0x00\n        /* \"C2E_learning/045_library.sol\":403:413  uint i = 0 */\n      swap1\n      pop\n        /* \"C2E_learning/045_library.sol\":399:516  for(uint i = 0; i < arr.length; i++){... */\n    tag_20:\n        /* \"C2E_learning/045_library.sol\":419:422  arr */\n      dup4\n        /* \"C2E_learning/045_library.sol\":419:429  arr.length */\n      dup1\n      sload\n      swap1\n      pop\n        /* \"C2E_learning/045_library.sol\":415:416  i */\n      dup2\n        /* \"C2E_learning/045_library.sol\":415:429  i < arr.length */\n      lt\n        /* \"C2E_learning/045_library.sol\":399:516  for(uint i = 0; i < arr.length; i++){... */\n      iszero\n      tag_21\n      jumpi\n        /* \"C2E_learning/045_library.sol\":463:464  x */\n      dup3\n        /* \"C2E_learning/045_library.sol\":453:456  arr */\n      dup5\n        /* \"C2E_learning/045_library.sol\":457:458  i */\n      dup3\n        /* \"C2E_learning/045_library.sol\":453:459  arr[i] */\n      dup2\n      sload\n      dup2\n      lt\n      tag_23\n      jumpi\n      tag_24\n      tag_25\n      jump\t// in\n    tag_24:\n    tag_23:\n      swap1\n      0x00\n      mstore\n      keccak256(0x00, 0x20)\n      add\n      sload\n        /* \"C2E_learning/045_library.sol\":453:464  arr[i] == x */\n      sub\n        /* \"C2E_learning/045_library.sol\":449:506  if (arr[i] == x){... */\n      tag_27\n      jumpi\n        /* \"C2E_learning/045_library.sol\":490:491  i */\n      dup1\n        /* \"C2E_learning/045_library.sol\":483:491  return i */\n      swap2\n      pop\n      pop\n      jump(tag_19)\n        /* \"C2E_learning/045_library.sol\":449:506  if (arr[i] == x){... */\n    tag_27:\n        /* \"C2E_learning/045_library.sol\":431:434  i++ */\n      dup1\n      dup1\n      0x01\n      add\n      swap2\n      pop\n      pop\n        /* \"C2E_learning/045_library.sol\":399:516  for(uint i = 0; i < arr.length; i++){... */\n      jump(tag_20)\n    tag_21:\n      pop\n        /* \"C2E_learning/045_library.sol\":525:544  revert(\"not found\") */\n      mload(0x40)\n      0x08c379a000000000000000000000000000000000000000000000000000000000\n      dup2\n      mstore\n      0x04\n      add\n      tag_28\n      swap1\n      tag_29\n      jump\t// in\n    tag_28:\n      mload(0x40)\n      dup1\n      swap2\n      sub\n      swap1\n      revert\n        /* \"C2E_learning/045_library.sol\":319:551  function find(uint[] storage arr, uint x) internal view returns(uint) {... */\n    tag_19:\n      swap3\n      swap2\n      pop\n      pop\n      jump\t// out\n        /* \"#utility.yul\":88:205   */\n    tag_31:\n        /* \"#utility.yul\":197:198   */\n      0x00\n        /* \"#utility.yul\":194:195   */\n      0x00\n        /* \"#utility.yul\":187:199   */\n      revert\n        /* \"#utility.yul\":334:411   */\n    tag_33:\n        /* \"#utility.yul\":371:378   */\n      0x00\n        /* \"#utility.yul\":400:405   */\n      dup2\n        /* \"#utility.yul\":389:405   */\n      swap1\n      pop\n        /* \"#utility.yul\":334:411   */\n      swap2\n      swap1\n      pop\n      jump\t// out\n        /* \"#utility.yul\":417:539   */\n    tag_34:\n        /* \"#utility.yul\":490:514   */\n      tag_46\n        /* \"#utility.yul\":508:513   */\n      dup2\n        /* \"#utility.yul\":490:514   */\n      tag_33\n      jump\t// in\n    tag_46:\n        /* \"#utility.yul\":483:488   */\n      dup2\n        /* \"#utility.yul\":480:515   */\n      eq\n        /* \"#utility.yul\":470:533   */\n      tag_47\n      jumpi\n        /* \"#utility.yul\":529:530   */\n      0x00\n        /* \"#utility.yul\":526:527   */\n      0x00\n        /* \"#utility.yul\":519:531   */\n      revert\n        /* \"#utility.yul\":470:533   */\n    tag_47:\n        /* \"#utility.yul\":417:539   */\n      pop\n      jump\t// out\n        /* \"#utility.yul\":545:684   */\n    tag_35:\n        /* \"#utility.yul\":591:596   */\n      0x00\n        /* \"#utility.yul\":629:635   */\n      dup2\n        /* \"#utility.yul\":616:636   */\n      calldataload\n        /* \"#utility.yul\":607:636   */\n      swap1\n      pop\n        /* \"#utility.yul\":645:678   */\n      tag_49\n        /* \"#utility.yul\":672:677   */\n      dup2\n        /* \"#utility.yul\":645:678   */\n      tag_34\n      jump\t// in\n    tag_49:\n        /* \"#utility.yul\":545:684   */\n      swap3\n      swap2\n      pop\n      pop\n      jump\t// out\n        /* \"#utility.yul\":690:1019   */\n    tag_7:\n        /* \"#utility.yul\":749:755   */\n      0x00\n        /* \"#utility.yul\":798:800   */\n      0x20\n        /* \"#utility.yul\":786:795   */\n      dup3\n        /* \"#utility.yul\":777:784   */\n      dup5\n        /* \"#utility.yul\":773:796   */\n      sub\n        /* \"#utility.yul\":769:801   */\n      slt\n        /* \"#utility.yul\":766:885   */\n      iszero\n      tag_51\n      jumpi\n        /* \"#utility.yul\":804:883   */\n      tag_52\n      tag_31\n      jump\t// in\n    tag_52:\n        /* \"#utility.yul\":766:885   */\n    tag_51:\n        /* \"#utility.yul\":924:925   */\n      0x00\n        /* \"#utility.yul\":949:1002   */\n      tag_53\n        /* \"#utility.yul\":994:1001   */\n      dup5\n        /* \"#utility.yul\":985:991   */\n      dup3\n        /* \"#utility.yul\":974:983   */\n      dup6\n        /* \"#utility.yul\":970:992   */\n      add\n        /* \"#utility.yul\":949:1002   */\n      tag_35\n      jump\t// in\n    tag_53:\n        /* \"#utility.yul\":939:1002   */\n      swap2\n      pop\n        /* \"#utility.yul\":895:1012   */\n      pop\n        /* \"#utility.yul\":690:1019   */\n      swap3\n      swap2\n      pop\n      pop\n      jump\t// out\n        /* \"#utility.yul\":1025:1143   */\n    tag_36:\n        /* \"#utility.yul\":1112:1136   */\n      tag_55\n        /* \"#utility.yul\":1130:1135   */\n      dup2\n        /* \"#utility.yul\":1112:1136   */\n      tag_33\n      jump\t// in\n    tag_55:\n        /* \"#utility.yul\":1107:1110   */\n      dup3\n        /* \"#utility.yul\":1100:1137   */\n      mstore\n        /* \"#utility.yul\":1025:1143   */\n      pop\n      pop\n      jump\t// out\n        /* \"#utility.yul\":1149:1371   */\n    tag_10:\n        /* \"#utility.yul\":1242:1246   */\n      0x00\n        /* \"#utility.yul\":1280:1282   */\n      0x20\n        /* \"#utility.yul\":1269:1278   */\n      dup3\n        /* \"#utility.yul\":1265:1283   */\n      add\n        /* \"#utility.yul\":1257:1283   */\n      swap1\n      pop\n        /* \"#utility.yul\":1293:1364   */\n      tag_57\n        /* \"#utility.yul\":1361:1362   */\n      0x00\n        /* \"#utility.yul\":1350:1359   */\n      dup4\n        /* \"#utility.yul\":1346:1363   */\n      add\n        /* \"#utility.yul\":1337:1343   */\n      dup5\n        /* \"#utility.yul\":1293:1364   */\n      tag_36\n      jump\t// in\n    tag_57:\n        /* \"#utility.yul\":1149:1371   */\n      swap3\n      swap2\n      pop\n      pop\n      jump\t// out\n        /* \"#utility.yul\":1377:1557   */\n    tag_25:\n        /* \"#utility.yul\":1425:1502   */\n      0x4e487b7100000000000000000000000000000000000000000000000000000000\n        /* \"#utility.yul\":1422:1423   */\n      0x00\n        /* \"#utility.yul\":1415:1503   */\n      mstore\n        /* \"#utility.yul\":1522:1526   */\n      0x32\n        /* \"#utility.yul\":1519:1520   */\n      0x04\n        /* \"#utility.yul\":1512:1527   */\n      mstore\n        /* \"#utility.yul\":1546:1550   */\n      0x24\n        /* \"#utility.yul\":1543:1544   */\n      0x00\n        /* \"#utility.yul\":1536:1551   */\n      revert\n        /* \"#utility.yul\":1563:1732   */\n    tag_37:\n        /* \"#utility.yul\":1647:1658   */\n      0x00\n        /* \"#utility.yul\":1681:1687   */\n      dup3\n        /* \"#utility.yul\":1676:1679   */\n      dup3\n        /* \"#utility.yul\":1669:1688   */\n      mstore\n        /* \"#utility.yul\":1721:1725   */\n      0x20\n        /* \"#utility.yul\":1716:1719   */\n      dup3\n        /* \"#utility.yul\":1712:1726   */\n      add\n        /* \"#utility.yul\":1697:1726   */\n      swap1\n      pop\n        /* \"#utility.yul\":1563:1732   */\n      swap3\n      swap2\n      pop\n      pop\n      jump\t// out\n        /* \"#utility.yul\":1738:1897   */\n    tag_38:\n        /* \"#utility.yul\":1878:1889   */\n      0x6e6f7420666f756e640000000000000000000000000000000000000000000000\n        /* \"#utility.yul\":1874:1875   */\n      0x00\n        /* \"#utility.yul\":1866:1872   */\n      dup3\n        /* \"#utility.yul\":1862:1876   */\n      add\n        /* \"#utility.yul\":1855:1890   */\n      mstore\n        /* \"#utility.yul\":1738:1897   */\n      pop\n      jump\t// out\n        /* \"#utility.yul\":1903:2268   */\n    tag_39:\n        /* \"#utility.yul\":2045:2048   */\n      0x00\n        /* \"#utility.yul\":2066:2132   */\n      tag_62\n        /* \"#utility.yul\":2130:2131   */\n      0x09\n        /* \"#utility.yul\":2125:2128   */\n      dup4\n        /* \"#utility.yul\":2066:2132   */\n      tag_37\n      jump\t// in\n    tag_62:\n        /* \"#utility.yul\":2059:2132   */\n      swap2\n      pop\n        /* \"#utility.yul\":2141:2234   */\n      tag_63\n        /* \"#utility.yul\":2230:2233   */\n      dup3\n        /* \"#utility.yul\":2141:2234   */\n      tag_38\n      jump\t// in\n    tag_63:\n        /* \"#utility.yul\":2259:2261   */\n      0x20\n        /* \"#utility.yul\":2254:2257   */\n      dup3\n        /* \"#utility.yul\":2250:2262   */\n      add\n        /* \"#utility.yul\":2243:2262   */\n      swap1\n      pop\n        /* \"#utility.yul\":1903:2268   */\n      swap2\n      swap1\n      pop\n      jump\t// out\n        /* \"#utility.yul\":2274:2693   */\n    tag_29:\n        /* \"#utility.yul\":2440:2444   */\n      0x00\n        /* \"#utility.yul\":2478:2480   */\n      0x20\n        /* \"#utility.yul\":2467:2476   */\n      dup3\n        /* \"#utility.yul\":2463:2481   */\n      add\n        /* \"#utility.yul\":2455:2481   */\n      swap1\n      pop\n        /* \"#utility.yul\":2527:2536   */\n      dup2\n        /* \"#utility.yul\":2521:2525   */\n      dup2\n        /* \"#utility.yul\":2517:2537   */\n      sub\n        /* \"#utility.yul\":2513:2514   */\n      0x00\n        /* \"#utility.yul\":2502:2511   */\n      dup4\n        /* \"#utility.yul\":2498:2515   */\n      add\n        /* \"#utility.yul\":2491:2538   */\n      mstore\n        /* \"#utility.yul\":2555:2686   */\n      tag_65\n        /* \"#utility.yul\":2681:2685   */\n      dup2\n        /* \"#utility.yul\":2555:2686   */\n      tag_39\n      jump\t// in\n    tag_65:\n        /* \"#utility.yul\":2547:2686   */\n      swap1\n      pop\n        /* \"#utility.yul\":2274:2693   */\n      swap2\n      swap1\n      pop\n      jump\t// out\n\n    auxdata: 0xa2646970667358221220050d6810d3f24e55adc27c00323b5a691382871652f5a0ffef3d55d885b1ae4e64736f6c634300081e0033\n}\n",
				"bytecode": {
					"linkReferences": {},
					"object": "60806040526040518060800160405280600460ff168152602001600360ff168152602001600260ff168152602001600160ff168152505f90600460429291906052565b50348015604d575f5ffd5b5060b6565b828054828255905f5260205f20908101928215608e579160200282015b82811115608d578251829060ff16905591602001919060010190606f565b5b50905060999190609d565b5090565b5b8082111560b2575f815f905550600101609e565b5090565b6102a7806100c35f395ff3fe608060405234801561000f575f5ffd5b5060043610610034575f3560e01c806371e5ee5f14610038578063a973e27c14610068575b5f5ffd5b610052600480360381019061004d9190610179565b610086565b60405161005f91906101b3565b60405180910390f35b6100706100a5565b60405161007d91906101b3565b60405180910390f35b5f8181548110610094575f80fd5b905f5260205f20015f915090505481565b5f6100b15f60026100b6565b905090565b5f5f5f90505b838054905081101561010057828482815481106100dc576100db6101cc565b5b905f5260205f200154036100f3578091505061013c565b80806001019150506100bc565b506040517f08c379a000000000000000000000000000000000000000000000000000000000815260040161013390610253565b60405180910390fd5b92915050565b5f5ffd5b5f819050919050565b61015881610146565b8114610162575f5ffd5b50565b5f813590506101738161014f565b92915050565b5f6020828403121561018e5761018d610142565b5b5f61019b84828501610165565b91505092915050565b6101ad81610146565b82525050565b5f6020820190506101c65f8301846101a4565b92915050565b7f4e487b71000000000000000000000000000000000000000000000000000000005f52603260045260245ffd5b5f82825260208201905092915050565b7f6e6f7420666f756e6400000000000000000000000000000000000000000000005f82015250565b5f61023d6009836101f9565b915061024882610209565b602082019050919050565b5f6020820190508181035f83015261026a81610231565b905091905056fea2646970667358221220050d6810d3f24e55adc27c00323b5a691382871652f5a0ffef3d55d885b1ae4e64736f6c634300081e0033",
					"opcodes": "PUSH1 0x80 PUSH1 0x40 MSTORE PUSH1 0x40 MLOAD DUP1 PUSH1 0x80 ADD PUSH1 0x40 MSTORE DUP1 PUSH1 0x4 PUSH1 0xFF AND DUP2 MSTORE PUSH1 0x20 ADD PUSH1 0x3 PUSH1 0xFF AND DUP2 MSTORE PUSH1 0x20 ADD PUSH1 0x2 PUSH1 0xFF AND DUP2 MSTORE PUSH1 0x20 ADD PUSH1 0x1 PUSH1 0xFF AND DUP2 MSTORE POP PUSH0 SWAP1 PUSH1 0x4 PUSH1 0x42 SWAP3 SWAP2 SWAP1 PUSH1 0x52 JUMP JUMPDEST POP CALLVALUE DUP1 ISZERO PUSH1 0x4D JUMPI PUSH0 PUSH0 REVERT JUMPDEST POP PUSH1 0xB6 JUMP JUMPDEST DUP3 DUP1 SLOAD DUP3 DUP3 SSTORE SWAP1 PUSH0 MSTORE PUSH1 0x20 PUSH0 KECCAK256 SWAP1 DUP2 ADD SWAP3 DUP3 ISZERO PUSH1 0x8E JUMPI SWAP2 PUSH1 0x20 MUL DUP3 ADD JUMPDEST DUP3 DUP2 GT ISZERO PUSH1 0x8D JUMPI DUP3 MLOAD DUP3 SWAP1 PUSH1 0xFF AND SWAP1 SSTORE SWAP2 PUSH1 0x20 ADD SWAP2 SWAP1 PUSH1 0x1 ADD SWAP1 PUSH1 0x6F JUMP JUMPDEST JUMPDEST POP SWAP1 POP PUSH1 0x99 SWAP2 SWAP1 PUSH1 0x9D JUMP JUMPDEST POP SWAP1 JUMP JUMPDEST JUMPDEST DUP1 DUP3 GT ISZERO PUSH1 0xB2 JUMPI PUSH0 DUP2 PUSH0 SWAP1 SSTORE POP PUSH1 0x1 ADD PUSH1 0x9E JUMP JUMPDEST POP SWAP1 JUMP JUMPDEST PUSH2 0x2A7 DUP1 PUSH2 0xC3 PUSH0 CODECOPY PUSH0 RETURN INVALID PUSH1 0x80 PUSH1 0x40 MSTORE CALLVALUE DUP1 ISZERO PUSH2 0xF JUMPI PUSH0 PUSH0 REVERT JUMPDEST POP PUSH1 0x4 CALLDATASIZE LT PUSH2 0x34 JUMPI PUSH0 CALLDATALOAD PUSH1 0xE0 SHR DUP1 PUSH4 0x71E5EE5F EQ PUSH2 0x38 JUMPI DUP1 PUSH4 0xA973E27C EQ PUSH2 0x68 JUMPI JUMPDEST PUSH0 PUSH0 REVERT JUMPDEST PUSH2 0x52 PUSH1 0x4 DUP1 CALLDATASIZE SUB DUP2 ADD SWAP1 PUSH2 0x4D SWAP2 SWAP1 PUSH2 0x179 JUMP JUMPDEST PUSH2 0x86 JUMP JUMPDEST PUSH1 0x40 MLOAD PUSH2 0x5F SWAP2 SWAP1 PUSH2 0x1B3 JUMP JUMPDEST PUSH1 0x40 MLOAD DUP1 SWAP2 SUB SWAP1 RETURN JUMPDEST PUSH2 0x70 PUSH2 0xA5 JUMP JUMPDEST PUSH1 0x40 MLOAD PUSH2 0x7D SWAP2 SWAP1 PUSH2 0x1B3 JUMP JUMPDEST PUSH1 0x40 MLOAD DUP1 SWAP2 SUB SWAP1 RETURN JUMPDEST PUSH0 DUP2 DUP2 SLOAD DUP2 LT PUSH2 0x94 JUMPI PUSH0 DUP1 REVERT JUMPDEST SWAP1 PUSH0 MSTORE PUSH1 0x20 PUSH0 KECCAK256 ADD PUSH0 SWAP2 POP SWAP1 POP SLOAD DUP2 JUMP JUMPDEST PUSH0 PUSH2 0xB1 PUSH0 PUSH1 0x2 PUSH2 0xB6 JUMP JUMPDEST SWAP1 POP SWAP1 JUMP JUMPDEST PUSH0 PUSH0 PUSH0 SWAP1 POP JUMPDEST DUP4 DUP1 SLOAD SWAP1 POP DUP2 LT ISZERO PUSH2 0x100 JUMPI DUP3 DUP5 DUP3 DUP2 SLOAD DUP2 LT PUSH2 0xDC JUMPI PUSH2 0xDB PUSH2 0x1CC JUMP JUMPDEST JUMPDEST SWAP1 PUSH0 MSTORE PUSH1 0x20 PUSH0 KECCAK256 ADD SLOAD SUB PUSH2 0xF3 JUMPI DUP1 SWAP2 POP POP PUSH2 0x13C JUMP JUMPDEST DUP1 DUP1 PUSH1 0x1 ADD SWAP2 POP POP PUSH2 0xBC JUMP JUMPDEST POP PUSH1 0x40 MLOAD PUSH32 0x8C379A000000000000000000000000000000000000000000000000000000000 DUP2 MSTORE PUSH1 0x4 ADD PUSH2 0x133 SWAP1 PUSH2 0x253 JUMP JUMPDEST PUSH1 0x40 MLOAD DUP1 SWAP2 SUB SWAP1 REVERT JUMPDEST SWAP3 SWAP2 POP POP JUMP JUMPDEST PUSH0 PUSH0 REVERT JUMPDEST PUSH0 DUP2 SWAP1 POP SWAP2 SWAP1 POP JUMP JUMPDEST PUSH2 0x158 DUP2 PUSH2 0x146 JUMP JUMPDEST DUP2 EQ PUSH2 0x162 JUMPI PUSH0 PUSH0 REVERT JUMPDEST POP JUMP JUMPDEST PUSH0 DUP2 CALLDATALOAD SWAP1 POP PUSH2 0x173 DUP2 PUSH2 0x14F JUMP JUMPDEST SWAP3 SWAP2 POP POP JUMP JUMPDEST PUSH0 PUSH1 0x20 DUP3 DUP5 SUB SLT ISZERO PUSH2 0x18E JUMPI PUSH2 0x18D PUSH2 0x142 JUMP JUMPDEST JUMPDEST PUSH0 PUSH2 0x19B DUP5 DUP3 DUP6 ADD PUSH2 0x165 JUMP JUMPDEST SWAP2 POP POP SWAP3 SWAP2 POP POP JUMP JUMPDEST PUSH2 0x1AD DUP2 PUSH2 0x146 JUMP JUMPDEST DUP3 MSTORE POP POP JUMP JUMPDEST PUSH0 PUSH1 0x20 DUP3 ADD SWAP1 POP PUSH2 0x1C6 PUSH0 DUP4 ADD DUP5 PUSH2 0x1A4 JUMP JUMPDEST SWAP3 SWAP2 POP POP JUMP JUMPDEST PUSH32 0x4E487B7100000000000000000000000000000000000000000000000000000000 PUSH0 MSTORE PUSH1 0x32 PUSH1 0x4 MSTORE PUSH1 0x24 PUSH0 REVERT JUMPDEST PUSH0 DUP3 DUP3 MSTORE PUSH1 0x20 DUP3 ADD SWAP1 POP SWAP3 SWAP2 POP POP JUMP JUMPDEST PUSH32 0x6E6F7420666F756E640000000000000000000000000000000000000000000000 PUSH0 DUP3 ADD MSTORE POP JUMP JUMPDEST PUSH0 PUSH2 0x23D PUSH1 0x9 DUP4 PUSH2 0x1F9 JUMP JUMPDEST SWAP2 POP PUSH2 0x248 DUP3 PUSH2 0x209 JUMP JUMPDEST PUSH1 0x20 DUP3 ADD SWAP1 POP SWAP2 SWAP1 POP JUMP JUMPDEST PUSH0 PUSH1 0x20 DUP3 ADD SWAP1 POP DUP2 DUP2 SUB PUSH0 DUP4 ADD MSTORE PUSH2 0x26A DUP2 PUSH2 0x231 JUMP JUMPDEST SWAP1 POP SWAP2 SWAP1 POP JUMP INVALID LOG2 PUSH5 0x6970667358 0x22 SLT KECCAK256 SDIV 0xD PUSH9 0x10D3F24E55ADC27C00 ORIGIN EXTCODESIZE GAS PUSH10 0x1382871652F5A0FFEF3D SSTORE 0xD8 DUP6 0xB1 0xAE 0x4E PUSH5 0x736F6C6343 STOP ADDMOD 0x1E STOP CALLER "
				},
				"gasEstimates": {
					"creation": {
						"codeDepositCost": "135800",
						"executionCost": "infinite",
						"totalCost": "infinite"
					},
					"external": {
						"arr(uint256)": "infinite",
						"testFind()": "infinite"
					}
				},
				"methodIdentifiers": {
					"arr(uint256)": "71e5ee5f",
					"testFind()": "a973e27c"
				}
			},
			"storageLayout": {
				"storage": [
					{
						"astId": 82,
						"contract": "C2E_learning/045_library.sol:TestArray",
						"label": "arr",
						"offset": 0,
						"slot": "0",
						"type": "t_array(t_uint256)dyn_storage"
					}
				],
				"types": {
					"t_array(t_uint256)dyn_storage": {
						"base": "t_uint256",
						"encoding": "dynamic_array",
						"label": "uint256[]",
						"numberOfBytes": "32"
					},
					"t_uint256": {
						"encoding": "inplace",
						"label": "uint256",
						"numberOfBytes": "32"
					}
				}
			},
			"userdoc": {
				"kind": "user",
				"methods": {},
				"version": 1
			}
		}
	}
}