{
	"C2E_learning/036_Payable.sol": {
		"PayableExample": {
			"abi": [
				{
					"inputs": [],
					"stateMutability": "nonpayable",
					"type": "constructor"
				},
				{
					"anonymous": false,
					"inputs": [
						{
							"indexed": true,
							"internalType": "address",
							"name": "sender",
							"type": "address"
						},
						{
							"indexed": false,
							"internalType": "uint256",
							"name": "amount",
							"type": "uint256"
						},
						{
							"indexed": false,
							"internalType": "uint256",
							"name": "totalBalance",
							"type": "uint256"
						}
					],
					"name": "EtherReceived",
					"type": "event"
				},
				{
					"anonymous": false,
					"inputs": [
						{
							"indexed": true,
							"internalType": "address",
							"name": "recipient",
							"type": "address"
						},
						{
							"indexed": false,
							"internalType": "uint256",
							"name": "amount",
							"type": "uint256"
						},
						{
							"indexed": false,
							"internalType": "uint256",
							"name": "remainingBalance",
							"type": "uint256"
						}
					],
					"name": "EtherWithdrawn",
					"type": "event"
				},
				{
					"inputs": [],
					"name": "deposit",
					"outputs": [],
					"stateMutability": "payable",
					"type": "function"
				},
				{
					"inputs": [],
					"name": "depositCount",
					"outputs": [
						{
							"internalType": "uint256",
							"name": "",
							"type": "uint256"
						}
					],
					"stateMutability": "view",
					"type": "function"
				},
				{
					"inputs": [],
					"name": "getBalance",
					"outputs": [
						{
							"internalType": "uint256",
							"name": "",
							"type": "uint256"
						}
					],
					"stateMutability": "view",
					"type": "function"
				},
				{
					"inputs": [],
					"name": "getDepositCount",
					"outputs": [
						{
							"internalType": "uint256",
							"name": "",
							"type": "uint256"
						}
					],
					"stateMutability": "view",
					"type": "function"
				},
				{
					"inputs": [],
					"name": "owner",
					"outputs": [
						{
							"internalType": "address payable",
							"name": "",
							"type": "address"
						}
					],
					"stateMutability": "view",
					"type": "function"
				},
				{
					"inputs": [
						{
							"internalType": "uint256",
							"name": "amount",
							"type": "uint256"
						},
						{
							"internalType": "address payable",
							"name": "recipient",
							"type": "address"
						}
					],
					"name": "withdraw",
					"outputs": [],
					"stateMutability": "nonpayable",
					"type": "function"
				},
				{
					"stateMutability": "payable",
					"type": "receive"
				}
			],
			"devdoc": {
				"kind": "dev",
				"methods": {
					"deposit()": {
						"details": "显式存款函数（与 receive() 功能重叠，可选保留）"
					},
					"getBalance()": {
						"details": "查询合约余额",
						"returns": {
							"_0": "合约当前 ETH 余额"
						}
					},
					"getDepositCount()": {
						"details": "查询存款次数",
						"returns": {
							"_0": "累计存款次数"
						}
					},
					"withdraw(uint256,address)": {
						"details": "提款函数（仅限 owner）",
						"params": {
							"amount": "提款金额",
							"recipient": "接收地址（默认为 owner）"
						}
					}
				},
				"version": 1
			},
			"evm": {
				"assembly": "    /* \"C2E_learning/036_Payable.sol\":58:2089  contract PayableExample {... */\n  mstore(0x40, 0xa0)\n    /* \"C2E_learning/036_Payable.sol\":445:503  constructor() {... */\n  callvalue\n  dup1\n  iszero\n  tag_1\n  jumpi\n  revert(0x00, 0x00)\ntag_1:\n  pop\n    /* \"C2E_learning/036_Payable.sol\":485:495  msg.sender */\n  caller\n    /* \"C2E_learning/036_Payable.sol\":469:496  owner = payable(msg.sender) */\n  0xffffffffffffffffffffffffffffffffffffffff\n  and\n  0x80\n  dup2\n  0xffffffffffffffffffffffffffffffffffffffff\n  and\n  dup2\n  mstore\n  pop\n  pop\n    /* \"C2E_learning/036_Payable.sol\":58:2089  contract PayableExample {... */\n  mload(0x80)\n  codecopy(0x00, dataOffset(sub_0), dataSize(sub_0))\n  0x00\n  assignImmutable(\"0x2a80e1ef1d7842f27f2e6be0972bb708b9a135c38860dbe73c27c3486c34f4de\")\n  return(0x00, dataSize(sub_0))\nstop\n\nsub_0: assembly {\n        /* \"C2E_learning/036_Payable.sol\":58:2089  contract PayableExample {... */\n      mstore(0x40, 0x80)\n      jumpi(tag_1, lt(calldatasize, 0x04))\n      shr(0xe0, calldataload(0x00))\n      dup1\n      0xf714ce\n      eq\n      tag_3\n      jumpi\n      dup1\n      0x12065fe0\n      eq\n      tag_4\n      jumpi\n      dup1\n      0x2dfdf0b5\n      eq\n      tag_5\n      jumpi\n      dup1\n      0x8da5cb5b\n      eq\n      tag_6\n      jumpi\n      dup1\n      0x9363a141\n      eq\n      tag_7\n      jumpi\n      dup1\n      0xd0e30db0\n      eq\n      tag_8\n      jumpi\n      jump(tag_2)\n    tag_1:\n      jumpi(tag_2, calldatasize)\n        /* \"C2E_learning/036_Payable.sol\":690:702  depositCount */\n      0x00\n      0x00\n        /* \"C2E_learning/036_Payable.sol\":690:704  depositCount++ */\n      dup2\n      sload\n      dup1\n      swap3\n      swap2\n      swap1\n      tag_11\n      swap1\n      tag_12\n      jump\t// in\n    tag_11:\n      swap2\n      swap1\n      pop\n      sstore\n      pop\n        /* \"C2E_learning/036_Payable.sol\":733:743  msg.sender */\n      caller\n        /* \"C2E_learning/036_Payable.sol\":719:778  EtherReceived(msg.sender, msg.value, address(this).balance) */\n      0xffffffffffffffffffffffffffffffffffffffff\n      and\n      0x1d57945c1033a96907a78f6e0ebf6a03815725dac25f33cc806558670344ac88\n        /* \"C2E_learning/036_Payable.sol\":745:754  msg.value */\n      callvalue\n        /* \"C2E_learning/036_Payable.sol\":756:777  address(this).balance */\n      selfbalance\n        /* \"C2E_learning/036_Payable.sol\":719:778  EtherReceived(msg.sender, msg.value, address(this).balance) */\n      mload(0x40)\n      tag_13\n      swap3\n      swap2\n      swap1\n      tag_14\n      jump\t// in\n    tag_13:\n      mload(0x40)\n      dup1\n      swap2\n      sub\n      swap1\n      log2\n        /* \"C2E_learning/036_Payable.sol\":58:2089  contract PayableExample {... */\n      stop\n    tag_2:\n      revert(0x00, 0x00)\n        /* \"C2E_learning/036_Payable.sol\":1256:1714  function withdraw(uint256 amount, address payable recipient) external {... */\n    tag_3:\n      callvalue\n      dup1\n      iszero\n      tag_15\n      jumpi\n      revert(0x00, 0x00)\n    tag_15:\n      pop\n      tag_16\n      0x04\n      dup1\n      calldatasize\n      sub\n      dup2\n      add\n      swap1\n      tag_17\n      swap2\n      swap1\n      tag_18\n      jump\t// in\n    tag_17:\n      tag_19\n      jump\t// in\n    tag_16:\n      stop\n        /* \"C2E_learning/036_Payable.sol\":1806:1905  function getBalance() external view returns (uint256) {... */\n    tag_4:\n      callvalue\n      dup1\n      iszero\n      tag_20\n      jumpi\n      revert(0x00, 0x00)\n    tag_20:\n      pop\n      tag_21\n      tag_22\n      jump\t// in\n    tag_21:\n      mload(0x40)\n      tag_23\n      swap2\n      swap1\n      tag_24\n      jump\t// in\n    tag_23:\n      mload(0x40)\n      dup1\n      swap2\n      sub\n      swap1\n      return\n        /* \"C2E_learning/036_Payable.sol\":157:184  uint256 public depositCount */\n    tag_5:\n      callvalue\n      dup1\n      iszero\n      tag_25\n      jumpi\n      revert(0x00, 0x00)\n    tag_25:\n      pop\n      tag_26\n      tag_27\n      jump\t// in\n    tag_26:\n      mload(0x40)\n      tag_28\n      swap2\n      swap1\n      tag_24\n      jump\t// in\n    tag_28:\n      mload(0x40)\n      dup1\n      swap2\n      sub\n      swap1\n      return\n        /* \"C2E_learning/036_Payable.sol\":88:126  address payable public immutable owner */\n    tag_6:\n      callvalue\n      dup1\n      iszero\n      tag_29\n      jumpi\n      revert(0x00, 0x00)\n    tag_29:\n      pop\n      tag_30\n      tag_31\n      jump\t// in\n    tag_30:\n      mload(0x40)\n      tag_32\n      swap2\n      swap1\n      tag_33\n      jump\t// in\n    tag_32:\n      mload(0x40)\n      dup1\n      swap2\n      sub\n      swap1\n      return\n        /* \"C2E_learning/036_Payable.sol\":1992:2087  function getDepositCount() external view returns (uint256) {... */\n    tag_7:\n      callvalue\n      dup1\n      iszero\n      tag_34\n      jumpi\n      revert(0x00, 0x00)\n    tag_34:\n      pop\n      tag_35\n      tag_36\n      jump\t// in\n    tag_35:\n      mload(0x40)\n      tag_37\n      swap2\n      swap1\n      tag_24\n      jump\t// in\n    tag_37:\n      mload(0x40)\n      dup1\n      swap2\n      sub\n      swap1\n      return\n        /* \"C2E_learning/036_Payable.sol\":958:1099  function deposit() external payable {... */\n    tag_8:\n      tag_38\n      tag_39\n      jump\t// in\n    tag_38:\n      stop\n        /* \"C2E_learning/036_Payable.sol\":1256:1714  function withdraw(uint256 amount, address payable recipient) external {... */\n    tag_19:\n        /* \"C2E_learning/036_Payable.sol\":1358:1363  owner */\n      immutable(\"0x2a80e1ef1d7842f27f2e6be0972bb708b9a135c38860dbe73c27c3486c34f4de\")\n        /* \"C2E_learning/036_Payable.sol\":1344:1363  msg.sender == owner */\n      0xffffffffffffffffffffffffffffffffffffffff\n      and\n        /* \"C2E_learning/036_Payable.sol\":1344:1354  msg.sender */\n      caller\n        /* \"C2E_learning/036_Payable.sol\":1344:1363  msg.sender == owner */\n      0xffffffffffffffffffffffffffffffffffffffff\n      and\n      eq\n        /* \"C2E_learning/036_Payable.sol\":1336:1391  require(msg.sender == owner, \"Only owner can withdraw\") */\n      tag_41\n      jumpi\n      mload(0x40)\n      0x08c379a000000000000000000000000000000000000000000000000000000000\n      dup2\n      mstore\n      0x04\n      add\n      tag_42\n      swap1\n      tag_43\n      jump\t// in\n    tag_42:\n      mload(0x40)\n      dup1\n      swap2\n      sub\n      swap1\n      revert\n    tag_41:\n        /* \"C2E_learning/036_Payable.sol\":1434:1440  amount */\n      dup2\n        /* \"C2E_learning/036_Payable.sol\":1409:1430  address(this).balance */\n      selfbalance\n        /* \"C2E_learning/036_Payable.sol\":1409:1440  address(this).balance >= amount */\n      lt\n      iszero\n        /* \"C2E_learning/036_Payable.sol\":1401:1465  require(address(this).balance >= amount, \"Insufficient balance\") */\n      tag_44\n      jumpi\n      mload(0x40)\n      0x08c379a000000000000000000000000000000000000000000000000000000000\n      dup2\n      mstore\n      0x04\n      add\n      tag_45\n      swap1\n      tag_46\n      jump\t// in\n    tag_45:\n      mload(0x40)\n      dup1\n      swap2\n      sub\n      swap1\n      revert\n    tag_44:\n        /* \"C2E_learning/036_Payable.sol\":1476:1500  uint256 remainingBalance */\n      0x00\n        /* \"C2E_learning/036_Payable.sol\":1527:1533  amount */\n      dup3\n        /* \"C2E_learning/036_Payable.sol\":1503:1524  address(this).balance */\n      selfbalance\n        /* \"C2E_learning/036_Payable.sol\":1503:1533  address(this).balance - amount */\n      tag_47\n      swap2\n      swap1\n      tag_48\n      jump\t// in\n    tag_47:\n        /* \"C2E_learning/036_Payable.sol\":1476:1533  uint256 remainingBalance = address(this).balance - amount */\n      swap1\n      pop\n        /* \"C2E_learning/036_Payable.sol\":1544:1556  bool success */\n      0x00\n        /* \"C2E_learning/036_Payable.sol\":1562:1571  recipient */\n      dup3\n        /* \"C2E_learning/036_Payable.sol\":1562:1576  recipient.call */\n      0xffffffffffffffffffffffffffffffffffffffff\n      and\n        /* \"C2E_learning/036_Payable.sol\":1584:1590  amount */\n      dup5\n        /* \"C2E_learning/036_Payable.sol\":1562:1595  recipient.call{value: amount}(\"\") */\n      mload(0x40)\n      tag_49\n      swap1\n      tag_50\n      jump\t// in\n    tag_49:\n      0x00\n      mload(0x40)\n      dup1\n      dup4\n      sub\n      dup2\n      dup6\n      dup8\n      gas\n      call\n      swap3\n      pop\n      pop\n      pop\n      returndatasize\n      dup1\n      0x00\n      dup2\n      eq\n      tag_53\n      jumpi\n      mload(0x40)\n      swap2\n      pop\n      and(add(returndatasize, 0x3f), not(0x1f))\n      dup3\n      add\n      0x40\n      mstore\n      returndatasize\n      dup3\n      mstore\n      returndatasize\n      0x00\n      0x20\n      dup5\n      add\n      returndatacopy\n      jump(tag_52)\n    tag_53:\n      0x60\n      swap2\n      pop\n    tag_52:\n      pop\n        /* \"C2E_learning/036_Payable.sol\":1543:1595  (bool success, ) = recipient.call{value: amount}(\"\") */\n      pop\n      swap1\n      pop\n        /* \"C2E_learning/036_Payable.sol\":1613:1620  success */\n      dup1\n        /* \"C2E_learning/036_Payable.sol\":1605:1640  require(success, \"Transfer failed\") */\n      tag_54\n      jumpi\n      mload(0x40)\n      0x08c379a000000000000000000000000000000000000000000000000000000000\n      dup2\n      mstore\n      0x04\n      add\n      tag_55\n      swap1\n      tag_56\n      jump\t// in\n    tag_55:\n      mload(0x40)\n      dup1\n      swap2\n      sub\n      swap1\n      revert\n    tag_54:\n        /* \"C2E_learning/036_Payable.sol\":1671:1680  recipient */\n      dup3\n        /* \"C2E_learning/036_Payable.sol\":1656:1707  EtherWithdrawn(recipient, amount, remainingBalance) */\n      0xffffffffffffffffffffffffffffffffffffffff\n      and\n      0xd5ca65e1ec4f4864fea7b9c5cb1ec3087a0dbf9c74641db3f6458edf445c4051\n        /* \"C2E_learning/036_Payable.sol\":1682:1688  amount */\n      dup6\n        /* \"C2E_learning/036_Payable.sol\":1690:1706  remainingBalance */\n      dup5\n        /* \"C2E_learning/036_Payable.sol\":1656:1707  EtherWithdrawn(recipient, amount, remainingBalance) */\n      mload(0x40)\n      tag_57\n      swap3\n      swap2\n      swap1\n      tag_14\n      jump\t// in\n    tag_57:\n      mload(0x40)\n      dup1\n      swap2\n      sub\n      swap1\n      log2\n        /* \"C2E_learning/036_Payable.sol\":1326:1714  {... */\n      pop\n      pop\n        /* \"C2E_learning/036_Payable.sol\":1256:1714  function withdraw(uint256 amount, address payable recipient) external {... */\n      pop\n      pop\n      jump\t// out\n        /* \"C2E_learning/036_Payable.sol\":1806:1905  function getBalance() external view returns (uint256) {... */\n    tag_22:\n        /* \"C2E_learning/036_Payable.sol\":1851:1858  uint256 */\n      0x00\n        /* \"C2E_learning/036_Payable.sol\":1877:1898  address(this).balance */\n      selfbalance\n        /* \"C2E_learning/036_Payable.sol\":1870:1898  return address(this).balance */\n      swap1\n      pop\n        /* \"C2E_learning/036_Payable.sol\":1806:1905  function getBalance() external view returns (uint256) {... */\n      swap1\n      jump\t// out\n        /* \"C2E_learning/036_Payable.sol\":157:184  uint256 public depositCount */\n    tag_27:\n      sload(0x00)\n      dup2\n      jump\t// out\n        /* \"C2E_learning/036_Payable.sol\":88:126  address payable public immutable owner */\n    tag_31:\n      immutable(\"0x2a80e1ef1d7842f27f2e6be0972bb708b9a135c38860dbe73c27c3486c34f4de\")\n      dup2\n      jump\t// out\n        /* \"C2E_learning/036_Payable.sol\":1992:2087  function getDepositCount() external view returns (uint256) {... */\n    tag_36:\n        /* \"C2E_learning/036_Payable.sol\":2042:2049  uint256 */\n      0x00\n        /* \"C2E_learning/036_Payable.sol\":2068:2080  depositCount */\n      sload(0x00)\n        /* \"C2E_learning/036_Payable.sol\":2061:2080  return depositCount */\n      swap1\n      pop\n        /* \"C2E_learning/036_Payable.sol\":1992:2087  function getDepositCount() external view returns (uint256) {... */\n      swap1\n      jump\t// out\n        /* \"C2E_learning/036_Payable.sol\":958:1099  function deposit() external payable {... */\n    tag_39:\n        /* \"C2E_learning/036_Payable.sol\":1004:1016  depositCount */\n      0x00\n      0x00\n        /* \"C2E_learning/036_Payable.sol\":1004:1018  depositCount++ */\n      dup2\n      sload\n      dup1\n      swap3\n      swap2\n      swap1\n      tag_61\n      swap1\n      tag_12\n      jump\t// in\n    tag_61:\n      swap2\n      swap1\n      pop\n      sstore\n      pop\n        /* \"C2E_learning/036_Payable.sol\":1047:1057  msg.sender */\n      caller\n        /* \"C2E_learning/036_Payable.sol\":1033:1092  EtherReceived(msg.sender, msg.value, address(this).balance) */\n      0xffffffffffffffffffffffffffffffffffffffff\n      and\n      0x1d57945c1033a96907a78f6e0ebf6a03815725dac25f33cc806558670344ac88\n        /* \"C2E_learning/036_Payable.sol\":1059:1068  msg.value */\n      callvalue\n        /* \"C2E_learning/036_Payable.sol\":1070:1091  address(this).balance */\n      selfbalance\n        /* \"C2E_learning/036_Payable.sol\":1033:1092  EtherReceived(msg.sender, msg.value, address(this).balance) */\n      mload(0x40)\n      tag_62\n      swap3\n      swap2\n      swap1\n      tag_14\n      jump\t// in\n    tag_62:\n      mload(0x40)\n      dup1\n      swap2\n      sub\n      swap1\n      log2\n        /* \"C2E_learning/036_Payable.sol\":958:1099  function deposit() external payable {... */\n      jump\t// out\n        /* \"#utility.yul\":7:187   */\n    tag_63:\n        /* \"#utility.yul\":55:132   */\n      0x4e487b7100000000000000000000000000000000000000000000000000000000\n        /* \"#utility.yul\":52:53   */\n      0x00\n        /* \"#utility.yul\":45:133   */\n      mstore\n        /* \"#utility.yul\":152:156   */\n      0x11\n        /* \"#utility.yul\":149:150   */\n      0x04\n        /* \"#utility.yul\":142:157   */\n      mstore\n        /* \"#utility.yul\":176:180   */\n      0x24\n        /* \"#utility.yul\":173:174   */\n      0x00\n        /* \"#utility.yul\":166:181   */\n      revert\n        /* \"#utility.yul\":193:270   */\n    tag_64:\n        /* \"#utility.yul\":230:237   */\n      0x00\n        /* \"#utility.yul\":259:264   */\n      dup2\n        /* \"#utility.yul\":248:264   */\n      swap1\n      pop\n        /* \"#utility.yul\":193:270   */\n      swap2\n      swap1\n      pop\n      jump\t// out\n        /* \"#utility.yul\":276:509   */\n    tag_12:\n        /* \"#utility.yul\":315:318   */\n      0x00\n        /* \"#utility.yul\":338:362   */\n      tag_90\n        /* \"#utility.yul\":356:361   */\n      dup3\n        /* \"#utility.yul\":338:362   */\n      tag_64\n      jump\t// in\n    tag_90:\n        /* \"#utility.yul\":329:362   */\n      swap2\n      pop\n        /* \"#utility.yul\":384:450   */\n      0xffffffffffffffffffffffffffffffffffffffffffffffffffffffffffffffff\n        /* \"#utility.yul\":377:382   */\n      dup3\n        /* \"#utility.yul\":374:451   */\n      sub\n        /* \"#utility.yul\":371:474   */\n      tag_91\n      jumpi\n        /* \"#utility.yul\":454:472   */\n      tag_92\n      tag_63\n      jump\t// in\n    tag_92:\n        /* \"#utility.yul\":371:474   */\n    tag_91:\n        /* \"#utility.yul\":501:502   */\n      0x01\n        /* \"#utility.yul\":494:499   */\n      dup3\n        /* \"#utility.yul\":490:503   */\n      add\n        /* \"#utility.yul\":483:503   */\n      swap1\n      pop\n        /* \"#utility.yul\":276:509   */\n      swap2\n      swap1\n      pop\n      jump\t// out\n        /* \"#utility.yul\":515:633   */\n    tag_65:\n        /* \"#utility.yul\":602:626   */\n      tag_94\n        /* \"#utility.yul\":620:625   */\n      dup2\n        /* \"#utility.yul\":602:626   */\n      tag_64\n      jump\t// in\n    tag_94:\n        /* \"#utility.yul\":597:600   */\n      dup3\n        /* \"#utility.yul\":590:627   */\n      mstore\n        /* \"#utility.yul\":515:633   */\n      pop\n      pop\n      jump\t// out\n        /* \"#utility.yul\":639:971   */\n    tag_14:\n        /* \"#utility.yul\":760:764   */\n      0x00\n        /* \"#utility.yul\":798:800   */\n      0x40\n        /* \"#utility.yul\":787:796   */\n      dup3\n        /* \"#utility.yul\":783:801   */\n      add\n        /* \"#utility.yul\":775:801   */\n      swap1\n      pop\n        /* \"#utility.yul\":811:882   */\n      tag_96\n        /* \"#utility.yul\":879:880   */\n      0x00\n        /* \"#utility.yul\":868:877   */\n      dup4\n        /* \"#utility.yul\":864:881   */\n      add\n        /* \"#utility.yul\":855:861   */\n      dup6\n        /* \"#utility.yul\":811:882   */\n      tag_65\n      jump\t// in\n    tag_96:\n        /* \"#utility.yul\":892:964   */\n      tag_97\n        /* \"#utility.yul\":960:962   */\n      0x20\n        /* \"#utility.yul\":949:958   */\n      dup4\n        /* \"#utility.yul\":945:963   */\n      add\n        /* \"#utility.yul\":936:942   */\n      dup5\n        /* \"#utility.yul\":892:964   */\n      tag_65\n      jump\t// in\n    tag_97:\n        /* \"#utility.yul\":639:971   */\n      swap4\n      swap3\n      pop\n      pop\n      pop\n      jump\t// out\n        /* \"#utility.yul\":1058:1175   */\n    tag_67:\n        /* \"#utility.yul\":1167:1168   */\n      0x00\n        /* \"#utility.yul\":1164:1165   */\n      0x00\n        /* \"#utility.yul\":1157:1169   */\n      revert\n        /* \"#utility.yul\":1304:1426   */\n    tag_69:\n        /* \"#utility.yul\":1377:1401   */\n      tag_102\n        /* \"#utility.yul\":1395:1400   */\n      dup2\n        /* \"#utility.yul\":1377:1401   */\n      tag_64\n      jump\t// in\n    tag_102:\n        /* \"#utility.yul\":1370:1375   */\n      dup2\n        /* \"#utility.yul\":1367:1402   */\n      eq\n        /* \"#utility.yul\":1357:1420   */\n      tag_103\n      jumpi\n        /* \"#utility.yul\":1416:1417   */\n      0x00\n        /* \"#utility.yul\":1413:1414   */\n      0x00\n        /* \"#utility.yul\":1406:1418   */\n      revert\n        /* \"#utility.yul\":1357:1420   */\n    tag_103:\n        /* \"#utility.yul\":1304:1426   */\n      pop\n      jump\t// out\n        /* \"#utility.yul\":1432:1571   */\n    tag_70:\n        /* \"#utility.yul\":1478:1483   */\n      0x00\n        /* \"#utility.yul\":1516:1522   */\n      dup2\n        /* \"#utility.yul\":1503:1523   */\n      calldataload\n        /* \"#utility.yul\":1494:1523   */\n      swap1\n      pop\n        /* \"#utility.yul\":1532:1565   */\n      tag_105\n        /* \"#utility.yul\":1559:1564   */\n      dup2\n        /* \"#utility.yul\":1532:1565   */\n      tag_69\n      jump\t// in\n    tag_105:\n        /* \"#utility.yul\":1432:1571   */\n      swap3\n      swap2\n      pop\n      pop\n      jump\t// out\n        /* \"#utility.yul\":1577:1703   */\n    tag_71:\n        /* \"#utility.yul\":1614:1621   */\n      0x00\n        /* \"#utility.yul\":1654:1696   */\n      0xffffffffffffffffffffffffffffffffffffffff\n        /* \"#utility.yul\":1647:1652   */\n      dup3\n        /* \"#utility.yul\":1643:1697   */\n      and\n        /* \"#utility.yul\":1632:1697   */\n      swap1\n      pop\n        /* \"#utility.yul\":1577:1703   */\n      swap2\n      swap1\n      pop\n      jump\t// out\n        /* \"#utility.yul\":1709:1813   */\n    tag_72:\n        /* \"#utility.yul\":1754:1761   */\n      0x00\n        /* \"#utility.yul\":1783:1807   */\n      tag_108\n        /* \"#utility.yul\":1801:1806   */\n      dup3\n        /* \"#utility.yul\":1783:1807   */\n      tag_71\n      jump\t// in\n    tag_108:\n        /* \"#utility.yul\":1772:1807   */\n      swap1\n      pop\n        /* \"#utility.yul\":1709:1813   */\n      swap2\n      swap1\n      pop\n      jump\t// out\n        /* \"#utility.yul\":1819:1957   */\n    tag_73:\n        /* \"#utility.yul\":1900:1932   */\n      tag_110\n        /* \"#utility.yul\":1926:1931   */\n      dup2\n        /* \"#utility.yul\":1900:1932   */\n      tag_72\n      jump\t// in\n    tag_110:\n        /* \"#utility.yul\":1893:1898   */\n      dup2\n        /* \"#utility.yul\":1890:1933   */\n      eq\n        /* \"#utility.yul\":1880:1951   */\n      tag_111\n      jumpi\n        /* \"#utility.yul\":1947:1948   */\n      0x00\n        /* \"#utility.yul\":1944:1945   */\n      0x00\n        /* \"#utility.yul\":1937:1949   */\n      revert\n        /* \"#utility.yul\":1880:1951   */\n    tag_111:\n        /* \"#utility.yul\":1819:1957   */\n      pop\n      jump\t// out\n        /* \"#utility.yul\":1963:2118   */\n    tag_74:\n        /* \"#utility.yul\":2017:2022   */\n      0x00\n        /* \"#utility.yul\":2055:2061   */\n      dup2\n        /* \"#utility.yul\":2042:2062   */\n      calldataload\n        /* \"#utility.yul\":2033:2062   */\n      swap1\n      pop\n        /* \"#utility.yul\":2071:2112   */\n      tag_113\n        /* \"#utility.yul\":2106:2111   */\n      dup2\n        /* \"#utility.yul\":2071:2112   */\n      tag_73\n      jump\t// in\n    tag_113:\n        /* \"#utility.yul\":1963:2118   */\n      swap3\n      swap2\n      pop\n      pop\n      jump\t// out\n        /* \"#utility.yul\":2124:2614   */\n    tag_18:\n        /* \"#utility.yul\":2200:2206   */\n      0x00\n        /* \"#utility.yul\":2208:2214   */\n      0x00\n        /* \"#utility.yul\":2257:2259   */\n      0x40\n        /* \"#utility.yul\":2245:2254   */\n      dup4\n        /* \"#utility.yul\":2236:2243   */\n      dup6\n        /* \"#utility.yul\":2232:2255   */\n      sub\n        /* \"#utility.yul\":2228:2260   */\n      slt\n        /* \"#utility.yul\":2225:2344   */\n      iszero\n      tag_115\n      jumpi\n        /* \"#utility.yul\":2263:2342   */\n      tag_116\n      tag_67\n      jump\t// in\n    tag_116:\n        /* \"#utility.yul\":2225:2344   */\n    tag_115:\n        /* \"#utility.yul\":2383:2384   */\n      0x00\n        /* \"#utility.yul\":2408:2461   */\n      tag_117\n        /* \"#utility.yul\":2453:2460   */\n      dup6\n        /* \"#utility.yul\":2444:2450   */\n      dup3\n        /* \"#utility.yul\":2433:2442   */\n      dup7\n        /* \"#utility.yul\":2429:2451   */\n      add\n        /* \"#utility.yul\":2408:2461   */\n      tag_70\n      jump\t// in\n    tag_117:\n        /* \"#utility.yul\":2398:2461   */\n      swap3\n      pop\n        /* \"#utility.yul\":2354:2471   */\n      pop\n        /* \"#utility.yul\":2510:2512   */\n      0x20\n        /* \"#utility.yul\":2536:2597   */\n      tag_118\n        /* \"#utility.yul\":2589:2596   */\n      dup6\n        /* \"#utility.yul\":2580:2586   */\n      dup3\n        /* \"#utility.yul\":2569:2578   */\n      dup7\n        /* \"#utility.yul\":2565:2587   */\n      add\n        /* \"#utility.yul\":2536:2597   */\n      tag_74\n      jump\t// in\n    tag_118:\n        /* \"#utility.yul\":2526:2597   */\n      swap2\n      pop\n        /* \"#utility.yul\":2481:2607   */\n      pop\n        /* \"#utility.yul\":2124:2614   */\n      swap3\n      pop\n      swap3\n      swap1\n      pop\n      jump\t// out\n        /* \"#utility.yul\":2620:2842   */\n    tag_24:\n        /* \"#utility.yul\":2713:2717   */\n      0x00\n        /* \"#utility.yul\":2751:2753   */\n      0x20\n        /* \"#utility.yul\":2740:2749   */\n      dup3\n        /* \"#utility.yul\":2736:2754   */\n      add\n        /* \"#utility.yul\":2728:2754   */\n      swap1\n      pop\n        /* \"#utility.yul\":2764:2835   */\n      tag_120\n        /* \"#utility.yul\":2832:2833   */\n      0x00\n        /* \"#utility.yul\":2821:2830   */\n      dup4\n        /* \"#utility.yul\":2817:2834   */\n      add\n        /* \"#utility.yul\":2808:2814   */\n      dup5\n        /* \"#utility.yul\":2764:2835   */\n      tag_65\n      jump\t// in\n    tag_120:\n        /* \"#utility.yul\":2620:2842   */\n      swap3\n      swap2\n      pop\n      pop\n      jump\t// out\n        /* \"#utility.yul\":2848:2990   */\n    tag_75:\n        /* \"#utility.yul\":2951:2983   */\n      tag_122\n        /* \"#utility.yul\":2977:2982   */\n      dup2\n        /* \"#utility.yul\":2951:2983   */\n      tag_72\n      jump\t// in\n    tag_122:\n        /* \"#utility.yul\":2946:2949   */\n      dup3\n        /* \"#utility.yul\":2939:2984   */\n      mstore\n        /* \"#utility.yul\":2848:2990   */\n      pop\n      pop\n      jump\t// out\n        /* \"#utility.yul\":2996:3250   */\n    tag_33:\n        /* \"#utility.yul\":3105:3109   */\n      0x00\n        /* \"#utility.yul\":3143:3145   */\n      0x20\n        /* \"#utility.yul\":3132:3141   */\n      dup3\n        /* \"#utility.yul\":3128:3146   */\n      add\n        /* \"#utility.yul\":3120:3146   */\n      swap1\n      pop\n        /* \"#utility.yul\":3156:3243   */\n      tag_124\n        /* \"#utility.yul\":3240:3241   */\n      0x00\n        /* \"#utility.yul\":3229:3238   */\n      dup4\n        /* \"#utility.yul\":3225:3242   */\n      add\n        /* \"#utility.yul\":3216:3222   */\n      dup5\n        /* \"#utility.yul\":3156:3243   */\n      tag_75\n      jump\t// in\n    tag_124:\n        /* \"#utility.yul\":2996:3250   */\n      swap3\n      swap2\n      pop\n      pop\n      jump\t// out\n        /* \"#utility.yul\":3256:3425   */\n    tag_76:\n        /* \"#utility.yul\":3340:3351   */\n      0x00\n        /* \"#utility.yul\":3374:3380   */\n      dup3\n        /* \"#utility.yul\":3369:3372   */\n      dup3\n        /* \"#utility.yul\":3362:3381   */\n      mstore\n        /* \"#utility.yul\":3414:3418   */\n      0x20\n        /* \"#utility.yul\":3409:3412   */\n      dup3\n        /* \"#utility.yul\":3405:3419   */\n      add\n        /* \"#utility.yul\":3390:3419   */\n      swap1\n      pop\n        /* \"#utility.yul\":3256:3425   */\n      swap3\n      swap2\n      pop\n      pop\n      jump\t// out\n        /* \"#utility.yul\":3431:3604   */\n    tag_77:\n        /* \"#utility.yul\":3571:3596   */\n      0x4f6e6c79206f776e65722063616e207769746864726177000000000000000000\n        /* \"#utility.yul\":3567:3568   */\n      0x00\n        /* \"#utility.yul\":3559:3565   */\n      dup3\n        /* \"#utility.yul\":3555:3569   */\n      add\n        /* \"#utility.yul\":3548:3597   */\n      mstore\n        /* \"#utility.yul\":3431:3604   */\n      pop\n      jump\t// out\n        /* \"#utility.yul\":3610:3976   */\n    tag_78:\n        /* \"#utility.yul\":3752:3755   */\n      0x00\n        /* \"#utility.yul\":3773:3840   */\n      tag_128\n        /* \"#utility.yul\":3837:3839   */\n      0x17\n        /* \"#utility.yul\":3832:3835   */\n      dup4\n        /* \"#utility.yul\":3773:3840   */\n      tag_76\n      jump\t// in\n    tag_128:\n        /* \"#utility.yul\":3766:3840   */\n      swap2\n      pop\n        /* \"#utility.yul\":3849:3942   */\n      tag_129\n        /* \"#utility.yul\":3938:3941   */\n      dup3\n        /* \"#utility.yul\":3849:3942   */\n      tag_77\n      jump\t// in\n    tag_129:\n        /* \"#utility.yul\":3967:3969   */\n      0x20\n        /* \"#utility.yul\":3962:3965   */\n      dup3\n        /* \"#utility.yul\":3958:3970   */\n      add\n        /* \"#utility.yul\":3951:3970   */\n      swap1\n      pop\n        /* \"#utility.yul\":3610:3976   */\n      swap2\n      swap1\n      pop\n      jump\t// out\n        /* \"#utility.yul\":3982:4401   */\n    tag_43:\n        /* \"#utility.yul\":4148:4152   */\n      0x00\n        /* \"#utility.yul\":4186:4188   */\n      0x20\n        /* \"#utility.yul\":4175:4184   */\n      dup3\n        /* \"#utility.yul\":4171:4189   */\n      add\n        /* \"#utility.yul\":4163:4189   */\n      swap1\n      pop\n        /* \"#utility.yul\":4235:4244   */\n      dup2\n        /* \"#utility.yul\":4229:4233   */\n      dup2\n        /* \"#utility.yul\":4225:4245   */\n      sub\n        /* \"#utility.yul\":4221:4222   */\n      0x00\n        /* \"#utility.yul\":4210:4219   */\n      dup4\n        /* \"#utility.yul\":4206:4223   */\n      add\n        /* \"#utility.yul\":4199:4246   */\n      mstore\n        /* \"#utility.yul\":4263:4394   */\n      tag_131\n        /* \"#utility.yul\":4389:4393   */\n      dup2\n        /* \"#utility.yul\":4263:4394   */\n      tag_78\n      jump\t// in\n    tag_131:\n        /* \"#utility.yul\":4255:4394   */\n      swap1\n      pop\n        /* \"#utility.yul\":3982:4401   */\n      swap2\n      swap1\n      pop\n      jump\t// out\n        /* \"#utility.yul\":4407:4577   */\n    tag_79:\n        /* \"#utility.yul\":4547:4569   */\n      0x496e73756666696369656e742062616c616e6365000000000000000000000000\n        /* \"#utility.yul\":4543:4544   */\n      0x00\n        /* \"#utility.yul\":4535:4541   */\n      dup3\n        /* \"#utility.yul\":4531:4545   */\n      add\n        /* \"#utility.yul\":4524:4570   */\n      mstore\n        /* \"#utility.yul\":4407:4577   */\n      pop\n      jump\t// out\n        /* \"#utility.yul\":4583:4949   */\n    tag_80:\n        /* \"#utility.yul\":4725:4728   */\n      0x00\n        /* \"#utility.yul\":4746:4813   */\n      tag_134\n        /* \"#utility.yul\":4810:4812   */\n      0x14\n        /* \"#utility.yul\":4805:4808   */\n      dup4\n        /* \"#utility.yul\":4746:4813   */\n      tag_76\n      jump\t// in\n    tag_134:\n        /* \"#utility.yul\":4739:4813   */\n      swap2\n      pop\n        /* \"#utility.yul\":4822:4915   */\n      tag_135\n        /* \"#utility.yul\":4911:4914   */\n      dup3\n        /* \"#utility.yul\":4822:4915   */\n      tag_79\n      jump\t// in\n    tag_135:\n        /* \"#utility.yul\":4940:4942   */\n      0x20\n        /* \"#utility.yul\":4935:4938   */\n      dup3\n        /* \"#utility.yul\":4931:4943   */\n      add\n        /* \"#utility.yul\":4924:4943   */\n      swap1\n      pop\n        /* \"#utility.yul\":4583:4949   */\n      swap2\n      swap1\n      pop\n      jump\t// out\n        /* \"#utility.yul\":4955:5374   */\n    tag_46:\n        /* \"#utility.yul\":5121:5125   */\n      0x00\n        /* \"#utility.yul\":5159:5161   */\n      0x20\n        /* \"#utility.yul\":5148:5157   */\n      dup3\n        /* \"#utility.yul\":5144:5162   */\n      add\n        /* \"#utility.yul\":5136:5162   */\n      swap1\n      pop\n        /* \"#utility.yul\":5208:5217   */\n      dup2\n        /* \"#utility.yul\":5202:5206   */\n      dup2\n        /* \"#utility.yul\":5198:5218   */\n      sub\n        /* \"#utility.yul\":5194:5195   */\n      0x00\n        /* \"#utility.yul\":5183:5192   */\n      dup4\n        /* \"#utility.yul\":5179:5196   */\n      add\n        /* \"#utility.yul\":5172:5219   */\n      mstore\n        /* \"#utility.yul\":5236:5367   */\n      tag_137\n        /* \"#utility.yul\":5362:5366   */\n      dup2\n        /* \"#utility.yul\":5236:5367   */\n      tag_80\n      jump\t// in\n    tag_137:\n        /* \"#utility.yul\":5228:5367   */\n      swap1\n      pop\n        /* \"#utility.yul\":4955:5374   */\n      swap2\n      swap1\n      pop\n      jump\t// out\n        /* \"#utility.yul\":5380:5574   */\n    tag_48:\n        /* \"#utility.yul\":5420:5424   */\n      0x00\n        /* \"#utility.yul\":5440:5460   */\n      tag_139\n        /* \"#utility.yul\":5458:5459   */\n      dup3\n        /* \"#utility.yul\":5440:5460   */\n      tag_64\n      jump\t// in\n    tag_139:\n        /* \"#utility.yul\":5435:5460   */\n      swap2\n      pop\n        /* \"#utility.yul\":5474:5494   */\n      tag_140\n        /* \"#utility.yul\":5492:5493   */\n      dup4\n        /* \"#utility.yul\":5474:5494   */\n      tag_64\n      jump\t// in\n    tag_140:\n        /* \"#utility.yul\":5469:5494   */\n      swap3\n      pop\n        /* \"#utility.yul\":5518:5519   */\n      dup3\n        /* \"#utility.yul\":5515:5516   */\n      dup3\n        /* \"#utility.yul\":5511:5520   */\n      sub\n        /* \"#utility.yul\":5503:5520   */\n      swap1\n      pop\n        /* \"#utility.yul\":5542:5543   */\n      dup2\n        /* \"#utility.yul\":5536:5540   */\n      dup2\n        /* \"#utility.yul\":5533:5544   */\n      gt\n        /* \"#utility.yul\":5530:5567   */\n      iszero\n      tag_141\n      jumpi\n        /* \"#utility.yul\":5547:5565   */\n      tag_142\n      tag_63\n      jump\t// in\n    tag_142:\n        /* \"#utility.yul\":5530:5567   */\n    tag_141:\n        /* \"#utility.yul\":5380:5574   */\n      swap3\n      swap2\n      pop\n      pop\n      jump\t// out\n        /* \"#utility.yul\":5580:5727   */\n    tag_81:\n        /* \"#utility.yul\":5681:5692   */\n      0x00\n        /* \"#utility.yul\":5718:5721   */\n      dup2\n        /* \"#utility.yul\":5703:5721   */\n      swap1\n      pop\n        /* \"#utility.yul\":5580:5727   */\n      swap3\n      swap2\n      pop\n      pop\n      jump\t// out\n        /* \"#utility.yul\":5733:5847   */\n    tag_82:\n      pop\n      jump\t// out\n        /* \"#utility.yul\":5853:6251   */\n    tag_83:\n        /* \"#utility.yul\":6012:6015   */\n      0x00\n        /* \"#utility.yul\":6033:6116   */\n      tag_146\n        /* \"#utility.yul\":6114:6115   */\n      0x00\n        /* \"#utility.yul\":6109:6112   */\n      dup4\n        /* \"#utility.yul\":6033:6116   */\n      tag_81\n      jump\t// in\n    tag_146:\n        /* \"#utility.yul\":6026:6116   */\n      swap2\n      pop\n        /* \"#utility.yul\":6125:6218   */\n      tag_147\n        /* \"#utility.yul\":6214:6217   */\n      dup3\n        /* \"#utility.yul\":6125:6218   */\n      tag_82\n      jump\t// in\n    tag_147:\n        /* \"#utility.yul\":6243:6244   */\n      0x00\n        /* \"#utility.yul\":6238:6241   */\n      dup3\n        /* \"#utility.yul\":6234:6245   */\n      add\n        /* \"#utility.yul\":6227:6245   */\n      swap1\n      pop\n        /* \"#utility.yul\":5853:6251   */\n      swap2\n      swap1\n      pop\n      jump\t// out\n        /* \"#utility.yul\":6257:6636   */\n    tag_50:\n        /* \"#utility.yul\":6441:6444   */\n      0x00\n        /* \"#utility.yul\":6463:6610   */\n      tag_149\n        /* \"#utility.yul\":6606:6609   */\n      dup3\n        /* \"#utility.yul\":6463:6610   */\n      tag_83\n      jump\t// in\n    tag_149:\n        /* \"#utility.yul\":6456:6610   */\n      swap2\n      pop\n        /* \"#utility.yul\":6627:6630   */\n      dup2\n        /* \"#utility.yul\":6620:6630   */\n      swap1\n      pop\n        /* \"#utility.yul\":6257:6636   */\n      swap2\n      swap1\n      pop\n      jump\t// out\n        /* \"#utility.yul\":6642:6807   */\n    tag_84:\n        /* \"#utility.yul\":6782:6799   */\n      0x5472616e73666572206661696c65640000000000000000000000000000000000\n        /* \"#utility.yul\":6778:6779   */\n      0x00\n        /* \"#utility.yul\":6770:6776   */\n      dup3\n        /* \"#utility.yul\":6766:6780   */\n      add\n        /* \"#utility.yul\":6759:6800   */\n      mstore\n        /* \"#utility.yul\":6642:6807   */\n      pop\n      jump\t// out\n        /* \"#utility.yul\":6813:7179   */\n    tag_85:\n        /* \"#utility.yul\":6955:6958   */\n      0x00\n        /* \"#utility.yul\":6976:7043   */\n      tag_152\n        /* \"#utility.yul\":7040:7042   */\n      0x0f\n        /* \"#utility.yul\":7035:7038   */\n      dup4\n        /* \"#utility.yul\":6976:7043   */\n      tag_76\n      jump\t// in\n    tag_152:\n        /* \"#utility.yul\":6969:7043   */\n      swap2\n      pop\n        /* \"#utility.yul\":7052:7145   */\n      tag_153\n        /* \"#utility.yul\":7141:7144   */\n      dup3\n        /* \"#utility.yul\":7052:7145   */\n      tag_84\n      jump\t// in\n    tag_153:\n        /* \"#utility.yul\":7170:7172   */\n      0x20\n        /* \"#utility.yul\":7165:7168   */\n      dup3\n        /* \"#utility.yul\":7161:7173   */\n      add\n        /* \"#utility.yul\":7154:7173   */\n      swap1\n      pop\n        /* \"#utility.yul\":6813:7179   */\n      swap2\n      swap1\n      pop\n      jump\t// out\n        /* \"#utility.yul\":7185:7604   */\n    tag_56:\n        /* \"#utility.yul\":7351:7355   */\n      0x00\n        /* \"#utility.yul\":7389:7391   */\n      0x20\n        /* \"#utility.yul\":7378:7387   */\n      dup3\n        /* \"#utility.yul\":7374:7392   */\n      add\n        /* \"#utility.yul\":7366:7392   */\n      swap1\n      pop\n        /* \"#utility.yul\":7438:7447   */\n      dup2\n        /* \"#utility.yul\":7432:7436   */\n      dup2\n        /* \"#utility.yul\":7428:7448   */\n      sub\n        /* \"#utility.yul\":7424:7425   */\n      0x00\n        /* \"#utility.yul\":7413:7422   */\n      dup4\n        /* \"#utility.yul\":7409:7426   */\n      add\n        /* \"#utility.yul\":7402:7449   */\n      mstore\n        /* \"#utility.yul\":7466:7597   */\n      tag_155\n        /* \"#utility.yul\":7592:7596   */\n      dup2\n        /* \"#utility.yul\":7466:7597   */\n      tag_85\n      jump\t// in\n    tag_155:\n        /* \"#utility.yul\":7458:7597   */\n      swap1\n      pop\n        /* \"#utility.yul\":7185:7604   */\n      swap2\n      swap1\n      pop\n      jump\t// out\n\n    auxdata: 0xa2646970667358221220e2f478da0ce172cdc4a1444a2a272d748436f28ea96f4a361edf9129e2f60afc64736f6c634300081e0033\n}\n",
				"bytecode": {
					"linkReferences": {},
					"object": "60a0604052348015600e575f5ffd5b503373ffffffffffffffffffffffffffffffffffffffff1660808173ffffffffffffffffffffffffffffffffffffffff16815250506080516107cc6100625f395f81816101a4015261038e01526107cc5ff3fe608060405260043610610057575f3560e01c8062f714ce146100c857806312065fe0146100f05780632dfdf0b51461011a5780638da5cb5b146101445780639363a1411461016e578063d0e30db014610198576100c4565b366100c4575f5f81548092919061006d90610456565b91905055503373ffffffffffffffffffffffffffffffffffffffff167f1d57945c1033a96907a78f6e0ebf6a03815725dac25f33cc806558670344ac8834476040516100ba9291906104ac565b60405180910390a2005b5f5ffd5b3480156100d3575f5ffd5b506100ee60048036038101906100e9919061055b565b6101a2565b005b3480156100fb575f5ffd5b50610104610380565b6040516101119190610599565b60405180910390f35b348015610125575f5ffd5b5061012e610387565b60405161013b9190610599565b60405180910390f35b34801561014f575f5ffd5b5061015861038c565b60405161016591906105c1565b60405180910390f35b348015610179575f5ffd5b506101826103b0565b60405161018f9190610599565b60405180910390f35b6101a06103b8565b005b7f000000000000000000000000000000000000000000000000000000000000000073ffffffffffffffffffffffffffffffffffffffff163373ffffffffffffffffffffffffffffffffffffffff1614610230576040517f08c379a000000000000000000000000000000000000000000000000000000000815260040161022790610634565b60405180910390fd5b81471015610273576040517f08c379a000000000000000000000000000000000000000000000000000000000815260040161026a9061069c565b60405180910390fd5b5f824761028091906106ba565b90505f8273ffffffffffffffffffffffffffffffffffffffff16846040516102a79061071a565b5f6040518083038185875af1925050503d805f81146102e1576040519150601f19603f3d011682016040523d82523d5f602084013e6102e6565b606091505b505090508061032a576040517f08c379a000000000000000000000000000000000000000000000000000000000815260040161032190610778565b60405180910390fd5b8273ffffffffffffffffffffffffffffffffffffffff167fd5ca65e1ec4f4864fea7b9c5cb1ec3087a0dbf9c74641db3f6458edf445c405185846040516103729291906104ac565b60405180910390a250505050565b5f47905090565b5f5481565b7f000000000000000000000000000000000000000000000000000000000000000081565b5f5f54905090565b5f5f8154809291906103c990610456565b91905055503373ffffffffffffffffffffffffffffffffffffffff167f1d57945c1033a96907a78f6e0ebf6a03815725dac25f33cc806558670344ac8834476040516104169291906104ac565b60405180910390a2565b7f4e487b71000000000000000000000000000000000000000000000000000000005f52601160045260245ffd5b5f819050919050565b5f6104608261044d565b91507fffffffffffffffffffffffffffffffffffffffffffffffffffffffffffffffff820361049257610491610420565b5b600182019050919050565b6104a68161044d565b82525050565b5f6040820190506104bf5f83018561049d565b6104cc602083018461049d565b9392505050565b5f5ffd5b6104e08161044d565b81146104ea575f5ffd5b50565b5f813590506104fb816104d7565b92915050565b5f73ffffffffffffffffffffffffffffffffffffffff82169050919050565b5f61052a82610501565b9050919050565b61053a81610520565b8114610544575f5ffd5b50565b5f8135905061055581610531565b92915050565b5f5f60408385031215610571576105706104d3565b5b5f61057e858286016104ed565b925050602061058f85828601610547565b9150509250929050565b5f6020820190506105ac5f83018461049d565b92915050565b6105bb81610520565b82525050565b5f6020820190506105d45f8301846105b2565b92915050565b5f82825260208201905092915050565b7f4f6e6c79206f776e65722063616e2077697468647261770000000000000000005f82015250565b5f61061e6017836105da565b9150610629826105ea565b602082019050919050565b5f6020820190508181035f83015261064b81610612565b9050919050565b7f496e73756666696369656e742062616c616e63650000000000000000000000005f82015250565b5f6106866014836105da565b915061069182610652565b602082019050919050565b5f6020820190508181035f8301526106b38161067a565b9050919050565b5f6106c48261044d565b91506106cf8361044d565b92508282039050818111156106e7576106e6610420565b5b92915050565b5f81905092915050565b50565b5f6107055f836106ed565b9150610710826106f7565b5f82019050919050565b5f610724826106fa565b9150819050919050565b7f5472616e73666572206661696c656400000000000000000000000000000000005f82015250565b5f610762600f836105da565b915061076d8261072e565b602082019050919050565b5f6020820190508181035f83015261078f81610756565b905091905056fea2646970667358221220e2f478da0ce172cdc4a1444a2a272d748436f28ea96f4a361edf9129e2f60afc64736f6c634300081e0033",
					"opcodes": "PUSH1 0xA0 PUSH1 0x40 MSTORE CALLVALUE DUP1 ISZERO PUSH1 0xE JUMPI PUSH0 PUSH0 REVERT JUMPDEST POP CALLER PUSH20 0xFFFFFFFFFFFFFFFFFFFFFFFFFFFFFFFFFFFFFFFF AND PUSH1 0x80 DUP2 PUSH20 0xFFFFFFFFFFFFFFFFFFFFFFFFFFFFFFFFFFFFFFFF AND DUP2 MSTORE POP POP PUSH1 0x80 MLOAD PUSH2 0x7CC PUSH2 0x62 PUSH0 CODECOPY PUSH0 DUP2 DUP2 PUSH2 0x1A4 ADD MSTORE PUSH2 0x38E ADD MSTORE PUSH2 0x7CC PUSH0 RETURN INVALID PUSH1 0x80 PUSH1 0x40 MSTORE PUSH1 0x4 CALLDATASIZE LT PUSH2 0x57 JUMPI PUSH0 CALLDATALOAD PUSH1 0xE0 SHR DUP1 PUSH3 0xF714CE EQ PUSH2 0xC8 JUMPI DUP1 PUSH4 0x12065FE0 EQ PUSH2 0xF0 JUMPI DUP1 PUSH4 0x2DFDF0B5 EQ PUSH2 0x11A JUMPI DUP1 PUSH4 0x8DA5CB5B EQ PUSH2 0x144 JUMPI DUP1 PUSH4 0x9363A141 EQ PUSH2 0x16E JUMPI DUP1 PUSH4 0xD0E30DB0 EQ PUSH2 0x198 JUMPI PUSH2 0xC4 JUMP JUMPDEST CALLDATASIZE PUSH2 0xC4 JUMPI PUSH0 PUSH0 DUP2 SLOAD DUP1 SWAP3 SWAP2 SWAP1 PUSH2 0x6D SWAP1 PUSH2 0x456 JUMP JUMPDEST SWAP2 SWAP1 POP SSTORE POP CALLER PUSH20 0xFFFFFFFFFFFFFFFFFFFFFFFFFFFFFFFFFFFFFFFF AND PUSH32 0x1D57945C1033A96907A78F6E0EBF6A03815725DAC25F33CC806558670344AC88 CALLVALUE SELFBALANCE PUSH1 0x40 MLOAD PUSH2 0xBA SWAP3 SWAP2 SWAP1 PUSH2 0x4AC JUMP JUMPDEST PUSH1 0x40 MLOAD DUP1 SWAP2 SUB SWAP1 LOG2 STOP JUMPDEST PUSH0 PUSH0 REVERT JUMPDEST CALLVALUE DUP1 ISZERO PUSH2 0xD3 JUMPI PUSH0 PUSH0 REVERT JUMPDEST POP PUSH2 0xEE PUSH1 0x4 DUP1 CALLDATASIZE SUB DUP2 ADD SWAP1 PUSH2 0xE9 SWAP2 SWAP1 PUSH2 0x55B JUMP JUMPDEST PUSH2 0x1A2 JUMP JUMPDEST STOP JUMPDEST CALLVALUE DUP1 ISZERO PUSH2 0xFB JUMPI PUSH0 PUSH0 REVERT JUMPDEST POP PUSH2 0x104 PUSH2 0x380 JUMP JUMPDEST PUSH1 0x40 MLOAD PUSH2 0x111 SWAP2 SWAP1 PUSH2 0x599 JUMP JUMPDEST PUSH1 0x40 MLOAD DUP1 SWAP2 SUB SWAP1 RETURN JUMPDEST CALLVALUE DUP1 ISZERO PUSH2 0x125 JUMPI PUSH0 PUSH0 REVERT JUMPDEST POP PUSH2 0x12E PUSH2 0x387 JUMP JUMPDEST PUSH1 0x40 MLOAD PUSH2 0x13B SWAP2 SWAP1 PUSH2 0x599 JUMP JUMPDEST PUSH1 0x40 MLOAD DUP1 SWAP2 SUB SWAP1 RETURN JUMPDEST CALLVALUE DUP1 ISZERO PUSH2 0x14F JUMPI PUSH0 PUSH0 REVERT JUMPDEST POP PUSH2 0x158 PUSH2 0x38C JUMP JUMPDEST PUSH1 0x40 MLOAD PUSH2 0x165 SWAP2 SWAP1 PUSH2 0x5C1 JUMP JUMPDEST PUSH1 0x40 MLOAD DUP1 SWAP2 SUB SWAP1 RETURN JUMPDEST CALLVALUE DUP1 ISZERO PUSH2 0x179 JUMPI PUSH0 PUSH0 REVERT JUMPDEST POP PUSH2 0x182 PUSH2 0x3B0 JUMP JUMPDEST PUSH1 0x40 MLOAD PUSH2 0x18F SWAP2 SWAP1 PUSH2 0x599 JUMP JUMPDEST PUSH1 0x40 MLOAD DUP1 SWAP2 SUB SWAP1 RETURN JUMPDEST PUSH2 0x1A0 PUSH2 0x3B8 JUMP JUMPDEST STOP JUMPDEST PUSH32 0x0 PUSH20 0xFFFFFFFFFFFFFFFFFFFFFFFFFFFFFFFFFFFFFFFF AND CALLER PUSH20 0xFFFFFFFFFFFFFFFFFFFFFFFFFFFFFFFFFFFFFFFF AND EQ PUSH2 0x230 JUMPI PUSH1 0x40 MLOAD PUSH32 0x8C379A000000000000000000000000000000000000000000000000000000000 DUP2 MSTORE PUSH1 0x4 ADD PUSH2 0x227 SWAP1 PUSH2 0x634 JUMP JUMPDEST PUSH1 0x40 MLOAD DUP1 SWAP2 SUB SWAP1 REVERT JUMPDEST DUP2 SELFBALANCE LT ISZERO PUSH2 0x273 JUMPI PUSH1 0x40 MLOAD PUSH32 0x8C379A000000000000000000000000000000000000000000000000000000000 DUP2 MSTORE PUSH1 0x4 ADD PUSH2 0x26A SWAP1 PUSH2 0x69C JUMP JUMPDEST PUSH1 0x40 MLOAD DUP1 SWAP2 SUB SWAP1 REVERT JUMPDEST PUSH0 DUP3 SELFBALANCE PUSH2 0x280 SWAP2 SWAP1 PUSH2 0x6BA JUMP JUMPDEST SWAP1 POP PUSH0 DUP3 PUSH20 0xFFFFFFFFFFFFFFFFFFFFFFFFFFFFFFFFFFFFFFFF AND DUP5 PUSH1 0x40 MLOAD PUSH2 0x2A7 SWAP1 PUSH2 0x71A JUMP JUMPDEST PUSH0 PUSH1 0x40 MLOAD DUP1 DUP4 SUB DUP2 DUP6 DUP8 GAS CALL SWAP3 POP POP POP RETURNDATASIZE DUP1 PUSH0 DUP2 EQ PUSH2 0x2E1 JUMPI PUSH1 0x40 MLOAD SWAP2 POP PUSH1 0x1F NOT PUSH1 0x3F RETURNDATASIZE ADD AND DUP3 ADD PUSH1 0x40 MSTORE RETURNDATASIZE DUP3 MSTORE RETURNDATASIZE PUSH0 PUSH1 0x20 DUP5 ADD RETURNDATACOPY PUSH2 0x2E6 JUMP JUMPDEST PUSH1 0x60 SWAP2 POP JUMPDEST POP POP SWAP1 POP DUP1 PUSH2 0x32A JUMPI PUSH1 0x40 MLOAD PUSH32 0x8C379A000000000000000000000000000000000000000000000000000000000 DUP2 MSTORE PUSH1 0x4 ADD PUSH2 0x321 SWAP1 PUSH2 0x778 JUMP JUMPDEST PUSH1 0x40 MLOAD DUP1 SWAP2 SUB SWAP1 REVERT JUMPDEST DUP3 PUSH20 0xFFFFFFFFFFFFFFFFFFFFFFFFFFFFFFFFFFFFFFFF AND PUSH32 0xD5CA65E1EC4F4864FEA7B9C5CB1EC3087A0DBF9C74641DB3F6458EDF445C4051 DUP6 DUP5 PUSH1 0x40 MLOAD PUSH2 0x372 SWAP3 SWAP2 SWAP1 PUSH2 0x4AC JUMP JUMPDEST PUSH1 0x40 MLOAD DUP1 SWAP2 SUB SWAP1 LOG2 POP POP POP POP JUMP JUMPDEST PUSH0 SELFBALANCE SWAP1 POP SWAP1 JUMP JUMPDEST PUSH0 SLOAD DUP2 JUMP JUMPDEST PUSH32 0x0 DUP2 JUMP JUMPDEST PUSH0 PUSH0 SLOAD SWAP1 POP SWAP1 JUMP JUMPDEST PUSH0 PUSH0 DUP2 SLOAD DUP1 SWAP3 SWAP2 SWAP1 PUSH2 0x3C9 SWAP1 PUSH2 0x456 JUMP JUMPDEST SWAP2 SWAP1 POP SSTORE POP CALLER PUSH20 0xFFFFFFFFFFFFFFFFFFFFFFFFFFFFFFFFFFFFFFFF AND PUSH32 0x1D57945C1033A96907A78F6E0EBF6A03815725DAC25F33CC806558670344AC88 CALLVALUE SELFBALANCE PUSH1 0x40 MLOAD PUSH2 0x416 SWAP3 SWAP2 SWAP1 PUSH2 0x4AC JUMP JUMPDEST PUSH1 0x40 MLOAD DUP1 SWAP2 SUB SWAP1 LOG2 JUMP JUMPDEST PUSH32 0x4E487B7100000000000000000000000000000000000000000000000000000000 PUSH0 MSTORE PUSH1 0x11 PUSH1 0x4 MSTORE PUSH1 0x24 PUSH0 REVERT JUMPDEST PUSH0 DUP2 SWAP1 POP SWAP2 SWAP1 POP JUMP JUMPDEST PUSH0 PUSH2 0x460 DUP3 PUSH2 0x44D JUMP JUMPDEST SWAP2 POP PUSH32 0xFFFFFFFFFFFFFFFFFFFFFFFFFFFFFFFFFFFFFFFFFFFFFFFFFFFFFFFFFFFFFFFF DUP3 SUB PUSH2 0x492 JUMPI PUSH2 0x491 PUSH2 0x420 JUMP JUMPDEST JUMPDEST PUSH1 0x1 DUP3 ADD SWAP1 POP SWAP2 SWAP1 POP JUMP JUMPDEST PUSH2 0x4A6 DUP2 PUSH2 0x44D JUMP JUMPDEST DUP3 MSTORE POP POP JUMP JUMPDEST PUSH0 PUSH1 0x40 DUP3 ADD SWAP1 POP PUSH2 0x4BF PUSH0 DUP4 ADD DUP6 PUSH2 0x49D JUMP JUMPDEST PUSH2 0x4CC PUSH1 0x20 DUP4 ADD DUP5 PUSH2 0x49D JUMP JUMPDEST SWAP4 SWAP3 POP POP POP JUMP JUMPDEST PUSH0 PUSH0 REVERT JUMPDEST PUSH2 0x4E0 DUP2 PUSH2 0x44D JUMP JUMPDEST DUP2 EQ PUSH2 0x4EA JUMPI PUSH0 PUSH0 REVERT JUMPDEST POP JUMP JUMPDEST PUSH0 DUP2 CALLDATALOAD SWAP1 POP PUSH2 0x4FB DUP2 PUSH2 0x4D7 JUMP JUMPDEST SWAP3 SWAP2 POP POP JUMP JUMPDEST PUSH0 PUSH20 0xFFFFFFFFFFFFFFFFFFFFFFFFFFFFFFFFFFFFFFFF DUP3 AND SWAP1 POP SWAP2 SWAP1 POP JUMP JUMPDEST PUSH0 PUSH2 0x52A DUP3 PUSH2 0x501 JUMP JUMPDEST SWAP1 POP SWAP2 SWAP1 POP JUMP JUMPDEST PUSH2 0x53A DUP2 PUSH2 0x520 JUMP JUMPDEST DUP2 EQ PUSH2 0x544 JUMPI PUSH0 PUSH0 REVERT JUMPDEST POP JUMP JUMPDEST PUSH0 DUP2 CALLDATALOAD SWAP1 POP PUSH2 0x555 DUP2 PUSH2 0x531 JUMP JUMPDEST SWAP3 SWAP2 POP POP JUMP JUMPDEST PUSH0 PUSH0 PUSH1 0x40 DUP4 DUP6 SUB SLT ISZERO PUSH2 0x571 JUMPI PUSH2 0x570 PUSH2 0x4D3 JUMP JUMPDEST JUMPDEST PUSH0 PUSH2 0x57E DUP6 DUP3 DUP7 ADD PUSH2 0x4ED JUMP JUMPDEST SWAP3 POP POP PUSH1 0x20 PUSH2 0x58F DUP6 DUP3 DUP7 ADD PUSH2 0x547 JUMP JUMPDEST SWAP2 POP POP SWAP3 POP SWAP3 SWAP1 POP JUMP JUMPDEST PUSH0 PUSH1 0x20 DUP3 ADD SWAP1 POP PUSH2 0x5AC PUSH0 DUP4 ADD DUP5 PUSH2 0x49D JUMP JUMPDEST SWAP3 SWAP2 POP POP JUMP JUMPDEST PUSH2 0x5BB DUP2 PUSH2 0x520 JUMP JUMPDEST DUP3 MSTORE POP POP JUMP JUMPDEST PUSH0 PUSH1 0x20 DUP3 ADD SWAP1 POP PUSH2 0x5D4 PUSH0 DUP4 ADD DUP5 PUSH2 0x5B2 JUMP JUMPDEST SWAP3 SWAP2 POP POP JUMP JUMPDEST PUSH0 DUP3 DUP3 MSTORE PUSH1 0x20 DUP3 ADD SWAP1 POP SWAP3 SWAP2 POP POP JUMP JUMPDEST PUSH32 0x4F6E6C79206F776E65722063616E207769746864726177000000000000000000 PUSH0 DUP3 ADD MSTORE POP JUMP JUMPDEST PUSH0 PUSH2 0x61E PUSH1 0x17 DUP4 PUSH2 0x5DA JUMP JUMPDEST SWAP2 POP PUSH2 0x629 DUP3 PUSH2 0x5EA JUMP JUMPDEST PUSH1 0x20 DUP3 ADD SWAP1 POP SWAP2 SWAP1 POP JUMP JUMPDEST PUSH0 PUSH1 0x20 DUP3 ADD SWAP1 POP DUP2 DUP2 SUB PUSH0 DUP4 ADD MSTORE PUSH2 0x64B DUP2 PUSH2 0x612 JUMP JUMPDEST SWAP1 POP SWAP2 SWAP1 POP JUMP JUMPDEST PUSH32 0x496E73756666696369656E742062616C616E6365000000000000000000000000 PUSH0 DUP3 ADD MSTORE POP JUMP JUMPDEST PUSH0 PUSH2 0x686 PUSH1 0x14 DUP4 PUSH2 0x5DA JUMP JUMPDEST SWAP2 POP PUSH2 0x691 DUP3 PUSH2 0x652 JUMP JUMPDEST PUSH1 0x20 DUP3 ADD SWAP1 POP SWAP2 SWAP1 POP JUMP JUMPDEST PUSH0 PUSH1 0x20 DUP3 ADD SWAP1 POP DUP2 DUP2 SUB PUSH0 DUP4 ADD MSTORE PUSH2 0x6B3 DUP2 PUSH2 0x67A JUMP JUMPDEST SWAP1 POP SWAP2 SWAP1 POP JUMP JUMPDEST PUSH0 PUSH2 0x6C4 DUP3 PUSH2 0x44D JUMP JUMPDEST SWAP2 POP PUSH2 0x6CF DUP4 PUSH2 0x44D JUMP JUMPDEST SWAP3 POP DUP3 DUP3 SUB SWAP1 POP DUP2 DUP2 GT ISZERO PUSH2 0x6E7 JUMPI PUSH2 0x6E6 PUSH2 0x420 JUMP JUMPDEST JUMPDEST SWAP3 SWAP2 POP POP JUMP JUMPDEST PUSH0 DUP2 SWAP1 POP SWAP3 SWAP2 POP POP JUMP JUMPDEST POP JUMP JUMPDEST PUSH0 PUSH2 0x705 PUSH0 DUP4 PUSH2 0x6ED JUMP JUMPDEST SWAP2 POP PUSH2 0x710 DUP3 PUSH2 0x6F7 JUMP JUMPDEST PUSH0 DUP3 ADD SWAP1 POP SWAP2 SWAP1 POP JUMP JUMPDEST PUSH0 PUSH2 0x724 DUP3 PUSH2 0x6FA JUMP JUMPDEST SWAP2 POP DUP2 SWAP1 POP SWAP2 SWAP1 POP JUMP JUMPDEST PUSH32 0x5472616E73666572206661696C65640000000000000000000000000000000000 PUSH0 DUP3 ADD MSTORE POP JUMP JUMPDEST PUSH0 PUSH2 0x762 PUSH1 0xF DUP4 PUSH2 0x5DA JUMP JUMPDEST SWAP2 POP PUSH2 0x76D DUP3 PUSH2 0x72E JUMP JUMPDEST PUSH1 0x20 DUP3 ADD SWAP1 POP SWAP2 SWAP1 POP JUMP JUMPDEST PUSH0 PUSH1 0x20 DUP3 ADD SWAP1 POP DUP2 DUP2 SUB PUSH0 DUP4 ADD MSTORE PUSH2 0x78F DUP2 PUSH2 0x756 JUMP JUMPDEST SWAP1 POP SWAP2 SWAP1 POP JUMP INVALID LOG2 PUSH5 0x6970667358 0x22 SLT KECCAK256 0xE2 DELEGATECALL PUSH25 0xDA0CE172CDC4A1444A2A272D748436F28EA96F4A361EDF9129 0xE2 0xF6 EXP 0xFC PUSH5 0x736F6C6343 STOP ADDMOD 0x1E STOP CALLER "
				},
				"gasEstimates": {
					"creation": {
						"codeDepositCost": "399200",
						"executionCost": "infinite",
						"totalCost": "infinite"
					},
					"external": {
						"deposit()": "infinite",
						"depositCount()": "2446",
						"getBalance()": "334",
						"getDepositCount()": "2497",
						"owner()": "infinite",
						"withdraw(uint256,address)": "infinite"
					}
				},
				"methodIdentifiers": {
					"deposit()": "d0e30db0",
					"depositCount()": "2dfdf0b5",
					"getBalance()": "12065fe0",
					"getDepositCount()": "9363a141",
					"owner()": "8da5cb5b",
					"withdraw(uint256,address)": "00f714ce"
				}
			},
			"storageLayout": {
				"storage": [
					{
						"astId": 5,
						"contract": "C2E_learning/036_Payable.sol:PayableExample",
						"label": "depositCount",
						"offset": 0,
						"slot": "0",
						"type": "t_uint256"
					}
				],
				"types": {
					"t_uint256": {
						"encoding": "inplace",
						"label": "uint256",
						"numberOfBytes": "32"
					}
				}
			},
			"userdoc": {
				"kind": "user",
				"methods": {
					"deposit()": {
						"notice": "保留以兼容旧接口，但建议迁移到 `receive()`"
					}
				},
				"version": 1
			}
		}
	}
}