{
	"202508/PiggyBank.sol": {
		"PiggyBank": {
			"abi": [
				{
					"inputs": [],
					"stateMutability": "nonpayable",
					"type": "constructor"
				},
				{
					"inputs": [],
					"name": "cash",
					"outputs": [
						{
							"internalType": "uint256",
							"name": "",
							"type": "uint256"
						}
					],
					"stateMutability": "view",
					"type": "function"
				},
				{
					"inputs": [],
					"name": "currentDate",
					"outputs": [
						{
							"internalType": "uint256",
							"name": "",
							"type": "uint256"
						}
					],
					"stateMutability": "view",
					"type": "function"
				},
				{
					"inputs": [],
					"name": "deposit",
					"outputs": [],
					"stateMutability": "payable",
					"type": "function"
				},
				{
					"inputs": [],
					"name": "depositAmount",
					"outputs": [
						{
							"internalType": "uint256",
							"name": "",
							"type": "uint256"
						}
					],
					"stateMutability": "view",
					"type": "function"
				},
				{
					"inputs": [],
					"name": "unfreezeTime",
					"outputs": [
						{
							"internalType": "uint256",
							"name": "",
							"type": "uint256"
						}
					],
					"stateMutability": "view",
					"type": "function"
				},
				{
					"inputs": [
						{
							"internalType": "uint256",
							"name": "amount",
							"type": "uint256"
						}
					],
					"name": "withdrawCash",
					"outputs": [],
					"stateMutability": "nonpayable",
					"type": "function"
				},
				{
					"inputs": [
						{
							"internalType": "uint256",
							"name": "amount",
							"type": "uint256"
						}
					],
					"name": "withdrawDeposit",
					"outputs": [],
					"stateMutability": "nonpayable",
					"type": "function"
				}
			],
			"devdoc": {
				"kind": "dev",
				"methods": {},
				"version": 1
			},
			"evm": {
				"assembly": "    /* \"202508/PiggyBank.sol\":57:1308  contract PiggyBank{... */\n  mstore(0x40, 0x80)\n    /* \"202508/PiggyBank.sol\":245:347  constructor() {... */\n  callvalue\n  dup1\n  iszero\n  tag_1\n  jumpi\n  revert(0x00, 0x00)\ntag_1:\n  pop\n    /* \"202508/PiggyBank.sol\":277:287  msg.sender */\n  caller\n    /* \"202508/PiggyBank.sol\":269:274  owner */\n  0x03\n  0x00\n    /* \"202508/PiggyBank.sol\":269:287  owner = msg.sender */\n  0x0100\n  exp\n  dup2\n  sload\n  dup2\n  0xffffffffffffffffffffffffffffffffffffffff\n  mul\n  not\n  and\n  swap1\n  dup4\n  0xffffffffffffffffffffffffffffffffffffffff\n  and\n  mul\n  or\n  swap1\n  sstore\n  pop\n    /* \"202508/PiggyBank.sol\":229:238  2 minutes */\n  0x78\n    /* \"202508/PiggyBank.sol\":312:327  block.timestamp */\n  timestamp\n    /* \"202508/PiggyBank.sol\":312:340  block.timestamp + freezeTime */\n  tag_4\n  swap2\n  swap1\n  tag_5\n  jump\t// in\ntag_4:\n    /* \"202508/PiggyBank.sol\":297:309  unfreezeTime */\n  0x02\n    /* \"202508/PiggyBank.sol\":297:340  unfreezeTime = block.timestamp + freezeTime */\n  dup2\n  swap1\n  sstore\n  pop\n    /* \"202508/PiggyBank.sol\":57:1308  contract PiggyBank{... */\n  jump(tag_6)\n    /* \"#utility.yul\":7:84   */\ntag_7:\n    /* \"#utility.yul\":44:51   */\n  0x00\n    /* \"#utility.yul\":73:78   */\n  dup2\n    /* \"#utility.yul\":62:78   */\n  swap1\n  pop\n    /* \"#utility.yul\":7:84   */\n  swap2\n  swap1\n  pop\n  jump\t// out\n    /* \"#utility.yul\":90:270   */\ntag_8:\n    /* \"#utility.yul\":138:215   */\n  0x4e487b7100000000000000000000000000000000000000000000000000000000\n    /* \"#utility.yul\":135:136   */\n  0x00\n    /* \"#utility.yul\":128:216   */\n  mstore\n    /* \"#utility.yul\":235:239   */\n  0x11\n    /* \"#utility.yul\":232:233   */\n  0x04\n    /* \"#utility.yul\":225:240   */\n  mstore\n    /* \"#utility.yul\":259:263   */\n  0x24\n    /* \"#utility.yul\":256:257   */\n  0x00\n    /* \"#utility.yul\":249:264   */\n  revert\n    /* \"#utility.yul\":276:467   */\ntag_5:\n    /* \"#utility.yul\":316:319   */\n  0x00\n    /* \"#utility.yul\":335:355   */\n  tag_13\n    /* \"#utility.yul\":353:354   */\n  dup3\n    /* \"#utility.yul\":335:355   */\n  tag_7\n  jump\t// in\ntag_13:\n    /* \"#utility.yul\":330:355   */\n  swap2\n  pop\n    /* \"#utility.yul\":369:389   */\n  tag_14\n    /* \"#utility.yul\":387:388   */\n  dup4\n    /* \"#utility.yul\":369:389   */\n  tag_7\n  jump\t// in\ntag_14:\n    /* \"#utility.yul\":364:389   */\n  swap3\n  pop\n    /* \"#utility.yul\":412:413   */\n  dup3\n    /* \"#utility.yul\":409:410   */\n  dup3\n    /* \"#utility.yul\":405:414   */\n  add\n    /* \"#utility.yul\":398:414   */\n  swap1\n  pop\n    /* \"#utility.yul\":433:436   */\n  dup1\n    /* \"#utility.yul\":430:431   */\n  dup3\n    /* \"#utility.yul\":427:437   */\n  gt\n    /* \"#utility.yul\":424:460   */\n  iszero\n  tag_15\n  jumpi\n    /* \"#utility.yul\":440:458   */\n  tag_16\n  tag_8\n  jump\t// in\ntag_16:\n    /* \"#utility.yul\":424:460   */\ntag_15:\n    /* \"#utility.yul\":276:467   */\n  swap3\n  swap2\n  pop\n  pop\n  jump\t// out\n    /* \"202508/PiggyBank.sol\":57:1308  contract PiggyBank{... */\ntag_6:\n  dataSize(sub_0)\n  dup1\n  dataOffset(sub_0)\n  0x00\n  codecopy\n  0x00\n  return\nstop\n\nsub_0: assembly {\n        /* \"202508/PiggyBank.sol\":57:1308  contract PiggyBank{... */\n      mstore(0x40, 0x80)\n      jumpi(tag_1, lt(calldatasize, 0x04))\n      shr(0xe0, calldataload(0x00))\n      dup1\n      0x83e4cccf\n      gt\n      tag_9\n      jumpi\n      dup1\n      0x83e4cccf\n      eq\n      tag_5\n      jumpi\n      dup1\n      0x961be391\n      eq\n      tag_6\n      jumpi\n      dup1\n      0xd0e30db0\n      eq\n      tag_7\n      jumpi\n      dup1\n      0xd76dddd3\n      eq\n      tag_8\n      jumpi\n      jump(tag_1)\n    tag_9:\n      dup1\n      0x33289a46\n      eq\n      tag_2\n      jumpi\n      dup1\n      0x419759f5\n      eq\n      tag_3\n      jumpi\n      dup1\n      0x4f99b7c5\n      eq\n      tag_4\n      jumpi\n    tag_1:\n      revert(0x00, 0x00)\n        /* \"202508/PiggyBank.sol\":881:1209  function withdrawDeposit(uint amount) external {... */\n    tag_2:\n      callvalue\n      dup1\n      iszero\n      tag_10\n      jumpi\n      revert(0x00, 0x00)\n    tag_10:\n      pop\n      tag_11\n      0x04\n      dup1\n      calldatasize\n      sub\n      dup2\n      add\n      swap1\n      tag_12\n      swap2\n      swap1\n      tag_13\n      jump\t// in\n    tag_12:\n      tag_14\n      jump\t// in\n    tag_11:\n      stop\n        /* \"202508/PiggyBank.sol\":103:129  uint public  depositAmount */\n    tag_3:\n      callvalue\n      dup1\n      iszero\n      tag_15\n      jumpi\n      revert(0x00, 0x00)\n    tag_15:\n      pop\n      tag_16\n      tag_17\n      jump\t// in\n    tag_16:\n      mload(0x40)\n      tag_18\n      swap2\n      swap1\n      tag_19\n      jump\t// in\n    tag_18:\n      mload(0x40)\n      dup1\n      swap2\n      sub\n      swap1\n      return\n        /* \"202508/PiggyBank.sol\":1215:1306  function currentDate() external  view returns (uint){... */\n    tag_4:\n      callvalue\n      dup1\n      iszero\n      tag_20\n      jumpi\n      revert(0x00, 0x00)\n    tag_20:\n      pop\n      tag_21\n      tag_22\n      jump\t// in\n    tag_21:\n      mload(0x40)\n      tag_23\n      swap2\n      swap1\n      tag_19\n      jump\t// in\n    tag_23:\n      mload(0x40)\n      dup1\n      swap2\n      sub\n      swap1\n      return\n        /* \"202508/PiggyBank.sol\":647:875  function withdrawCash(uint amount) external {... */\n    tag_5:\n      callvalue\n      dup1\n      iszero\n      tag_24\n      jumpi\n      revert(0x00, 0x00)\n    tag_24:\n      pop\n      tag_25\n      0x04\n      dup1\n      calldatasize\n      sub\n      dup2\n      add\n      swap1\n      tag_26\n      swap2\n      swap1\n      tag_13\n      jump\t// in\n    tag_26:\n      tag_27\n      jump\t// in\n    tag_25:\n      stop\n        /* \"202508/PiggyBank.sol\":81:97  uint public cash */\n    tag_6:\n      callvalue\n      dup1\n      iszero\n      tag_28\n      jumpi\n      revert(0x00, 0x00)\n    tag_28:\n      pop\n      tag_29\n      tag_30\n      jump\t// in\n    tag_29:\n      mload(0x40)\n      tag_31\n      swap2\n      swap1\n      tag_19\n      jump\t// in\n    tag_31:\n      mload(0x40)\n      dup1\n      swap2\n      sub\n      swap1\n      return\n        /* \"202508/PiggyBank.sol\":353:641  function deposit() payable external {... */\n    tag_7:\n      tag_32\n      tag_33\n      jump\t// in\n    tag_32:\n      stop\n        /* \"202508/PiggyBank.sol\":135:159  uint public unfreezeTime */\n    tag_8:\n      callvalue\n      dup1\n      iszero\n      tag_34\n      jumpi\n      revert(0x00, 0x00)\n    tag_34:\n      pop\n      tag_35\n      tag_36\n      jump\t// in\n    tag_35:\n      mload(0x40)\n      tag_37\n      swap2\n      swap1\n      tag_19\n      jump\t// in\n    tag_37:\n      mload(0x40)\n      dup1\n      swap2\n      sub\n      swap1\n      return\n        /* \"202508/PiggyBank.sol\":881:1209  function withdrawDeposit(uint amount) external {... */\n    tag_14:\n        /* \"202508/PiggyBank.sol\":960:965  owner */\n      0x03\n      0x00\n      swap1\n      sload\n      swap1\n      0x0100\n      exp\n      swap1\n      div\n      0xffffffffffffffffffffffffffffffffffffffff\n      and\n        /* \"202508/PiggyBank.sol\":946:965  msg.sender == owner */\n      0xffffffffffffffffffffffffffffffffffffffff\n      and\n        /* \"202508/PiggyBank.sol\":946:956  msg.sender */\n      caller\n        /* \"202508/PiggyBank.sol\":946:965  msg.sender == owner */\n      0xffffffffffffffffffffffffffffffffffffffff\n      and\n      eq\n        /* \"202508/PiggyBank.sol\":938:978  require(msg.sender == owner, \"not ower\") */\n      tag_39\n      jumpi\n      mload(0x40)\n      0x08c379a000000000000000000000000000000000000000000000000000000000\n      dup2\n      mstore\n      0x04\n      add\n      tag_40\n      swap1\n      tag_41\n      jump\t// in\n    tag_40:\n      mload(0x40)\n      dup1\n      swap2\n      sub\n      swap1\n      revert\n    tag_39:\n        /* \"202508/PiggyBank.sol\":1013:1019  amount */\n      dup1\n        /* \"202508/PiggyBank.sol\":996:1009  depositAmount */\n      sload(0x01)\n        /* \"202508/PiggyBank.sol\":996:1019  depositAmount >= amount */\n      lt\n      iszero\n        /* \"202508/PiggyBank.sol\":988:1051  require(depositAmount >= amount, \"depositAmount is not enough\") */\n      tag_42\n      jumpi\n      mload(0x40)\n      0x08c379a000000000000000000000000000000000000000000000000000000000\n      dup2\n      mstore\n      0x04\n      add\n      tag_43\n      swap1\n      tag_44\n      jump\t// in\n    tag_43:\n      mload(0x40)\n      dup1\n      swap2\n      sub\n      swap1\n      revert\n    tag_42:\n        /* \"202508/PiggyBank.sol\":1086:1098  unfreezeTime */\n      sload(0x02)\n        /* \"202508/PiggyBank.sol\":1069:1084  block.timestamp */\n      timestamp\n        /* \"202508/PiggyBank.sol\":1069:1098  block.timestamp >unfreezeTime */\n      gt\n        /* \"202508/PiggyBank.sol\":1061:1120  require(block.timestamp >unfreezeTime, \"time is not ready\") */\n      tag_45\n      jumpi\n      mload(0x40)\n      0x08c379a000000000000000000000000000000000000000000000000000000000\n      dup2\n      mstore\n      0x04\n      add\n      tag_46\n      swap1\n      tag_47\n      jump\t// in\n    tag_46:\n      mload(0x40)\n      dup1\n      swap2\n      sub\n      swap1\n      revert\n    tag_45:\n        /* \"202508/PiggyBank.sol\":1148:1154  amount */\n      dup1\n        /* \"202508/PiggyBank.sol\":1131:1144  depositAmount */\n      0x01\n      0x00\n        /* \"202508/PiggyBank.sol\":1131:1154  depositAmount -= amount */\n      dup3\n      dup3\n      sload\n      tag_48\n      swap2\n      swap1\n      tag_49\n      jump\t// in\n    tag_48:\n      swap3\n      pop\n      pop\n      dup2\n      swap1\n      sstore\n      pop\n        /* \"202508/PiggyBank.sol\":1173:1183  msg.sender */\n      caller\n        /* \"202508/PiggyBank.sol\":1164:1193  payable (msg.sender).transfer */\n      0xffffffffffffffffffffffffffffffffffffffff\n      and\n        /* \"202508/PiggyBank.sol\":1164:1201  payable (msg.sender).transfer(amount) */\n      0x08fc\n        /* \"202508/PiggyBank.sol\":1194:1200  amount */\n      dup3\n        /* \"202508/PiggyBank.sol\":1164:1201  payable (msg.sender).transfer(amount) */\n      swap1\n      dup2\n      iszero\n      mul\n      swap1\n      mload(0x40)\n      0x00\n      mload(0x40)\n      dup1\n      dup4\n      sub\n      dup2\n      dup6\n      dup9\n      dup9\n      call\n      swap4\n      pop\n      pop\n      pop\n      pop\n      iszero\n      dup1\n      iszero\n      tag_51\n      jumpi\n      returndatacopy(0x00, 0x00, returndatasize)\n      revert(0x00, returndatasize)\n    tag_51:\n      pop\n        /* \"202508/PiggyBank.sol\":881:1209  function withdrawDeposit(uint amount) external {... */\n      pop\n      jump\t// out\n        /* \"202508/PiggyBank.sol\":103:129  uint public  depositAmount */\n    tag_17:\n      sload(0x01)\n      dup2\n      jump\t// out\n        /* \"202508/PiggyBank.sol\":1215:1306  function currentDate() external  view returns (uint){... */\n    tag_22:\n        /* \"202508/PiggyBank.sol\":1262:1266  uint */\n      0x00\n        /* \"202508/PiggyBank.sol\":1284:1299  block.timestamp */\n      timestamp\n        /* \"202508/PiggyBank.sol\":1277:1299  return block.timestamp */\n      swap1\n      pop\n        /* \"202508/PiggyBank.sol\":1215:1306  function currentDate() external  view returns (uint){... */\n      swap1\n      jump\t// out\n        /* \"202508/PiggyBank.sol\":647:875  function withdrawCash(uint amount) external {... */\n    tag_27:\n        /* \"202508/PiggyBank.sol\":724:729  owner */\n      0x03\n      0x00\n      swap1\n      sload\n      swap1\n      0x0100\n      exp\n      swap1\n      div\n      0xffffffffffffffffffffffffffffffffffffffff\n      and\n        /* \"202508/PiggyBank.sol\":710:729  msg.sender == owner */\n      0xffffffffffffffffffffffffffffffffffffffff\n      and\n        /* \"202508/PiggyBank.sol\":710:720  msg.sender */\n      caller\n        /* \"202508/PiggyBank.sol\":710:729  msg.sender == owner */\n      0xffffffffffffffffffffffffffffffffffffffff\n      and\n      eq\n        /* \"202508/PiggyBank.sol\":702:742  require(msg.sender == owner, \"not ower\") */\n      tag_54\n      jumpi\n      mload(0x40)\n      0x08c379a000000000000000000000000000000000000000000000000000000000\n      dup2\n      mstore\n      0x04\n      add\n      tag_55\n      swap1\n      tag_41\n      jump\t// in\n    tag_55:\n      mload(0x40)\n      dup1\n      swap2\n      sub\n      swap1\n      revert\n    tag_54:\n        /* \"202508/PiggyBank.sol\":768:774  amount */\n      dup1\n        /* \"202508/PiggyBank.sol\":760:764  cash */\n      sload(0x00)\n        /* \"202508/PiggyBank.sol\":760:774  cash >= amount */\n      lt\n      iszero\n        /* \"202508/PiggyBank.sol\":752:797  require(cash >= amount, \"cash is not enough\") */\n      tag_56\n      jumpi\n      mload(0x40)\n      0x08c379a000000000000000000000000000000000000000000000000000000000\n      dup2\n      mstore\n      0x04\n      add\n      tag_57\n      swap1\n      tag_58\n      jump\t// in\n    tag_57:\n      mload(0x40)\n      dup1\n      swap2\n      sub\n      swap1\n      revert\n    tag_56:\n        /* \"202508/PiggyBank.sol\":815:821  amount */\n      dup1\n        /* \"202508/PiggyBank.sol\":807:811  cash */\n      0x00\n      0x00\n        /* \"202508/PiggyBank.sol\":807:821  cash -= amount */\n      dup3\n      dup3\n      sload\n      tag_59\n      swap2\n      swap1\n      tag_49\n      jump\t// in\n    tag_59:\n      swap3\n      pop\n      pop\n      dup2\n      swap1\n      sstore\n      pop\n        /* \"202508/PiggyBank.sol\":840:850  msg.sender */\n      caller\n        /* \"202508/PiggyBank.sol\":831:860  payable (msg.sender).transfer */\n      0xffffffffffffffffffffffffffffffffffffffff\n      and\n        /* \"202508/PiggyBank.sol\":831:868  payable (msg.sender).transfer(amount) */\n      0x08fc\n        /* \"202508/PiggyBank.sol\":861:867  amount */\n      dup3\n        /* \"202508/PiggyBank.sol\":831:868  payable (msg.sender).transfer(amount) */\n      swap1\n      dup2\n      iszero\n      mul\n      swap1\n      mload(0x40)\n      0x00\n      mload(0x40)\n      dup1\n      dup4\n      sub\n      dup2\n      dup6\n      dup9\n      dup9\n      call\n      swap4\n      pop\n      pop\n      pop\n      pop\n      iszero\n      dup1\n      iszero\n      tag_61\n      jumpi\n      returndatacopy(0x00, 0x00, returndatasize)\n      revert(0x00, returndatasize)\n    tag_61:\n      pop\n        /* \"202508/PiggyBank.sol\":647:875  function withdrawCash(uint amount) external {... */\n      pop\n      jump\t// out\n        /* \"202508/PiggyBank.sol\":81:97  uint public cash */\n    tag_30:\n      sload(0x00)\n      dup2\n      jump\t// out\n        /* \"202508/PiggyBank.sol\":353:641  function deposit() payable external {... */\n    tag_33:\n        /* \"202508/PiggyBank.sol\":421:426  owner */\n      0x03\n      0x00\n      swap1\n      sload\n      swap1\n      0x0100\n      exp\n      swap1\n      div\n      0xffffffffffffffffffffffffffffffffffffffff\n      and\n        /* \"202508/PiggyBank.sol\":407:426  msg.sender == owner */\n      0xffffffffffffffffffffffffffffffffffffffff\n      and\n        /* \"202508/PiggyBank.sol\":407:417  msg.sender */\n      caller\n        /* \"202508/PiggyBank.sol\":407:426  msg.sender == owner */\n      0xffffffffffffffffffffffffffffffffffffffff\n      and\n      eq\n        /* \"202508/PiggyBank.sol\":399:440  require(msg.sender == owner, \"not owner\") */\n      tag_63\n      jumpi\n      mload(0x40)\n      0x08c379a000000000000000000000000000000000000000000000000000000000\n      dup2\n      mstore\n      0x04\n      add\n      tag_64\n      swap1\n      tag_65\n      jump\t// in\n    tag_64:\n      mload(0x40)\n      dup1\n      swap2\n      sub\n      swap1\n      revert\n    tag_63:\n        /* \"202508/PiggyBank.sol\":470:471  0 */\n      0x00\n        /* \"202508/PiggyBank.sol\":458:467  msg.value */\n      callvalue\n        /* \"202508/PiggyBank.sol\":458:471  msg.value > 0 */\n      gt\n        /* \"202508/PiggyBank.sol\":450:490  require(msg.value > 0, \"need match eth\") */\n      tag_66\n      jumpi\n      mload(0x40)\n      0x08c379a000000000000000000000000000000000000000000000000000000000\n      dup2\n      mstore\n      0x04\n      add\n      tag_67\n      swap1\n      tag_68\n      jump\t// in\n    tag_67:\n      mload(0x40)\n      dup1\n      swap2\n      sub\n      swap1\n      revert\n    tag_66:\n        /* \"202508/PiggyBank.sol\":501:512  uint amount */\n      0x00\n        /* \"202508/PiggyBank.sol\":515:524  msg.value */\n      callvalue\n        /* \"202508/PiggyBank.sol\":501:524  uint amount = msg.value */\n      swap1\n      pop\n        /* \"202508/PiggyBank.sol\":534:550  uint splitAmount */\n      0x00\n        /* \"202508/PiggyBank.sol\":562:563  2 */\n      0x02\n        /* \"202508/PiggyBank.sol\":553:559  amount */\n      dup3\n        /* \"202508/PiggyBank.sol\":553:563  amount / 2 */\n      tag_69\n      swap2\n      swap1\n      tag_70\n      jump\t// in\n    tag_69:\n        /* \"202508/PiggyBank.sol\":534:563  uint splitAmount = amount / 2 */\n      swap1\n      pop\n        /* \"202508/PiggyBank.sol\":588:599  splitAmount */\n      dup1\n        /* \"202508/PiggyBank.sol\":573:586  depositAmount */\n      0x01\n      0x00\n        /* \"202508/PiggyBank.sol\":573:599  depositAmount+=splitAmount */\n      dup3\n      dup3\n      sload\n      tag_71\n      swap2\n      swap1\n      tag_72\n      jump\t// in\n    tag_71:\n      swap3\n      pop\n      pop\n      dup2\n      swap1\n      sstore\n      pop\n        /* \"202508/PiggyBank.sol\":617:628  splitAmount */\n      dup1\n        /* \"202508/PiggyBank.sol\":609:613  cash */\n      0x00\n      0x00\n        /* \"202508/PiggyBank.sol\":609:628  cash += splitAmount */\n      dup3\n      dup3\n      sload\n      tag_73\n      swap2\n      swap1\n      tag_72\n      jump\t// in\n    tag_73:\n      swap3\n      pop\n      pop\n      dup2\n      swap1\n      sstore\n      pop\n        /* \"202508/PiggyBank.sol\":389:641  {... */\n      pop\n      pop\n        /* \"202508/PiggyBank.sol\":353:641  function deposit() payable external {... */\n      jump\t// out\n        /* \"202508/PiggyBank.sol\":135:159  uint public unfreezeTime */\n    tag_36:\n      sload(0x02)\n      dup2\n      jump\t// out\n        /* \"#utility.yul\":88:205   */\n    tag_75:\n        /* \"#utility.yul\":197:198   */\n      0x00\n        /* \"#utility.yul\":194:195   */\n      0x00\n        /* \"#utility.yul\":187:199   */\n      revert\n        /* \"#utility.yul\":334:411   */\n    tag_77:\n        /* \"#utility.yul\":371:378   */\n      0x00\n        /* \"#utility.yul\":400:405   */\n      dup2\n        /* \"#utility.yul\":389:405   */\n      swap1\n      pop\n        /* \"#utility.yul\":334:411   */\n      swap2\n      swap1\n      pop\n      jump\t// out\n        /* \"#utility.yul\":417:539   */\n    tag_78:\n        /* \"#utility.yul\":490:514   */\n      tag_102\n        /* \"#utility.yul\":508:513   */\n      dup2\n        /* \"#utility.yul\":490:514   */\n      tag_77\n      jump\t// in\n    tag_102:\n        /* \"#utility.yul\":483:488   */\n      dup2\n        /* \"#utility.yul\":480:515   */\n      eq\n        /* \"#utility.yul\":470:533   */\n      tag_103\n      jumpi\n        /* \"#utility.yul\":529:530   */\n      0x00\n        /* \"#utility.yul\":526:527   */\n      0x00\n        /* \"#utility.yul\":519:531   */\n      revert\n        /* \"#utility.yul\":470:533   */\n    tag_103:\n        /* \"#utility.yul\":417:539   */\n      pop\n      jump\t// out\n        /* \"#utility.yul\":545:684   */\n    tag_79:\n        /* \"#utility.yul\":591:596   */\n      0x00\n        /* \"#utility.yul\":629:635   */\n      dup2\n        /* \"#utility.yul\":616:636   */\n      calldataload\n        /* \"#utility.yul\":607:636   */\n      swap1\n      pop\n        /* \"#utility.yul\":645:678   */\n      tag_105\n        /* \"#utility.yul\":672:677   */\n      dup2\n        /* \"#utility.yul\":645:678   */\n      tag_78\n      jump\t// in\n    tag_105:\n        /* \"#utility.yul\":545:684   */\n      swap3\n      swap2\n      pop\n      pop\n      jump\t// out\n        /* \"#utility.yul\":690:1019   */\n    tag_13:\n        /* \"#utility.yul\":749:755   */\n      0x00\n        /* \"#utility.yul\":798:800   */\n      0x20\n        /* \"#utility.yul\":786:795   */\n      dup3\n        /* \"#utility.yul\":777:784   */\n      dup5\n        /* \"#utility.yul\":773:796   */\n      sub\n        /* \"#utility.yul\":769:801   */\n      slt\n        /* \"#utility.yul\":766:885   */\n      iszero\n      tag_107\n      jumpi\n        /* \"#utility.yul\":804:883   */\n      tag_108\n      tag_75\n      jump\t// in\n    tag_108:\n        /* \"#utility.yul\":766:885   */\n    tag_107:\n        /* \"#utility.yul\":924:925   */\n      0x00\n        /* \"#utility.yul\":949:1002   */\n      tag_109\n        /* \"#utility.yul\":994:1001   */\n      dup5\n        /* \"#utility.yul\":985:991   */\n      dup3\n        /* \"#utility.yul\":974:983   */\n      dup6\n        /* \"#utility.yul\":970:992   */\n      add\n        /* \"#utility.yul\":949:1002   */\n      tag_79\n      jump\t// in\n    tag_109:\n        /* \"#utility.yul\":939:1002   */\n      swap2\n      pop\n        /* \"#utility.yul\":895:1012   */\n      pop\n        /* \"#utility.yul\":690:1019   */\n      swap3\n      swap2\n      pop\n      pop\n      jump\t// out\n        /* \"#utility.yul\":1025:1143   */\n    tag_80:\n        /* \"#utility.yul\":1112:1136   */\n      tag_111\n        /* \"#utility.yul\":1130:1135   */\n      dup2\n        /* \"#utility.yul\":1112:1136   */\n      tag_77\n      jump\t// in\n    tag_111:\n        /* \"#utility.yul\":1107:1110   */\n      dup3\n        /* \"#utility.yul\":1100:1137   */\n      mstore\n        /* \"#utility.yul\":1025:1143   */\n      pop\n      pop\n      jump\t// out\n        /* \"#utility.yul\":1149:1371   */\n    tag_19:\n        /* \"#utility.yul\":1242:1246   */\n      0x00\n        /* \"#utility.yul\":1280:1282   */\n      0x20\n        /* \"#utility.yul\":1269:1278   */\n      dup3\n        /* \"#utility.yul\":1265:1283   */\n      add\n        /* \"#utility.yul\":1257:1283   */\n      swap1\n      pop\n        /* \"#utility.yul\":1293:1364   */\n      tag_113\n        /* \"#utility.yul\":1361:1362   */\n      0x00\n        /* \"#utility.yul\":1350:1359   */\n      dup4\n        /* \"#utility.yul\":1346:1363   */\n      add\n        /* \"#utility.yul\":1337:1343   */\n      dup5\n        /* \"#utility.yul\":1293:1364   */\n      tag_80\n      jump\t// in\n    tag_113:\n        /* \"#utility.yul\":1149:1371   */\n      swap3\n      swap2\n      pop\n      pop\n      jump\t// out\n        /* \"#utility.yul\":1377:1546   */\n    tag_81:\n        /* \"#utility.yul\":1461:1472   */\n      0x00\n        /* \"#utility.yul\":1495:1501   */\n      dup3\n        /* \"#utility.yul\":1490:1493   */\n      dup3\n        /* \"#utility.yul\":1483:1502   */\n      mstore\n        /* \"#utility.yul\":1535:1539   */\n      0x20\n        /* \"#utility.yul\":1530:1533   */\n      dup3\n        /* \"#utility.yul\":1526:1540   */\n      add\n        /* \"#utility.yul\":1511:1540   */\n      swap1\n      pop\n        /* \"#utility.yul\":1377:1546   */\n      swap3\n      swap2\n      pop\n      pop\n      jump\t// out\n        /* \"#utility.yul\":1552:1710   */\n    tag_82:\n        /* \"#utility.yul\":1692:1702   */\n      0x6e6f74206f776572000000000000000000000000000000000000000000000000\n        /* \"#utility.yul\":1688:1689   */\n      0x00\n        /* \"#utility.yul\":1680:1686   */\n      dup3\n        /* \"#utility.yul\":1676:1690   */\n      add\n        /* \"#utility.yul\":1669:1703   */\n      mstore\n        /* \"#utility.yul\":1552:1710   */\n      pop\n      jump\t// out\n        /* \"#utility.yul\":1716:2081   */\n    tag_83:\n        /* \"#utility.yul\":1858:1861   */\n      0x00\n        /* \"#utility.yul\":1879:1945   */\n      tag_117\n        /* \"#utility.yul\":1943:1944   */\n      0x08\n        /* \"#utility.yul\":1938:1941   */\n      dup4\n        /* \"#utility.yul\":1879:1945   */\n      tag_81\n      jump\t// in\n    tag_117:\n        /* \"#utility.yul\":1872:1945   */\n      swap2\n      pop\n        /* \"#utility.yul\":1954:2047   */\n      tag_118\n        /* \"#utility.yul\":2043:2046   */\n      dup3\n        /* \"#utility.yul\":1954:2047   */\n      tag_82\n      jump\t// in\n    tag_118:\n        /* \"#utility.yul\":2072:2074   */\n      0x20\n        /* \"#utility.yul\":2067:2070   */\n      dup3\n        /* \"#utility.yul\":2063:2075   */\n      add\n        /* \"#utility.yul\":2056:2075   */\n      swap1\n      pop\n        /* \"#utility.yul\":1716:2081   */\n      swap2\n      swap1\n      pop\n      jump\t// out\n        /* \"#utility.yul\":2087:2506   */\n    tag_41:\n        /* \"#utility.yul\":2253:2257   */\n      0x00\n        /* \"#utility.yul\":2291:2293   */\n      0x20\n        /* \"#utility.yul\":2280:2289   */\n      dup3\n        /* \"#utility.yul\":2276:2294   */\n      add\n        /* \"#utility.yul\":2268:2294   */\n      swap1\n      pop\n        /* \"#utility.yul\":2340:2349   */\n      dup2\n        /* \"#utility.yul\":2334:2338   */\n      dup2\n        /* \"#utility.yul\":2330:2350   */\n      sub\n        /* \"#utility.yul\":2326:2327   */\n      0x00\n        /* \"#utility.yul\":2315:2324   */\n      dup4\n        /* \"#utility.yul\":2311:2328   */\n      add\n        /* \"#utility.yul\":2304:2351   */\n      mstore\n        /* \"#utility.yul\":2368:2499   */\n      tag_120\n        /* \"#utility.yul\":2494:2498   */\n      dup2\n        /* \"#utility.yul\":2368:2499   */\n      tag_83\n      jump\t// in\n    tag_120:\n        /* \"#utility.yul\":2360:2499   */\n      swap1\n      pop\n        /* \"#utility.yul\":2087:2506   */\n      swap2\n      swap1\n      pop\n      jump\t// out\n        /* \"#utility.yul\":2512:2689   */\n    tag_84:\n        /* \"#utility.yul\":2652:2681   */\n      0x6465706f736974416d6f756e74206973206e6f7420656e6f7567680000000000\n        /* \"#utility.yul\":2648:2649   */\n      0x00\n        /* \"#utility.yul\":2640:2646   */\n      dup3\n        /* \"#utility.yul\":2636:2650   */\n      add\n        /* \"#utility.yul\":2629:2682   */\n      mstore\n        /* \"#utility.yul\":2512:2689   */\n      pop\n      jump\t// out\n        /* \"#utility.yul\":2695:3061   */\n    tag_85:\n        /* \"#utility.yul\":2837:2840   */\n      0x00\n        /* \"#utility.yul\":2858:2925   */\n      tag_123\n        /* \"#utility.yul\":2922:2924   */\n      0x1b\n        /* \"#utility.yul\":2917:2920   */\n      dup4\n        /* \"#utility.yul\":2858:2925   */\n      tag_81\n      jump\t// in\n    tag_123:\n        /* \"#utility.yul\":2851:2925   */\n      swap2\n      pop\n        /* \"#utility.yul\":2934:3027   */\n      tag_124\n        /* \"#utility.yul\":3023:3026   */\n      dup3\n        /* \"#utility.yul\":2934:3027   */\n      tag_84\n      jump\t// in\n    tag_124:\n        /* \"#utility.yul\":3052:3054   */\n      0x20\n        /* \"#utility.yul\":3047:3050   */\n      dup3\n        /* \"#utility.yul\":3043:3055   */\n      add\n        /* \"#utility.yul\":3036:3055   */\n      swap1\n      pop\n        /* \"#utility.yul\":2695:3061   */\n      swap2\n      swap1\n      pop\n      jump\t// out\n        /* \"#utility.yul\":3067:3486   */\n    tag_44:\n        /* \"#utility.yul\":3233:3237   */\n      0x00\n        /* \"#utility.yul\":3271:3273   */\n      0x20\n        /* \"#utility.yul\":3260:3269   */\n      dup3\n        /* \"#utility.yul\":3256:3274   */\n      add\n        /* \"#utility.yul\":3248:3274   */\n      swap1\n      pop\n        /* \"#utility.yul\":3320:3329   */\n      dup2\n        /* \"#utility.yul\":3314:3318   */\n      dup2\n        /* \"#utility.yul\":3310:3330   */\n      sub\n        /* \"#utility.yul\":3306:3307   */\n      0x00\n        /* \"#utility.yul\":3295:3304   */\n      dup4\n        /* \"#utility.yul\":3291:3308   */\n      add\n        /* \"#utility.yul\":3284:3331   */\n      mstore\n        /* \"#utility.yul\":3348:3479   */\n      tag_126\n        /* \"#utility.yul\":3474:3478   */\n      dup2\n        /* \"#utility.yul\":3348:3479   */\n      tag_85\n      jump\t// in\n    tag_126:\n        /* \"#utility.yul\":3340:3479   */\n      swap1\n      pop\n        /* \"#utility.yul\":3067:3486   */\n      swap2\n      swap1\n      pop\n      jump\t// out\n        /* \"#utility.yul\":3492:3659   */\n    tag_86:\n        /* \"#utility.yul\":3632:3651   */\n      0x74696d65206973206e6f74207265616479000000000000000000000000000000\n        /* \"#utility.yul\":3628:3629   */\n      0x00\n        /* \"#utility.yul\":3620:3626   */\n      dup3\n        /* \"#utility.yul\":3616:3630   */\n      add\n        /* \"#utility.yul\":3609:3652   */\n      mstore\n        /* \"#utility.yul\":3492:3659   */\n      pop\n      jump\t// out\n        /* \"#utility.yul\":3665:4031   */\n    tag_87:\n        /* \"#utility.yul\":3807:3810   */\n      0x00\n        /* \"#utility.yul\":3828:3895   */\n      tag_129\n        /* \"#utility.yul\":3892:3894   */\n      0x11\n        /* \"#utility.yul\":3887:3890   */\n      dup4\n        /* \"#utility.yul\":3828:3895   */\n      tag_81\n      jump\t// in\n    tag_129:\n        /* \"#utility.yul\":3821:3895   */\n      swap2\n      pop\n        /* \"#utility.yul\":3904:3997   */\n      tag_130\n        /* \"#utility.yul\":3993:3996   */\n      dup3\n        /* \"#utility.yul\":3904:3997   */\n      tag_86\n      jump\t// in\n    tag_130:\n        /* \"#utility.yul\":4022:4024   */\n      0x20\n        /* \"#utility.yul\":4017:4020   */\n      dup3\n        /* \"#utility.yul\":4013:4025   */\n      add\n        /* \"#utility.yul\":4006:4025   */\n      swap1\n      pop\n        /* \"#utility.yul\":3665:4031   */\n      swap2\n      swap1\n      pop\n      jump\t// out\n        /* \"#utility.yul\":4037:4456   */\n    tag_47:\n        /* \"#utility.yul\":4203:4207   */\n      0x00\n        /* \"#utility.yul\":4241:4243   */\n      0x20\n        /* \"#utility.yul\":4230:4239   */\n      dup3\n        /* \"#utility.yul\":4226:4244   */\n      add\n        /* \"#utility.yul\":4218:4244   */\n      swap1\n      pop\n        /* \"#utility.yul\":4290:4299   */\n      dup2\n        /* \"#utility.yul\":4284:4288   */\n      dup2\n        /* \"#utility.yul\":4280:4300   */\n      sub\n        /* \"#utility.yul\":4276:4277   */\n      0x00\n        /* \"#utility.yul\":4265:4274   */\n      dup4\n        /* \"#utility.yul\":4261:4278   */\n      add\n        /* \"#utility.yul\":4254:4301   */\n      mstore\n        /* \"#utility.yul\":4318:4449   */\n      tag_132\n        /* \"#utility.yul\":4444:4448   */\n      dup2\n        /* \"#utility.yul\":4318:4449   */\n      tag_87\n      jump\t// in\n    tag_132:\n        /* \"#utility.yul\":4310:4449   */\n      swap1\n      pop\n        /* \"#utility.yul\":4037:4456   */\n      swap2\n      swap1\n      pop\n      jump\t// out\n        /* \"#utility.yul\":4462:4642   */\n    tag_88:\n        /* \"#utility.yul\":4510:4587   */\n      0x4e487b7100000000000000000000000000000000000000000000000000000000\n        /* \"#utility.yul\":4507:4508   */\n      0x00\n        /* \"#utility.yul\":4500:4588   */\n      mstore\n        /* \"#utility.yul\":4607:4611   */\n      0x11\n        /* \"#utility.yul\":4604:4605   */\n      0x04\n        /* \"#utility.yul\":4597:4612   */\n      mstore\n        /* \"#utility.yul\":4631:4635   */\n      0x24\n        /* \"#utility.yul\":4628:4629   */\n      0x00\n        /* \"#utility.yul\":4621:4636   */\n      revert\n        /* \"#utility.yul\":4648:4842   */\n    tag_49:\n        /* \"#utility.yul\":4688:4692   */\n      0x00\n        /* \"#utility.yul\":4708:4728   */\n      tag_135\n        /* \"#utility.yul\":4726:4727   */\n      dup3\n        /* \"#utility.yul\":4708:4728   */\n      tag_77\n      jump\t// in\n    tag_135:\n        /* \"#utility.yul\":4703:4728   */\n      swap2\n      pop\n        /* \"#utility.yul\":4742:4762   */\n      tag_136\n        /* \"#utility.yul\":4760:4761   */\n      dup4\n        /* \"#utility.yul\":4742:4762   */\n      tag_77\n      jump\t// in\n    tag_136:\n        /* \"#utility.yul\":4737:4762   */\n      swap3\n      pop\n        /* \"#utility.yul\":4786:4787   */\n      dup3\n        /* \"#utility.yul\":4783:4784   */\n      dup3\n        /* \"#utility.yul\":4779:4788   */\n      sub\n        /* \"#utility.yul\":4771:4788   */\n      swap1\n      pop\n        /* \"#utility.yul\":4810:4811   */\n      dup2\n        /* \"#utility.yul\":4804:4808   */\n      dup2\n        /* \"#utility.yul\":4801:4812   */\n      gt\n        /* \"#utility.yul\":4798:4835   */\n      iszero\n      tag_137\n      jumpi\n        /* \"#utility.yul\":4815:4833   */\n      tag_138\n      tag_88\n      jump\t// in\n    tag_138:\n        /* \"#utility.yul\":4798:4835   */\n    tag_137:\n        /* \"#utility.yul\":4648:4842   */\n      swap3\n      swap2\n      pop\n      pop\n      jump\t// out\n        /* \"#utility.yul\":4848:5016   */\n    tag_89:\n        /* \"#utility.yul\":4988:5008   */\n      0x63617368206973206e6f7420656e6f7567680000000000000000000000000000\n        /* \"#utility.yul\":4984:4985   */\n      0x00\n        /* \"#utility.yul\":4976:4982   */\n      dup3\n        /* \"#utility.yul\":4972:4986   */\n      add\n        /* \"#utility.yul\":4965:5009   */\n      mstore\n        /* \"#utility.yul\":4848:5016   */\n      pop\n      jump\t// out\n        /* \"#utility.yul\":5022:5388   */\n    tag_90:\n        /* \"#utility.yul\":5164:5167   */\n      0x00\n        /* \"#utility.yul\":5185:5252   */\n      tag_141\n        /* \"#utility.yul\":5249:5251   */\n      0x12\n        /* \"#utility.yul\":5244:5247   */\n      dup4\n        /* \"#utility.yul\":5185:5252   */\n      tag_81\n      jump\t// in\n    tag_141:\n        /* \"#utility.yul\":5178:5252   */\n      swap2\n      pop\n        /* \"#utility.yul\":5261:5354   */\n      tag_142\n        /* \"#utility.yul\":5350:5353   */\n      dup3\n        /* \"#utility.yul\":5261:5354   */\n      tag_89\n      jump\t// in\n    tag_142:\n        /* \"#utility.yul\":5379:5381   */\n      0x20\n        /* \"#utility.yul\":5374:5377   */\n      dup3\n        /* \"#utility.yul\":5370:5382   */\n      add\n        /* \"#utility.yul\":5363:5382   */\n      swap1\n      pop\n        /* \"#utility.yul\":5022:5388   */\n      swap2\n      swap1\n      pop\n      jump\t// out\n        /* \"#utility.yul\":5394:5813   */\n    tag_58:\n        /* \"#utility.yul\":5560:5564   */\n      0x00\n        /* \"#utility.yul\":5598:5600   */\n      0x20\n        /* \"#utility.yul\":5587:5596   */\n      dup3\n        /* \"#utility.yul\":5583:5601   */\n      add\n        /* \"#utility.yul\":5575:5601   */\n      swap1\n      pop\n        /* \"#utility.yul\":5647:5656   */\n      dup2\n        /* \"#utility.yul\":5641:5645   */\n      dup2\n        /* \"#utility.yul\":5637:5657   */\n      sub\n        /* \"#utility.yul\":5633:5634   */\n      0x00\n        /* \"#utility.yul\":5622:5631   */\n      dup4\n        /* \"#utility.yul\":5618:5635   */\n      add\n        /* \"#utility.yul\":5611:5658   */\n      mstore\n        /* \"#utility.yul\":5675:5806   */\n      tag_144\n        /* \"#utility.yul\":5801:5805   */\n      dup2\n        /* \"#utility.yul\":5675:5806   */\n      tag_90\n      jump\t// in\n    tag_144:\n        /* \"#utility.yul\":5667:5806   */\n      swap1\n      pop\n        /* \"#utility.yul\":5394:5813   */\n      swap2\n      swap1\n      pop\n      jump\t// out\n        /* \"#utility.yul\":5819:5978   */\n    tag_91:\n        /* \"#utility.yul\":5959:5970   */\n      0x6e6f74206f776e65720000000000000000000000000000000000000000000000\n        /* \"#utility.yul\":5955:5956   */\n      0x00\n        /* \"#utility.yul\":5947:5953   */\n      dup3\n        /* \"#utility.yul\":5943:5957   */\n      add\n        /* \"#utility.yul\":5936:5971   */\n      mstore\n        /* \"#utility.yul\":5819:5978   */\n      pop\n      jump\t// out\n        /* \"#utility.yul\":5984:6349   */\n    tag_92:\n        /* \"#utility.yul\":6126:6129   */\n      0x00\n        /* \"#utility.yul\":6147:6213   */\n      tag_147\n        /* \"#utility.yul\":6211:6212   */\n      0x09\n        /* \"#utility.yul\":6206:6209   */\n      dup4\n        /* \"#utility.yul\":6147:6213   */\n      tag_81\n      jump\t// in\n    tag_147:\n        /* \"#utility.yul\":6140:6213   */\n      swap2\n      pop\n        /* \"#utility.yul\":6222:6315   */\n      tag_148\n        /* \"#utility.yul\":6311:6314   */\n      dup3\n        /* \"#utility.yul\":6222:6315   */\n      tag_91\n      jump\t// in\n    tag_148:\n        /* \"#utility.yul\":6340:6342   */\n      0x20\n        /* \"#utility.yul\":6335:6338   */\n      dup3\n        /* \"#utility.yul\":6331:6343   */\n      add\n        /* \"#utility.yul\":6324:6343   */\n      swap1\n      pop\n        /* \"#utility.yul\":5984:6349   */\n      swap2\n      swap1\n      pop\n      jump\t// out\n        /* \"#utility.yul\":6355:6774   */\n    tag_65:\n        /* \"#utility.yul\":6521:6525   */\n      0x00\n        /* \"#utility.yul\":6559:6561   */\n      0x20\n        /* \"#utility.yul\":6548:6557   */\n      dup3\n        /* \"#utility.yul\":6544:6562   */\n      add\n        /* \"#utility.yul\":6536:6562   */\n      swap1\n      pop\n        /* \"#utility.yul\":6608:6617   */\n      dup2\n        /* \"#utility.yul\":6602:6606   */\n      dup2\n        /* \"#utility.yul\":6598:6618   */\n      sub\n        /* \"#utility.yul\":6594:6595   */\n      0x00\n        /* \"#utility.yul\":6583:6592   */\n      dup4\n        /* \"#utility.yul\":6579:6596   */\n      add\n        /* \"#utility.yul\":6572:6619   */\n      mstore\n        /* \"#utility.yul\":6636:6767   */\n      tag_150\n        /* \"#utility.yul\":6762:6766   */\n      dup2\n        /* \"#utility.yul\":6636:6767   */\n      tag_92\n      jump\t// in\n    tag_150:\n        /* \"#utility.yul\":6628:6767   */\n      swap1\n      pop\n        /* \"#utility.yul\":6355:6774   */\n      swap2\n      swap1\n      pop\n      jump\t// out\n        /* \"#utility.yul\":6780:6944   */\n    tag_93:\n        /* \"#utility.yul\":6920:6936   */\n      0x6e656564206d6174636820657468000000000000000000000000000000000000\n        /* \"#utility.yul\":6916:6917   */\n      0x00\n        /* \"#utility.yul\":6908:6914   */\n      dup3\n        /* \"#utility.yul\":6904:6918   */\n      add\n        /* \"#utility.yul\":6897:6937   */\n      mstore\n        /* \"#utility.yul\":6780:6944   */\n      pop\n      jump\t// out\n        /* \"#utility.yul\":6950:7316   */\n    tag_94:\n        /* \"#utility.yul\":7092:7095   */\n      0x00\n        /* \"#utility.yul\":7113:7180   */\n      tag_153\n        /* \"#utility.yul\":7177:7179   */\n      0x0e\n        /* \"#utility.yul\":7172:7175   */\n      dup4\n        /* \"#utility.yul\":7113:7180   */\n      tag_81\n      jump\t// in\n    tag_153:\n        /* \"#utility.yul\":7106:7180   */\n      swap2\n      pop\n        /* \"#utility.yul\":7189:7282   */\n      tag_154\n        /* \"#utility.yul\":7278:7281   */\n      dup3\n        /* \"#utility.yul\":7189:7282   */\n      tag_93\n      jump\t// in\n    tag_154:\n        /* \"#utility.yul\":7307:7309   */\n      0x20\n        /* \"#utility.yul\":7302:7305   */\n      dup3\n        /* \"#utility.yul\":7298:7310   */\n      add\n        /* \"#utility.yul\":7291:7310   */\n      swap1\n      pop\n        /* \"#utility.yul\":6950:7316   */\n      swap2\n      swap1\n      pop\n      jump\t// out\n        /* \"#utility.yul\":7322:7741   */\n    tag_68:\n        /* \"#utility.yul\":7488:7492   */\n      0x00\n        /* \"#utility.yul\":7526:7528   */\n      0x20\n        /* \"#utility.yul\":7515:7524   */\n      dup3\n        /* \"#utility.yul\":7511:7529   */\n      add\n        /* \"#utility.yul\":7503:7529   */\n      swap1\n      pop\n        /* \"#utility.yul\":7575:7584   */\n      dup2\n        /* \"#utility.yul\":7569:7573   */\n      dup2\n        /* \"#utility.yul\":7565:7585   */\n      sub\n        /* \"#utility.yul\":7561:7562   */\n      0x00\n        /* \"#utility.yul\":7550:7559   */\n      dup4\n        /* \"#utility.yul\":7546:7563   */\n      add\n        /* \"#utility.yul\":7539:7586   */\n      mstore\n        /* \"#utility.yul\":7603:7734   */\n      tag_156\n        /* \"#utility.yul\":7729:7733   */\n      dup2\n        /* \"#utility.yul\":7603:7734   */\n      tag_94\n      jump\t// in\n    tag_156:\n        /* \"#utility.yul\":7595:7734   */\n      swap1\n      pop\n        /* \"#utility.yul\":7322:7741   */\n      swap2\n      swap1\n      pop\n      jump\t// out\n        /* \"#utility.yul\":7747:7927   */\n    tag_95:\n        /* \"#utility.yul\":7795:7872   */\n      0x4e487b7100000000000000000000000000000000000000000000000000000000\n        /* \"#utility.yul\":7792:7793   */\n      0x00\n        /* \"#utility.yul\":7785:7873   */\n      mstore\n        /* \"#utility.yul\":7892:7896   */\n      0x12\n        /* \"#utility.yul\":7889:7890   */\n      0x04\n        /* \"#utility.yul\":7882:7897   */\n      mstore\n        /* \"#utility.yul\":7916:7920   */\n      0x24\n        /* \"#utility.yul\":7913:7914   */\n      0x00\n        /* \"#utility.yul\":7906:7921   */\n      revert\n        /* \"#utility.yul\":7933:8118   */\n    tag_70:\n        /* \"#utility.yul\":7973:7974   */\n      0x00\n        /* \"#utility.yul\":7990:8010   */\n      tag_159\n        /* \"#utility.yul\":8008:8009   */\n      dup3\n        /* \"#utility.yul\":7990:8010   */\n      tag_77\n      jump\t// in\n    tag_159:\n        /* \"#utility.yul\":7985:8010   */\n      swap2\n      pop\n        /* \"#utility.yul\":8024:8044   */\n      tag_160\n        /* \"#utility.yul\":8042:8043   */\n      dup4\n        /* \"#utility.yul\":8024:8044   */\n      tag_77\n      jump\t// in\n    tag_160:\n        /* \"#utility.yul\":8019:8044   */\n      swap3\n      pop\n        /* \"#utility.yul\":8063:8064   */\n      dup3\n        /* \"#utility.yul\":8053:8088   */\n      tag_161\n      jumpi\n        /* \"#utility.yul\":8068:8086   */\n      tag_162\n      tag_95\n      jump\t// in\n    tag_162:\n        /* \"#utility.yul\":8053:8088   */\n    tag_161:\n        /* \"#utility.yul\":8110:8111   */\n      dup3\n        /* \"#utility.yul\":8107:8108   */\n      dup3\n        /* \"#utility.yul\":8103:8112   */\n      div\n        /* \"#utility.yul\":8098:8112   */\n      swap1\n      pop\n        /* \"#utility.yul\":7933:8118   */\n      swap3\n      swap2\n      pop\n      pop\n      jump\t// out\n        /* \"#utility.yul\":8124:8315   */\n    tag_72:\n        /* \"#utility.yul\":8164:8167   */\n      0x00\n        /* \"#utility.yul\":8183:8203   */\n      tag_164\n        /* \"#utility.yul\":8201:8202   */\n      dup3\n        /* \"#utility.yul\":8183:8203   */\n      tag_77\n      jump\t// in\n    tag_164:\n        /* \"#utility.yul\":8178:8203   */\n      swap2\n      pop\n        /* \"#utility.yul\":8217:8237   */\n      tag_165\n        /* \"#utility.yul\":8235:8236   */\n      dup4\n        /* \"#utility.yul\":8217:8237   */\n      tag_77\n      jump\t// in\n    tag_165:\n        /* \"#utility.yul\":8212:8237   */\n      swap3\n      pop\n        /* \"#utility.yul\":8260:8261   */\n      dup3\n        /* \"#utility.yul\":8257:8258   */\n      dup3\n        /* \"#utility.yul\":8253:8262   */\n      add\n        /* \"#utility.yul\":8246:8262   */\n      swap1\n      pop\n        /* \"#utility.yul\":8281:8284   */\n      dup1\n        /* \"#utility.yul\":8278:8279   */\n      dup3\n        /* \"#utility.yul\":8275:8285   */\n      gt\n        /* \"#utility.yul\":8272:8308   */\n      iszero\n      tag_166\n      jumpi\n        /* \"#utility.yul\":8288:8306   */\n      tag_167\n      tag_88\n      jump\t// in\n    tag_167:\n        /* \"#utility.yul\":8272:8308   */\n    tag_166:\n        /* \"#utility.yul\":8124:8315   */\n      swap3\n      swap2\n      pop\n      pop\n      jump\t// out\n\n    auxdata: 0xa26469706673582212208692780ced4f65c38faabf7449d878f4b3a6d75a846c4db1d7617c1dc3b0b4b564736f6c634300081e0033\n}\n",
				"bytecode": {
					"linkReferences": {},
					"object": "6080604052348015600e575f5ffd5b503360035f6101000a81548173ffffffffffffffffffffffffffffffffffffffff021916908373ffffffffffffffffffffffffffffffffffffffff160217905550607842605a9190609a565b60028190555060c6565b5f819050919050565b7f4e487b71000000000000000000000000000000000000000000000000000000005f52601160045260245ffd5b5f60a2826064565b915060ab836064565b925082820190508082111560c05760bf606d565b5b92915050565b61097d806100d35f395ff3fe60806040526004361061006f575f3560e01c806383e4cccf1161004d57806383e4cccf146100ef578063961be39114610117578063d0e30db014610141578063d76dddd31461014b5761006f565b806333289a4614610073578063419759f51461009b5780634f99b7c5146100c5575b5f5ffd5b34801561007e575f5ffd5b5061009960048036038101906100949190610584565b610175565b005b3480156100a6575f5ffd5b506100af6102ec565b6040516100bc91906105be565b60405180910390f35b3480156100d0575f5ffd5b506100d96102f2565b6040516100e691906105be565b60405180910390f35b3480156100fa575f5ffd5b5061011560048036038101906101109190610584565b6102f9565b005b348015610122575f5ffd5b5061012b61042a565b60405161013891906105be565b60405180910390f35b61014961042f565b005b348015610156575f5ffd5b5061015f610547565b60405161016c91906105be565b60405180910390f35b60035f9054906101000a900473ffffffffffffffffffffffffffffffffffffffff1673ffffffffffffffffffffffffffffffffffffffff163373ffffffffffffffffffffffffffffffffffffffff1614610204576040517f08c379a00000000000000000000000000000000000000000000000000000000081526004016101fb90610631565b60405180910390fd5b806001541015610249576040517f08c379a000000000000000000000000000000000000000000000000000000000815260040161024090610699565b60405180910390fd5b600254421161028d576040517f08c379a000000000000000000000000000000000000000000000000000000000815260040161028490610701565b60405180910390fd5b8060015f82825461029e919061074c565b925050819055503373ffffffffffffffffffffffffffffffffffffffff166108fc8290811502906040515f60405180830381858888f193505050501580156102e8573d5f5f3e3d5ffd5b5050565b60015481565b5f42905090565b60035f9054906101000a900473ffffffffffffffffffffffffffffffffffffffff1673ffffffffffffffffffffffffffffffffffffffff163373ffffffffffffffffffffffffffffffffffffffff1614610388576040517f08c379a000000000000000000000000000000000000000000000000000000000815260040161037f90610631565b60405180910390fd5b805f5410156103cc576040517f08c379a00000000000000000000000000000000000000000000000000000000081526004016103c3906107c9565b60405180910390fd5b805f5f8282546103dc919061074c565b925050819055503373ffffffffffffffffffffffffffffffffffffffff166108fc8290811502906040515f60405180830381858888f19350505050158015610426573d5f5f3e3d5ffd5b5050565b5f5481565b60035f9054906101000a900473ffffffffffffffffffffffffffffffffffffffff1673ffffffffffffffffffffffffffffffffffffffff163373ffffffffffffffffffffffffffffffffffffffff16146104be576040517f08c379a00000000000000000000000000000000000000000000000000000000081526004016104b590610831565b60405180910390fd5b5f3411610500576040517f08c379a00000000000000000000000000000000000000000000000000000000081526004016104f790610899565b60405180910390fd5b5f3490505f60028261051291906108e4565b90508060015f8282546105259190610914565b92505081905550805f5f82825461053c9190610914565b925050819055505050565b60025481565b5f5ffd5b5f819050919050565b61056381610551565b811461056d575f5ffd5b50565b5f8135905061057e8161055a565b92915050565b5f602082840312156105995761059861054d565b5b5f6105a684828501610570565b91505092915050565b6105b881610551565b82525050565b5f6020820190506105d15f8301846105af565b92915050565b5f82825260208201905092915050565b7f6e6f74206f7765720000000000000000000000000000000000000000000000005f82015250565b5f61061b6008836105d7565b9150610626826105e7565b602082019050919050565b5f6020820190508181035f8301526106488161060f565b9050919050565b7f6465706f736974416d6f756e74206973206e6f7420656e6f75676800000000005f82015250565b5f610683601b836105d7565b915061068e8261064f565b602082019050919050565b5f6020820190508181035f8301526106b081610677565b9050919050565b7f74696d65206973206e6f742072656164790000000000000000000000000000005f82015250565b5f6106eb6011836105d7565b91506106f6826106b7565b602082019050919050565b5f6020820190508181035f830152610718816106df565b9050919050565b7f4e487b71000000000000000000000000000000000000000000000000000000005f52601160045260245ffd5b5f61075682610551565b915061076183610551565b92508282039050818111156107795761077861071f565b5b92915050565b7f63617368206973206e6f7420656e6f75676800000000000000000000000000005f82015250565b5f6107b36012836105d7565b91506107be8261077f565b602082019050919050565b5f6020820190508181035f8301526107e0816107a7565b9050919050565b7f6e6f74206f776e657200000000000000000000000000000000000000000000005f82015250565b5f61081b6009836105d7565b9150610826826107e7565b602082019050919050565b5f6020820190508181035f8301526108488161080f565b9050919050565b7f6e656564206d61746368206574680000000000000000000000000000000000005f82015250565b5f610883600e836105d7565b915061088e8261084f565b602082019050919050565b5f6020820190508181035f8301526108b081610877565b9050919050565b7f4e487b71000000000000000000000000000000000000000000000000000000005f52601260045260245ffd5b5f6108ee82610551565b91506108f983610551565b925082610909576109086108b7565b5b828204905092915050565b5f61091e82610551565b915061092983610551565b92508282019050808211156109415761094061071f565b5b9291505056fea26469706673582212208692780ced4f65c38faabf7449d878f4b3a6d75a846c4db1d7617c1dc3b0b4b564736f6c634300081e0033",
					"opcodes": "PUSH1 0x80 PUSH1 0x40 MSTORE CALLVALUE DUP1 ISZERO PUSH1 0xE JUMPI PUSH0 PUSH0 REVERT JUMPDEST POP CALLER PUSH1 0x3 PUSH0 PUSH2 0x100 EXP DUP2 SLOAD DUP2 PUSH20 0xFFFFFFFFFFFFFFFFFFFFFFFFFFFFFFFFFFFFFFFF MUL NOT AND SWAP1 DUP4 PUSH20 0xFFFFFFFFFFFFFFFFFFFFFFFFFFFFFFFFFFFFFFFF AND MUL OR SWAP1 SSTORE POP PUSH1 0x78 TIMESTAMP PUSH1 0x5A SWAP2 SWAP1 PUSH1 0x9A JUMP JUMPDEST PUSH1 0x2 DUP2 SWAP1 SSTORE POP PUSH1 0xC6 JUMP JUMPDEST PUSH0 DUP2 SWAP1 POP SWAP2 SWAP1 POP JUMP JUMPDEST PUSH32 0x4E487B7100000000000000000000000000000000000000000000000000000000 PUSH0 MSTORE PUSH1 0x11 PUSH1 0x4 MSTORE PUSH1 0x24 PUSH0 REVERT JUMPDEST PUSH0 PUSH1 0xA2 DUP3 PUSH1 0x64 JUMP JUMPDEST SWAP2 POP PUSH1 0xAB DUP4 PUSH1 0x64 JUMP JUMPDEST SWAP3 POP DUP3 DUP3 ADD SWAP1 POP DUP1 DUP3 GT ISZERO PUSH1 0xC0 JUMPI PUSH1 0xBF PUSH1 0x6D JUMP JUMPDEST JUMPDEST SWAP3 SWAP2 POP POP JUMP JUMPDEST PUSH2 0x97D DUP1 PUSH2 0xD3 PUSH0 CODECOPY PUSH0 RETURN INVALID PUSH1 0x80 PUSH1 0x40 MSTORE PUSH1 0x4 CALLDATASIZE LT PUSH2 0x6F JUMPI PUSH0 CALLDATALOAD PUSH1 0xE0 SHR DUP1 PUSH4 0x83E4CCCF GT PUSH2 0x4D JUMPI DUP1 PUSH4 0x83E4CCCF EQ PUSH2 0xEF JUMPI DUP1 PUSH4 0x961BE391 EQ PUSH2 0x117 JUMPI DUP1 PUSH4 0xD0E30DB0 EQ PUSH2 0x141 JUMPI DUP1 PUSH4 0xD76DDDD3 EQ PUSH2 0x14B JUMPI PUSH2 0x6F JUMP JUMPDEST DUP1 PUSH4 0x33289A46 EQ PUSH2 0x73 JUMPI DUP1 PUSH4 0x419759F5 EQ PUSH2 0x9B JUMPI DUP1 PUSH4 0x4F99B7C5 EQ PUSH2 0xC5 JUMPI JUMPDEST PUSH0 PUSH0 REVERT JUMPDEST CALLVALUE DUP1 ISZERO PUSH2 0x7E JUMPI PUSH0 PUSH0 REVERT JUMPDEST POP PUSH2 0x99 PUSH1 0x4 DUP1 CALLDATASIZE SUB DUP2 ADD SWAP1 PUSH2 0x94 SWAP2 SWAP1 PUSH2 0x584 JUMP JUMPDEST PUSH2 0x175 JUMP JUMPDEST STOP JUMPDEST CALLVALUE DUP1 ISZERO PUSH2 0xA6 JUMPI PUSH0 PUSH0 REVERT JUMPDEST POP PUSH2 0xAF PUSH2 0x2EC JUMP JUMPDEST PUSH1 0x40 MLOAD PUSH2 0xBC SWAP2 SWAP1 PUSH2 0x5BE JUMP JUMPDEST PUSH1 0x40 MLOAD DUP1 SWAP2 SUB SWAP1 RETURN JUMPDEST CALLVALUE DUP1 ISZERO PUSH2 0xD0 JUMPI PUSH0 PUSH0 REVERT JUMPDEST POP PUSH2 0xD9 PUSH2 0x2F2 JUMP JUMPDEST PUSH1 0x40 MLOAD PUSH2 0xE6 SWAP2 SWAP1 PUSH2 0x5BE JUMP JUMPDEST PUSH1 0x40 MLOAD DUP1 SWAP2 SUB SWAP1 RETURN JUMPDEST CALLVALUE DUP1 ISZERO PUSH2 0xFA JUMPI PUSH0 PUSH0 REVERT JUMPDEST POP PUSH2 0x115 PUSH1 0x4 DUP1 CALLDATASIZE SUB DUP2 ADD SWAP1 PUSH2 0x110 SWAP2 SWAP1 PUSH2 0x584 JUMP JUMPDEST PUSH2 0x2F9 JUMP JUMPDEST STOP JUMPDEST CALLVALUE DUP1 ISZERO PUSH2 0x122 JUMPI PUSH0 PUSH0 REVERT JUMPDEST POP PUSH2 0x12B PUSH2 0x42A JUMP JUMPDEST PUSH1 0x40 MLOAD PUSH2 0x138 SWAP2 SWAP1 PUSH2 0x5BE JUMP JUMPDEST PUSH1 0x40 MLOAD DUP1 SWAP2 SUB SWAP1 RETURN JUMPDEST PUSH2 0x149 PUSH2 0x42F JUMP JUMPDEST STOP JUMPDEST CALLVALUE DUP1 ISZERO PUSH2 0x156 JUMPI PUSH0 PUSH0 REVERT JUMPDEST POP PUSH2 0x15F PUSH2 0x547 JUMP JUMPDEST PUSH1 0x40 MLOAD PUSH2 0x16C SWAP2 SWAP1 PUSH2 0x5BE JUMP JUMPDEST PUSH1 0x40 MLOAD DUP1 SWAP2 SUB SWAP1 RETURN JUMPDEST PUSH1 0x3 PUSH0 SWAP1 SLOAD SWAP1 PUSH2 0x100 EXP SWAP1 DIV PUSH20 0xFFFFFFFFFFFFFFFFFFFFFFFFFFFFFFFFFFFFFFFF AND PUSH20 0xFFFFFFFFFFFFFFFFFFFFFFFFFFFFFFFFFFFFFFFF AND CALLER PUSH20 0xFFFFFFFFFFFFFFFFFFFFFFFFFFFFFFFFFFFFFFFF AND EQ PUSH2 0x204 JUMPI PUSH1 0x40 MLOAD PUSH32 0x8C379A000000000000000000000000000000000000000000000000000000000 DUP2 MSTORE PUSH1 0x4 ADD PUSH2 0x1FB SWAP1 PUSH2 0x631 JUMP JUMPDEST PUSH1 0x40 MLOAD DUP1 SWAP2 SUB SWAP1 REVERT JUMPDEST DUP1 PUSH1 0x1 SLOAD LT ISZERO PUSH2 0x249 JUMPI PUSH1 0x40 MLOAD PUSH32 0x8C379A000000000000000000000000000000000000000000000000000000000 DUP2 MSTORE PUSH1 0x4 ADD PUSH2 0x240 SWAP1 PUSH2 0x699 JUMP JUMPDEST PUSH1 0x40 MLOAD DUP1 SWAP2 SUB SWAP1 REVERT JUMPDEST PUSH1 0x2 SLOAD TIMESTAMP GT PUSH2 0x28D JUMPI PUSH1 0x40 MLOAD PUSH32 0x8C379A000000000000000000000000000000000000000000000000000000000 DUP2 MSTORE PUSH1 0x4 ADD PUSH2 0x284 SWAP1 PUSH2 0x701 JUMP JUMPDEST PUSH1 0x40 MLOAD DUP1 SWAP2 SUB SWAP1 REVERT JUMPDEST DUP1 PUSH1 0x1 PUSH0 DUP3 DUP3 SLOAD PUSH2 0x29E SWAP2 SWAP1 PUSH2 0x74C JUMP JUMPDEST SWAP3 POP POP DUP2 SWAP1 SSTORE POP CALLER PUSH20 0xFFFFFFFFFFFFFFFFFFFFFFFFFFFFFFFFFFFFFFFF AND PUSH2 0x8FC DUP3 SWAP1 DUP2 ISZERO MUL SWAP1 PUSH1 0x40 MLOAD PUSH0 PUSH1 0x40 MLOAD DUP1 DUP4 SUB DUP2 DUP6 DUP9 DUP9 CALL SWAP4 POP POP POP POP ISZERO DUP1 ISZERO PUSH2 0x2E8 JUMPI RETURNDATASIZE PUSH0 PUSH0 RETURNDATACOPY RETURNDATASIZE PUSH0 REVERT JUMPDEST POP POP JUMP JUMPDEST PUSH1 0x1 SLOAD DUP2 JUMP JUMPDEST PUSH0 TIMESTAMP SWAP1 POP SWAP1 JUMP JUMPDEST PUSH1 0x3 PUSH0 SWAP1 SLOAD SWAP1 PUSH2 0x100 EXP SWAP1 DIV PUSH20 0xFFFFFFFFFFFFFFFFFFFFFFFFFFFFFFFFFFFFFFFF AND PUSH20 0xFFFFFFFFFFFFFFFFFFFFFFFFFFFFFFFFFFFFFFFF AND CALLER PUSH20 0xFFFFFFFFFFFFFFFFFFFFFFFFFFFFFFFFFFFFFFFF AND EQ PUSH2 0x388 JUMPI PUSH1 0x40 MLOAD PUSH32 0x8C379A000000000000000000000000000000000000000000000000000000000 DUP2 MSTORE PUSH1 0x4 ADD PUSH2 0x37F SWAP1 PUSH2 0x631 JUMP JUMPDEST PUSH1 0x40 MLOAD DUP1 SWAP2 SUB SWAP1 REVERT JUMPDEST DUP1 PUSH0 SLOAD LT ISZERO PUSH2 0x3CC JUMPI PUSH1 0x40 MLOAD PUSH32 0x8C379A000000000000000000000000000000000000000000000000000000000 DUP2 MSTORE PUSH1 0x4 ADD PUSH2 0x3C3 SWAP1 PUSH2 0x7C9 JUMP JUMPDEST PUSH1 0x40 MLOAD DUP1 SWAP2 SUB SWAP1 REVERT JUMPDEST DUP1 PUSH0 PUSH0 DUP3 DUP3 SLOAD PUSH2 0x3DC SWAP2 SWAP1 PUSH2 0x74C JUMP JUMPDEST SWAP3 POP POP DUP2 SWAP1 SSTORE POP CALLER PUSH20 0xFFFFFFFFFFFFFFFFFFFFFFFFFFFFFFFFFFFFFFFF AND PUSH2 0x8FC DUP3 SWAP1 DUP2 ISZERO MUL SWAP1 PUSH1 0x40 MLOAD PUSH0 PUSH1 0x40 MLOAD DUP1 DUP4 SUB DUP2 DUP6 DUP9 DUP9 CALL SWAP4 POP POP POP POP ISZERO DUP1 ISZERO PUSH2 0x426 JUMPI RETURNDATASIZE PUSH0 PUSH0 RETURNDATACOPY RETURNDATASIZE PUSH0 REVERT JUMPDEST POP POP JUMP JUMPDEST PUSH0 SLOAD DUP2 JUMP JUMPDEST PUSH1 0x3 PUSH0 SWAP1 SLOAD SWAP1 PUSH2 0x100 EXP SWAP1 DIV PUSH20 0xFFFFFFFFFFFFFFFFFFFFFFFFFFFFFFFFFFFFFFFF AND PUSH20 0xFFFFFFFFFFFFFFFFFFFFFFFFFFFFFFFFFFFFFFFF AND CALLER PUSH20 0xFFFFFFFFFFFFFFFFFFFFFFFFFFFFFFFFFFFFFFFF AND EQ PUSH2 0x4BE JUMPI PUSH1 0x40 MLOAD PUSH32 0x8C379A000000000000000000000000000000000000000000000000000000000 DUP2 MSTORE PUSH1 0x4 ADD PUSH2 0x4B5 SWAP1 PUSH2 0x831 JUMP JUMPDEST PUSH1 0x40 MLOAD DUP1 SWAP2 SUB SWAP1 REVERT JUMPDEST PUSH0 CALLVALUE GT PUSH2 0x500 JUMPI PUSH1 0x40 MLOAD PUSH32 0x8C379A000000000000000000000000000000000000000000000000000000000 DUP2 MSTORE PUSH1 0x4 ADD PUSH2 0x4F7 SWAP1 PUSH2 0x899 JUMP JUMPDEST PUSH1 0x40 MLOAD DUP1 SWAP2 SUB SWAP1 REVERT JUMPDEST PUSH0 CALLVALUE SWAP1 POP PUSH0 PUSH1 0x2 DUP3 PUSH2 0x512 SWAP2 SWAP1 PUSH2 0x8E4 JUMP JUMPDEST SWAP1 POP DUP1 PUSH1 0x1 PUSH0 DUP3 DUP3 SLOAD PUSH2 0x525 SWAP2 SWAP1 PUSH2 0x914 JUMP JUMPDEST SWAP3 POP POP DUP2 SWAP1 SSTORE POP DUP1 PUSH0 PUSH0 DUP3 DUP3 SLOAD PUSH2 0x53C SWAP2 SWAP1 PUSH2 0x914 JUMP JUMPDEST SWAP3 POP POP DUP2 SWAP1 SSTORE POP POP POP JUMP JUMPDEST PUSH1 0x2 SLOAD DUP2 JUMP JUMPDEST PUSH0 PUSH0 REVERT JUMPDEST PUSH0 DUP2 SWAP1 POP SWAP2 SWAP1 POP JUMP JUMPDEST PUSH2 0x563 DUP2 PUSH2 0x551 JUMP JUMPDEST DUP2 EQ PUSH2 0x56D JUMPI PUSH0 PUSH0 REVERT JUMPDEST POP JUMP JUMPDEST PUSH0 DUP2 CALLDATALOAD SWAP1 POP PUSH2 0x57E DUP2 PUSH2 0x55A JUMP JUMPDEST SWAP3 SWAP2 POP POP JUMP JUMPDEST PUSH0 PUSH1 0x20 DUP3 DUP5 SUB SLT ISZERO PUSH2 0x599 JUMPI PUSH2 0x598 PUSH2 0x54D JUMP JUMPDEST JUMPDEST PUSH0 PUSH2 0x5A6 DUP5 DUP3 DUP6 ADD PUSH2 0x570 JUMP JUMPDEST SWAP2 POP POP SWAP3 SWAP2 POP POP JUMP JUMPDEST PUSH2 0x5B8 DUP2 PUSH2 0x551 JUMP JUMPDEST DUP3 MSTORE POP POP JUMP JUMPDEST PUSH0 PUSH1 0x20 DUP3 ADD SWAP1 POP PUSH2 0x5D1 PUSH0 DUP4 ADD DUP5 PUSH2 0x5AF JUMP JUMPDEST SWAP3 SWAP2 POP POP JUMP JUMPDEST PUSH0 DUP3 DUP3 MSTORE PUSH1 0x20 DUP3 ADD SWAP1 POP SWAP3 SWAP2 POP POP JUMP JUMPDEST PUSH32 0x6E6F74206F776572000000000000000000000000000000000000000000000000 PUSH0 DUP3 ADD MSTORE POP JUMP JUMPDEST PUSH0 PUSH2 0x61B PUSH1 0x8 DUP4 PUSH2 0x5D7 JUMP JUMPDEST SWAP2 POP PUSH2 0x626 DUP3 PUSH2 0x5E7 JUMP JUMPDEST PUSH1 0x20 DUP3 ADD SWAP1 POP SWAP2 SWAP1 POP JUMP JUMPDEST PUSH0 PUSH1 0x20 DUP3 ADD SWAP1 POP DUP2 DUP2 SUB PUSH0 DUP4 ADD MSTORE PUSH2 0x648 DUP2 PUSH2 0x60F JUMP JUMPDEST SWAP1 POP SWAP2 SWAP1 POP JUMP JUMPDEST PUSH32 0x6465706F736974416D6F756E74206973206E6F7420656E6F7567680000000000 PUSH0 DUP3 ADD MSTORE POP JUMP JUMPDEST PUSH0 PUSH2 0x683 PUSH1 0x1B DUP4 PUSH2 0x5D7 JUMP JUMPDEST SWAP2 POP PUSH2 0x68E DUP3 PUSH2 0x64F JUMP JUMPDEST PUSH1 0x20 DUP3 ADD SWAP1 POP SWAP2 SWAP1 POP JUMP JUMPDEST PUSH0 PUSH1 0x20 DUP3 ADD SWAP1 POP DUP2 DUP2 SUB PUSH0 DUP4 ADD MSTORE PUSH2 0x6B0 DUP2 PUSH2 0x677 JUMP JUMPDEST SWAP1 POP SWAP2 SWAP1 POP JUMP JUMPDEST PUSH32 0x74696D65206973206E6F74207265616479000000000000000000000000000000 PUSH0 DUP3 ADD MSTORE POP JUMP JUMPDEST PUSH0 PUSH2 0x6EB PUSH1 0x11 DUP4 PUSH2 0x5D7 JUMP JUMPDEST SWAP2 POP PUSH2 0x6F6 DUP3 PUSH2 0x6B7 JUMP JUMPDEST PUSH1 0x20 DUP3 ADD SWAP1 POP SWAP2 SWAP1 POP JUMP JUMPDEST PUSH0 PUSH1 0x20 DUP3 ADD SWAP1 POP DUP2 DUP2 SUB PUSH0 DUP4 ADD MSTORE PUSH2 0x718 DUP2 PUSH2 0x6DF JUMP JUMPDEST SWAP1 POP SWAP2 SWAP1 POP JUMP JUMPDEST PUSH32 0x4E487B7100000000000000000000000000000000000000000000000000000000 PUSH0 MSTORE PUSH1 0x11 PUSH1 0x4 MSTORE PUSH1 0x24 PUSH0 REVERT JUMPDEST PUSH0 PUSH2 0x756 DUP3 PUSH2 0x551 JUMP JUMPDEST SWAP2 POP PUSH2 0x761 DUP4 PUSH2 0x551 JUMP JUMPDEST SWAP3 POP DUP3 DUP3 SUB SWAP1 POP DUP2 DUP2 GT ISZERO PUSH2 0x779 JUMPI PUSH2 0x778 PUSH2 0x71F JUMP JUMPDEST JUMPDEST SWAP3 SWAP2 POP POP JUMP JUMPDEST PUSH32 0x63617368206973206E6F7420656E6F7567680000000000000000000000000000 PUSH0 DUP3 ADD MSTORE POP JUMP JUMPDEST PUSH0 PUSH2 0x7B3 PUSH1 0x12 DUP4 PUSH2 0x5D7 JUMP JUMPDEST SWAP2 POP PUSH2 0x7BE DUP3 PUSH2 0x77F JUMP JUMPDEST PUSH1 0x20 DUP3 ADD SWAP1 POP SWAP2 SWAP1 POP JUMP JUMPDEST PUSH0 PUSH1 0x20 DUP3 ADD SWAP1 POP DUP2 DUP2 SUB PUSH0 DUP4 ADD MSTORE PUSH2 0x7E0 DUP2 PUSH2 0x7A7 JUMP JUMPDEST SWAP1 POP SWAP2 SWAP1 POP JUMP JUMPDEST PUSH32 0x6E6F74206F776E65720000000000000000000000000000000000000000000000 PUSH0 DUP3 ADD MSTORE POP JUMP JUMPDEST PUSH0 PUSH2 0x81B PUSH1 0x9 DUP4 PUSH2 0x5D7 JUMP JUMPDEST SWAP2 POP PUSH2 0x826 DUP3 PUSH2 0x7E7 JUMP JUMPDEST PUSH1 0x20 DUP3 ADD SWAP1 POP SWAP2 SWAP1 POP JUMP JUMPDEST PUSH0 PUSH1 0x20 DUP3 ADD SWAP1 POP DUP2 DUP2 SUB PUSH0 DUP4 ADD MSTORE PUSH2 0x848 DUP2 PUSH2 0x80F JUMP JUMPDEST SWAP1 POP SWAP2 SWAP1 POP JUMP JUMPDEST PUSH32 0x6E656564206D6174636820657468000000000000000000000000000000000000 PUSH0 DUP3 ADD MSTORE POP JUMP JUMPDEST PUSH0 PUSH2 0x883 PUSH1 0xE DUP4 PUSH2 0x5D7 JUMP JUMPDEST SWAP2 POP PUSH2 0x88E DUP3 PUSH2 0x84F JUMP JUMPDEST PUSH1 0x20 DUP3 ADD SWAP1 POP SWAP2 SWAP1 POP JUMP JUMPDEST PUSH0 PUSH1 0x20 DUP3 ADD SWAP1 POP DUP2 DUP2 SUB PUSH0 DUP4 ADD MSTORE PUSH2 0x8B0 DUP2 PUSH2 0x877 JUMP JUMPDEST SWAP1 POP SWAP2 SWAP1 POP JUMP JUMPDEST PUSH32 0x4E487B7100000000000000000000000000000000000000000000000000000000 PUSH0 MSTORE PUSH1 0x12 PUSH1 0x4 MSTORE PUSH1 0x24 PUSH0 REVERT JUMPDEST PUSH0 PUSH2 0x8EE DUP3 PUSH2 0x551 JUMP JUMPDEST SWAP2 POP PUSH2 0x8F9 DUP4 PUSH2 0x551 JUMP JUMPDEST SWAP3 POP DUP3 PUSH2 0x909 JUMPI PUSH2 0x908 PUSH2 0x8B7 JUMP JUMPDEST JUMPDEST DUP3 DUP3 DIV SWAP1 POP SWAP3 SWAP2 POP POP JUMP JUMPDEST PUSH0 PUSH2 0x91E DUP3 PUSH2 0x551 JUMP JUMPDEST SWAP2 POP PUSH2 0x929 DUP4 PUSH2 0x551 JUMP JUMPDEST SWAP3 POP DUP3 DUP3 ADD SWAP1 POP DUP1 DUP3 GT ISZERO PUSH2 0x941 JUMPI PUSH2 0x940 PUSH2 0x71F JUMP JUMPDEST JUMPDEST SWAP3 SWAP2 POP POP JUMP INVALID LOG2 PUSH5 0x6970667358 0x22 SLT KECCAK256 DUP7 SWAP3 PUSH25 0xCED4F65C38FAABF7449D878F4B3A6D75A846C4DB1D7617C1D 0xC3 0xB0 0xB4 0xB5 PUSH5 0x736F6C6343 STOP ADDMOD 0x1E STOP CALLER "
				},
				"gasEstimates": {
					"creation": {
						"codeDepositCost": "485800",
						"executionCost": "infinite",
						"totalCost": "infinite"
					},
					"external": {
						"cash()": "2446",
						"currentDate()": "376",
						"deposit()": "infinite",
						"depositAmount()": "2448",
						"unfreezeTime()": "2491",
						"withdrawCash(uint256)": "infinite",
						"withdrawDeposit(uint256)": "infinite"
					}
				},
				"methodIdentifiers": {
					"cash()": "961be391",
					"currentDate()": "4f99b7c5",
					"deposit()": "d0e30db0",
					"depositAmount()": "419759f5",
					"unfreezeTime()": "d76dddd3",
					"withdrawCash(uint256)": "83e4cccf",
					"withdrawDeposit(uint256)": "33289a46"
				}
			},
			"storageLayout": {
				"storage": [
					{
						"astId": 3,
						"contract": "202508/PiggyBank.sol:PiggyBank",
						"label": "cash",
						"offset": 0,
						"slot": "0",
						"type": "t_uint256"
					},
					{
						"astId": 5,
						"contract": "202508/PiggyBank.sol:PiggyBank",
						"label": "depositAmount",
						"offset": 0,
						"slot": "1",
						"type": "t_uint256"
					},
					{
						"astId": 7,
						"contract": "202508/PiggyBank.sol:PiggyBank",
						"label": "unfreezeTime",
						"offset": 0,
						"slot": "2",
						"type": "t_uint256"
					},
					{
						"astId": 9,
						"contract": "202508/PiggyBank.sol:PiggyBank",
						"label": "owner",
						"offset": 0,
						"slot": "3",
						"type": "t_address"
					}
				],
				"types": {
					"t_address": {
						"encoding": "inplace",
						"label": "address",
						"numberOfBytes": "20"
					},
					"t_uint256": {
						"encoding": "inplace",
						"label": "uint256",
						"numberOfBytes": "32"
					}
				}
			},
			"userdoc": {
				"kind": "user",
				"methods": {},
				"version": 1
			}
		}
	}
}