{
	"C2E_learning/040_call_other_contracts.sol": {
		"MyTargetContract": {
			"abi": [
				{
					"inputs": [],
					"name": "getX",
					"outputs": [
						{
							"internalType": "uint256",
							"name": "",
							"type": "uint256"
						}
					],
					"stateMutability": "view",
					"type": "function"
				},
				{
					"inputs": [],
					"name": "getXAndValue",
					"outputs": [
						{
							"internalType": "uint256",
							"name": "",
							"type": "uint256"
						},
						{
							"internalType": "uint256",
							"name": "",
							"type": "uint256"
						}
					],
					"stateMutability": "view",
					"type": "function"
				},
				{
					"inputs": [
						{
							"internalType": "uint256",
							"name": "_x",
							"type": "uint256"
						}
					],
					"name": "setX",
					"outputs": [],
					"stateMutability": "nonpayable",
					"type": "function"
				},
				{
					"inputs": [
						{
							"internalType": "uint256",
							"name": "_x",
							"type": "uint256"
						}
					],
					"name": "setXAndReceiveEther",
					"outputs": [],
					"stateMutability": "payable",
					"type": "function"
				},
				{
					"inputs": [],
					"name": "value",
					"outputs": [
						{
							"internalType": "uint256",
							"name": "",
							"type": "uint256"
						}
					],
					"stateMutability": "view",
					"type": "function"
				},
				{
					"inputs": [],
					"name": "x",
					"outputs": [
						{
							"internalType": "uint256",
							"name": "",
							"type": "uint256"
						}
					],
					"stateMutability": "view",
					"type": "function"
				}
			],
			"devdoc": {
				"kind": "dev",
				"methods": {},
				"version": 1
			},
			"evm": {
				"assembly": "    /* \"C2E_learning/040_call_other_contracts.sol\":57:496  contract MyTargetContract {... */\n  mstore(0x40, 0x80)\n  callvalue\n  dup1\n  iszero\n  tag_1\n  jumpi\n  revert(0x00, 0x00)\ntag_1:\n  pop\n  dataSize(sub_0)\n  dup1\n  dataOffset(sub_0)\n  0x00\n  codecopy\n  0x00\n  return\nstop\n\nsub_0: assembly {\n        /* \"C2E_learning/040_call_other_contracts.sol\":57:496  contract MyTargetContract {... */\n      mstore(0x40, 0x80)\n      jumpi(tag_1, lt(calldatasize, 0x04))\n      shr(0xe0, calldataload(0x00))\n      dup1\n      0x0c55699c\n      eq\n      tag_2\n      jumpi\n      dup1\n      0x2b5d6086\n      eq\n      tag_3\n      jumpi\n      dup1\n      0x3fa4f245\n      eq\n      tag_4\n      jumpi\n      dup1\n      0x4018d9aa\n      eq\n      tag_5\n      jumpi\n      dup1\n      0x5197c7aa\n      eq\n      tag_6\n      jumpi\n      dup1\n      0xc9c4e00f\n      eq\n      tag_7\n      jumpi\n    tag_1:\n      revert(0x00, 0x00)\n        /* \"C2E_learning/040_call_other_contracts.sol\":89:105  uint256 public x */\n    tag_2:\n      callvalue\n      dup1\n      iszero\n      tag_8\n      jumpi\n      revert(0x00, 0x00)\n    tag_8:\n      pop\n      tag_9\n      tag_10\n      jump\t// in\n    tag_9:\n      mload(0x40)\n      tag_11\n      swap2\n      swap1\n      tag_12\n      jump\t// in\n    tag_11:\n      mload(0x40)\n      dup1\n      swap2\n      sub\n      swap1\n      return\n        /* \"C2E_learning/040_call_other_contracts.sol\":395:494  function getXAndValue() external view returns (uint256, uint256) {... */\n    tag_3:\n      callvalue\n      dup1\n      iszero\n      tag_13\n      jumpi\n      revert(0x00, 0x00)\n    tag_13:\n      pop\n      tag_14\n      tag_15\n      jump\t// in\n    tag_14:\n      mload(0x40)\n      tag_16\n      swap3\n      swap2\n      swap1\n      tag_17\n      jump\t// in\n    tag_16:\n      mload(0x40)\n      dup1\n      swap2\n      sub\n      swap1\n      return\n        /* \"C2E_learning/040_call_other_contracts.sol\":111:131  uint256 public value */\n    tag_4:\n      callvalue\n      dup1\n      iszero\n      tag_18\n      jumpi\n      revert(0x00, 0x00)\n    tag_18:\n      pop\n      tag_19\n      tag_20\n      jump\t// in\n    tag_19:\n      mload(0x40)\n      tag_21\n      swap2\n      swap1\n      tag_12\n      jump\t// in\n    tag_21:\n      mload(0x40)\n      dup1\n      swap2\n      sub\n      swap1\n      return\n        /* \"C2E_learning/040_call_other_contracts.sol\":138:196  function setX(uint256 _x) external {... */\n    tag_5:\n      callvalue\n      dup1\n      iszero\n      tag_22\n      jumpi\n      revert(0x00, 0x00)\n    tag_22:\n      pop\n      tag_23\n      0x04\n      dup1\n      calldatasize\n      sub\n      dup2\n      add\n      swap1\n      tag_24\n      swap2\n      swap1\n      tag_25\n      jump\t// in\n    tag_24:\n      tag_26\n      jump\t// in\n    tag_23:\n      stop\n        /* \"C2E_learning/040_call_other_contracts.sol\":202:275  function getX() external view returns (uint256) {... */\n    tag_6:\n      callvalue\n      dup1\n      iszero\n      tag_27\n      jumpi\n      revert(0x00, 0x00)\n    tag_27:\n      pop\n      tag_28\n      tag_29\n      jump\t// in\n    tag_28:\n      mload(0x40)\n      tag_30\n      swap2\n      swap1\n      tag_12\n      jump\t// in\n    tag_30:\n      mload(0x40)\n      dup1\n      swap2\n      sub\n      swap1\n      return\n        /* \"C2E_learning/040_call_other_contracts.sol\":281:389  function setXAndReceiveEther(uint256 _x) external payable {... */\n    tag_7:\n      tag_31\n      0x04\n      dup1\n      calldatasize\n      sub\n      dup2\n      add\n      swap1\n      tag_32\n      swap2\n      swap1\n      tag_25\n      jump\t// in\n    tag_32:\n      tag_33\n      jump\t// in\n    tag_31:\n      stop\n        /* \"C2E_learning/040_call_other_contracts.sol\":89:105  uint256 public x */\n    tag_10:\n      sload(0x00)\n      dup2\n      jump\t// out\n        /* \"C2E_learning/040_call_other_contracts.sol\":395:494  function getXAndValue() external view returns (uint256, uint256) {... */\n    tag_15:\n        /* \"C2E_learning/040_call_other_contracts.sol\":442:449  uint256 */\n      0x00\n        /* \"C2E_learning/040_call_other_contracts.sol\":451:458  uint256 */\n      0x00\n        /* \"C2E_learning/040_call_other_contracts.sol\":478:479  x */\n      sload(0x00)\n        /* \"C2E_learning/040_call_other_contracts.sol\":481:486  value */\n      sload(0x01)\n        /* \"C2E_learning/040_call_other_contracts.sol\":470:487  return (x, value) */\n      swap2\n      pop\n      swap2\n      pop\n        /* \"C2E_learning/040_call_other_contracts.sol\":395:494  function getXAndValue() external view returns (uint256, uint256) {... */\n      swap1\n      swap2\n      jump\t// out\n        /* \"C2E_learning/040_call_other_contracts.sol\":111:131  uint256 public value */\n    tag_20:\n      sload(0x01)\n      dup2\n      jump\t// out\n        /* \"C2E_learning/040_call_other_contracts.sol\":138:196  function setX(uint256 _x) external {... */\n    tag_26:\n        /* \"C2E_learning/040_call_other_contracts.sol\":187:189  _x */\n      dup1\n        /* \"C2E_learning/040_call_other_contracts.sol\":183:184  x */\n      0x00\n        /* \"C2E_learning/040_call_other_contracts.sol\":183:189  x = _x */\n      dup2\n      swap1\n      sstore\n      pop\n        /* \"C2E_learning/040_call_other_contracts.sol\":138:196  function setX(uint256 _x) external {... */\n      pop\n      jump\t// out\n        /* \"C2E_learning/040_call_other_contracts.sol\":202:275  function getX() external view returns (uint256) {... */\n    tag_29:\n        /* \"C2E_learning/040_call_other_contracts.sol\":241:248  uint256 */\n      0x00\n        /* \"C2E_learning/040_call_other_contracts.sol\":267:268  x */\n      sload(0x00)\n        /* \"C2E_learning/040_call_other_contracts.sol\":260:268  return x */\n      swap1\n      pop\n        /* \"C2E_learning/040_call_other_contracts.sol\":202:275  function getX() external view returns (uint256) {... */\n      swap1\n      jump\t// out\n        /* \"C2E_learning/040_call_other_contracts.sol\":281:389  function setXAndReceiveEther(uint256 _x) external payable {... */\n    tag_33:\n        /* \"C2E_learning/040_call_other_contracts.sol\":353:355  _x */\n      dup1\n        /* \"C2E_learning/040_call_other_contracts.sol\":349:350  x */\n      0x00\n        /* \"C2E_learning/040_call_other_contracts.sol\":349:355  x = _x */\n      dup2\n      swap1\n      sstore\n      pop\n        /* \"C2E_learning/040_call_other_contracts.sol\":373:382  msg.value */\n      callvalue\n        /* \"C2E_learning/040_call_other_contracts.sol\":365:370  value */\n      0x01\n        /* \"C2E_learning/040_call_other_contracts.sol\":365:382  value = msg.value */\n      dup2\n      swap1\n      sstore\n      pop\n        /* \"C2E_learning/040_call_other_contracts.sol\":281:389  function setXAndReceiveEther(uint256 _x) external payable {... */\n      pop\n      jump\t// out\n        /* \"#utility.yul\":7:84   */\n    tag_38:\n        /* \"#utility.yul\":44:51   */\n      0x00\n        /* \"#utility.yul\":73:78   */\n      dup2\n        /* \"#utility.yul\":62:78   */\n      swap1\n      pop\n        /* \"#utility.yul\":7:84   */\n      swap2\n      swap1\n      pop\n      jump\t// out\n        /* \"#utility.yul\":90:208   */\n    tag_39:\n        /* \"#utility.yul\":177:201   */\n      tag_48\n        /* \"#utility.yul\":195:200   */\n      dup2\n        /* \"#utility.yul\":177:201   */\n      tag_38\n      jump\t// in\n    tag_48:\n        /* \"#utility.yul\":172:175   */\n      dup3\n        /* \"#utility.yul\":165:202   */\n      mstore\n        /* \"#utility.yul\":90:208   */\n      pop\n      pop\n      jump\t// out\n        /* \"#utility.yul\":214:436   */\n    tag_12:\n        /* \"#utility.yul\":307:311   */\n      0x00\n        /* \"#utility.yul\":345:347   */\n      0x20\n        /* \"#utility.yul\":334:343   */\n      dup3\n        /* \"#utility.yul\":330:348   */\n      add\n        /* \"#utility.yul\":322:348   */\n      swap1\n      pop\n        /* \"#utility.yul\":358:429   */\n      tag_50\n        /* \"#utility.yul\":426:427   */\n      0x00\n        /* \"#utility.yul\":415:424   */\n      dup4\n        /* \"#utility.yul\":411:428   */\n      add\n        /* \"#utility.yul\":402:408   */\n      dup5\n        /* \"#utility.yul\":358:429   */\n      tag_39\n      jump\t// in\n    tag_50:\n        /* \"#utility.yul\":214:436   */\n      swap3\n      swap2\n      pop\n      pop\n      jump\t// out\n        /* \"#utility.yul\":442:774   */\n    tag_17:\n        /* \"#utility.yul\":563:567   */\n      0x00\n        /* \"#utility.yul\":601:603   */\n      0x40\n        /* \"#utility.yul\":590:599   */\n      dup3\n        /* \"#utility.yul\":586:604   */\n      add\n        /* \"#utility.yul\":578:604   */\n      swap1\n      pop\n        /* \"#utility.yul\":614:685   */\n      tag_52\n        /* \"#utility.yul\":682:683   */\n      0x00\n        /* \"#utility.yul\":671:680   */\n      dup4\n        /* \"#utility.yul\":667:684   */\n      add\n        /* \"#utility.yul\":658:664   */\n      dup6\n        /* \"#utility.yul\":614:685   */\n      tag_39\n      jump\t// in\n    tag_52:\n        /* \"#utility.yul\":695:767   */\n      tag_53\n        /* \"#utility.yul\":763:765   */\n      0x20\n        /* \"#utility.yul\":752:761   */\n      dup4\n        /* \"#utility.yul\":748:766   */\n      add\n        /* \"#utility.yul\":739:745   */\n      dup5\n        /* \"#utility.yul\":695:767   */\n      tag_39\n      jump\t// in\n    tag_53:\n        /* \"#utility.yul\":442:774   */\n      swap4\n      swap3\n      pop\n      pop\n      pop\n      jump\t// out\n        /* \"#utility.yul\":861:978   */\n    tag_41:\n        /* \"#utility.yul\":970:971   */\n      0x00\n        /* \"#utility.yul\":967:968   */\n      0x00\n        /* \"#utility.yul\":960:972   */\n      revert\n        /* \"#utility.yul\":1107:1229   */\n    tag_43:\n        /* \"#utility.yul\":1180:1204   */\n      tag_58\n        /* \"#utility.yul\":1198:1203   */\n      dup2\n        /* \"#utility.yul\":1180:1204   */\n      tag_38\n      jump\t// in\n    tag_58:\n        /* \"#utility.yul\":1173:1178   */\n      dup2\n        /* \"#utility.yul\":1170:1205   */\n      eq\n        /* \"#utility.yul\":1160:1223   */\n      tag_59\n      jumpi\n        /* \"#utility.yul\":1219:1220   */\n      0x00\n        /* \"#utility.yul\":1216:1217   */\n      0x00\n        /* \"#utility.yul\":1209:1221   */\n      revert\n        /* \"#utility.yul\":1160:1223   */\n    tag_59:\n        /* \"#utility.yul\":1107:1229   */\n      pop\n      jump\t// out\n        /* \"#utility.yul\":1235:1374   */\n    tag_44:\n        /* \"#utility.yul\":1281:1286   */\n      0x00\n        /* \"#utility.yul\":1319:1325   */\n      dup2\n        /* \"#utility.yul\":1306:1326   */\n      calldataload\n        /* \"#utility.yul\":1297:1326   */\n      swap1\n      pop\n        /* \"#utility.yul\":1335:1368   */\n      tag_61\n        /* \"#utility.yul\":1362:1367   */\n      dup2\n        /* \"#utility.yul\":1335:1368   */\n      tag_43\n      jump\t// in\n    tag_61:\n        /* \"#utility.yul\":1235:1374   */\n      swap3\n      swap2\n      pop\n      pop\n      jump\t// out\n        /* \"#utility.yul\":1380:1709   */\n    tag_25:\n        /* \"#utility.yul\":1439:1445   */\n      0x00\n        /* \"#utility.yul\":1488:1490   */\n      0x20\n        /* \"#utility.yul\":1476:1485   */\n      dup3\n        /* \"#utility.yul\":1467:1474   */\n      dup5\n        /* \"#utility.yul\":1463:1486   */\n      sub\n        /* \"#utility.yul\":1459:1491   */\n      slt\n        /* \"#utility.yul\":1456:1575   */\n      iszero\n      tag_63\n      jumpi\n        /* \"#utility.yul\":1494:1573   */\n      tag_64\n      tag_41\n      jump\t// in\n    tag_64:\n        /* \"#utility.yul\":1456:1575   */\n    tag_63:\n        /* \"#utility.yul\":1614:1615   */\n      0x00\n        /* \"#utility.yul\":1639:1692   */\n      tag_65\n        /* \"#utility.yul\":1684:1691   */\n      dup5\n        /* \"#utility.yul\":1675:1681   */\n      dup3\n        /* \"#utility.yul\":1664:1673   */\n      dup6\n        /* \"#utility.yul\":1660:1682   */\n      add\n        /* \"#utility.yul\":1639:1692   */\n      tag_44\n      jump\t// in\n    tag_65:\n        /* \"#utility.yul\":1629:1692   */\n      swap2\n      pop\n        /* \"#utility.yul\":1585:1702   */\n      pop\n        /* \"#utility.yul\":1380:1709   */\n      swap3\n      swap2\n      pop\n      pop\n      jump\t// out\n\n    auxdata: 0xa264697066735822122062e4fb9b1a4a6fa60aec8ddb96c6078284d2e799ad804cc767c844e8a7595dcc64736f6c634300081e0033\n}\n",
				"bytecode": {
					"linkReferences": {},
					"object": "6080604052348015600e575f5ffd5b506102678061001c5f395ff3fe608060405260043610610054575f3560e01c80630c55699c146100585780632b5d6086146100825780633fa4f245146100ad5780634018d9aa146100d75780635197c7aa146100ff578063c9c4e00f14610129575b5f5ffd5b348015610063575f5ffd5b5061006c610145565b6040516100799190610198565b60405180910390f35b34801561008d575f5ffd5b5061009661014a565b6040516100a49291906101b1565b60405180910390f35b3480156100b8575f5ffd5b506100c1610159565b6040516100ce9190610198565b60405180910390f35b3480156100e2575f5ffd5b506100fd60048036038101906100f89190610206565b61015f565b005b34801561010a575f5ffd5b50610113610168565b6040516101209190610198565b60405180910390f35b610143600480360381019061013e9190610206565b610170565b005b5f5481565b5f5f5f54600154915091509091565b60015481565b805f8190555050565b5f5f54905090565b805f819055503460018190555050565b5f819050919050565b61019281610180565b82525050565b5f6020820190506101ab5f830184610189565b92915050565b5f6040820190506101c45f830185610189565b6101d16020830184610189565b9392505050565b5f5ffd5b6101e581610180565b81146101ef575f5ffd5b50565b5f81359050610200816101dc565b92915050565b5f6020828403121561021b5761021a6101d8565b5b5f610228848285016101f2565b9150509291505056fea264697066735822122062e4fb9b1a4a6fa60aec8ddb96c6078284d2e799ad804cc767c844e8a7595dcc64736f6c634300081e0033",
					"opcodes": "PUSH1 0x80 PUSH1 0x40 MSTORE CALLVALUE DUP1 ISZERO PUSH1 0xE JUMPI PUSH0 PUSH0 REVERT JUMPDEST POP PUSH2 0x267 DUP1 PUSH2 0x1C PUSH0 CODECOPY PUSH0 RETURN INVALID PUSH1 0x80 PUSH1 0x40 MSTORE PUSH1 0x4 CALLDATASIZE LT PUSH2 0x54 JUMPI PUSH0 CALLDATALOAD PUSH1 0xE0 SHR DUP1 PUSH4 0xC55699C EQ PUSH2 0x58 JUMPI DUP1 PUSH4 0x2B5D6086 EQ PUSH2 0x82 JUMPI DUP1 PUSH4 0x3FA4F245 EQ PUSH2 0xAD JUMPI DUP1 PUSH4 0x4018D9AA EQ PUSH2 0xD7 JUMPI DUP1 PUSH4 0x5197C7AA EQ PUSH2 0xFF JUMPI DUP1 PUSH4 0xC9C4E00F EQ PUSH2 0x129 JUMPI JUMPDEST PUSH0 PUSH0 REVERT JUMPDEST CALLVALUE DUP1 ISZERO PUSH2 0x63 JUMPI PUSH0 PUSH0 REVERT JUMPDEST POP PUSH2 0x6C PUSH2 0x145 JUMP JUMPDEST PUSH1 0x40 MLOAD PUSH2 0x79 SWAP2 SWAP1 PUSH2 0x198 JUMP JUMPDEST PUSH1 0x40 MLOAD DUP1 SWAP2 SUB SWAP1 RETURN JUMPDEST CALLVALUE DUP1 ISZERO PUSH2 0x8D JUMPI PUSH0 PUSH0 REVERT JUMPDEST POP PUSH2 0x96 PUSH2 0x14A JUMP JUMPDEST PUSH1 0x40 MLOAD PUSH2 0xA4 SWAP3 SWAP2 SWAP1 PUSH2 0x1B1 JUMP JUMPDEST PUSH1 0x40 MLOAD DUP1 SWAP2 SUB SWAP1 RETURN JUMPDEST CALLVALUE DUP1 ISZERO PUSH2 0xB8 JUMPI PUSH0 PUSH0 REVERT JUMPDEST POP PUSH2 0xC1 PUSH2 0x159 JUMP JUMPDEST PUSH1 0x40 MLOAD PUSH2 0xCE SWAP2 SWAP1 PUSH2 0x198 JUMP JUMPDEST PUSH1 0x40 MLOAD DUP1 SWAP2 SUB SWAP1 RETURN JUMPDEST CALLVALUE DUP1 ISZERO PUSH2 0xE2 JUMPI PUSH0 PUSH0 REVERT JUMPDEST POP PUSH2 0xFD PUSH1 0x4 DUP1 CALLDATASIZE SUB DUP2 ADD SWAP1 PUSH2 0xF8 SWAP2 SWAP1 PUSH2 0x206 JUMP JUMPDEST PUSH2 0x15F JUMP JUMPDEST STOP JUMPDEST CALLVALUE DUP1 ISZERO PUSH2 0x10A JUMPI PUSH0 PUSH0 REVERT JUMPDEST POP PUSH2 0x113 PUSH2 0x168 JUMP JUMPDEST PUSH1 0x40 MLOAD PUSH2 0x120 SWAP2 SWAP1 PUSH2 0x198 JUMP JUMPDEST PUSH1 0x40 MLOAD DUP1 SWAP2 SUB SWAP1 RETURN JUMPDEST PUSH2 0x143 PUSH1 0x4 DUP1 CALLDATASIZE SUB DUP2 ADD SWAP1 PUSH2 0x13E SWAP2 SWAP1 PUSH2 0x206 JUMP JUMPDEST PUSH2 0x170 JUMP JUMPDEST STOP JUMPDEST PUSH0 SLOAD DUP2 JUMP JUMPDEST PUSH0 PUSH0 PUSH0 SLOAD PUSH1 0x1 SLOAD SWAP2 POP SWAP2 POP SWAP1 SWAP2 JUMP JUMPDEST PUSH1 0x1 SLOAD DUP2 JUMP JUMPDEST DUP1 PUSH0 DUP2 SWAP1 SSTORE POP POP JUMP JUMPDEST PUSH0 PUSH0 SLOAD SWAP1 POP SWAP1 JUMP JUMPDEST DUP1 PUSH0 DUP2 SWAP1 SSTORE POP CALLVALUE PUSH1 0x1 DUP2 SWAP1 SSTORE POP POP JUMP JUMPDEST PUSH0 DUP2 SWAP1 POP SWAP2 SWAP1 POP JUMP JUMPDEST PUSH2 0x192 DUP2 PUSH2 0x180 JUMP JUMPDEST DUP3 MSTORE POP POP JUMP JUMPDEST PUSH0 PUSH1 0x20 DUP3 ADD SWAP1 POP PUSH2 0x1AB PUSH0 DUP4 ADD DUP5 PUSH2 0x189 JUMP JUMPDEST SWAP3 SWAP2 POP POP JUMP JUMPDEST PUSH0 PUSH1 0x40 DUP3 ADD SWAP1 POP PUSH2 0x1C4 PUSH0 DUP4 ADD DUP6 PUSH2 0x189 JUMP JUMPDEST PUSH2 0x1D1 PUSH1 0x20 DUP4 ADD DUP5 PUSH2 0x189 JUMP JUMPDEST SWAP4 SWAP3 POP POP POP JUMP JUMPDEST PUSH0 PUSH0 REVERT JUMPDEST PUSH2 0x1E5 DUP2 PUSH2 0x180 JUMP JUMPDEST DUP2 EQ PUSH2 0x1EF JUMPI PUSH0 PUSH0 REVERT JUMPDEST POP JUMP JUMPDEST PUSH0 DUP2 CALLDATALOAD SWAP1 POP PUSH2 0x200 DUP2 PUSH2 0x1DC JUMP JUMPDEST SWAP3 SWAP2 POP POP JUMP JUMPDEST PUSH0 PUSH1 0x20 DUP3 DUP5 SUB SLT ISZERO PUSH2 0x21B JUMPI PUSH2 0x21A PUSH2 0x1D8 JUMP JUMPDEST JUMPDEST PUSH0 PUSH2 0x228 DUP5 DUP3 DUP6 ADD PUSH2 0x1F2 JUMP JUMPDEST SWAP2 POP POP SWAP3 SWAP2 POP POP JUMP INVALID LOG2 PUSH5 0x6970667358 0x22 SLT KECCAK256 PUSH3 0xE4FB9B BYTE BLOBBASEFEE PUSH16 0xA60AEC8DDB96C6078284D2E799AD804C 0xC7 PUSH8 0xC844E8A7595DCC64 PUSH20 0x6F6C634300081E00330000000000000000000000 "
				},
				"gasEstimates": {
					"creation": {
						"codeDepositCost": "123000",
						"executionCost": "169",
						"totalCost": "123169"
					},
					"external": {
						"getX()": "2497",
						"getXAndValue()": "infinite",
						"setX(uint256)": "22558",
						"setXAndReceiveEther(uint256)": "44691",
						"value()": "2447",
						"x()": "2402"
					}
				},
				"methodIdentifiers": {
					"getX()": "5197c7aa",
					"getXAndValue()": "2b5d6086",
					"setX(uint256)": "4018d9aa",
					"setXAndReceiveEther(uint256)": "c9c4e00f",
					"value()": "3fa4f245",
					"x()": "0c55699c"
				}
			},
			"storageLayout": {
				"storage": [
					{
						"astId": 3,
						"contract": "C2E_learning/040_call_other_contracts.sol:MyTargetContract",
						"label": "x",
						"offset": 0,
						"slot": "0",
						"type": "t_uint256"
					},
					{
						"astId": 5,
						"contract": "C2E_learning/040_call_other_contracts.sol:MyTargetContract",
						"label": "value",
						"offset": 0,
						"slot": "1",
						"type": "t_uint256"
					}
				],
				"types": {
					"t_uint256": {
						"encoding": "inplace",
						"label": "uint256",
						"numberOfBytes": "32"
					}
				}
			},
			"userdoc": {
				"kind": "user",
				"methods": {},
				"version": 1
			}
		}
	}
}