{
	"C2E_learning/040_call_other_contracts.sol": {
		"Caller": {
			"abi": [
				{
					"inputs": [
						{
							"internalType": "address",
							"name": "_test",
							"type": "address"
						}
					],
					"name": "getX",
					"outputs": [
						{
							"internalType": "uint256",
							"name": "x",
							"type": "uint256"
						}
					],
					"stateMutability": "view",
					"type": "function"
				},
				{
					"inputs": [
						{
							"internalType": "address",
							"name": "_test",
							"type": "address"
						}
					],
					"name": "getXandValue",
					"outputs": [
						{
							"internalType": "uint256",
							"name": "x",
							"type": "uint256"
						},
						{
							"internalType": "uint256",
							"name": "value",
							"type": "uint256"
						}
					],
					"stateMutability": "view",
					"type": "function"
				},
				{
					"inputs": [
						{
							"internalType": "contract TestContract",
							"name": "_test",
							"type": "address"
						},
						{
							"internalType": "uint256",
							"name": "_x",
							"type": "uint256"
						}
					],
					"name": "setX",
					"outputs": [],
					"stateMutability": "nonpayable",
					"type": "function"
				},
				{
					"inputs": [
						{
							"internalType": "contract TestContract",
							"name": "_test",
							"type": "address"
						},
						{
							"internalType": "uint256",
							"name": "_x",
							"type": "uint256"
						}
					],
					"name": "setXandSendEther",
					"outputs": [],
					"stateMutability": "payable",
					"type": "function"
				}
			],
			"devdoc": {
				"kind": "dev",
				"methods": {},
				"version": 1
			},
			"evm": {
				"assembly": "    /* \"C2E_learning/040_call_other_contracts.sol\":1266:1786  contract Caller {... */\n  mstore(0x40, 0x80)\n  callvalue\n  dup1\n  iszero\n  tag_1\n  jumpi\n  revert(0x00, 0x00)\ntag_1:\n  pop\n  dataSize(sub_0)\n  dup1\n  dataOffset(sub_0)\n  0x00\n  codecopy\n  0x00\n  return\nstop\n\nsub_0: assembly {\n        /* \"C2E_learning/040_call_other_contracts.sol\":1266:1786  contract Caller {... */\n      mstore(0x40, 0x80)\n      jumpi(tag_1, lt(calldatasize, 0x04))\n      shr(0xe0, calldataload(0x00))\n      dup1\n      0x37e2621b\n      eq\n      tag_2\n      jumpi\n      dup1\n      0x4a2ad99f\n      eq\n      tag_3\n      jumpi\n      dup1\n      0x7c94c8ca\n      eq\n      tag_4\n      jumpi\n      dup1\n      0xd44abc42\n      eq\n      tag_5\n      jumpi\n    tag_1:\n      revert(0x00, 0x00)\n        /* \"C2E_learning/040_call_other_contracts.sol\":1626:1784  function getXandValue(... */\n    tag_2:\n      callvalue\n      dup1\n      iszero\n      tag_6\n      jumpi\n      revert(0x00, 0x00)\n    tag_6:\n      pop\n      tag_7\n      0x04\n      dup1\n      calldatasize\n      sub\n      dup2\n      add\n      swap1\n      tag_8\n      swap2\n      swap1\n      tag_9\n      jump\t// in\n    tag_8:\n      tag_10\n      jump\t// in\n    tag_7:\n      mload(0x40)\n      tag_11\n      swap3\n      swap2\n      swap1\n      tag_12\n      jump\t// in\n    tag_11:\n      mload(0x40)\n      dup1\n      swap2\n      sub\n      swap1\n      return\n        /* \"C2E_learning/040_call_other_contracts.sol\":1288:1371  function setX(TestContract _test, uint _x) external {... */\n    tag_3:\n      callvalue\n      dup1\n      iszero\n      tag_13\n      jumpi\n      revert(0x00, 0x00)\n    tag_13:\n      pop\n      tag_14\n      0x04\n      dup1\n      calldatasize\n      sub\n      dup2\n      add\n      swap1\n      tag_15\n      swap2\n      swap1\n      tag_16\n      jump\t// in\n    tag_15:\n      tag_17\n      jump\t// in\n    tag_14:\n      stop\n        /* \"C2E_learning/040_call_other_contracts.sol\":1376:1483  function getX(address _test) external view returns (uint x) {... */\n    tag_4:\n      callvalue\n      dup1\n      iszero\n      tag_18\n      jumpi\n      revert(0x00, 0x00)\n    tag_18:\n      pop\n      tag_19\n      0x04\n      dup1\n      calldatasize\n      sub\n      dup2\n      add\n      swap1\n      tag_20\n      swap2\n      swap1\n      tag_9\n      jump\t// in\n    tag_20:\n      tag_21\n      jump\t// in\n    tag_19:\n      mload(0x40)\n      tag_22\n      swap2\n      swap1\n      tag_23\n      jump\t// in\n    tag_22:\n      mload(0x40)\n      dup1\n      swap2\n      sub\n      swap1\n      return\n        /* \"C2E_learning/040_call_other_contracts.sol\":1488:1621  function setXandSendEther(TestContract _test, uint _x) external payable {... */\n    tag_5:\n      tag_24\n      0x04\n      dup1\n      calldatasize\n      sub\n      dup2\n      add\n      swap1\n      tag_25\n      swap2\n      swap1\n      tag_16\n      jump\t// in\n    tag_25:\n      tag_26\n      jump\t// in\n    tag_24:\n      stop\n        /* \"C2E_learning/040_call_other_contracts.sol\":1626:1784  function getXandValue(... */\n    tag_10:\n        /* \"C2E_learning/040_call_other_contracts.sol\":1700:1706  uint x */\n      0x00\n        /* \"C2E_learning/040_call_other_contracts.sol\":1708:1718  uint value */\n      0x00\n        /* \"C2E_learning/040_call_other_contracts.sol\":1756:1761  _test */\n      dup3\n        /* \"C2E_learning/040_call_other_contracts.sol\":1743:1775  TestContract(_test).getXandValue */\n      0xffffffffffffffffffffffffffffffffffffffff\n      and\n      0xd6c7a3be\n        /* \"C2E_learning/040_call_other_contracts.sol\":1743:1777  TestContract(_test).getXandValue() */\n      mload(0x40)\n      dup2\n      0xffffffff\n      and\n      0xe0\n      shl\n      dup2\n      mstore\n      0x04\n      add\n      0x40\n      dup1\n      mload\n      dup1\n      dup4\n      sub\n      dup2\n      dup7\n      gas\n      staticcall\n      iszero\n      dup1\n      iszero\n      tag_29\n      jumpi\n      returndatacopy(0x00, 0x00, returndatasize)\n      revert(0x00, returndatasize)\n    tag_29:\n      pop\n      pop\n      pop\n      pop\n      mload(0x40)\n      returndatasize\n      not(0x1f)\n      0x1f\n      dup3\n      add\n      and\n      dup3\n      add\n      dup1\n      0x40\n      mstore\n      pop\n      dup2\n      add\n      swap1\n      tag_30\n      swap2\n      swap1\n      tag_31\n      jump\t// in\n    tag_30:\n        /* \"C2E_learning/040_call_other_contracts.sol\":1730:1777  (x, value) = TestContract(_test).getXandValue() */\n      dup1\n      swap3\n      pop\n      dup2\n      swap4\n      pop\n      pop\n      pop\n        /* \"C2E_learning/040_call_other_contracts.sol\":1626:1784  function getXandValue(... */\n      swap2\n      pop\n      swap2\n      jump\t// out\n        /* \"C2E_learning/040_call_other_contracts.sol\":1288:1371  function setX(TestContract _test, uint _x) external {... */\n    tag_17:\n        /* \"C2E_learning/040_call_other_contracts.sol\":1350:1355  _test */\n      dup2\n        /* \"C2E_learning/040_call_other_contracts.sol\":1350:1360  _test.setX */\n      0xffffffffffffffffffffffffffffffffffffffff\n      and\n      0x4018d9aa\n        /* \"C2E_learning/040_call_other_contracts.sol\":1361:1363  _x */\n      dup3\n        /* \"C2E_learning/040_call_other_contracts.sol\":1350:1364  _test.setX(_x) */\n      mload(0x40)\n      dup3\n      0xffffffff\n      and\n      0xe0\n      shl\n      dup2\n      mstore\n      0x04\n      add\n      tag_33\n      swap2\n      swap1\n      tag_23\n      jump\t// in\n    tag_33:\n      0x20\n      mload(0x40)\n      dup1\n      dup4\n      sub\n      dup2\n      0x00\n      dup8\n      gas\n      call\n      iszero\n      dup1\n      iszero\n      tag_35\n      jumpi\n      returndatacopy(0x00, 0x00, returndatasize)\n      revert(0x00, returndatasize)\n    tag_35:\n      pop\n      pop\n      pop\n      pop\n      mload(0x40)\n      returndatasize\n      not(0x1f)\n      0x1f\n      dup3\n      add\n      and\n      dup3\n      add\n      dup1\n      0x40\n      mstore\n      pop\n      dup2\n      add\n      swap1\n      tag_36\n      swap2\n      swap1\n      tag_37\n      jump\t// in\n    tag_36:\n      pop\n        /* \"C2E_learning/040_call_other_contracts.sol\":1288:1371  function setX(TestContract _test, uint _x) external {... */\n      pop\n      pop\n      jump\t// out\n        /* \"C2E_learning/040_call_other_contracts.sol\":1376:1483  function getX(address _test) external view returns (uint x) {... */\n    tag_21:\n        /* \"C2E_learning/040_call_other_contracts.sol\":1428:1434  uint x */\n      0x00\n        /* \"C2E_learning/040_call_other_contracts.sol\":1463:1468  _test */\n      dup2\n        /* \"C2E_learning/040_call_other_contracts.sol\":1450:1474  TestContract(_test).getX */\n      0xffffffffffffffffffffffffffffffffffffffff\n      and\n      0x5197c7aa\n        /* \"C2E_learning/040_call_other_contracts.sol\":1450:1476  TestContract(_test).getX() */\n      mload(0x40)\n      dup2\n      0xffffffff\n      and\n      0xe0\n      shl\n      dup2\n      mstore\n      0x04\n      add\n      0x20\n      mload(0x40)\n      dup1\n      dup4\n      sub\n      dup2\n      dup7\n      gas\n      staticcall\n      iszero\n      dup1\n      iszero\n      tag_40\n      jumpi\n      returndatacopy(0x00, 0x00, returndatasize)\n      revert(0x00, returndatasize)\n    tag_40:\n      pop\n      pop\n      pop\n      pop\n      mload(0x40)\n      returndatasize\n      not(0x1f)\n      0x1f\n      dup3\n      add\n      and\n      dup3\n      add\n      dup1\n      0x40\n      mstore\n      pop\n      dup2\n      add\n      swap1\n      tag_41\n      swap2\n      swap1\n      tag_37\n      jump\t// in\n    tag_41:\n        /* \"C2E_learning/040_call_other_contracts.sol\":1446:1476  x = TestContract(_test).getX() */\n      swap1\n      pop\n        /* \"C2E_learning/040_call_other_contracts.sol\":1376:1483  function getX(address _test) external view returns (uint x) {... */\n      swap2\n      swap1\n      pop\n      jump\t// out\n        /* \"C2E_learning/040_call_other_contracts.sol\":1488:1621  function setXandSendEther(TestContract _test, uint _x) external payable {... */\n    tag_26:\n        /* \"C2E_learning/040_call_other_contracts.sol\":1570:1575  _test */\n      dup2\n        /* \"C2E_learning/040_call_other_contracts.sol\":1570:1592  _test.setXandSendEther */\n      0xffffffffffffffffffffffffffffffffffffffff\n      and\n      0xcdc23076\n        /* \"C2E_learning/040_call_other_contracts.sol\":1600:1609  msg.value */\n      callvalue\n        /* \"C2E_learning/040_call_other_contracts.sol\":1611:1613  _x */\n      dup4\n        /* \"C2E_learning/040_call_other_contracts.sol\":1570:1614  _test.setXandSendEther{value: msg.value}(_x) */\n      mload(0x40)\n      dup4\n      0xffffffff\n      and\n      0xe0\n      shl\n      dup2\n      mstore\n      0x04\n      add\n      tag_43\n      swap2\n      swap1\n      tag_23\n      jump\t// in\n    tag_43:\n      0x00\n      mload(0x40)\n      dup1\n      dup4\n      sub\n      dup2\n      dup6\n      dup9\n      dup1\n      extcodesize\n      iszero\n      dup1\n      iszero\n      tag_44\n      jumpi\n      revert(0x00, 0x00)\n    tag_44:\n      pop\n      gas\n      call\n      iszero\n      dup1\n      iszero\n      tag_46\n      jumpi\n      returndatacopy(0x00, 0x00, returndatasize)\n      revert(0x00, returndatasize)\n    tag_46:\n      pop\n      pop\n      pop\n      pop\n      pop\n        /* \"C2E_learning/040_call_other_contracts.sol\":1488:1621  function setXandSendEther(TestContract _test, uint _x) external payable {... */\n      pop\n      pop\n      jump\t// out\n        /* \"#utility.yul\":88:205   */\n    tag_48:\n        /* \"#utility.yul\":197:198   */\n      0x00\n        /* \"#utility.yul\":194:195   */\n      0x00\n        /* \"#utility.yul\":187:199   */\n      revert\n        /* \"#utility.yul\":334:460   */\n    tag_50:\n        /* \"#utility.yul\":371:378   */\n      0x00\n        /* \"#utility.yul\":411:453   */\n      0xffffffffffffffffffffffffffffffffffffffff\n        /* \"#utility.yul\":404:409   */\n      dup3\n        /* \"#utility.yul\":400:454   */\n      and\n        /* \"#utility.yul\":389:454   */\n      swap1\n      pop\n        /* \"#utility.yul\":334:460   */\n      swap2\n      swap1\n      pop\n      jump\t// out\n        /* \"#utility.yul\":466:562   */\n    tag_51:\n        /* \"#utility.yul\":503:510   */\n      0x00\n        /* \"#utility.yul\":532:556   */\n      tag_68\n        /* \"#utility.yul\":550:555   */\n      dup3\n        /* \"#utility.yul\":532:556   */\n      tag_50\n      jump\t// in\n    tag_68:\n        /* \"#utility.yul\":521:556   */\n      swap1\n      pop\n        /* \"#utility.yul\":466:562   */\n      swap2\n      swap1\n      pop\n      jump\t// out\n        /* \"#utility.yul\":568:690   */\n    tag_52:\n        /* \"#utility.yul\":641:665   */\n      tag_70\n        /* \"#utility.yul\":659:664   */\n      dup2\n        /* \"#utility.yul\":641:665   */\n      tag_51\n      jump\t// in\n    tag_70:\n        /* \"#utility.yul\":634:639   */\n      dup2\n        /* \"#utility.yul\":631:666   */\n      eq\n        /* \"#utility.yul\":621:684   */\n      tag_71\n      jumpi\n        /* \"#utility.yul\":680:681   */\n      0x00\n        /* \"#utility.yul\":677:678   */\n      0x00\n        /* \"#utility.yul\":670:682   */\n      revert\n        /* \"#utility.yul\":621:684   */\n    tag_71:\n        /* \"#utility.yul\":568:690   */\n      pop\n      jump\t// out\n        /* \"#utility.yul\":696:835   */\n    tag_53:\n        /* \"#utility.yul\":742:747   */\n      0x00\n        /* \"#utility.yul\":780:786   */\n      dup2\n        /* \"#utility.yul\":767:787   */\n      calldataload\n        /* \"#utility.yul\":758:787   */\n      swap1\n      pop\n        /* \"#utility.yul\":796:829   */\n      tag_73\n        /* \"#utility.yul\":823:828   */\n      dup2\n        /* \"#utility.yul\":796:829   */\n      tag_52\n      jump\t// in\n    tag_73:\n        /* \"#utility.yul\":696:835   */\n      swap3\n      swap2\n      pop\n      pop\n      jump\t// out\n        /* \"#utility.yul\":841:1170   */\n    tag_9:\n        /* \"#utility.yul\":900:906   */\n      0x00\n        /* \"#utility.yul\":949:951   */\n      0x20\n        /* \"#utility.yul\":937:946   */\n      dup3\n        /* \"#utility.yul\":928:935   */\n      dup5\n        /* \"#utility.yul\":924:947   */\n      sub\n        /* \"#utility.yul\":920:952   */\n      slt\n        /* \"#utility.yul\":917:1036   */\n      iszero\n      tag_75\n      jumpi\n        /* \"#utility.yul\":955:1034   */\n      tag_76\n      tag_48\n      jump\t// in\n    tag_76:\n        /* \"#utility.yul\":917:1036   */\n    tag_75:\n        /* \"#utility.yul\":1075:1076   */\n      0x00\n        /* \"#utility.yul\":1100:1153   */\n      tag_77\n        /* \"#utility.yul\":1145:1152   */\n      dup5\n        /* \"#utility.yul\":1136:1142   */\n      dup3\n        /* \"#utility.yul\":1125:1134   */\n      dup6\n        /* \"#utility.yul\":1121:1143   */\n      add\n        /* \"#utility.yul\":1100:1153   */\n      tag_53\n      jump\t// in\n    tag_77:\n        /* \"#utility.yul\":1090:1153   */\n      swap2\n      pop\n        /* \"#utility.yul\":1046:1163   */\n      pop\n        /* \"#utility.yul\":841:1170   */\n      swap3\n      swap2\n      pop\n      pop\n      jump\t// out\n        /* \"#utility.yul\":1176:1253   */\n    tag_54:\n        /* \"#utility.yul\":1213:1220   */\n      0x00\n        /* \"#utility.yul\":1242:1247   */\n      dup2\n        /* \"#utility.yul\":1231:1247   */\n      swap1\n      pop\n        /* \"#utility.yul\":1176:1253   */\n      swap2\n      swap1\n      pop\n      jump\t// out\n        /* \"#utility.yul\":1259:1377   */\n    tag_55:\n        /* \"#utility.yul\":1346:1370   */\n      tag_80\n        /* \"#utility.yul\":1364:1369   */\n      dup2\n        /* \"#utility.yul\":1346:1370   */\n      tag_54\n      jump\t// in\n    tag_80:\n        /* \"#utility.yul\":1341:1344   */\n      dup3\n        /* \"#utility.yul\":1334:1371   */\n      mstore\n        /* \"#utility.yul\":1259:1377   */\n      pop\n      pop\n      jump\t// out\n        /* \"#utility.yul\":1383:1715   */\n    tag_12:\n        /* \"#utility.yul\":1504:1508   */\n      0x00\n        /* \"#utility.yul\":1542:1544   */\n      0x40\n        /* \"#utility.yul\":1531:1540   */\n      dup3\n        /* \"#utility.yul\":1527:1545   */\n      add\n        /* \"#utility.yul\":1519:1545   */\n      swap1\n      pop\n        /* \"#utility.yul\":1555:1626   */\n      tag_82\n        /* \"#utility.yul\":1623:1624   */\n      0x00\n        /* \"#utility.yul\":1612:1621   */\n      dup4\n        /* \"#utility.yul\":1608:1625   */\n      add\n        /* \"#utility.yul\":1599:1605   */\n      dup6\n        /* \"#utility.yul\":1555:1626   */\n      tag_55\n      jump\t// in\n    tag_82:\n        /* \"#utility.yul\":1636:1708   */\n      tag_83\n        /* \"#utility.yul\":1704:1706   */\n      0x20\n        /* \"#utility.yul\":1693:1702   */\n      dup4\n        /* \"#utility.yul\":1689:1707   */\n      add\n        /* \"#utility.yul\":1680:1686   */\n      dup5\n        /* \"#utility.yul\":1636:1708   */\n      tag_55\n      jump\t// in\n    tag_83:\n        /* \"#utility.yul\":1383:1715   */\n      swap4\n      swap3\n      pop\n      pop\n      pop\n      jump\t// out\n        /* \"#utility.yul\":1721:1837   */\n    tag_56:\n        /* \"#utility.yul\":1778:1785   */\n      0x00\n        /* \"#utility.yul\":1807:1831   */\n      tag_85\n        /* \"#utility.yul\":1825:1830   */\n      dup3\n        /* \"#utility.yul\":1807:1831   */\n      tag_51\n      jump\t// in\n    tag_85:\n        /* \"#utility.yul\":1796:1831   */\n      swap1\n      pop\n        /* \"#utility.yul\":1721:1837   */\n      swap2\n      swap1\n      pop\n      jump\t// out\n        /* \"#utility.yul\":1843:2005   */\n    tag_57:\n        /* \"#utility.yul\":1936:1980   */\n      tag_87\n        /* \"#utility.yul\":1974:1979   */\n      dup2\n        /* \"#utility.yul\":1936:1980   */\n      tag_56\n      jump\t// in\n    tag_87:\n        /* \"#utility.yul\":1929:1934   */\n      dup2\n        /* \"#utility.yul\":1926:1981   */\n      eq\n        /* \"#utility.yul\":1916:1999   */\n      tag_88\n      jumpi\n        /* \"#utility.yul\":1995:1996   */\n      0x00\n        /* \"#utility.yul\":1992:1993   */\n      0x00\n        /* \"#utility.yul\":1985:1997   */\n      revert\n        /* \"#utility.yul\":1916:1999   */\n    tag_88:\n        /* \"#utility.yul\":1843:2005   */\n      pop\n      jump\t// out\n        /* \"#utility.yul\":2011:2190   */\n    tag_58:\n        /* \"#utility.yul\":2077:2082   */\n      0x00\n        /* \"#utility.yul\":2115:2121   */\n      dup2\n        /* \"#utility.yul\":2102:2122   */\n      calldataload\n        /* \"#utility.yul\":2093:2122   */\n      swap1\n      pop\n        /* \"#utility.yul\":2131:2184   */\n      tag_90\n        /* \"#utility.yul\":2178:2183   */\n      dup2\n        /* \"#utility.yul\":2131:2184   */\n      tag_57\n      jump\t// in\n    tag_90:\n        /* \"#utility.yul\":2011:2190   */\n      swap3\n      swap2\n      pop\n      pop\n      jump\t// out\n        /* \"#utility.yul\":2196:2318   */\n    tag_59:\n        /* \"#utility.yul\":2269:2293   */\n      tag_92\n        /* \"#utility.yul\":2287:2292   */\n      dup2\n        /* \"#utility.yul\":2269:2293   */\n      tag_54\n      jump\t// in\n    tag_92:\n        /* \"#utility.yul\":2262:2267   */\n      dup2\n        /* \"#utility.yul\":2259:2294   */\n      eq\n        /* \"#utility.yul\":2249:2312   */\n      tag_93\n      jumpi\n        /* \"#utility.yul\":2308:2309   */\n      0x00\n        /* \"#utility.yul\":2305:2306   */\n      0x00\n        /* \"#utility.yul\":2298:2310   */\n      revert\n        /* \"#utility.yul\":2249:2312   */\n    tag_93:\n        /* \"#utility.yul\":2196:2318   */\n      pop\n      jump\t// out\n        /* \"#utility.yul\":2324:2463   */\n    tag_60:\n        /* \"#utility.yul\":2370:2375   */\n      0x00\n        /* \"#utility.yul\":2408:2414   */\n      dup2\n        /* \"#utility.yul\":2395:2415   */\n      calldataload\n        /* \"#utility.yul\":2386:2415   */\n      swap1\n      pop\n        /* \"#utility.yul\":2424:2457   */\n      tag_95\n        /* \"#utility.yul\":2451:2456   */\n      dup2\n        /* \"#utility.yul\":2424:2457   */\n      tag_59\n      jump\t// in\n    tag_95:\n        /* \"#utility.yul\":2324:2463   */\n      swap3\n      swap2\n      pop\n      pop\n      jump\t// out\n        /* \"#utility.yul\":2469:2983   */\n    tag_16:\n        /* \"#utility.yul\":2557:2563   */\n      0x00\n        /* \"#utility.yul\":2565:2571   */\n      0x00\n        /* \"#utility.yul\":2614:2616   */\n      0x40\n        /* \"#utility.yul\":2602:2611   */\n      dup4\n        /* \"#utility.yul\":2593:2600   */\n      dup6\n        /* \"#utility.yul\":2589:2612   */\n      sub\n        /* \"#utility.yul\":2585:2617   */\n      slt\n        /* \"#utility.yul\":2582:2701   */\n      iszero\n      tag_97\n      jumpi\n        /* \"#utility.yul\":2620:2699   */\n      tag_98\n      tag_48\n      jump\t// in\n    tag_98:\n        /* \"#utility.yul\":2582:2701   */\n    tag_97:\n        /* \"#utility.yul\":2740:2741   */\n      0x00\n        /* \"#utility.yul\":2765:2838   */\n      tag_99\n        /* \"#utility.yul\":2830:2837   */\n      dup6\n        /* \"#utility.yul\":2821:2827   */\n      dup3\n        /* \"#utility.yul\":2810:2819   */\n      dup7\n        /* \"#utility.yul\":2806:2828   */\n      add\n        /* \"#utility.yul\":2765:2838   */\n      tag_58\n      jump\t// in\n    tag_99:\n        /* \"#utility.yul\":2755:2838   */\n      swap3\n      pop\n        /* \"#utility.yul\":2711:2848   */\n      pop\n        /* \"#utility.yul\":2887:2889   */\n      0x20\n        /* \"#utility.yul\":2913:2966   */\n      tag_100\n        /* \"#utility.yul\":2958:2965   */\n      dup6\n        /* \"#utility.yul\":2949:2955   */\n      dup3\n        /* \"#utility.yul\":2938:2947   */\n      dup7\n        /* \"#utility.yul\":2934:2956   */\n      add\n        /* \"#utility.yul\":2913:2966   */\n      tag_60\n      jump\t// in\n    tag_100:\n        /* \"#utility.yul\":2903:2966   */\n      swap2\n      pop\n        /* \"#utility.yul\":2858:2976   */\n      pop\n        /* \"#utility.yul\":2469:2983   */\n      swap3\n      pop\n      swap3\n      swap1\n      pop\n      jump\t// out\n        /* \"#utility.yul\":2989:3211   */\n    tag_23:\n        /* \"#utility.yul\":3082:3086   */\n      0x00\n        /* \"#utility.yul\":3120:3122   */\n      0x20\n        /* \"#utility.yul\":3109:3118   */\n      dup3\n        /* \"#utility.yul\":3105:3123   */\n      add\n        /* \"#utility.yul\":3097:3123   */\n      swap1\n      pop\n        /* \"#utility.yul\":3133:3204   */\n      tag_102\n        /* \"#utility.yul\":3201:3202   */\n      0x00\n        /* \"#utility.yul\":3190:3199   */\n      dup4\n        /* \"#utility.yul\":3186:3203   */\n      add\n        /* \"#utility.yul\":3177:3183   */\n      dup5\n        /* \"#utility.yul\":3133:3204   */\n      tag_55\n      jump\t// in\n    tag_102:\n        /* \"#utility.yul\":2989:3211   */\n      swap3\n      swap2\n      pop\n      pop\n      jump\t// out\n        /* \"#utility.yul\":3217:3360   */\n    tag_61:\n        /* \"#utility.yul\":3274:3279   */\n      0x00\n        /* \"#utility.yul\":3305:3311   */\n      dup2\n        /* \"#utility.yul\":3299:3312   */\n      mload\n        /* \"#utility.yul\":3290:3312   */\n      swap1\n      pop\n        /* \"#utility.yul\":3321:3354   */\n      tag_104\n        /* \"#utility.yul\":3348:3353   */\n      dup2\n        /* \"#utility.yul\":3321:3354   */\n      tag_59\n      jump\t// in\n    tag_104:\n        /* \"#utility.yul\":3217:3360   */\n      swap3\n      swap2\n      pop\n      pop\n      jump\t// out\n        /* \"#utility.yul\":3366:3873   */\n    tag_31:\n        /* \"#utility.yul\":3445:3451   */\n      0x00\n        /* \"#utility.yul\":3453:3459   */\n      0x00\n        /* \"#utility.yul\":3502:3504   */\n      0x40\n        /* \"#utility.yul\":3490:3499   */\n      dup4\n        /* \"#utility.yul\":3481:3488   */\n      dup6\n        /* \"#utility.yul\":3477:3500   */\n      sub\n        /* \"#utility.yul\":3473:3505   */\n      slt\n        /* \"#utility.yul\":3470:3589   */\n      iszero\n      tag_106\n      jumpi\n        /* \"#utility.yul\":3508:3587   */\n      tag_107\n      tag_48\n      jump\t// in\n    tag_107:\n        /* \"#utility.yul\":3470:3589   */\n    tag_106:\n        /* \"#utility.yul\":3628:3629   */\n      0x00\n        /* \"#utility.yul\":3653:3717   */\n      tag_108\n        /* \"#utility.yul\":3709:3716   */\n      dup6\n        /* \"#utility.yul\":3700:3706   */\n      dup3\n        /* \"#utility.yul\":3689:3698   */\n      dup7\n        /* \"#utility.yul\":3685:3707   */\n      add\n        /* \"#utility.yul\":3653:3717   */\n      tag_61\n      jump\t// in\n    tag_108:\n        /* \"#utility.yul\":3643:3717   */\n      swap3\n      pop\n        /* \"#utility.yul\":3599:3727   */\n      pop\n        /* \"#utility.yul\":3766:3768   */\n      0x20\n        /* \"#utility.yul\":3792:3856   */\n      tag_109\n        /* \"#utility.yul\":3848:3855   */\n      dup6\n        /* \"#utility.yul\":3839:3845   */\n      dup3\n        /* \"#utility.yul\":3828:3837   */\n      dup7\n        /* \"#utility.yul\":3824:3846   */\n      add\n        /* \"#utility.yul\":3792:3856   */\n      tag_61\n      jump\t// in\n    tag_109:\n        /* \"#utility.yul\":3782:3856   */\n      swap2\n      pop\n        /* \"#utility.yul\":3737:3866   */\n      pop\n        /* \"#utility.yul\":3366:3873   */\n      swap3\n      pop\n      swap3\n      swap1\n      pop\n      jump\t// out\n        /* \"#utility.yul\":3879:4230   */\n    tag_37:\n        /* \"#utility.yul\":3949:3955   */\n      0x00\n        /* \"#utility.yul\":3998:4000   */\n      0x20\n        /* \"#utility.yul\":3986:3995   */\n      dup3\n        /* \"#utility.yul\":3977:3984   */\n      dup5\n        /* \"#utility.yul\":3973:3996   */\n      sub\n        /* \"#utility.yul\":3969:4001   */\n      slt\n        /* \"#utility.yul\":3966:4085   */\n      iszero\n      tag_111\n      jumpi\n        /* \"#utility.yul\":4004:4083   */\n      tag_112\n      tag_48\n      jump\t// in\n    tag_112:\n        /* \"#utility.yul\":3966:4085   */\n    tag_111:\n        /* \"#utility.yul\":4124:4125   */\n      0x00\n        /* \"#utility.yul\":4149:4213   */\n      tag_113\n        /* \"#utility.yul\":4205:4212   */\n      dup5\n        /* \"#utility.yul\":4196:4202   */\n      dup3\n        /* \"#utility.yul\":4185:4194   */\n      dup6\n        /* \"#utility.yul\":4181:4203   */\n      add\n        /* \"#utility.yul\":4149:4213   */\n      tag_61\n      jump\t// in\n    tag_113:\n        /* \"#utility.yul\":4139:4213   */\n      swap2\n      pop\n        /* \"#utility.yul\":4095:4223   */\n      pop\n        /* \"#utility.yul\":3879:4230   */\n      swap3\n      swap2\n      pop\n      pop\n      jump\t// out\n\n    auxdata: 0xa26469706673582212204fdd908dccc313dd228e5bc2fa38f749fb1185cc5d1c07f007c104537abf17d164736f6c634300081e0033\n}\n",
				"bytecode": {
					"linkReferences": {},
					"object": "6080604052348015600e575f5ffd5b506105108061001c5f395ff3fe60806040526004361061003e575f3560e01c806337e2621b146100425780634a2ad99f1461007f5780637c94c8ca146100a7578063d44abc42146100e3575b5f5ffd5b34801561004d575f5ffd5b5061006860048036038101906100639190610337565b6100ff565b60405161007692919061037a565b60405180910390f35b34801561008a575f5ffd5b506100a560048036038101906100a09190610406565b61017a565b005b3480156100b2575f5ffd5b506100cd60048036038101906100c89190610337565b6101f8565b6040516100da9190610444565b60405180910390f35b6100fd60048036038101906100f89190610406565b61026d565b005b5f5f8273ffffffffffffffffffffffffffffffffffffffff1663d6c7a3be6040518163ffffffff1660e01b81526004016040805180830381865afa158015610149573d5f5f3e3d5ffd5b505050506040513d601f19601f8201168201806040525081019061016d9190610471565b8092508193505050915091565b8173ffffffffffffffffffffffffffffffffffffffff16634018d9aa826040518263ffffffff1660e01b81526004016101b39190610444565b6020604051808303815f875af11580156101cf573d5f5f3e3d5ffd5b505050506040513d601f19601f820116820180604052508101906101f391906104af565b505050565b5f8173ffffffffffffffffffffffffffffffffffffffff16635197c7aa6040518163ffffffff1660e01b8152600401602060405180830381865afa158015610242573d5f5f3e3d5ffd5b505050506040513d601f19601f8201168201806040525081019061026691906104af565b9050919050565b8173ffffffffffffffffffffffffffffffffffffffff1663cdc2307634836040518363ffffffff1660e01b81526004016102a79190610444565b5f604051808303818588803b1580156102be575f5ffd5b505af11580156102d0573d5f5f3e3d5ffd5b50505050505050565b5f5ffd5b5f73ffffffffffffffffffffffffffffffffffffffff82169050919050565b5f610306826102dd565b9050919050565b610316816102fc565b8114610320575f5ffd5b50565b5f813590506103318161030d565b92915050565b5f6020828403121561034c5761034b6102d9565b5b5f61035984828501610323565b91505092915050565b5f819050919050565b61037481610362565b82525050565b5f60408201905061038d5f83018561036b565b61039a602083018461036b565b9392505050565b5f6103ab826102fc565b9050919050565b6103bb816103a1565b81146103c5575f5ffd5b50565b5f813590506103d6816103b2565b92915050565b6103e581610362565b81146103ef575f5ffd5b50565b5f81359050610400816103dc565b92915050565b5f5f6040838503121561041c5761041b6102d9565b5b5f610429858286016103c8565b925050602061043a858286016103f2565b9150509250929050565b5f6020820190506104575f83018461036b565b92915050565b5f8151905061046b816103dc565b92915050565b5f5f60408385031215610487576104866102d9565b5b5f6104948582860161045d565b92505060206104a58582860161045d565b9150509250929050565b5f602082840312156104c4576104c36102d9565b5b5f6104d18482850161045d565b9150509291505056fea26469706673582212204fdd908dccc313dd228e5bc2fa38f749fb1185cc5d1c07f007c104537abf17d164736f6c634300081e0033",
					"opcodes": "PUSH1 0x80 PUSH1 0x40 MSTORE CALLVALUE DUP1 ISZERO PUSH1 0xE JUMPI PUSH0 PUSH0 REVERT JUMPDEST POP PUSH2 0x510 DUP1 PUSH2 0x1C PUSH0 CODECOPY PUSH0 RETURN INVALID PUSH1 0x80 PUSH1 0x40 MSTORE PUSH1 0x4 CALLDATASIZE LT PUSH2 0x3E JUMPI PUSH0 CALLDATALOAD PUSH1 0xE0 SHR DUP1 PUSH4 0x37E2621B EQ PUSH2 0x42 JUMPI DUP1 PUSH4 0x4A2AD99F EQ PUSH2 0x7F JUMPI DUP1 PUSH4 0x7C94C8CA EQ PUSH2 0xA7 JUMPI DUP1 PUSH4 0xD44ABC42 EQ PUSH2 0xE3 JUMPI JUMPDEST PUSH0 PUSH0 REVERT JUMPDEST CALLVALUE DUP1 ISZERO PUSH2 0x4D JUMPI PUSH0 PUSH0 REVERT JUMPDEST POP PUSH2 0x68 PUSH1 0x4 DUP1 CALLDATASIZE SUB DUP2 ADD SWAP1 PUSH2 0x63 SWAP2 SWAP1 PUSH2 0x337 JUMP JUMPDEST PUSH2 0xFF JUMP JUMPDEST PUSH1 0x40 MLOAD PUSH2 0x76 SWAP3 SWAP2 SWAP1 PUSH2 0x37A JUMP JUMPDEST PUSH1 0x40 MLOAD DUP1 SWAP2 SUB SWAP1 RETURN JUMPDEST CALLVALUE DUP1 ISZERO PUSH2 0x8A JUMPI PUSH0 PUSH0 REVERT JUMPDEST POP PUSH2 0xA5 PUSH1 0x4 DUP1 CALLDATASIZE SUB DUP2 ADD SWAP1 PUSH2 0xA0 SWAP2 SWAP1 PUSH2 0x406 JUMP JUMPDEST PUSH2 0x17A JUMP JUMPDEST STOP JUMPDEST CALLVALUE DUP1 ISZERO PUSH2 0xB2 JUMPI PUSH0 PUSH0 REVERT JUMPDEST POP PUSH2 0xCD PUSH1 0x4 DUP1 CALLDATASIZE SUB DUP2 ADD SWAP1 PUSH2 0xC8 SWAP2 SWAP1 PUSH2 0x337 JUMP JUMPDEST PUSH2 0x1F8 JUMP JUMPDEST PUSH1 0x40 MLOAD PUSH2 0xDA SWAP2 SWAP1 PUSH2 0x444 JUMP JUMPDEST PUSH1 0x40 MLOAD DUP1 SWAP2 SUB SWAP1 RETURN JUMPDEST PUSH2 0xFD PUSH1 0x4 DUP1 CALLDATASIZE SUB DUP2 ADD SWAP1 PUSH2 0xF8 SWAP2 SWAP1 PUSH2 0x406 JUMP JUMPDEST PUSH2 0x26D JUMP JUMPDEST STOP JUMPDEST PUSH0 PUSH0 DUP3 PUSH20 0xFFFFFFFFFFFFFFFFFFFFFFFFFFFFFFFFFFFFFFFF AND PUSH4 0xD6C7A3BE PUSH1 0x40 MLOAD DUP2 PUSH4 0xFFFFFFFF AND PUSH1 0xE0 SHL DUP2 MSTORE PUSH1 0x4 ADD PUSH1 0x40 DUP1 MLOAD DUP1 DUP4 SUB DUP2 DUP7 GAS STATICCALL ISZERO DUP1 ISZERO PUSH2 0x149 JUMPI RETURNDATASIZE PUSH0 PUSH0 RETURNDATACOPY RETURNDATASIZE PUSH0 REVERT JUMPDEST POP POP POP POP PUSH1 0x40 MLOAD RETURNDATASIZE PUSH1 0x1F NOT PUSH1 0x1F DUP3 ADD AND DUP3 ADD DUP1 PUSH1 0x40 MSTORE POP DUP2 ADD SWAP1 PUSH2 0x16D SWAP2 SWAP1 PUSH2 0x471 JUMP JUMPDEST DUP1 SWAP3 POP DUP2 SWAP4 POP POP POP SWAP2 POP SWAP2 JUMP JUMPDEST DUP2 PUSH20 0xFFFFFFFFFFFFFFFFFFFFFFFFFFFFFFFFFFFFFFFF AND PUSH4 0x4018D9AA DUP3 PUSH1 0x40 MLOAD DUP3 PUSH4 0xFFFFFFFF AND PUSH1 0xE0 SHL DUP2 MSTORE PUSH1 0x4 ADD PUSH2 0x1B3 SWAP2 SWAP1 PUSH2 0x444 JUMP JUMPDEST PUSH1 0x20 PUSH1 0x40 MLOAD DUP1 DUP4 SUB DUP2 PUSH0 DUP8 GAS CALL ISZERO DUP1 ISZERO PUSH2 0x1CF JUMPI RETURNDATASIZE PUSH0 PUSH0 RETURNDATACOPY RETURNDATASIZE PUSH0 REVERT JUMPDEST POP POP POP POP PUSH1 0x40 MLOAD RETURNDATASIZE PUSH1 0x1F NOT PUSH1 0x1F DUP3 ADD AND DUP3 ADD DUP1 PUSH1 0x40 MSTORE POP DUP2 ADD SWAP1 PUSH2 0x1F3 SWAP2 SWAP1 PUSH2 0x4AF JUMP JUMPDEST POP POP POP JUMP JUMPDEST PUSH0 DUP2 PUSH20 0xFFFFFFFFFFFFFFFFFFFFFFFFFFFFFFFFFFFFFFFF AND PUSH4 0x5197C7AA PUSH1 0x40 MLOAD DUP2 PUSH4 0xFFFFFFFF AND PUSH1 0xE0 SHL DUP2 MSTORE PUSH1 0x4 ADD PUSH1 0x20 PUSH1 0x40 MLOAD DUP1 DUP4 SUB DUP2 DUP7 GAS STATICCALL ISZERO DUP1 ISZERO PUSH2 0x242 JUMPI RETURNDATASIZE PUSH0 PUSH0 RETURNDATACOPY RETURNDATASIZE PUSH0 REVERT JUMPDEST POP POP POP POP PUSH1 0x40 MLOAD RETURNDATASIZE PUSH1 0x1F NOT PUSH1 0x1F DUP3 ADD AND DUP3 ADD DUP1 PUSH1 0x40 MSTORE POP DUP2 ADD SWAP1 PUSH2 0x266 SWAP2 SWAP1 PUSH2 0x4AF JUMP JUMPDEST SWAP1 POP SWAP2 SWAP1 POP JUMP JUMPDEST DUP2 PUSH20 0xFFFFFFFFFFFFFFFFFFFFFFFFFFFFFFFFFFFFFFFF AND PUSH4 0xCDC23076 CALLVALUE DUP4 PUSH1 0x40 MLOAD DUP4 PUSH4 0xFFFFFFFF AND PUSH1 0xE0 SHL DUP2 MSTORE PUSH1 0x4 ADD PUSH2 0x2A7 SWAP2 SWAP1 PUSH2 0x444 JUMP JUMPDEST PUSH0 PUSH1 0x40 MLOAD DUP1 DUP4 SUB DUP2 DUP6 DUP9 DUP1 EXTCODESIZE ISZERO DUP1 ISZERO PUSH2 0x2BE JUMPI PUSH0 PUSH0 REVERT JUMPDEST POP GAS CALL ISZERO DUP1 ISZERO PUSH2 0x2D0 JUMPI RETURNDATASIZE PUSH0 PUSH0 RETURNDATACOPY RETURNDATASIZE PUSH0 REVERT JUMPDEST POP POP POP POP POP POP POP JUMP JUMPDEST PUSH0 PUSH0 REVERT JUMPDEST PUSH0 PUSH20 0xFFFFFFFFFFFFFFFFFFFFFFFFFFFFFFFFFFFFFFFF DUP3 AND SWAP1 POP SWAP2 SWAP1 POP JUMP JUMPDEST PUSH0 PUSH2 0x306 DUP3 PUSH2 0x2DD JUMP JUMPDEST SWAP1 POP SWAP2 SWAP1 POP JUMP JUMPDEST PUSH2 0x316 DUP2 PUSH2 0x2FC JUMP JUMPDEST DUP2 EQ PUSH2 0x320 JUMPI PUSH0 PUSH0 REVERT JUMPDEST POP JUMP JUMPDEST PUSH0 DUP2 CALLDATALOAD SWAP1 POP PUSH2 0x331 DUP2 PUSH2 0x30D JUMP JUMPDEST SWAP3 SWAP2 POP POP JUMP JUMPDEST PUSH0 PUSH1 0x20 DUP3 DUP5 SUB SLT ISZERO PUSH2 0x34C JUMPI PUSH2 0x34B PUSH2 0x2D9 JUMP JUMPDEST JUMPDEST PUSH0 PUSH2 0x359 DUP5 DUP3 DUP6 ADD PUSH2 0x323 JUMP JUMPDEST SWAP2 POP POP SWAP3 SWAP2 POP POP JUMP JUMPDEST PUSH0 DUP2 SWAP1 POP SWAP2 SWAP1 POP JUMP JUMPDEST PUSH2 0x374 DUP2 PUSH2 0x362 JUMP JUMPDEST DUP3 MSTORE POP POP JUMP JUMPDEST PUSH0 PUSH1 0x40 DUP3 ADD SWAP1 POP PUSH2 0x38D PUSH0 DUP4 ADD DUP6 PUSH2 0x36B JUMP JUMPDEST PUSH2 0x39A PUSH1 0x20 DUP4 ADD DUP5 PUSH2 0x36B JUMP JUMPDEST SWAP4 SWAP3 POP POP POP JUMP JUMPDEST PUSH0 PUSH2 0x3AB DUP3 PUSH2 0x2FC JUMP JUMPDEST SWAP1 POP SWAP2 SWAP1 POP JUMP JUMPDEST PUSH2 0x3BB DUP2 PUSH2 0x3A1 JUMP JUMPDEST DUP2 EQ PUSH2 0x3C5 JUMPI PUSH0 PUSH0 REVERT JUMPDEST POP JUMP JUMPDEST PUSH0 DUP2 CALLDATALOAD SWAP1 POP PUSH2 0x3D6 DUP2 PUSH2 0x3B2 JUMP JUMPDEST SWAP3 SWAP2 POP POP JUMP JUMPDEST PUSH2 0x3E5 DUP2 PUSH2 0x362 JUMP JUMPDEST DUP2 EQ PUSH2 0x3EF JUMPI PUSH0 PUSH0 REVERT JUMPDEST POP JUMP JUMPDEST PUSH0 DUP2 CALLDATALOAD SWAP1 POP PUSH2 0x400 DUP2 PUSH2 0x3DC JUMP JUMPDEST SWAP3 SWAP2 POP POP JUMP JUMPDEST PUSH0 PUSH0 PUSH1 0x40 DUP4 DUP6 SUB SLT ISZERO PUSH2 0x41C JUMPI PUSH2 0x41B PUSH2 0x2D9 JUMP JUMPDEST JUMPDEST PUSH0 PUSH2 0x429 DUP6 DUP3 DUP7 ADD PUSH2 0x3C8 JUMP JUMPDEST SWAP3 POP POP PUSH1 0x20 PUSH2 0x43A DUP6 DUP3 DUP7 ADD PUSH2 0x3F2 JUMP JUMPDEST SWAP2 POP POP SWAP3 POP SWAP3 SWAP1 POP JUMP JUMPDEST PUSH0 PUSH1 0x20 DUP3 ADD SWAP1 POP PUSH2 0x457 PUSH0 DUP4 ADD DUP5 PUSH2 0x36B JUMP JUMPDEST SWAP3 SWAP2 POP POP JUMP JUMPDEST PUSH0 DUP2 MLOAD SWAP1 POP PUSH2 0x46B DUP2 PUSH2 0x3DC JUMP JUMPDEST SWAP3 SWAP2 POP POP JUMP JUMPDEST PUSH0 PUSH0 PUSH1 0x40 DUP4 DUP6 SUB SLT ISZERO PUSH2 0x487 JUMPI PUSH2 0x486 PUSH2 0x2D9 JUMP JUMPDEST JUMPDEST PUSH0 PUSH2 0x494 DUP6 DUP3 DUP7 ADD PUSH2 0x45D JUMP JUMPDEST SWAP3 POP POP PUSH1 0x20 PUSH2 0x4A5 DUP6 DUP3 DUP7 ADD PUSH2 0x45D JUMP JUMPDEST SWAP2 POP POP SWAP3 POP SWAP3 SWAP1 POP JUMP JUMPDEST PUSH0 PUSH1 0x20 DUP3 DUP5 SUB SLT ISZERO PUSH2 0x4C4 JUMPI PUSH2 0x4C3 PUSH2 0x2D9 JUMP JUMPDEST JUMPDEST PUSH0 PUSH2 0x4D1 DUP5 DUP3 DUP6 ADD PUSH2 0x45D JUMP JUMPDEST SWAP2 POP POP SWAP3 SWAP2 POP POP JUMP INVALID LOG2 PUSH5 0x6970667358 0x22 SLT KECCAK256 0x4F 0xDD SWAP1 DUP14 0xCC 0xC3 SGT 0xDD 0x22 DUP15 JUMPDEST 0xC2 STATICCALL CODESIZE 0xF7 BLOBHASH EXTSTATICCALL GT DUP6 0xCC TSTORE SHR SMOD CREATE SMOD 0xC1 DIV MSTORE8 PUSH27 0xBF17D164736F6C634300081E003300000000000000000000000000 "
				},
				"gasEstimates": {
					"creation": {
						"codeDepositCost": "259200",
						"executionCost": "298",
						"totalCost": "259498"
					},
					"external": {
						"getX(address)": "infinite",
						"getXandValue(address)": "infinite",
						"setX(address,uint256)": "infinite",
						"setXandSendEther(address,uint256)": "infinite"
					}
				},
				"methodIdentifiers": {
					"getX(address)": "7c94c8ca",
					"getXandValue(address)": "37e2621b",
					"setX(address,uint256)": "4a2ad99f",
					"setXandSendEther(address,uint256)": "d44abc42"
				}
			},
			"storageLayout": {
				"storage": [],
				"types": null
			},
			"userdoc": {
				"kind": "user",
				"methods": {},
				"version": 1
			}
		}
	}
}