{
	"C2E_learning/test.sol": {
		"CrowdFund": {
			"abi": [
				{
					"inputs": [
						{
							"internalType": "address",
							"name": "_token",
							"type": "address"
						}
					],
					"stateMutability": "nonpayable",
					"type": "constructor"
				},
				{
					"anonymous": false,
					"inputs": [
						{
							"indexed": false,
							"internalType": "uint256",
							"name": "id",
							"type": "uint256"
						}
					],
					"name": "Cancel",
					"type": "event"
				},
				{
					"anonymous": false,
					"inputs": [
						{
							"indexed": false,
							"internalType": "uint256",
							"name": "id",
							"type": "uint256"
						}
					],
					"name": "Claim",
					"type": "event"
				},
				{
					"anonymous": false,
					"inputs": [
						{
							"indexed": false,
							"internalType": "uint256",
							"name": "id",
							"type": "uint256"
						},
						{
							"indexed": true,
							"internalType": "address",
							"name": "creator",
							"type": "address"
						},
						{
							"indexed": false,
							"internalType": "uint256",
							"name": "goal",
							"type": "uint256"
						},
						{
							"indexed": false,
							"internalType": "uint32",
							"name": "startAt",
							"type": "uint32"
						},
						{
							"indexed": false,
							"internalType": "uint32",
							"name": "endAt",
							"type": "uint32"
						}
					],
					"name": "Launch",
					"type": "event"
				},
				{
					"anonymous": false,
					"inputs": [
						{
							"indexed": true,
							"internalType": "uint256",
							"name": "id",
							"type": "uint256"
						},
						{
							"indexed": true,
							"internalType": "address",
							"name": "caller",
							"type": "address"
						},
						{
							"indexed": false,
							"internalType": "uint256",
							"name": "amount",
							"type": "uint256"
						}
					],
					"name": "Pledge",
					"type": "event"
				},
				{
					"anonymous": false,
					"inputs": [
						{
							"indexed": true,
							"internalType": "uint256",
							"name": "id",
							"type": "uint256"
						},
						{
							"indexed": true,
							"internalType": "address",
							"name": "caller",
							"type": "address"
						},
						{
							"indexed": false,
							"internalType": "uint256",
							"name": "amount",
							"type": "uint256"
						}
					],
					"name": "Refund",
					"type": "event"
				},
				{
					"anonymous": false,
					"inputs": [
						{
							"indexed": true,
							"internalType": "uint256",
							"name": "id",
							"type": "uint256"
						},
						{
							"indexed": true,
							"internalType": "address",
							"name": "caller",
							"type": "address"
						},
						{
							"indexed": false,
							"internalType": "uint256",
							"name": "amount",
							"type": "uint256"
						}
					],
					"name": "Unpledge",
					"type": "event"
				},
				{
					"inputs": [
						{
							"internalType": "uint256",
							"name": "",
							"type": "uint256"
						}
					],
					"name": "campaigns",
					"outputs": [
						{
							"internalType": "address",
							"name": "creator",
							"type": "address"
						},
						{
							"internalType": "uint256",
							"name": "goal",
							"type": "uint256"
						},
						{
							"internalType": "uint256",
							"name": "pledged",
							"type": "uint256"
						},
						{
							"internalType": "uint32",
							"name": "startAt",
							"type": "uint32"
						},
						{
							"internalType": "uint32",
							"name": "endAt",
							"type": "uint32"
						},
						{
							"internalType": "bool",
							"name": "claimed",
							"type": "bool"
						}
					],
					"stateMutability": "view",
					"type": "function"
				},
				{
					"inputs": [
						{
							"internalType": "uint256",
							"name": "_id",
							"type": "uint256"
						}
					],
					"name": "cancel",
					"outputs": [],
					"stateMutability": "nonpayable",
					"type": "function"
				},
				{
					"inputs": [
						{
							"internalType": "uint256",
							"name": "_id",
							"type": "uint256"
						}
					],
					"name": "claim",
					"outputs": [],
					"stateMutability": "nonpayable",
					"type": "function"
				},
				{
					"inputs": [],
					"name": "count",
					"outputs": [
						{
							"internalType": "uint256",
							"name": "",
							"type": "uint256"
						}
					],
					"stateMutability": "view",
					"type": "function"
				},
				{
					"inputs": [
						{
							"internalType": "uint256",
							"name": "_goal",
							"type": "uint256"
						},
						{
							"internalType": "uint32",
							"name": "_startOffset",
							"type": "uint32"
						},
						{
							"internalType": "uint32",
							"name": "_endOffset",
							"type": "uint32"
						}
					],
					"name": "launch",
					"outputs": [],
					"stateMutability": "nonpayable",
					"type": "function"
				},
				{
					"inputs": [
						{
							"internalType": "uint256",
							"name": "_id",
							"type": "uint256"
						},
						{
							"internalType": "uint256",
							"name": "_amount",
							"type": "uint256"
						}
					],
					"name": "pledge",
					"outputs": [],
					"stateMutability": "nonpayable",
					"type": "function"
				},
				{
					"inputs": [
						{
							"internalType": "uint256",
							"name": "",
							"type": "uint256"
						},
						{
							"internalType": "address",
							"name": "",
							"type": "address"
						}
					],
					"name": "pledgedAmount",
					"outputs": [
						{
							"internalType": "uint256",
							"name": "",
							"type": "uint256"
						}
					],
					"stateMutability": "view",
					"type": "function"
				},
				{
					"inputs": [
						{
							"internalType": "uint256",
							"name": "_id",
							"type": "uint256"
						}
					],
					"name": "refund",
					"outputs": [],
					"stateMutability": "nonpayable",
					"type": "function"
				},
				{
					"inputs": [],
					"name": "token",
					"outputs": [
						{
							"internalType": "contract IERC20",
							"name": "",
							"type": "address"
						}
					],
					"stateMutability": "view",
					"type": "function"
				},
				{
					"inputs": [
						{
							"internalType": "uint256",
							"name": "_id",
							"type": "uint256"
						},
						{
							"internalType": "uint256",
							"name": "_amount",
							"type": "uint256"
						}
					],
					"name": "unpledge",
					"outputs": [],
					"stateMutability": "nonpayable",
					"type": "function"
				}
			],
			"devdoc": {
				"kind": "dev",
				"methods": {},
				"version": 1
			},
			"evm": {
				"assembly": "    /* \"C2E_learning/test.sol\":221:3804  contract CrowdFund {... */\n  mstore(0x40, 0xa0)\n    /* \"C2E_learning/test.sol\":992:1059  constructor(address _token) {... */\n  callvalue\n  dup1\n  iszero\n  tag_1\n  jumpi\n  revert(0x00, 0x00)\ntag_1:\n  pop\n  mload(0x40)\n  sub(codesize, bytecodeSize)\n  dup1\n  bytecodeSize\n  dup4\n  codecopy\n  dup2\n  dup2\n  add\n  0x40\n  mstore\n  dup2\n  add\n  swap1\n  tag_2\n  swap2\n  swap1\n  tag_3\n  jump\t// in\ntag_2:\n    /* \"C2E_learning/test.sol\":1045:1051  _token */\n  dup1\n    /* \"C2E_learning/test.sol\":1030:1052  token = IERC20(_token) */\n  0xffffffffffffffffffffffffffffffffffffffff\n  and\n  0x80\n  dup2\n  0xffffffffffffffffffffffffffffffffffffffff\n  and\n  dup2\n  mstore\n  pop\n  pop\n    /* \"C2E_learning/test.sol\":992:1059  constructor(address _token) {... */\n  pop\n    /* \"C2E_learning/test.sol\":221:3804  contract CrowdFund {... */\n  jump(tag_6)\n    /* \"#utility.yul\":88:205   */\ntag_8:\n    /* \"#utility.yul\":197:198   */\n  0x00\n    /* \"#utility.yul\":194:195   */\n  0x00\n    /* \"#utility.yul\":187:199   */\n  revert\n    /* \"#utility.yul\":334:460   */\ntag_10:\n    /* \"#utility.yul\":371:378   */\n  0x00\n    /* \"#utility.yul\":411:453   */\n  0xffffffffffffffffffffffffffffffffffffffff\n    /* \"#utility.yul\":404:409   */\n  dup3\n    /* \"#utility.yul\":400:454   */\n  and\n    /* \"#utility.yul\":389:454   */\n  swap1\n  pop\n    /* \"#utility.yul\":334:460   */\n  swap2\n  swap1\n  pop\n  jump\t// out\n    /* \"#utility.yul\":466:562   */\ntag_11:\n    /* \"#utility.yul\":503:510   */\n  0x00\n    /* \"#utility.yul\":532:556   */\n  tag_20\n    /* \"#utility.yul\":550:555   */\n  dup3\n    /* \"#utility.yul\":532:556   */\n  tag_10\n  jump\t// in\ntag_20:\n    /* \"#utility.yul\":521:556   */\n  swap1\n  pop\n    /* \"#utility.yul\":466:562   */\n  swap2\n  swap1\n  pop\n  jump\t// out\n    /* \"#utility.yul\":568:690   */\ntag_12:\n    /* \"#utility.yul\":641:665   */\n  tag_22\n    /* \"#utility.yul\":659:664   */\n  dup2\n    /* \"#utility.yul\":641:665   */\n  tag_11\n  jump\t// in\ntag_22:\n    /* \"#utility.yul\":634:639   */\n  dup2\n    /* \"#utility.yul\":631:666   */\n  eq\n    /* \"#utility.yul\":621:684   */\n  tag_23\n  jumpi\n    /* \"#utility.yul\":680:681   */\n  0x00\n    /* \"#utility.yul\":677:678   */\n  0x00\n    /* \"#utility.yul\":670:682   */\n  revert\n    /* \"#utility.yul\":621:684   */\ntag_23:\n    /* \"#utility.yul\":568:690   */\n  pop\n  jump\t// out\n    /* \"#utility.yul\":696:839   */\ntag_13:\n    /* \"#utility.yul\":753:758   */\n  0x00\n    /* \"#utility.yul\":784:790   */\n  dup2\n    /* \"#utility.yul\":778:791   */\n  mload\n    /* \"#utility.yul\":769:791   */\n  swap1\n  pop\n    /* \"#utility.yul\":800:833   */\n  tag_25\n    /* \"#utility.yul\":827:832   */\n  dup2\n    /* \"#utility.yul\":800:833   */\n  tag_12\n  jump\t// in\ntag_25:\n    /* \"#utility.yul\":696:839   */\n  swap3\n  swap2\n  pop\n  pop\n  jump\t// out\n    /* \"#utility.yul\":845:1196   */\ntag_3:\n    /* \"#utility.yul\":915:921   */\n  0x00\n    /* \"#utility.yul\":964:966   */\n  0x20\n    /* \"#utility.yul\":952:961   */\n  dup3\n    /* \"#utility.yul\":943:950   */\n  dup5\n    /* \"#utility.yul\":939:962   */\n  sub\n    /* \"#utility.yul\":935:967   */\n  slt\n    /* \"#utility.yul\":932:1051   */\n  iszero\n  tag_27\n  jumpi\n    /* \"#utility.yul\":970:1049   */\n  tag_28\n  tag_8\n  jump\t// in\ntag_28:\n    /* \"#utility.yul\":932:1051   */\ntag_27:\n    /* \"#utility.yul\":1090:1091   */\n  0x00\n    /* \"#utility.yul\":1115:1179   */\n  tag_29\n    /* \"#utility.yul\":1171:1178   */\n  dup5\n    /* \"#utility.yul\":1162:1168   */\n  dup3\n    /* \"#utility.yul\":1151:1160   */\n  dup6\n    /* \"#utility.yul\":1147:1169   */\n  add\n    /* \"#utility.yul\":1115:1179   */\n  tag_13\n  jump\t// in\ntag_29:\n    /* \"#utility.yul\":1105:1179   */\n  swap2\n  pop\n    /* \"#utility.yul\":1061:1189   */\n  pop\n    /* \"#utility.yul\":845:1196   */\n  swap3\n  swap2\n  pop\n  pop\n  jump\t// out\n    /* \"C2E_learning/test.sol\":221:3804  contract CrowdFund {... */\ntag_6:\n  mload(0x80)\n  codecopy(0x00, dataOffset(sub_0), dataSize(sub_0))\n  0x00\n  assignImmutable(\"0x5392f7a671cdf89487ccf8e3646ea8f7570009490584962db6fa064c6e4ad499\")\n  return(0x00, dataSize(sub_0))\nstop\n\nsub_0: assembly {\n        /* \"C2E_learning/test.sol\":221:3804  contract CrowdFund {... */\n      mstore(0x40, 0x80)\n      callvalue\n      dup1\n      iszero\n      tag_1\n      jumpi\n      revert(0x00, 0x00)\n    tag_1:\n      pop\n      jumpi(tag_2, lt(calldatasize, 0x04))\n      shr(0xe0, calldataload(0x00))\n      dup1\n      0x40e58ee5\n      gt\n      tag_13\n      jumpi\n      dup1\n      0x40e58ee5\n      eq\n      tag_8\n      jumpi\n      dup1\n      0x711853ab\n      eq\n      tag_9\n      jumpi\n      dup1\n      0xaa4fb63a\n      eq\n      tag_10\n      jumpi\n      dup1\n      0xfc0c546a\n      eq\n      tag_11\n      jumpi\n      dup1\n      0xfde327be\n      eq\n      tag_12\n      jumpi\n      jump(tag_2)\n    tag_13:\n      dup1\n      0x06661abd\n      eq\n      tag_3\n      jumpi\n      dup1\n      0x141961bc\n      eq\n      tag_4\n      jumpi\n      dup1\n      0x278ecde1\n      eq\n      tag_5\n      jumpi\n      dup1\n      0x2c63f146\n      eq\n      tag_6\n      jumpi\n      dup1\n      0x379607f5\n      eq\n      tag_7\n      jumpi\n    tag_2:\n      revert(0x00, 0x00)\n        /* \"C2E_learning/test.sol\":853:870  uint public count */\n    tag_3:\n      tag_14\n      tag_15\n      jump\t// in\n    tag_14:\n      mload(0x40)\n      tag_16\n      swap2\n      swap1\n      tag_17\n      jump\t// in\n    tag_16:\n      mload(0x40)\n      dup1\n      swap2\n      sub\n      swap1\n      return\n        /* \"C2E_learning/test.sol\":876:918  mapping(uint => Campaign) public campaigns */\n    tag_4:\n      tag_18\n      0x04\n      dup1\n      calldatasize\n      sub\n      dup2\n      add\n      swap1\n      tag_19\n      swap2\n      swap1\n      tag_20\n      jump\t// in\n    tag_19:\n      tag_21\n      jump\t// in\n    tag_18:\n      mload(0x40)\n      tag_22\n      swap7\n      swap6\n      swap5\n      swap4\n      swap3\n      swap2\n      swap1\n      tag_23\n      jump\t// in\n    tag_22:\n      mload(0x40)\n      dup1\n      swap2\n      sub\n      swap1\n      return\n        /* \"C2E_learning/test.sol\":3395:3802  function refund(uint _id) external {... */\n    tag_5:\n      tag_24\n      0x04\n      dup1\n      calldatasize\n      sub\n      dup2\n      add\n      swap1\n      tag_25\n      swap2\n      swap1\n      tag_20\n      jump\t// in\n    tag_25:\n      tag_26\n      jump\t// in\n    tag_24:\n      stop\n        /* \"C2E_learning/test.sol\":1084:1749  function launch(... */\n    tag_6:\n      tag_27\n      0x04\n      dup1\n      calldatasize\n      sub\n      dup2\n      add\n      swap1\n      tag_28\n      swap2\n      swap1\n      tag_29\n      jump\t// in\n    tag_28:\n      tag_30\n      jump\t// in\n    tag_27:\n      stop\n        /* \"C2E_learning/test.sol\":2920:3370  function claim(uint _id) external {... */\n    tag_7:\n      tag_31\n      0x04\n      dup1\n      calldatasize\n      sub\n      dup2\n      add\n      swap1\n      tag_32\n      swap2\n      swap1\n      tag_20\n      jump\t// in\n    tag_32:\n      tag_33\n      jump\t// in\n    tag_31:\n      stop\n        /* \"C2E_learning/test.sol\":1775:2053  function cancel(uint _id) external {... */\n    tag_8:\n      tag_34\n      0x04\n      dup1\n      calldatasize\n      sub\n      dup2\n      add\n      swap1\n      tag_35\n      swap2\n      swap1\n      tag_20\n      jump\t// in\n    tag_35:\n      tag_36\n      jump\t// in\n    tag_34:\n      stop\n        /* \"C2E_learning/test.sol\":2541:2894  function unpledge(uint _id, uint _amount) external {... */\n    tag_9:\n      tag_37\n      0x04\n      dup1\n      calldatasize\n      sub\n      dup2\n      add\n      swap1\n      tag_38\n      swap2\n      swap1\n      tag_39\n      jump\t// in\n    tag_38:\n      tag_40\n      jump\t// in\n    tag_37:\n      stop\n        /* \"C2E_learning/test.sol\":924:986  mapping(uint => mapping(address => uint)) public pledgedAmount */\n    tag_10:\n      tag_41\n      0x04\n      dup1\n      calldatasize\n      sub\n      dup2\n      add\n      swap1\n      tag_42\n      swap2\n      swap1\n      tag_43\n      jump\t// in\n    tag_42:\n      tag_44\n      jump\t// in\n    tag_41:\n      mload(0x40)\n      tag_45\n      swap2\n      swap1\n      tag_17\n      jump\t// in\n    tag_45:\n      mload(0x40)\n      dup1\n      swap2\n      sub\n      swap1\n      return\n        /* \"C2E_learning/test.sol\":818:847  IERC20 public immutable token */\n    tag_11:\n      tag_46\n      tag_47\n      jump\t// in\n    tag_46:\n      mload(0x40)\n      tag_48\n      swap2\n      swap1\n      tag_49\n      jump\t// in\n    tag_48:\n      mload(0x40)\n      dup1\n      swap2\n      sub\n      swap1\n      return\n        /* \"C2E_learning/test.sol\":2078:2515  function pledge(uint _id, uint _amount) external {... */\n    tag_12:\n      tag_50\n      0x04\n      dup1\n      calldatasize\n      sub\n      dup2\n      add\n      swap1\n      tag_51\n      swap2\n      swap1\n      tag_39\n      jump\t// in\n    tag_51:\n      tag_52\n      jump\t// in\n    tag_50:\n      stop\n        /* \"C2E_learning/test.sol\":853:870  uint public count */\n    tag_15:\n      sload(0x00)\n      dup2\n      jump\t// out\n        /* \"C2E_learning/test.sol\":876:918  mapping(uint => Campaign) public campaigns */\n    tag_21:\n      mstore(0x20, 0x01)\n      dup1\n      0x00\n      mstore\n      keccak256(0x00, 0x40)\n      0x00\n      swap2\n      pop\n      swap1\n      pop\n      dup1\n      0x00\n      add\n      0x00\n      swap1\n      sload\n      swap1\n      0x0100\n      exp\n      swap1\n      div\n      0xffffffffffffffffffffffffffffffffffffffff\n      and\n      swap1\n      dup1\n      0x01\n      add\n      sload\n      swap1\n      dup1\n      0x02\n      add\n      sload\n      swap1\n      dup1\n      0x03\n      add\n      0x00\n      swap1\n      sload\n      swap1\n      0x0100\n      exp\n      swap1\n      div\n      0xffffffff\n      and\n      swap1\n      dup1\n      0x03\n      add\n      0x04\n      swap1\n      sload\n      swap1\n      0x0100\n      exp\n      swap1\n      div\n      0xffffffff\n      and\n      swap1\n      dup1\n      0x03\n      add\n      0x08\n      swap1\n      sload\n      swap1\n      0x0100\n      exp\n      swap1\n      div\n      0xff\n      and\n      swap1\n      pop\n      dup7\n      jump\t// out\n        /* \"C2E_learning/test.sol\":3395:3802  function refund(uint _id) external {... */\n    tag_26:\n        /* \"C2E_learning/test.sol\":3440:3465  Campaign storage campaign */\n      0x00\n        /* \"C2E_learning/test.sol\":3468:3477  campaigns */\n      0x01\n        /* \"C2E_learning/test.sol\":3468:3482  campaigns[_id] */\n      0x00\n        /* \"C2E_learning/test.sol\":3478:3481  _id */\n      dup4\n        /* \"C2E_learning/test.sol\":3468:3482  campaigns[_id] */\n      dup2\n      mstore\n      0x20\n      add\n      swap1\n      dup2\n      mstore\n      0x20\n      add\n      0x00\n      keccak256\n        /* \"C2E_learning/test.sol\":3440:3482  Campaign storage campaign = campaigns[_id] */\n      swap1\n      pop\n        /* \"C2E_learning/test.sol\":3518:3526  campaign */\n      dup1\n        /* \"C2E_learning/test.sol\":3518:3532  campaign.endAt */\n      0x03\n      add\n      0x04\n      swap1\n      sload\n      swap1\n      0x0100\n      exp\n      swap1\n      div\n      0xffffffff\n      and\n        /* \"C2E_learning/test.sol\":3500:3532  block.timestamp > campaign.endAt */\n      0xffffffff\n      and\n        /* \"C2E_learning/test.sol\":3500:3515  block.timestamp */\n      timestamp\n        /* \"C2E_learning/test.sol\":3500:3532  block.timestamp > campaign.endAt */\n      gt\n        /* \"C2E_learning/test.sol\":3492:3546  require(block.timestamp > campaign.endAt, \"not ended\") */\n      tag_54\n      jumpi\n      mload(0x40)\n      0x08c379a000000000000000000000000000000000000000000000000000000000\n      dup2\n      mstore\n      0x04\n      add\n      tag_55\n      swap1\n      tag_56\n      jump\t// in\n    tag_55:\n      mload(0x40)\n      dup1\n      swap2\n      sub\n      swap1\n      revert\n    tag_54:\n        /* \"C2E_learning/test.sol\":3583:3591  campaign */\n      dup1\n        /* \"C2E_learning/test.sol\":3583:3596  campaign.goal */\n      0x01\n      add\n      sload\n        /* \"C2E_learning/test.sol\":3564:3572  campaign */\n      dup2\n        /* \"C2E_learning/test.sol\":3564:3580  campaign.pledged */\n      0x02\n      add\n      sload\n        /* \"C2E_learning/test.sol\":3564:3596  campaign.pledged < campaign.goal */\n      lt\n        /* \"C2E_learning/test.sol\":3556:3616  require(campaign.pledged < campaign.goal, \"pledged >= goal\") */\n      tag_57\n      jumpi\n      mload(0x40)\n      0x08c379a000000000000000000000000000000000000000000000000000000000\n      dup2\n      mstore\n      0x04\n      add\n      tag_58\n      swap1\n      tag_59\n      jump\t// in\n    tag_58:\n      mload(0x40)\n      dup1\n      swap2\n      sub\n      swap1\n      revert\n    tag_57:\n        /* \"C2E_learning/test.sol\":3626:3634  uint bal */\n      0x00\n        /* \"C2E_learning/test.sol\":3637:3650  pledgedAmount */\n      0x02\n        /* \"C2E_learning/test.sol\":3637:3655  pledgedAmount[_id] */\n      0x00\n        /* \"C2E_learning/test.sol\":3651:3654  _id */\n      dup5\n        /* \"C2E_learning/test.sol\":3637:3655  pledgedAmount[_id] */\n      dup2\n      mstore\n      0x20\n      add\n      swap1\n      dup2\n      mstore\n      0x20\n      add\n      0x00\n      keccak256\n        /* \"C2E_learning/test.sol\":3637:3667  pledgedAmount[_id][msg.sender] */\n      0x00\n        /* \"C2E_learning/test.sol\":3656:3666  msg.sender */\n      caller\n        /* \"C2E_learning/test.sol\":3637:3667  pledgedAmount[_id][msg.sender] */\n      0xffffffffffffffffffffffffffffffffffffffff\n      and\n      0xffffffffffffffffffffffffffffffffffffffff\n      and\n      dup2\n      mstore\n      0x20\n      add\n      swap1\n      dup2\n      mstore\n      0x20\n      add\n      0x00\n      keccak256\n      sload\n        /* \"C2E_learning/test.sol\":3626:3667  uint bal = pledgedAmount[_id][msg.sender] */\n      swap1\n      pop\n        /* \"C2E_learning/test.sol\":3710:3711  0 */\n      0x00\n        /* \"C2E_learning/test.sol\":3677:3690  pledgedAmount */\n      0x02\n        /* \"C2E_learning/test.sol\":3677:3695  pledgedAmount[_id] */\n      0x00\n        /* \"C2E_learning/test.sol\":3691:3694  _id */\n      dup6\n        /* \"C2E_learning/test.sol\":3677:3695  pledgedAmount[_id] */\n      dup2\n      mstore\n      0x20\n      add\n      swap1\n      dup2\n      mstore\n      0x20\n      add\n      0x00\n      keccak256\n        /* \"C2E_learning/test.sol\":3677:3707  pledgedAmount[_id][msg.sender] */\n      0x00\n        /* \"C2E_learning/test.sol\":3696:3706  msg.sender */\n      caller\n        /* \"C2E_learning/test.sol\":3677:3707  pledgedAmount[_id][msg.sender] */\n      0xffffffffffffffffffffffffffffffffffffffff\n      and\n      0xffffffffffffffffffffffffffffffffffffffff\n      and\n      dup2\n      mstore\n      0x20\n      add\n      swap1\n      dup2\n      mstore\n      0x20\n      add\n      0x00\n      keccak256\n        /* \"C2E_learning/test.sol\":3677:3711  pledgedAmount[_id][msg.sender] = 0 */\n      dup2\n      swap1\n      sstore\n      pop\n        /* \"C2E_learning/test.sol\":3721:3726  token */\n      immutable(\"0x5392f7a671cdf89487ccf8e3646ea8f7570009490584962db6fa064c6e4ad499\")\n        /* \"C2E_learning/test.sol\":3721:3735  token.transfer */\n      0xffffffffffffffffffffffffffffffffffffffff\n      and\n      0xa9059cbb\n        /* \"C2E_learning/test.sol\":3736:3746  msg.sender */\n      caller\n        /* \"C2E_learning/test.sol\":3748:3751  bal */\n      dup4\n        /* \"C2E_learning/test.sol\":3721:3752  token.transfer(msg.sender, bal) */\n      mload(0x40)\n      dup4\n      0xffffffff\n      and\n      0xe0\n      shl\n      dup2\n      mstore\n      0x04\n      add\n      tag_60\n      swap3\n      swap2\n      swap1\n      tag_61\n      jump\t// in\n    tag_60:\n      0x20\n      mload(0x40)\n      dup1\n      dup4\n      sub\n      dup2\n      0x00\n      dup8\n      gas\n      call\n      iszero\n      dup1\n      iszero\n      tag_63\n      jumpi\n      returndatacopy(0x00, 0x00, returndatasize)\n      revert(0x00, returndatasize)\n    tag_63:\n      pop\n      pop\n      pop\n      pop\n      mload(0x40)\n      returndatasize\n      not(0x1f)\n      0x1f\n      dup3\n      add\n      and\n      dup3\n      add\n      dup1\n      0x40\n      mstore\n      pop\n      dup2\n      add\n      swap1\n      tag_64\n      swap2\n      swap1\n      tag_65\n      jump\t// in\n    tag_64:\n      pop\n        /* \"C2E_learning/test.sol\":3779:3789  msg.sender */\n      caller\n        /* \"C2E_learning/test.sol\":3767:3795  Refund(_id, msg.sender, bal) */\n      0xffffffffffffffffffffffffffffffffffffffff\n      and\n        /* \"C2E_learning/test.sol\":3774:3777  _id */\n      dup4\n        /* \"C2E_learning/test.sol\":3767:3795  Refund(_id, msg.sender, bal) */\n      0x21e12a7cad0da5928167e1084ea4d5fdf8d9af66657a2543a9ac76a0ca081477\n        /* \"C2E_learning/test.sol\":3791:3794  bal */\n      dup4\n        /* \"C2E_learning/test.sol\":3767:3795  Refund(_id, msg.sender, bal) */\n      mload(0x40)\n      tag_66\n      swap2\n      swap1\n      tag_17\n      jump\t// in\n    tag_66:\n      mload(0x40)\n      dup1\n      swap2\n      sub\n      swap1\n      log3\n        /* \"C2E_learning/test.sol\":3430:3802  {... */\n      pop\n      pop\n        /* \"C2E_learning/test.sol\":3395:3802  function refund(uint _id) external {... */\n      pop\n      jump\t// out\n        /* \"C2E_learning/test.sol\":1084:1749  function launch(... */\n    tag_30:\n        /* \"C2E_learning/test.sol\":1222:1234  _startOffset */\n      dup2\n        /* \"C2E_learning/test.sol\":1209:1234  _endOffset > _startOffset */\n      0xffffffff\n      and\n        /* \"C2E_learning/test.sol\":1209:1219  _endOffset */\n      dup2\n        /* \"C2E_learning/test.sol\":1209:1234  _endOffset > _startOffset */\n      0xffffffff\n      and\n      gt\n        /* \"C2E_learning/test.sol\":1201:1255  require(_endOffset > _startOffset, \"endAt <= startAt\") */\n      tag_68\n      jumpi\n      mload(0x40)\n      0x08c379a000000000000000000000000000000000000000000000000000000000\n      dup2\n      mstore\n      0x04\n      add\n      tag_69\n      swap1\n      tag_70\n      jump\t// in\n    tag_69:\n      mload(0x40)\n      dup1\n      swap2\n      sub\n      swap1\n      revert\n    tag_68:\n        /* \"C2E_learning/test.sol\":1287:1294  30 days */\n      0x278d00\n        /* \"C2E_learning/test.sol\":1273:1283  _endOffset */\n      dup2\n        /* \"C2E_learning/test.sol\":1273:1294  _endOffset <= 30 days */\n      0xffffffff\n      and\n      gt\n      iszero\n        /* \"C2E_learning/test.sol\":1265:1312  require(_endOffset <= 30 days, \"end > 30 days\") */\n      tag_71\n      jumpi\n      mload(0x40)\n      0x08c379a000000000000000000000000000000000000000000000000000000000\n      dup2\n      mstore\n      0x04\n      add\n      tag_72\n      swap1\n      tag_73\n      jump\t// in\n    tag_72:\n      mload(0x40)\n      dup1\n      swap2\n      sub\n      swap1\n      revert\n    tag_71:\n        /* \"C2E_learning/test.sol\":1322:1337  uint32 _startAt */\n      0x00\n        /* \"C2E_learning/test.sol\":1366:1378  _startOffset */\n      dup3\n        /* \"C2E_learning/test.sol\":1347:1362  block.timestamp */\n      timestamp\n        /* \"C2E_learning/test.sol\":1340:1378  uint32(block.timestamp) + _startOffset */\n      tag_74\n      swap2\n      swap1\n      tag_75\n      jump\t// in\n    tag_74:\n        /* \"C2E_learning/test.sol\":1322:1378  uint32 _startAt = uint32(block.timestamp) + _startOffset */\n      swap1\n      pop\n        /* \"C2E_learning/test.sol\":1388:1401  uint32 _endAt */\n      0x00\n        /* \"C2E_learning/test.sol\":1430:1440  _endOffset */\n      dup3\n        /* \"C2E_learning/test.sol\":1411:1426  block.timestamp */\n      timestamp\n        /* \"C2E_learning/test.sol\":1404:1440  uint32(block.timestamp) + _endOffset */\n      tag_76\n      swap2\n      swap1\n      tag_75\n      jump\t// in\n    tag_76:\n        /* \"C2E_learning/test.sol\":1388:1440  uint32 _endAt = uint32(block.timestamp) + _endOffset */\n      swap1\n      pop\n        /* \"C2E_learning/test.sol\":1459:1460  1 */\n      0x01\n        /* \"C2E_learning/test.sol\":1450:1455  count */\n      0x00\n      0x00\n        /* \"C2E_learning/test.sol\":1450:1460  count += 1 */\n      dup3\n      dup3\n      sload\n      tag_77\n      swap2\n      swap1\n      tag_78\n      jump\t// in\n    tag_77:\n      swap3\n      pop\n      pop\n      dup2\n      swap1\n      sstore\n      pop\n        /* \"C2E_learning/test.sol\":1489:1677  Campaign({... */\n      mload(0x40)\n      dup1\n      0xc0\n      add\n      0x40\n      mstore\n      dup1\n        /* \"C2E_learning/test.sol\":1521:1531  msg.sender */\n      caller\n        /* \"C2E_learning/test.sol\":1489:1677  Campaign({... */\n      0xffffffffffffffffffffffffffffffffffffffff\n      and\n      dup2\n      mstore\n      0x20\n      add\n        /* \"C2E_learning/test.sol\":1551:1556  _goal */\n      dup7\n        /* \"C2E_learning/test.sol\":1489:1677  Campaign({... */\n      dup2\n      mstore\n      0x20\n      add\n        /* \"C2E_learning/test.sol\":1579:1580  0 */\n      0x00\n        /* \"C2E_learning/test.sol\":1489:1677  Campaign({... */\n      dup2\n      mstore\n      0x20\n      add\n        /* \"C2E_learning/test.sol\":1603:1611  _startAt */\n      dup4\n        /* \"C2E_learning/test.sol\":1489:1677  Campaign({... */\n      0xffffffff\n      and\n      dup2\n      mstore\n      0x20\n      add\n        /* \"C2E_learning/test.sol\":1632:1638  _endAt */\n      dup3\n        /* \"C2E_learning/test.sol\":1489:1677  Campaign({... */\n      0xffffffff\n      and\n      dup2\n      mstore\n      0x20\n      add\n        /* \"C2E_learning/test.sol\":1661:1666  false */\n      0x00\n        /* \"C2E_learning/test.sol\":1489:1677  Campaign({... */\n      iszero\n      iszero\n      dup2\n      mstore\n      pop\n        /* \"C2E_learning/test.sol\":1470:1479  campaigns */\n      0x01\n        /* \"C2E_learning/test.sol\":1470:1486  campaigns[count] */\n      0x00\n        /* \"C2E_learning/test.sol\":1480:1485  count */\n      sload(0x00)\n        /* \"C2E_learning/test.sol\":1470:1486  campaigns[count] */\n      dup2\n      mstore\n      0x20\n      add\n      swap1\n      dup2\n      mstore\n      0x20\n      add\n      0x00\n      keccak256\n        /* \"C2E_learning/test.sol\":1470:1677  campaigns[count] = Campaign({... */\n      0x00\n      dup3\n      add\n      mload\n      dup2\n      0x00\n      add\n      exp(0x0100, 0x00)\n      dup2\n      sload\n      dup2\n      0xffffffffffffffffffffffffffffffffffffffff\n      mul\n      not\n      and\n      swap1\n      dup4\n      0xffffffffffffffffffffffffffffffffffffffff\n      and\n      mul\n      or\n      swap1\n      sstore\n      pop\n      0x20\n      dup3\n      add\n      mload\n      dup2\n      0x01\n      add\n      sstore\n      0x40\n      dup3\n      add\n      mload\n      dup2\n      0x02\n      add\n      sstore\n      0x60\n      dup3\n      add\n      mload\n      dup2\n      0x03\n      add\n      exp(0x0100, 0x00)\n      dup2\n      sload\n      dup2\n      0xffffffff\n      mul\n      not\n      and\n      swap1\n      dup4\n      0xffffffff\n      and\n      mul\n      or\n      swap1\n      sstore\n      pop\n      0x80\n      dup3\n      add\n      mload\n      dup2\n      0x03\n      add\n      exp(0x0100, 0x04)\n      dup2\n      sload\n      dup2\n      0xffffffff\n      mul\n      not\n      and\n      swap1\n      dup4\n      0xffffffff\n      and\n      mul\n      or\n      swap1\n      sstore\n      pop\n      0xa0\n      dup3\n      add\n      mload\n      dup2\n      0x03\n      add\n      exp(0x0100, 0x08)\n      dup2\n      sload\n      dup2\n      0xff\n      mul\n      not\n      and\n      swap1\n      dup4\n      iszero\n      iszero\n      mul\n      or\n      swap1\n      sstore\n      pop\n      swap1\n      pop\n      pop\n        /* \"C2E_learning/test.sol\":1706:1716  msg.sender */\n      caller\n        /* \"C2E_learning/test.sol\":1692:1742  Launch(count, msg.sender, _goal, _startAt, _endAt) */\n      0xffffffffffffffffffffffffffffffffffffffff\n      and\n      0x0601cd0d650b473037e838a2696d41e654433d065b3f56b28d1d3302e44a304f\n        /* \"C2E_learning/test.sol\":1699:1704  count */\n      sload(0x00)\n        /* \"C2E_learning/test.sol\":1718:1723  _goal */\n      dup8\n        /* \"C2E_learning/test.sol\":1725:1733  _startAt */\n      dup6\n        /* \"C2E_learning/test.sol\":1735:1741  _endAt */\n      dup6\n        /* \"C2E_learning/test.sol\":1692:1742  Launch(count, msg.sender, _goal, _startAt, _endAt) */\n      mload(0x40)\n      tag_79\n      swap5\n      swap4\n      swap3\n      swap2\n      swap1\n      tag_80\n      jump\t// in\n    tag_79:\n      mload(0x40)\n      dup1\n      swap2\n      sub\n      swap1\n      log2\n        /* \"C2E_learning/test.sol\":1191:1749  {... */\n      pop\n      pop\n        /* \"C2E_learning/test.sol\":1084:1749  function launch(... */\n      pop\n      pop\n      pop\n      jump\t// out\n        /* \"C2E_learning/test.sol\":2920:3370  function claim(uint _id) external {... */\n    tag_33:\n        /* \"C2E_learning/test.sol\":2964:2989  Campaign storage campaign */\n      0x00\n        /* \"C2E_learning/test.sol\":2992:3001  campaigns */\n      0x01\n        /* \"C2E_learning/test.sol\":2992:3006  campaigns[_id] */\n      0x00\n        /* \"C2E_learning/test.sol\":3002:3005  _id */\n      dup4\n        /* \"C2E_learning/test.sol\":2992:3006  campaigns[_id] */\n      dup2\n      mstore\n      0x20\n      add\n      swap1\n      dup2\n      mstore\n      0x20\n      add\n      0x00\n      keccak256\n        /* \"C2E_learning/test.sol\":2964:3006  Campaign storage campaign = campaigns[_id] */\n      swap1\n      pop\n        /* \"C2E_learning/test.sol\":3038:3046  campaign */\n      dup1\n        /* \"C2E_learning/test.sol\":3038:3054  campaign.creator */\n      0x00\n      add\n      0x00\n      swap1\n      sload\n      swap1\n      0x0100\n      exp\n      swap1\n      div\n      0xffffffffffffffffffffffffffffffffffffffff\n      and\n        /* \"C2E_learning/test.sol\":3024:3054  msg.sender == campaign.creator */\n      0xffffffffffffffffffffffffffffffffffffffff\n      and\n        /* \"C2E_learning/test.sol\":3024:3034  msg.sender */\n      caller\n        /* \"C2E_learning/test.sol\":3024:3054  msg.sender == campaign.creator */\n      0xffffffffffffffffffffffffffffffffffffffff\n      and\n      eq\n        /* \"C2E_learning/test.sol\":3016:3070  require(msg.sender == campaign.creator, \"not creator\") */\n      tag_82\n      jumpi\n      mload(0x40)\n      0x08c379a000000000000000000000000000000000000000000000000000000000\n      dup2\n      mstore\n      0x04\n      add\n      tag_83\n      swap1\n      tag_84\n      jump\t// in\n    tag_83:\n      mload(0x40)\n      dup1\n      swap2\n      sub\n      swap1\n      revert\n    tag_82:\n        /* \"C2E_learning/test.sol\":3106:3114  campaign */\n      dup1\n        /* \"C2E_learning/test.sol\":3106:3120  campaign.endAt */\n      0x03\n      add\n      0x04\n      swap1\n      sload\n      swap1\n      0x0100\n      exp\n      swap1\n      div\n      0xffffffff\n      and\n        /* \"C2E_learning/test.sol\":3088:3120  block.timestamp > campaign.endAt */\n      0xffffffff\n      and\n        /* \"C2E_learning/test.sol\":3088:3103  block.timestamp */\n      timestamp\n        /* \"C2E_learning/test.sol\":3088:3120  block.timestamp > campaign.endAt */\n      gt\n        /* \"C2E_learning/test.sol\":3080:3134  require(block.timestamp > campaign.endAt, \"not ended\") */\n      tag_85\n      jumpi\n      mload(0x40)\n      0x08c379a000000000000000000000000000000000000000000000000000000000\n      dup2\n      mstore\n      0x04\n      add\n      tag_86\n      swap1\n      tag_56\n      jump\t// in\n    tag_86:\n      mload(0x40)\n      dup1\n      swap2\n      sub\n      swap1\n      revert\n    tag_85:\n        /* \"C2E_learning/test.sol\":3172:3180  campaign */\n      dup1\n        /* \"C2E_learning/test.sol\":3172:3185  campaign.goal */\n      0x01\n      add\n      sload\n        /* \"C2E_learning/test.sol\":3152:3160  campaign */\n      dup2\n        /* \"C2E_learning/test.sol\":3152:3168  campaign.pledged */\n      0x02\n      add\n      sload\n        /* \"C2E_learning/test.sol\":3152:3185  campaign.pledged >= campaign.goal */\n      lt\n      iszero\n        /* \"C2E_learning/test.sol\":3144:3204  require(campaign.pledged >= campaign.goal, \"pledged < goal\") */\n      tag_87\n      jumpi\n      mload(0x40)\n      0x08c379a000000000000000000000000000000000000000000000000000000000\n      dup2\n      mstore\n      0x04\n      add\n      tag_88\n      swap1\n      tag_89\n      jump\t// in\n    tag_88:\n      mload(0x40)\n      dup1\n      swap2\n      sub\n      swap1\n      revert\n    tag_87:\n        /* \"C2E_learning/test.sol\":3223:3231  campaign */\n      dup1\n        /* \"C2E_learning/test.sol\":3223:3239  campaign.claimed */\n      0x03\n      add\n      0x08\n      swap1\n      sload\n      swap1\n      0x0100\n      exp\n      swap1\n      div\n      0xff\n      and\n        /* \"C2E_learning/test.sol\":3222:3239  !campaign.claimed */\n      iszero\n        /* \"C2E_learning/test.sol\":3214:3251  require(!campaign.claimed, \"claimed\") */\n      tag_90\n      jumpi\n      mload(0x40)\n      0x08c379a000000000000000000000000000000000000000000000000000000000\n      dup2\n      mstore\n      0x04\n      add\n      tag_91\n      swap1\n      tag_92\n      jump\t// in\n    tag_91:\n      mload(0x40)\n      dup1\n      swap2\n      sub\n      swap1\n      revert\n    tag_90:\n        /* \"C2E_learning/test.sol\":3280:3284  true */\n      0x01\n        /* \"C2E_learning/test.sol\":3261:3269  campaign */\n      dup2\n        /* \"C2E_learning/test.sol\":3261:3277  campaign.claimed */\n      0x03\n      add\n      0x08\n        /* \"C2E_learning/test.sol\":3261:3284  campaign.claimed = true */\n      0x0100\n      exp\n      dup2\n      sload\n      dup2\n      0xff\n      mul\n      not\n      and\n      swap1\n      dup4\n      iszero\n      iszero\n      mul\n      or\n      swap1\n      sstore\n      pop\n        /* \"C2E_learning/test.sol\":3294:3299  token */\n      immutable(\"0x5392f7a671cdf89487ccf8e3646ea8f7570009490584962db6fa064c6e4ad499\")\n        /* \"C2E_learning/test.sol\":3294:3308  token.transfer */\n      0xffffffffffffffffffffffffffffffffffffffff\n      and\n      0xa9059cbb\n        /* \"C2E_learning/test.sol\":3309:3319  msg.sender */\n      caller\n        /* \"C2E_learning/test.sol\":3321:3329  campaign */\n      dup4\n        /* \"C2E_learning/test.sol\":3321:3337  campaign.pledged */\n      0x02\n      add\n      sload\n        /* \"C2E_learning/test.sol\":3294:3338  token.transfer(msg.sender, campaign.pledged) */\n      mload(0x40)\n      dup4\n      0xffffffff\n      and\n      0xe0\n      shl\n      dup2\n      mstore\n      0x04\n      add\n      tag_93\n      swap3\n      swap2\n      swap1\n      tag_61\n      jump\t// in\n    tag_93:\n      0x20\n      mload(0x40)\n      dup1\n      dup4\n      sub\n      dup2\n      0x00\n      dup8\n      gas\n      call\n      iszero\n      dup1\n      iszero\n      tag_95\n      jumpi\n      returndatacopy(0x00, 0x00, returndatasize)\n      revert(0x00, returndatasize)\n    tag_95:\n      pop\n      pop\n      pop\n      pop\n      mload(0x40)\n      returndatasize\n      not(0x1f)\n      0x1f\n      dup3\n      add\n      and\n      dup3\n      add\n      dup1\n      0x40\n      mstore\n      pop\n      dup2\n      add\n      swap1\n      tag_96\n      swap2\n      swap1\n      tag_65\n      jump\t// in\n    tag_96:\n      pop\n        /* \"C2E_learning/test.sol\":3353:3363  Claim(_id) */\n      0x7bb2b3c10797baccb6f8c4791f1edd6ca2f0d028ee0eda64b01a9a57e3a653f7\n        /* \"C2E_learning/test.sol\":3359:3362  _id */\n      dup3\n        /* \"C2E_learning/test.sol\":3353:3363  Claim(_id) */\n      mload(0x40)\n      tag_97\n      swap2\n      swap1\n      tag_17\n      jump\t// in\n    tag_97:\n      mload(0x40)\n      dup1\n      swap2\n      sub\n      swap1\n      log1\n        /* \"C2E_learning/test.sol\":2954:3370  {... */\n      pop\n        /* \"C2E_learning/test.sol\":2920:3370  function claim(uint _id) external {... */\n      pop\n      jump\t// out\n        /* \"C2E_learning/test.sol\":1775:2053  function cancel(uint _id) external {... */\n    tag_36:\n        /* \"C2E_learning/test.sol\":1820:1844  Campaign memory campaign */\n      0x00\n        /* \"C2E_learning/test.sol\":1847:1856  campaigns */\n      0x01\n        /* \"C2E_learning/test.sol\":1847:1861  campaigns[_id] */\n      0x00\n        /* \"C2E_learning/test.sol\":1857:1860  _id */\n      dup4\n        /* \"C2E_learning/test.sol\":1847:1861  campaigns[_id] */\n      dup2\n      mstore\n      0x20\n      add\n      swap1\n      dup2\n      mstore\n      0x20\n      add\n      0x00\n      keccak256\n        /* \"C2E_learning/test.sol\":1820:1861  Campaign memory campaign = campaigns[_id] */\n      mload(0x40)\n      dup1\n      0xc0\n      add\n      0x40\n      mstore\n      swap1\n      dup2\n      0x00\n      dup3\n      add\n      0x00\n      swap1\n      sload\n      swap1\n      0x0100\n      exp\n      swap1\n      div\n      0xffffffffffffffffffffffffffffffffffffffff\n      and\n      0xffffffffffffffffffffffffffffffffffffffff\n      and\n      0xffffffffffffffffffffffffffffffffffffffff\n      and\n      dup2\n      mstore\n      0x20\n      add\n      0x01\n      dup3\n      add\n      sload\n      dup2\n      mstore\n      0x20\n      add\n      0x02\n      dup3\n      add\n      sload\n      dup2\n      mstore\n      0x20\n      add\n      0x03\n      dup3\n      add\n      0x00\n      swap1\n      sload\n      swap1\n      0x0100\n      exp\n      swap1\n      div\n      0xffffffff\n      and\n      0xffffffff\n      and\n      0xffffffff\n      and\n      dup2\n      mstore\n      0x20\n      add\n      0x03\n      dup3\n      add\n      0x04\n      swap1\n      sload\n      swap1\n      0x0100\n      exp\n      swap1\n      div\n      0xffffffff\n      and\n      0xffffffff\n      and\n      0xffffffff\n      and\n      dup2\n      mstore\n      0x20\n      add\n      0x03\n      dup3\n      add\n      0x08\n      swap1\n      sload\n      swap1\n      0x0100\n      exp\n      swap1\n      div\n      0xff\n      and\n      iszero\n      iszero\n      iszero\n      iszero\n      dup2\n      mstore\n      pop\n      pop\n      swap1\n      pop\n        /* \"C2E_learning/test.sol\":1893:1901  campaign */\n      dup1\n        /* \"C2E_learning/test.sol\":1893:1909  campaign.creator */\n      0x00\n      add\n      mload\n        /* \"C2E_learning/test.sol\":1879:1909  msg.sender == campaign.creator */\n      0xffffffffffffffffffffffffffffffffffffffff\n      and\n        /* \"C2E_learning/test.sol\":1879:1889  msg.sender */\n      caller\n        /* \"C2E_learning/test.sol\":1879:1909  msg.sender == campaign.creator */\n      0xffffffffffffffffffffffffffffffffffffffff\n      and\n      eq\n        /* \"C2E_learning/test.sol\":1871:1925  require(msg.sender == campaign.creator, \"not creator\") */\n      tag_99\n      jumpi\n      mload(0x40)\n      0x08c379a000000000000000000000000000000000000000000000000000000000\n      dup2\n      mstore\n      0x04\n      add\n      tag_100\n      swap1\n      tag_84\n      jump\t// in\n    tag_100:\n      mload(0x40)\n      dup1\n      swap2\n      sub\n      swap1\n      revert\n    tag_99:\n        /* \"C2E_learning/test.sol\":1961:1969  campaign */\n      dup1\n        /* \"C2E_learning/test.sol\":1961:1977  campaign.startAt */\n      0x60\n      add\n      mload\n        /* \"C2E_learning/test.sol\":1943:1977  block.timestamp < campaign.startAt */\n      0xffffffff\n      and\n        /* \"C2E_learning/test.sol\":1943:1958  block.timestamp */\n      timestamp\n        /* \"C2E_learning/test.sol\":1943:1977  block.timestamp < campaign.startAt */\n      lt\n        /* \"C2E_learning/test.sol\":1935:1989  require(block.timestamp < campaign.startAt, \"started\") */\n      tag_101\n      jumpi\n      mload(0x40)\n      0x08c379a000000000000000000000000000000000000000000000000000000000\n      dup2\n      mstore\n      0x04\n      add\n      tag_102\n      swap1\n      tag_103\n      jump\t// in\n    tag_102:\n      mload(0x40)\n      dup1\n      swap2\n      sub\n      swap1\n      revert\n    tag_101:\n        /* \"C2E_learning/test.sol\":2006:2015  campaigns */\n      0x01\n        /* \"C2E_learning/test.sol\":2006:2020  campaigns[_id] */\n      0x00\n        /* \"C2E_learning/test.sol\":2016:2019  _id */\n      dup4\n        /* \"C2E_learning/test.sol\":2006:2020  campaigns[_id] */\n      dup2\n      mstore\n      0x20\n      add\n      swap1\n      dup2\n      mstore\n      0x20\n      add\n      0x00\n      keccak256\n      0x00\n        /* \"C2E_learning/test.sol\":1999:2020  delete campaigns[_id] */\n      0x00\n      dup3\n      add\n      exp(0x0100, 0x00)\n      dup2\n      sload\n      swap1\n      0xffffffffffffffffffffffffffffffffffffffff\n      mul\n      not\n      and\n      swap1\n      sstore\n      0x01\n      dup3\n      add\n      0x00\n      swap1\n      sstore\n      0x02\n      dup3\n      add\n      0x00\n      swap1\n      sstore\n      0x03\n      dup3\n      add\n      exp(0x0100, 0x00)\n      dup2\n      sload\n      swap1\n      0xffffffff\n      mul\n      not\n      and\n      swap1\n      sstore\n      0x03\n      dup3\n      add\n      exp(0x0100, 0x04)\n      dup2\n      sload\n      swap1\n      0xffffffff\n      mul\n      not\n      and\n      swap1\n      sstore\n      0x03\n      dup3\n      add\n      exp(0x0100, 0x08)\n      dup2\n      sload\n      swap1\n      0xff\n      mul\n      not\n      and\n      swap1\n      sstore\n      pop\n      pop\n        /* \"C2E_learning/test.sol\":2035:2046  Cancel(_id) */\n      0x8bf30e7ff26833413be5f69e1d373744864d600b664204b4a2f9844a8eedb9ed\n        /* \"C2E_learning/test.sol\":2042:2045  _id */\n      dup3\n        /* \"C2E_learning/test.sol\":2035:2046  Cancel(_id) */\n      mload(0x40)\n      tag_104\n      swap2\n      swap1\n      tag_17\n      jump\t// in\n    tag_104:\n      mload(0x40)\n      dup1\n      swap2\n      sub\n      swap1\n      log1\n        /* \"C2E_learning/test.sol\":1810:2053  {... */\n      pop\n        /* \"C2E_learning/test.sol\":1775:2053  function cancel(uint _id) external {... */\n      pop\n      jump\t// out\n        /* \"C2E_learning/test.sol\":2541:2894  function unpledge(uint _id, uint _amount) external {... */\n    tag_40:\n        /* \"C2E_learning/test.sol\":2602:2627  Campaign storage campaign */\n      0x00\n        /* \"C2E_learning/test.sol\":2630:2639  campaigns */\n      0x01\n        /* \"C2E_learning/test.sol\":2630:2644  campaigns[_id] */\n      0x00\n        /* \"C2E_learning/test.sol\":2640:2643  _id */\n      dup5\n        /* \"C2E_learning/test.sol\":2630:2644  campaigns[_id] */\n      dup2\n      mstore\n      0x20\n      add\n      swap1\n      dup2\n      mstore\n      0x20\n      add\n      0x00\n      keccak256\n        /* \"C2E_learning/test.sol\":2602:2644  Campaign storage campaign = campaigns[_id] */\n      swap1\n      pop\n        /* \"C2E_learning/test.sol\":2681:2689  campaign */\n      dup1\n        /* \"C2E_learning/test.sol\":2681:2695  campaign.endAt */\n      0x03\n      add\n      0x04\n      swap1\n      sload\n      swap1\n      0x0100\n      exp\n      swap1\n      div\n      0xffffffff\n      and\n        /* \"C2E_learning/test.sol\":2662:2695  block.timestamp <= campaign.endAt */\n      0xffffffff\n      and\n        /* \"C2E_learning/test.sol\":2662:2677  block.timestamp */\n      timestamp\n        /* \"C2E_learning/test.sol\":2662:2695  block.timestamp <= campaign.endAt */\n      gt\n      iszero\n        /* \"C2E_learning/test.sol\":2654:2705  require(block.timestamp <= campaign.endAt, \"ended\") */\n      tag_106\n      jumpi\n      mload(0x40)\n      0x08c379a000000000000000000000000000000000000000000000000000000000\n      dup2\n      mstore\n      0x04\n      add\n      tag_107\n      swap1\n      tag_108\n      jump\t// in\n    tag_107:\n      mload(0x40)\n      dup1\n      swap2\n      sub\n      swap1\n      revert\n    tag_106:\n        /* \"C2E_learning/test.sol\":2735:2742  _amount */\n      dup2\n        /* \"C2E_learning/test.sol\":2715:2723  campaign */\n      dup2\n        /* \"C2E_learning/test.sol\":2715:2731  campaign.pledged */\n      0x02\n      add\n      0x00\n        /* \"C2E_learning/test.sol\":2715:2742  campaign.pledged -= _amount */\n      dup3\n      dup3\n      sload\n      tag_109\n      swap2\n      swap1\n      tag_110\n      jump\t// in\n    tag_109:\n      swap3\n      pop\n      pop\n      dup2\n      swap1\n      sstore\n      pop\n        /* \"C2E_learning/test.sol\":2786:2793  _amount */\n      dup2\n        /* \"C2E_learning/test.sol\":2752:2765  pledgedAmount */\n      0x02\n        /* \"C2E_learning/test.sol\":2752:2770  pledgedAmount[_id] */\n      0x00\n        /* \"C2E_learning/test.sol\":2766:2769  _id */\n      dup6\n        /* \"C2E_learning/test.sol\":2752:2770  pledgedAmount[_id] */\n      dup2\n      mstore\n      0x20\n      add\n      swap1\n      dup2\n      mstore\n      0x20\n      add\n      0x00\n      keccak256\n        /* \"C2E_learning/test.sol\":2752:2782  pledgedAmount[_id][msg.sender] */\n      0x00\n        /* \"C2E_learning/test.sol\":2771:2781  msg.sender */\n      caller\n        /* \"C2E_learning/test.sol\":2752:2782  pledgedAmount[_id][msg.sender] */\n      0xffffffffffffffffffffffffffffffffffffffff\n      and\n      0xffffffffffffffffffffffffffffffffffffffff\n      and\n      dup2\n      mstore\n      0x20\n      add\n      swap1\n      dup2\n      mstore\n      0x20\n      add\n      0x00\n      keccak256\n      0x00\n        /* \"C2E_learning/test.sol\":2752:2793  pledgedAmount[_id][msg.sender] -= _amount */\n      dup3\n      dup3\n      sload\n      tag_111\n      swap2\n      swap1\n      tag_110\n      jump\t// in\n    tag_111:\n      swap3\n      pop\n      pop\n      dup2\n      swap1\n      sstore\n      pop\n        /* \"C2E_learning/test.sol\":2803:2808  token */\n      immutable(\"0x5392f7a671cdf89487ccf8e3646ea8f7570009490584962db6fa064c6e4ad499\")\n        /* \"C2E_learning/test.sol\":2803:2817  token.transfer */\n      0xffffffffffffffffffffffffffffffffffffffff\n      and\n      0xa9059cbb\n        /* \"C2E_learning/test.sol\":2818:2828  msg.sender */\n      caller\n        /* \"C2E_learning/test.sol\":2830:2837  _amount */\n      dup5\n        /* \"C2E_learning/test.sol\":2803:2838  token.transfer(msg.sender, _amount) */\n      mload(0x40)\n      dup4\n      0xffffffff\n      and\n      0xe0\n      shl\n      dup2\n      mstore\n      0x04\n      add\n      tag_112\n      swap3\n      swap2\n      swap1\n      tag_61\n      jump\t// in\n    tag_112:\n      0x20\n      mload(0x40)\n      dup1\n      dup4\n      sub\n      dup2\n      0x00\n      dup8\n      gas\n      call\n      iszero\n      dup1\n      iszero\n      tag_114\n      jumpi\n      returndatacopy(0x00, 0x00, returndatasize)\n      revert(0x00, returndatasize)\n    tag_114:\n      pop\n      pop\n      pop\n      pop\n      mload(0x40)\n      returndatasize\n      not(0x1f)\n      0x1f\n      dup3\n      add\n      and\n      dup3\n      add\n      dup1\n      0x40\n      mstore\n      pop\n      dup2\n      add\n      swap1\n      tag_115\n      swap2\n      swap1\n      tag_65\n      jump\t// in\n    tag_115:\n      pop\n        /* \"C2E_learning/test.sol\":2867:2877  msg.sender */\n      caller\n        /* \"C2E_learning/test.sol\":2853:2887  Unpledge(_id, msg.sender, _amount) */\n      0xffffffffffffffffffffffffffffffffffffffff\n      and\n        /* \"C2E_learning/test.sol\":2862:2865  _id */\n      dup4\n        /* \"C2E_learning/test.sol\":2853:2887  Unpledge(_id, msg.sender, _amount) */\n      0x2eeeab891b26a214d1b25749f88a406bdea852bd8c9bfda977e0ef8114c180ba\n        /* \"C2E_learning/test.sol\":2879:2886  _amount */\n      dup5\n        /* \"C2E_learning/test.sol\":2853:2887  Unpledge(_id, msg.sender, _amount) */\n      mload(0x40)\n      tag_116\n      swap2\n      swap1\n      tag_17\n      jump\t// in\n    tag_116:\n      mload(0x40)\n      dup1\n      swap2\n      sub\n      swap1\n      log3\n        /* \"C2E_learning/test.sol\":2592:2894  {... */\n      pop\n        /* \"C2E_learning/test.sol\":2541:2894  function unpledge(uint _id, uint _amount) external {... */\n      pop\n      pop\n      jump\t// out\n        /* \"C2E_learning/test.sol\":924:986  mapping(uint => mapping(address => uint)) public pledgedAmount */\n    tag_44:\n      mstore(0x20, 0x02)\n      dup2\n      0x00\n      mstore\n      mstore(0x20, keccak256(0x00, 0x40))\n      dup1\n      0x00\n      mstore\n      keccak256(0x00, 0x40)\n      0x00\n      swap2\n      pop\n      swap2\n      pop\n      pop\n      sload\n      dup2\n      jump\t// out\n        /* \"C2E_learning/test.sol\":818:847  IERC20 public immutable token */\n    tag_47:\n      immutable(\"0x5392f7a671cdf89487ccf8e3646ea8f7570009490584962db6fa064c6e4ad499\")\n      dup2\n      jump\t// out\n        /* \"C2E_learning/test.sol\":2078:2515  function pledge(uint _id, uint _amount) external {... */\n    tag_52:\n        /* \"C2E_learning/test.sol\":2137:2162  Campaign storage campaign */\n      0x00\n        /* \"C2E_learning/test.sol\":2165:2174  campaigns */\n      0x01\n        /* \"C2E_learning/test.sol\":2165:2179  campaigns[_id] */\n      0x00\n        /* \"C2E_learning/test.sol\":2175:2178  _id */\n      dup5\n        /* \"C2E_learning/test.sol\":2165:2179  campaigns[_id] */\n      dup2\n      mstore\n      0x20\n      add\n      swap1\n      dup2\n      mstore\n      0x20\n      add\n      0x00\n      keccak256\n        /* \"C2E_learning/test.sol\":2137:2179  Campaign storage campaign = campaigns[_id] */\n      swap1\n      pop\n        /* \"C2E_learning/test.sol\":2216:2224  campaign */\n      dup1\n        /* \"C2E_learning/test.sol\":2216:2232  campaign.startAt */\n      0x03\n      add\n      0x00\n      swap1\n      sload\n      swap1\n      0x0100\n      exp\n      swap1\n      div\n      0xffffffff\n      and\n        /* \"C2E_learning/test.sol\":2197:2232  block.timestamp >= campaign.startAt */\n      0xffffffff\n      and\n        /* \"C2E_learning/test.sol\":2197:2212  block.timestamp */\n      timestamp\n        /* \"C2E_learning/test.sol\":2197:2232  block.timestamp >= campaign.startAt */\n      lt\n      iszero\n        /* \"C2E_learning/test.sol\":2189:2248  require(block.timestamp >= campaign.startAt, \"not started\") */\n      tag_118\n      jumpi\n      mload(0x40)\n      0x08c379a000000000000000000000000000000000000000000000000000000000\n      dup2\n      mstore\n      0x04\n      add\n      tag_119\n      swap1\n      tag_120\n      jump\t// in\n    tag_119:\n      mload(0x40)\n      dup1\n      swap2\n      sub\n      swap1\n      revert\n    tag_118:\n        /* \"C2E_learning/test.sol\":2285:2293  campaign */\n      dup1\n        /* \"C2E_learning/test.sol\":2285:2299  campaign.endAt */\n      0x03\n      add\n      0x04\n      swap1\n      sload\n      swap1\n      0x0100\n      exp\n      swap1\n      div\n      0xffffffff\n      and\n        /* \"C2E_learning/test.sol\":2266:2299  block.timestamp <= campaign.endAt */\n      0xffffffff\n      and\n        /* \"C2E_learning/test.sol\":2266:2281  block.timestamp */\n      timestamp\n        /* \"C2E_learning/test.sol\":2266:2299  block.timestamp <= campaign.endAt */\n      gt\n      iszero\n        /* \"C2E_learning/test.sol\":2258:2309  require(block.timestamp <= campaign.endAt, \"ended\") */\n      tag_121\n      jumpi\n      mload(0x40)\n      0x08c379a000000000000000000000000000000000000000000000000000000000\n      dup2\n      mstore\n      0x04\n      add\n      tag_122\n      swap1\n      tag_108\n      jump\t// in\n    tag_122:\n      mload(0x40)\n      dup1\n      swap2\n      sub\n      swap1\n      revert\n    tag_121:\n        /* \"C2E_learning/test.sol\":2339:2346  _amount */\n      dup2\n        /* \"C2E_learning/test.sol\":2319:2327  campaign */\n      dup2\n        /* \"C2E_learning/test.sol\":2319:2335  campaign.pledged */\n      0x02\n      add\n      0x00\n        /* \"C2E_learning/test.sol\":2319:2346  campaign.pledged += _amount */\n      dup3\n      dup3\n      sload\n      tag_123\n      swap2\n      swap1\n      tag_78\n      jump\t// in\n    tag_123:\n      swap3\n      pop\n      pop\n      dup2\n      swap1\n      sstore\n      pop\n        /* \"C2E_learning/test.sol\":2390:2397  _amount */\n      dup2\n        /* \"C2E_learning/test.sol\":2356:2369  pledgedAmount */\n      0x02\n        /* \"C2E_learning/test.sol\":2356:2374  pledgedAmount[_id] */\n      0x00\n        /* \"C2E_learning/test.sol\":2370:2373  _id */\n      dup6\n        /* \"C2E_learning/test.sol\":2356:2374  pledgedAmount[_id] */\n      dup2\n      mstore\n      0x20\n      add\n      swap1\n      dup2\n      mstore\n      0x20\n      add\n      0x00\n      keccak256\n        /* \"C2E_learning/test.sol\":2356:2386  pledgedAmount[_id][msg.sender] */\n      0x00\n        /* \"C2E_learning/test.sol\":2375:2385  msg.sender */\n      caller\n        /* \"C2E_learning/test.sol\":2356:2386  pledgedAmount[_id][msg.sender] */\n      0xffffffffffffffffffffffffffffffffffffffff\n      and\n      0xffffffffffffffffffffffffffffffffffffffff\n      and\n      dup2\n      mstore\n      0x20\n      add\n      swap1\n      dup2\n      mstore\n      0x20\n      add\n      0x00\n      keccak256\n      0x00\n        /* \"C2E_learning/test.sol\":2356:2397  pledgedAmount[_id][msg.sender] += _amount */\n      dup3\n      dup3\n      sload\n      tag_124\n      swap2\n      swap1\n      tag_78\n      jump\t// in\n    tag_124:\n      swap3\n      pop\n      pop\n      dup2\n      swap1\n      sstore\n      pop\n        /* \"C2E_learning/test.sol\":2407:2412  token */\n      immutable(\"0x5392f7a671cdf89487ccf8e3646ea8f7570009490584962db6fa064c6e4ad499\")\n        /* \"C2E_learning/test.sol\":2407:2425  token.transferFrom */\n      0xffffffffffffffffffffffffffffffffffffffff\n      and\n      0x23b872dd\n        /* \"C2E_learning/test.sol\":2426:2436  msg.sender */\n      caller\n        /* \"C2E_learning/test.sol\":2446:2450  this */\n      address\n        /* \"C2E_learning/test.sol\":2453:2460  _amount */\n      dup6\n        /* \"C2E_learning/test.sol\":2407:2461  token.transferFrom(msg.sender, address(this), _amount) */\n      mload(0x40)\n      dup5\n      0xffffffff\n      and\n      0xe0\n      shl\n      dup2\n      mstore\n      0x04\n      add\n      tag_125\n      swap4\n      swap3\n      swap2\n      swap1\n      tag_126\n      jump\t// in\n    tag_125:\n      0x20\n      mload(0x40)\n      dup1\n      dup4\n      sub\n      dup2\n      0x00\n      dup8\n      gas\n      call\n      iszero\n      dup1\n      iszero\n      tag_128\n      jumpi\n      returndatacopy(0x00, 0x00, returndatasize)\n      revert(0x00, returndatasize)\n    tag_128:\n      pop\n      pop\n      pop\n      pop\n      mload(0x40)\n      returndatasize\n      not(0x1f)\n      0x1f\n      dup3\n      add\n      and\n      dup3\n      add\n      dup1\n      0x40\n      mstore\n      pop\n      dup2\n      add\n      swap1\n      tag_129\n      swap2\n      swap1\n      tag_65\n      jump\t// in\n    tag_129:\n      pop\n        /* \"C2E_learning/test.sol\":2488:2498  msg.sender */\n      caller\n        /* \"C2E_learning/test.sol\":2476:2508  Pledge(_id, msg.sender, _amount) */\n      0xffffffffffffffffffffffffffffffffffffffff\n      and\n        /* \"C2E_learning/test.sol\":2483:2486  _id */\n      dup4\n        /* \"C2E_learning/test.sol\":2476:2508  Pledge(_id, msg.sender, _amount) */\n      0x06bdb975df800a73232998e71ed585d536222f1dfeaa622d7f62a23ada686c82\n        /* \"C2E_learning/test.sol\":2500:2507  _amount */\n      dup5\n        /* \"C2E_learning/test.sol\":2476:2508  Pledge(_id, msg.sender, _amount) */\n      mload(0x40)\n      tag_130\n      swap2\n      swap1\n      tag_17\n      jump\t// in\n    tag_130:\n      mload(0x40)\n      dup1\n      swap2\n      sub\n      swap1\n      log3\n        /* \"C2E_learning/test.sol\":2127:2515  {... */\n      pop\n        /* \"C2E_learning/test.sol\":2078:2515  function pledge(uint _id, uint _amount) external {... */\n      pop\n      pop\n      jump\t// out\n        /* \"#utility.yul\":7:84   */\n    tag_131:\n        /* \"#utility.yul\":44:51   */\n      0x00\n        /* \"#utility.yul\":73:78   */\n      dup2\n        /* \"#utility.yul\":62:78   */\n      swap1\n      pop\n        /* \"#utility.yul\":7:84   */\n      swap2\n      swap1\n      pop\n      jump\t// out\n        /* \"#utility.yul\":90:208   */\n    tag_132:\n        /* \"#utility.yul\":177:201   */\n      tag_181\n        /* \"#utility.yul\":195:200   */\n      dup2\n        /* \"#utility.yul\":177:201   */\n      tag_131\n      jump\t// in\n    tag_181:\n        /* \"#utility.yul\":172:175   */\n      dup3\n        /* \"#utility.yul\":165:202   */\n      mstore\n        /* \"#utility.yul\":90:208   */\n      pop\n      pop\n      jump\t// out\n        /* \"#utility.yul\":214:436   */\n    tag_17:\n        /* \"#utility.yul\":307:311   */\n      0x00\n        /* \"#utility.yul\":345:347   */\n      0x20\n        /* \"#utility.yul\":334:343   */\n      dup3\n        /* \"#utility.yul\":330:348   */\n      add\n        /* \"#utility.yul\":322:348   */\n      swap1\n      pop\n        /* \"#utility.yul\":358:429   */\n      tag_183\n        /* \"#utility.yul\":426:427   */\n      0x00\n        /* \"#utility.yul\":415:424   */\n      dup4\n        /* \"#utility.yul\":411:428   */\n      add\n        /* \"#utility.yul\":402:408   */\n      dup5\n        /* \"#utility.yul\":358:429   */\n      tag_132\n      jump\t// in\n    tag_183:\n        /* \"#utility.yul\":214:436   */\n      swap3\n      swap2\n      pop\n      pop\n      jump\t// out\n        /* \"#utility.yul\":523:640   */\n    tag_134:\n        /* \"#utility.yul\":632:633   */\n      0x00\n        /* \"#utility.yul\":629:630   */\n      0x00\n        /* \"#utility.yul\":622:634   */\n      revert\n        /* \"#utility.yul\":769:891   */\n    tag_136:\n        /* \"#utility.yul\":842:866   */\n      tag_188\n        /* \"#utility.yul\":860:865   */\n      dup2\n        /* \"#utility.yul\":842:866   */\n      tag_131\n      jump\t// in\n    tag_188:\n        /* \"#utility.yul\":835:840   */\n      dup2\n        /* \"#utility.yul\":832:867   */\n      eq\n        /* \"#utility.yul\":822:885   */\n      tag_189\n      jumpi\n        /* \"#utility.yul\":881:882   */\n      0x00\n        /* \"#utility.yul\":878:879   */\n      0x00\n        /* \"#utility.yul\":871:883   */\n      revert\n        /* \"#utility.yul\":822:885   */\n    tag_189:\n        /* \"#utility.yul\":769:891   */\n      pop\n      jump\t// out\n        /* \"#utility.yul\":897:1036   */\n    tag_137:\n        /* \"#utility.yul\":943:948   */\n      0x00\n        /* \"#utility.yul\":981:987   */\n      dup2\n        /* \"#utility.yul\":968:988   */\n      calldataload\n        /* \"#utility.yul\":959:988   */\n      swap1\n      pop\n        /* \"#utility.yul\":997:1030   */\n      tag_191\n        /* \"#utility.yul\":1024:1029   */\n      dup2\n        /* \"#utility.yul\":997:1030   */\n      tag_136\n      jump\t// in\n    tag_191:\n        /* \"#utility.yul\":897:1036   */\n      swap3\n      swap2\n      pop\n      pop\n      jump\t// out\n        /* \"#utility.yul\":1042:1371   */\n    tag_20:\n        /* \"#utility.yul\":1101:1107   */\n      0x00\n        /* \"#utility.yul\":1150:1152   */\n      0x20\n        /* \"#utility.yul\":1138:1147   */\n      dup3\n        /* \"#utility.yul\":1129:1136   */\n      dup5\n        /* \"#utility.yul\":1125:1148   */\n      sub\n        /* \"#utility.yul\":1121:1153   */\n      slt\n        /* \"#utility.yul\":1118:1237   */\n      iszero\n      tag_193\n      jumpi\n        /* \"#utility.yul\":1156:1235   */\n      tag_194\n      tag_134\n      jump\t// in\n    tag_194:\n        /* \"#utility.yul\":1118:1237   */\n    tag_193:\n        /* \"#utility.yul\":1276:1277   */\n      0x00\n        /* \"#utility.yul\":1301:1354   */\n      tag_195\n        /* \"#utility.yul\":1346:1353   */\n      dup5\n        /* \"#utility.yul\":1337:1343   */\n      dup3\n        /* \"#utility.yul\":1326:1335   */\n      dup6\n        /* \"#utility.yul\":1322:1344   */\n      add\n        /* \"#utility.yul\":1301:1354   */\n      tag_137\n      jump\t// in\n    tag_195:\n        /* \"#utility.yul\":1291:1354   */\n      swap2\n      pop\n        /* \"#utility.yul\":1247:1364   */\n      pop\n        /* \"#utility.yul\":1042:1371   */\n      swap3\n      swap2\n      pop\n      pop\n      jump\t// out\n        /* \"#utility.yul\":1377:1503   */\n    tag_138:\n        /* \"#utility.yul\":1414:1421   */\n      0x00\n        /* \"#utility.yul\":1454:1496   */\n      0xffffffffffffffffffffffffffffffffffffffff\n        /* \"#utility.yul\":1447:1452   */\n      dup3\n        /* \"#utility.yul\":1443:1497   */\n      and\n        /* \"#utility.yul\":1432:1497   */\n      swap1\n      pop\n        /* \"#utility.yul\":1377:1503   */\n      swap2\n      swap1\n      pop\n      jump\t// out\n        /* \"#utility.yul\":1509:1605   */\n    tag_139:\n        /* \"#utility.yul\":1546:1553   */\n      0x00\n        /* \"#utility.yul\":1575:1599   */\n      tag_198\n        /* \"#utility.yul\":1593:1598   */\n      dup3\n        /* \"#utility.yul\":1575:1599   */\n      tag_138\n      jump\t// in\n    tag_198:\n        /* \"#utility.yul\":1564:1599   */\n      swap1\n      pop\n        /* \"#utility.yul\":1509:1605   */\n      swap2\n      swap1\n      pop\n      jump\t// out\n        /* \"#utility.yul\":1611:1729   */\n    tag_140:\n        /* \"#utility.yul\":1698:1722   */\n      tag_200\n        /* \"#utility.yul\":1716:1721   */\n      dup2\n        /* \"#utility.yul\":1698:1722   */\n      tag_139\n      jump\t// in\n    tag_200:\n        /* \"#utility.yul\":1693:1696   */\n      dup3\n        /* \"#utility.yul\":1686:1723   */\n      mstore\n        /* \"#utility.yul\":1611:1729   */\n      pop\n      pop\n      jump\t// out\n        /* \"#utility.yul\":1735:1828   */\n    tag_141:\n        /* \"#utility.yul\":1771:1778   */\n      0x00\n        /* \"#utility.yul\":1811:1821   */\n      0xffffffff\n        /* \"#utility.yul\":1804:1809   */\n      dup3\n        /* \"#utility.yul\":1800:1822   */\n      and\n        /* \"#utility.yul\":1789:1822   */\n      swap1\n      pop\n        /* \"#utility.yul\":1735:1828   */\n      swap2\n      swap1\n      pop\n      jump\t// out\n        /* \"#utility.yul\":1834:1949   */\n    tag_142:\n        /* \"#utility.yul\":1919:1942   */\n      tag_203\n        /* \"#utility.yul\":1936:1941   */\n      dup2\n        /* \"#utility.yul\":1919:1942   */\n      tag_141\n      jump\t// in\n    tag_203:\n        /* \"#utility.yul\":1914:1917   */\n      dup3\n        /* \"#utility.yul\":1907:1943   */\n      mstore\n        /* \"#utility.yul\":1834:1949   */\n      pop\n      pop\n      jump\t// out\n        /* \"#utility.yul\":1955:2045   */\n    tag_143:\n        /* \"#utility.yul\":1989:1996   */\n      0x00\n        /* \"#utility.yul\":2032:2037   */\n      dup2\n        /* \"#utility.yul\":2025:2038   */\n      iszero\n        /* \"#utility.yul\":2018:2039   */\n      iszero\n        /* \"#utility.yul\":2007:2039   */\n      swap1\n      pop\n        /* \"#utility.yul\":1955:2045   */\n      swap2\n      swap1\n      pop\n      jump\t// out\n        /* \"#utility.yul\":2051:2160   */\n    tag_144:\n        /* \"#utility.yul\":2132:2153   */\n      tag_206\n        /* \"#utility.yul\":2147:2152   */\n      dup2\n        /* \"#utility.yul\":2132:2153   */\n      tag_143\n      jump\t// in\n    tag_206:\n        /* \"#utility.yul\":2127:2130   */\n      dup3\n        /* \"#utility.yul\":2120:2154   */\n      mstore\n        /* \"#utility.yul\":2051:2160   */\n      pop\n      pop\n      jump\t// out\n        /* \"#utility.yul\":2166:2921   */\n    tag_23:\n        /* \"#utility.yul\":2389:2393   */\n      0x00\n        /* \"#utility.yul\":2427:2430   */\n      0xc0\n        /* \"#utility.yul\":2416:2425   */\n      dup3\n        /* \"#utility.yul\":2412:2431   */\n      add\n        /* \"#utility.yul\":2404:2431   */\n      swap1\n      pop\n        /* \"#utility.yul\":2441:2512   */\n      tag_208\n        /* \"#utility.yul\":2509:2510   */\n      0x00\n        /* \"#utility.yul\":2498:2507   */\n      dup4\n        /* \"#utility.yul\":2494:2511   */\n      add\n        /* \"#utility.yul\":2485:2491   */\n      dup10\n        /* \"#utility.yul\":2441:2512   */\n      tag_140\n      jump\t// in\n    tag_208:\n        /* \"#utility.yul\":2522:2594   */\n      tag_209\n        /* \"#utility.yul\":2590:2592   */\n      0x20\n        /* \"#utility.yul\":2579:2588   */\n      dup4\n        /* \"#utility.yul\":2575:2593   */\n      add\n        /* \"#utility.yul\":2566:2572   */\n      dup9\n        /* \"#utility.yul\":2522:2594   */\n      tag_132\n      jump\t// in\n    tag_209:\n        /* \"#utility.yul\":2604:2676   */\n      tag_210\n        /* \"#utility.yul\":2672:2674   */\n      0x40\n        /* \"#utility.yul\":2661:2670   */\n      dup4\n        /* \"#utility.yul\":2657:2675   */\n      add\n        /* \"#utility.yul\":2648:2654   */\n      dup8\n        /* \"#utility.yul\":2604:2676   */\n      tag_132\n      jump\t// in\n    tag_210:\n        /* \"#utility.yul\":2686:2756   */\n      tag_211\n        /* \"#utility.yul\":2752:2754   */\n      0x60\n        /* \"#utility.yul\":2741:2750   */\n      dup4\n        /* \"#utility.yul\":2737:2755   */\n      add\n        /* \"#utility.yul\":2728:2734   */\n      dup7\n        /* \"#utility.yul\":2686:2756   */\n      tag_142\n      jump\t// in\n    tag_211:\n        /* \"#utility.yul\":2766:2837   */\n      tag_212\n        /* \"#utility.yul\":2832:2835   */\n      0x80\n        /* \"#utility.yul\":2821:2830   */\n      dup4\n        /* \"#utility.yul\":2817:2836   */\n      add\n        /* \"#utility.yul\":2808:2814   */\n      dup6\n        /* \"#utility.yul\":2766:2837   */\n      tag_142\n      jump\t// in\n    tag_212:\n        /* \"#utility.yul\":2847:2914   */\n      tag_213\n        /* \"#utility.yul\":2909:2912   */\n      0xa0\n        /* \"#utility.yul\":2898:2907   */\n      dup4\n        /* \"#utility.yul\":2894:2913   */\n      add\n        /* \"#utility.yul\":2885:2891   */\n      dup5\n        /* \"#utility.yul\":2847:2914   */\n      tag_144\n      jump\t// in\n    tag_213:\n        /* \"#utility.yul\":2166:2921   */\n      swap8\n      swap7\n      pop\n      pop\n      pop\n      pop\n      pop\n      pop\n      pop\n      jump\t// out\n        /* \"#utility.yul\":2927:3047   */\n    tag_145:\n        /* \"#utility.yul\":2999:3022   */\n      tag_215\n        /* \"#utility.yul\":3016:3021   */\n      dup2\n        /* \"#utility.yul\":2999:3022   */\n      tag_141\n      jump\t// in\n    tag_215:\n        /* \"#utility.yul\":2992:2997   */\n      dup2\n        /* \"#utility.yul\":2989:3023   */\n      eq\n        /* \"#utility.yul\":2979:3041   */\n      tag_216\n      jumpi\n        /* \"#utility.yul\":3037:3038   */\n      0x00\n        /* \"#utility.yul\":3034:3035   */\n      0x00\n        /* \"#utility.yul\":3027:3039   */\n      revert\n        /* \"#utility.yul\":2979:3041   */\n    tag_216:\n        /* \"#utility.yul\":2927:3047   */\n      pop\n      jump\t// out\n        /* \"#utility.yul\":3053:3190   */\n    tag_146:\n        /* \"#utility.yul\":3098:3103   */\n      0x00\n        /* \"#utility.yul\":3136:3142   */\n      dup2\n        /* \"#utility.yul\":3123:3143   */\n      calldataload\n        /* \"#utility.yul\":3114:3143   */\n      swap1\n      pop\n        /* \"#utility.yul\":3152:3184   */\n      tag_218\n        /* \"#utility.yul\":3178:3183   */\n      dup2\n        /* \"#utility.yul\":3152:3184   */\n      tag_145\n      jump\t// in\n    tag_218:\n        /* \"#utility.yul\":3053:3190   */\n      swap3\n      swap2\n      pop\n      pop\n      jump\t// out\n        /* \"#utility.yul\":3196:3811   */\n    tag_29:\n        /* \"#utility.yul\":3271:3277   */\n      0x00\n        /* \"#utility.yul\":3279:3285   */\n      0x00\n        /* \"#utility.yul\":3287:3293   */\n      0x00\n        /* \"#utility.yul\":3336:3338   */\n      0x60\n        /* \"#utility.yul\":3324:3333   */\n      dup5\n        /* \"#utility.yul\":3315:3322   */\n      dup7\n        /* \"#utility.yul\":3311:3334   */\n      sub\n        /* \"#utility.yul\":3307:3339   */\n      slt\n        /* \"#utility.yul\":3304:3423   */\n      iszero\n      tag_220\n      jumpi\n        /* \"#utility.yul\":3342:3421   */\n      tag_221\n      tag_134\n      jump\t// in\n    tag_221:\n        /* \"#utility.yul\":3304:3423   */\n    tag_220:\n        /* \"#utility.yul\":3462:3463   */\n      0x00\n        /* \"#utility.yul\":3487:3540   */\n      tag_222\n        /* \"#utility.yul\":3532:3539   */\n      dup7\n        /* \"#utility.yul\":3523:3529   */\n      dup3\n        /* \"#utility.yul\":3512:3521   */\n      dup8\n        /* \"#utility.yul\":3508:3530   */\n      add\n        /* \"#utility.yul\":3487:3540   */\n      tag_137\n      jump\t// in\n    tag_222:\n        /* \"#utility.yul\":3477:3540   */\n      swap4\n      pop\n        /* \"#utility.yul\":3433:3550   */\n      pop\n        /* \"#utility.yul\":3589:3591   */\n      0x20\n        /* \"#utility.yul\":3615:3667   */\n      tag_223\n        /* \"#utility.yul\":3659:3666   */\n      dup7\n        /* \"#utility.yul\":3650:3656   */\n      dup3\n        /* \"#utility.yul\":3639:3648   */\n      dup8\n        /* \"#utility.yul\":3635:3657   */\n      add\n        /* \"#utility.yul\":3615:3667   */\n      tag_146\n      jump\t// in\n    tag_223:\n        /* \"#utility.yul\":3605:3667   */\n      swap3\n      pop\n        /* \"#utility.yul\":3560:3677   */\n      pop\n        /* \"#utility.yul\":3716:3718   */\n      0x40\n        /* \"#utility.yul\":3742:3794   */\n      tag_224\n        /* \"#utility.yul\":3786:3793   */\n      dup7\n        /* \"#utility.yul\":3777:3783   */\n      dup3\n        /* \"#utility.yul\":3766:3775   */\n      dup8\n        /* \"#utility.yul\":3762:3784   */\n      add\n        /* \"#utility.yul\":3742:3794   */\n      tag_146\n      jump\t// in\n    tag_224:\n        /* \"#utility.yul\":3732:3794   */\n      swap2\n      pop\n        /* \"#utility.yul\":3687:3804   */\n      pop\n        /* \"#utility.yul\":3196:3811   */\n      swap3\n      pop\n      swap3\n      pop\n      swap3\n      jump\t// out\n        /* \"#utility.yul\":3817:4291   */\n    tag_39:\n        /* \"#utility.yul\":3885:3891   */\n      0x00\n        /* \"#utility.yul\":3893:3899   */\n      0x00\n        /* \"#utility.yul\":3942:3944   */\n      0x40\n        /* \"#utility.yul\":3930:3939   */\n      dup4\n        /* \"#utility.yul\":3921:3928   */\n      dup6\n        /* \"#utility.yul\":3917:3940   */\n      sub\n        /* \"#utility.yul\":3913:3945   */\n      slt\n        /* \"#utility.yul\":3910:4029   */\n      iszero\n      tag_226\n      jumpi\n        /* \"#utility.yul\":3948:4027   */\n      tag_227\n      tag_134\n      jump\t// in\n    tag_227:\n        /* \"#utility.yul\":3910:4029   */\n    tag_226:\n        /* \"#utility.yul\":4068:4069   */\n      0x00\n        /* \"#utility.yul\":4093:4146   */\n      tag_228\n        /* \"#utility.yul\":4138:4145   */\n      dup6\n        /* \"#utility.yul\":4129:4135   */\n      dup3\n        /* \"#utility.yul\":4118:4127   */\n      dup7\n        /* \"#utility.yul\":4114:4136   */\n      add\n        /* \"#utility.yul\":4093:4146   */\n      tag_137\n      jump\t// in\n    tag_228:\n        /* \"#utility.yul\":4083:4146   */\n      swap3\n      pop\n        /* \"#utility.yul\":4039:4156   */\n      pop\n        /* \"#utility.yul\":4195:4197   */\n      0x20\n        /* \"#utility.yul\":4221:4274   */\n      tag_229\n        /* \"#utility.yul\":4266:4273   */\n      dup6\n        /* \"#utility.yul\":4257:4263   */\n      dup3\n        /* \"#utility.yul\":4246:4255   */\n      dup7\n        /* \"#utility.yul\":4242:4264   */\n      add\n        /* \"#utility.yul\":4221:4274   */\n      tag_137\n      jump\t// in\n    tag_229:\n        /* \"#utility.yul\":4211:4274   */\n      swap2\n      pop\n        /* \"#utility.yul\":4166:4284   */\n      pop\n        /* \"#utility.yul\":3817:4291   */\n      swap3\n      pop\n      swap3\n      swap1\n      pop\n      jump\t// out\n        /* \"#utility.yul\":4297:4419   */\n    tag_147:\n        /* \"#utility.yul\":4370:4394   */\n      tag_231\n        /* \"#utility.yul\":4388:4393   */\n      dup2\n        /* \"#utility.yul\":4370:4394   */\n      tag_139\n      jump\t// in\n    tag_231:\n        /* \"#utility.yul\":4363:4368   */\n      dup2\n        /* \"#utility.yul\":4360:4395   */\n      eq\n        /* \"#utility.yul\":4350:4413   */\n      tag_232\n      jumpi\n        /* \"#utility.yul\":4409:4410   */\n      0x00\n        /* \"#utility.yul\":4406:4407   */\n      0x00\n        /* \"#utility.yul\":4399:4411   */\n      revert\n        /* \"#utility.yul\":4350:4413   */\n    tag_232:\n        /* \"#utility.yul\":4297:4419   */\n      pop\n      jump\t// out\n        /* \"#utility.yul\":4425:4564   */\n    tag_148:\n        /* \"#utility.yul\":4471:4476   */\n      0x00\n        /* \"#utility.yul\":4509:4515   */\n      dup2\n        /* \"#utility.yul\":4496:4516   */\n      calldataload\n        /* \"#utility.yul\":4487:4516   */\n      swap1\n      pop\n        /* \"#utility.yul\":4525:4558   */\n      tag_234\n        /* \"#utility.yul\":4552:4557   */\n      dup2\n        /* \"#utility.yul\":4525:4558   */\n      tag_147\n      jump\t// in\n    tag_234:\n        /* \"#utility.yul\":4425:4564   */\n      swap3\n      swap2\n      pop\n      pop\n      jump\t// out\n        /* \"#utility.yul\":4570:5044   */\n    tag_43:\n        /* \"#utility.yul\":4638:4644   */\n      0x00\n        /* \"#utility.yul\":4646:4652   */\n      0x00\n        /* \"#utility.yul\":4695:4697   */\n      0x40\n        /* \"#utility.yul\":4683:4692   */\n      dup4\n        /* \"#utility.yul\":4674:4681   */\n      dup6\n        /* \"#utility.yul\":4670:4693   */\n      sub\n        /* \"#utility.yul\":4666:4698   */\n      slt\n        /* \"#utility.yul\":4663:4782   */\n      iszero\n      tag_236\n      jumpi\n        /* \"#utility.yul\":4701:4780   */\n      tag_237\n      tag_134\n      jump\t// in\n    tag_237:\n        /* \"#utility.yul\":4663:4782   */\n    tag_236:\n        /* \"#utility.yul\":4821:4822   */\n      0x00\n        /* \"#utility.yul\":4846:4899   */\n      tag_238\n        /* \"#utility.yul\":4891:4898   */\n      dup6\n        /* \"#utility.yul\":4882:4888   */\n      dup3\n        /* \"#utility.yul\":4871:4880   */\n      dup7\n        /* \"#utility.yul\":4867:4889   */\n      add\n        /* \"#utility.yul\":4846:4899   */\n      tag_137\n      jump\t// in\n    tag_238:\n        /* \"#utility.yul\":4836:4899   */\n      swap3\n      pop\n        /* \"#utility.yul\":4792:4909   */\n      pop\n        /* \"#utility.yul\":4948:4950   */\n      0x20\n        /* \"#utility.yul\":4974:5027   */\n      tag_239\n        /* \"#utility.yul\":5019:5026   */\n      dup6\n        /* \"#utility.yul\":5010:5016   */\n      dup3\n        /* \"#utility.yul\":4999:5008   */\n      dup7\n        /* \"#utility.yul\":4995:5017   */\n      add\n        /* \"#utility.yul\":4974:5027   */\n      tag_148\n      jump\t// in\n    tag_239:\n        /* \"#utility.yul\":4964:5027   */\n      swap2\n      pop\n        /* \"#utility.yul\":4919:5037   */\n      pop\n        /* \"#utility.yul\":4570:5044   */\n      swap3\n      pop\n      swap3\n      swap1\n      pop\n      jump\t// out\n        /* \"#utility.yul\":5050:5110   */\n    tag_149:\n        /* \"#utility.yul\":5078:5081   */\n      0x00\n        /* \"#utility.yul\":5099:5104   */\n      dup2\n        /* \"#utility.yul\":5092:5104   */\n      swap1\n      pop\n        /* \"#utility.yul\":5050:5110   */\n      swap2\n      swap1\n      pop\n      jump\t// out\n        /* \"#utility.yul\":5116:5258   */\n    tag_150:\n        /* \"#utility.yul\":5166:5175   */\n      0x00\n        /* \"#utility.yul\":5199:5252   */\n      tag_242\n        /* \"#utility.yul\":5217:5251   */\n      tag_243\n        /* \"#utility.yul\":5226:5250   */\n      tag_244\n        /* \"#utility.yul\":5244:5249   */\n      dup5\n        /* \"#utility.yul\":5226:5250   */\n      tag_138\n      jump\t// in\n    tag_244:\n        /* \"#utility.yul\":5217:5251   */\n      tag_149\n      jump\t// in\n    tag_243:\n        /* \"#utility.yul\":5199:5252   */\n      tag_138\n      jump\t// in\n    tag_242:\n        /* \"#utility.yul\":5186:5252   */\n      swap1\n      pop\n        /* \"#utility.yul\":5116:5258   */\n      swap2\n      swap1\n      pop\n      jump\t// out\n        /* \"#utility.yul\":5264:5390   */\n    tag_151:\n        /* \"#utility.yul\":5314:5323   */\n      0x00\n        /* \"#utility.yul\":5347:5384   */\n      tag_246\n        /* \"#utility.yul\":5378:5383   */\n      dup3\n        /* \"#utility.yul\":5347:5384   */\n      tag_150\n      jump\t// in\n    tag_246:\n        /* \"#utility.yul\":5334:5384   */\n      swap1\n      pop\n        /* \"#utility.yul\":5264:5390   */\n      swap2\n      swap1\n      pop\n      jump\t// out\n        /* \"#utility.yul\":5396:5535   */\n    tag_152:\n        /* \"#utility.yul\":5459:5468   */\n      0x00\n        /* \"#utility.yul\":5492:5529   */\n      tag_248\n        /* \"#utility.yul\":5523:5528   */\n      dup3\n        /* \"#utility.yul\":5492:5529   */\n      tag_151\n      jump\t// in\n    tag_248:\n        /* \"#utility.yul\":5479:5529   */\n      swap1\n      pop\n        /* \"#utility.yul\":5396:5535   */\n      swap2\n      swap1\n      pop\n      jump\t// out\n        /* \"#utility.yul\":5541:5698   */\n    tag_153:\n        /* \"#utility.yul\":5641:5691   */\n      tag_250\n        /* \"#utility.yul\":5685:5690   */\n      dup2\n        /* \"#utility.yul\":5641:5691   */\n      tag_152\n      jump\t// in\n    tag_250:\n        /* \"#utility.yul\":5636:5639   */\n      dup3\n        /* \"#utility.yul\":5629:5692   */\n      mstore\n        /* \"#utility.yul\":5541:5698   */\n      pop\n      pop\n      jump\t// out\n        /* \"#utility.yul\":5704:5952   */\n    tag_49:\n        /* \"#utility.yul\":5810:5814   */\n      0x00\n        /* \"#utility.yul\":5848:5850   */\n      0x20\n        /* \"#utility.yul\":5837:5846   */\n      dup3\n        /* \"#utility.yul\":5833:5851   */\n      add\n        /* \"#utility.yul\":5825:5851   */\n      swap1\n      pop\n        /* \"#utility.yul\":5861:5945   */\n      tag_252\n        /* \"#utility.yul\":5942:5943   */\n      0x00\n        /* \"#utility.yul\":5931:5940   */\n      dup4\n        /* \"#utility.yul\":5927:5944   */\n      add\n        /* \"#utility.yul\":5918:5924   */\n      dup5\n        /* \"#utility.yul\":5861:5945   */\n      tag_153\n      jump\t// in\n    tag_252:\n        /* \"#utility.yul\":5704:5952   */\n      swap3\n      swap2\n      pop\n      pop\n      jump\t// out\n        /* \"#utility.yul\":5958:6127   */\n    tag_154:\n        /* \"#utility.yul\":6042:6053   */\n      0x00\n        /* \"#utility.yul\":6076:6082   */\n      dup3\n        /* \"#utility.yul\":6071:6074   */\n      dup3\n        /* \"#utility.yul\":6064:6083   */\n      mstore\n        /* \"#utility.yul\":6116:6120   */\n      0x20\n        /* \"#utility.yul\":6111:6114   */\n      dup3\n        /* \"#utility.yul\":6107:6121   */\n      add\n        /* \"#utility.yul\":6092:6121   */\n      swap1\n      pop\n        /* \"#utility.yul\":5958:6127   */\n      swap3\n      swap2\n      pop\n      pop\n      jump\t// out\n        /* \"#utility.yul\":6133:6292   */\n    tag_155:\n        /* \"#utility.yul\":6273:6284   */\n      0x6e6f7420656e6465640000000000000000000000000000000000000000000000\n        /* \"#utility.yul\":6269:6270   */\n      0x00\n        /* \"#utility.yul\":6261:6267   */\n      dup3\n        /* \"#utility.yul\":6257:6271   */\n      add\n        /* \"#utility.yul\":6250:6285   */\n      mstore\n        /* \"#utility.yul\":6133:6292   */\n      pop\n      jump\t// out\n        /* \"#utility.yul\":6298:6663   */\n    tag_156:\n        /* \"#utility.yul\":6440:6443   */\n      0x00\n        /* \"#utility.yul\":6461:6527   */\n      tag_256\n        /* \"#utility.yul\":6525:6526   */\n      0x09\n        /* \"#utility.yul\":6520:6523   */\n      dup4\n        /* \"#utility.yul\":6461:6527   */\n      tag_154\n      jump\t// in\n    tag_256:\n        /* \"#utility.yul\":6454:6527   */\n      swap2\n      pop\n        /* \"#utility.yul\":6536:6629   */\n      tag_257\n        /* \"#utility.yul\":6625:6628   */\n      dup3\n        /* \"#utility.yul\":6536:6629   */\n      tag_155\n      jump\t// in\n    tag_257:\n        /* \"#utility.yul\":6654:6656   */\n      0x20\n        /* \"#utility.yul\":6649:6652   */\n      dup3\n        /* \"#utility.yul\":6645:6657   */\n      add\n        /* \"#utility.yul\":6638:6657   */\n      swap1\n      pop\n        /* \"#utility.yul\":6298:6663   */\n      swap2\n      swap1\n      pop\n      jump\t// out\n        /* \"#utility.yul\":6669:7088   */\n    tag_56:\n        /* \"#utility.yul\":6835:6839   */\n      0x00\n        /* \"#utility.yul\":6873:6875   */\n      0x20\n        /* \"#utility.yul\":6862:6871   */\n      dup3\n        /* \"#utility.yul\":6858:6876   */\n      add\n        /* \"#utility.yul\":6850:6876   */\n      swap1\n      pop\n        /* \"#utility.yul\":6922:6931   */\n      dup2\n        /* \"#utility.yul\":6916:6920   */\n      dup2\n        /* \"#utility.yul\":6912:6932   */\n      sub\n        /* \"#utility.yul\":6908:6909   */\n      0x00\n        /* \"#utility.yul\":6897:6906   */\n      dup4\n        /* \"#utility.yul\":6893:6910   */\n      add\n        /* \"#utility.yul\":6886:6933   */\n      mstore\n        /* \"#utility.yul\":6950:7081   */\n      tag_259\n        /* \"#utility.yul\":7076:7080   */\n      dup2\n        /* \"#utility.yul\":6950:7081   */\n      tag_156\n      jump\t// in\n    tag_259:\n        /* \"#utility.yul\":6942:7081   */\n      swap1\n      pop\n        /* \"#utility.yul\":6669:7088   */\n      swap2\n      swap1\n      pop\n      jump\t// out\n        /* \"#utility.yul\":7094:7259   */\n    tag_157:\n        /* \"#utility.yul\":7234:7251   */\n      0x706c6564676564203e3d20676f616c0000000000000000000000000000000000\n        /* \"#utility.yul\":7230:7231   */\n      0x00\n        /* \"#utility.yul\":7222:7228   */\n      dup3\n        /* \"#utility.yul\":7218:7232   */\n      add\n        /* \"#utility.yul\":7211:7252   */\n      mstore\n        /* \"#utility.yul\":7094:7259   */\n      pop\n      jump\t// out\n        /* \"#utility.yul\":7265:7631   */\n    tag_158:\n        /* \"#utility.yul\":7407:7410   */\n      0x00\n        /* \"#utility.yul\":7428:7495   */\n      tag_262\n        /* \"#utility.yul\":7492:7494   */\n      0x0f\n        /* \"#utility.yul\":7487:7490   */\n      dup4\n        /* \"#utility.yul\":7428:7495   */\n      tag_154\n      jump\t// in\n    tag_262:\n        /* \"#utility.yul\":7421:7495   */\n      swap2\n      pop\n        /* \"#utility.yul\":7504:7597   */\n      tag_263\n        /* \"#utility.yul\":7593:7596   */\n      dup3\n        /* \"#utility.yul\":7504:7597   */\n      tag_157\n      jump\t// in\n    tag_263:\n        /* \"#utility.yul\":7622:7624   */\n      0x20\n        /* \"#utility.yul\":7617:7620   */\n      dup3\n        /* \"#utility.yul\":7613:7625   */\n      add\n        /* \"#utility.yul\":7606:7625   */\n      swap1\n      pop\n        /* \"#utility.yul\":7265:7631   */\n      swap2\n      swap1\n      pop\n      jump\t// out\n        /* \"#utility.yul\":7637:8056   */\n    tag_59:\n        /* \"#utility.yul\":7803:7807   */\n      0x00\n        /* \"#utility.yul\":7841:7843   */\n      0x20\n        /* \"#utility.yul\":7830:7839   */\n      dup3\n        /* \"#utility.yul\":7826:7844   */\n      add\n        /* \"#utility.yul\":7818:7844   */\n      swap1\n      pop\n        /* \"#utility.yul\":7890:7899   */\n      dup2\n        /* \"#utility.yul\":7884:7888   */\n      dup2\n        /* \"#utility.yul\":7880:7900   */\n      sub\n        /* \"#utility.yul\":7876:7877   */\n      0x00\n        /* \"#utility.yul\":7865:7874   */\n      dup4\n        /* \"#utility.yul\":7861:7878   */\n      add\n        /* \"#utility.yul\":7854:7901   */\n      mstore\n        /* \"#utility.yul\":7918:8049   */\n      tag_265\n        /* \"#utility.yul\":8044:8048   */\n      dup2\n        /* \"#utility.yul\":7918:8049   */\n      tag_158\n      jump\t// in\n    tag_265:\n        /* \"#utility.yul\":7910:8049   */\n      swap1\n      pop\n        /* \"#utility.yul\":7637:8056   */\n      swap2\n      swap1\n      pop\n      jump\t// out\n        /* \"#utility.yul\":8062:8394   */\n    tag_61:\n        /* \"#utility.yul\":8183:8187   */\n      0x00\n        /* \"#utility.yul\":8221:8223   */\n      0x40\n        /* \"#utility.yul\":8210:8219   */\n      dup3\n        /* \"#utility.yul\":8206:8224   */\n      add\n        /* \"#utility.yul\":8198:8224   */\n      swap1\n      pop\n        /* \"#utility.yul\":8234:8305   */\n      tag_267\n        /* \"#utility.yul\":8302:8303   */\n      0x00\n        /* \"#utility.yul\":8291:8300   */\n      dup4\n        /* \"#utility.yul\":8287:8304   */\n      add\n        /* \"#utility.yul\":8278:8284   */\n      dup6\n        /* \"#utility.yul\":8234:8305   */\n      tag_140\n      jump\t// in\n    tag_267:\n        /* \"#utility.yul\":8315:8387   */\n      tag_268\n        /* \"#utility.yul\":8383:8385   */\n      0x20\n        /* \"#utility.yul\":8372:8381   */\n      dup4\n        /* \"#utility.yul\":8368:8386   */\n      add\n        /* \"#utility.yul\":8359:8365   */\n      dup5\n        /* \"#utility.yul\":8315:8387   */\n      tag_132\n      jump\t// in\n    tag_268:\n        /* \"#utility.yul\":8062:8394   */\n      swap4\n      swap3\n      pop\n      pop\n      pop\n      jump\t// out\n        /* \"#utility.yul\":8400:8516   */\n    tag_159:\n        /* \"#utility.yul\":8470:8491   */\n      tag_270\n        /* \"#utility.yul\":8485:8490   */\n      dup2\n        /* \"#utility.yul\":8470:8491   */\n      tag_143\n      jump\t// in\n    tag_270:\n        /* \"#utility.yul\":8463:8468   */\n      dup2\n        /* \"#utility.yul\":8460:8492   */\n      eq\n        /* \"#utility.yul\":8450:8510   */\n      tag_271\n      jumpi\n        /* \"#utility.yul\":8506:8507   */\n      0x00\n        /* \"#utility.yul\":8503:8504   */\n      0x00\n        /* \"#utility.yul\":8496:8508   */\n      revert\n        /* \"#utility.yul\":8450:8510   */\n    tag_271:\n        /* \"#utility.yul\":8400:8516   */\n      pop\n      jump\t// out\n        /* \"#utility.yul\":8522:8659   */\n    tag_160:\n        /* \"#utility.yul\":8576:8581   */\n      0x00\n        /* \"#utility.yul\":8607:8613   */\n      dup2\n        /* \"#utility.yul\":8601:8614   */\n      mload\n        /* \"#utility.yul\":8592:8614   */\n      swap1\n      pop\n        /* \"#utility.yul\":8623:8653   */\n      tag_273\n        /* \"#utility.yul\":8647:8652   */\n      dup2\n        /* \"#utility.yul\":8623:8653   */\n      tag_159\n      jump\t// in\n    tag_273:\n        /* \"#utility.yul\":8522:8659   */\n      swap3\n      swap2\n      pop\n      pop\n      jump\t// out\n        /* \"#utility.yul\":8665:9010   */\n    tag_65:\n        /* \"#utility.yul\":8732:8738   */\n      0x00\n        /* \"#utility.yul\":8781:8783   */\n      0x20\n        /* \"#utility.yul\":8769:8778   */\n      dup3\n        /* \"#utility.yul\":8760:8767   */\n      dup5\n        /* \"#utility.yul\":8756:8779   */\n      sub\n        /* \"#utility.yul\":8752:8784   */\n      slt\n        /* \"#utility.yul\":8749:8868   */\n      iszero\n      tag_275\n      jumpi\n        /* \"#utility.yul\":8787:8866   */\n      tag_276\n      tag_134\n      jump\t// in\n    tag_276:\n        /* \"#utility.yul\":8749:8868   */\n    tag_275:\n        /* \"#utility.yul\":8907:8908   */\n      0x00\n        /* \"#utility.yul\":8932:8993   */\n      tag_277\n        /* \"#utility.yul\":8985:8992   */\n      dup5\n        /* \"#utility.yul\":8976:8982   */\n      dup3\n        /* \"#utility.yul\":8965:8974   */\n      dup6\n        /* \"#utility.yul\":8961:8983   */\n      add\n        /* \"#utility.yul\":8932:8993   */\n      tag_160\n      jump\t// in\n    tag_277:\n        /* \"#utility.yul\":8922:8993   */\n      swap2\n      pop\n        /* \"#utility.yul\":8878:9003   */\n      pop\n        /* \"#utility.yul\":8665:9010   */\n      swap3\n      swap2\n      pop\n      pop\n      jump\t// out\n        /* \"#utility.yul\":9016:9182   */\n    tag_161:\n        /* \"#utility.yul\":9156:9174   */\n      0x656e644174203c3d207374617274417400000000000000000000000000000000\n        /* \"#utility.yul\":9152:9153   */\n      0x00\n        /* \"#utility.yul\":9144:9150   */\n      dup3\n        /* \"#utility.yul\":9140:9154   */\n      add\n        /* \"#utility.yul\":9133:9175   */\n      mstore\n        /* \"#utility.yul\":9016:9182   */\n      pop\n      jump\t// out\n        /* \"#utility.yul\":9188:9554   */\n    tag_162:\n        /* \"#utility.yul\":9330:9333   */\n      0x00\n        /* \"#utility.yul\":9351:9418   */\n      tag_280\n        /* \"#utility.yul\":9415:9417   */\n      0x10\n        /* \"#utility.yul\":9410:9413   */\n      dup4\n        /* \"#utility.yul\":9351:9418   */\n      tag_154\n      jump\t// in\n    tag_280:\n        /* \"#utility.yul\":9344:9418   */\n      swap2\n      pop\n        /* \"#utility.yul\":9427:9520   */\n      tag_281\n        /* \"#utility.yul\":9516:9519   */\n      dup3\n        /* \"#utility.yul\":9427:9520   */\n      tag_161\n      jump\t// in\n    tag_281:\n        /* \"#utility.yul\":9545:9547   */\n      0x20\n        /* \"#utility.yul\":9540:9543   */\n      dup3\n        /* \"#utility.yul\":9536:9548   */\n      add\n        /* \"#utility.yul\":9529:9548   */\n      swap1\n      pop\n        /* \"#utility.yul\":9188:9554   */\n      swap2\n      swap1\n      pop\n      jump\t// out\n        /* \"#utility.yul\":9560:9979   */\n    tag_70:\n        /* \"#utility.yul\":9726:9730   */\n      0x00\n        /* \"#utility.yul\":9764:9766   */\n      0x20\n        /* \"#utility.yul\":9753:9762   */\n      dup3\n        /* \"#utility.yul\":9749:9767   */\n      add\n        /* \"#utility.yul\":9741:9767   */\n      swap1\n      pop\n        /* \"#utility.yul\":9813:9822   */\n      dup2\n        /* \"#utility.yul\":9807:9811   */\n      dup2\n        /* \"#utility.yul\":9803:9823   */\n      sub\n        /* \"#utility.yul\":9799:9800   */\n      0x00\n        /* \"#utility.yul\":9788:9797   */\n      dup4\n        /* \"#utility.yul\":9784:9801   */\n      add\n        /* \"#utility.yul\":9777:9824   */\n      mstore\n        /* \"#utility.yul\":9841:9972   */\n      tag_283\n        /* \"#utility.yul\":9967:9971   */\n      dup2\n        /* \"#utility.yul\":9841:9972   */\n      tag_162\n      jump\t// in\n    tag_283:\n        /* \"#utility.yul\":9833:9972   */\n      swap1\n      pop\n        /* \"#utility.yul\":9560:9979   */\n      swap2\n      swap1\n      pop\n      jump\t// out\n        /* \"#utility.yul\":9985:10148   */\n    tag_163:\n        /* \"#utility.yul\":10125:10140   */\n      0x656e64203e203330206461797300000000000000000000000000000000000000\n        /* \"#utility.yul\":10121:10122   */\n      0x00\n        /* \"#utility.yul\":10113:10119   */\n      dup3\n        /* \"#utility.yul\":10109:10123   */\n      add\n        /* \"#utility.yul\":10102:10141   */\n      mstore\n        /* \"#utility.yul\":9985:10148   */\n      pop\n      jump\t// out\n        /* \"#utility.yul\":10154:10520   */\n    tag_164:\n        /* \"#utility.yul\":10296:10299   */\n      0x00\n        /* \"#utility.yul\":10317:10384   */\n      tag_286\n        /* \"#utility.yul\":10381:10383   */\n      0x0d\n        /* \"#utility.yul\":10376:10379   */\n      dup4\n        /* \"#utility.yul\":10317:10384   */\n      tag_154\n      jump\t// in\n    tag_286:\n        /* \"#utility.yul\":10310:10384   */\n      swap2\n      pop\n        /* \"#utility.yul\":10393:10486   */\n      tag_287\n        /* \"#utility.yul\":10482:10485   */\n      dup3\n        /* \"#utility.yul\":10393:10486   */\n      tag_163\n      jump\t// in\n    tag_287:\n        /* \"#utility.yul\":10511:10513   */\n      0x20\n        /* \"#utility.yul\":10506:10509   */\n      dup3\n        /* \"#utility.yul\":10502:10514   */\n      add\n        /* \"#utility.yul\":10495:10514   */\n      swap1\n      pop\n        /* \"#utility.yul\":10154:10520   */\n      swap2\n      swap1\n      pop\n      jump\t// out\n        /* \"#utility.yul\":10526:10945   */\n    tag_73:\n        /* \"#utility.yul\":10692:10696   */\n      0x00\n        /* \"#utility.yul\":10730:10732   */\n      0x20\n        /* \"#utility.yul\":10719:10728   */\n      dup3\n        /* \"#utility.yul\":10715:10733   */\n      add\n        /* \"#utility.yul\":10707:10733   */\n      swap1\n      pop\n        /* \"#utility.yul\":10779:10788   */\n      dup2\n        /* \"#utility.yul\":10773:10777   */\n      dup2\n        /* \"#utility.yul\":10769:10789   */\n      sub\n        /* \"#utility.yul\":10765:10766   */\n      0x00\n        /* \"#utility.yul\":10754:10763   */\n      dup4\n        /* \"#utility.yul\":10750:10767   */\n      add\n        /* \"#utility.yul\":10743:10790   */\n      mstore\n        /* \"#utility.yul\":10807:10938   */\n      tag_289\n        /* \"#utility.yul\":10933:10937   */\n      dup2\n        /* \"#utility.yul\":10807:10938   */\n      tag_164\n      jump\t// in\n    tag_289:\n        /* \"#utility.yul\":10799:10938   */\n      swap1\n      pop\n        /* \"#utility.yul\":10526:10945   */\n      swap2\n      swap1\n      pop\n      jump\t// out\n        /* \"#utility.yul\":10951:11131   */\n    tag_165:\n        /* \"#utility.yul\":10999:11076   */\n      0x4e487b7100000000000000000000000000000000000000000000000000000000\n        /* \"#utility.yul\":10996:10997   */\n      0x00\n        /* \"#utility.yul\":10989:11077   */\n      mstore\n        /* \"#utility.yul\":11096:11100   */\n      0x11\n        /* \"#utility.yul\":11093:11094   */\n      0x04\n        /* \"#utility.yul\":11086:11101   */\n      mstore\n        /* \"#utility.yul\":11120:11124   */\n      0x24\n        /* \"#utility.yul\":11117:11118   */\n      0x00\n        /* \"#utility.yul\":11110:11125   */\n      revert\n        /* \"#utility.yul\":11137:11334   */\n    tag_75:\n        /* \"#utility.yul\":11176:11179   */\n      0x00\n        /* \"#utility.yul\":11195:11214   */\n      tag_292\n        /* \"#utility.yul\":11212:11213   */\n      dup3\n        /* \"#utility.yul\":11195:11214   */\n      tag_141\n      jump\t// in\n    tag_292:\n        /* \"#utility.yul\":11190:11214   */\n      swap2\n      pop\n        /* \"#utility.yul\":11228:11247   */\n      tag_293\n        /* \"#utility.yul\":11245:11246   */\n      dup4\n        /* \"#utility.yul\":11228:11247   */\n      tag_141\n      jump\t// in\n    tag_293:\n        /* \"#utility.yul\":11223:11247   */\n      swap3\n      pop\n        /* \"#utility.yul\":11270:11271   */\n      dup3\n        /* \"#utility.yul\":11267:11268   */\n      dup3\n        /* \"#utility.yul\":11263:11272   */\n      add\n        /* \"#utility.yul\":11256:11272   */\n      swap1\n      pop\n        /* \"#utility.yul\":11293:11303   */\n      0xffffffff\n        /* \"#utility.yul\":11288:11291   */\n      dup2\n        /* \"#utility.yul\":11285:11304   */\n      gt\n        /* \"#utility.yul\":11282:11327   */\n      iszero\n      tag_294\n      jumpi\n        /* \"#utility.yul\":11307:11325   */\n      tag_295\n      tag_165\n      jump\t// in\n    tag_295:\n        /* \"#utility.yul\":11282:11327   */\n    tag_294:\n        /* \"#utility.yul\":11137:11334   */\n      swap3\n      swap2\n      pop\n      pop\n      jump\t// out\n        /* \"#utility.yul\":11340:11531   */\n    tag_78:\n        /* \"#utility.yul\":11380:11383   */\n      0x00\n        /* \"#utility.yul\":11399:11419   */\n      tag_297\n        /* \"#utility.yul\":11417:11418   */\n      dup3\n        /* \"#utility.yul\":11399:11419   */\n      tag_131\n      jump\t// in\n    tag_297:\n        /* \"#utility.yul\":11394:11419   */\n      swap2\n      pop\n        /* \"#utility.yul\":11433:11453   */\n      tag_298\n        /* \"#utility.yul\":11451:11452   */\n      dup4\n        /* \"#utility.yul\":11433:11453   */\n      tag_131\n      jump\t// in\n    tag_298:\n        /* \"#utility.yul\":11428:11453   */\n      swap3\n      pop\n        /* \"#utility.yul\":11476:11477   */\n      dup3\n        /* \"#utility.yul\":11473:11474   */\n      dup3\n        /* \"#utility.yul\":11469:11478   */\n      add\n        /* \"#utility.yul\":11462:11478   */\n      swap1\n      pop\n        /* \"#utility.yul\":11497:11500   */\n      dup1\n        /* \"#utility.yul\":11494:11495   */\n      dup3\n        /* \"#utility.yul\":11491:11501   */\n      gt\n        /* \"#utility.yul\":11488:11524   */\n      iszero\n      tag_299\n      jumpi\n        /* \"#utility.yul\":11504:11522   */\n      tag_300\n      tag_165\n      jump\t// in\n    tag_300:\n        /* \"#utility.yul\":11488:11524   */\n    tag_299:\n        /* \"#utility.yul\":11340:11531   */\n      swap3\n      swap2\n      pop\n      pop\n      jump\t// out\n        /* \"#utility.yul\":11537:12082   */\n    tag_80:\n        /* \"#utility.yul\":11710:11714   */\n      0x00\n        /* \"#utility.yul\":11748:11751   */\n      0x80\n        /* \"#utility.yul\":11737:11746   */\n      dup3\n        /* \"#utility.yul\":11733:11752   */\n      add\n        /* \"#utility.yul\":11725:11752   */\n      swap1\n      pop\n        /* \"#utility.yul\":11762:11833   */\n      tag_302\n        /* \"#utility.yul\":11830:11831   */\n      0x00\n        /* \"#utility.yul\":11819:11828   */\n      dup4\n        /* \"#utility.yul\":11815:11832   */\n      add\n        /* \"#utility.yul\":11806:11812   */\n      dup8\n        /* \"#utility.yul\":11762:11833   */\n      tag_132\n      jump\t// in\n    tag_302:\n        /* \"#utility.yul\":11843:11915   */\n      tag_303\n        /* \"#utility.yul\":11911:11913   */\n      0x20\n        /* \"#utility.yul\":11900:11909   */\n      dup4\n        /* \"#utility.yul\":11896:11914   */\n      add\n        /* \"#utility.yul\":11887:11893   */\n      dup7\n        /* \"#utility.yul\":11843:11915   */\n      tag_132\n      jump\t// in\n    tag_303:\n        /* \"#utility.yul\":11925:11995   */\n      tag_304\n        /* \"#utility.yul\":11991:11993   */\n      0x40\n        /* \"#utility.yul\":11980:11989   */\n      dup4\n        /* \"#utility.yul\":11976:11994   */\n      add\n        /* \"#utility.yul\":11967:11973   */\n      dup6\n        /* \"#utility.yul\":11925:11995   */\n      tag_142\n      jump\t// in\n    tag_304:\n        /* \"#utility.yul\":12005:12075   */\n      tag_305\n        /* \"#utility.yul\":12071:12073   */\n      0x60\n        /* \"#utility.yul\":12060:12069   */\n      dup4\n        /* \"#utility.yul\":12056:12074   */\n      add\n        /* \"#utility.yul\":12047:12053   */\n      dup5\n        /* \"#utility.yul\":12005:12075   */\n      tag_142\n      jump\t// in\n    tag_305:\n        /* \"#utility.yul\":11537:12082   */\n      swap6\n      swap5\n      pop\n      pop\n      pop\n      pop\n      pop\n      jump\t// out\n        /* \"#utility.yul\":12088:12249   */\n    tag_166:\n        /* \"#utility.yul\":12228:12241   */\n      0x6e6f742063726561746f72000000000000000000000000000000000000000000\n        /* \"#utility.yul\":12224:12225   */\n      0x00\n        /* \"#utility.yul\":12216:12222   */\n      dup3\n        /* \"#utility.yul\":12212:12226   */\n      add\n        /* \"#utility.yul\":12205:12242   */\n      mstore\n        /* \"#utility.yul\":12088:12249   */\n      pop\n      jump\t// out\n        /* \"#utility.yul\":12255:12621   */\n    tag_167:\n        /* \"#utility.yul\":12397:12400   */\n      0x00\n        /* \"#utility.yul\":12418:12485   */\n      tag_308\n        /* \"#utility.yul\":12482:12484   */\n      0x0b\n        /* \"#utility.yul\":12477:12480   */\n      dup4\n        /* \"#utility.yul\":12418:12485   */\n      tag_154\n      jump\t// in\n    tag_308:\n        /* \"#utility.yul\":12411:12485   */\n      swap2\n      pop\n        /* \"#utility.yul\":12494:12587   */\n      tag_309\n        /* \"#utility.yul\":12583:12586   */\n      dup3\n        /* \"#utility.yul\":12494:12587   */\n      tag_166\n      jump\t// in\n    tag_309:\n        /* \"#utility.yul\":12612:12614   */\n      0x20\n        /* \"#utility.yul\":12607:12610   */\n      dup3\n        /* \"#utility.yul\":12603:12615   */\n      add\n        /* \"#utility.yul\":12596:12615   */\n      swap1\n      pop\n        /* \"#utility.yul\":12255:12621   */\n      swap2\n      swap1\n      pop\n      jump\t// out\n        /* \"#utility.yul\":12627:13046   */\n    tag_84:\n        /* \"#utility.yul\":12793:12797   */\n      0x00\n        /* \"#utility.yul\":12831:12833   */\n      0x20\n        /* \"#utility.yul\":12820:12829   */\n      dup3\n        /* \"#utility.yul\":12816:12834   */\n      add\n        /* \"#utility.yul\":12808:12834   */\n      swap1\n      pop\n        /* \"#utility.yul\":12880:12889   */\n      dup2\n        /* \"#utility.yul\":12874:12878   */\n      dup2\n        /* \"#utility.yul\":12870:12890   */\n      sub\n        /* \"#utility.yul\":12866:12867   */\n      0x00\n        /* \"#utility.yul\":12855:12864   */\n      dup4\n        /* \"#utility.yul\":12851:12868   */\n      add\n        /* \"#utility.yul\":12844:12891   */\n      mstore\n        /* \"#utility.yul\":12908:13039   */\n      tag_311\n        /* \"#utility.yul\":13034:13038   */\n      dup2\n        /* \"#utility.yul\":12908:13039   */\n      tag_167\n      jump\t// in\n    tag_311:\n        /* \"#utility.yul\":12900:13039   */\n      swap1\n      pop\n        /* \"#utility.yul\":12627:13046   */\n      swap2\n      swap1\n      pop\n      jump\t// out\n        /* \"#utility.yul\":13052:13216   */\n    tag_168:\n        /* \"#utility.yul\":13192:13208   */\n      0x706c6564676564203c20676f616c000000000000000000000000000000000000\n        /* \"#utility.yul\":13188:13189   */\n      0x00\n        /* \"#utility.yul\":13180:13186   */\n      dup3\n        /* \"#utility.yul\":13176:13190   */\n      add\n        /* \"#utility.yul\":13169:13209   */\n      mstore\n        /* \"#utility.yul\":13052:13216   */\n      pop\n      jump\t// out\n        /* \"#utility.yul\":13222:13588   */\n    tag_169:\n        /* \"#utility.yul\":13364:13367   */\n      0x00\n        /* \"#utility.yul\":13385:13452   */\n      tag_314\n        /* \"#utility.yul\":13449:13451   */\n      0x0e\n        /* \"#utility.yul\":13444:13447   */\n      dup4\n        /* \"#utility.yul\":13385:13452   */\n      tag_154\n      jump\t// in\n    tag_314:\n        /* \"#utility.yul\":13378:13452   */\n      swap2\n      pop\n        /* \"#utility.yul\":13461:13554   */\n      tag_315\n        /* \"#utility.yul\":13550:13553   */\n      dup3\n        /* \"#utility.yul\":13461:13554   */\n      tag_168\n      jump\t// in\n    tag_315:\n        /* \"#utility.yul\":13579:13581   */\n      0x20\n        /* \"#utility.yul\":13574:13577   */\n      dup3\n        /* \"#utility.yul\":13570:13582   */\n      add\n        /* \"#utility.yul\":13563:13582   */\n      swap1\n      pop\n        /* \"#utility.yul\":13222:13588   */\n      swap2\n      swap1\n      pop\n      jump\t// out\n        /* \"#utility.yul\":13594:14013   */\n    tag_89:\n        /* \"#utility.yul\":13760:13764   */\n      0x00\n        /* \"#utility.yul\":13798:13800   */\n      0x20\n        /* \"#utility.yul\":13787:13796   */\n      dup3\n        /* \"#utility.yul\":13783:13801   */\n      add\n        /* \"#utility.yul\":13775:13801   */\n      swap1\n      pop\n        /* \"#utility.yul\":13847:13856   */\n      dup2\n        /* \"#utility.yul\":13841:13845   */\n      dup2\n        /* \"#utility.yul\":13837:13857   */\n      sub\n        /* \"#utility.yul\":13833:13834   */\n      0x00\n        /* \"#utility.yul\":13822:13831   */\n      dup4\n        /* \"#utility.yul\":13818:13835   */\n      add\n        /* \"#utility.yul\":13811:13858   */\n      mstore\n        /* \"#utility.yul\":13875:14006   */\n      tag_317\n        /* \"#utility.yul\":14001:14005   */\n      dup2\n        /* \"#utility.yul\":13875:14006   */\n      tag_169\n      jump\t// in\n    tag_317:\n        /* \"#utility.yul\":13867:14006   */\n      swap1\n      pop\n        /* \"#utility.yul\":13594:14013   */\n      swap2\n      swap1\n      pop\n      jump\t// out\n        /* \"#utility.yul\":14019:14176   */\n    tag_170:\n        /* \"#utility.yul\":14159:14168   */\n      0x636c61696d656400000000000000000000000000000000000000000000000000\n        /* \"#utility.yul\":14155:14156   */\n      0x00\n        /* \"#utility.yul\":14147:14153   */\n      dup3\n        /* \"#utility.yul\":14143:14157   */\n      add\n        /* \"#utility.yul\":14136:14169   */\n      mstore\n        /* \"#utility.yul\":14019:14176   */\n      pop\n      jump\t// out\n        /* \"#utility.yul\":14182:14547   */\n    tag_171:\n        /* \"#utility.yul\":14324:14327   */\n      0x00\n        /* \"#utility.yul\":14345:14411   */\n      tag_320\n        /* \"#utility.yul\":14409:14410   */\n      0x07\n        /* \"#utility.yul\":14404:14407   */\n      dup4\n        /* \"#utility.yul\":14345:14411   */\n      tag_154\n      jump\t// in\n    tag_320:\n        /* \"#utility.yul\":14338:14411   */\n      swap2\n      pop\n        /* \"#utility.yul\":14420:14513   */\n      tag_321\n        /* \"#utility.yul\":14509:14512   */\n      dup3\n        /* \"#utility.yul\":14420:14513   */\n      tag_170\n      jump\t// in\n    tag_321:\n        /* \"#utility.yul\":14538:14540   */\n      0x20\n        /* \"#utility.yul\":14533:14536   */\n      dup3\n        /* \"#utility.yul\":14529:14541   */\n      add\n        /* \"#utility.yul\":14522:14541   */\n      swap1\n      pop\n        /* \"#utility.yul\":14182:14547   */\n      swap2\n      swap1\n      pop\n      jump\t// out\n        /* \"#utility.yul\":14553:14972   */\n    tag_92:\n        /* \"#utility.yul\":14719:14723   */\n      0x00\n        /* \"#utility.yul\":14757:14759   */\n      0x20\n        /* \"#utility.yul\":14746:14755   */\n      dup3\n        /* \"#utility.yul\":14742:14760   */\n      add\n        /* \"#utility.yul\":14734:14760   */\n      swap1\n      pop\n        /* \"#utility.yul\":14806:14815   */\n      dup2\n        /* \"#utility.yul\":14800:14804   */\n      dup2\n        /* \"#utility.yul\":14796:14816   */\n      sub\n        /* \"#utility.yul\":14792:14793   */\n      0x00\n        /* \"#utility.yul\":14781:14790   */\n      dup4\n        /* \"#utility.yul\":14777:14794   */\n      add\n        /* \"#utility.yul\":14770:14817   */\n      mstore\n        /* \"#utility.yul\":14834:14965   */\n      tag_323\n        /* \"#utility.yul\":14960:14964   */\n      dup2\n        /* \"#utility.yul\":14834:14965   */\n      tag_171\n      jump\t// in\n    tag_323:\n        /* \"#utility.yul\":14826:14965   */\n      swap1\n      pop\n        /* \"#utility.yul\":14553:14972   */\n      swap2\n      swap1\n      pop\n      jump\t// out\n        /* \"#utility.yul\":14978:15135   */\n    tag_172:\n        /* \"#utility.yul\":15118:15127   */\n      0x7374617274656400000000000000000000000000000000000000000000000000\n        /* \"#utility.yul\":15114:15115   */\n      0x00\n        /* \"#utility.yul\":15106:15112   */\n      dup3\n        /* \"#utility.yul\":15102:15116   */\n      add\n        /* \"#utility.yul\":15095:15128   */\n      mstore\n        /* \"#utility.yul\":14978:15135   */\n      pop\n      jump\t// out\n        /* \"#utility.yul\":15141:15506   */\n    tag_173:\n        /* \"#utility.yul\":15283:15286   */\n      0x00\n        /* \"#utility.yul\":15304:15370   */\n      tag_326\n        /* \"#utility.yul\":15368:15369   */\n      0x07\n        /* \"#utility.yul\":15363:15366   */\n      dup4\n        /* \"#utility.yul\":15304:15370   */\n      tag_154\n      jump\t// in\n    tag_326:\n        /* \"#utility.yul\":15297:15370   */\n      swap2\n      pop\n        /* \"#utility.yul\":15379:15472   */\n      tag_327\n        /* \"#utility.yul\":15468:15471   */\n      dup3\n        /* \"#utility.yul\":15379:15472   */\n      tag_172\n      jump\t// in\n    tag_327:\n        /* \"#utility.yul\":15497:15499   */\n      0x20\n        /* \"#utility.yul\":15492:15495   */\n      dup3\n        /* \"#utility.yul\":15488:15500   */\n      add\n        /* \"#utility.yul\":15481:15500   */\n      swap1\n      pop\n        /* \"#utility.yul\":15141:15506   */\n      swap2\n      swap1\n      pop\n      jump\t// out\n        /* \"#utility.yul\":15512:15931   */\n    tag_103:\n        /* \"#utility.yul\":15678:15682   */\n      0x00\n        /* \"#utility.yul\":15716:15718   */\n      0x20\n        /* \"#utility.yul\":15705:15714   */\n      dup3\n        /* \"#utility.yul\":15701:15719   */\n      add\n        /* \"#utility.yul\":15693:15719   */\n      swap1\n      pop\n        /* \"#utility.yul\":15765:15774   */\n      dup2\n        /* \"#utility.yul\":15759:15763   */\n      dup2\n        /* \"#utility.yul\":15755:15775   */\n      sub\n        /* \"#utility.yul\":15751:15752   */\n      0x00\n        /* \"#utility.yul\":15740:15749   */\n      dup4\n        /* \"#utility.yul\":15736:15753   */\n      add\n        /* \"#utility.yul\":15729:15776   */\n      mstore\n        /* \"#utility.yul\":15793:15924   */\n      tag_329\n        /* \"#utility.yul\":15919:15923   */\n      dup2\n        /* \"#utility.yul\":15793:15924   */\n      tag_173\n      jump\t// in\n    tag_329:\n        /* \"#utility.yul\":15785:15924   */\n      swap1\n      pop\n        /* \"#utility.yul\":15512:15931   */\n      swap2\n      swap1\n      pop\n      jump\t// out\n        /* \"#utility.yul\":15937:16092   */\n    tag_174:\n        /* \"#utility.yul\":16077:16084   */\n      0x656e646564000000000000000000000000000000000000000000000000000000\n        /* \"#utility.yul\":16073:16074   */\n      0x00\n        /* \"#utility.yul\":16065:16071   */\n      dup3\n        /* \"#utility.yul\":16061:16075   */\n      add\n        /* \"#utility.yul\":16054:16085   */\n      mstore\n        /* \"#utility.yul\":15937:16092   */\n      pop\n      jump\t// out\n        /* \"#utility.yul\":16098:16463   */\n    tag_175:\n        /* \"#utility.yul\":16240:16243   */\n      0x00\n        /* \"#utility.yul\":16261:16327   */\n      tag_332\n        /* \"#utility.yul\":16325:16326   */\n      0x05\n        /* \"#utility.yul\":16320:16323   */\n      dup4\n        /* \"#utility.yul\":16261:16327   */\n      tag_154\n      jump\t// in\n    tag_332:\n        /* \"#utility.yul\":16254:16327   */\n      swap2\n      pop\n        /* \"#utility.yul\":16336:16429   */\n      tag_333\n        /* \"#utility.yul\":16425:16428   */\n      dup3\n        /* \"#utility.yul\":16336:16429   */\n      tag_174\n      jump\t// in\n    tag_333:\n        /* \"#utility.yul\":16454:16456   */\n      0x20\n        /* \"#utility.yul\":16449:16452   */\n      dup3\n        /* \"#utility.yul\":16445:16457   */\n      add\n        /* \"#utility.yul\":16438:16457   */\n      swap1\n      pop\n        /* \"#utility.yul\":16098:16463   */\n      swap2\n      swap1\n      pop\n      jump\t// out\n        /* \"#utility.yul\":16469:16888   */\n    tag_108:\n        /* \"#utility.yul\":16635:16639   */\n      0x00\n        /* \"#utility.yul\":16673:16675   */\n      0x20\n        /* \"#utility.yul\":16662:16671   */\n      dup3\n        /* \"#utility.yul\":16658:16676   */\n      add\n        /* \"#utility.yul\":16650:16676   */\n      swap1\n      pop\n        /* \"#utility.yul\":16722:16731   */\n      dup2\n        /* \"#utility.yul\":16716:16720   */\n      dup2\n        /* \"#utility.yul\":16712:16732   */\n      sub\n        /* \"#utility.yul\":16708:16709   */\n      0x00\n        /* \"#utility.yul\":16697:16706   */\n      dup4\n        /* \"#utility.yul\":16693:16710   */\n      add\n        /* \"#utility.yul\":16686:16733   */\n      mstore\n        /* \"#utility.yul\":16750:16881   */\n      tag_335\n        /* \"#utility.yul\":16876:16880   */\n      dup2\n        /* \"#utility.yul\":16750:16881   */\n      tag_175\n      jump\t// in\n    tag_335:\n        /* \"#utility.yul\":16742:16881   */\n      swap1\n      pop\n        /* \"#utility.yul\":16469:16888   */\n      swap2\n      swap1\n      pop\n      jump\t// out\n        /* \"#utility.yul\":16894:17088   */\n    tag_110:\n        /* \"#utility.yul\":16934:16938   */\n      0x00\n        /* \"#utility.yul\":16954:16974   */\n      tag_337\n        /* \"#utility.yul\":16972:16973   */\n      dup3\n        /* \"#utility.yul\":16954:16974   */\n      tag_131\n      jump\t// in\n    tag_337:\n        /* \"#utility.yul\":16949:16974   */\n      swap2\n      pop\n        /* \"#utility.yul\":16988:17008   */\n      tag_338\n        /* \"#utility.yul\":17006:17007   */\n      dup4\n        /* \"#utility.yul\":16988:17008   */\n      tag_131\n      jump\t// in\n    tag_338:\n        /* \"#utility.yul\":16983:17008   */\n      swap3\n      pop\n        /* \"#utility.yul\":17032:17033   */\n      dup3\n        /* \"#utility.yul\":17029:17030   */\n      dup3\n        /* \"#utility.yul\":17025:17034   */\n      sub\n        /* \"#utility.yul\":17017:17034   */\n      swap1\n      pop\n        /* \"#utility.yul\":17056:17057   */\n      dup2\n        /* \"#utility.yul\":17050:17054   */\n      dup2\n        /* \"#utility.yul\":17047:17058   */\n      gt\n        /* \"#utility.yul\":17044:17081   */\n      iszero\n      tag_339\n      jumpi\n        /* \"#utility.yul\":17061:17079   */\n      tag_340\n      tag_165\n      jump\t// in\n    tag_340:\n        /* \"#utility.yul\":17044:17081   */\n    tag_339:\n        /* \"#utility.yul\":16894:17088   */\n      swap3\n      swap2\n      pop\n      pop\n      jump\t// out\n        /* \"#utility.yul\":17094:17255   */\n    tag_176:\n        /* \"#utility.yul\":17234:17247   */\n      0x6e6f742073746172746564000000000000000000000000000000000000000000\n        /* \"#utility.yul\":17230:17231   */\n      0x00\n        /* \"#utility.yul\":17222:17228   */\n      dup3\n        /* \"#utility.yul\":17218:17232   */\n      add\n        /* \"#utility.yul\":17211:17248   */\n      mstore\n        /* \"#utility.yul\":17094:17255   */\n      pop\n      jump\t// out\n        /* \"#utility.yul\":17261:17627   */\n    tag_177:\n        /* \"#utility.yul\":17403:17406   */\n      0x00\n        /* \"#utility.yul\":17424:17491   */\n      tag_343\n        /* \"#utility.yul\":17488:17490   */\n      0x0b\n        /* \"#utility.yul\":17483:17486   */\n      dup4\n        /* \"#utility.yul\":17424:17491   */\n      tag_154\n      jump\t// in\n    tag_343:\n        /* \"#utility.yul\":17417:17491   */\n      swap2\n      pop\n        /* \"#utility.yul\":17500:17593   */\n      tag_344\n        /* \"#utility.yul\":17589:17592   */\n      dup3\n        /* \"#utility.yul\":17500:17593   */\n      tag_176\n      jump\t// in\n    tag_344:\n        /* \"#utility.yul\":17618:17620   */\n      0x20\n        /* \"#utility.yul\":17613:17616   */\n      dup3\n        /* \"#utility.yul\":17609:17621   */\n      add\n        /* \"#utility.yul\":17602:17621   */\n      swap1\n      pop\n        /* \"#utility.yul\":17261:17627   */\n      swap2\n      swap1\n      pop\n      jump\t// out\n        /* \"#utility.yul\":17633:18052   */\n    tag_120:\n        /* \"#utility.yul\":17799:17803   */\n      0x00\n        /* \"#utility.yul\":17837:17839   */\n      0x20\n        /* \"#utility.yul\":17826:17835   */\n      dup3\n        /* \"#utility.yul\":17822:17840   */\n      add\n        /* \"#utility.yul\":17814:17840   */\n      swap1\n      pop\n        /* \"#utility.yul\":17886:17895   */\n      dup2\n        /* \"#utility.yul\":17880:17884   */\n      dup2\n        /* \"#utility.yul\":17876:17896   */\n      sub\n        /* \"#utility.yul\":17872:17873   */\n      0x00\n        /* \"#utility.yul\":17861:17870   */\n      dup4\n        /* \"#utility.yul\":17857:17874   */\n      add\n        /* \"#utility.yul\":17850:17897   */\n      mstore\n        /* \"#utility.yul\":17914:18045   */\n      tag_346\n        /* \"#utility.yul\":18040:18044   */\n      dup2\n        /* \"#utility.yul\":17914:18045   */\n      tag_177\n      jump\t// in\n    tag_346:\n        /* \"#utility.yul\":17906:18045   */\n      swap1\n      pop\n        /* \"#utility.yul\":17633:18052   */\n      swap2\n      swap1\n      pop\n      jump\t// out\n        /* \"#utility.yul\":18058:18500   */\n    tag_126:\n        /* \"#utility.yul\":18207:18211   */\n      0x00\n        /* \"#utility.yul\":18245:18247   */\n      0x60\n        /* \"#utility.yul\":18234:18243   */\n      dup3\n        /* \"#utility.yul\":18230:18248   */\n      add\n        /* \"#utility.yul\":18222:18248   */\n      swap1\n      pop\n        /* \"#utility.yul\":18258:18329   */\n      tag_348\n        /* \"#utility.yul\":18326:18327   */\n      0x00\n        /* \"#utility.yul\":18315:18324   */\n      dup4\n        /* \"#utility.yul\":18311:18328   */\n      add\n        /* \"#utility.yul\":18302:18308   */\n      dup7\n        /* \"#utility.yul\":18258:18329   */\n      tag_140\n      jump\t// in\n    tag_348:\n        /* \"#utility.yul\":18339:18411   */\n      tag_349\n        /* \"#utility.yul\":18407:18409   */\n      0x20\n        /* \"#utility.yul\":18396:18405   */\n      dup4\n        /* \"#utility.yul\":18392:18410   */\n      add\n        /* \"#utility.yul\":18383:18389   */\n      dup6\n        /* \"#utility.yul\":18339:18411   */\n      tag_140\n      jump\t// in\n    tag_349:\n        /* \"#utility.yul\":18421:18493   */\n      tag_350\n        /* \"#utility.yul\":18489:18491   */\n      0x40\n        /* \"#utility.yul\":18478:18487   */\n      dup4\n        /* \"#utility.yul\":18474:18492   */\n      add\n        /* \"#utility.yul\":18465:18471   */\n      dup5\n        /* \"#utility.yul\":18421:18493   */\n      tag_132\n      jump\t// in\n    tag_350:\n        /* \"#utility.yul\":18058:18500   */\n      swap5\n      swap4\n      pop\n      pop\n      pop\n      pop\n      jump\t// out\n\n    auxdata: 0xa264697066735822122034e079cb98e29634c5f280b0f3de131c6a0b0ee4c421a9c2ae705e879cca7be864736f6c634300081e0033\n}\n",
				"bytecode": {
					"linkReferences": {},
					"object": "60a060405234801561000f575f5ffd5b50604051611aa1380380611aa1833981810160405281019061003191906100c9565b8073ffffffffffffffffffffffffffffffffffffffff1660808173ffffffffffffffffffffffffffffffffffffffff1681525050506100f4565b5f5ffd5b5f73ffffffffffffffffffffffffffffffffffffffff82169050919050565b5f6100988261006f565b9050919050565b6100a88161008e565b81146100b2575f5ffd5b50565b5f815190506100c38161009f565b92915050565b5f602082840312156100de576100dd61006b565b5b5f6100eb848285016100b5565b91505092915050565b6080516119796101285f395f81816103ce015281816108cf01528181610d0401528181610e140152610f8101526119795ff3fe608060405234801561000f575f5ffd5b506004361061009c575f3560e01c806340e58ee51161006457806340e58ee514610147578063711853ab14610163578063aa4fb63a1461017f578063fc0c546a146101af578063fde327be146101cd5761009c565b806306661abd146100a0578063141961bc146100be578063278ecde1146100f35780632c63f1461461010f578063379607f51461012b575b5f5ffd5b6100a86101e9565b6040516100b59190611089565b60405180910390f35b6100d860048036038101906100d391906110d0565b6101ee565b6040516100ea96959493929190611172565b60405180910390f35b61010d600480360381019061010891906110d0565b610271565b005b610129600480360381019061012491906111fb565b6104bc565b005b610145600480360381019061014091906110d0565b610713565b005b610161600480360381019061015c91906110d0565b6109a8565b005b61017d6004803603810190610178919061124b565b610c15565b005b610199600480360381019061019491906112b3565b610df2565b6040516101a69190611089565b60405180910390f35b6101b7610e12565b6040516101c4919061134c565b60405180910390f35b6101e760048036038101906101e2919061124b565b610e36565b005b5f5481565b6001602052805f5260405f205f91509050805f015f9054906101000a900473ffffffffffffffffffffffffffffffffffffffff1690806001015490806002015490806003015f9054906101000a900463ffffffff16908060030160049054906101000a900463ffffffff16908060030160089054906101000a900460ff16905086565b5f60015f8381526020019081526020015f2090508060030160049054906101000a900463ffffffff1663ffffffff1642116102e1576040517f08c379a00000000000000000000000000000000000000000000000000000000081526004016102d8906113bf565b60405180910390fd5b806001015481600201541061032b576040517f08c379a000000000000000000000000000000000000000000000000000000000815260040161032290611427565b60405180910390fd5b5f60025f8481526020019081526020015f205f3373ffffffffffffffffffffffffffffffffffffffff1673ffffffffffffffffffffffffffffffffffffffff1681526020019081526020015f205490505f60025f8581526020019081526020015f205f3373ffffffffffffffffffffffffffffffffffffffff1673ffffffffffffffffffffffffffffffffffffffff1681526020019081526020015f20819055507f000000000000000000000000000000000000000000000000000000000000000073ffffffffffffffffffffffffffffffffffffffff1663a9059cbb33836040518363ffffffff1660e01b8152600401610427929190611445565b6020604051808303815f875af1158015610443573d5f5f3e3d5ffd5b505050506040513d601f19601f820116820180604052508101906104679190611496565b503373ffffffffffffffffffffffffffffffffffffffff16837f21e12a7cad0da5928167e1084ea4d5fdf8d9af66657a2543a9ac76a0ca081477836040516104af9190611089565b60405180910390a3505050565b8163ffffffff168163ffffffff161161050a576040517f08c379a00000000000000000000000000000000000000000000000000000000081526004016105019061150b565b60405180910390fd5b62278d008163ffffffff161115610556576040517f08c379a000000000000000000000000000000000000000000000000000000000815260040161054d90611573565b60405180910390fd5b5f824261056391906115be565b90505f824261057291906115be565b905060015f5f82825461058591906115f5565b925050819055506040518060c001604052803373ffffffffffffffffffffffffffffffffffffffff1681526020018681526020015f81526020018363ffffffff1681526020018263ffffffff1681526020015f151581525060015f5f5481526020019081526020015f205f820151815f015f6101000a81548173ffffffffffffffffffffffffffffffffffffffff021916908373ffffffffffffffffffffffffffffffffffffffff16021790555060208201518160010155604082015181600201556060820151816003015f6101000a81548163ffffffff021916908363ffffffff16021790555060808201518160030160046101000a81548163ffffffff021916908363ffffffff16021790555060a08201518160030160086101000a81548160ff0219169083151502179055509050503373ffffffffffffffffffffffffffffffffffffffff167f0601cd0d650b473037e838a2696d41e654433d065b3f56b28d1d3302e44a304f5f548785856040516107049493929190611628565b60405180910390a25050505050565b5f60015f8381526020019081526020015f209050805f015f9054906101000a900473ffffffffffffffffffffffffffffffffffffffff1673ffffffffffffffffffffffffffffffffffffffff163373ffffffffffffffffffffffffffffffffffffffff16146107b7576040517f08c379a00000000000000000000000000000000000000000000000000000000081526004016107ae906116b5565b60405180910390fd5b8060030160049054906101000a900463ffffffff1663ffffffff164211610813576040517f08c379a000000000000000000000000000000000000000000000000000000000815260040161080a906113bf565b60405180910390fd5b80600101548160020154101561085e576040517f08c379a00000000000000000000000000000000000000000000000000000000081526004016108559061171d565b60405180910390fd5b8060030160089054906101000a900460ff16156108b0576040517f08c379a00000000000000000000000000000000000000000000000000000000081526004016108a790611785565b60405180910390fd5b60018160030160086101000a81548160ff0219169083151502179055507f000000000000000000000000000000000000000000000000000000000000000073ffffffffffffffffffffffffffffffffffffffff1663a9059cbb3383600201546040518363ffffffff1660e01b815260040161092c929190611445565b6020604051808303815f875af1158015610948573d5f5f3e3d5ffd5b505050506040513d601f19601f8201168201806040525081019061096c9190611496565b507f7bb2b3c10797baccb6f8c4791f1edd6ca2f0d028ee0eda64b01a9a57e3a653f78260405161099c9190611089565b60405180910390a15050565b5f60015f8381526020019081526020015f206040518060c00160405290815f82015f9054906101000a900473ffffffffffffffffffffffffffffffffffffffff1673ffffffffffffffffffffffffffffffffffffffff1673ffffffffffffffffffffffffffffffffffffffff1681526020016001820154815260200160028201548152602001600382015f9054906101000a900463ffffffff1663ffffffff1663ffffffff1681526020016003820160049054906101000a900463ffffffff1663ffffffff1663ffffffff1681526020016003820160089054906101000a900460ff1615151515815250509050805f015173ffffffffffffffffffffffffffffffffffffffff163373ffffffffffffffffffffffffffffffffffffffff1614610b06576040517f08c379a0000000000000000000000000000000000000000000000000000000008152600401610afd906116b5565b60405180910390fd5b806060015163ffffffff164210610b52576040517f08c379a0000000000000000000000000000000000000000000000000000000008152600401610b49906117ed565b60405180910390fd5b60015f8381526020019081526020015f205f5f82015f6101000a81549073ffffffffffffffffffffffffffffffffffffffff0219169055600182015f9055600282015f9055600382015f6101000a81549063ffffffff02191690556003820160046101000a81549063ffffffff02191690556003820160086101000a81549060ff021916905550507f8bf30e7ff26833413be5f69e1d373744864d600b664204b4a2f9844a8eedb9ed82604051610c099190611089565b60405180910390a15050565b5f60015f8481526020019081526020015f2090508060030160049054906101000a900463ffffffff1663ffffffff16421115610c86576040517f08c379a0000000000000000000000000000000000000000000000000000000008152600401610c7d90611855565b60405180910390fd5b81816002015f828254610c999190611873565b925050819055508160025f8581526020019081526020015f205f3373ffffffffffffffffffffffffffffffffffffffff1673ffffffffffffffffffffffffffffffffffffffff1681526020019081526020015f205f828254610cfb9190611873565b925050819055507f000000000000000000000000000000000000000000000000000000000000000073ffffffffffffffffffffffffffffffffffffffff1663a9059cbb33846040518363ffffffff1660e01b8152600401610d5d929190611445565b6020604051808303815f875af1158015610d79573d5f5f3e3d5ffd5b505050506040513d601f19601f82011682018060405250810190610d9d9190611496565b503373ffffffffffffffffffffffffffffffffffffffff16837f2eeeab891b26a214d1b25749f88a406bdea852bd8c9bfda977e0ef8114c180ba84604051610de59190611089565b60405180910390a3505050565b6002602052815f5260405f20602052805f5260405f205f91509150505481565b7f000000000000000000000000000000000000000000000000000000000000000081565b5f60015f8481526020019081526020015f209050806003015f9054906101000a900463ffffffff1663ffffffff16421015610ea6576040517f08c379a0000000000000000000000000000000000000000000000000000000008152600401610e9d906118f0565b60405180910390fd5b8060030160049054906101000a900463ffffffff1663ffffffff16421115610f03576040517f08c379a0000000000000000000000000000000000000000000000000000000008152600401610efa90611855565b60405180910390fd5b81816002015f828254610f1691906115f5565b925050819055508160025f8581526020019081526020015f205f3373ffffffffffffffffffffffffffffffffffffffff1673ffffffffffffffffffffffffffffffffffffffff1681526020019081526020015f205f828254610f7891906115f5565b925050819055507f000000000000000000000000000000000000000000000000000000000000000073ffffffffffffffffffffffffffffffffffffffff166323b872dd3330856040518463ffffffff1660e01b8152600401610fdc9392919061190e565b6020604051808303815f875af1158015610ff8573d5f5f3e3d5ffd5b505050506040513d601f19601f8201168201806040525081019061101c9190611496565b503373ffffffffffffffffffffffffffffffffffffffff16837f06bdb975df800a73232998e71ed585d536222f1dfeaa622d7f62a23ada686c82846040516110649190611089565b60405180910390a3505050565b5f819050919050565b61108381611071565b82525050565b5f60208201905061109c5f83018461107a565b92915050565b5f5ffd5b6110af81611071565b81146110b9575f5ffd5b50565b5f813590506110ca816110a6565b92915050565b5f602082840312156110e5576110e46110a2565b5b5f6110f2848285016110bc565b91505092915050565b5f73ffffffffffffffffffffffffffffffffffffffff82169050919050565b5f611124826110fb565b9050919050565b6111348161111a565b82525050565b5f63ffffffff82169050919050565b6111528161113a565b82525050565b5f8115159050919050565b61116c81611158565b82525050565b5f60c0820190506111855f83018961112b565b611192602083018861107a565b61119f604083018761107a565b6111ac6060830186611149565b6111b96080830185611149565b6111c660a0830184611163565b979650505050505050565b6111da8161113a565b81146111e4575f5ffd5b50565b5f813590506111f5816111d1565b92915050565b5f5f5f60608486031215611212576112116110a2565b5b5f61121f868287016110bc565b9350506020611230868287016111e7565b9250506040611241868287016111e7565b9150509250925092565b5f5f60408385031215611261576112606110a2565b5b5f61126e858286016110bc565b925050602061127f858286016110bc565b9150509250929050565b6112928161111a565b811461129c575f5ffd5b50565b5f813590506112ad81611289565b92915050565b5f5f604083850312156112c9576112c86110a2565b5b5f6112d6858286016110bc565b92505060206112e78582860161129f565b9150509250929050565b5f819050919050565b5f61131461130f61130a846110fb565b6112f1565b6110fb565b9050919050565b5f611325826112fa565b9050919050565b5f6113368261131b565b9050919050565b6113468161132c565b82525050565b5f60208201905061135f5f83018461133d565b92915050565b5f82825260208201905092915050565b7f6e6f7420656e64656400000000000000000000000000000000000000000000005f82015250565b5f6113a9600983611365565b91506113b482611375565b602082019050919050565b5f6020820190508181035f8301526113d68161139d565b9050919050565b7f706c6564676564203e3d20676f616c00000000000000000000000000000000005f82015250565b5f611411600f83611365565b915061141c826113dd565b602082019050919050565b5f6020820190508181035f83015261143e81611405565b9050919050565b5f6040820190506114585f83018561112b565b611465602083018461107a565b9392505050565b61147581611158565b811461147f575f5ffd5b50565b5f815190506114908161146c565b92915050565b5f602082840312156114ab576114aa6110a2565b5b5f6114b884828501611482565b91505092915050565b7f656e644174203c3d2073746172744174000000000000000000000000000000005f82015250565b5f6114f5601083611365565b9150611500826114c1565b602082019050919050565b5f6020820190508181035f830152611522816114e9565b9050919050565b7f656e64203e2033302064617973000000000000000000000000000000000000005f82015250565b5f61155d600d83611365565b915061156882611529565b602082019050919050565b5f6020820190508181035f83015261158a81611551565b9050919050565b7f4e487b71000000000000000000000000000000000000000000000000000000005f52601160045260245ffd5b5f6115c88261113a565b91506115d38361113a565b9250828201905063ffffffff8111156115ef576115ee611591565b5b92915050565b5f6115ff82611071565b915061160a83611071565b925082820190508082111561162257611621611591565b5b92915050565b5f60808201905061163b5f83018761107a565b611648602083018661107a565b6116556040830185611149565b6116626060830184611149565b95945050505050565b7f6e6f742063726561746f720000000000000000000000000000000000000000005f82015250565b5f61169f600b83611365565b91506116aa8261166b565b602082019050919050565b5f6020820190508181035f8301526116cc81611693565b9050919050565b7f706c6564676564203c20676f616c0000000000000000000000000000000000005f82015250565b5f611707600e83611365565b9150611712826116d3565b602082019050919050565b5f6020820190508181035f830152611734816116fb565b9050919050565b7f636c61696d6564000000000000000000000000000000000000000000000000005f82015250565b5f61176f600783611365565b915061177a8261173b565b602082019050919050565b5f6020820190508181035f83015261179c81611763565b9050919050565b7f73746172746564000000000000000000000000000000000000000000000000005f82015250565b5f6117d7600783611365565b91506117e2826117a3565b602082019050919050565b5f6020820190508181035f830152611804816117cb565b9050919050565b7f656e6465640000000000000000000000000000000000000000000000000000005f82015250565b5f61183f600583611365565b915061184a8261180b565b602082019050919050565b5f6020820190508181035f83015261186c81611833565b9050919050565b5f61187d82611071565b915061188883611071565b92508282039050818111156118a05761189f611591565b5b92915050565b7f6e6f7420737461727465640000000000000000000000000000000000000000005f82015250565b5f6118da600b83611365565b91506118e5826118a6565b602082019050919050565b5f6020820190508181035f830152611907816118ce565b9050919050565b5f6060820190506119215f83018661112b565b61192e602083018561112b565b61193b604083018461107a565b94935050505056fea264697066735822122034e079cb98e29634c5f280b0f3de131c6a0b0ee4c421a9c2ae705e879cca7be864736f6c634300081e0033",
					"opcodes": "PUSH1 0xA0 PUSH1 0x40 MSTORE CALLVALUE DUP1 ISZERO PUSH2 0xF JUMPI PUSH0 PUSH0 REVERT JUMPDEST POP PUSH1 0x40 MLOAD PUSH2 0x1AA1 CODESIZE SUB DUP1 PUSH2 0x1AA1 DUP4 CODECOPY DUP2 DUP2 ADD PUSH1 0x40 MSTORE DUP2 ADD SWAP1 PUSH2 0x31 SWAP2 SWAP1 PUSH2 0xC9 JUMP JUMPDEST DUP1 PUSH20 0xFFFFFFFFFFFFFFFFFFFFFFFFFFFFFFFFFFFFFFFF AND PUSH1 0x80 DUP2 PUSH20 0xFFFFFFFFFFFFFFFFFFFFFFFFFFFFFFFFFFFFFFFF AND DUP2 MSTORE POP POP POP PUSH2 0xF4 JUMP JUMPDEST PUSH0 PUSH0 REVERT JUMPDEST PUSH0 PUSH20 0xFFFFFFFFFFFFFFFFFFFFFFFFFFFFFFFFFFFFFFFF DUP3 AND SWAP1 POP SWAP2 SWAP1 POP JUMP JUMPDEST PUSH0 PUSH2 0x98 DUP3 PUSH2 0x6F JUMP JUMPDEST SWAP1 POP SWAP2 SWAP1 POP JUMP JUMPDEST PUSH2 0xA8 DUP2 PUSH2 0x8E JUMP JUMPDEST DUP2 EQ PUSH2 0xB2 JUMPI PUSH0 PUSH0 REVERT JUMPDEST POP JUMP JUMPDEST PUSH0 DUP2 MLOAD SWAP1 POP PUSH2 0xC3 DUP2 PUSH2 0x9F JUMP JUMPDEST SWAP3 SWAP2 POP POP JUMP JUMPDEST PUSH0 PUSH1 0x20 DUP3 DUP5 SUB SLT ISZERO PUSH2 0xDE JUMPI PUSH2 0xDD PUSH2 0x6B JUMP JUMPDEST JUMPDEST PUSH0 PUSH2 0xEB DUP5 DUP3 DUP6 ADD PUSH2 0xB5 JUMP JUMPDEST SWAP2 POP POP SWAP3 SWAP2 POP POP JUMP JUMPDEST PUSH1 0x80 MLOAD PUSH2 0x1979 PUSH2 0x128 PUSH0 CODECOPY PUSH0 DUP2 DUP2 PUSH2 0x3CE ADD MSTORE DUP2 DUP2 PUSH2 0x8CF ADD MSTORE DUP2 DUP2 PUSH2 0xD04 ADD MSTORE DUP2 DUP2 PUSH2 0xE14 ADD MSTORE PUSH2 0xF81 ADD MSTORE PUSH2 0x1979 PUSH0 RETURN INVALID PUSH1 0x80 PUSH1 0x40 MSTORE CALLVALUE DUP1 ISZERO PUSH2 0xF JUMPI PUSH0 PUSH0 REVERT JUMPDEST POP PUSH1 0x4 CALLDATASIZE LT PUSH2 0x9C JUMPI PUSH0 CALLDATALOAD PUSH1 0xE0 SHR DUP1 PUSH4 0x40E58EE5 GT PUSH2 0x64 JUMPI DUP1 PUSH4 0x40E58EE5 EQ PUSH2 0x147 JUMPI DUP1 PUSH4 0x711853AB EQ PUSH2 0x163 JUMPI DUP1 PUSH4 0xAA4FB63A EQ PUSH2 0x17F JUMPI DUP1 PUSH4 0xFC0C546A EQ PUSH2 0x1AF JUMPI DUP1 PUSH4 0xFDE327BE EQ PUSH2 0x1CD JUMPI PUSH2 0x9C JUMP JUMPDEST DUP1 PUSH4 0x6661ABD EQ PUSH2 0xA0 JUMPI DUP1 PUSH4 0x141961BC EQ PUSH2 0xBE JUMPI DUP1 PUSH4 0x278ECDE1 EQ PUSH2 0xF3 JUMPI DUP1 PUSH4 0x2C63F146 EQ PUSH2 0x10F JUMPI DUP1 PUSH4 0x379607F5 EQ PUSH2 0x12B JUMPI JUMPDEST PUSH0 PUSH0 REVERT JUMPDEST PUSH2 0xA8 PUSH2 0x1E9 JUMP JUMPDEST PUSH1 0x40 MLOAD PUSH2 0xB5 SWAP2 SWAP1 PUSH2 0x1089 JUMP JUMPDEST PUSH1 0x40 MLOAD DUP1 SWAP2 SUB SWAP1 RETURN JUMPDEST PUSH2 0xD8 PUSH1 0x4 DUP1 CALLDATASIZE SUB DUP2 ADD SWAP1 PUSH2 0xD3 SWAP2 SWAP1 PUSH2 0x10D0 JUMP JUMPDEST PUSH2 0x1EE JUMP JUMPDEST PUSH1 0x40 MLOAD PUSH2 0xEA SWAP7 SWAP6 SWAP5 SWAP4 SWAP3 SWAP2 SWAP1 PUSH2 0x1172 JUMP JUMPDEST PUSH1 0x40 MLOAD DUP1 SWAP2 SUB SWAP1 RETURN JUMPDEST PUSH2 0x10D PUSH1 0x4 DUP1 CALLDATASIZE SUB DUP2 ADD SWAP1 PUSH2 0x108 SWAP2 SWAP1 PUSH2 0x10D0 JUMP JUMPDEST PUSH2 0x271 JUMP JUMPDEST STOP JUMPDEST PUSH2 0x129 PUSH1 0x4 DUP1 CALLDATASIZE SUB DUP2 ADD SWAP1 PUSH2 0x124 SWAP2 SWAP1 PUSH2 0x11FB JUMP JUMPDEST PUSH2 0x4BC JUMP JUMPDEST STOP JUMPDEST PUSH2 0x145 PUSH1 0x4 DUP1 CALLDATASIZE SUB DUP2 ADD SWAP1 PUSH2 0x140 SWAP2 SWAP1 PUSH2 0x10D0 JUMP JUMPDEST PUSH2 0x713 JUMP JUMPDEST STOP JUMPDEST PUSH2 0x161 PUSH1 0x4 DUP1 CALLDATASIZE SUB DUP2 ADD SWAP1 PUSH2 0x15C SWAP2 SWAP1 PUSH2 0x10D0 JUMP JUMPDEST PUSH2 0x9A8 JUMP JUMPDEST STOP JUMPDEST PUSH2 0x17D PUSH1 0x4 DUP1 CALLDATASIZE SUB DUP2 ADD SWAP1 PUSH2 0x178 SWAP2 SWAP1 PUSH2 0x124B JUMP JUMPDEST PUSH2 0xC15 JUMP JUMPDEST STOP JUMPDEST PUSH2 0x199 PUSH1 0x4 DUP1 CALLDATASIZE SUB DUP2 ADD SWAP1 PUSH2 0x194 SWAP2 SWAP1 PUSH2 0x12B3 JUMP JUMPDEST PUSH2 0xDF2 JUMP JUMPDEST PUSH1 0x40 MLOAD PUSH2 0x1A6 SWAP2 SWAP1 PUSH2 0x1089 JUMP JUMPDEST PUSH1 0x40 MLOAD DUP1 SWAP2 SUB SWAP1 RETURN JUMPDEST PUSH2 0x1B7 PUSH2 0xE12 JUMP JUMPDEST PUSH1 0x40 MLOAD PUSH2 0x1C4 SWAP2 SWAP1 PUSH2 0x134C JUMP JUMPDEST PUSH1 0x40 MLOAD DUP1 SWAP2 SUB SWAP1 RETURN JUMPDEST PUSH2 0x1E7 PUSH1 0x4 DUP1 CALLDATASIZE SUB DUP2 ADD SWAP1 PUSH2 0x1E2 SWAP2 SWAP1 PUSH2 0x124B JUMP JUMPDEST PUSH2 0xE36 JUMP JUMPDEST STOP JUMPDEST PUSH0 SLOAD DUP2 JUMP JUMPDEST PUSH1 0x1 PUSH1 0x20 MSTORE DUP1 PUSH0 MSTORE PUSH1 0x40 PUSH0 KECCAK256 PUSH0 SWAP2 POP SWAP1 POP DUP1 PUSH0 ADD PUSH0 SWAP1 SLOAD SWAP1 PUSH2 0x100 EXP SWAP1 DIV PUSH20 0xFFFFFFFFFFFFFFFFFFFFFFFFFFFFFFFFFFFFFFFF AND SWAP1 DUP1 PUSH1 0x1 ADD SLOAD SWAP1 DUP1 PUSH1 0x2 ADD SLOAD SWAP1 DUP1 PUSH1 0x3 ADD PUSH0 SWAP1 SLOAD SWAP1 PUSH2 0x100 EXP SWAP1 DIV PUSH4 0xFFFFFFFF AND SWAP1 DUP1 PUSH1 0x3 ADD PUSH1 0x4 SWAP1 SLOAD SWAP1 PUSH2 0x100 EXP SWAP1 DIV PUSH4 0xFFFFFFFF AND SWAP1 DUP1 PUSH1 0x3 ADD PUSH1 0x8 SWAP1 SLOAD SWAP1 PUSH2 0x100 EXP SWAP1 DIV PUSH1 0xFF AND SWAP1 POP DUP7 JUMP JUMPDEST PUSH0 PUSH1 0x1 PUSH0 DUP4 DUP2 MSTORE PUSH1 0x20 ADD SWAP1 DUP2 MSTORE PUSH1 0x20 ADD PUSH0 KECCAK256 SWAP1 POP DUP1 PUSH1 0x3 ADD PUSH1 0x4 SWAP1 SLOAD SWAP1 PUSH2 0x100 EXP SWAP1 DIV PUSH4 0xFFFFFFFF AND PUSH4 0xFFFFFFFF AND TIMESTAMP GT PUSH2 0x2E1 JUMPI PUSH1 0x40 MLOAD PUSH32 0x8C379A000000000000000000000000000000000000000000000000000000000 DUP2 MSTORE PUSH1 0x4 ADD PUSH2 0x2D8 SWAP1 PUSH2 0x13BF JUMP JUMPDEST PUSH1 0x40 MLOAD DUP1 SWAP2 SUB SWAP1 REVERT JUMPDEST DUP1 PUSH1 0x1 ADD SLOAD DUP2 PUSH1 0x2 ADD SLOAD LT PUSH2 0x32B JUMPI PUSH1 0x40 MLOAD PUSH32 0x8C379A000000000000000000000000000000000000000000000000000000000 DUP2 MSTORE PUSH1 0x4 ADD PUSH2 0x322 SWAP1 PUSH2 0x1427 JUMP JUMPDEST PUSH1 0x40 MLOAD DUP1 SWAP2 SUB SWAP1 REVERT JUMPDEST PUSH0 PUSH1 0x2 PUSH0 DUP5 DUP2 MSTORE PUSH1 0x20 ADD SWAP1 DUP2 MSTORE PUSH1 0x20 ADD PUSH0 KECCAK256 PUSH0 CALLER PUSH20 0xFFFFFFFFFFFFFFFFFFFFFFFFFFFFFFFFFFFFFFFF AND PUSH20 0xFFFFFFFFFFFFFFFFFFFFFFFFFFFFFFFFFFFFFFFF AND DUP2 MSTORE PUSH1 0x20 ADD SWAP1 DUP2 MSTORE PUSH1 0x20 ADD PUSH0 KECCAK256 SLOAD SWAP1 POP PUSH0 PUSH1 0x2 PUSH0 DUP6 DUP2 MSTORE PUSH1 0x20 ADD SWAP1 DUP2 MSTORE PUSH1 0x20 ADD PUSH0 KECCAK256 PUSH0 CALLER PUSH20 0xFFFFFFFFFFFFFFFFFFFFFFFFFFFFFFFFFFFFFFFF AND PUSH20 0xFFFFFFFFFFFFFFFFFFFFFFFFFFFFFFFFFFFFFFFF AND DUP2 MSTORE PUSH1 0x20 ADD SWAP1 DUP2 MSTORE PUSH1 0x20 ADD PUSH0 KECCAK256 DUP2 SWAP1 SSTORE POP PUSH32 0x0 PUSH20 0xFFFFFFFFFFFFFFFFFFFFFFFFFFFFFFFFFFFFFFFF AND PUSH4 0xA9059CBB CALLER DUP4 PUSH1 0x40 MLOAD DUP4 PUSH4 0xFFFFFFFF AND PUSH1 0xE0 SHL DUP2 MSTORE PUSH1 0x4 ADD PUSH2 0x427 SWAP3 SWAP2 SWAP1 PUSH2 0x1445 JUMP JUMPDEST PUSH1 0x20 PUSH1 0x40 MLOAD DUP1 DUP4 SUB DUP2 PUSH0 DUP8 GAS CALL ISZERO DUP1 ISZERO PUSH2 0x443 JUMPI RETURNDATASIZE PUSH0 PUSH0 RETURNDATACOPY RETURNDATASIZE PUSH0 REVERT JUMPDEST POP POP POP POP PUSH1 0x40 MLOAD RETURNDATASIZE PUSH1 0x1F NOT PUSH1 0x1F DUP3 ADD AND DUP3 ADD DUP1 PUSH1 0x40 MSTORE POP DUP2 ADD SWAP1 PUSH2 0x467 SWAP2 SWAP1 PUSH2 0x1496 JUMP JUMPDEST POP CALLER PUSH20 0xFFFFFFFFFFFFFFFFFFFFFFFFFFFFFFFFFFFFFFFF AND DUP4 PUSH32 0x21E12A7CAD0DA5928167E1084EA4D5FDF8D9AF66657A2543A9AC76A0CA081477 DUP4 PUSH1 0x40 MLOAD PUSH2 0x4AF SWAP2 SWAP1 PUSH2 0x1089 JUMP JUMPDEST PUSH1 0x40 MLOAD DUP1 SWAP2 SUB SWAP1 LOG3 POP POP POP JUMP JUMPDEST DUP2 PUSH4 0xFFFFFFFF AND DUP2 PUSH4 0xFFFFFFFF AND GT PUSH2 0x50A JUMPI PUSH1 0x40 MLOAD PUSH32 0x8C379A000000000000000000000000000000000000000000000000000000000 DUP2 MSTORE PUSH1 0x4 ADD PUSH2 0x501 SWAP1 PUSH2 0x150B JUMP JUMPDEST PUSH1 0x40 MLOAD DUP1 SWAP2 SUB SWAP1 REVERT JUMPDEST PUSH3 0x278D00 DUP2 PUSH4 0xFFFFFFFF AND GT ISZERO PUSH2 0x556 JUMPI PUSH1 0x40 MLOAD PUSH32 0x8C379A000000000000000000000000000000000000000000000000000000000 DUP2 MSTORE PUSH1 0x4 ADD PUSH2 0x54D SWAP1 PUSH2 0x1573 JUMP JUMPDEST PUSH1 0x40 MLOAD DUP1 SWAP2 SUB SWAP1 REVERT JUMPDEST PUSH0 DUP3 TIMESTAMP PUSH2 0x563 SWAP2 SWAP1 PUSH2 0x15BE JUMP JUMPDEST SWAP1 POP PUSH0 DUP3 TIMESTAMP PUSH2 0x572 SWAP2 SWAP1 PUSH2 0x15BE JUMP JUMPDEST SWAP1 POP PUSH1 0x1 PUSH0 PUSH0 DUP3 DUP3 SLOAD PUSH2 0x585 SWAP2 SWAP1 PUSH2 0x15F5 JUMP JUMPDEST SWAP3 POP POP DUP2 SWAP1 SSTORE POP PUSH1 0x40 MLOAD DUP1 PUSH1 0xC0 ADD PUSH1 0x40 MSTORE DUP1 CALLER PUSH20 0xFFFFFFFFFFFFFFFFFFFFFFFFFFFFFFFFFFFFFFFF AND DUP2 MSTORE PUSH1 0x20 ADD DUP7 DUP2 MSTORE PUSH1 0x20 ADD PUSH0 DUP2 MSTORE PUSH1 0x20 ADD DUP4 PUSH4 0xFFFFFFFF AND DUP2 MSTORE PUSH1 0x20 ADD DUP3 PUSH4 0xFFFFFFFF AND DUP2 MSTORE PUSH1 0x20 ADD PUSH0 ISZERO ISZERO DUP2 MSTORE POP PUSH1 0x1 PUSH0 PUSH0 SLOAD DUP2 MSTORE PUSH1 0x20 ADD SWAP1 DUP2 MSTORE PUSH1 0x20 ADD PUSH0 KECCAK256 PUSH0 DUP3 ADD MLOAD DUP2 PUSH0 ADD PUSH0 PUSH2 0x100 EXP DUP2 SLOAD DUP2 PUSH20 0xFFFFFFFFFFFFFFFFFFFFFFFFFFFFFFFFFFFFFFFF MUL NOT AND SWAP1 DUP4 PUSH20 0xFFFFFFFFFFFFFFFFFFFFFFFFFFFFFFFFFFFFFFFF AND MUL OR SWAP1 SSTORE POP PUSH1 0x20 DUP3 ADD MLOAD DUP2 PUSH1 0x1 ADD SSTORE PUSH1 0x40 DUP3 ADD MLOAD DUP2 PUSH1 0x2 ADD SSTORE PUSH1 0x60 DUP3 ADD MLOAD DUP2 PUSH1 0x3 ADD PUSH0 PUSH2 0x100 EXP DUP2 SLOAD DUP2 PUSH4 0xFFFFFFFF MUL NOT AND SWAP1 DUP4 PUSH4 0xFFFFFFFF AND MUL OR SWAP1 SSTORE POP PUSH1 0x80 DUP3 ADD MLOAD DUP2 PUSH1 0x3 ADD PUSH1 0x4 PUSH2 0x100 EXP DUP2 SLOAD DUP2 PUSH4 0xFFFFFFFF MUL NOT AND SWAP1 DUP4 PUSH4 0xFFFFFFFF AND MUL OR SWAP1 SSTORE POP PUSH1 0xA0 DUP3 ADD MLOAD DUP2 PUSH1 0x3 ADD PUSH1 0x8 PUSH2 0x100 EXP DUP2 SLOAD DUP2 PUSH1 0xFF MUL NOT AND SWAP1 DUP4 ISZERO ISZERO MUL OR SWAP1 SSTORE POP SWAP1 POP POP CALLER PUSH20 0xFFFFFFFFFFFFFFFFFFFFFFFFFFFFFFFFFFFFFFFF AND PUSH32 0x601CD0D650B473037E838A2696D41E654433D065B3F56B28D1D3302E44A304F PUSH0 SLOAD DUP8 DUP6 DUP6 PUSH1 0x40 MLOAD PUSH2 0x704 SWAP5 SWAP4 SWAP3 SWAP2 SWAP1 PUSH2 0x1628 JUMP JUMPDEST PUSH1 0x40 MLOAD DUP1 SWAP2 SUB SWAP1 LOG2 POP POP POP POP POP JUMP JUMPDEST PUSH0 PUSH1 0x1 PUSH0 DUP4 DUP2 MSTORE PUSH1 0x20 ADD SWAP1 DUP2 MSTORE PUSH1 0x20 ADD PUSH0 KECCAK256 SWAP1 POP DUP1 PUSH0 ADD PUSH0 SWAP1 SLOAD SWAP1 PUSH2 0x100 EXP SWAP1 DIV PUSH20 0xFFFFFFFFFFFFFFFFFFFFFFFFFFFFFFFFFFFFFFFF AND PUSH20 0xFFFFFFFFFFFFFFFFFFFFFFFFFFFFFFFFFFFFFFFF AND CALLER PUSH20 0xFFFFFFFFFFFFFFFFFFFFFFFFFFFFFFFFFFFFFFFF AND EQ PUSH2 0x7B7 JUMPI PUSH1 0x40 MLOAD PUSH32 0x8C379A000000000000000000000000000000000000000000000000000000000 DUP2 MSTORE PUSH1 0x4 ADD PUSH2 0x7AE SWAP1 PUSH2 0x16B5 JUMP JUMPDEST PUSH1 0x40 MLOAD DUP1 SWAP2 SUB SWAP1 REVERT JUMPDEST DUP1 PUSH1 0x3 ADD PUSH1 0x4 SWAP1 SLOAD SWAP1 PUSH2 0x100 EXP SWAP1 DIV PUSH4 0xFFFFFFFF AND PUSH4 0xFFFFFFFF AND TIMESTAMP GT PUSH2 0x813 JUMPI PUSH1 0x40 MLOAD PUSH32 0x8C379A000000000000000000000000000000000000000000000000000000000 DUP2 MSTORE PUSH1 0x4 ADD PUSH2 0x80A SWAP1 PUSH2 0x13BF JUMP JUMPDEST PUSH1 0x40 MLOAD DUP1 SWAP2 SUB SWAP1 REVERT JUMPDEST DUP1 PUSH1 0x1 ADD SLOAD DUP2 PUSH1 0x2 ADD SLOAD LT ISZERO PUSH2 0x85E JUMPI PUSH1 0x40 MLOAD PUSH32 0x8C379A000000000000000000000000000000000000000000000000000000000 DUP2 MSTORE PUSH1 0x4 ADD PUSH2 0x855 SWAP1 PUSH2 0x171D JUMP JUMPDEST PUSH1 0x40 MLOAD DUP1 SWAP2 SUB SWAP1 REVERT JUMPDEST DUP1 PUSH1 0x3 ADD PUSH1 0x8 SWAP1 SLOAD SWAP1 PUSH2 0x100 EXP SWAP1 DIV PUSH1 0xFF AND ISZERO PUSH2 0x8B0 JUMPI PUSH1 0x40 MLOAD PUSH32 0x8C379A000000000000000000000000000000000000000000000000000000000 DUP2 MSTORE PUSH1 0x4 ADD PUSH2 0x8A7 SWAP1 PUSH2 0x1785 JUMP JUMPDEST PUSH1 0x40 MLOAD DUP1 SWAP2 SUB SWAP1 REVERT JUMPDEST PUSH1 0x1 DUP2 PUSH1 0x3 ADD PUSH1 0x8 PUSH2 0x100 EXP DUP2 SLOAD DUP2 PUSH1 0xFF MUL NOT AND SWAP1 DUP4 ISZERO ISZERO MUL OR SWAP1 SSTORE POP PUSH32 0x0 PUSH20 0xFFFFFFFFFFFFFFFFFFFFFFFFFFFFFFFFFFFFFFFF AND PUSH4 0xA9059CBB CALLER DUP4 PUSH1 0x2 ADD SLOAD PUSH1 0x40 MLOAD DUP4 PUSH4 0xFFFFFFFF AND PUSH1 0xE0 SHL DUP2 MSTORE PUSH1 0x4 ADD PUSH2 0x92C SWAP3 SWAP2 SWAP1 PUSH2 0x1445 JUMP JUMPDEST PUSH1 0x20 PUSH1 0x40 MLOAD DUP1 DUP4 SUB DUP2 PUSH0 DUP8 GAS CALL ISZERO DUP1 ISZERO PUSH2 0x948 JUMPI RETURNDATASIZE PUSH0 PUSH0 RETURNDATACOPY RETURNDATASIZE PUSH0 REVERT JUMPDEST POP POP POP POP PUSH1 0x40 MLOAD RETURNDATASIZE PUSH1 0x1F NOT PUSH1 0x1F DUP3 ADD AND DUP3 ADD DUP1 PUSH1 0x40 MSTORE POP DUP2 ADD SWAP1 PUSH2 0x96C SWAP2 SWAP1 PUSH2 0x1496 JUMP JUMPDEST POP PUSH32 0x7BB2B3C10797BACCB6F8C4791F1EDD6CA2F0D028EE0EDA64B01A9A57E3A653F7 DUP3 PUSH1 0x40 MLOAD PUSH2 0x99C SWAP2 SWAP1 PUSH2 0x1089 JUMP JUMPDEST PUSH1 0x40 MLOAD DUP1 SWAP2 SUB SWAP1 LOG1 POP POP JUMP JUMPDEST PUSH0 PUSH1 0x1 PUSH0 DUP4 DUP2 MSTORE PUSH1 0x20 ADD SWAP1 DUP2 MSTORE PUSH1 0x20 ADD PUSH0 KECCAK256 PUSH1 0x40 MLOAD DUP1 PUSH1 0xC0 ADD PUSH1 0x40 MSTORE SWAP1 DUP2 PUSH0 DUP3 ADD PUSH0 SWAP1 SLOAD SWAP1 PUSH2 0x100 EXP SWAP1 DIV PUSH20 0xFFFFFFFFFFFFFFFFFFFFFFFFFFFFFFFFFFFFFFFF AND PUSH20 0xFFFFFFFFFFFFFFFFFFFFFFFFFFFFFFFFFFFFFFFF AND PUSH20 0xFFFFFFFFFFFFFFFFFFFFFFFFFFFFFFFFFFFFFFFF AND DUP2 MSTORE PUSH1 0x20 ADD PUSH1 0x1 DUP3 ADD SLOAD DUP2 MSTORE PUSH1 0x20 ADD PUSH1 0x2 DUP3 ADD SLOAD DUP2 MSTORE PUSH1 0x20 ADD PUSH1 0x3 DUP3 ADD PUSH0 SWAP1 SLOAD SWAP1 PUSH2 0x100 EXP SWAP1 DIV PUSH4 0xFFFFFFFF AND PUSH4 0xFFFFFFFF AND PUSH4 0xFFFFFFFF AND DUP2 MSTORE PUSH1 0x20 ADD PUSH1 0x3 DUP3 ADD PUSH1 0x4 SWAP1 SLOAD SWAP1 PUSH2 0x100 EXP SWAP1 DIV PUSH4 0xFFFFFFFF AND PUSH4 0xFFFFFFFF AND PUSH4 0xFFFFFFFF AND DUP2 MSTORE PUSH1 0x20 ADD PUSH1 0x3 DUP3 ADD PUSH1 0x8 SWAP1 SLOAD SWAP1 PUSH2 0x100 EXP SWAP1 DIV PUSH1 0xFF AND ISZERO ISZERO ISZERO ISZERO DUP2 MSTORE POP POP SWAP1 POP DUP1 PUSH0 ADD MLOAD PUSH20 0xFFFFFFFFFFFFFFFFFFFFFFFFFFFFFFFFFFFFFFFF AND CALLER PUSH20 0xFFFFFFFFFFFFFFFFFFFFFFFFFFFFFFFFFFFFFFFF AND EQ PUSH2 0xB06 JUMPI PUSH1 0x40 MLOAD PUSH32 0x8C379A000000000000000000000000000000000000000000000000000000000 DUP2 MSTORE PUSH1 0x4 ADD PUSH2 0xAFD SWAP1 PUSH2 0x16B5 JUMP JUMPDEST PUSH1 0x40 MLOAD DUP1 SWAP2 SUB SWAP1 REVERT JUMPDEST DUP1 PUSH1 0x60 ADD MLOAD PUSH4 0xFFFFFFFF AND TIMESTAMP LT PUSH2 0xB52 JUMPI PUSH1 0x40 MLOAD PUSH32 0x8C379A000000000000000000000000000000000000000000000000000000000 DUP2 MSTORE PUSH1 0x4 ADD PUSH2 0xB49 SWAP1 PUSH2 0x17ED JUMP JUMPDEST PUSH1 0x40 MLOAD DUP1 SWAP2 SUB SWAP1 REVERT JUMPDEST PUSH1 0x1 PUSH0 DUP4 DUP2 MSTORE PUSH1 0x20 ADD SWAP1 DUP2 MSTORE PUSH1 0x20 ADD PUSH0 KECCAK256 PUSH0 PUSH0 DUP3 ADD PUSH0 PUSH2 0x100 EXP DUP2 SLOAD SWAP1 PUSH20 0xFFFFFFFFFFFFFFFFFFFFFFFFFFFFFFFFFFFFFFFF MUL NOT AND SWAP1 SSTORE PUSH1 0x1 DUP3 ADD PUSH0 SWAP1 SSTORE PUSH1 0x2 DUP3 ADD PUSH0 SWAP1 SSTORE PUSH1 0x3 DUP3 ADD PUSH0 PUSH2 0x100 EXP DUP2 SLOAD SWAP1 PUSH4 0xFFFFFFFF MUL NOT AND SWAP1 SSTORE PUSH1 0x3 DUP3 ADD PUSH1 0x4 PUSH2 0x100 EXP DUP2 SLOAD SWAP1 PUSH4 0xFFFFFFFF MUL NOT AND SWAP1 SSTORE PUSH1 0x3 DUP3 ADD PUSH1 0x8 PUSH2 0x100 EXP DUP2 SLOAD SWAP1 PUSH1 0xFF MUL NOT AND SWAP1 SSTORE POP POP PUSH32 0x8BF30E7FF26833413BE5F69E1D373744864D600B664204B4A2F9844A8EEDB9ED DUP3 PUSH1 0x40 MLOAD PUSH2 0xC09 SWAP2 SWAP1 PUSH2 0x1089 JUMP JUMPDEST PUSH1 0x40 MLOAD DUP1 SWAP2 SUB SWAP1 LOG1 POP POP JUMP JUMPDEST PUSH0 PUSH1 0x1 PUSH0 DUP5 DUP2 MSTORE PUSH1 0x20 ADD SWAP1 DUP2 MSTORE PUSH1 0x20 ADD PUSH0 KECCAK256 SWAP1 POP DUP1 PUSH1 0x3 ADD PUSH1 0x4 SWAP1 SLOAD SWAP1 PUSH2 0x100 EXP SWAP1 DIV PUSH4 0xFFFFFFFF AND PUSH4 0xFFFFFFFF AND TIMESTAMP GT ISZERO PUSH2 0xC86 JUMPI PUSH1 0x40 MLOAD PUSH32 0x8C379A000000000000000000000000000000000000000000000000000000000 DUP2 MSTORE PUSH1 0x4 ADD PUSH2 0xC7D SWAP1 PUSH2 0x1855 JUMP JUMPDEST PUSH1 0x40 MLOAD DUP1 SWAP2 SUB SWAP1 REVERT JUMPDEST DUP2 DUP2 PUSH1 0x2 ADD PUSH0 DUP3 DUP3 SLOAD PUSH2 0xC99 SWAP2 SWAP1 PUSH2 0x1873 JUMP JUMPDEST SWAP3 POP POP DUP2 SWAP1 SSTORE POP DUP2 PUSH1 0x2 PUSH0 DUP6 DUP2 MSTORE PUSH1 0x20 ADD SWAP1 DUP2 MSTORE PUSH1 0x20 ADD PUSH0 KECCAK256 PUSH0 CALLER PUSH20 0xFFFFFFFFFFFFFFFFFFFFFFFFFFFFFFFFFFFFFFFF AND PUSH20 0xFFFFFFFFFFFFFFFFFFFFFFFFFFFFFFFFFFFFFFFF AND DUP2 MSTORE PUSH1 0x20 ADD SWAP1 DUP2 MSTORE PUSH1 0x20 ADD PUSH0 KECCAK256 PUSH0 DUP3 DUP3 SLOAD PUSH2 0xCFB SWAP2 SWAP1 PUSH2 0x1873 JUMP JUMPDEST SWAP3 POP POP DUP2 SWAP1 SSTORE POP PUSH32 0x0 PUSH20 0xFFFFFFFFFFFFFFFFFFFFFFFFFFFFFFFFFFFFFFFF AND PUSH4 0xA9059CBB CALLER DUP5 PUSH1 0x40 MLOAD DUP4 PUSH4 0xFFFFFFFF AND PUSH1 0xE0 SHL DUP2 MSTORE PUSH1 0x4 ADD PUSH2 0xD5D SWAP3 SWAP2 SWAP1 PUSH2 0x1445 JUMP JUMPDEST PUSH1 0x20 PUSH1 0x40 MLOAD DUP1 DUP4 SUB DUP2 PUSH0 DUP8 GAS CALL ISZERO DUP1 ISZERO PUSH2 0xD79 JUMPI RETURNDATASIZE PUSH0 PUSH0 RETURNDATACOPY RETURNDATASIZE PUSH0 REVERT JUMPDEST POP POP POP POP PUSH1 0x40 MLOAD RETURNDATASIZE PUSH1 0x1F NOT PUSH1 0x1F DUP3 ADD AND DUP3 ADD DUP1 PUSH1 0x40 MSTORE POP DUP2 ADD SWAP1 PUSH2 0xD9D SWAP2 SWAP1 PUSH2 0x1496 JUMP JUMPDEST POP CALLER PUSH20 0xFFFFFFFFFFFFFFFFFFFFFFFFFFFFFFFFFFFFFFFF AND DUP4 PUSH32 0x2EEEAB891B26A214D1B25749F88A406BDEA852BD8C9BFDA977E0EF8114C180BA DUP5 PUSH1 0x40 MLOAD PUSH2 0xDE5 SWAP2 SWAP1 PUSH2 0x1089 JUMP JUMPDEST PUSH1 0x40 MLOAD DUP1 SWAP2 SUB SWAP1 LOG3 POP POP POP JUMP JUMPDEST PUSH1 0x2 PUSH1 0x20 MSTORE DUP2 PUSH0 MSTORE PUSH1 0x40 PUSH0 KECCAK256 PUSH1 0x20 MSTORE DUP1 PUSH0 MSTORE PUSH1 0x40 PUSH0 KECCAK256 PUSH0 SWAP2 POP SWAP2 POP POP SLOAD DUP2 JUMP JUMPDEST PUSH32 0x0 DUP2 JUMP JUMPDEST PUSH0 PUSH1 0x1 PUSH0 DUP5 DUP2 MSTORE PUSH1 0x20 ADD SWAP1 DUP2 MSTORE PUSH1 0x20 ADD PUSH0 KECCAK256 SWAP1 POP DUP1 PUSH1 0x3 ADD PUSH0 SWAP1 SLOAD SWAP1 PUSH2 0x100 EXP SWAP1 DIV PUSH4 0xFFFFFFFF AND PUSH4 0xFFFFFFFF AND TIMESTAMP LT ISZERO PUSH2 0xEA6 JUMPI PUSH1 0x40 MLOAD PUSH32 0x8C379A000000000000000000000000000000000000000000000000000000000 DUP2 MSTORE PUSH1 0x4 ADD PUSH2 0xE9D SWAP1 PUSH2 0x18F0 JUMP JUMPDEST PUSH1 0x40 MLOAD DUP1 SWAP2 SUB SWAP1 REVERT JUMPDEST DUP1 PUSH1 0x3 ADD PUSH1 0x4 SWAP1 SLOAD SWAP1 PUSH2 0x100 EXP SWAP1 DIV PUSH4 0xFFFFFFFF AND PUSH4 0xFFFFFFFF AND TIMESTAMP GT ISZERO PUSH2 0xF03 JUMPI PUSH1 0x40 MLOAD PUSH32 0x8C379A000000000000000000000000000000000000000000000000000000000 DUP2 MSTORE PUSH1 0x4 ADD PUSH2 0xEFA SWAP1 PUSH2 0x1855 JUMP JUMPDEST PUSH1 0x40 MLOAD DUP1 SWAP2 SUB SWAP1 REVERT JUMPDEST DUP2 DUP2 PUSH1 0x2 ADD PUSH0 DUP3 DUP3 SLOAD PUSH2 0xF16 SWAP2 SWAP1 PUSH2 0x15F5 JUMP JUMPDEST SWAP3 POP POP DUP2 SWAP1 SSTORE POP DUP2 PUSH1 0x2 PUSH0 DUP6 DUP2 MSTORE PUSH1 0x20 ADD SWAP1 DUP2 MSTORE PUSH1 0x20 ADD PUSH0 KECCAK256 PUSH0 CALLER PUSH20 0xFFFFFFFFFFFFFFFFFFFFFFFFFFFFFFFFFFFFFFFF AND PUSH20 0xFFFFFFFFFFFFFFFFFFFFFFFFFFFFFFFFFFFFFFFF AND DUP2 MSTORE PUSH1 0x20 ADD SWAP1 DUP2 MSTORE PUSH1 0x20 ADD PUSH0 KECCAK256 PUSH0 DUP3 DUP3 SLOAD PUSH2 0xF78 SWAP2 SWAP1 PUSH2 0x15F5 JUMP JUMPDEST SWAP3 POP POP DUP2 SWAP1 SSTORE POP PUSH32 0x0 PUSH20 0xFFFFFFFFFFFFFFFFFFFFFFFFFFFFFFFFFFFFFFFF AND PUSH4 0x23B872DD CALLER ADDRESS DUP6 PUSH1 0x40 MLOAD DUP5 PUSH4 0xFFFFFFFF AND PUSH1 0xE0 SHL DUP2 MSTORE PUSH1 0x4 ADD PUSH2 0xFDC SWAP4 SWAP3 SWAP2 SWAP1 PUSH2 0x190E JUMP JUMPDEST PUSH1 0x20 PUSH1 0x40 MLOAD DUP1 DUP4 SUB DUP2 PUSH0 DUP8 GAS CALL ISZERO DUP1 ISZERO PUSH2 0xFF8 JUMPI RETURNDATASIZE PUSH0 PUSH0 RETURNDATACOPY RETURNDATASIZE PUSH0 REVERT JUMPDEST POP POP POP POP PUSH1 0x40 MLOAD RETURNDATASIZE PUSH1 0x1F NOT PUSH1 0x1F DUP3 ADD AND DUP3 ADD DUP1 PUSH1 0x40 MSTORE POP DUP2 ADD SWAP1 PUSH2 0x101C SWAP2 SWAP1 PUSH2 0x1496 JUMP JUMPDEST POP CALLER PUSH20 0xFFFFFFFFFFFFFFFFFFFFFFFFFFFFFFFFFFFFFFFF AND DUP4 PUSH32 0x6BDB975DF800A73232998E71ED585D536222F1DFEAA622D7F62A23ADA686C82 DUP5 PUSH1 0x40 MLOAD PUSH2 0x1064 SWAP2 SWAP1 PUSH2 0x1089 JUMP JUMPDEST PUSH1 0x40 MLOAD DUP1 SWAP2 SUB SWAP1 LOG3 POP POP POP JUMP JUMPDEST PUSH0 DUP2 SWAP1 POP SWAP2 SWAP1 POP JUMP JUMPDEST PUSH2 0x1083 DUP2 PUSH2 0x1071 JUMP JUMPDEST DUP3 MSTORE POP POP JUMP JUMPDEST PUSH0 PUSH1 0x20 DUP3 ADD SWAP1 POP PUSH2 0x109C PUSH0 DUP4 ADD DUP5 PUSH2 0x107A JUMP JUMPDEST SWAP3 SWAP2 POP POP JUMP JUMPDEST PUSH0 PUSH0 REVERT JUMPDEST PUSH2 0x10AF DUP2 PUSH2 0x1071 JUMP JUMPDEST DUP2 EQ PUSH2 0x10B9 JUMPI PUSH0 PUSH0 REVERT JUMPDEST POP JUMP JUMPDEST PUSH0 DUP2 CALLDATALOAD SWAP1 POP PUSH2 0x10CA DUP2 PUSH2 0x10A6 JUMP JUMPDEST SWAP3 SWAP2 POP POP JUMP JUMPDEST PUSH0 PUSH1 0x20 DUP3 DUP5 SUB SLT ISZERO PUSH2 0x10E5 JUMPI PUSH2 0x10E4 PUSH2 0x10A2 JUMP JUMPDEST JUMPDEST PUSH0 PUSH2 0x10F2 DUP5 DUP3 DUP6 ADD PUSH2 0x10BC JUMP JUMPDEST SWAP2 POP POP SWAP3 SWAP2 POP POP JUMP JUMPDEST PUSH0 PUSH20 0xFFFFFFFFFFFFFFFFFFFFFFFFFFFFFFFFFFFFFFFF DUP3 AND SWAP1 POP SWAP2 SWAP1 POP JUMP JUMPDEST PUSH0 PUSH2 0x1124 DUP3 PUSH2 0x10FB JUMP JUMPDEST SWAP1 POP SWAP2 SWAP1 POP JUMP JUMPDEST PUSH2 0x1134 DUP2 PUSH2 0x111A JUMP JUMPDEST DUP3 MSTORE POP POP JUMP JUMPDEST PUSH0 PUSH4 0xFFFFFFFF DUP3 AND SWAP1 POP SWAP2 SWAP1 POP JUMP JUMPDEST PUSH2 0x1152 DUP2 PUSH2 0x113A JUMP JUMPDEST DUP3 MSTORE POP POP JUMP JUMPDEST PUSH0 DUP2 ISZERO ISZERO SWAP1 POP SWAP2 SWAP1 POP JUMP JUMPDEST PUSH2 0x116C DUP2 PUSH2 0x1158 JUMP JUMPDEST DUP3 MSTORE POP POP JUMP JUMPDEST PUSH0 PUSH1 0xC0 DUP3 ADD SWAP1 POP PUSH2 0x1185 PUSH0 DUP4 ADD DUP10 PUSH2 0x112B JUMP JUMPDEST PUSH2 0x1192 PUSH1 0x20 DUP4 ADD DUP9 PUSH2 0x107A JUMP JUMPDEST PUSH2 0x119F PUSH1 0x40 DUP4 ADD DUP8 PUSH2 0x107A JUMP JUMPDEST PUSH2 0x11AC PUSH1 0x60 DUP4 ADD DUP7 PUSH2 0x1149 JUMP JUMPDEST PUSH2 0x11B9 PUSH1 0x80 DUP4 ADD DUP6 PUSH2 0x1149 JUMP JUMPDEST PUSH2 0x11C6 PUSH1 0xA0 DUP4 ADD DUP5 PUSH2 0x1163 JUMP JUMPDEST SWAP8 SWAP7 POP POP POP POP POP POP POP JUMP JUMPDEST PUSH2 0x11DA DUP2 PUSH2 0x113A JUMP JUMPDEST DUP2 EQ PUSH2 0x11E4 JUMPI PUSH0 PUSH0 REVERT JUMPDEST POP JUMP JUMPDEST PUSH0 DUP2 CALLDATALOAD SWAP1 POP PUSH2 0x11F5 DUP2 PUSH2 0x11D1 JUMP JUMPDEST SWAP3 SWAP2 POP POP JUMP JUMPDEST PUSH0 PUSH0 PUSH0 PUSH1 0x60 DUP5 DUP7 SUB SLT ISZERO PUSH2 0x1212 JUMPI PUSH2 0x1211 PUSH2 0x10A2 JUMP JUMPDEST JUMPDEST PUSH0 PUSH2 0x121F DUP7 DUP3 DUP8 ADD PUSH2 0x10BC JUMP JUMPDEST SWAP4 POP POP PUSH1 0x20 PUSH2 0x1230 DUP7 DUP3 DUP8 ADD PUSH2 0x11E7 JUMP JUMPDEST SWAP3 POP POP PUSH1 0x40 PUSH2 0x1241 DUP7 DUP3 DUP8 ADD PUSH2 0x11E7 JUMP JUMPDEST SWAP2 POP POP SWAP3 POP SWAP3 POP SWAP3 JUMP JUMPDEST PUSH0 PUSH0 PUSH1 0x40 DUP4 DUP6 SUB SLT ISZERO PUSH2 0x1261 JUMPI PUSH2 0x1260 PUSH2 0x10A2 JUMP JUMPDEST JUMPDEST PUSH0 PUSH2 0x126E DUP6 DUP3 DUP7 ADD PUSH2 0x10BC JUMP JUMPDEST SWAP3 POP POP PUSH1 0x20 PUSH2 0x127F DUP6 DUP3 DUP7 ADD PUSH2 0x10BC JUMP JUMPDEST SWAP2 POP POP SWAP3 POP SWAP3 SWAP1 POP JUMP JUMPDEST PUSH2 0x1292 DUP2 PUSH2 0x111A JUMP JUMPDEST DUP2 EQ PUSH2 0x129C JUMPI PUSH0 PUSH0 REVERT JUMPDEST POP JUMP JUMPDEST PUSH0 DUP2 CALLDATALOAD SWAP1 POP PUSH2 0x12AD DUP2 PUSH2 0x1289 JUMP JUMPDEST SWAP3 SWAP2 POP POP JUMP JUMPDEST PUSH0 PUSH0 PUSH1 0x40 DUP4 DUP6 SUB SLT ISZERO PUSH2 0x12C9 JUMPI PUSH2 0x12C8 PUSH2 0x10A2 JUMP JUMPDEST JUMPDEST PUSH0 PUSH2 0x12D6 DUP6 DUP3 DUP7 ADD PUSH2 0x10BC JUMP JUMPDEST SWAP3 POP POP PUSH1 0x20 PUSH2 0x12E7 DUP6 DUP3 DUP7 ADD PUSH2 0x129F JUMP JUMPDEST SWAP2 POP POP SWAP3 POP SWAP3 SWAP1 POP JUMP JUMPDEST PUSH0 DUP2 SWAP1 POP SWAP2 SWAP1 POP JUMP JUMPDEST PUSH0 PUSH2 0x1314 PUSH2 0x130F PUSH2 0x130A DUP5 PUSH2 0x10FB JUMP JUMPDEST PUSH2 0x12F1 JUMP JUMPDEST PUSH2 0x10FB JUMP JUMPDEST SWAP1 POP SWAP2 SWAP1 POP JUMP JUMPDEST PUSH0 PUSH2 0x1325 DUP3 PUSH2 0x12FA JUMP JUMPDEST SWAP1 POP SWAP2 SWAP1 POP JUMP JUMPDEST PUSH0 PUSH2 0x1336 DUP3 PUSH2 0x131B JUMP JUMPDEST SWAP1 POP SWAP2 SWAP1 POP JUMP JUMPDEST PUSH2 0x1346 DUP2 PUSH2 0x132C JUMP JUMPDEST DUP3 MSTORE POP POP JUMP JUMPDEST PUSH0 PUSH1 0x20 DUP3 ADD SWAP1 POP PUSH2 0x135F PUSH0 DUP4 ADD DUP5 PUSH2 0x133D JUMP JUMPDEST SWAP3 SWAP2 POP POP JUMP JUMPDEST PUSH0 DUP3 DUP3 MSTORE PUSH1 0x20 DUP3 ADD SWAP1 POP SWAP3 SWAP2 POP POP JUMP JUMPDEST PUSH32 0x6E6F7420656E6465640000000000000000000000000000000000000000000000 PUSH0 DUP3 ADD MSTORE POP JUMP JUMPDEST PUSH0 PUSH2 0x13A9 PUSH1 0x9 DUP4 PUSH2 0x1365 JUMP JUMPDEST SWAP2 POP PUSH2 0x13B4 DUP3 PUSH2 0x1375 JUMP JUMPDEST PUSH1 0x20 DUP3 ADD SWAP1 POP SWAP2 SWAP1 POP JUMP JUMPDEST PUSH0 PUSH1 0x20 DUP3 ADD SWAP1 POP DUP2 DUP2 SUB PUSH0 DUP4 ADD MSTORE PUSH2 0x13D6 DUP2 PUSH2 0x139D JUMP JUMPDEST SWAP1 POP SWAP2 SWAP1 POP JUMP JUMPDEST PUSH32 0x706C6564676564203E3D20676F616C0000000000000000000000000000000000 PUSH0 DUP3 ADD MSTORE POP JUMP JUMPDEST PUSH0 PUSH2 0x1411 PUSH1 0xF DUP4 PUSH2 0x1365 JUMP JUMPDEST SWAP2 POP PUSH2 0x141C DUP3 PUSH2 0x13DD JUMP JUMPDEST PUSH1 0x20 DUP3 ADD SWAP1 POP SWAP2 SWAP1 POP JUMP JUMPDEST PUSH0 PUSH1 0x20 DUP3 ADD SWAP1 POP DUP2 DUP2 SUB PUSH0 DUP4 ADD MSTORE PUSH2 0x143E DUP2 PUSH2 0x1405 JUMP JUMPDEST SWAP1 POP SWAP2 SWAP1 POP JUMP JUMPDEST PUSH0 PUSH1 0x40 DUP3 ADD SWAP1 POP PUSH2 0x1458 PUSH0 DUP4 ADD DUP6 PUSH2 0x112B JUMP JUMPDEST PUSH2 0x1465 PUSH1 0x20 DUP4 ADD DUP5 PUSH2 0x107A JUMP JUMPDEST SWAP4 SWAP3 POP POP POP JUMP JUMPDEST PUSH2 0x1475 DUP2 PUSH2 0x1158 JUMP JUMPDEST DUP2 EQ PUSH2 0x147F JUMPI PUSH0 PUSH0 REVERT JUMPDEST POP JUMP JUMPDEST PUSH0 DUP2 MLOAD SWAP1 POP PUSH2 0x1490 DUP2 PUSH2 0x146C JUMP JUMPDEST SWAP3 SWAP2 POP POP JUMP JUMPDEST PUSH0 PUSH1 0x20 DUP3 DUP5 SUB SLT ISZERO PUSH2 0x14AB JUMPI PUSH2 0x14AA PUSH2 0x10A2 JUMP JUMPDEST JUMPDEST PUSH0 PUSH2 0x14B8 DUP5 DUP3 DUP6 ADD PUSH2 0x1482 JUMP JUMPDEST SWAP2 POP POP SWAP3 SWAP2 POP POP JUMP JUMPDEST PUSH32 0x656E644174203C3D207374617274417400000000000000000000000000000000 PUSH0 DUP3 ADD MSTORE POP JUMP JUMPDEST PUSH0 PUSH2 0x14F5 PUSH1 0x10 DUP4 PUSH2 0x1365 JUMP JUMPDEST SWAP2 POP PUSH2 0x1500 DUP3 PUSH2 0x14C1 JUMP JUMPDEST PUSH1 0x20 DUP3 ADD SWAP1 POP SWAP2 SWAP1 POP JUMP JUMPDEST PUSH0 PUSH1 0x20 DUP3 ADD SWAP1 POP DUP2 DUP2 SUB PUSH0 DUP4 ADD MSTORE PUSH2 0x1522 DUP2 PUSH2 0x14E9 JUMP JUMPDEST SWAP1 POP SWAP2 SWAP1 POP JUMP JUMPDEST PUSH32 0x656E64203E203330206461797300000000000000000000000000000000000000 PUSH0 DUP3 ADD MSTORE POP JUMP JUMPDEST PUSH0 PUSH2 0x155D PUSH1 0xD DUP4 PUSH2 0x1365 JUMP JUMPDEST SWAP2 POP PUSH2 0x1568 DUP3 PUSH2 0x1529 JUMP JUMPDEST PUSH1 0x20 DUP3 ADD SWAP1 POP SWAP2 SWAP1 POP JUMP JUMPDEST PUSH0 PUSH1 0x20 DUP3 ADD SWAP1 POP DUP2 DUP2 SUB PUSH0 DUP4 ADD MSTORE PUSH2 0x158A DUP2 PUSH2 0x1551 JUMP JUMPDEST SWAP1 POP SWAP2 SWAP1 POP JUMP JUMPDEST PUSH32 0x4E487B7100000000000000000000000000000000000000000000000000000000 PUSH0 MSTORE PUSH1 0x11 PUSH1 0x4 MSTORE PUSH1 0x24 PUSH0 REVERT JUMPDEST PUSH0 PUSH2 0x15C8 DUP3 PUSH2 0x113A JUMP JUMPDEST SWAP2 POP PUSH2 0x15D3 DUP4 PUSH2 0x113A JUMP JUMPDEST SWAP3 POP DUP3 DUP3 ADD SWAP1 POP PUSH4 0xFFFFFFFF DUP2 GT ISZERO PUSH2 0x15EF JUMPI PUSH2 0x15EE PUSH2 0x1591 JUMP JUMPDEST JUMPDEST SWAP3 SWAP2 POP POP JUMP JUMPDEST PUSH0 PUSH2 0x15FF DUP3 PUSH2 0x1071 JUMP JUMPDEST SWAP2 POP PUSH2 0x160A DUP4 PUSH2 0x1071 JUMP JUMPDEST SWAP3 POP DUP3 DUP3 ADD SWAP1 POP DUP1 DUP3 GT ISZERO PUSH2 0x1622 JUMPI PUSH2 0x1621 PUSH2 0x1591 JUMP JUMPDEST JUMPDEST SWAP3 SWAP2 POP POP JUMP JUMPDEST PUSH0 PUSH1 0x80 DUP3 ADD SWAP1 POP PUSH2 0x163B PUSH0 DUP4 ADD DUP8 PUSH2 0x107A JUMP JUMPDEST PUSH2 0x1648 PUSH1 0x20 DUP4 ADD DUP7 PUSH2 0x107A JUMP JUMPDEST PUSH2 0x1655 PUSH1 0x40 DUP4 ADD DUP6 PUSH2 0x1149 JUMP JUMPDEST PUSH2 0x1662 PUSH1 0x60 DUP4 ADD DUP5 PUSH2 0x1149 JUMP JUMPDEST SWAP6 SWAP5 POP POP POP POP POP JUMP JUMPDEST PUSH32 0x6E6F742063726561746F72000000000000000000000000000000000000000000 PUSH0 DUP3 ADD MSTORE POP JUMP JUMPDEST PUSH0 PUSH2 0x169F PUSH1 0xB DUP4 PUSH2 0x1365 JUMP JUMPDEST SWAP2 POP PUSH2 0x16AA DUP3 PUSH2 0x166B JUMP JUMPDEST PUSH1 0x20 DUP3 ADD SWAP1 POP SWAP2 SWAP1 POP JUMP JUMPDEST PUSH0 PUSH1 0x20 DUP3 ADD SWAP1 POP DUP2 DUP2 SUB PUSH0 DUP4 ADD MSTORE PUSH2 0x16CC DUP2 PUSH2 0x1693 JUMP JUMPDEST SWAP1 POP SWAP2 SWAP1 POP JUMP JUMPDEST PUSH32 0x706C6564676564203C20676F616C000000000000000000000000000000000000 PUSH0 DUP3 ADD MSTORE POP JUMP JUMPDEST PUSH0 PUSH2 0x1707 PUSH1 0xE DUP4 PUSH2 0x1365 JUMP JUMPDEST SWAP2 POP PUSH2 0x1712 DUP3 PUSH2 0x16D3 JUMP JUMPDEST PUSH1 0x20 DUP3 ADD SWAP1 POP SWAP2 SWAP1 POP JUMP JUMPDEST PUSH0 PUSH1 0x20 DUP3 ADD SWAP1 POP DUP2 DUP2 SUB PUSH0 DUP4 ADD MSTORE PUSH2 0x1734 DUP2 PUSH2 0x16FB JUMP JUMPDEST SWAP1 POP SWAP2 SWAP1 POP JUMP JUMPDEST PUSH32 0x636C61696D656400000000000000000000000000000000000000000000000000 PUSH0 DUP3 ADD MSTORE POP JUMP JUMPDEST PUSH0 PUSH2 0x176F PUSH1 0x7 DUP4 PUSH2 0x1365 JUMP JUMPDEST SWAP2 POP PUSH2 0x177A DUP3 PUSH2 0x173B JUMP JUMPDEST PUSH1 0x20 DUP3 ADD SWAP1 POP SWAP2 SWAP1 POP JUMP JUMPDEST PUSH0 PUSH1 0x20 DUP3 ADD SWAP1 POP DUP2 DUP2 SUB PUSH0 DUP4 ADD MSTORE PUSH2 0x179C DUP2 PUSH2 0x1763 JUMP JUMPDEST SWAP1 POP SWAP2 SWAP1 POP JUMP JUMPDEST PUSH32 0x7374617274656400000000000000000000000000000000000000000000000000 PUSH0 DUP3 ADD MSTORE POP JUMP JUMPDEST PUSH0 PUSH2 0x17D7 PUSH1 0x7 DUP4 PUSH2 0x1365 JUMP JUMPDEST SWAP2 POP PUSH2 0x17E2 DUP3 PUSH2 0x17A3 JUMP JUMPDEST PUSH1 0x20 DUP3 ADD SWAP1 POP SWAP2 SWAP1 POP JUMP JUMPDEST PUSH0 PUSH1 0x20 DUP3 ADD SWAP1 POP DUP2 DUP2 SUB PUSH0 DUP4 ADD MSTORE PUSH2 0x1804 DUP2 PUSH2 0x17CB JUMP JUMPDEST SWAP1 POP SWAP2 SWAP1 POP JUMP JUMPDEST PUSH32 0x656E646564000000000000000000000000000000000000000000000000000000 PUSH0 DUP3 ADD MSTORE POP JUMP JUMPDEST PUSH0 PUSH2 0x183F PUSH1 0x5 DUP4 PUSH2 0x1365 JUMP JUMPDEST SWAP2 POP PUSH2 0x184A DUP3 PUSH2 0x180B JUMP JUMPDEST PUSH1 0x20 DUP3 ADD SWAP1 POP SWAP2 SWAP1 POP JUMP JUMPDEST PUSH0 PUSH1 0x20 DUP3 ADD SWAP1 POP DUP2 DUP2 SUB PUSH0 DUP4 ADD MSTORE PUSH2 0x186C DUP2 PUSH2 0x1833 JUMP JUMPDEST SWAP1 POP SWAP2 SWAP1 POP JUMP JUMPDEST PUSH0 PUSH2 0x187D DUP3 PUSH2 0x1071 JUMP JUMPDEST SWAP2 POP PUSH2 0x1888 DUP4 PUSH2 0x1071 JUMP JUMPDEST SWAP3 POP DUP3 DUP3 SUB SWAP1 POP DUP2 DUP2 GT ISZERO PUSH2 0x18A0 JUMPI PUSH2 0x189F PUSH2 0x1591 JUMP JUMPDEST JUMPDEST SWAP3 SWAP2 POP POP JUMP JUMPDEST PUSH32 0x6E6F742073746172746564000000000000000000000000000000000000000000 PUSH0 DUP3 ADD MSTORE POP JUMP JUMPDEST PUSH0 PUSH2 0x18DA PUSH1 0xB DUP4 PUSH2 0x1365 JUMP JUMPDEST SWAP2 POP PUSH2 0x18E5 DUP3 PUSH2 0x18A6 JUMP JUMPDEST PUSH1 0x20 DUP3 ADD SWAP1 POP SWAP2 SWAP1 POP JUMP JUMPDEST PUSH0 PUSH1 0x20 DUP3 ADD SWAP1 POP DUP2 DUP2 SUB PUSH0 DUP4 ADD MSTORE PUSH2 0x1907 DUP2 PUSH2 0x18CE JUMP JUMPDEST SWAP1 POP SWAP2 SWAP1 POP JUMP JUMPDEST PUSH0 PUSH1 0x60 DUP3 ADD SWAP1 POP PUSH2 0x1921 PUSH0 DUP4 ADD DUP7 PUSH2 0x112B JUMP JUMPDEST PUSH2 0x192E PUSH1 0x20 DUP4 ADD DUP6 PUSH2 0x112B JUMP JUMPDEST PUSH2 0x193B PUSH1 0x40 DUP4 ADD DUP5 PUSH2 0x107A JUMP JUMPDEST SWAP5 SWAP4 POP POP POP POP JUMP INVALID LOG2 PUSH5 0x6970667358 0x22 SLT KECCAK256 CALLVALUE RJUMP 0x79CB SWAP9 0xE2 SWAP7 CALLVALUE 0xC5 CALLCODE DUP1 0xB0 RETURN 0xDE SGT SHR PUSH11 0xB0EE4C421A9C2AE705E87 SWAP13 0xCA PUSH28 0xE864736F6C634300081E003300000000000000000000000000000000 "
				},
				"gasEstimates": {
					"creation": {
						"codeDepositCost": "1304200",
						"executionCost": "infinite",
						"totalCost": "infinite"
					},
					"external": {
						"campaigns(uint256)": "infinite",
						"cancel(uint256)": "infinite",
						"claim(uint256)": "infinite",
						"count()": "2425",
						"launch(uint256,uint32,uint32)": "infinite",
						"pledge(uint256,uint256)": "infinite",
						"pledgedAmount(uint256,address)": "infinite",
						"refund(uint256)": "infinite",
						"token()": "infinite",
						"unpledge(uint256,uint256)": "infinite"
					}
				},
				"methodIdentifiers": {
					"campaigns(uint256)": "141961bc",
					"cancel(uint256)": "40e58ee5",
					"claim(uint256)": "379607f5",
					"count()": "06661abd",
					"launch(uint256,uint32,uint32)": "2c63f146",
					"pledge(uint256,uint256)": "fde327be",
					"pledgedAmount(uint256,address)": "aa4fb63a",
					"refund(uint256)": "278ecde1",
					"token()": "fc0c546a",
					"unpledge(uint256,uint256)": "711853ab"
				}
			},
			"storageLayout": {
				"storage": [
					{
						"astId": 84,
						"contract": "C2E_learning/test.sol:CrowdFund",
						"label": "count",
						"offset": 0,
						"slot": "0",
						"type": "t_uint256"
					},
					{
						"astId": 89,
						"contract": "C2E_learning/test.sol:CrowdFund",
						"label": "campaigns",
						"offset": 0,
						"slot": "1",
						"type": "t_mapping(t_uint256,t_struct(Campaign)79_storage)"
					},
					{
						"astId": 95,
						"contract": "C2E_learning/test.sol:CrowdFund",
						"label": "pledgedAmount",
						"offset": 0,
						"slot": "2",
						"type": "t_mapping(t_uint256,t_mapping(t_address,t_uint256))"
					}
				],
				"types": {
					"t_address": {
						"encoding": "inplace",
						"label": "address",
						"numberOfBytes": "20"
					},
					"t_bool": {
						"encoding": "inplace",
						"label": "bool",
						"numberOfBytes": "1"
					},
					"t_mapping(t_address,t_uint256)": {
						"encoding": "mapping",
						"key": "t_address",
						"label": "mapping(address => uint256)",
						"numberOfBytes": "32",
						"value": "t_uint256"
					},
					"t_mapping(t_uint256,t_mapping(t_address,t_uint256))": {
						"encoding": "mapping",
						"key": "t_uint256",
						"label": "mapping(uint256 => mapping(address => uint256))",
						"numberOfBytes": "32",
						"value": "t_mapping(t_address,t_uint256)"
					},
					"t_mapping(t_uint256,t_struct(Campaign)79_storage)": {
						"encoding": "mapping",
						"key": "t_uint256",
						"label": "mapping(uint256 => struct CrowdFund.Campaign)",
						"numberOfBytes": "32",
						"value": "t_struct(Campaign)79_storage"
					},
					"t_struct(Campaign)79_storage": {
						"encoding": "inplace",
						"label": "struct CrowdFund.Campaign",
						"members": [
							{
								"astId": 68,
								"contract": "C2E_learning/test.sol:CrowdFund",
								"label": "creator",
								"offset": 0,
								"slot": "0",
								"type": "t_address"
							},
							{
								"astId": 70,
								"contract": "C2E_learning/test.sol:CrowdFund",
								"label": "goal",
								"offset": 0,
								"slot": "1",
								"type": "t_uint256"
							},
							{
								"astId": 72,
								"contract": "C2E_learning/test.sol:CrowdFund",
								"label": "pledged",
								"offset": 0,
								"slot": "2",
								"type": "t_uint256"
							},
							{
								"astId": 74,
								"contract": "C2E_learning/test.sol:CrowdFund",
								"label": "startAt",
								"offset": 0,
								"slot": "3",
								"type": "t_uint32"
							},
							{
								"astId": 76,
								"contract": "C2E_learning/test.sol:CrowdFund",
								"label": "endAt",
								"offset": 4,
								"slot": "3",
								"type": "t_uint32"
							},
							{
								"astId": 78,
								"contract": "C2E_learning/test.sol:CrowdFund",
								"label": "claimed",
								"offset": 8,
								"slot": "3",
								"type": "t_bool"
							}
						],
						"numberOfBytes": "128"
					},
					"t_uint256": {
						"encoding": "inplace",
						"label": "uint256",
						"numberOfBytes": "32"
					},
					"t_uint32": {
						"encoding": "inplace",
						"label": "uint32",
						"numberOfBytes": "4"
					}
				}
			},
			"userdoc": {
				"kind": "user",
				"methods": {},
				"version": 1
			}
		}
	}
}