{
	"data": {
		"bytecode": {
			"linkReferences": {},
			"object": "60e060405234801561000f575f5ffd5b5060405161143938038061143983398181016040528101906100319190610141565b8273ffffffffffffffffffffffffffffffffffffffff1660808173ffffffffffffffffffffffffffffffffffffffff16815250508160a081815250503373ffffffffffffffffffffffffffffffffffffffff1660c08173ffffffffffffffffffffffffffffffffffffffff168152505080600281905550505050610191565b5f5ffd5b5f73ffffffffffffffffffffffffffffffffffffffff82169050919050565b5f6100dd826100b4565b9050919050565b6100ed816100d3565b81146100f7575f5ffd5b50565b5f81519050610108816100e4565b92915050565b5f819050919050565b6101208161010e565b811461012a575f5ffd5b50565b5f8151905061013b81610117565b92915050565b5f5f5f60608486031215610158576101576100b0565b5b5f610165868287016100fa565b93505060206101768682870161012d565b92505060406101878682870161012d565b9150509250925092565b60805160a05160c0516112386102015f395f818161029f0152818161069c015281816107e601528181610ae70152610b8f01525f8181610808015281816108a201528181610a7b0152610bb001525f8181610638015281816107aa01528181610a1b0152610b5201526112385ff3fe6080604052600436106100c1575f3560e01c806362ea82db1161007e578063be9a655511610058578063be9a65551461021d578063c6bc518214610233578063d57bde791461025d578063efbe1c1c14610287576100c1565b806362ea82db1461018d5780637cc3ae8c146101c957806391f90157146101f3576100c1565b806308551a53146100c557806312fa6feb146100ef5780631998aeef146101195780631f2698ab146101235780633ccfd60b1461014d57806347ccca0214610163575b5f5ffd5b3480156100d0575f5ffd5b506100d961029d565b6040516100e69190610cb9565b60405180910390f35b3480156100fa575f5ffd5b506101036102c1565b6040516101109190610cec565b60405180910390f35b6101216102d2565b005b34801561012e575f5ffd5b5061013761050c565b6040516101449190610cec565b60405180910390f35b348015610158575f5ffd5b5061016161051e565b005b34801561016e575f5ffd5b50610177610636565b6040516101849190610d60565b60405180910390f35b348015610198575f5ffd5b506101b360048036038101906101ae9190610db8565b61065a565b6040516101c09190610dfb565b60405180910390f35b3480156101d4575f5ffd5b506101dd61066f565b6040516101ea9190610dfb565b60405180910390f35b3480156101fe575f5ffd5b50610207610674565b6040516102149190610e23565b60405180910390f35b348015610228575f5ffd5b5061023161069a565b005b34801561023e575f5ffd5b506102476108a0565b6040516102549190610dfb565b60405180910390f35b348015610268575f5ffd5b506102716108c4565b60405161027e9190610dfb565b60405180910390f35b348015610292575f5ffd5b5061029b6108ca565b005b7f000000000000000000000000000000000000000000000000000000000000000081565b60018054906101000a900460ff1681565b60015f9054906101000a900460ff16610320576040517f08c379a000000000000000000000000000000000000000000000000000000000815260040161031790610e96565b60405180910390fd5b5f544210610363576040517f08c379a000000000000000000000000000000000000000000000000000000000815260040161035a90610efe565b60405180910390fd5b60025434116103a7576040517f08c379a000000000000000000000000000000000000000000000000000000000815260040161039e90610f66565b60405180910390fd5b5f73ffffffffffffffffffffffffffffffffffffffff16600160029054906101000a900473ffffffffffffffffffffffffffffffffffffffff1673ffffffffffffffffffffffffffffffffffffffff16146104745760025460035f600160029054906101000a900473ffffffffffffffffffffffffffffffffffffffff1673ffffffffffffffffffffffffffffffffffffffff1673ffffffffffffffffffffffffffffffffffffffff1681526020019081526020015f205f82825461046c9190610fb1565b925050819055505b3460028190555033600160026101000a81548173ffffffffffffffffffffffffffffffffffffffff021916908373ffffffffffffffffffffffffffffffffffffffff1602179055503373ffffffffffffffffffffffffffffffffffffffff167fe684a55f31b79eca403df938249029212a5925ec6be8012e099b45bc1019e5d2346040516105029190610dfb565b60405180910390a2565b60015f9054906101000a900460ff1681565b5f60035f3373ffffffffffffffffffffffffffffffffffffffff1673ffffffffffffffffffffffffffffffffffffffff1681526020019081526020015f205490505f60035f3373ffffffffffffffffffffffffffffffffffffffff1673ffffffffffffffffffffffffffffffffffffffff1681526020019081526020015f20819055503373ffffffffffffffffffffffffffffffffffffffff166108fc8290811502906040515f60405180830381858888f193505050501580156105e4573d5f5f3e3d5ffd5b503373ffffffffffffffffffffffffffffffffffffffff167f884edad9ce6fa2440d8a54cc123490eb96d2768479d49ff9c7366125a94243648260405161062b9190610dfb565b60405180910390a250565b7f000000000000000000000000000000000000000000000000000000000000000081565b6003602052805f5260405f205f915090505481565b5f5481565b600160029054906101000a900473ffffffffffffffffffffffffffffffffffffffff1681565b7f000000000000000000000000000000000000000000000000000000000000000073ffffffffffffffffffffffffffffffffffffffff163373ffffffffffffffffffffffffffffffffffffffff1614610728576040517f08c379a000000000000000000000000000000000000000000000000000000000815260040161071f9061102e565b60405180910390fd5b60015f9054906101000a900460ff1615610777576040517f08c379a000000000000000000000000000000000000000000000000000000000815260040161076e90611096565b60405180910390fd5b6001805f6101000a81548160ff021916908315150217905550603c4261079d9190610fb1565b63ffffffff165f819055507f000000000000000000000000000000000000000000000000000000000000000073ffffffffffffffffffffffffffffffffffffffff166323b872dd7f0000000000000000000000000000000000000000000000000000000000000000307f00000000000000000000000000000000000000000000000000000000000000006040518463ffffffff1660e01b8152600401610845939291906110d4565b5f604051808303815f87803b15801561085c575f5ffd5b505af115801561086e573d5f5f3e3d5ffd5b505050507f1b55ba3aa851a46be3b365aee5b5c140edd620d578922f3e8466d2cbd96f954b60405160405180910390a1565b7f000000000000000000000000000000000000000000000000000000000000000081565b60025481565b60015f9054906101000a900460ff16610918576040517f08c379a000000000000000000000000000000000000000000000000000000000815260040161090f90610e96565b60405180910390fd5b5f5442101561095c576040517f08c379a000000000000000000000000000000000000000000000000000000000815260040161095390611153565b60405180910390fd5b60018054906101000a900460ff16156109aa576040517f08c379a00000000000000000000000000000000000000000000000000000000081526004016109a190610efe565b60405180910390fd5b60018060016101000a81548160ff0219169083151502179055505f73ffffffffffffffffffffffffffffffffffffffff16600160029054906101000a900473ffffffffffffffffffffffffffffffffffffffff1673ffffffffffffffffffffffffffffffffffffffff1614610b50577f000000000000000000000000000000000000000000000000000000000000000073ffffffffffffffffffffffffffffffffffffffff166323b872dd30600160029054906101000a900473ffffffffffffffffffffffffffffffffffffffff167f00000000000000000000000000000000000000000000000000000000000000006040518463ffffffff1660e01b8152600401610ab893929190611171565b5f604051808303815f87803b158015610acf575f5ffd5b505af1158015610ae1573d5f5f3e3d5ffd5b505050507f000000000000000000000000000000000000000000000000000000000000000073ffffffffffffffffffffffffffffffffffffffff166108fc60025490811502906040515f60405180830381858888f19350505050158015610b4a573d5f5f3e3d5ffd5b50610c1b565b7f000000000000000000000000000000000000000000000000000000000000000073ffffffffffffffffffffffffffffffffffffffff166323b872dd307f00000000000000000000000000000000000000000000000000000000000000007f00000000000000000000000000000000000000000000000000000000000000006040518463ffffffff1660e01b8152600401610bed939291906111a6565b5f604051808303815f87803b158015610c04575f5ffd5b505af1158015610c16573d5f5f3e3d5ffd5b505050505b7f7d7570b046e5ead3a4f3fbc9fa2445113625a1e79823776146316bafed6b8cc5600160029054906101000a900473ffffffffffffffffffffffffffffffffffffffff16600254604051610c709291906111db565b60405180910390a1565b5f73ffffffffffffffffffffffffffffffffffffffff82169050919050565b5f610ca382610c7a565b9050919050565b610cb381610c99565b82525050565b5f602082019050610ccc5f830184610caa565b92915050565b5f8115159050919050565b610ce681610cd2565b82525050565b5f602082019050610cff5f830184610cdd565b92915050565b5f819050919050565b5f610d28610d23610d1e84610c7a565b610d05565b610c7a565b9050919050565b5f610d3982610d0e565b9050919050565b5f610d4a82610d2f565b9050919050565b610d5a81610d40565b82525050565b5f602082019050610d735f830184610d51565b92915050565b5f5ffd5b5f610d8782610c7a565b9050919050565b610d9781610d7d565b8114610da1575f5ffd5b50565b5f81359050610db281610d8e565b92915050565b5f60208284031215610dcd57610dcc610d79565b5b5f610dda84828501610da4565b91505092915050565b5f819050919050565b610df581610de3565b82525050565b5f602082019050610e0e5f830184610dec565b92915050565b610e1d81610d7d565b82525050565b5f602082019050610e365f830184610e14565b92915050565b5f82825260208201905092915050565b7f6e6f7420737461727465640000000000000000000000000000000000000000005f82015250565b5f610e80600b83610e3c565b9150610e8b82610e4c565b602082019050919050565b5f6020820190508181035f830152610ead81610e74565b9050919050565b7f656e6465640000000000000000000000000000000000000000000000000000005f82015250565b5f610ee8600583610e3c565b9150610ef382610eb4565b602082019050919050565b5f6020820190508181035f830152610f1581610edc565b9050919050565b7f76616c7565203c206869676865737420626964000000000000000000000000005f82015250565b5f610f50601383610e3c565b9150610f5b82610f1c565b602082019050919050565b5f6020820190508181035f830152610f7d81610f44565b9050919050565b7f4e487b71000000000000000000000000000000000000000000000000000000005f52601160045260245ffd5b5f610fbb82610de3565b9150610fc683610de3565b9250828201905080821115610fde57610fdd610f84565b5b92915050565b7f6e6f742073656c6c6572000000000000000000000000000000000000000000005f82015250565b5f611018600a83610e3c565b915061102382610fe4565b602082019050919050565b5f6020820190508181035f8301526110458161100c565b9050919050565b7f616c7265616479207374617274656400000000000000000000000000000000005f82015250565b5f611080600f83610e3c565b915061108b8261104c565b602082019050919050565b5f6020820190508181035f8301526110ad81611074565b9050919050565b5f6110be82610d2f565b9050919050565b6110ce816110b4565b82525050565b5f6060820190506110e75f8301866110c5565b6110f46020830185610e14565b6111016040830184610dec565b949350505050565b7f6e6f7420656e64000000000000000000000000000000000000000000000000005f82015250565b5f61113d600783610e3c565b915061114882611109565b602082019050919050565b5f6020820190508181035f83015261116a81611131565b9050919050565b5f6060820190506111845f830186610e14565b6111916020830185610e14565b61119e6040830184610dec565b949350505050565b5f6060820190506111b95f830186610e14565b6111c660208301856110c5565b6111d36040830184610dec565b949350505050565b5f6040820190506111ee5f830185610e14565b6111fb6020830184610dec565b939250505056fea26469706673582212207f495a48e2e3c94a90041fdc6aab18504ca56be3d42439b341a30805220e826964736f6c634300081e0033",
			"opcodes": "PUSH1 0xE0 PUSH1 0x40 MSTORE CALLVALUE DUP1 ISZERO PUSH2 0xF JUMPI PUSH0 PUSH0 REVERT JUMPDEST POP PUSH1 0x40 MLOAD PUSH2 0x1439 CODESIZE SUB DUP1 PUSH2 0x1439 DUP4 CODECOPY DUP2 DUP2 ADD PUSH1 0x40 MSTORE DUP2 ADD SWAP1 PUSH2 0x31 SWAP2 SWAP1 PUSH2 0x141 JUMP JUMPDEST DUP3 PUSH20 0xFFFFFFFFFFFFFFFFFFFFFFFFFFFFFFFFFFFFFFFF AND PUSH1 0x80 DUP2 PUSH20 0xFFFFFFFFFFFFFFFFFFFFFFFFFFFFFFFFFFFFFFFF AND DUP2 MSTORE POP POP DUP2 PUSH1 0xA0 DUP2 DUP2 MSTORE POP POP CALLER PUSH20 0xFFFFFFFFFFFFFFFFFFFFFFFFFFFFFFFFFFFFFFFF AND PUSH1 0xC0 DUP2 PUSH20 0xFFFFFFFFFFFFFFFFFFFFFFFFFFFFFFFFFFFFFFFF AND DUP2 MSTORE POP POP DUP1 PUSH1 0x2 DUP2 SWAP1 SSTORE POP POP POP POP PUSH2 0x191 JUMP JUMPDEST PUSH0 PUSH0 REVERT JUMPDEST PUSH0 PUSH20 0xFFFFFFFFFFFFFFFFFFFFFFFFFFFFFFFFFFFFFFFF DUP3 AND SWAP1 POP SWAP2 SWAP1 POP JUMP JUMPDEST PUSH0 PUSH2 0xDD DUP3 PUSH2 0xB4 JUMP JUMPDEST SWAP1 POP SWAP2 SWAP1 POP JUMP JUMPDEST PUSH2 0xED DUP2 PUSH2 0xD3 JUMP JUMPDEST DUP2 EQ PUSH2 0xF7 JUMPI PUSH0 PUSH0 REVERT JUMPDEST POP JUMP JUMPDEST PUSH0 DUP2 MLOAD SWAP1 POP PUSH2 0x108 DUP2 PUSH2 0xE4 JUMP JUMPDEST SWAP3 SWAP2 POP POP JUMP JUMPDEST PUSH0 DUP2 SWAP1 POP SWAP2 SWAP1 POP JUMP JUMPDEST PUSH2 0x120 DUP2 PUSH2 0x10E JUMP JUMPDEST DUP2 EQ PUSH2 0x12A JUMPI PUSH0 PUSH0 REVERT JUMPDEST POP JUMP JUMPDEST PUSH0 DUP2 MLOAD SWAP1 POP PUSH2 0x13B DUP2 PUSH2 0x117 JUMP JUMPDEST SWAP3 SWAP2 POP POP JUMP JUMPDEST PUSH0 PUSH0 PUSH0 PUSH1 0x60 DUP5 DUP7 SUB SLT ISZERO PUSH2 0x158 JUMPI PUSH2 0x157 PUSH2 0xB0 JUMP JUMPDEST JUMPDEST PUSH0 PUSH2 0x165 DUP7 DUP3 DUP8 ADD PUSH2 0xFA JUMP JUMPDEST SWAP4 POP POP PUSH1 0x20 PUSH2 0x176 DUP7 DUP3 DUP8 ADD PUSH2 0x12D JUMP JUMPDEST SWAP3 POP POP PUSH1 0x40 PUSH2 0x187 DUP7 DUP3 DUP8 ADD PUSH2 0x12D JUMP JUMPDEST SWAP2 POP POP SWAP3 POP SWAP3 POP SWAP3 JUMP JUMPDEST PUSH1 0x80 MLOAD PUSH1 0xA0 MLOAD PUSH1 0xC0 MLOAD PUSH2 0x1238 PUSH2 0x201 PUSH0 CODECOPY PUSH0 DUP2 DUP2 PUSH2 0x29F ADD MSTORE DUP2 DUP2 PUSH2 0x69C ADD MSTORE DUP2 DUP2 PUSH2 0x7E6 ADD MSTORE DUP2 DUP2 PUSH2 0xAE7 ADD MSTORE PUSH2 0xB8F ADD MSTORE PUSH0 DUP2 DUP2 PUSH2 0x808 ADD MSTORE DUP2 DUP2 PUSH2 0x8A2 ADD MSTORE DUP2 DUP2 PUSH2 0xA7B ADD MSTORE PUSH2 0xBB0 ADD MSTORE PUSH0 DUP2 DUP2 PUSH2 0x638 ADD MSTORE DUP2 DUP2 PUSH2 0x7AA ADD MSTORE DUP2 DUP2 PUSH2 0xA1B ADD MSTORE PUSH2 0xB52 ADD MSTORE PUSH2 0x1238 PUSH0 RETURN INVALID PUSH1 0x80 PUSH1 0x40 MSTORE PUSH1 0x4 CALLDATASIZE LT PUSH2 0xC1 JUMPI PUSH0 CALLDATALOAD PUSH1 0xE0 SHR DUP1 PUSH4 0x62EA82DB GT PUSH2 0x7E JUMPI DUP1 PUSH4 0xBE9A6555 GT PUSH2 0x58 JUMPI DUP1 PUSH4 0xBE9A6555 EQ PUSH2 0x21D JUMPI DUP1 PUSH4 0xC6BC5182 EQ PUSH2 0x233 JUMPI DUP1 PUSH4 0xD57BDE79 EQ PUSH2 0x25D JUMPI DUP1 PUSH4 0xEFBE1C1C EQ PUSH2 0x287 JUMPI PUSH2 0xC1 JUMP JUMPDEST DUP1 PUSH4 0x62EA82DB EQ PUSH2 0x18D JUMPI DUP1 PUSH4 0x7CC3AE8C EQ PUSH2 0x1C9 JUMPI DUP1 PUSH4 0x91F90157 EQ PUSH2 0x1F3 JUMPI PUSH2 0xC1 JUMP JUMPDEST DUP1 PUSH4 0x8551A53 EQ PUSH2 0xC5 JUMPI DUP1 PUSH4 0x12FA6FEB EQ PUSH2 0xEF JUMPI DUP1 PUSH4 0x1998AEEF EQ PUSH2 0x119 JUMPI DUP1 PUSH4 0x1F2698AB EQ PUSH2 0x123 JUMPI DUP1 PUSH4 0x3CCFD60B EQ PUSH2 0x14D JUMPI DUP1 PUSH4 0x47CCCA02 EQ PUSH2 0x163 JUMPI JUMPDEST PUSH0 PUSH0 REVERT JUMPDEST CALLVALUE DUP1 ISZERO PUSH2 0xD0 JUMPI PUSH0 PUSH0 REVERT JUMPDEST POP PUSH2 0xD9 PUSH2 0x29D JUMP JUMPDEST PUSH1 0x40 MLOAD PUSH2 0xE6 SWAP2 SWAP1 PUSH2 0xCB9 JUMP JUMPDEST PUSH1 0x40 MLOAD DUP1 SWAP2 SUB SWAP1 RETURN JUMPDEST CALLVALUE DUP1 ISZERO PUSH2 0xFA JUMPI PUSH0 PUSH0 REVERT JUMPDEST POP PUSH2 0x103 PUSH2 0x2C1 JUMP JUMPDEST PUSH1 0x40 MLOAD PUSH2 0x110 SWAP2 SWAP1 PUSH2 0xCEC JUMP JUMPDEST PUSH1 0x40 MLOAD DUP1 SWAP2 SUB SWAP1 RETURN JUMPDEST PUSH2 0x121 PUSH2 0x2D2 JUMP JUMPDEST STOP JUMPDEST CALLVALUE DUP1 ISZERO PUSH2 0x12E JUMPI PUSH0 PUSH0 REVERT JUMPDEST POP PUSH2 0x137 PUSH2 0x50C JUMP JUMPDEST PUSH1 0x40 MLOAD PUSH2 0x144 SWAP2 SWAP1 PUSH2 0xCEC JUMP JUMPDEST PUSH1 0x40 MLOAD DUP1 SWAP2 SUB SWAP1 RETURN JUMPDEST CALLVALUE DUP1 ISZERO PUSH2 0x158 JUMPI PUSH0 PUSH0 REVERT JUMPDEST POP PUSH2 0x161 PUSH2 0x51E JUMP JUMPDEST STOP JUMPDEST CALLVALUE DUP1 ISZERO PUSH2 0x16E JUMPI PUSH0 PUSH0 REVERT JUMPDEST POP PUSH2 0x177 PUSH2 0x636 JUMP JUMPDEST PUSH1 0x40 MLOAD PUSH2 0x184 SWAP2 SWAP1 PUSH2 0xD60 JUMP JUMPDEST PUSH1 0x40 MLOAD DUP1 SWAP2 SUB SWAP1 RETURN JUMPDEST CALLVALUE DUP1 ISZERO PUSH2 0x198 JUMPI PUSH0 PUSH0 REVERT JUMPDEST POP PUSH2 0x1B3 PUSH1 0x4 DUP1 CALLDATASIZE SUB DUP2 ADD SWAP1 PUSH2 0x1AE SWAP2 SWAP1 PUSH2 0xDB8 JUMP JUMPDEST PUSH2 0x65A JUMP JUMPDEST PUSH1 0x40 MLOAD PUSH2 0x1C0 SWAP2 SWAP1 PUSH2 0xDFB JUMP JUMPDEST PUSH1 0x40 MLOAD DUP1 SWAP2 SUB SWAP1 RETURN JUMPDEST CALLVALUE DUP1 ISZERO PUSH2 0x1D4 JUMPI PUSH0 PUSH0 REVERT JUMPDEST POP PUSH2 0x1DD PUSH2 0x66F JUMP JUMPDEST PUSH1 0x40 MLOAD PUSH2 0x1EA SWAP2 SWAP1 PUSH2 0xDFB JUMP JUMPDEST PUSH1 0x40 MLOAD DUP1 SWAP2 SUB SWAP1 RETURN JUMPDEST CALLVALUE DUP1 ISZERO PUSH2 0x1FE JUMPI PUSH0 PUSH0 REVERT JUMPDEST POP PUSH2 0x207 PUSH2 0x674 JUMP JUMPDEST PUSH1 0x40 MLOAD PUSH2 0x214 SWAP2 SWAP1 PUSH2 0xE23 JUMP JUMPDEST PUSH1 0x40 MLOAD DUP1 SWAP2 SUB SWAP1 RETURN JUMPDEST CALLVALUE DUP1 ISZERO PUSH2 0x228 JUMPI PUSH0 PUSH0 REVERT JUMPDEST POP PUSH2 0x231 PUSH2 0x69A JUMP JUMPDEST STOP JUMPDEST CALLVALUE DUP1 ISZERO PUSH2 0x23E JUMPI PUSH0 PUSH0 REVERT JUMPDEST POP PUSH2 0x247 PUSH2 0x8A0 JUMP JUMPDEST PUSH1 0x40 MLOAD PUSH2 0x254 SWAP2 SWAP1 PUSH2 0xDFB JUMP JUMPDEST PUSH1 0x40 MLOAD DUP1 SWAP2 SUB SWAP1 RETURN JUMPDEST CALLVALUE DUP1 ISZERO PUSH2 0x268 JUMPI PUSH0 PUSH0 REVERT JUMPDEST POP PUSH2 0x271 PUSH2 0x8C4 JUMP JUMPDEST PUSH1 0x40 MLOAD PUSH2 0x27E SWAP2 SWAP1 PUSH2 0xDFB JUMP JUMPDEST PUSH1 0x40 MLOAD DUP1 SWAP2 SUB SWAP1 RETURN JUMPDEST CALLVALUE DUP1 ISZERO PUSH2 0x292 JUMPI PUSH0 PUSH0 REVERT JUMPDEST POP PUSH2 0x29B PUSH2 0x8CA JUMP JUMPDEST STOP JUMPDEST PUSH32 0x0 DUP2 JUMP JUMPDEST PUSH1 0x1 DUP1 SLOAD SWAP1 PUSH2 0x100 EXP SWAP1 DIV PUSH1 0xFF AND DUP2 JUMP JUMPDEST PUSH1 0x1 PUSH0 SWAP1 SLOAD SWAP1 PUSH2 0x100 EXP SWAP1 DIV PUSH1 0xFF AND PUSH2 0x320 JUMPI PUSH1 0x40 MLOAD PUSH32 0x8C379A000000000000000000000000000000000000000000000000000000000 DUP2 MSTORE PUSH1 0x4 ADD PUSH2 0x317 SWAP1 PUSH2 0xE96 JUMP JUMPDEST PUSH1 0x40 MLOAD DUP1 SWAP2 SUB SWAP1 REVERT JUMPDEST PUSH0 SLOAD TIMESTAMP LT PUSH2 0x363 JUMPI PUSH1 0x40 MLOAD PUSH32 0x8C379A000000000000000000000000000000000000000000000000000000000 DUP2 MSTORE PUSH1 0x4 ADD PUSH2 0x35A SWAP1 PUSH2 0xEFE JUMP JUMPDEST PUSH1 0x40 MLOAD DUP1 SWAP2 SUB SWAP1 REVERT JUMPDEST PUSH1 0x2 SLOAD CALLVALUE GT PUSH2 0x3A7 JUMPI PUSH1 0x40 MLOAD PUSH32 0x8C379A000000000000000000000000000000000000000000000000000000000 DUP2 MSTORE PUSH1 0x4 ADD PUSH2 0x39E SWAP1 PUSH2 0xF66 JUMP JUMPDEST PUSH1 0x40 MLOAD DUP1 SWAP2 SUB SWAP1 REVERT JUMPDEST PUSH0 PUSH20 0xFFFFFFFFFFFFFFFFFFFFFFFFFFFFFFFFFFFFFFFF AND PUSH1 0x1 PUSH1 0x2 SWAP1 SLOAD SWAP1 PUSH2 0x100 EXP SWAP1 DIV PUSH20 0xFFFFFFFFFFFFFFFFFFFFFFFFFFFFFFFFFFFFFFFF AND PUSH20 0xFFFFFFFFFFFFFFFFFFFFFFFFFFFFFFFFFFFFFFFF AND EQ PUSH2 0x474 JUMPI PUSH1 0x2 SLOAD PUSH1 0x3 PUSH0 PUSH1 0x1 PUSH1 0x2 SWAP1 SLOAD SWAP1 PUSH2 0x100 EXP SWAP1 DIV PUSH20 0xFFFFFFFFFFFFFFFFFFFFFFFFFFFFFFFFFFFFFFFF AND PUSH20 0xFFFFFFFFFFFFFFFFFFFFFFFFFFFFFFFFFFFFFFFF AND PUSH20 0xFFFFFFFFFFFFFFFFFFFFFFFFFFFFFFFFFFFFFFFF AND DUP2 MSTORE PUSH1 0x20 ADD SWAP1 DUP2 MSTORE PUSH1 0x20 ADD PUSH0 KECCAK256 PUSH0 DUP3 DUP3 SLOAD PUSH2 0x46C SWAP2 SWAP1 PUSH2 0xFB1 JUMP JUMPDEST SWAP3 POP POP DUP2 SWAP1 SSTORE POP JUMPDEST CALLVALUE PUSH1 0x2 DUP2 SWAP1 SSTORE POP CALLER PUSH1 0x1 PUSH1 0x2 PUSH2 0x100 EXP DUP2 SLOAD DUP2 PUSH20 0xFFFFFFFFFFFFFFFFFFFFFFFFFFFFFFFFFFFFFFFF MUL NOT AND SWAP1 DUP4 PUSH20 0xFFFFFFFFFFFFFFFFFFFFFFFFFFFFFFFFFFFFFFFF AND MUL OR SWAP1 SSTORE POP CALLER PUSH20 0xFFFFFFFFFFFFFFFFFFFFFFFFFFFFFFFFFFFFFFFF AND PUSH32 0xE684A55F31B79ECA403DF938249029212A5925EC6BE8012E099B45BC1019E5D2 CALLVALUE PUSH1 0x40 MLOAD PUSH2 0x502 SWAP2 SWAP1 PUSH2 0xDFB JUMP JUMPDEST PUSH1 0x40 MLOAD DUP1 SWAP2 SUB SWAP1 LOG2 JUMP JUMPDEST PUSH1 0x1 PUSH0 SWAP1 SLOAD SWAP1 PUSH2 0x100 EXP SWAP1 DIV PUSH1 0xFF AND DUP2 JUMP JUMPDEST PUSH0 PUSH1 0x3 PUSH0 CALLER PUSH20 0xFFFFFFFFFFFFFFFFFFFFFFFFFFFFFFFFFFFFFFFF AND PUSH20 0xFFFFFFFFFFFFFFFFFFFFFFFFFFFFFFFFFFFFFFFF AND DUP2 MSTORE PUSH1 0x20 ADD SWAP1 DUP2 MSTORE PUSH1 0x20 ADD PUSH0 KECCAK256 SLOAD SWAP1 POP PUSH0 PUSH1 0x3 PUSH0 CALLER PUSH20 0xFFFFFFFFFFFFFFFFFFFFFFFFFFFFFFFFFFFFFFFF AND PUSH20 0xFFFFFFFFFFFFFFFFFFFFFFFFFFFFFFFFFFFFFFFF AND DUP2 MSTORE PUSH1 0x20 ADD SWAP1 DUP2 MSTORE PUSH1 0x20 ADD PUSH0 KECCAK256 DUP2 SWAP1 SSTORE POP CALLER PUSH20 0xFFFFFFFFFFFFFFFFFFFFFFFFFFFFFFFFFFFFFFFF AND PUSH2 0x8FC DUP3 SWAP1 DUP2 ISZERO MUL SWAP1 PUSH1 0x40 MLOAD PUSH0 PUSH1 0x40 MLOAD DUP1 DUP4 SUB DUP2 DUP6 DUP9 DUP9 CALL SWAP4 POP POP POP POP ISZERO DUP1 ISZERO PUSH2 0x5E4 JUMPI RETURNDATASIZE PUSH0 PUSH0 RETURNDATACOPY RETURNDATASIZE PUSH0 REVERT JUMPDEST POP CALLER PUSH20 0xFFFFFFFFFFFFFFFFFFFFFFFFFFFFFFFFFFFFFFFF AND PUSH32 0x884EDAD9CE6FA2440D8A54CC123490EB96D2768479D49FF9C7366125A9424364 DUP3 PUSH1 0x40 MLOAD PUSH2 0x62B SWAP2 SWAP1 PUSH2 0xDFB JUMP JUMPDEST PUSH1 0x40 MLOAD DUP1 SWAP2 SUB SWAP1 LOG2 POP JUMP JUMPDEST PUSH32 0x0 DUP2 JUMP JUMPDEST PUSH1 0x3 PUSH1 0x20 MSTORE DUP1 PUSH0 MSTORE PUSH1 0x40 PUSH0 KECCAK256 PUSH0 SWAP2 POP SWAP1 POP SLOAD DUP2 JUMP JUMPDEST PUSH0 SLOAD DUP2 JUMP JUMPDEST PUSH1 0x1 PUSH1 0x2 SWAP1 SLOAD SWAP1 PUSH2 0x100 EXP SWAP1 DIV PUSH20 0xFFFFFFFFFFFFFFFFFFFFFFFFFFFFFFFFFFFFFFFF AND DUP2 JUMP JUMPDEST PUSH32 0x0 PUSH20 0xFFFFFFFFFFFFFFFFFFFFFFFFFFFFFFFFFFFFFFFF AND CALLER PUSH20 0xFFFFFFFFFFFFFFFFFFFFFFFFFFFFFFFFFFFFFFFF AND EQ PUSH2 0x728 JUMPI PUSH1 0x40 MLOAD PUSH32 0x8C379A000000000000000000000000000000000000000000000000000000000 DUP2 MSTORE PUSH1 0x4 ADD PUSH2 0x71F SWAP1 PUSH2 0x102E JUMP JUMPDEST PUSH1 0x40 MLOAD DUP1 SWAP2 SUB SWAP1 REVERT JUMPDEST PUSH1 0x1 PUSH0 SWAP1 SLOAD SWAP1 PUSH2 0x100 EXP SWAP1 DIV PUSH1 0xFF AND ISZERO PUSH2 0x777 JUMPI PUSH1 0x40 MLOAD PUSH32 0x8C379A000000000000000000000000000000000000000000000000000000000 DUP2 MSTORE PUSH1 0x4 ADD PUSH2 0x76E SWAP1 PUSH2 0x1096 JUMP JUMPDEST PUSH1 0x40 MLOAD DUP1 SWAP2 SUB SWAP1 REVERT JUMPDEST PUSH1 0x1 DUP1 PUSH0 PUSH2 0x100 EXP DUP2 SLOAD DUP2 PUSH1 0xFF MUL NOT AND SWAP1 DUP4 ISZERO ISZERO MUL OR SWAP1 SSTORE POP PUSH1 0x3C TIMESTAMP PUSH2 0x79D SWAP2 SWAP1 PUSH2 0xFB1 JUMP JUMPDEST PUSH4 0xFFFFFFFF AND PUSH0 DUP2 SWAP1 SSTORE POP PUSH32 0x0 PUSH20 0xFFFFFFFFFFFFFFFFFFFFFFFFFFFFFFFFFFFFFFFF AND PUSH4 0x23B872DD PUSH32 0x0 ADDRESS PUSH32 0x0 PUSH1 0x40 MLOAD DUP5 PUSH4 0xFFFFFFFF AND PUSH1 0xE0 SHL DUP2 MSTORE PUSH1 0x4 ADD PUSH2 0x845 SWAP4 SWAP3 SWAP2 SWAP1 PUSH2 0x10D4 JUMP JUMPDEST PUSH0 PUSH1 0x40 MLOAD DUP1 DUP4 SUB DUP2 PUSH0 DUP8 DUP1 EXTCODESIZE ISZERO DUP1 ISZERO PUSH2 0x85C JUMPI PUSH0 PUSH0 REVERT JUMPDEST POP GAS CALL ISZERO DUP1 ISZERO PUSH2 0x86E JUMPI RETURNDATASIZE PUSH0 PUSH0 RETURNDATACOPY RETURNDATASIZE PUSH0 REVERT JUMPDEST POP POP POP POP PUSH32 0x1B55BA3AA851A46BE3B365AEE5B5C140EDD620D578922F3E8466D2CBD96F954B PUSH1 0x40 MLOAD PUSH1 0x40 MLOAD DUP1 SWAP2 SUB SWAP1 LOG1 JUMP JUMPDEST PUSH32 0x0 DUP2 JUMP JUMPDEST PUSH1 0x2 SLOAD DUP2 JUMP JUMPDEST PUSH1 0x1 PUSH0 SWAP1 SLOAD SWAP1 PUSH2 0x100 EXP SWAP1 DIV PUSH1 0xFF AND PUSH2 0x918 JUMPI PUSH1 0x40 MLOAD PUSH32 0x8C379A000000000000000000000000000000000000000000000000000000000 DUP2 MSTORE PUSH1 0x4 ADD PUSH2 0x90F SWAP1 PUSH2 0xE96 JUMP JUMPDEST PUSH1 0x40 MLOAD DUP1 SWAP2 SUB SWAP1 REVERT JUMPDEST PUSH0 SLOAD TIMESTAMP LT ISZERO PUSH2 0x95C JUMPI PUSH1 0x40 MLOAD PUSH32 0x8C379A000000000000000000000000000000000000000000000000000000000 DUP2 MSTORE PUSH1 0x4 ADD PUSH2 0x953 SWAP1 PUSH2 0x1153 JUMP JUMPDEST PUSH1 0x40 MLOAD DUP1 SWAP2 SUB SWAP1 REVERT JUMPDEST PUSH1 0x1 DUP1 SLOAD SWAP1 PUSH2 0x100 EXP SWAP1 DIV PUSH1 0xFF AND ISZERO PUSH2 0x9AA JUMPI PUSH1 0x40 MLOAD PUSH32 0x8C379A000000000000000000000000000000000000000000000000000000000 DUP2 MSTORE PUSH1 0x4 ADD PUSH2 0x9A1 SWAP1 PUSH2 0xEFE JUMP JUMPDEST PUSH1 0x40 MLOAD DUP1 SWAP2 SUB SWAP1 REVERT JUMPDEST PUSH1 0x1 DUP1 PUSH1 0x1 PUSH2 0x100 EXP DUP2 SLOAD DUP2 PUSH1 0xFF MUL NOT AND SWAP1 DUP4 ISZERO ISZERO MUL OR SWAP1 SSTORE POP PUSH0 PUSH20 0xFFFFFFFFFFFFFFFFFFFFFFFFFFFFFFFFFFFFFFFF AND PUSH1 0x1 PUSH1 0x2 SWAP1 SLOAD SWAP1 PUSH2 0x100 EXP SWAP1 DIV PUSH20 0xFFFFFFFFFFFFFFFFFFFFFFFFFFFFFFFFFFFFFFFF AND PUSH20 0xFFFFFFFFFFFFFFFFFFFFFFFFFFFFFFFFFFFFFFFF AND EQ PUSH2 0xB50 JUMPI PUSH32 0x0 PUSH20 0xFFFFFFFFFFFFFFFFFFFFFFFFFFFFFFFFFFFFFFFF AND PUSH4 0x23B872DD ADDRESS PUSH1 0x1 PUSH1 0x2 SWAP1 SLOAD SWAP1 PUSH2 0x100 EXP SWAP1 DIV PUSH20 0xFFFFFFFFFFFFFFFFFFFFFFFFFFFFFFFFFFFFFFFF AND PUSH32 0x0 PUSH1 0x40 MLOAD DUP5 PUSH4 0xFFFFFFFF AND PUSH1 0xE0 SHL DUP2 MSTORE PUSH1 0x4 ADD PUSH2 0xAB8 SWAP4 SWAP3 SWAP2 SWAP1 PUSH2 0x1171 JUMP JUMPDEST PUSH0 PUSH1 0x40 MLOAD DUP1 DUP4 SUB DUP2 PUSH0 DUP8 DUP1 EXTCODESIZE ISZERO DUP1 ISZERO PUSH2 0xACF JUMPI PUSH0 PUSH0 REVERT JUMPDEST POP GAS CALL ISZERO DUP1 ISZERO PUSH2 0xAE1 JUMPI RETURNDATASIZE PUSH0 PUSH0 RETURNDATACOPY RETURNDATASIZE PUSH0 REVERT JUMPDEST POP POP POP POP PUSH32 0x0 PUSH20 0xFFFFFFFFFFFFFFFFFFFFFFFFFFFFFFFFFFFFFFFF AND PUSH2 0x8FC PUSH1 0x2 SLOAD SWAP1 DUP2 ISZERO MUL SWAP1 PUSH1 0x40 MLOAD PUSH0 PUSH1 0x40 MLOAD DUP1 DUP4 SUB DUP2 DUP6 DUP9 DUP9 CALL SWAP4 POP POP POP POP ISZERO DUP1 ISZERO PUSH2 0xB4A JUMPI RETURNDATASIZE PUSH0 PUSH0 RETURNDATACOPY RETURNDATASIZE PUSH0 REVERT JUMPDEST POP PUSH2 0xC1B JUMP JUMPDEST PUSH32 0x0 PUSH20 0xFFFFFFFFFFFFFFFFFFFFFFFFFFFFFFFFFFFFFFFF AND PUSH4 0x23B872DD ADDRESS PUSH32 0x0 PUSH32 0x0 PUSH1 0x40 MLOAD DUP5 PUSH4 0xFFFFFFFF AND PUSH1 0xE0 SHL DUP2 MSTORE PUSH1 0x4 ADD PUSH2 0xBED SWAP4 SWAP3 SWAP2 SWAP1 PUSH2 0x11A6 JUMP JUMPDEST PUSH0 PUSH1 0x40 MLOAD DUP1 DUP4 SUB DUP2 PUSH0 DUP8 DUP1 EXTCODESIZE ISZERO DUP1 ISZERO PUSH2 0xC04 JUMPI PUSH0 PUSH0 REVERT JUMPDEST POP GAS CALL ISZERO DUP1 ISZERO PUSH2 0xC16 JUMPI RETURNDATASIZE PUSH0 PUSH0 RETURNDATACOPY RETURNDATASIZE PUSH0 REVERT JUMPDEST POP POP POP POP JUMPDEST PUSH32 0x7D7570B046E5EAD3A4F3FBC9FA2445113625A1E79823776146316BAFED6B8CC5 PUSH1 0x1 PUSH1 0x2 SWAP1 SLOAD SWAP1 PUSH2 0x100 EXP SWAP1 DIV PUSH20 0xFFFFFFFFFFFFFFFFFFFFFFFFFFFFFFFFFFFFFFFF AND PUSH1 0x2 SLOAD PUSH1 0x40 MLOAD PUSH2 0xC70 SWAP3 SWAP2 SWAP1 PUSH2 0x11DB JUMP JUMPDEST PUSH1 0x40 MLOAD DUP1 SWAP2 SUB SWAP1 LOG1 JUMP JUMPDEST PUSH0 PUSH20 0xFFFFFFFFFFFFFFFFFFFFFFFFFFFFFFFFFFFFFFFF DUP3 AND SWAP1 POP SWAP2 SWAP1 POP JUMP JUMPDEST PUSH0 PUSH2 0xCA3 DUP3 PUSH2 0xC7A JUMP JUMPDEST SWAP1 POP SWAP2 SWAP1 POP JUMP JUMPDEST PUSH2 0xCB3 DUP2 PUSH2 0xC99 JUMP JUMPDEST DUP3 MSTORE POP POP JUMP JUMPDEST PUSH0 PUSH1 0x20 DUP3 ADD SWAP1 POP PUSH2 0xCCC PUSH0 DUP4 ADD DUP5 PUSH2 0xCAA JUMP JUMPDEST SWAP3 SWAP2 POP POP JUMP JUMPDEST PUSH0 DUP2 ISZERO ISZERO SWAP1 POP SWAP2 SWAP1 POP JUMP JUMPDEST PUSH2 0xCE6 DUP2 PUSH2 0xCD2 JUMP JUMPDEST DUP3 MSTORE POP POP JUMP JUMPDEST PUSH0 PUSH1 0x20 DUP3 ADD SWAP1 POP PUSH2 0xCFF PUSH0 DUP4 ADD DUP5 PUSH2 0xCDD JUMP JUMPDEST SWAP3 SWAP2 POP POP JUMP JUMPDEST PUSH0 DUP2 SWAP1 POP SWAP2 SWAP1 POP JUMP JUMPDEST PUSH0 PUSH2 0xD28 PUSH2 0xD23 PUSH2 0xD1E DUP5 PUSH2 0xC7A JUMP JUMPDEST PUSH2 0xD05 JUMP JUMPDEST PUSH2 0xC7A JUMP JUMPDEST SWAP1 POP SWAP2 SWAP1 POP JUMP JUMPDEST PUSH0 PUSH2 0xD39 DUP3 PUSH2 0xD0E JUMP JUMPDEST SWAP1 POP SWAP2 SWAP1 POP JUMP JUMPDEST PUSH0 PUSH2 0xD4A DUP3 PUSH2 0xD2F JUMP JUMPDEST SWAP1 POP SWAP2 SWAP1 POP JUMP JUMPDEST PUSH2 0xD5A DUP2 PUSH2 0xD40 JUMP JUMPDEST DUP3 MSTORE POP POP JUMP JUMPDEST PUSH0 PUSH1 0x20 DUP3 ADD SWAP1 POP PUSH2 0xD73 PUSH0 DUP4 ADD DUP5 PUSH2 0xD51 JUMP JUMPDEST SWAP3 SWAP2 POP POP JUMP JUMPDEST PUSH0 PUSH0 REVERT JUMPDEST PUSH0 PUSH2 0xD87 DUP3 PUSH2 0xC7A JUMP JUMPDEST SWAP1 POP SWAP2 SWAP1 POP JUMP JUMPDEST PUSH2 0xD97 DUP2 PUSH2 0xD7D JUMP JUMPDEST DUP2 EQ PUSH2 0xDA1 JUMPI PUSH0 PUSH0 REVERT JUMPDEST POP JUMP JUMPDEST PUSH0 DUP2 CALLDATALOAD SWAP1 POP PUSH2 0xDB2 DUP2 PUSH2 0xD8E JUMP JUMPDEST SWAP3 SWAP2 POP POP JUMP JUMPDEST PUSH0 PUSH1 0x20 DUP3 DUP5 SUB SLT ISZERO PUSH2 0xDCD JUMPI PUSH2 0xDCC PUSH2 0xD79 JUMP JUMPDEST JUMPDEST PUSH0 PUSH2 0xDDA DUP5 DUP3 DUP6 ADD PUSH2 0xDA4 JUMP JUMPDEST SWAP2 POP POP SWAP3 SWAP2 POP POP JUMP JUMPDEST PUSH0 DUP2 SWAP1 POP SWAP2 SWAP1 POP JUMP JUMPDEST PUSH2 0xDF5 DUP2 PUSH2 0xDE3 JUMP JUMPDEST DUP3 MSTORE POP POP JUMP JUMPDEST PUSH0 PUSH1 0x20 DUP3 ADD SWAP1 POP PUSH2 0xE0E PUSH0 DUP4 ADD DUP5 PUSH2 0xDEC JUMP JUMPDEST SWAP3 SWAP2 POP POP JUMP JUMPDEST PUSH2 0xE1D DUP2 PUSH2 0xD7D JUMP JUMPDEST DUP3 MSTORE POP POP JUMP JUMPDEST PUSH0 PUSH1 0x20 DUP3 ADD SWAP1 POP PUSH2 0xE36 PUSH0 DUP4 ADD DUP5 PUSH2 0xE14 JUMP JUMPDEST SWAP3 SWAP2 POP POP JUMP JUMPDEST PUSH0 DUP3 DUP3 MSTORE PUSH1 0x20 DUP3 ADD SWAP1 POP SWAP3 SWAP2 POP POP JUMP JUMPDEST PUSH32 0x6E6F742073746172746564000000000000000000000000000000000000000000 PUSH0 DUP3 ADD MSTORE POP JUMP JUMPDEST PUSH0 PUSH2 0xE80 PUSH1 0xB DUP4 PUSH2 0xE3C JUMP JUMPDEST SWAP2 POP PUSH2 0xE8B DUP3 PUSH2 0xE4C JUMP JUMPDEST PUSH1 0x20 DUP3 ADD SWAP1 POP SWAP2 SWAP1 POP JUMP JUMPDEST PUSH0 PUSH1 0x20 DUP3 ADD SWAP1 POP DUP2 DUP2 SUB PUSH0 DUP4 ADD MSTORE PUSH2 0xEAD DUP2 PUSH2 0xE74 JUMP JUMPDEST SWAP1 POP SWAP2 SWAP1 POP JUMP JUMPDEST PUSH32 0x656E646564000000000000000000000000000000000000000000000000000000 PUSH0 DUP3 ADD MSTORE POP JUMP JUMPDEST PUSH0 PUSH2 0xEE8 PUSH1 0x5 DUP4 PUSH2 0xE3C JUMP JUMPDEST SWAP2 POP PUSH2 0xEF3 DUP3 PUSH2 0xEB4 JUMP JUMPDEST PUSH1 0x20 DUP3 ADD SWAP1 POP SWAP2 SWAP1 POP JUMP JUMPDEST PUSH0 PUSH1 0x20 DUP3 ADD SWAP1 POP DUP2 DUP2 SUB PUSH0 DUP4 ADD MSTORE PUSH2 0xF15 DUP2 PUSH2 0xEDC JUMP JUMPDEST SWAP1 POP SWAP2 SWAP1 POP JUMP JUMPDEST PUSH32 0x76616C7565203C20686967686573742062696400000000000000000000000000 PUSH0 DUP3 ADD MSTORE POP JUMP JUMPDEST PUSH0 PUSH2 0xF50 PUSH1 0x13 DUP4 PUSH2 0xE3C JUMP JUMPDEST SWAP2 POP PUSH2 0xF5B DUP3 PUSH2 0xF1C JUMP JUMPDEST PUSH1 0x20 DUP3 ADD SWAP1 POP SWAP2 SWAP1 POP JUMP JUMPDEST PUSH0 PUSH1 0x20 DUP3 ADD SWAP1 POP DUP2 DUP2 SUB PUSH0 DUP4 ADD MSTORE PUSH2 0xF7D DUP2 PUSH2 0xF44 JUMP JUMPDEST SWAP1 POP SWAP2 SWAP1 POP JUMP JUMPDEST PUSH32 0x4E487B7100000000000000000000000000000000000000000000000000000000 PUSH0 MSTORE PUSH1 0x11 PUSH1 0x4 MSTORE PUSH1 0x24 PUSH0 REVERT JUMPDEST PUSH0 PUSH2 0xFBB DUP3 PUSH2 0xDE3 JUMP JUMPDEST SWAP2 POP PUSH2 0xFC6 DUP4 PUSH2 0xDE3 JUMP JUMPDEST SWAP3 POP DUP3 DUP3 ADD SWAP1 POP DUP1 DUP3 GT ISZERO PUSH2 0xFDE JUMPI PUSH2 0xFDD PUSH2 0xF84 JUMP JUMPDEST JUMPDEST SWAP3 SWAP2 POP POP JUMP JUMPDEST PUSH32 0x6E6F742073656C6C657200000000000000000000000000000000000000000000 PUSH0 DUP3 ADD MSTORE POP JUMP JUMPDEST PUSH0 PUSH2 0x1018 PUSH1 0xA DUP4 PUSH2 0xE3C JUMP JUMPDEST SWAP2 POP PUSH2 0x1023 DUP3 PUSH2 0xFE4 JUMP JUMPDEST PUSH1 0x20 DUP3 ADD SWAP1 POP SWAP2 SWAP1 POP JUMP JUMPDEST PUSH0 PUSH1 0x20 DUP3 ADD SWAP1 POP DUP2 DUP2 SUB PUSH0 DUP4 ADD MSTORE PUSH2 0x1045 DUP2 PUSH2 0x100C JUMP JUMPDEST SWAP1 POP SWAP2 SWAP1 POP JUMP JUMPDEST PUSH32 0x616C726561647920737461727465640000000000000000000000000000000000 PUSH0 DUP3 ADD MSTORE POP JUMP JUMPDEST PUSH0 PUSH2 0x1080 PUSH1 0xF DUP4 PUSH2 0xE3C JUMP JUMPDEST SWAP2 POP PUSH2 0x108B DUP3 PUSH2 0x104C JUMP JUMPDEST PUSH1 0x20 DUP3 ADD SWAP1 POP SWAP2 SWAP1 POP JUMP JUMPDEST PUSH0 PUSH1 0x20 DUP3 ADD SWAP1 POP DUP2 DUP2 SUB PUSH0 DUP4 ADD MSTORE PUSH2 0x10AD DUP2 PUSH2 0x1074 JUMP JUMPDEST SWAP1 POP SWAP2 SWAP1 POP JUMP JUMPDEST PUSH0 PUSH2 0x10BE DUP3 PUSH2 0xD2F JUMP JUMPDEST SWAP1 POP SWAP2 SWAP1 POP JUMP JUMPDEST PUSH2 0x10CE DUP2 PUSH2 0x10B4 JUMP JUMPDEST DUP3 MSTORE POP POP JUMP JUMPDEST PUSH0 PUSH1 0x60 DUP3 ADD SWAP1 POP PUSH2 0x10E7 PUSH0 DUP4 ADD DUP7 PUSH2 0x10C5 JUMP JUMPDEST PUSH2 0x10F4 PUSH1 0x20 DUP4 ADD DUP6 PUSH2 0xE14 JUMP JUMPDEST PUSH2 0x1101 PUSH1 0x40 DUP4 ADD DUP5 PUSH2 0xDEC JUMP JUMPDEST SWAP5 SWAP4 POP POP POP POP JUMP JUMPDEST PUSH32 0x6E6F7420656E6400000000000000000000000000000000000000000000000000 PUSH0 DUP3 ADD MSTORE POP JUMP JUMPDEST PUSH0 PUSH2 0x113D PUSH1 0x7 DUP4 PUSH2 0xE3C JUMP JUMPDEST SWAP2 POP PUSH2 0x1148 DUP3 PUSH2 0x1109 JUMP JUMPDEST PUSH1 0x20 DUP3 ADD SWAP1 POP SWAP2 SWAP1 POP JUMP JUMPDEST PUSH0 PUSH1 0x20 DUP3 ADD SWAP1 POP DUP2 DUP2 SUB PUSH0 DUP4 ADD MSTORE PUSH2 0x116A DUP2 PUSH2 0x1131 JUMP JUMPDEST SWAP1 POP SWAP2 SWAP1 POP JUMP JUMPDEST PUSH0 PUSH1 0x60 DUP3 ADD SWAP1 POP PUSH2 0x1184 PUSH0 DUP4 ADD DUP7 PUSH2 0xE14 JUMP JUMPDEST PUSH2 0x1191 PUSH1 0x20 DUP4 ADD DUP6 PUSH2 0xE14 JUMP JUMPDEST PUSH2 0x119E PUSH1 0x40 DUP4 ADD DUP5 PUSH2 0xDEC JUMP JUMPDEST SWAP5 SWAP4 POP POP POP POP JUMP JUMPDEST PUSH0 PUSH1 0x60 DUP3 ADD SWAP1 POP PUSH2 0x11B9 PUSH0 DUP4 ADD DUP7 PUSH2 0xE14 JUMP JUMPDEST PUSH2 0x11C6 PUSH1 0x20 DUP4 ADD DUP6 PUSH2 0x10C5 JUMP JUMPDEST PUSH2 0x11D3 PUSH1 0x40 DUP4 ADD DUP5 PUSH2 0xDEC JUMP JUMPDEST SWAP5 SWAP4 POP POP POP POP JUMP JUMPDEST PUSH0 PUSH1 0x40 DUP3 ADD SWAP1 POP PUSH2 0x11EE PUSH0 DUP4 ADD DUP6 PUSH2 0xE14 JUMP JUMPDEST PUSH2 0x11FB PUSH1 0x20 DUP4 ADD DUP5 PUSH2 0xDEC JUMP JUMPDEST SWAP4 SWAP3 POP POP POP JUMP INVALID LOG2 PUSH5 0x6970667358 0x22 SLT KECCAK256 PUSH32 0x495A48E2E3C94A90041FDC6AAB18504CA56BE3D42439B341A30805220E826964 PUSH20 0x6F6C634300081E00330000000000000000000000 "
		},
		"gasEstimates": {
			"creation": {
				"codeDepositCost": "932800",
				"executionCost": "infinite",
				"totalCost": "infinite"
			},
			"external": {
				"bid()": "infinite",
				"bids(address)": "2825",
				"end()": "infinite",
				"endAt()": "2469",
				"ended()": "2537",
				"highestBid()": "2491",
				"highestBidder()": "2626",
				"nft()": "infinite",
				"nftId()": "infinite",
				"seller()": "infinite",
				"start()": "infinite",
				"started()": "2533",
				"withdraw()": "infinite"
			}
		},
		"methodIdentifiers": {
			"bid()": "1998aeef",
			"bids(address)": "62ea82db",
			"end()": "efbe1c1c",
			"endAt()": "7cc3ae8c",
			"ended()": "12fa6feb",
			"highestBid()": "d57bde79",
			"highestBidder()": "91f90157",
			"nft()": "47ccca02",
			"nftId()": "c6bc5182",
			"seller()": "08551a53",
			"start()": "be9a6555",
			"started()": "1f2698ab",
			"withdraw()": "3ccfd60b"
		}
	},
	"abi": [
		{
			"inputs": [
				{
					"internalType": "address",
					"name": "_nft",
					"type": "address"
				},
				{
					"internalType": "uint256",
					"name": "_nftId",
					"type": "uint256"
				},
				{
					"internalType": "uint256",
					"name": "_startingBid",
					"type": "uint256"
				}
			],
			"stateMutability": "nonpayable",
			"type": "constructor"
		},
		{
			"anonymous": false,
			"inputs": [
				{
					"indexed": true,
					"internalType": "address",
					"name": "sender",
					"type": "address"
				},
				{
					"indexed": false,
					"internalType": "uint256",
					"name": "amount",
					"type": "uint256"
				}
			],
			"name": "Bid",
			"type": "event"
		},
		{
			"anonymous": false,
			"inputs": [
				{
					"indexed": false,
					"internalType": "address",
					"name": "highestBidder",
					"type": "address"
				},
				{
					"indexed": false,
					"internalType": "uint256",
					"name": "highestBid",
					"type": "uint256"
				}
			],
			"name": "End",
			"type": "event"
		},
		{
			"anonymous": false,
			"inputs": [],
			"name": "Start",
			"type": "event"
		},
		{
			"anonymous": false,
			"inputs": [
				{
					"indexed": true,
					"internalType": "address",
					"name": "bidder",
					"type": "address"
				},
				{
					"indexed": false,
					"internalType": "uint256",
					"name": "amount",
					"type": "uint256"
				}
			],
			"name": "Withdraw",
			"type": "event"
		},
		{
			"inputs": [],
			"name": "bid",
			"outputs": [],
			"stateMutability": "payable",
			"type": "function"
		},
		{
			"inputs": [
				{
					"internalType": "address",
					"name": "",
					"type": "address"
				}
			],
			"name": "bids",
			"outputs": [
				{
					"internalType": "uint256",
					"name": "",
					"type": "uint256"
				}
			],
			"stateMutability": "view",
			"type": "function"
		},
		{
			"inputs": [],
			"name": "end",
			"outputs": [],
			"stateMutability": "nonpayable",
			"type": "function"
		},
		{
			"inputs": [],
			"name": "endAt",
			"outputs": [
				{
					"internalType": "uint256",
					"name": "",
					"type": "uint256"
				}
			],
			"stateMutability": "view",
			"type": "function"
		},
		{
			"inputs": [],
			"name": "ended",
			"outputs": [
				{
					"internalType": "bool",
					"name": "",
					"type": "bool"
				}
			],
			"stateMutability": "view",
			"type": "function"
		},
		{
			"inputs": [],
			"name": "highestBid",
			"outputs": [
				{
					"internalType": "uint256",
					"name": "",
					"type": "uint256"
				}
			],
			"stateMutability": "view",
			"type": "function"
		},
		{
			"inputs": [],
			"name": "highestBidder",
			"outputs": [
				{
					"internalType": "address",
					"name": "",
					"type": "address"
				}
			],
			"stateMutability": "view",
			"type": "function"
		},
		{
			"inputs": [],
			"name": "nft",
			"outputs": [
				{
					"internalType": "contract IERC721",
					"name": "",
					"type": "address"
				}
			],
			"stateMutability": "view",
			"type": "function"
		},
		{
			"inputs": [],
			"name": "nftId",
			"outputs": [
				{
					"internalType": "uint256",
					"name": "",
					"type": "uint256"
				}
			],
			"stateMutability": "view",
			"type": "function"
		},
		{
			"inputs": [],
			"name": "seller",
			"outputs": [
				{
					"internalType": "address payable",
					"name": "",
					"type": "address"
				}
			],
			"stateMutability": "view",
			"type": "function"
		},
		{
			"inputs": [],
			"name": "start",
			"outputs": [],
			"stateMutability": "nonpayable",
			"type": "function"
		},
		{
			"inputs": [],
			"name": "started",
			"outputs": [
				{
					"internalType": "bool",
					"name": "",
					"type": "bool"
				}
			],
			"stateMutability": "view",
			"type": "function"
		},
		{
			"inputs": [],
			"name": "withdraw",
			"outputs": [],
			"stateMutability": "nonpayable",
			"type": "function"
		}
	]
}