{
	"data": {
		"bytecode": {
			"linkReferences": {},
			"object": "6080604052348015600e575f5ffd5b506104d18061001c5f395ff3fe60806040526004361061003e575f3560e01c80630dc6ad6514610042578063311959a71461006a5780633c261701146100a6578063e9ab4ccc146100e3575b5f5ffd5b34801561004d575f5ffd5b5061006860048036038101906100639190610366565b6100ff565b005b348015610075575f5ffd5b50610090600480360381019061008b91906103a4565b61016e565b60405161009d91906103de565b60405180910390f35b3480156100b1575f5ffd5b506100cc60048036038101906100c791906103a4565b6101e8565b6040516100da9291906103f7565b60405180910390f35b6100fd60048036038101906100f89190610366565b610264565b005b5f8290508073ffffffffffffffffffffffffffffffffffffffff16634018d9aa836040518263ffffffff1660e01b815260040161013c91906103de565b5f604051808303815f87803b158015610153575f5ffd5b505af1158015610165573d5f5f3e3d5ffd5b50505050505050565b5f5f8290508073ffffffffffffffffffffffffffffffffffffffff16635197c7aa6040518163ffffffff1660e01b8152600401602060405180830381865afa1580156101bc573d5f5f3e3d5ffd5b505050506040513d601f19601f820116820180604052508101906101e09190610432565b915050919050565b5f5f5f8390508073ffffffffffffffffffffffffffffffffffffffff16632b5d60866040518163ffffffff1660e01b81526004016040805180830381865afa158015610236573d5f5f3e3d5ffd5b505050506040513d601f19601f8201168201806040525081019061025a919061045d565b9250925050915091565b5f8290508073ffffffffffffffffffffffffffffffffffffffff1663c9c4e00f34846040518363ffffffff1660e01b81526004016102a291906103de565b5f604051808303818588803b1580156102b9575f5ffd5b505af11580156102cb573d5f5f3e3d5ffd5b5050505050505050565b5f5ffd5b5f73ffffffffffffffffffffffffffffffffffffffff82169050919050565b5f610302826102d9565b9050919050565b610312816102f8565b811461031c575f5ffd5b50565b5f8135905061032d81610309565b92915050565b5f819050919050565b61034581610333565b811461034f575f5ffd5b50565b5f813590506103608161033c565b92915050565b5f5f6040838503121561037c5761037b6102d5565b5b5f6103898582860161031f565b925050602061039a85828601610352565b9150509250929050565b5f602082840312156103b9576103b86102d5565b5b5f6103c68482850161031f565b91505092915050565b6103d881610333565b82525050565b5f6020820190506103f15f8301846103cf565b92915050565b5f60408201905061040a5f8301856103cf565b61041760208301846103cf565b9392505050565b5f8151905061042c8161033c565b92915050565b5f60208284031215610447576104466102d5565b5b5f6104548482850161041e565b91505092915050565b5f5f60408385031215610473576104726102d5565b5b5f6104808582860161041e565b92505060206104918582860161041e565b915050925092905056fea2646970667358221220f7a0a25beef3963b7ebe682c8d57422c19ba747e9c347df70afa1ef4ad006c2864736f6c634300081e0033",
			"opcodes": "PUSH1 0x80 PUSH1 0x40 MSTORE CALLVALUE DUP1 ISZERO PUSH1 0xE JUMPI PUSH0 PUSH0 REVERT JUMPDEST POP PUSH2 0x4D1 DUP1 PUSH2 0x1C PUSH0 CODECOPY PUSH0 RETURN INVALID PUSH1 0x80 PUSH1 0x40 MSTORE PUSH1 0x4 CALLDATASIZE LT PUSH2 0x3E JUMPI PUSH0 CALLDATALOAD PUSH1 0xE0 SHR DUP1 PUSH4 0xDC6AD65 EQ PUSH2 0x42 JUMPI DUP1 PUSH4 0x311959A7 EQ PUSH2 0x6A JUMPI DUP1 PUSH4 0x3C261701 EQ PUSH2 0xA6 JUMPI DUP1 PUSH4 0xE9AB4CCC EQ PUSH2 0xE3 JUMPI JUMPDEST PUSH0 PUSH0 REVERT JUMPDEST CALLVALUE DUP1 ISZERO PUSH2 0x4D JUMPI PUSH0 PUSH0 REVERT JUMPDEST POP PUSH2 0x68 PUSH1 0x4 DUP1 CALLDATASIZE SUB DUP2 ADD SWAP1 PUSH2 0x63 SWAP2 SWAP1 PUSH2 0x366 JUMP JUMPDEST PUSH2 0xFF JUMP JUMPDEST STOP JUMPDEST CALLVALUE DUP1 ISZERO PUSH2 0x75 JUMPI PUSH0 PUSH0 REVERT JUMPDEST POP PUSH2 0x90 PUSH1 0x4 DUP1 CALLDATASIZE SUB DUP2 ADD SWAP1 PUSH2 0x8B SWAP2 SWAP1 PUSH2 0x3A4 JUMP JUMPDEST PUSH2 0x16E JUMP JUMPDEST PUSH1 0x40 MLOAD PUSH2 0x9D SWAP2 SWAP1 PUSH2 0x3DE JUMP JUMPDEST PUSH1 0x40 MLOAD DUP1 SWAP2 SUB SWAP1 RETURN JUMPDEST CALLVALUE DUP1 ISZERO PUSH2 0xB1 JUMPI PUSH0 PUSH0 REVERT JUMPDEST POP PUSH2 0xCC PUSH1 0x4 DUP1 CALLDATASIZE SUB DUP2 ADD SWAP1 PUSH2 0xC7 SWAP2 SWAP1 PUSH2 0x3A4 JUMP JUMPDEST PUSH2 0x1E8 JUMP JUMPDEST PUSH1 0x40 MLOAD PUSH2 0xDA SWAP3 SWAP2 SWAP1 PUSH2 0x3F7 JUMP JUMPDEST PUSH1 0x40 MLOAD DUP1 SWAP2 SUB SWAP1 RETURN JUMPDEST PUSH2 0xFD PUSH1 0x4 DUP1 CALLDATASIZE SUB DUP2 ADD SWAP1 PUSH2 0xF8 SWAP2 SWAP1 PUSH2 0x366 JUMP JUMPDEST PUSH2 0x264 JUMP JUMPDEST STOP JUMPDEST PUSH0 DUP3 SWAP1 POP DUP1 PUSH20 0xFFFFFFFFFFFFFFFFFFFFFFFFFFFFFFFFFFFFFFFF AND PUSH4 0x4018D9AA DUP4 PUSH1 0x40 MLOAD DUP3 PUSH4 0xFFFFFFFF AND PUSH1 0xE0 SHL DUP2 MSTORE PUSH1 0x4 ADD PUSH2 0x13C SWAP2 SWAP1 PUSH2 0x3DE JUMP JUMPDEST PUSH0 PUSH1 0x40 MLOAD DUP1 DUP4 SUB DUP2 PUSH0 DUP8 DUP1 EXTCODESIZE ISZERO DUP1 ISZERO PUSH2 0x153 JUMPI PUSH0 PUSH0 REVERT JUMPDEST POP GAS CALL ISZERO DUP1 ISZERO PUSH2 0x165 JUMPI RETURNDATASIZE PUSH0 PUSH0 RETURNDATACOPY RETURNDATASIZE PUSH0 REVERT JUMPDEST POP POP POP POP POP POP POP JUMP JUMPDEST PUSH0 PUSH0 DUP3 SWAP1 POP DUP1 PUSH20 0xFFFFFFFFFFFFFFFFFFFFFFFFFFFFFFFFFFFFFFFF AND PUSH4 0x5197C7AA PUSH1 0x40 MLOAD DUP2 PUSH4 0xFFFFFFFF AND PUSH1 0xE0 SHL DUP2 MSTORE PUSH1 0x4 ADD PUSH1 0x20 PUSH1 0x40 MLOAD DUP1 DUP4 SUB DUP2 DUP7 GAS STATICCALL ISZERO DUP1 ISZERO PUSH2 0x1BC JUMPI RETURNDATASIZE PUSH0 PUSH0 RETURNDATACOPY RETURNDATASIZE PUSH0 REVERT JUMPDEST POP POP POP POP PUSH1 0x40 MLOAD RETURNDATASIZE PUSH1 0x1F NOT PUSH1 0x1F DUP3 ADD AND DUP3 ADD DUP1 PUSH1 0x40 MSTORE POP DUP2 ADD SWAP1 PUSH2 0x1E0 SWAP2 SWAP1 PUSH2 0x432 JUMP JUMPDEST SWAP2 POP POP SWAP2 SWAP1 POP JUMP JUMPDEST PUSH0 PUSH0 PUSH0 DUP4 SWAP1 POP DUP1 PUSH20 0xFFFFFFFFFFFFFFFFFFFFFFFFFFFFFFFFFFFFFFFF AND PUSH4 0x2B5D6086 PUSH1 0x40 MLOAD DUP2 PUSH4 0xFFFFFFFF AND PUSH1 0xE0 SHL DUP2 MSTORE PUSH1 0x4 ADD PUSH1 0x40 DUP1 MLOAD DUP1 DUP4 SUB DUP2 DUP7 GAS STATICCALL ISZERO DUP1 ISZERO PUSH2 0x236 JUMPI RETURNDATASIZE PUSH0 PUSH0 RETURNDATACOPY RETURNDATASIZE PUSH0 REVERT JUMPDEST POP POP POP POP PUSH1 0x40 MLOAD RETURNDATASIZE PUSH1 0x1F NOT PUSH1 0x1F DUP3 ADD AND DUP3 ADD DUP1 PUSH1 0x40 MSTORE POP DUP2 ADD SWAP1 PUSH2 0x25A SWAP2 SWAP1 PUSH2 0x45D JUMP JUMPDEST SWAP3 POP SWAP3 POP POP SWAP2 POP SWAP2 JUMP JUMPDEST PUSH0 DUP3 SWAP1 POP DUP1 PUSH20 0xFFFFFFFFFFFFFFFFFFFFFFFFFFFFFFFFFFFFFFFF AND PUSH4 0xC9C4E00F CALLVALUE DUP5 PUSH1 0x40 MLOAD DUP4 PUSH4 0xFFFFFFFF AND PUSH1 0xE0 SHL DUP2 MSTORE PUSH1 0x4 ADD PUSH2 0x2A2 SWAP2 SWAP1 PUSH2 0x3DE JUMP JUMPDEST PUSH0 PUSH1 0x40 MLOAD DUP1 DUP4 SUB DUP2 DUP6 DUP9 DUP1 EXTCODESIZE ISZERO DUP1 ISZERO PUSH2 0x2B9 JUMPI PUSH0 PUSH0 REVERT JUMPDEST POP GAS CALL ISZERO DUP1 ISZERO PUSH2 0x2CB JUMPI RETURNDATASIZE PUSH0 PUSH0 RETURNDATACOPY RETURNDATASIZE PUSH0 REVERT JUMPDEST POP POP POP POP POP POP POP POP JUMP JUMPDEST PUSH0 PUSH0 REVERT JUMPDEST PUSH0 PUSH20 0xFFFFFFFFFFFFFFFFFFFFFFFFFFFFFFFFFFFFFFFF DUP3 AND SWAP1 POP SWAP2 SWAP1 POP JUMP JUMPDEST PUSH0 PUSH2 0x302 DUP3 PUSH2 0x2D9 JUMP JUMPDEST SWAP1 POP SWAP2 SWAP1 POP JUMP JUMPDEST PUSH2 0x312 DUP2 PUSH2 0x2F8 JUMP JUMPDEST DUP2 EQ PUSH2 0x31C JUMPI PUSH0 PUSH0 REVERT JUMPDEST POP JUMP JUMPDEST PUSH0 DUP2 CALLDATALOAD SWAP1 POP PUSH2 0x32D DUP2 PUSH2 0x309 JUMP JUMPDEST SWAP3 SWAP2 POP POP JUMP JUMPDEST PUSH0 DUP2 SWAP1 POP SWAP2 SWAP1 POP JUMP JUMPDEST PUSH2 0x345 DUP2 PUSH2 0x333 JUMP JUMPDEST DUP2 EQ PUSH2 0x34F JUMPI PUSH0 PUSH0 REVERT JUMPDEST POP JUMP JUMPDEST PUSH0 DUP2 CALLDATALOAD SWAP1 POP PUSH2 0x360 DUP2 PUSH2 0x33C JUMP JUMPDEST SWAP3 SWAP2 POP POP JUMP JUMPDEST PUSH0 PUSH0 PUSH1 0x40 DUP4 DUP6 SUB SLT ISZERO PUSH2 0x37C JUMPI PUSH2 0x37B PUSH2 0x2D5 JUMP JUMPDEST JUMPDEST PUSH0 PUSH2 0x389 DUP6 DUP3 DUP7 ADD PUSH2 0x31F JUMP JUMPDEST SWAP3 POP POP PUSH1 0x20 PUSH2 0x39A DUP6 DUP3 DUP7 ADD PUSH2 0x352 JUMP JUMPDEST SWAP2 POP POP SWAP3 POP SWAP3 SWAP1 POP JUMP JUMPDEST PUSH0 PUSH1 0x20 DUP3 DUP5 SUB SLT ISZERO PUSH2 0x3B9 JUMPI PUSH2 0x3B8 PUSH2 0x2D5 JUMP JUMPDEST JUMPDEST PUSH0 PUSH2 0x3C6 DUP5 DUP3 DUP6 ADD PUSH2 0x31F JUMP JUMPDEST SWAP2 POP POP SWAP3 SWAP2 POP POP JUMP JUMPDEST PUSH2 0x3D8 DUP2 PUSH2 0x333 JUMP JUMPDEST DUP3 MSTORE POP POP JUMP JUMPDEST PUSH0 PUSH1 0x20 DUP3 ADD SWAP1 POP PUSH2 0x3F1 PUSH0 DUP4 ADD DUP5 PUSH2 0x3CF JUMP JUMPDEST SWAP3 SWAP2 POP POP JUMP JUMPDEST PUSH0 PUSH1 0x40 DUP3 ADD SWAP1 POP PUSH2 0x40A PUSH0 DUP4 ADD DUP6 PUSH2 0x3CF JUMP JUMPDEST PUSH2 0x417 PUSH1 0x20 DUP4 ADD DUP5 PUSH2 0x3CF JUMP JUMPDEST SWAP4 SWAP3 POP POP POP JUMP JUMPDEST PUSH0 DUP2 MLOAD SWAP1 POP PUSH2 0x42C DUP2 PUSH2 0x33C JUMP JUMPDEST SWAP3 SWAP2 POP POP JUMP JUMPDEST PUSH0 PUSH1 0x20 DUP3 DUP5 SUB SLT ISZERO PUSH2 0x447 JUMPI PUSH2 0x446 PUSH2 0x2D5 JUMP JUMPDEST JUMPDEST PUSH0 PUSH2 0x454 DUP5 DUP3 DUP6 ADD PUSH2 0x41E JUMP JUMPDEST SWAP2 POP POP SWAP3 SWAP2 POP POP JUMP JUMPDEST PUSH0 PUSH0 PUSH1 0x40 DUP4 DUP6 SUB SLT ISZERO PUSH2 0x473 JUMPI PUSH2 0x472 PUSH2 0x2D5 JUMP JUMPDEST JUMPDEST PUSH0 PUSH2 0x480 DUP6 DUP3 DUP7 ADD PUSH2 0x41E JUMP JUMPDEST SWAP3 POP POP PUSH1 0x20 PUSH2 0x491 DUP6 DUP3 DUP7 ADD PUSH2 0x41E JUMP JUMPDEST SWAP2 POP POP SWAP3 POP SWAP3 SWAP1 POP JUMP INVALID LOG2 PUSH5 0x6970667358 0x22 SLT KECCAK256 0xF7 LOG0 LOG2 JUMPDEST RETURNCONTRACT 0xF3 SWAP7 EXTCODESIZE PUSH31 0xBE682C8D57422C19BA747E9C347DF70AFA1EF4AD006C2864736F6C63430008 0x1E STOP CALLER "
		},
		"gasEstimates": {
			"creation": {
				"codeDepositCost": "246600",
				"executionCost": "285",
				"totalCost": "246885"
			},
			"external": {
				"getTargetX(address)": "infinite",
				"getXWithEther(address)": "infinite",
				"setTargetX(address,uint256)": "infinite",
				"setXWithEther(address,uint256)": "infinite"
			}
		},
		"methodIdentifiers": {
			"getTargetX(address)": "311959a7",
			"getXWithEther(address)": "3c261701",
			"setTargetX(address,uint256)": "0dc6ad65",
			"setXWithEther(address,uint256)": "e9ab4ccc"
		}
	},
	"abi": [
		{
			"inputs": [
				{
					"internalType": "address",
					"name": "_target",
					"type": "address"
				}
			],
			"name": "getTargetX",
			"outputs": [
				{
					"internalType": "uint256",
					"name": "",
					"type": "uint256"
				}
			],
			"stateMutability": "view",
			"type": "function"
		},
		{
			"inputs": [
				{
					"internalType": "address",
					"name": "_target",
					"type": "address"
				}
			],
			"name": "getXWithEther",
			"outputs": [
				{
					"internalType": "uint256",
					"name": "",
					"type": "uint256"
				},
				{
					"internalType": "uint256",
					"name": "",
					"type": "uint256"
				}
			],
			"stateMutability": "view",
			"type": "function"
		},
		{
			"inputs": [
				{
					"internalType": "address",
					"name": "_target",
					"type": "address"
				},
				{
					"internalType": "uint256",
					"name": "_x",
					"type": "uint256"
				}
			],
			"name": "setTargetX",
			"outputs": [],
			"stateMutability": "nonpayable",
			"type": "function"
		},
		{
			"inputs": [
				{
					"internalType": "address",
					"name": "_target",
					"type": "address"
				},
				{
					"internalType": "uint256",
					"name": "_x",
					"type": "uint256"
				}
			],
			"name": "setXWithEther",
			"outputs": [],
			"stateMutability": "payable",
			"type": "function"
		}
	]
}